:020000041000EA
:1000000000B5324B212058609868022188439860DF
:10001000D860186158612E4B002199600221596106
:100020000121F02299502B49196001219960352056
:1000300000F044F80222904214D00621196600F024
:1000400034F8196E01211966002018661A6600F04E
:100050002CF8196E196E196E052000F02FF8012189
:100060000842F9D1002199601B49196000215960AB
:100070001A491B48016001219960EB211966A021F2
:10008000196600F012F800219960164914480160C1
:100090000121996001BC002800D000471248134993
:1000A000086003C880F30888084703B5996A0420EC
:1000B0000142FBD001200142F8D103BD02B5186610
:1000C0001866FFF7F2FF186E186E02BD00000240BE
:1000D000000000180000070000035F00212200005C
:1000E000F4000018222000A00001001008ED00E03C
:1000F00000000000000000000000000074B24E7A12
:1001000000200420F7010010C3010010C5010010F9
:10011000C1010010C1010010C1010010C101001097
:10012000C1010010C1010010C1010010C701001081
:10013000C1010010C1010010C9010010CB01001065
:10014000CD010010CD010010CD010010CD01001037
:10015000CD010010CD010010CD010010CD01001027
:10016000CD010010CD010010CD010010CD01001017
:10017000CD010010CD010010CD010010CD01001007
:10018000CD010010CD010010CD010010CD010010F7
:10019000CD010010CD010010CD010010CD010010E7
:1001A000CD010010CD010010CD010010CD010010D7
:1001B000CD010010CD010010CD010010CD010010C7
:1001C00000BE00BE00BE00BE00BE00BEEFF3058054
:1001D000103800BEF2EB8871C0560110EC560110C9
:1001E0003402001090A31AE700201F49086006C8D7
:1001F00081F3088810471D48006800282FD10DA4FE
:100200000ECC002902D000F012F8F9E71849194A7B
:10021000002000E001C19142FCD1174988471749ED
:1002200088471749884700BEFDE701C901C29A42C5
:10023000FBD37047EC560110C0000020C815002009
:10024000F46B01100000042000000420F46B011086
:10025000001004200010042000000000704709482E
:100260000CF006FA0047000008ED00E0000000D0A6
:10027000E8150020F0320020F9B3001099070010B3
:10028000B5B300105756000006005250ABB3605390
:10029000B04C011006005250861C0302C04C0110E5
:1002A000060052505422A29DDC4C01100500525011
:1002B000DE65F468F46B0110F8B5C04610B5064C65
:1002C0002378002B07D1054B002B02D0044800E017
:1002D00000BF0123237010BD88180020000000001B
:1002E000F8270110044B10B5002B03D00349044834
:1002F00000E000BF10BDC046000000008C180020C8
:10030000F827011070B500290AD001248440D025B7
:100310002D06AC620022002108F0DCFF6C6170BD8C
:1003200001248440D0252D066C620022002108F0B3
:10033000D1FFAC61F3E770B500280ED0D0242406BD
:1003400080252D05656164200AF026F9022363618A
:1003500064200AF021F9A56170BDD024240680250F
:100360002D05656164200AF017F90223A36164205A
:100370000AF012F9A561EFE710B5002804D00121B9
:100380000E20FFF7BFFF10BD00210E20FFF7BAFFC0
:10039000F9E7000010B5002001F0E1F90F2001F0AD
:1003A000DEF9062001F0CCF9082001F0C9F90B2094
:1003B00001F0C6F90C2001F0C3F90D2001F0B0F9ED
:1003C0000A2001F0ADF9072001F0AAF9092001F097
:1003D000A7F9184918480FF057FB0121122008F01F
:1003E00061FF0121132008F05DFF0121142008F0B6
:1003F00059FF102008F088FFD024240680235B02D8
:1004000063626361162008F07FFF8023DB03636271
:100410006361112008F078FF80239B0263626361AF
:10042000152008F071FF80239B036362636100F075
:10043000D5FD10BDC0C62D0000C00340F8B5DE4696
:1004400057464E464546E0B50400D0263606802382
:100450009B019846B361052000210AF071F873688A
:10046000DB0A01252B405A42534101273B401B0127
:10047000227810218A431343237073681B0B2B408F
:100480005A4253413B405B01227820208243134370
:10049000237073689B092B405A4253413B409B0198
:1004A000227830318A431343237073681B0A2B4030
:1004B0005A425341DB0122783F310A4013432370F3
:1004C000434673618023DB009B46B3610520002116
:1004D0000AF036F873681B0B2B405A4253413B40DD
:1004E0009B002278042189468A4313432370736852
:1004F000DB0A2B405A4253413B40DB002278043157
:1005000088468A431343237073681B0A2B405A4260
:1005100053413B405B00227806398A468A431343A5
:10052000237073689B092B405A4253413B40227809
:10053000AA43134323705B46736180239B46B361D8
:100540000520002109F0FCFF73689B092B405A42EB
:1005500053413B401B01627810218A43134363706F
:1005600073681B0A2B405A4253413B405B00A27800
:10057000504682431343A37073681B0B2B405A42AF
:1005800053413B40A278AA431343A3707368DB0A2C
:100590002B405A4253413B405B0162781E308243FC
:1005A000134363705B4673618133FF339B46B361D2
:1005B0000520002109F0C4FF73681B0A2B405A4232
:1005C00053413B409B00627848468243134363702B
:1005D00073681B0B2B405A4253413B406278AA433D
:1005E0001343637073689B092B405A4253413B404D
:1005F0005B00627850468243134363707368DB0A82
:100600002B405A4253413B40DB00627840468243D4
:10061000134363705B46736173682B405A425341C6
:10062000DB01627877300240134363707368DB0B41
:100630002B405A4253413B409B0162783F388243F2
:100640001343637073689B081D406B425D412F40EC
:10065000BA00A378484683431343A370FF00DDB27A
:1006600043469D432F43A7706378DB06DB0F1B01D6
:10067000FAB210218A431343A370F0BCBB46B246C2
:10068000A946A046F8BD0000F0B5D6464F464646FE
:10069000C0B584B0040003AF3B4B1A883A800023F6
:1006A000BB7002AE3280B37001AD2A80AB70694678
:1006B0000A808B70D0231B06984680235B029946E4
:1006C00043464A469A61314B9A4603233A00D02169
:1006D000504611F0F9FF43464A465A619A61032396
:1006E0003200F021504611F0EFFF43464A465A616E
:1006F0008023DB03994643464A469A6103236A46B0
:10070000F021504611F0E0FF43464A465A619A6193
:1007100003232A00D021504611F0D6FF43464A4613
:100720005A613B785B027A785200E02109010B4064
:100730001343BA78D2091343236032785202737894
:100740005B000A401A43B378DB091A4362602A78D7
:1007500052026B785B000A401A43AB78DB091A43FC
:10076000A2606B461B785B026A46527852000B40CF
:1007700013436A469278D2091343E36004B0E0BCA5
:10078000BA46B146A846F0BD0C28011000C003408F
:1007900010B500F038FB10BD10B584B00EF050F964
:1007A000642009F0F9FE35480EF00EF9FFF7F2FD6E
:1007B0000E2008F0A9FD0020FFF7DEFD1B2008F049
:1007C000A3FDD024240680231B056362A3610120BE
:1007D00008F09AFD02236362A361022008F094FDF1
:1007E0000423A36200220121022008F073FD0B22E2
:1007F000002101A80DF0ACFF01A8FFF71FFE204B60
:100800009B886A46138063685B0703D401AB5B78FF
:10081000DB070ED401AB5B785B0704D5D0231B0646
:100820005B685B070CD5684600F090FE002004B0C2
:1008300010BD14480BF01CFF03000021080098476E
:1008400002236A4613700120FFF796FD0120FFF78F
:1008500072FD0D4809F0A0FE07E0002200210020F3
:100860000AF06CFD962009F097FE01AC2000FFF71E
:10087000E5FD6378DB07F0D4F4E7C046F827011004
:100880000C28011055420000AC0D000010B5011CF1
:1008900005480DF08AFB05490DF087FBFE2189050F
:1008A0000DF079FB10BDC046286BEE4C00401C4695
:1008B000F8B5041C0E1C0021301C0DF0BDFB0028F7
:1008C0005FD13F49201C0DF0D5FB002800D03C4CE7
:1008D0003C49201C0DF0B8FB002800D0394C3A49A7
:1008E000201C0DF058FB394B1C68FFF7CFFF071C8D
:1008F0000DF01EFCC5B228000DF0C6FB011C381C13
:100900000DF049FB8321C9050DF065FB0DF010FCCE
:10091000C0B22D010543A3001B199B002C4A94462D
:1009200063445D602B4A1A61301C0DF009FC2A4AB1
:100930002A4B0CF0ABF9002800D0294E2949301C75
:100940000DF049FB0DF0F4FB80B2A3001B199B00D6
:10095000254A944663441A6850400004000C8022E3
:10096000520113431860194B19688B005B189B00E8
:1009700017498C4663441868012181431343196069
:10098000F8BD1248026893009B189B00164A9446D3
:1009900063441968154A4A401204120C8021490127
:1009A0000B431A60026893009B189B00084A944608
:1009B00063441868012202400B431A60E0E7C04616
:1009C0000080A24400002042000020416832002044
:1009D0000000054010270000333333333333C33F67
:1009E0009A99193E00409C450C0005408813000070
:1009F00010B5034B1960034B1860FFF759FF10BD8A
:100A0000BC1B0020C01B0020F0B595B0192008F0D9
:100A10007BFCD0231B06802292045A629A616420D8
:100A200009F0BAFD13AA7D4B13807D4C002500957B
:100A300002235A2120000FF019FA0A2009F0ACFD18
:100A400012AA784B1380009502235A2120000FF040
:100A50000DFA0A2009F0A0FD11AA734B138000952E
:100A600002235A2120000FF001FA0A2009F094FD18
:100A700010AA6E4B1380009502235A2120000FF01C
:100A8000F5F90A2009F088FD0FAA694B138000953B
:100A900002235A2120000FF0E9F90A2009F07CFD19
:100AA0000EAA644B1380009502235A2120000FF0F8
:100AB000DDF90A2009F070FD0DAA5F4B1380009547
:100AC00002235A2120000FF0D1F90A2009F064FD19
:100AD0000CAA86235B00138000950B3BFF3B5A2139
:100AE00020000FF0C3F99620800009F055FD534B0C
:100AF0001A780BAB1A70524B1A780AAB1A70002690
:100B000002E00A2009F048FD002E15D1444D0123D2
:100B100000930BAA5A2128000FF0A8F90AAC002371
:100B20000093013322005A2128000FF0CAF92378DC
:100B3000DB07E6D40126E4E709AA414B1B781370D2
:100B40006846202140180370354C01270097012387
:100B50003A3120000FF08AF900250095012308AAF8
:100B60005A2120000FF0ADF96A46D57795771D26FA
:100B70006E44357007AA334B1B781370009701231E
:100B80005A2120000FF072F9009501231F226A44B8
:100B90005A2120000FF095F906AA2B4B1B781370F1
:100BA000009701235A2120000FF060F900950123DE
:100BB0001E226A445A2120000FF083F905AA234B14
:100BC0001B781370009701235A2120000FF04EF973
:100BD0000095012332005A2120000FF072F932787B
:100BE00003231340337004A96A46D27F0A706A4611
:100BF000927F4A708B706A462023D3181B78CB7083
:100C0000042007F08FFA03AA114B138000950223EA
:100C10005A2120000FF02AF915B0F0BD010700009D
:100C20005815002016030000171700001ABEFFFF1A
:100C30001CFDFFFF1E2000001F0C000014280110E7
:100C4000F8320110182801101C280110202801106A
:100C50000103000070B58EB05A4B1B78002B01D0F9
:100C60000EB070BD574B01221A70192008F04CFBD2
:100C7000D0231B06802292045A625A61182008F081
:100C800043FB0421182008F00DFB4F4B04221A608F
:100C90004E4BFA22D2005A6500268BE002AA4C4B3A
:100CA00013804C4C0025009502235A2120000FF0A0
:100CB000DDF80A2009F070FC03AA474B1380009569
:100CC00002235A2120000FF0D1F80A2009F064FC19
:100CD00004AA424B1380009502235A2120000FF0F2
:100CE000C5F80A2009F058FC05AA3D4B1380009571
:100CF00002235A2120000FF0B9F80A2009F04CFC19
:100D000006AA384B1380009502235A2120000FF0C9
:100D1000ADF80A2009F040FC07AA334B1380009578
:100D200002235A2120000FF0A1F80A2009F034FC18
:100D300008AA2E4B1380009502235A2120000FF0A1
:100D400095F80A2009F028FC09AA294B1380009580
:100D500002235A2120000FF089F80A2009F01CFC18
:100D60000AAA182313800095163B5A2120000FF081
:100D70007DF80BAA192313800095173B5A212000F8
:100D80000FF074F80CAA1B4B1380009502235A2114
:100D900020000FF06BF80DAA174B1380009502236B
:100DA0005A2120000FF062F8D0231B068022920403
:100DB0009A610136012E00D870E70020011CFFF770
:100DC00077FD4DE7E9320020683200200000054041
:100DD0001603000058150020171700001ABEFFFF69
:100DE0001BABFFFF1CFDFFFF1DD3FFFF1E200000FC
:100DF0001F0C0000221F00000103000010B5FFF7C8
:100E000003FE012010BD70470902084300B270477D
:100E100070B582B0D02424068025AD02A5616B4652
:100E2000187159710B4E022201A9300011F09CFC7F
:100E30006561022009F0B0FB8025AD03A5610222A7
:100E400001A9300011F090FC6561022009F0A4FBBB
:100E500002B070BD00C00340F0B5DE4657464E46B6
:100E60004546E0B585B006000D0001AC00230193B6
:100E70000822002102A80DF06BFC03236B449A4664
:100E8000A22352461370D0231B0698468027BF0228
:100E90009F61514B994601225146180011F064FCA4
:100EA0000C2322000021484611F00EFC43465F61EE
:100EB00061782078FFF7A8FF80B2404283B2FF2715
:100EC0003840B0711B0AF371E178A078FFF79CFFFE
:100ED00083B2384030721B0A737261792079FFF750
:100EE00093FF83B23840B0721B0AF372E179A079A4
:100EF000FFF78AFF80B2404283B2384030701B0A4D
:100F00007370617A207AFFF77FFF83B23840B07048
:100F10001B0AF370E17AA07AFFF776FF83B23840BC
:100F200030711B0A737180239B039B4643465A46CC
:100F30009A6101225146484611F016FC0C2322000A
:100F40000021484611F0C0FB43465A465A61617879
:100F50002078FFF759FF83B23840A8711B0AEB7164
:100F6000E178A078FFF750FF80B2404283B238406A
:100F700028721B0A6B7261792079FFF745FF83B2F3
:100F80003840A8721B0AEB72E179A079FFF73CFFA9
:100F900083B2384028701B0A6B70617A207AFFF7A1
:100FA00033FF80B2404283B23840A8701B0AEB7016
:100FB000E17AA07AFFF728FF83B2384028711B0A34
:100FC0006B71012333732B7305B0F0BCBB46B24683
:100FD000A946A046F0BDC04600C0034010B58C2114
:100FE0001020FFF715FF8C211120FFF711FF0421BE
:100FF0001220FFF70DFF06211320FFF709FF06213E
:101000001520FFF705FFE0211720FFF701FF10BDB6
:10101000F0B5C64600B5040004282DD005282FD011
:10102000032803D0002080BCB846F0BD0527042368
:101030009846200008F068F901263300A340D02527
:101040002D06AB6200220121200008F043F9404642
:1010500008F05AF93300424693406B62AB613800A6
:1010600008F052F93300BB406B62AB616B68E34040
:101070001E4209D00120D6E7052703239846D8E76A
:10108000032704239846D4E70020CCE710B50320BB
:10109000FFF7BEFF10BD10B50520FFF7B9FF10BD6B
:1010A00010B50420FFF7B4FF10BD10B501210E20CC
:1010B000FFF728F99620800009F06EFA07F088FD06
:1010C000002800D110BD0120FCE710B501F0B6FCEE
:1010D00010BD0000F0B5C64600B584B0142339E059
:1010E00001330B2B05D801AAD25C002AF8D00125C8
:1010F000F6E7182009F050FA304BDB685B07FBD5A8
:10110000D02636068027BF03B7612C4B98460122B4
:101110006B46D91C404611F027FB0C2301AA002185
:10112000404611F0D1FA77610C283ED1002300210E
:1011300000E001330B2B05D801AAD25C002AF8D0BD
:101140000121F6E7002901D0002D31D1182009F046
:1011500023FA23005C1E002B29D0002301930822D0
:10116000002102A80DF0F4FA6B46A222DA70134BAC
:10117000DB685B07FBD5D0252D068026B602AE6165
:101180000E4F01226B46D91C380011F0EDFA0C23EA
:1011900001AA0021380011F097FA6E610C2802D1E3
:1011A000002300259DE7002502E0002500E0002542
:1011B000280004B080BCB846F0BDC04600C0034063
:1011C00070B584B003A9494B1A880A8000238B703C
:1011D00002A90A808B7001A90A808B7069460A8077
:1011E0008B700A242300013C002B74D0D0231B06F3
:1011F000802252029A613E4BDB685B07FBD50323DA
:1012000003AAD0213A4811F05FFA032866D1D0230F
:101210001B06802252025A619A61354BDB685B07DC
:10122000FBD5032302AAF021314811F04DFA03281F
:1012300056D1D0231B06802252025A618022D2034B
:101240009A612B4BDB685B07FBD503236A46F021D1
:10125000274811F039FA032844D1D0231B068022F5
:10126000D2035A619A61224BDB685B07FBD50323EB
:1012700001AAD0211E4811F027FA032834D1D02327
:101280001B068022D2035A6100230020002600257D
:10129000002100E00133022B14D803AAD25C002AFB
:1012A00000D0012101AAD25C002A00D0012602AAA6
:1012B000D25C002A00D001256A46D25C002AE9D01F
:1012C0000120E7E700298DD0002D8BD0002E89D09A
:1012D000002887D000E0002004B070BD0020FBE7AC
:1012E0000020F9E70020F7E70020F5E724280110A7
:1012F00000C0034010B5FFF781FD10BD012070470D
:1013000070B582B0FFF75CFF01AC012601252840D3
:10131000030120781022904318432070FFF7D5FE78
:10132000C30122787F20104018432070FFF7BDFED4
:101330002840830120784022904318432070FFF713
:10134000AFFE284083002078042290431843207089
:10135000FFF79CFE03002B402078B0431843207019
:10136000FFF799FE2840430020780222904318435B
:101370002070FFF7C3FF2840C30020780822904365
:1013800018432070FFF7A6FE284043012078202252
:10139000904318432070FFF7ADFF05406078B043DD
:1013A00005436570208802B070BD000010B512E0E2
:1013B0000C4B9A6A0C4B1A600C4811F08DF900F036
:1013C000EFFA094C206805F04BF9206803F0CAF9E0
:1013D0002068FFF7DDF90649044811F0A5F9002857
:1013E000E6D1ECE700400540D01D00208815002024
:1013F0001422002070470000014B0020185670474F
:101400000812002000487047B818002000487047B4
:10141000F018002010B5002803D1074B00221A70E5
:1014200010BD0120FEF787FF0120FEF7A5FF024B4C
:1014300001221A70F4E7C046AA32002010B500203D
:10144000FEF79AFF0020FEF776FF00220021002021
:1014500009F074FF10BD000010B5064B1B78002B7F
:1014600000D010BD034B01221A70002001F00EFACB
:10147000F7E7C046D432002010B5284B1B78002B6C
:101480002CD02749274811F04FF900282ED12648A3
:10149000FEF7D4FF254B1B78002B2FD103F064FC03
:1014A000234C2068204905F02FF9206801F092FABA
:1014B00006F00CFE002825D01D4C20681D4904F0C4
:1014C00091F8206800221C4906F052FE1B4B1B7845
:1014D0005BB2012B1DD009F0DFFE10BD00211848C2
:1014E00009F020FF0D4B01221A70CAE7154B9A6ACA
:1014F0000F4B1A600B4811F0EFF8C8E70A48FFF7E6
:1015000079FFCBE70A4B18680B4A0F4900F016FB2E
:10151000DCE7074B186801F00FFCDCE7DC32002049
:101520001022002088150020F0180020AA32002088
:10153000D01D0020B8180020D81800200812002064
:101540008813000000400540FC18002070B5041E00
:1015500000D1C4E001F02BFCC0B2012841D0FEF75D
:1015600019FF5F495F480EF055FC03211C2007F06E
:1015700099FE03211D2007F095FE5B48FEF75EFFF4
:1015800000F07EFA00282FD0574D2B00574A5849BB
:10159000584804F0B5FEAB78DB062BD4FFF75AFBB6
:1015A00002F0CAFA012565576B1C29D00023E356C7
:1015B0005A1C01D0504A13704B4B1B789A0623D407
:1015C0005A0632D4DA0632D45AB2002A31DB5A072C
:1015D00031D40A221A40022A2FD01B0715D5022522
:1015E00013E002232370BAE700F0F4F8C82008F0F3
:1015F000D3FFC9E70622002140480DF0A9F8CDE746
:101600003F4B02255D57D1E706253D4ABA235B00D3
:10161000D65C0023E356013311D06421EBB2072BD3
:1016200040D8AB00374AD3589F460125EDE7002547
:10163000EBE70525E9E70425E7E70325E5E701F002
:101640000DFB002804D12C4B02221A704621E5E73D
:10165000642001F0B3FA284B01221A706421DDE7FF
:10166000294C300001F038F90121200001F0ECF89C
:10167000214B00215956280000F070FA1A4B9B7834
:101680009B0727D4214A1849280003F015FA0DF0CA
:10169000F1FC1F480DF0DCFCFFF7EEFEFCE7FF2439
:1016A0002406DEE71B4CDCE7FF242402D9E7124BBB
:1016B00000221A70FF2424041921D2E70E4B0022C5
:1016C0001A70154C0F21CCE70B4B00221A70134CEB
:1016D0001921C6E70A4B9D7000F0B0F9D2E770BD42
:1016E000400D030058150020F0180020B818002005
:1016F000D8180020C8180020081200201418002054
:10170000E81600202828011000F115FFFC18002021
:10171000AD13001000A1A1A100FF61000000FFE6D1
:1017200010B5040007F0F0FD00220121200007F0B1
:10173000D1FD0123A340D02212065362536110BD94
:1017400010B5040007F0E0FD00220121200007F0A1
:10175000C1FD0123A340D0221206936210BD10B533
:10176000040007F0D1FD00220121200007F0B2FDA6
:101770000123A340D0221206936210BD10B5124877
:101780000DF052F9002407E0104B5B18D97810488F
:101790000DF04AF90134E4B2052C0DD80DF03EFFEE
:1017A0002100C0B2094A1219D070002CECD11300EC
:1017B00001229043D870E7E7044B9B221A720A205B
:1017C0000DF0CEF810BDC04648280110E8160020E4
:1017D00058280110F0B5DE4657464E464546E0B55E
:1017E000E9B0CC256D002A00002102A80CF0B0FF62
:1017F0005D4B02AA1380059B0193DB0FDB07802260
:10180000120113430593069B0193DB0FDB07134380
:101810000693079B0193DB0FDB0713430793089B9A
:101820000193DB0FDB071A430892504F0A97504E83
:101830000B96504C0C9450480D9050490E91504AC4
:101840000F92504B10931297139614941590169173
:10185000179218934C4B19931A931B931C931D9337
:101860001E931F9320932193802202A98B50043250
:101870008B5004328B5004328B5004328B50043224
:101880008B5004328B50FF231B049946A8230A0077
:101890004946D1503D4B9B46AC235946D1503C4B19
:1018A0009846B0234146D150FF273F060433D75016
:1018B000FF2636020433D6500433364A02A9CA50F2
:1018C000354B9A46C0230A005146D150043349464D
:1018D000D1500433D7500433D65004334146D1504D
:1018E0000433D650A23B2A22FF3202A98B54013284
:1018F0008B542A4C2A0020000CF030FF002003F00B
:10190000A1F8012003F09EF8022003F09BF80320C9
:1019100003F098F8042003F095F820009C3006228C
:1019200000210CF015FF2000A230062200210CF04F
:101930000FFFFFF723FFBC235B004A46E25004334E
:101940005A46E25004334246E2500433E75004332F
:10195000E65004335246E25069B0F0BCBB46B24692
:10196000A946A046F0BDC04601A0FFFF00003442DA
:101970000000B4420000074300003443000061430C
:101980000000874300809D43000016440000FF4D87
:101990000000FFE600F115FF00FF6100E8160020DF
:1019A00070B51D4CA5441D4B1B78002B03D1802323
:1019B0005B019D4470BD0DF075FBEFF3108672B6B0
:1019C00000230093164A002101A80CF0C1FECC228E
:1019D0005200144968460CF0C1FE80256D01124C7E
:1019E0002900200010F0A8FE2A006946200010F00F
:1019F00083FE86F310880DF05FFB0C4B1B78002BE9
:101A000003D1064B00221A70D1E706F019FC074BF0
:101A100000221A70F5E7C04600F0FFFFD232002026
:101A2000FC0F0000E816002000D01200DD3200207C
:101A3000014B01221A707047DD320020014B012258
:101A40001A707047D232002010B5031C4B2800D901
:101A50004B2303492C22FF328B54FFF7FBF810BDB8
:101A6000E816002010B5031C322800D932230349A0
:101A70002A22FF328B54FFF7EDF810BDE816002044
:101A800010B5194CCC225200184920000CF066FE0B
:101A90002288174B9A4209D016480CF095FFFFF7A1
:101AA00099FE0020FFF7CAFF00201CE00E4A952394
:101AB0005B00D35C1A1C312B00D832220A4C9523D0
:101AC0005B00E2542C23FF33E05CFFF7BDFF2A23C9
:101AD000FF33E05CFFF7C6FFE37801229343E37036
:101AE0009B232372012010BDE816002000D01210A5
:101AF00001A000006028011030B50F4C40004508DF
:101B0000E068C00FC0072843E06049004808216929
:101B1000C90FC90701432161520051086269D20F00
:101B2000D2070A4362615B005A08A369DB0FDB0737
:101B30001343A36130BDC046E816002010B5034B27
:101B40001B68002B00D0984710BDC046A41B002086
:101B5000014B002018567047B732002010B588B0EE
:101B60000400284B1870022910D00B22002105A870
:101B70000CF0EEFD1022002101A80CF0E9FDE3B20B
:101B8000062B0BD8A400204B1B599F461F4B204A05
:101B90001A6007F0ADF80028E7D005E01B4B1D4A9E
:101BA0001A60002001F0B2F908B010BD174B194AB5
:101BB0001A60062001F0AAF9F6E7144B154A1A60DC
:101BC000012001F0A3F9EFE7104B124A1A6005203B
:101BD00001F09CF9E8E70D4B0F4A1A6001AA05A92C
:101BE0000020FFF7ABFFDFE7084B0C4A1A6001AAA1
:101BF00005A90020FFF7A2FFD6E7044B084A1A60A8
:101C0000D2E7C046B7320020B8280110A41B00203C
:101C1000298F0010B92F00101D700010557800108A
:101C2000A17D001010B5054B1B78002B03D0FFF7EA
:101C300005FC012010BD00F06BFFFAE7CD3200205B
:101C4000F0B5C64600B590B004000D0016001F00A8
:101C500016AB1B789846494B984200D188E0072183
:101C6000380007F01FFB012300933A0029002000F1
:101C70000DF0C0FD1022002108A80CF069FD8023A2
:101C80005B020893F8235B0209938023DB020A932B
:101C9000C0231B030A93102208A904A80CF05EFDC0
:101CA000F31C059A039236491140F20111431B03BC
:101CB00019430591079B0393DB00DB088022920503
:101CC000134307932F4B19400591102204A90CA828
:101CD0000CF044FD0F9B03932B4A1A40BF0217439D
:101CE0000F974346002B45D020220E9B0393274994
:101CF000194080239B020B435206F82189050A40B4
:101D000013430E939B009B088022D20513430E932E
:101D1000052009F023FA1E490AF0FEFC0CF0AFF989
:101D200080460CF005FA87B2002F25D038000CF061
:101D3000A6F9011C40460CF02EF98721C9050CF0CC
:101D40004AF90CF0F5F9C0B200023F0407430C97C2
:101D50000CAB3200290020000DF09EFD226801230B
:101D6000AB409A431343236010B080BCB846F0BD2B
:101D7000062175E71822B8E70020E5E700002050AB
:101D80007F00FEFFFFFFFF9FFF83FFFFFFFFF5C107
:101D90000050C30070B505000C0000880CF06FF90E
:101DA0001B490CF002F91B490CF015F90CF0C0F9B5
:101DB000C2B22B79A978C943C9B25943090A5B1A3F
:101DC000DBB23F2528402D1AEDB2584380096B4302
:101DD0009B11DBB20818C0B2CB18DBB23F2A10D976
:101DE000403AD2B23F2A06D81A060B061B0A000256
:101DF000134318430AE0090600041B020843184372
:101E000004E000061B04090218430843206070BD6B
:101E100000007F4300003F43F8B5CE46474680B5FB
:101E20000400234B1D78002D05D100230360C0BCA6
:101E3000B946B046F8BD642DF9D08778E678B81970
:101E400063789846C0180CF01FF91A490CF0ADF8E9
:101E5000814628000CF013F917490CF0A6F8051C70
:101E6000011C48460CF0F6F80028E0D14946281C31
:101E70000CF09BF8051C38000CF001F9291C0CF043
:101E8000AAF80CF055F9A07030000CF0F8F8291CF5
:101E90000CF0A1F80CF04CF9E07040460CF0EFF8B3
:101EA000291C0CF098F80CF043F96070BFE7C046AD
:101EB0002A12002000007F430000C842F0B5D64639
:101EC0004F464646C0B504000368002B35D08378E2
:101ED0009846C778D819667880190CF0D5F8051C93
:101EE00040460CF0CCF88046291C0CF05EF8824687
:101EF00038000CF0C4F8071C291C0CF056F8814679
:101F000030000CF0BCF8061C291C0CF04EF8051C27
:101F1000514640460CF05FF80CF00AF9A0704946B3
:101F2000381C0CF058F80CF003F9E070291C301C38
:101F30000CF051F80CF0FCF86070E0BCBA46B14609
:101F4000A846F0BD00220AE0930006495958064B06
:101F50005B68DB03FBD4044B19610132D2B2132A54
:101F6000F2D97047F41F002000002050F8B5DE467B
:101F700057464E464546E0B506000D00141C8078D5
:101F80000CF07DF88046F0780CF079F8071C70783A
:101F90000CF075F8061CA8780CF071F88346E87808
:101FA0000CF06DF8824668780CF069F8814641467D
:101FB00058460BF0F0FF211C0CF00DF841460BF0D9
:101FC000EFFF051C391C50460BF0E5FF211C0CF0FF
:101FD00002F8391C0BF0E4FF071C311C48460BF0DB
:101FE000DAFF211C0BF0F7FF311C0BF0D9FF061CA8
:101FF000281C0CF09DF8C5B2381C0CF099F8C4B23E
:10200000301C0CF095F8C0B22D04000224062843C1
:102010002043F0BCBB46B246A946A046F8BD00002E
:10202000F8B5274B1D7828000CF02EF8011CFE2077
:1020300080050BF0BAFF041C224B1B78002B0BD041
:102040005022214921480CF089FB0023204A1370BB
:102050001C4A13701F4A13701D4B1E78B5421DD3C6
:1020600030000CF00CF8211C0BF0B5FF051C00240F
:102070000BE0A7001849C9191448C0192A1CFFF71A
:1020800075FF114BD8510134E4B2132CF1D901364C
:102090000F4B1E70FFF756FF0020F8BD0D4B1B784D
:1020A000002B01D00020F8E750220B4906480CF025
:1020B00055FBFFF747FF074B01221A700120ECE7A1
:1020C000C4320020CB320020F41F00204C2000201E
:1020D000EB3200202C1200209C200020F0B5C646D8
:1020E00000B506000F001500984600240AE0335D95
:1020F0009B004246EA50305D80002818FFF7DEFE64
:102100000134E4B2BC42F2D380BCB846F0BD00005A
:10211000031C642800D96423014A13707047C04629
:102120002A120020014B01221A707047CB32002086
:1021300030B585B01D4B1B78002B0FD10024132C1C
:1021400009D80DF06BFAFF210AF0E6FA184B195581
:102150000134E4B2F3E7154B01221A7000241FE0AA
:10216000134D2B5D134A1078C018FF210AF0ACFA0A
:10217000C9B2295502A80180FF2343808380002330
:10218000019301A9FFF706FE01A8FFF745FE0A48E3
:10219000A300019A1A50C018FFF790FE0134E4B270
:1021A000132CDDD9FFF7BEFF05B030BDCA320020C9
:1021B000C41F00202B1200209C20002070B5194B5A
:1021C0001B78002B12D1184B00221A70154B0132CC
:1021D0001A700024132C0DD80DF020FA06210AF0F5
:1021E0009BFA124B19550134E4B2F3E7104B1A78FD
:1021F000104B1A70002410E00C4D2B5D5E339B00D9
:102200000D4A9958A2000D4BD1500DF007FA062146
:102210000AF082FA29550134E4B2132CECD9FFF705
:1022200081FF70BDCA320020B1320020C41B0020E3
:10223000C5320020C4320020E81600209C20002077
:1022400030B583B0050000240CE0019501A8FFF72C
:10225000E3FD0648A300019A1A50C018FFF72EFEAE
:102260000134E4B2132CF0D903B030BD9C2000201F
:1022700010B509480388094A12789B18FF221340B9
:102280000380074C2100FFF785FD2068FFF7D8FF8A
:10229000FFF748FF10BDC046241200202B1200207B
:1022A000C01F002010B5104B1B78002B16D10F4B10
:1022B00000221A700C4B01321A700C4C23785E33DA
:1022C0009B000B4A9858FFF7BBFF2078013006218E
:1022D0000AF0FAF92170FFF725FF10BD054B1A78B7
:1022E000054B1A70E9E7C046CA320020B13200201F
:1022F000E8160020C5320020C432002010B50F4B74
:102300001B78002B10D10E4B1B68002B02D10C4BFD
:102310000C4A1A600A4B1868FFF792FFFFF702FF9A
:10232000064B01221A7010BD0020FFF789FFFFF74E
:10233000F9FE024B00221A70F5E7C046E532002094
:10234000442000200000FFE610B50F4B1868FFF78F
:1023500077FFFFF7E7FE0D4B1B780D4A127893428B
:1023600004D20133094A1370002010BD0023084A2B
:102370001370064A1370074A1370074B1A78074BFD
:102380001A700120F1E7C04648200020C732002023
:10239000C6320020C3320020C8320020C4320020E0
:1023A00070B50C000A2803D88000224B1B589F46AA
:1023B0000126214D1FE00426204D1CE00426204D5F
:1023C00019E001261F4D16E001261F4D13E00126DE
:1023D0001E4D10E001261E4D0DE001261D4D0AE0A8
:1023E00001261D4D07E001261C4D04E001261C4D71
:1023F00001E00426104D002A12D02300194A3100B2
:102400002800FFF76BFE2300174A31002800FFF772
:1024100065FE2300154A31002800FFF75FFE70BDFE
:102420002300114A31002800FFF758FEFFF77AFE1B
:10243000F5E7C046D428011054290110482901109D
:10244000402901104C2901103C2901104429011098
:10245000502901105C29011058290110342901105C
:10246000382901104C2000209C200020F41F00205F
:1024700070B50C4B19682C220B480CF06FF9002436
:102480000CE0A300084DED182800FFF7C5FC2968F3
:1024900000222000FFF784FF0134E4B20A2CF0D9B7
:1024A00070BDC046EC200020F020002010B5024B8B
:1024B0001860FFF7DDFF10BDEC20002010B50F4BBA
:1024C0001B78002B08D00E4B1B68052B0DD80C4A2F
:1024D00013680133136010BD0A48FFF7E7FFFFF7E9
:1024E00021FE064B01221A70EDE7054B00221A600F
:1024F0000448FFF7DBFFFFF715FEE8E7CA320020CC
:102500006428002090170020274AC8235B00D35C72
:10251000834209D0002B03D19133FF330521D154DD
:10252000214AC8235B00D0541F4AC8235B00D25CF9
:102530001E4B1A701E4B1978052903D88B001D49B4
:10254000CB589F4615231C4A13701C4A13707047C2
:102550001523194A1370194A1370F8E71523164A00
:102560001370164A1370F2E71523134A1370134AB7
:102570001370ECE7104B152119709300D218FA2A4A
:1025800000D9FA22D2B2D2430C4B1A70DFE70A4BC1
:10259000152119709300D218FA2A00D9FA22D2B262
:1025A000D243064B1A70D2E7E81600202B12002007
:1025B000C932002000290110C4320020C532002099
:1025C00070B50C000BF060FD8A21C9050BF0E3FC2F
:1025D000051C20000BF058FD8A21C9050BF0DBFC1F
:1025E000041C291C281C0BF0F6FC051C211C201CBB
:1025F0000BF0F1FC011C281C0BF0D2FC0BF0AAFD27
:10260000E82189050BF0E7FC041CFE2189050BF08D
:1026100031FD002801D0FE24A4050021201C0BF070
:1026200013FD002801D1201C70BD0024FBE7000031
:1026300070B584B0FEF7EAFE0400FEF7E3FE050085
:1026400041680068FFF7BCFF061CE968A868FFF74F
:10265000B7FF051C784B1B78002B04D10133764A59
:102660001370764A1370227863781B021343744AFE
:102670001288934200D1C9E02378DB0600D58DE0B3
:1026800023789B0600D591E023785B0600D595E082
:102690000023E356002B00DA98E06378DB0600D5D0
:1026A0009CE063789B0600D5A0E02278D307DB0F7F
:1026B0009107C90F0B435107C90F0B431207D20FE4
:1026C000134300D09AE0227863781B0213435C4ADC
:1026D00013800121A3785A4A9278934200D1A7E04F
:1026E00053409B0700D593E0A378554A9278534016
:1026F000DB0700D594E0A278514B9A7000220021AC
:102700000920FFF74DFE002200210A20FFF748FEB6
:10271000002200210820FFF743FE002200210720AD
:10272000FFF73EFE002200210620FFF739FE0022BF
:1027300000210320FFF734FE002200210220FFF7D2
:102740002FFE002200210520FFF72AFE0022002193
:102750000420FFF725FEFFF7E5FC00230393394C27
:10276000AC33E3580293321C02A903A8FFF7FEFB27
:10277000010001220120FFF713FEA823E358019373
:102780002A1C01A903A8FFF7F1FB01000122002088
:10279000FFF706FEFFF7D6FB04B070BD294ACC2335
:1027A000D15801220920FFF7FBFD69E7254AD02314
:1027B000D15801220A20FFF7F3FD65E7214AC8231B
:1027C000D15801220820FFF7EBFD61E71D4AC42321
:1027D000D15801220720FFF7E3FD5EE7194AC02325
:1027E000D15801220620FFF7DBFD5AE7154AB42332
:1027F000D15801220320FFF7D3FD56E7114AB02339
:10280000D15801220220FFF7CBFD5CE7002161E7F0
:102810000C4ABC23D15801220520FFF7C1FD63E714
:10282000084AB823D15801220420FFF7B9FD62E716
:10283000002900D191E761E7CA320020CE320020A2
:1028400068280020E816002010B5094B1970094BC4
:102850001978094A117015221A70084B1860084B34
:10286000084A1A60084B01221A70FFF75BFC10BD82
:10287000C6320020C4320020C83200204820002088
:10288000F01F002049230010C332002010B50B4B6D
:1028900018700B4B00221A600A4B0A321A700A4B4E
:1028A0000B321A70094B0A4A1A600A4B01221A703D
:1028B0000020FFF7C5FCFFF735FC10BDCD3200202E
:1028C000EC1F0020C4320020C5320020F01F002081
:1028D000251C0010C332002070B582B004000D002A
:1028E000274B1B78002B0CD0264B1C700023264A4C
:1028F0001370264A1370062C14D8A400244B1B59BD
:102900009F46244E244930000CF058FF020000235B
:102910000093173300213000FFF792F9184B012282
:102920001A70E1E71D4B1E4A1A601E4AC8235B005D
:10293000D05CFFF7E9FD002D1BDAFFF7F3FB02B0D7
:1029400070BD164B184A1A60EFE7144B174A1A600D
:10295000EBE7124B164A1A60E7E7104B154A1A606C
:10296000E3E70E4B144A1A60DFE70C4B134A1A6078
:10297000DBE7FF2D00DDFF25E8B2FFF7C9FBDCE751
:10298000CC320020C9320020CA320020CE320020D2
:10299000182901100000205060290110EC1F0020B0
:1029A000BD240010E8160020712200103121001013
:1029B000FD220010A5220010BD21001031260010BC
:1029C00010B5034B186064210520FFF785FF10BD8B
:1029D0004420002010B5124A124900F0EDF90028F9
:1029E00000D110BDFFF71CFB002803D10E4B1B7854
:1029F000002BF6D00D4B1B78002B0AD00C4B1B681C
:102A000098470028EDD00023084A1370094A137034
:102A1000E7E7094B1B68002BE3D09847E1E7C04686
:102A2000342D00201A410000CE320020C332002095
:102A3000F01F0020CA320020EC1F002000B587B034
:102A40002C4B1B7805AA137004AA137007F074FEB0
:102A500002000B1E2CDB2848002112184B41002BD2
:102A60002CDB002B2EDB029203930123009305AA9B
:102A70006A2122480DF006FA07F05EFE02000B1EE6
:102A800026DB1D48002112184B41002B26DB002BB2
:102A900028DB0292039300230093013304AA6A21E6
:102AA00016480DF01AFA002822DD012007B000BDFB
:102AB000134B144A3F21144808F080FC0122524273
:102AC000124BCEE70E4B0F4A3F210F4808F076FC21
:102AD0000B4B0C4A3F210C4808F070FC012252427B
:102AE0000A4BD4E7064B074A3F21074808F066FC2B
:102AF0000020DBE7F83201101027000058150020F5
:102B000070290110F02901108C290110FFFFFF7FAF
:102B100010B586B00020FDF72FFC00241CE0204BF0
:102B2000204A3F21204808F049FC002B28DB029274
:102B3000039300230093023305AA6A211B480DF07A
:102B4000A1F90400831C21D0431C22D0FA2080006C
:102B500007F022FDFEF772FC002C1DD105AB144AD4
:102B60001A8007F0E9FD02000B1ED8DB1148002196
:102B700012184B41002BD8DA012252420E4BD4E7F7
:102B8000074B084A3F21084808F018FCFEF756FC9E
:102B9000DCE7FEF753FCD9E7FEF750FC06B010BDAA
:102BA00070290110F02901108C29011058150020FE
:102BB0000941000010270000FFFFFF7F00B587B02C
:102BC000232821D8C0B20538C0B27F23184005ABF6
:102BD00004221A70587007F0AFFD02000B1E20DBB4
:102BE0001848002112184B41002B20DB002B22DB60
:102BF0000292039300230093023305AA6A2112482C
:102C00000DF040F907B000BDAF235B00984200D93A
:102C1000180028380A2109F057FDC0B21F30C0B291
:102C2000D3E70A4B0A4A3F210A4808F0C7FB0122B2
:102C30005242094BDAE7054B054A3F21054808F0A7
:102C4000BDFBC04610270000581500207029011058
:102C5000F02901108C290110FFFFFF7F00B587B01C
:102C60002E4B1B7805AA137004AA137007F064FD9D
:102C700002000B1E30DB2A48002112184B41002BAA
:102C800030DB002B32DB029203930123009305AA71
:102C90006A2124480DF0F6F807F04EFD02000B1EE5
:102CA0002ADB1F48002112184B41002B2ADB002B86
:102CB0002CDB0292039300230093013304AA6A21C0
:102CC00018480DF00AF90230012825D904AB18780C
:102CD000C007C00F07B000BD134B144A3F21144872
:102CE00008F06CFB01225242124BCAE70E4B0F4A0E
:102CF0003F210F4808F062FB0B4B0C4A3F210C4868
:102D000008F05CFB012252420A4BD0E7064B074A0F
:102D10003F21074808F052FB0120DBE7F8320110A1
:102D2000102700005815002070290110F02901100B
:102D30008C290110FFFFFF7F10B5FA21074A090215
:102D400000F03AF8002800D110BDFFF787FF044BD0
:102D500018700028F8D1FEF77FFBF5E77C2D0020E6
:102D6000AF320020072804D88000024B9C46604404
:102D7000016070470C80054010B5072802D9002477
:102D8000200010BD8000044B9C4660440468002174
:102D90000520FFF7E7FFF3E70C80054010B50100C1
:102DA0000520FFF7DFFF0120FFF770FD10BD10B514
:102DB0000520FFF7E1FF10BD10605368834205D97D
:102DC000C31A013B8B4205D200207047834204D2D4
:102DD000C31AF7E750600120F7E70020F5E730B5A8
:102DE0001860002A0BD15C6884420BD9041B013C9B
:102DF0000025002D0BD1A14209D9100030BD58602B
:102E00000020FBE7844205D2041B0025F1E758604F
:102E10000120F3E71000F1E710B5FEF799FE052851
:102E200001D0024810BD0248FCE7C046082A011044
:102E3000F82A011010B500200EF0D2FB10BD0000E2
:102E400010B5102106480FF07FFC002800D110BDFE
:102E5000044B01221A7002480FF03EFCF7E7C0460F
:102E600090150020DA32002010B5102106480FF02E
:102E70006BFC002800D110BD044B00221A700248E0
:102E80000FF02AFCF7E7C04690150020DA32002048
:102E900070B5050010210D480FF056FC041E09D135
:102EA0000B4B22000B492800FFF799FF051E08D1A4
:102EB000200070BD084B1C78E4B204480FF00CFCF5
:102EC000EEE7FFF7BDFF2C00F2E7C04690150020AB
:102ED00044300020A0860100DA320020037801335C
:102EE0000370044B1B785BB2052B01D0024870477E
:102EF0000248FCE7EC1200203C2C0110742D01105C
:102F0000014B18607047C0464022002010B50400F5
:102F1000002001F021FC052C2BD0062C1CD0012C0C
:102F200010D0012001F018FC1748FFF7E9FF174BFC
:102F3000174A1A60174B184A1A60184B1C700EF08B
:102F40005BFF10BD0120FFF7DBFF104B144A1A6036
:102F5000104B144A1A60F0E7012001F0FDFB124803
:102F6000FFF7CEFF094B114A1A600A4B0A4A1A6052
:102F7000E3E70120FFF7C4FF044B0D4A1A60054B3D
:102F80000C4A1A60D9E7C046581B00003C220020BA
:102F9000317F001044220020352E0010EC1200205A
:102FA000C1890010E5350010DC050000D19000104B
:102FB000E1670010713A001070B504000D001600B2
:102FC0000120002140420DF07FFE2000FFF760FF4E
:102FD000002809D10E4B1B78002B04D10D4B1B6828
:102FE00098470B4B187070BD0B4B19680B4A2000AB
:102FF000FFF7E2FE0028F6D0FFF736FF044B1B7800
:10300000002BF0D0064B1B68310028009847EAE7F8
:10301000DB32002044220020402200203C2D0020F2
:103020003C220020084B1B785BB2052B07D0062BF7
:1030300007D0012B01D0054870470548FCE705483B
:10304000FAE70548F8E7C046EC120020F833011013
:10305000842C0110602D0110E03A0110084B1B7800
:103060005BB2052B07D0062B07D0012B01D00548FA
:1030700070470548FCE70548FAE70548F8E7C04609
:10308000EC120020B8330110542C0110342D011023
:10309000B43A01100020704710B5134B1B785BB297
:1030A000052B13D0062B18D0002B05D00B78002B46
:1030B0000FD1FFF7C5FE0CE00B78302B03D0212B8E
:1030C00001D0812B05D1FFF7BBFE02E00B78212B4D
:1030D00000D010BDFFF7B4FEFBE70B78012BF8D151
:1030E000FFF7AEFEF5E7C046EC12002070B504AC69
:1030F00025882B4C247864B2012C2BD0052C12D0BF
:10310000002C00D070BD0029FCD1002AFAD118781B
:10311000102804D02A00190001F06EF8F2E7981C7C
:1031200000F0CEFDEEE70029ECD1002AEAD11A78B2
:10313000112A05D0132AE5D11A480BF075FCE1E7F6
:103140005B78002B04D018491848FDF751FCD9E7EB
:103150000021F9E70029D5D1002AD3D11A78002A15
:10316000D0D15A78082ACDD1DA78002A02D119793B
:1031700000290FD01B79101C9A4200D2181CC0B233
:103180000AF07DFF0A490AF010FF011C0748FDF70D
:103190002FFCB7E700210548FDF72AFCB2E7C0463F
:1031A000EC120020BC2B01106666263F0000204276
:1031B00000007F43064B1B785BB2052B03D0062B28
:1031C00003D1044870470448FCE70448FAE7C046C6
:1031D000EC120020F43A0110C82C01100C3401103C
:1031E00070B5EE2824D0002825D080001E4BC5588D
:1031F00028000FF027FAC0B21F2800D91F20002393
:1032000027E05A1C194CA15C0902E25C0A43440005
:103210001749625202330130112BF2D9154A144B6F
:1032200013CB13C211001A680A609B888B8019E0C7
:1032300000200023F0E70C4B196802220E480BF027
:103240008DFA012007E05A1CEC5C5100094BCC526E
:10325000D3B29842F7D801304000C0239B001843F6
:10326000044B1880034870BD10120020002C011080
:10327000A4180020E01B0020E21B002000B591B044
:103280004022694600200EF039FC00200EF04CFC74
:10329000064B1B785BB2002B01D011B000BD044877
:1032A0000BF092FB684604F0EFFFF6E7EC1200200B
:1032B000D42B0110F0B583B005001400012966D1AC
:1032C00013785B069B0F012B58D0022B03D0002BE9
:1032D00001D000205CE06378022B24D0072B03D0C0
:1032E000012B19D0002053E0227963791B0213438C
:1032F000042B03D0052B08D0002049E02433264AB4
:10330000210028000DF004FE42E08D33234A210005
:1033100028000DF0FDFD3BE02723214A2100280075
:103320000DF0F6FD34E0227963791B021343072B7D
:1033300030D11C4B1B785BB2052B0FD06B469F1D09
:10334000194E0222310038000BF008FA3B88320097
:10335000083A210028000DF0DBFD19E06B469F1DA7
:10336000124E0222310038000BF0F8F93B8832008F
:10337000083A210028000DF0CBFD09E051780C48F7
:103380000BF052FB210028000DF0A6FD00E001200B
:1033900003B0F0BD0020FBE7C41200203012002073
:1033A000142C0110EC1200204C2A0110242B0110C7
:1033B000EC2B0110012815D0022907D000290BD1D0
:1033C000022A29D0002A29D006207047022A1FD0BD
:1033D000002A1FD00800F8E7022A21D0002A21D0B5
:1033E0000820F2E7022907D000290BD1022A1FD0BA
:1033F000002A1FD00720E8E7022A15D0002A15D09E
:103400000320E2E7022AE0D0002A15D00020DCE702
:103410000120DAE70320D8E70720D6E70520D4E724
:103420000020D2E70420D0E71000CEE70420CCE74C
:103430000820CAE70620C8E70520C6E70120704734
:1034400010B58422002102480BF082F910BDC0465D
:103450006426002010B50020FFF7F2FF10BD000029
:10346000F0B5C64600B580460D008B795D2B24D1A2
:103470000B79DF00FF1ABFB21937BFB2974221D8CC
:103480000C780C19002605E0104A53700136F6B28C
:103490002378E4182B79B34210D96378052BF7D140
:1034A000210040460DF03EF900280DD0A378DA093E
:1034B000012AE9D0054A9370E8E70027380080BC6C
:1034C000B846F0BD0027F9E70027F7E7642600209B
:1034D00030B583B0040014484078884206D0124AC0
:1034E00092788A420CD0012003B030BD0F4A002AE6
:1034F00018D09AB20E490020FFF7CEFD0120F3E765
:103500000C4D9BB200932B00002200210020FFF7FE
:10351000EDFD2B00443B997840232A0020000DF05C
:1035200075F9E1E70120DFE76426002099300010FB
:1035300068260020A826002010B50DF057F80028B6
:1035400003D10023002B08D110BD0DF057F800283F
:1035500001D10123F6E70023F4E70B4B9978002013
:103560000DF090F90028EFD1074CA1780DF026F965
:1035700022004432A178402300200DF047F9A178C1
:1035800000200DF02FF9DFE76426002070B505005C
:103590000C000DF033F8002806D1812100200DF039
:1035A0000DF9002803D170BD0DF030F8F5E7231CAC
:1035B000402C00D940239CB2094E22002900300043
:1035C0000BF0CCF8351F69782300320000200DF095
:1035D0001DF9697800200DF005F9FFF7ADFFE2E76E
:1035E0006826002010B5104B5C780CF0FFFF002817
:1035F00006D10023002B13D0002C09D1002010E0AD
:103600000CF0FCFF002801D10123F3E70023F1E7D0
:10361000210000200DF036F9002803D1013000E030
:10362000002010BD0020FCE76426002010B53C22DD
:10363000002102480BF08CF810BDC0467C1C002015
:1036400010B50020FFF7F2FF10BD0000F0B583B009
:1036500006000F001500FEF77BFA05284CD13B79D8
:10366000DC00E41AA4B21234A4B2AC4248D800235D
:10367000002B09D00025002D44D0397879184B78DB
:10368000212B11D0002438E01A01D21A92001F48D1
:1036900082185278002A02D00133DBB2E8E71A011F
:1036A000D11A89004518E6E7A9630B78C9183A7959
:1036B0006B1C0193AB1C0093032330000DF04CF8FE
:1036C000002821D0BB79012B13D001232B71BB78AB
:1036D0002B70AA6BD179137A1B020B43EB80A9786C
:1036E00000290AD02A003032062330000DF08EF86F
:1036F00003E0FB79EB70E8E70024200003B0F0BDA5
:103700000024FAE70024F8E70024F6E77C1C0020F8
:1037100070B582B005001D4C002000280AD000289A
:1037200030D162788A4213D0A2788A421AD001201E
:1037300002B070BD0401241AA400144A1419A2781E
:103740008A42ECD062788A42E9D00130C0B2E4E724
:103750000F4A002A18D0210008319AB2FFF79CFCCA
:103760000120E5E7260030369BB2009333000022AB
:103770000021FFF7BBFCA1780623320028000DF0E2
:1037800045F8D5E70020D3E70120D1E77C1C0020D5
:1037900099300010F0B5C64600B582B0060015009D
:1037A00012781F231340012B00D01FE12879002439
:1037B000002C0DD0FF24002C00D01CE1270060233A
:1037C00018001040134239D101290BD001200EE11D
:1037D00023011B1B9B008E4FDB5D9842EBD0013415
:1037E000E4B2E5E7EA786B78062B06D0062B00D02A
:1037F00005E1222A12D00020F9E0212AF6D1230186
:103800001F1BBF00824BDF19BA6B002A00D1F4E006
:103810001378290030000DF07BFBE8E02000FFF773
:10382000C9FC02003B01DF1BBF00794BDF19FB889D
:10383000290030000DF06CFB0120D8E0202800D0DA
:10384000DFE06B780B2B00D9DDE09B00714AD35889
:103850009F46012901D00120C9E0EA78A978230117
:103860001B1B9B0008336A4FFF18A879EB791B02DA
:103870000343181C252B00D9252080B2002909D02C
:10388000012B16D97B1C9C463970013880B201236C
:10389000984602E0BC46002398460090634620000C
:1038A000FFF7F8FB030043449BB2002B05D1002037
:1038B0009DE0BC4600239846EFE73A00290030001F
:1038C0000DF026FB012092E0012903D0032915D039
:1038D00001208CE0AA79EB791B021343062B01D956
:1038E000002084E02201121B9200303248498A18DD
:1038F000290030000DF00CFB012078E0EA78A9786F
:1039000023011B1B9B0030334148C318AE79E87973
:1039100000023043051C062800D90625ADB2002957
:1039200004D0012802D91878884205D000952000DB
:10393000FFF7DCFB01205AE00133013DADB2F5E7B2
:10394000012901D0012052E0E97823011F1BBF00AB
:103950002F4BDF197971304B002B04D0200000E091
:1039600000BF002843D0290030000DF0B5FA012037
:103970003DE0012901D0012039E02201171BBF00E1
:10398000234AD21905320123290030000DF0C0FA74
:1039900001202CE0012901D0012028E02201171B81
:1039A000BF001B4AD21904320123290030000DF058
:1039B000AFFA01201BE0012903D0032907D0012021
:1039C00015E0290030000DF087FA01200FE0A978FA
:1039D00023011F1BBF000E4BDF1939710F4B002B4A
:1039E00013D0200000E000BF012000E0002002B062
:1039F00080BCB846F0BD0020F9E70020F7E70020C2
:103A0000F5E70020F3E70020F1E70120EFE7C046EB
:103A10007C1C0020982C0110000000000000000019
:103A200010B50301181A8000104B181844780CF0D8
:103A3000DDFD002806D10023002B13D0002C09D176
:103A4000002010E00CF0DAFD002801D10123F3E79B
:103A50000023F1E7210000200CF014FF002803D11F
:103A6000013000E0002010BD0020FCE77C1C00209D
:103A700010B50020FFF7D4FF10BD0000F8B504001A
:103A80000F0016001D0003011B1A9B001F4AD318CC
:103A9000597800200CF092FE002825D0002F24D069
:103AA0002B1C242D00D924239DB2184A2301191B55
:103AB000890051180F721B1B9B000833D01801306E
:103AC0002A0031000AF04AFE0135ADB20F4B200149
:103AD000021B920008329A18001B800018184178C7
:103AE0002B0000200CF092FEF8BD2B1C252D00D9D8
:103AF00025239DB22001001B80000830034B1818BD
:103B00002A0031000AF02AFEE0E7C0467C1C0020B3
:103B100010B513000A0001000020FFF7AFFF10BD31
:103B2000107003120F20184050700B011843507092
:103B3000091191707047000070B5124D8024240166
:103B40002A0021002000FFF7EBFFEA1C21002000E3
:103B5000FFF7E6FFAA1D21002000FFF7E1FF2A0082
:103B6000093221002000FFF7DBFF2A000C32210080
:103B70002000FFF7D5FF2A000F3221002000FFF7B9
:103B8000CFFF70BD7432002010B5402200210248E2
:103B90000AF0DEFD10BDC04680210020014B1870E8
:103BA0007047C046D6320020014B18737047C0469C
:103BB00080210020014B58737047C04680210020AF
:103BC000074A0021535E107806490870023399B203
:103BD0001BB21380FF2B01DDFF3911807047C046F7
:103BE000A432002080210020024B1A78024B5A7028
:103BF0007047C046B02E011080210020054B0322E3
:103C00009A734821D9731A74013A5A74473919764C
:103C10005A7670478021002010B5C4B2000A0023F4
:103C200007E019000E31044A545401315054023354
:103C3000DBB20D2BF5D910BD8021002010B503009B
:103C40007F2800D97F2080B2002B08D00AF017FA15
:103C500004490AF0C0F904490AF0A2F910BD02486B
:103C6000FCE7C046BA6693400000204210B503004E
:103C70007F2800D97F2080B2002B08D00AF0FFF9FE
:103C800004490AF0A8F904490AF08AF910BD02486B
:103C9000FCE7C046C56613410000A04210B5030012
:103CA0007F2800D97F2080B2002B05D00AF0E7F9E9
:103CB00002490AF07AF910BD0020FCE70000FE423C
:103CC000F8B5CE46474680B5C278930909D0012B96
:103CD00054D0022B4ED142781202037813439B0535
:103CE00048D00478E30765D5630899464378DA003D
:103CF0007821114088468278D200082515405B095A
:103D00001D43ED00404E002700244378DB0601D51B
:103D10000023984683789B0700D500250021381C96
:103D20000AF08AF9002803D04846FFF79FFF071CD6
:103D30000021301C0AF080F9002803D02000FFF792
:103D40007DFF061C4046FFF7A9FF041C2800FFF773
:103D5000A5FF051C011C201C0AF07CF9002841D09D
:103D60000021281C0AF086F9002835D10021301CDA
:103D7000FCF73EFEC0BCB946B046F8BD81780C02E7
:103D80004678330023431B05F4D003789807F1D11C
:103D90007F240C4052007E252A40CD091543F101B5
:103DA000FF220A409B081A43914673089846002652
:103DB000371CB3E764084378DA007821114088465D
:103DC0008278D200082515405B091D43ED000026CE
:103DD0000E4F0023994698E70D49281C0AF028FB4E
:103DE000011CC4E70021201C0AF044F9002804D17A
:103DF0000021381CFCF7FCFDBCE70549201C0AF03B
:103E000017FB011CF5E7C046000020430000A0435B
:103E10006666263F0A4B01221A7000225A7003324E
:103E20009A70084A117AD970D179197191795971BA
:103E3000517999711179D971D2781A727047C04647
:103E400080210020E816002010B50400FFF79CFE3A
:103E50008120FFF7A3FE012C09D0064B1C70064BF6
:103E600019784023034A00200DF0E2FB10BDFFF754
:103E7000D1FFF4E780210020D632002070B586B053
:103E80006C462A4B0433220070CB70C270CB70C2D8
:103E9000022837D0032841D00023002500E0013359
:103EA000052B10D8224AD2182D32FF321478052261
:103EB000D21A885C8442F2D01D4AD2182D32FF32C9
:103EC00010700125EBE7002D19D18120FFF76CFE62
:103ED000184801238373164B1A7AC273DA79027475
:103EE0009A7942745A7982741A79C274DB780375AC
:103EF0001530182269460AF031FC06B070BDFDF796
:103F00009DFDE2E78120FFF74FFE0A4802238373FD
:103F10000F30102208490AF021FCEEE78120FFF75C
:103F200043FE044B03229A73E7E7C046B02E01100C
:103F3000E8160020802100200022002070B5040037
:103F40000E001500FFF720FE2120FFF727FEFFF7E8
:103F500037FEFFF749FE2000FFF72CFE482C48D81B
:103F6000A4002E4B1B599F468020FFF71DFE002307
:103F70004BE0F07A431E9841C0B200F0EDFB802088
:103F8000FFF712FEF3E731000C31F07AFFF776FF0E
:103F9000EDE78020FFF708FEF27A214B1A70E6E782
:103FA0008220FFF701FEFFF729FEE0E78020FFF700
:103FB000FBFDDCE79020FFF7F7FDF27BF17A307B29
:103FC00000F0FCF9D3E7FEF7A3FDD0E78020FFF770
:103FD000EBFDCCE78320FFF7E7FD6420FFF71CFE35
:103FE000C5E78020FFF7E0FDC1E78020FFF7DCFD9B
:103FF000BDE70023AB4202D201339BB2FAE7802037
:10400000FFF7D2FDB3E70133DBB21F2BFBD940230F
:10401000044A212100200DF00BFB70BD8C2D0110F6
:10402000F01200208021002070B50C00150010282F
:104030000DD080280FD0012800D070BD881CFFF75C
:104040003FFEA07A2A002100FFF778FFF5E7881CE1
:10405000FFF736FEF1E74878FFF7F6FEEDE70000E0
:10406000094B1B780A2B07D00B2B09D0064B0A22D1
:104070001A70054B18787047034B0B221A70F8E73B
:10408000014B0C221A70F4E7F112002070B5050004
:10409000524B1B78002B04D1514B1B78302B0BD08B
:1040A00070BD504B1A88504B18785049FFF7BCFF31
:1040B0004A4B00221A70F3E7FFF766FD3020FFF746
:1040C0006DFDFFF77DFDFFF78FFD00F0EBF98378C5
:1040D000474C2373C37863730378A3734378E37304
:1040E0000379237443796374037AA374437AE37482
:1040F00083792375C3796375837AA375C37AE3756E
:1041000000F0D0F983782376C37863760378A376BA
:104110004378E3760379237743796377037AA37748
:10412000437AE37782792023E254C2790133E2545F
:10413000827A0133E254C27A0133E25400F0B2F9D8
:1041400082782423E254C2780133E25402780133A6
:10415000E25442780133E25402790133E254427965
:104160000133E254027A0133E254427A0133E254D9
:1041700082790133E254C2790133E254827A013305
:10418000E254C27A0133E2542B78A3706B78E37067
:10419000AB782371EB7863712B790F210B40A371FE
:1041A0006879AB791B0203431B11E371EB7923722E
:1041B0002B7A19406172697AAB7A1B020B431B118F
:1041C000A372FFF74DFFE0720A4B197840232200DB
:1041D00000200DF02DFA02F05DF861E7D7320020E3
:1041E000F0120020EE120020D8320020C021002062
:1041F00080210020D632002010B5054B01241C7010
:10420000044B1870044B1A8004480AF0A7FA10BD3A
:10421000D7320020D8320020EE120020C02100202A
:1042200010B5024B18180AF099FA10BD8021002031
:10423000502800D1B0E003D960282FD0FF2010E033
:10424000402800D9AAE0202805D34B2924D88B0088
:10425000564AD3589F46002803D0102800D09FE02C
:10426000002070479520FCE70020FAE72A39504BE0
:1042700059182D31FF310878F3E704394C4B5918A0
:104280002D31FF310878ECE70020EAE70020E8E76D
:104290006820E6E70020E4E70020E2E7A92979D8D2
:1042A0008B00444AD3589F46FF20DAE70220D8E724
:1042B0000120D6E72320D4E70020D2E7B920D0E7B9
:1042C0001A20CEE70120CCE70020CAE74020C8E74B
:1042D0000020C6E74020C4E70020C2E74020C0E736
:1042E0000120BEE70020BCE70120BAE70020B8E7C4
:1042F0000120B6E70020B4E73B20B2E73420B0E766
:104300003B20AEE73420ACE73B20AAE73420A8E707
:104310003D39294B585CA4E73D39274B585CA0E751
:104320001A209EE71A209CE71A209AE75E2098E759
:10433000012096E7502094E7FD2092E7002090E7C7
:1043400000208EE7C6208CE70F208AE70F2088E741
:10435000302086E7612084E7AE2082E7902080E766
:10436000D9207EE7D4207CE714207AE7542078E730
:10437000412076E7152074E7542072E7C72070E7E4
:1043800079206EE79C206CE733206AE7362068E7E7
:10439000632066E7002064E7002062E7FF2060E713
:1043A000FF205EE722205CE703205AE7CC2E0110B5
:1043B000E8160020FC2F011074320020F0B58BB0FD
:1043C00006000F00150008A90F70487000248C70BB
:1043D000CC700A7105220E20FFF722FF00941A22EA
:1043E000002101A80AF0B4F907E03919C9B2300078
:1043F000FFF71EFF6B4618550134A542F5DC2A0075
:1044000069461320FFF70CFF0BB0F0BDF8B50400B0
:10441000204921480EF088F90028F9D01F4D2B685B
:10442000581C032108F050F92778627812021C4EBC
:104430004800401883005B183A43F254120AF318FC
:104440005A70A078E278120202439A70120ADA7067
:1044500020796279120202431A71120A5A71A07904
:10446000E279120202439A71120ADA71207A627AB0
:10447000120202431A72120A5A72A07AE27A1202E5
:1044800002439A72120ADA72296003480EF024F984
:10449000F8BDC046341E002098150020301E0020B4
:1044A000081E002010B5094909480EF03DF9002802
:1044B000F9D0084B1C6806480EF00EF96000001990
:1044C00080000019044B181810BDC046381E00208B
:1044D00098150020301E0020081E00204118CB0F28
:1044E0005B185B1080225202914204DA044A914226
:1044F00003DB18B270470348FCE70348FAE7C046FD
:10450000FFFFFEFFFF7F00000080FFFF70B528481F
:10451000FEF756FA274D0622002128000AF018F966
:10452000A81D062200210AF013F9234B01221A705C
:10453000224BFA2292011A60214B00221A70214E5E
:10454000214C31002000FCF787FC0023E25E9C3DFB
:104550009C23EA540223E25E9D23EA540423E25E94
:104560009E23EA540623E25E9F23EA540823E25E78
:10457000A023EA540A23E25EA123EA540023F25E58
:10458000A223EA540223F25EA323EA540423F25E38
:10459000A423EA540623F25EA523EA540823F25E1C
:1045A000A623EA540A23F25EA723EA5470BDC0464C
:1045B0000000FFFF84170020BA320020041E0020F4
:1045C000BB320020F41D0020D41D002010B5084A85
:1045D000BA235B00D05C01214942FEF77DF9FDF76B
:1045E00027FAFDF72BFA034B00221A7010BDC046C4
:1045F000E8160020BA320020F8B552495248FCF7BC
:104600002BFC524B1B78002B00D160E0504C9C25BA
:104610004D4E0023F15E6057FFF760FF6055013596
:104620000223F15E6057FFF759FF605501350423FF
:10463000F15E6057FFF752FF605501350623F15ECA
:104640006057FFF74BFF605501350823F15E605757
:10465000FFF744FF605501350A23F15E6057FFF70D
:104660003DFF6055A227374D0023E95EE057FFF775
:1046700035FFE05501370223E95EE057FFF72EFFD3
:10468000E05501370423E95EE057FFF727FFE055C7
:1046900001370623E95EE057FFF720FFE0550137B9
:1046A0000823E95EE057FFF719FFE05501370A23B9
:1046B000E95EE057FFF712FFE055002333732B73D9
:1046C000244A1368013B1360002B37D0F8BD1E4A03
:1046D0000023D05E1E4B9C2158540221505E9D2128
:1046E00058540421505E9E2158540621505E9F214B
:1046F00058540821505EA02158540A21515EA1222D
:104700009954104A0021505EA22158540221505E53
:10471000A32158540421505EA42158540621505E10
:10472000A52158540821505EA62158540A21515EF3
:10473000A7229954054BA63A1A70C7E7FFF746FF20
:10474000C4E7C046F41D0020D41D0020BB32002069
:10475000E8160020041E0020014B18707047C04668
:10476000BC320020F8B5474B1B78002B04D1464BD8
:104770001B78002B03D1F8BDFFF73EFFFBE7FA21C2
:10478000424A8900FEF718FB0028F4D0404C210073
:104790004048FCF761FB237B002B03D03D4B1B7B88
:1047A000002B09D13B4B1B7B002B67D10023394ADF
:1047B0001373374A1373DEE7364FF888364C9F235E
:1047C000E3569BB2C01A324EF188A523E3569BB242
:1047D000C91A09B200B2FFF781FE304DE88038896E
:1047E000A023E3569BB2C01A3189A623E3569BB29D
:1047F000C91A09B200B2FFF771FE28817889A12396
:10480000E3569BB2C01A7189A723E3569BB2C91A1B
:1048100009B200B2FFF762FE688138889C23E35634
:104820009BB2C01A3188A223E3569BB2C91A09B2BF
:1048300000B2FFF753FE288078889D23E3569BB291
:10484000C01A7188A323E3569BB2C91A09B200B2F9
:10485000FFF744FE6880B8889E23E3569BB2C01AD7
:10486000B188A423E3569BB2C91A09B200B2FFF77C
:1048700035FEA8802800FFF7C9FD97E70548FFF738
:10488000C5FD93E7BA320020BC320020442D002041
:10489000F41D0020D41D0020E8160020E41D002097
:1048A000C3B2052B03D880000D4B1B589F460D4B00
:1048B0000B600833136070470B4B0B6008331360B9
:1048C000F9E70A4B0B6008331360F4E7084B0B6001
:1048D00008331360EFE7074B0B6008331360EAE718
:1048E000A4320110C0170020E0170020D0170020CC
:1048F000F01700200018002030B50F220D780F238C
:104900001D40047894432C4304704C781C402501CE
:1049100004781C402C4304708D781D4044789443E7
:104920002C434470CC781C40250144781C402C4317
:1049300044700D791D40847894432C4384704C79E5
:104940001C40250184781C402C4384708D791D40C7
:10495000C47894432C43C470CC791C402501C4789E
:104960001C402C43C4700D7A1D40047994432C43A1
:1049700004714C7A1C40250104791C402C430471BD
:104980008D7A1D40447994432C434471CC7A1C4069
:10499000250144791C402C4344710D7B1D408479D2
:1049A00094432C4384714C7B1C40250184791C402A
:1049B0002C4384718D7B1D40C479944322002A438B
:1049C000C271CA7B1A401201C1790B401343C371F3
:1049D00030BD0B781B071B0F03700B781B0943704E
:1049E0004B781B071B0F83704B781B09C3708B78A8
:1049F0001B071B0F03718B781B094371CB781B07B7
:104A00001B0F8371CB781B09C3710B791B071B0F1D
:104A100003720B791B0943724B791B071B0F8372BF
:104A20004B791B09C3728B791B071B0F03738B799F
:104A30001B094373CB791B071B0F8373CB791B09AE
:104A4000C373704770B50400144D154A2900FFF771
:104A500027FF2B68134A1168526819605A60032CAB
:104A600012D0042C15D0022C09D00D4B1B6800224B
:104A70001A800A4B19680C48FFF7ABFF70BD084B52
:104A80001B680A4A1A80F4E7054B1B68084A1A801B
:104A9000EFE7034B1B68074A1A80EAE7E81F00208C
:104AA0003822002000330110D81F002000E1FFFF52
:104AB00000C0FFFF00CAFFFF10B50E4B19600E4B80
:104AC0001A600E4B18700E4C0E4A2100FFF7E8FEDC
:104AD00021680D4C2000FFF77CFFE37A0B3B5A1E48
:104AE00093410A4A1370637A093B5A1E9341084A5C
:104AF000137010BD0C19002010190020C2320020C4
:104B0000E81F002038220020D81F0020C1320020DA
:104B1000BD320020024A94235B00D0547047C04647
:104B2000E816002010B5044B00221A70034B1968D8
:104B30000348FFF74EFF10BDAC320020E81F0020F5
:104B4000D81F002070B590B00500384C384E2200B8
:104B50003100FFF7A5FE31683648FFF73AFFFFF74F
:104B6000E1FF002300933C22002101A809F0F0FDA1
:104B7000A6236A461370557033681A781207120F0D
:104B800069468A701A781209CA705A781207120F89
:104B90000A715A7812094A719A781207120F8A71AB
:104BA0009A781209CA71DA781207120F0A72DA7843
:104BB00012094A721A791207120F8A721A791209A7
:104BC000CA725A791207120F0A735A7912094A7374
:104BD0009A791207120F8A739A791209CA73DA79CD
:104BE0001207120F0A74DB791B094B7422681388B1
:104BF0001B0A8B741388CB740F4B942252009A5C5F
:104C00000A75952252009B5C4B75FA20000103F057
:104C100069FA002801D110B070BD00200CF0B4FF7B
:104C20004022694600200CF091FFF4E72C2200207E
:104C30002822002018220020E816002070B50A0063
:104C400000210F2937D803000B41DB0714D40131B1
:104C5000C9B2F6E70133DBB20F2B0FD82A4AD05C7A
:104C60002A4A12789042F5D1294A146801209840C6
:104C7000228802432280EDE70023EDE7224C2348FF
:104C800003786354224B1D6801228A402B8893438A
:104C90002B8002781F4809F0C7FE1F4B00221A70B4
:104CA0001E4B18682100FFF727FE1D4B00201856E9
:104CB000FFF748FF70BD002AFCD0002401E001345A
:104CC000E4B20F2C14D8104B1A5D104B1B789A428B
:104CD000F5D12100134809F0A7FE0D4B19680122F8
:104CE000A2400B8813430B800B4B00221A70E6E79F
:104CF0000A4B18680449FFF7FFFD094B00201856BE
:104D0000FFF720FFD6E7C04618220020AB32002074
:104D10002C220020BC320110AC32002028220020BE
:104D2000D9320020D832011070B504000D00084EB1
:104D3000084A3100FFF7B4FD31680748FFF749FE24
:104D4000064B1C70064B1D70064B01221A7070BD7D
:104D5000282200202C22002018220020D9320020F6
:104D6000AB320020AC32002070B5104B1A68002125
:104D7000117051701B6800229A700D4B1B78002B2C
:104D80001AD00C4B1A6893789B07D90F002B03DAC3
:104D90009378022083439370064B1B681A785878E7
:104DA00000021043FFF74AFF70BDC04610190020F3
:104DB000AC3200200C19002001F00CFD002826D098
:104DC000F54B19688A780124A2438A7019688A7899
:104DD000022082438A7019684A781025AA434A70D3
:104DE00019684A781035AA434A7019680A78A243AC
:104DF0000A7019680A7882430A7019680A780230C2
:104E000082430A701A68137808218B431370E34BAE
:104E1000196808784B781B0203431BB2E04A1268FA
:104E20005278D20600D533E2DB4A12685278D206B5
:104E3000D20FDC48007B824012B213439AB2FF20AB
:104E400003400B70120A4A70D44B196808784B78EB
:104E50001B0203431BB2D24A12685278920600D555
:104E600018E2CD4A126852789206D20FCD48407BA4
:104E7000824012B213439AB2FF2003400B70120A11
:104E80004A70C6490868C44C23689B789B07DB0FAF
:104E90005B0082780225AA43134383700868236865
:104EA0009B78DB07DA0F83780124A34313438370D5
:104EB000096808784B781B0203431BB2B84A126892
:104EC0001278D20700D5E7E1B34A12681278D20708
:104ED000D20FB4480078824012B213439AB2FF2036
:104EE00003400B70120A4A70AC4B196808784B7873
:104EF0001B0203431BB2AA4A12681278920700D51C
:104F0000CCE1A54A126812789207D20FA5484078E2
:104F1000824012B213439AB2FF2003400B70120A70
:104F20004A709E4B196808784B781B0203431BB2EA
:104F30009B4A12681278520700D5B1E1964A12686E
:104F400012785207D20F97488078824012B21343EA
:104F50009AB2FF2003400B70120A4A708F4B1968F7
:104F600008784B781B0203431BB28D4A12681278F3
:104F7000120700D596E1884A126812781207D20FFC
:104F80008848C078824012B213439AB2FF2003408F
:104F90000B70120A4A70814B196808784B781B0213
:104FA00003431BB27E4A12681278D20600D57BE119
:104FB000794A12681278D206D20F7A480079824074
:104FC00012B213439AB2FF2003400B70120A4A70C8
:104FD000724B196808784B781B0203431BB2704A66
:104FE00012681278920600D560E16B4A1268127856
:104FF0009206D20F6B484079824012B213439AB2A4
:10500000FF2003400B70120A4A70644B196808783D
:105010004B781B0203431BB2614A12681278520696
:1050200000D545E15C4A126812785206D20F5D48FD
:105030008079824012B213439AB2FF2003400B7072
:10504000120A4A70554B196808784B781B020343C3
:105050001BB2534A12681278D20900D02AE14E4A94
:1050600012681278D2094F48C079824012B21343B5
:105070009AB2FF2003400B70120A4A70474B19681E
:1050800008784B781B0203431BB2454A12685278DA
:10509000D20700D510E1404A12685278D207D20FE9
:1050A0004048007A824012B213439AB2FF20034074
:1050B0000B70120A4A70394B196808784B781B023A
:1050C00003431BB2364A12685278520700D5F5E006
:1050D000314A126852785207D20F3248807A8240A1
:1050E00012B213439AB2FF2003400B70120A4A70A7
:1050F0002A4B196808784B781B0203431BB2284AD5
:1051000012685278920700D5DAE0234A1268527882
:105110009207D20F2348407A824012B213439AB2C8
:10512000FF2003400B70120A4A701C4B19684B7821
:105130009B0700D4C6E01C4BCA1CCB70190A5170E7
:10514000002191701B0ED370144B196808784B78AE
:105150001B0203431BB2124A12685278920700D511
:10516000B2E00D4A126852789207D20F0D48407A89
:10517000824012B213439AB2FF2003400B70120A0E
:105180004A70064B196808784B781B0203431BB220
:10519000034A1268527809E00C1900201019002007
:1051A00038220020D81F0020FF0F0000120700D572
:1051B0008CE04B4A126852781207D20F4948C07AE5
:1051C000824012B213439AB2FF2003400B70120ABE
:1051D0004A70454B19684B781B0779D5434ACA7109
:1051E000100A087200204872120E8A7208784B78F2
:1051F0001B0203431BB23E4A12685278120769D45D
:10520000374A126852781207D20F3648C07A824065
:1052100012B213439AB2FF2003400B70120A4A7075
:10522000314B196808784B781B0203431BB2304A94
:105230001268527852064FD4294A126852785206A0
:10524000D20F2848807B824012B213439AB2FF20CB
:1052500003400B70120A4A70234B196808784B7888
:105260001B0203431BB2224A12685278D20935D17D
:105270001B4A12685278D2091A48C07B824012B287
:1052800013439AB2FF2003400B70120A4A708BE559
:105290000022D2E50022EDE500221EE6002239E6DA
:1052A000002254E600226FE600228AE60022A5E6EC
:1052B0000022C0E60022DAE60022F5E6002210E72E
:1052C00000222BE7002337E7002253E7002279E78B
:1052D000002284E700229CE70022B6E70022CFE705
:1052E0000C190020D81F002010190020FF0F00000B
:1052F00038220020824201DB884205DC824205DA46
:10530000884205DD002002E0012000E00020704717
:105310000120FCE7401AC317C01858407047884264
:1053200002D003DD012070470020FCE7012040424D
:10533000F9E70000F0B5DE4657464E464546E0B573
:1053400085B006000C007D23CD5C681C1F2107F092
:10535000BBF90F00CBB29846002D6FD0681E1F21FD
:1053600007F0B2F9CBB299464B469B001B599A46BF
:105370007C23E35C002B64D0802032005146000186
:10538000FFF7B8FF002814D07E234A46E254514666
:105390003000FFF7C4FF8623E05400238522A35486
:1053A00007320121A1540132A354063AA354033A0F
:1053B000A3548C23E35C002B17D08021090130001B
:1053C000FFF7A8FF8523E35C99461C2B02D8674BA7
:1053D000984244DD00238C22A3540132A354063AA0
:1053E000A3544B4601338522A3548D23E35C002B49
:1053F00000D1AAE08722A35C013BDBB29946A3540B
:10540000802031000001FFF785FF08F03DFE882372
:10541000E15808F0E0FD08F059FE8623E3564343C7
:105420008022120194466344AD002B514B46002B61
:1054300000D08CE08D330022E25488E01E23994690
:1054400092E7AD002E517D334246E2544346002A96
:1054500002D17C330122E254802000017EE05146DB
:105460003000FFF75CFF8623E3569B46834201D062
:10547000002803D184230022E254B2E78423E35CB2
:10548000002B02D180225146A1500133DBB284228D
:10549000A354022BA5D94B4604330332A3548C23C7
:1054A0000022E2540C3BE15880200001FFF732FF5C
:1054B000C72846DD08F0E8FD011C2D4808F075FD01
:1054C00000908823E0500A3BE35C0022AA46019743
:1054D0001F0043460293039625001400A14526D9D8
:1054E000781C1F2107F0F0F8CFB2BA451FD0FF2675
:1054F0000E40B600802071590001FFF70BFF08F045
:10550000C3FD011C009808F066FD8046584608F06F
:10551000BBFD011C404608F05EFD08F0D7FD80236E
:105520001B019C46604470510134E4B2D6E7019FF0
:10553000029B9846039E2C0055468D230122E2547F
:105540004FE78D230022E2544BE7AD002E517D231F
:105550004246E254FF210F40BF00385905B0F0BC6D
:10556000BB46B246A946A046F0BDC046390700007A
:105570000000484370B50D0014000A492868FFF781
:10558000D9FE206008496868FFF7D4FE60600749CB
:10559000A868FFF7CFFEA060E8680549FFF7CAFEDC
:1055A000E06070BDA42D0020342E0020242F0020A8
:1055B000B42F002010B50011084A1378991C084C2C
:1055C00060540133DBB213703D2B01D8002010BDB5
:1055D000130000221A700120F9E7C046B9320020FA
:1055E0003021002010B50C00FA213D4A8900FDF75A
:1055F000E3FB00281DD03B4B1B78002B12D13A4B0C
:105600001B78002B60D12368063BFF3B374A93424F
:105610002BD9374B1C60344B01221A70354B0022BA
:105620001A7006E0324B1B681868FFF7C3FF0028AA
:1056300000D110BD304BA5221A702E4A12785A7034
:10564000FA20000102F04EFD002805D10023254A72
:105650001370254A1370ECE74022274900200CF014
:1056600075FA00200CF090FAF0E76368063BFF3B08
:105670001E4A934208D904341D4B1C6001231A4A68
:1056800013701C4A1370D4E7A368063BFF3B174A0C
:10569000934209D90834164B1C60134B01221A702F
:1056A000144B01321A70C4E7E368063BFF3B0F4A14
:1056B0009342BED90C340E4B1C600B4B01221A7066
:1056C0000C4B02321A70B4E7094B1B681B68063B8F
:1056D000FF3B064A9342ACD8024B01221A70A8E75E
:1056E000842D0020AE320020B6320020F50D0000DF
:1056F0005C310020D33200203021002070B5041C22
:105700000D000B78002B0AD0CE68011C301C08F06D
:10571000A9FC002804D06868211C08F05CFC70BD5E
:10572000311C201C08F037FCA96808F054FC024921
:1057300008F036FCF3E7C0460000B44170B508F04D
:105740002AFC4000400808F0FBFC04000D000200A9
:105750000B000020054907F026FA02000B0020008C
:1057600029000DF011F807F013FB70BD00807640A2
:1057700070B5061C0C1C151C111C201C08F06AFCC2
:1057800000280FD0311C201C08F064FC002807D032
:10579000311C281C08F066FC002802D0012000E023
:1057A000002070BD311C201C08F054FC002807D1DB
:1057B000311C281C08F056FC002803D00120F0E71B
:1057C0000120EEE70020ECE7F8B5071C0E000024EE
:1057D000002503E0002206E00134E4B2072C0DD8D6
:1057E000062CF7D8621CA3009200B258F158381C5E
:1057F000FFF7BEFF0028EFD02500EDE72800F8BD39
:1058000010B508F09DFC0022104B07F017FC07F0C4
:10581000BFFA041C002108F017FC00280FD1201C3F
:1058200008F08EFC00220A4B07F0CFF907F074FA5B
:10583000C217520F801807231840801A10BD05495F
:10584000201C08F0ADFB041CE9E7C0460080764050
:10585000008046400000B44310B508F0A1FB041CD2
:105860000B4908F007FC002806D00949201C08F065
:1058700092FB041C201C10BD0021201C08F0E4FB3E
:105880000028F7D00249201C08F08AFB041CF1E72D
:105890000000B44370B5CD1A801A08F0F5FB041C63
:1058A000280008F0F1FB211C08F066FC114908F003
:1058B00092FB08F045FC104A104B07F086F907F000
:1058C00067FA041C002108F0BFFB00280BD10C492B
:1058D000201C08F0C7FB00280AD00949201C08F04A
:1058E0005AFB041C04E00649201C08F059FB041C68
:1058F000201C70BD00003443182D4454FB21094086
:105900000000B443F8B50C0017001E0008F0BCFB03
:10591000051C380008F0B8FB011C281C08F03BFBF4
:10592000051C200008F0B0FB041C300008F0ACFBA4
:10593000011C201C08F02FFB041C291C281C08F04B
:105940004AFB051C211C201C08F045FB011C281CDF
:1059500008F026FB08F0FEFBF8BD0000F8B50F00CC
:10596000160008F0EDFB0B4A0B4B07F04CF907F063
:105970000FFA08F0E5FB04000D0007F01FFA07F02E
:1059800007FA38602000290007F02EFA07F000FA25
:105990003060F8BD399D52A246DF913FF0B5DE463A
:1059A00057464E464546E0B583B080468B461500C7
:1059B0001F001100FFF708FF0400062800DD86E045
:1059C000461CA3009946EB589A46B600A959181CE4
:1059D000FFF7B4FE051C51464046FFF7AFFE804678
:1059E000291C08F0E2FA051C4B46FB589A46011C9C
:1059F000FE20800508F0CFFA011C504608F0EBFAB3
:105A00008246B859291C08F0E6FA011C504608F0F5
:105A1000C7FA051C0C9B4A469858414608F0DBFA29
:105A2000031C22010D9989180D98825C002A03D06D
:105A3000181CFFF763FE031CA400284AA058191C79
:105A4000FFF70AFF0023019300936A4601A9FFF7BD
:105A500085FF5946281C08F0BEFA051C019908F07C
:105A6000BAFA041C0190291C009808F0B4FA0090BE
:105A70008A21C905201C08F093FA08F0B9FC08F047
:105A800025FB002825DB80235B01984200DB1448BE
:105A900008F0FAFA0E9B18608A21C905009808F0F0
:105AA0007FFA08F0A5FC08F011FB002813DB802327
:105AB0005B01984200DB0A4808F0E6FA0F9B186089
:105AC00003B0F0BCBB46B246A946A046F0BD0026D6
:105AD00077E70020DEE70020F0E7C046083301103A
