:020000041000EA
:1000000000B5324B212058609868022188439860DF
:10001000D860186158612E4B002199600221596106
:100020000121F02299502B49196001219960352056
:1000300000F044F80222904214D00621196600F024
:1000400034F8196E01211966002018661A6600F04E
:100050002CF8196E196E196E052000F02FF8012189
:100060000842F9D1002199601B49196000215960AB
:100070001A491B48016001219960EB211966A021F2
:10008000196600F012F800219960164914480160C1
:100090000121996001BC002800D000471248134993
:1000A000086003C880F30888084703B5996A0420EC
:1000B0000142FBD001200142F8D103BD02B5186610
:1000C0001866FFF7F2FF186E186E02BD00000240BE
:1000D000000000180000070000035F00212200005C
:1000E000F4000018222000A00001001008ED00E03C
:1000F00000000000000000000000000074B24E7A12
:1001000000200420F7010010C3010010C5010010F9
:10011000C1010010C1010010C1010010C101001097
:10012000C1010010C1010010C1010010C701001081
:10013000C1010010C1010010C9010010CB01001065
:10014000CD010010CD010010CD010010CD01001037
:10015000CD010010CD010010CD010010CD01001027
:10016000CD010010CD010010CD010010CD01001017
:10017000CD010010CD010010CD010010CD01001007
:10018000CD010010CD010010CD010010CD010010F7
:10019000CD010010CD010010CD010010CD010010E7
:1001A000CD010010CD010010CD010010CD010010D7
:1001B000CD010010CD010010CD010010CD010010C7
:1001C00000BE00BE00BE00BE00BE00BEEFF3058054
:1001D000103800BEF2EB8871385C0110585C0110D9
:1001E0003402001090A31AE700201F49086006C8D7
:1001F00081F3088810471D48006800282FD10DA4FE
:100200000ECC002902D000F012F8F9E71849194A7B
:10021000002000E001C19142FCD1174988471749ED
:1002200088471749884700BEFDE701C901C29A42C5
:10023000FBD37047585C0110C0000020E01700207D
:10024000787301100000042000000420787301106E
:10025000001004200010042000000000704709482E
:100260000CF0A6FF0047000008ED00E0000000D001
:10027000001800208835002039BF0010C908001080
:10028000F5BE00105756000006005250ABB3605345
:100290007052011006005250861C03028052011059
:1002A000060052505422A29D945201100500525053
:1002B000DE65F46878730110F8B5C04610B5064CD9
:1002C0002378002B07D1054B002B02D0044800E017
:1002D00000BF0123237010BD001B002000000000A0
:1002E000D82A0110044B10B5002B03D00349044851
:1002F00000E000BF10BDC04600000000041B00204D
:10030000D82A011070B500290AD001248440D025D4
:100310002D06AC620022002109F06EFE6C6170BDFA
:1003200001248440D0252D066C620022002109F0B2
:1003300063FEAC61F3E7000010B504004378DB070F
:1003400013D463781022110019401A4203D0124BC3
:100350001B78002B0FD0002903D10F4B1B78002BEB
:1003600011D10A200AF0AAFF10BD002200210020AE
:100370000BF084FDE5E7084B0F3A1A7000210E20C0
:10038000FFF7C0FFEDE701310E20FFF7BBFF024B87
:1003900000221A70E5E7C0467A35002070B50028C3
:1003A0000ED0D024240680252D05656164200AF036
:1003B00085FF0223636164200AF080FFA56170BDA0
:1003C000D024240680252D05656164200AF076FF7F
:1003D0000223A36164200AF071FFA561EFE710B565
:1003E000002804D001210E20FFF78CFF10BD002152
:1003F0000E20FFF787FFF9E710B5002001F055FA4E
:100400000F2001F052FA062001F040FA082001F016
:100410003DFA0B2001F03AFA0C2001F037FA0D20DA
:1004200001F024FA0A2001F021FA072001F01EFA57
:10043000092001F01BFA184918480FF09BFC012114
:10044000122009F0C1FD0121132009F0BDFD012199
:10045000142009F0B9FD102009F0E8FDD02424068D
:1004600080235B0263626361162009F0DFFD802355
:10047000DB0363626361112009F0D8FD80239B02D6
:1004800063626361192009F0D1FD80239B046362DC
:10049000636100F097FD10BDC0C62D0000C0034091
:1004A000F8B5DE4657464E464546E0B50400D02630
:1004B000360680239B019846B361052000210AF08F
:1004C000D1FE7368DB0A01252B405A4253410127B4
:1004D0003B401B01227810218A4313432370736829
:1004E0001B0B2B405A4253413B405B01227820209A
:1004F00082431343237073689B092B405A42534134
:100500003B409B01227830318A4313432370736848
:100510001B0A2B405A425341DB0122783F310A40EB
:1005200013432370434673618023DB009B46B36112
:10053000052000210AF096FE73681B0B2B405A42DF
:1005400053413B409B002278042189468A43134350
:1005500023707368DB0A2B405A4253413B40DB0057
:100560002278043188468A431343237073681B0A38
:100570002B405A4253413B405B00227806398A4661
:100580008A431343237073689B092B405A4253419B
:100590003B402278AA43134323705B467361802358
:1005A0009B46B361052000210AF05CFE73689B093D
:1005B0002B405A4253413B401B01627810218A4331
:1005C0001343637073681B0A2B405A4253413B40EC
:1005D0005B00A278504682431343A37073681B0BE1
:1005E0002B405A4253413B40A278AA431343A37085
:1005F0007368DB0A2B405A4253413B405B016278EF
:100600001E308243134363705B4673618133FF3353
:100610009B46B361052000210AF024FE73681B0A83
:100620002B405A4253413B409B00627848468243EC
:100630001343637073681B0B2B405A4253413B407A
:100640006278AA431343637073689B092B405A4234
:1006500053413B405B0062785046824313436370D2
:100660007368DB0A2B405A4253413B40DB006278FF
:1006700040468243134363705B46736173682B404B
:100680005A425341DB016278773002401343637072
:100690007368DB0B2B405A4253413B409B0162780D
:1006A0003F3882431343637073689B081D406B425D
:1006B0005D413D40AD00A3784A4693431D43A5707C
:1006C00062783F23100098430300C03B59424B41DE
:1006D0001F40FF00EBB2404683431F43A770D20682
:1006E000D20F1201FBB210218B431A43A270F0BC4F
:1006F000BB46B246A946A046F8BDF8B504000E1C9C
:100700000569AF00395840690EF099F860613E51B3
:10071000311C0EF099F860610135EA17920FAD189F
:1007200003231D40AD1A2561F8BD10B54069FA21BB
:1007300089050EF0A4F810BDF0B5D6464F464646E2
:10074000C0B584B0040003AF574B1A883A80002329
:10075000BB7002AE3280B37001AD2A80AB706946C7
:100760000A808B70D0231B06984680235B02994633
:1007700043464A469A614D4B9A4603233A00D0219C
:10078000504612F009F943464A465A619A610323DA
:100790003200F021504612F0FFF843464A465A61B3
:1007A0008023DB03994643464A469A6103236A46FF
:1007B000F021504612F0F0F843464A465A619A61D9
:1007C00003232A00D021504612F0E6F843464A4659
:1007D0005A61387840027B785B00E0221201904633
:1007E00010401843BB78DB0918430EF09CF8011C3D
:1007F0002F4F3800FFF781FF3078400273785B009D
:10080000424610401843B378DB0918430EF08BF8CA
:10081000011C284E3000FFF770FF287840026B78EB
:100820005B00424610401843AB78DB0918430EF0DA
:100830007AF8011C204D2800FFF75FFF6B461878FF
:1008400040025B785B004246104018436B469B7841
:10085000DB0918430EF067F8011C184B9846180086
:10086000FFF74BFF3800FFF760FF0EF0B5F880B2DE
:1008700020603000FFF759FF0EF0AEF880B26060E4
:100880002800FFF752FF0EF0A7F880B2A0604046A4
:10089000FFF74BFF0EF0A0F880B2E06004B0E0BCC0
:1008A000BA46B146A846F0BDD82A011000C00340A0
:1008B000B8310020D0310020E83100200032002083
:1008C00010B500F094FA10BD10B584B00EF03CFBEA
:1008D00064200AF0F3FCFFF78FFD0E2009F0A6FB61
:1008E0000020FFF77CFD1B2009F0A0FBD02424068C
:1008F00080231B056362A361012009F097FB02239B
:100900006362A361022009F091FB0423A362002229
:100910000121022009F070FB0C22002101A80EF039
:10092000B1F901A8FFF7BCFD124B9B886A46138002
:1009300063685B0703D401AB5B78DB0713D401ABBF
:100940005B785B0709D5D0231B065B685B0704D483
:1009500002236A46137005335370684600F082FE26
:10096000002004B010BD04480CF022FC030000215C
:1009700008009847D82A011055420000F0B5C64635
:1009800000B588B004001022002104A80EF07AF906
:10099000002160680DF0A4FF002806D00021E06867
:1009A0000DF09EFF002800D0E2E0834B1B78002B67
:1009B00000D0EEE026688149301C0DF0AFFF002822
:1009C00000D07E4E26607E49301C0DF091FF00283D
:1009D00000D07B4E2660A5687849281C0DF09EFF4C
:1009E000002800D0754DA5607549281C0DF080FFCA
:1009F000002800D0724DA560311C72480DF029FF0F
:100A0000071C291C6F480DF024FF061CFC218905DA
:100A1000381C0DF034FF051CFC218905301C0DF03D
:100A20002EFF061C684B1F68281C0DF0D5FF80B2F6
:100A3000BB00DB199B00654A944663441861236838
:100A40000493634B1B689846301C0DF0C5FF80B2C1
:100A500043469B0043449B005C4A944663441861B0
:100A6000A3680693636898460021181C0DF056FF92
:100A7000002800D19AE0574940460DF039FF002880
:100A800001D0544B9846544940460DF047FF00288A
:100A900001D0514B9846514B196840460DF0EFFE7E
:100AA0008046E4680021201C0DF038FF002800D1AA
:100AB0007FE04849201C0DF01BFF002800D0454C6A
:100AC0004549201C0DF02AFF002800D0424C434B22
:100AD0001968201C0DF0D3FE041C291C40460DF0A3
:100AE000CEFE051C311C201C0DF0C9FE061C281C66
:100AF0000DF072FF80B2BB00DB199B00384A9446B0
:100B000063441A6850400004000C802464012343AD
:100B1000186005952E4D2F68301C0DF05DFFBB0051
:100B2000DB199B002E4A9446634400041A68504027
:100B3000000C0004234318600796234B1A689300A7
:100B40009B189B00214A94466344196801221000B7
:100B500088432343186029688B005B189B0063441B
:100B600019688A4323431A6008B080BCB846F0BDB8
:100B70001C4B0593079303AA1B4B13800023009380
:100B800002335A2119480FF0E7FA0B4B01221A7071
:100B9000EAE703AA164B13800025009502235A2189
:100BA00012480FF0D9FA044B1D7003E70023984652
:100BB00077E7002491E7C046793500200080A24401
:100BC000000020420024F449E434002000000540E5
:100BD000E8340020CDCCCC3D6666663F582400202A
:100BE0000C000540000080BF01400000701700208D
:100BF0000103000010B50400054B186800210DF03A
:100C00006FFE002800D010BD2000FFF7B7FEFAE706
:100C10005824002030B585B068460D4B020032CB19
:100C200032C21B681360FFF7E5FF002405E00BF0FC
:100C3000D3F808200AF042FB01343D2CF7DD0023F5
:100C4000019303936846FFF7D5FF05B030BDC0465A
:100C5000E02A011010B5134B1B78002B21D1114B4A
:100C600001221A7000240EE00F48104BC360A2004E
:100C70000F4BD3588360FFF781FE0BF0ADF8962041
:100C80000AF01CFB01341A2CEEDD96200AF016FB4C
:100C900005480023C3604360FFF770FE014B00224C
:100CA0001A7010BD81350020B03200206666663FA4
:100CB0009814002030B589B03E4B1B78002B12D021
:100CC00000236A46D3771E2169441F336B44180002
:100CD00000F09AFB6B46D87F002862D1364B002289
:100CE0001A6009B030BD64200AF0E8FA0124314BE3
:100CF0001C70152009F09AF90421152009F064F9F7
:100D0000182009F093F9D0231B06802252049A621E
:100D10002A4B02221A602A4B02321A60294BFA220D
:100D20009200DA625A6502AA1480274C00250095C9
:100D300002235A2120000FF00FFA03AA234B13803D
:100D4000009502235A2120000FF006FA0A200AF02B
:100D5000B5FA04AA1E4B1380009502235A212000E5
:100D60000FF0FAF90A200AF0A9FA05AA194B138024
:100D7000009502235A2120000FF0EEF906AA164B27
:100D80001380009502235A2120000FF0E5F907AAED
:100D9000124B1380009502235A2120000FF0DCF93A
:100DA0008EE70DF0C0FD0E490DF053FD024B1860AB
:100DB00097E7C0468035002058240020E834002002
:100DC000E434002000000540701700201AF6FFFFF1
:100DD0001D81FFFF17190000014000000103000002
:100DE0000000484310B5FFF735FF012010BD7047E4
:100DF0000902084300B2704770B582B0D0242406BF
:100E00008025AD02A5616B46187159710B4E022207
:100E100001A9300011F008FE656102200AF04EFAC7
:100E20008025AD04A561022201A9300011F0FCFD6E
:100E3000656102200AF042FA02B070BD00C00340B2
:100E4000F0B5DE4657464E464546E0B585B006004D
:100E50000D0001AC002301930822002102A80DF02F
:100E600011FF03236B449A46A22352461370D023EA
:100E70001B0698468027BF029F61514B994601226D
:100E80005146180011F0D0FD0C23220000214846E5
:100E900011F082FD43465F6161782078FFF7A8FF7B
:100EA00080B2404283B2FF273840B0711B0AF37111
:100EB000E178A078FFF79CFF83B2384030721B0ABC
:100EC000737261792079FFF793FF83B23840B07273
:100ED0001B0AF372E179A079FFF78AFF80B24042E2
:100EE00083B2384030701B0A7370617A207AFFF742
:100EF0007FFF83B23840B0701B0AF370E17AA07AAA
:100F0000FFF776FF83B2384030711B0A737180237C
:100F10009B049B4643465A469A61012251464846E5
:100F200011F082FD0C2322000021484611F034FD0F
:100F300043465A465A6161782078FFF759FF83B2D9
:100F40003840A8711B0AEB71E178A078FFF750FFD9
:100F500080B2404283B2384028721B0A6B726179BA
:100F60002079FFF745FF83B23840A8721B0AEB7265
:100F7000E179A079FFF73CFF83B2384028701B0A63
:100F80006B70617A207AFFF733FF80B2404283B200
:100F90003840A8701B0AEB70E17AA07AFFF728FFAF
:100FA00083B2384028711B0A6B71012333732B7392
:100FB00005B0F0BCBB46B246A946A046F0BDC0464F
:100FC00000C0034010B58C211020FFF715FF8C21C5
:100FD0001120FFF711FF04211220FFF70DFF06215A
:100FE0001320FFF709FF06211520FFF705FFE02179
:100FF0001720FFF701FF10BDF0B5C64600B504008D
:1010000004282DD005282FD0032803D0002080BC31
:10101000B846F0BD052704239846200009F006F8DD
:1010200001263300A340D0252D06AB62002201210A
:10103000200008F0E1FF404608F0F8FF3300424688
:1010400093406B62AB61380008F0F0FF3300BB40A7
:101050006B62AB616B68E3401E4209D00120D6E7AA
:10106000052703239846D8E7032704239846D4E7A7
:101070000020CCE710B50320FFF7BEFF10BD10B570
:101080000520FFF7B9FF10BD10B50420FFF7B4FF2E
:1010900010BD000010B501210E20FFF733F9962096
:1010A00080000AF00BF908F0B3FB054B984202D020
:1010B000002802D110BD0020FCE70120FAE7C0465D
:1010C000FFFF000010B501F021FE10BDF0B5C646CF
:1010D00000B584B0142339E001330B2B05D801AAE5
:1010E000D25C002AF8D00125F6E718200AF0E6F8CD
:1010F000304BDB685B07FBD5D02636068027BF0464
:10110000B7612C4B984601226B46D91C404611F022
:101110008BFC0C2301AA0021404611F03DFC7761B5
:101120000C283ED10023002100E001330B2B05D811
:1011300001AAD25C002AF8D00121F6E7002901D0EB
:10114000002D31D118200AF0B9F823005C1E002BC5
:1011500029D0002301930822002102A80DF092FD5E
:101160006B46A222DA70134BDB685B07FBD5D025F8
:101170002D068026B602AE610E4F01226B46D91CA9
:10118000380011F051FC0C2301AA0021380011F0A5
:1011900003FC6E610C2802D1002300259DE7002589
:1011A00002E0002500E00025280004B080BCB8461D
:1011B000F0BDC04600C0034070B584B003A9494BE0
:1011C0001A880A8000238B7002A90A808B7001A9FB
:1011D0000A808B7069460A808B700A242300013CC8
:1011E000002B74D0D0231B06802252029A613E4B02
:1011F000DB685B07FBD5032303AAD0213A4811F033
:10120000CBFB032866D1D0231B06802252025A61F1
:101210009A61354BDB685B07FBD5032302AAF021FB
:10122000314811F0B9FB032856D1D0231B06802288
:1012300052025A618022D2039A612B4BDB685B0712
:10124000FBD503236A46F021274811F0A5FB0328AC
:1012500044D1D0231B068022D2035A619A61224BCB
:10126000DB685B07FBD5032301AAD0211E4811F0E0
:1012700093FB032834D1D0231B068022D2035A616A
:101280000023002000260025002100E00133022B6E
:1012900014D803AAD25C002A00D0012101AAD25C92
:1012A000002A00D0012602AAD25C002A00D0012523
:1012B0006A46D25C002AE9D00120E7E700298DD0F8
:1012C000002D8BD0002E89D0002887D000E0002090
:1012D00004B070BD0020FBE70020F9E70020F7E72D
:1012E0000020F5E7F02A011000C0034010B5FFF719
:1012F00079FD10BD0120704770B582B0FFF75CFF2B
:1013000001AC0126012528400301207810229043DA
:1013100018432070FFF7D6FEC30122787F201040CB
:1013200018432070FFF7B6FE284083012078402242
:10133000904318432070FFF7A7FE284083002078D1
:101340000422904318432070FFF794FE03002B40C3
:101350002078B04318432070FFF791FE28404300E7
:1013600020780222904318432070FFF7C3FF2840E3
:10137000C30020780822904318432070FFF7A6FE90
:101380002840430120782022904318432070FFF723
:10139000ADFF05406078B04305436570208802B01A
:1013A00070BD000010B5041C0348046041608260F9
:1013B000C360FFF71FFC10BDA03200207047000083
:1013C00010B512E00C4B9A6A0C4B1A600C4811F0E5
:1013D000EBFA00F0B3FC094C206805F001FE206830
:1013E00003F0A0FF2068FFF7E9FF0649044811F069
:1013F00003FB0028E6D1ECE7004005405020002028
:10140000A017002050250020044B7A22FF329A5C5E
:1014100002707C22FF329B5C0B7070470019002029
:1014200064207047014B00201856704708150020B3
:10143000F8B504000E001500254A2649280001F0E1
:10144000D9FE071E1DD0244B1A6824498C466244DD
:10145000D11752184A405B686344D9175B184B4058
:10146000642A0BDC0022642B00DD02001C4B1B886D
:10147000002B05D01A4B00221A8002E00200F2E78E
:101480001700227863781B021343154A11880B4317
:101490001380114B32681A6072685A60114B3A001F
:1014A0001149280001F0B9FE002807D00F4B1B7826
:1014B000002B03D10D4B01221A70F8BD002FFCD078
:1014C0000A4B1B78002BF8D0084B00221A70F4E767
:1014D0007C2B002040420F000031002000F8FFFF6D
:1014E000363500209C30002040787D014A350020B0
:1014F000014B18787047C0464A35002010B50028C7
:1015000003D1074B00221A7010BD0120FEF746FFE1
:101510000120FEF764FF024B01221A70F4E7C04677
:101520003C35002010B50020FEF759FF0020FEF7E3
:1015300035FF0022002100200AF0A0FC10BD0000B1
:1015400010B5064B1B78002B00D010BD034B0122B9
:101550001A70002001F00CFBF7E7C046653500204B
:1015600010B5334B1B78002B39D03249324811F07B
:1015700043FA00283BD13148FEF792FF304B1B78ED
:10158000002B3CD104F0E2F92E4C20682B4905F0E9
:10159000A7FD206801F082FB07F0A4FB00283BD0E8
:1015A000284C2068284904F08FFC2068274A2849E5
:1015B00007F0C4FB274B00221A70224B1A682449FB
:1015C0002248FFF735FF244B1B785BB2012B2AD052
:1015D0000AF002FC1B4B1868FFF772F910BD0021DE
:1015E0001E480AF03FFC124B01221A70BDE71C4B4B
:1015F0009A6A144B1A60104811F0D6F9BBE70F48ED
:10160000FEF79AFE0AF0E8FB0E4C206801F046FB5C
:10161000206801F059FDE1E70A4B18680C4A0B49B4
:1016200000F0BEFCC9E7074B186801F04DFDCFE79D
:101630006E3500204C250020A0170020681B0020DC
:101640003C35002050200020301B0020741B00205F
:10165000501B00204A350020081500204C1D0000BA
:101660000040054070B5051E00D1DCE001F0BDFD75
:101670000400FEF7C1FE6C496C480EF041FD0321E9
:101680001C2008F0A1FC03211D2008F09DFC6848E7
:10169000FEF706FF00F0AEFB00282DD0644E3300AD
:1016A000644A6549654805F0AFFA05F0EDFCB3788A
:1016B000DB0626D4E3B2012B29D0022B2CD0012447
:1016C0002C57631C2FD00022AA565D4B1A70584B22
:1016D0001B789A062BD45A0645D4DA0645D45AB25A
:1016E000002A44DB5A0744D40A221A40022A42D074
:1016F0001B071DD503241BE03221524801F026FAB6
:10170000CCE70622002150480DF0BCFAD2E74C4B42
:1017100002221A700024DAE723041B0F484A1370D0
:101720002405240FD3E7494B02241C57CBE706249A
:10173000FFF7C0FA02F074FC444AE2235B00D65C77
:101740003F4B1B785BB2013317D06425002001F0BA
:1017500007FCFA2001F09AFBE3B2062B3DD8A30068
:101760003B4AD3589F460124E2E70024E0E70224E5
:10177000DEE70524DCE70424DAE701F031FC002889
:1017800004D12F4B02221A704625DFE72C4B012291
:101790001A706425DAE72F48322101F0D7F92900C1
:1017A000300001F0F7F9264B00215956200000F0D7
:1017B00007FC1F4B9B789B0730D4274A1C4920000D
:1017C00003F06CFF0DF0CCFD24480DF0B7FDFFF7E2
:1017D000C7FEFCE7FF200006DEE72148DCE7FF202C
:1017E0000002D9E7002001F051FB154B00221A70CE
:1017F000FF2000041925CFE7002001F047FB104B24
:1018000000221A7017480F25C6E7002001F03EFBA2
:101810000B4B00221A7014481925BDE70B4B9C7026
:1018200000F0E2FAC9E770BD400D03007017002018
:10183000681B0020301B0020501B0020401B002094
:10184000081500200000FF4D7C1A00200019002020
:10185000F42A011000F115FF741B0020C1130010C1
:1018600000A1A1A100FF61000000FFE610B5040087
:1018700008F0DCFB00220121200008F0BDFB012361
:10188000A340D02212065362536110BD10B504006C
:1018900008F0CCFB00220121200008F0ADFB012361
:1018A000A340D0221206936210BD10B5040008F0C8
:1018B000BDFB00220121200008F09EFB0123A34074
:1018C000D0221206936210BD094ABD235B00D35C8F
:1018D0001A1C312B00D83222054BBD2149005A5425
:1018E000DA787A39FF398A43DA709B221A727047A4
:1018F0000019002070B5050014006A4B13800129FF
:1019000000D070BD0223C3569370D01CE91C062280
:101910000DF0BEF9EB68E3602B6923616B696361CD
:10192000AB69A36120001C3029001C3120220DF07E
:10193000AFF920003C3029003C3120220DF0A8F9FD
:1019400020005C3029005C3120220DF0A1F920003C
:101950007C3029007C3120220DF09AF920009C3047
:1019600029009C3106220DF093F92000A2302900B5
:10197000A23106220DF08CF92000A8302900A831F0
:1019800030220DF085F920002930FF302900D831B0
:1019900010220DF07DF920003930FF302900E831A8
:1019A00010220DF075F920004930FF302900F83180
:1019B00010220DF06DF920005930FF302900093157
:1019C000FF3110220DF064F920006930FF3029004A
:1019D0001931FF3110220DF05BF994235B00EA5CB2
:1019E0005033E2542A23FF33EA5C7A23FF33E25474
:1019F0004F3BEA5C5033E2542C23FF33EA5C7C23F8
:101A0000FF33E25420007D30FF3029002D31FF31BB
:101A100006220DF03DF920008530FF3029003531D8
:101A2000FF3120220DF034F92000A530FF302900CD
:101A30005531FF3120220DF02BF9BA235B00EA5C0F
:101A40005033E2542000C930FF3029007931FF3192
:101A500018220DF01DF9C8235B00EA5C5033E254F4
:101A60004E3BEA5A5033E2524E3BEA5A5033E2526E
:101A70004E3BEA5A5033E2524E3BEA5A5033E2525E
:101A80004E3BEA5A5033E2524E3BEA5A5033E2524E
:101A90004E3BEA5A5033E2524E3BEA5A5033E2523E
:101AA0002FE7C04602A0FFFF064B984204D0064B2A
:101AB000984203D1022070470120FCE701204042F8
:101AC000F9E7C04601A0000002A0000010B51248CE
:101AD0000DF02EFA002407E0104B5B18D97810485F
:101AE0000DF026FA0134E4B2052C0DD80DF00CFFF0
:101AF0002100C0B2094A1219D070002CECD1130099
:101B000001229043D870E7E7044B9B221A720A2007
:101B10000DF0C0F910BDC046102B011000190020B7
:101B2000202B0110F0B5DE4657464E464546E0B53F
:101B30006F4CA544FC256D002A00002102A80DF081
:101B4000A1F86C4B02AA1380059B0193DB0FDB0706
:101B50008022120113430593069B0193DB0FDB07E1
:101B600013430693079B0193DB0FDB071343079394
:101B7000089B0193DB0FDB071A4308925E4F0A971D
:101B80005E4E0B965E4C0C945E480D905E490E9135
:101B90005E4A0F925E4B1093129713961494159011
:101BA0001691179218935B4B19931A931B931C93DE
:101BB0001D931E931F9320932193802202A98B5083
:101BC00004328B5004328B5004328B5004328B50D1
:101BD00004328B5004328B50FF231B049A46A823F7
:101BE0000A005146D1504C4B9B46AC235946D1502C
:101BF0004A4B9946B0234946D150FF231B069846CD
:101C0000B4234146D150FF2636020433D650043364
:101C1000434A02A9CA50434F04330A00CF50043349
:101C20005146D15004334146D1500433D650043389
:101C30004946D1500433D6503B4BD82202A98B5091
:101C400004328B5004328B5004328B50E823CF5037
:101C5000B63B7A22FF328B5401328B54173AFF3A4B
:101C6000F121490002A8425202314352023142524C
:101C70008532FF32010083522C4C2A0020000DF0E7
:101C800007F8002003F0D0FC012003F0CDFC032076
:101C900003F0CAFC042003F0C7FC052003F0C4FCD9
:101CA00020009C30062200210CF0ECFF2000A23026
:101CB000062200210CF0E6FFFFF708FFE4235B009B
:101CC0005246E25004335A46E25004334A46E25048
:101CD00004334246E2500433E6500433E750812394
:101CE0009B009D44F0BCBB46B246A946A046F0BD51
:101CF000FCFDFFFF02A0FFFF000034420000B442E1
:101D000000000743000034430000614300008743A4
:101D100000809D43000016440000FF4D0000FFE6D8
:101D200000F115FF00FF610000A1A1A10019002032
:101D3000014B18787047C0467C35002070B5204CA8
:101D4000A544204B1B78002B03D180235B019D44CD
:101D500070BD0DF01DFBEFF3108672B61A4B1B78A9
:101D6000002B24D1194C00230093194A002101A80B
:101D70000CF088FFFC225200164968460CF088FFE0
:101D800080256D012900200010F03EFE2A006946E2
:101D9000200010F019FE86F310880DF003FB0E4BA7
:101DA0001B78002B06D1074B00221A70CDE7962432
:101DB0006403D8E707F056F8074B00221A70F2E7E1
:101DC00000F0FFFF633500207C35002000D01200BA
:101DD000FC0F0000001900206F350020014B01228C
:101DE0001A7070476F350020014B01221A7070473E
:101DF0006335002070B5394B1888394B1D88FFF7C3
:101E000053FE04002800FFF74FFE0500631C0BD0B3
:101E1000022C0FD0022D0DD0012C2CDD012D2ADD3E
:101E20000023002200262CE0431CF1D100230022D5
:101E3000012626E0022C05D0022D0FD0002300221F
:101E400000261EE0FC225200244926480CF020FF08
:101E5000254B00221A700023002612E0FC225200BB
:101E60001F4920480CF014FF1F4B01221A70002359
:101E70000022002605E00123012C15DDDBB2012242
:101E80000026002E12D1002A23D0002B18D1164B89
:101E900001221A70134A21001048FFF72BFD002081
:101EA000FFF7A2FF300070BD0023E7E70E4B0022D2
:101EB0001A70FFF737FE0020FFF796FF0026F1E7C4
:101EC000094B00221A70074A29000548FFF712FD46
:101ED000E5E7FFF7F9FC0126E4E7C04600D0121061
:101EE00000C01210001900207C35002010B5031C22
:101EF000642800D9642303497A22FF328B54FEF709
:101F0000D9FE10BD0019002010B5022817D008D83E
:101F100000280DD001280FD10B4AF2235B00D152CB
:101F20000AE0032808D1084AF4235B00D15203E0F9
:101F3000054AF1235B00D15204F0F6FA10BD024AC3
:101F4000F3235B00D152F7E70019002030B50F4CA6
:101F500040004508E068C00FC0072843E060490022
:101F600048082169C90FC90701432161520051087E
:101F70006269D20FD2070A4362615B005A08A36903
:101F8000DB0FDB071343A36130BDC04600190020FF
:101F9000062800DD0020014B9870704700190020D2
:101FA00010B5034B1B68002B00D0984710BDC046EE
:101FB0001C1E0020014B0020185670474B35002096
:101FC00010B588B00400284B1870022910D00C22DC
:101FD000002105A80CF056FE1022002101A80CF0EB
:101FE00051FEE3B2062B0BD8A400204B1B599F4691
:101FF0001F4B204A1A6007F0ABFC0028E7D005E031
:102000001B4B1D4A1A60002001F0BAF908B010BD40
:10201000174B194A1A60062001F0B2F9F6E7144B83
:10202000154A1A60012001F0ABF9EFE7104B124A94
:102030001A60022001F0A4F9E8E70D4B0F4A1A607C
:1020400001AA05A90020FFF7ABFFDFE7084B0C4A08
:102050001A6001AA05A90020FFF7A2FFD6E7044BEA
:10206000084A1A60D2E7C0464B350020482B0110C1
:102070001C1E0020099C001031340010617A0010F1
:1020800061840010E9890010F0B5C64600B590B033
:1020900004000D0016001F0016AB1B789846494B34
:1020A000984200D188E00721380007F08DFF012316
:1020B00000933A00290020000DF012FD10220021AB
:1020C00008A80CF0DFFD80235B020893F8235B0275
:1020D00009938023DB020A93C0231B030A93102277
:1020E00008A904A80CF0D4FDF31C059A0392364904
:1020F0001140F20111431B0319430591079B039300
:10210000DB00DB0880229205134307932F4B194015
:102110000591102204A90CA80CF0BAFD0F9B0393A3
:102120002B4A1A40BF0217430F974346002B45D056
:1021300020220E9B03932749194080239B020B43C7
:102140005206F82189050A4013430E939B009B0811
:102150008022D20513430E93052009F09FFD1E49EE
:102160000BF07AF80CF0DFFB80460CF035FC87B200
:10217000002F25D038000CF0D6FB011C40460CF097
:102180005EFB8721C9050CF07AFB0CF025FCC0B280
:1021900000023F0407430C970CAB320029002000DB
:1021A0000DF0F0FC22680123AB409A4313432360F7
:1021B00010B080BCB846F0BD062175E71822B8E71C
:1021C0000020E5E7000020507F00FEFFFFFFFF9F9B
:1021D000FF83FFFFFFFFF5C10050C300014B012249
:1021E0001A7070475A35002070B5254B1B78002BAC
:1021F00017D1244B00221A70214B01321A7000248F
:102200001F2C09D80DF080FB06210BF025F81E4B82
:1022100019550134E4B2F3E71C4B00221A70002474
:1022200028E01A4B1B78002BF9D1194B1B789A0028
:102230009B18FA2B00D9FA23FF221A40FF239B1A7E
:102240009BB2144A1380144A1380104B01221A7057
:10225000E5E70D4D2B5D72339B00104A9958A200A3
:102260000F4BD1500DF050FB06210AF0F5FF295518
:102270000134E4B21F2CECD9FFF7B0FF70BDC046AB
:102280005935002044350020341E00202D15002033
:102290002B1500202C3500202835002000190020A7
:1022A00094230020034B1980034B1860034B00223A
:1022B0001A7070472A3500208822002057350020E8
:1022C00070B505000C0000880CF02DFB1B490CF0CC
:1022D000C0FA1B490CF0D3FA0CF07EFBC2B22B798A
:1022E000A978C943C9B25943090A5B1ADBB23F2531
:1022F00028402D1AEDB2584380096B439B11DBB285
:102300000818C0B2CB18DBB23F2A10D9403AD2B27B
:102310003F2A06D81A060B061B0A0002134318436D
:102320000AE0090600041B020843184304E0000603
:102330001B04090218430843206070BD00007F435E
:1023400000003F43F8B5CE46474680B50400234B16
:102350001D78002D05D100230360C0BCB946B046EE
:10236000F8BD642DF9D08778E678B8196378984677
:10237000C0180CF0DDFA1A490CF06BFA81462800FF
:102380000CF0D1FA17490CF064FA051C011C484600
:102390000CF0B4FA0028E0D14946281C0CF059FA98
:1023A000051C38000CF0BFFA291C0CF068FA0CF080
:1023B00013FBA07030000CF0B6FA291C0CF05FFA89
:1023C0000CF00AFBE07040460CF0ADFA291C0CF052
:1023D00056FA0CF001FB6070BFE7C0462A150020DA
:1023E00000007F430000C842F0B5D6464F4646463F
:1023F000C0B504000368002B35D083789846C778B1
:10240000D819667880190CF093FA051C40460CF038
:102410008AFA8046291C0CF01CFA824638000CF01F
:1024200082FA071C291C0CF014FA814630000CF0CB
:102430007AFA061C291C0CF00CFA051C5146404681
:102440000CF01DFA0CF0C8FAA0704946381C0CF0CC
:1024500016FA0CF0C1FAE070291C301C0CF00FFACF
:102460000CF0BAFA6070E0BCBA46B146A846F0BDBE
:1024700030B585B01D4B1B78002B0FD100241F2CCD
:1024800009D80DF041FAFF210AF0E6FE184B195564
:102490000134E4B2F3E7154B01221A7000241FE067
:1024A000134D2B5D134A1078C018FF210AF0ACFEC3
:1024B000C9B2295502A80180FF23438083800023ED
:1024C000019301A9FFF7FCFE01A8FFF73BFF0A4BB0
:1024D000A000019AC250C018FFF786FF0134E4B291
:1024E0001F2CDDD9FFF77AFE05B030BD593500202D
:1024F000442200202B1500209423002000220AE013
:10250000930006495958064B5B68DB03FBD4044B28
:1025100019610132D2B21F2AF2D970478C220020F1
:1025200000002050F8B5DE4657464E464546E0B519
:1025300006000D00141C80780CF0F5F98046F07848
:102540000CF0F1F9071C70780CF0EDF9061CA87876
:102550000CF0E9F98346E8780CF0E5F982466878F2
:102560000CF0E1F98146414658460CF068F9211C0F
:102570000CF085F941460CF067F9051C391C5046F2
:102580000CF05DF9211C0CF07AF9391C0CF05CF9A7
:10259000071C311C48460CF052F9211C0CF06FF955
:1025A000311C0CF051F9061C281C0CF015FAC5B2B0
:1025B000381C0CF011FAC4B2301C0CF00DFAC0B289
:1025C0002D040002240628432043F0BCBB46B2463B
:1025D000A946A046F8BD0000082803D88300134A86
:1025E000D3589F46002000E00320C30702D4104BBD
:1025F0000022DA61830702D40D4B00229A6143075F
:1026000002D40B4B00225A61030702D4084B00226C
:102610001A6170470720E8E70F20E6E70920E4E7A2
:102620000A20E2E70B20E0E70620DEE7642B01103A
:102630009423002010B5054B1870FFF7CDFF044B15
:1026400000221A70FFF7CAFD10BDC0465C3500209D
:1026500059350020F8B52A4B18880CF069F9011C8F
:10266000FE2080050CF0F5F8041C264B1B78002B8F
:102670000AD1254B1E78224B1B889E4215D9234B2D
:10268000187800282FD0F8BD214B1878FFF7A4FF49
:102690008022204920480CF0FBFA00231A4A1370CC
:1026A000184A1370194A1370E3E730000CF03BF935
:1026B000211C0CF0E4F8051C00240BE0A7001749CE
:1026C0007918154838182A1CFFF72CFF114BD851E0
:1026D0000134E4B21F2CF1D901360B4B1E70FFF709
:1026E0000DFF0020CFE780220C490A480CF0D0FAF9
:1026F000FFF704FF054B01221A700120C3E7C04613
:10270000283500205A3500202F1500202C150020D8
:102710005C3500208C22002014230020942300200C
:10272000F0B5C64600B506000F0015009846002417
:102730000AE0335D9B004246EA50305D8000281875
:10274000FFF752FE0134E4B2BC42F2D380BCB8467B
:10275000F0BD0000031C642800D96423014A1370F3
:102760007047C0462A15002030B583B0050000240C
:102770000CE0019501A8FFF7E5FD064BA000019ACA
:10278000C250C018FFF730FE0134E4B21F2CF0D95C
:1027900003B030BD9423002010B509480388094ACE
:1027A00012789B18FF2213400380074C2100FFF78B
:1027B00087FD2068FFF7D8FFFFF710FD10BDC0466A
:1027C000241500202B1500204022002010B51A4BA4
:1027D0001B78002B17D1194A1370174A0121117069
:1027E000174A1370154C237872339B00154A98587A
:1027F000FFF7BAFF2078013006210AF005FD2170AD
:10280000FFF7ECFC10BD0E4B1B78002BEAD10E4BF2
:102810001B789A009B18FA2B00D9FA23FF221A4042
:10282000FF239B1A9BB2094A1380094A1380044B69
:1028300001221A70D6E7C0465935002044350020E1
:102840002E150020001900202B1500202C3500200B
:102850002835002010B50F4B1B78002B10D10E4BE4
:102860001B68002B02D10C4B0C4A1A600A4B1868EB
:10287000FFF77AFFFFF7B2FC064B01221A7010BD7A
:102880000020FFF771FFFFF7A9FC024B00221A702E
:10289000F5E7C046783500200C2300200000FFE655
:1028A00010B5164B1C78002C05D0154B1B78002B4F
:1028B00017D0200010BD8022124913480CF0E8F90F
:1028C000124B1868FFF750FF114B1A88114B1A80F2
:1028D000FFF784FC094B01221A70094B00221A7081
:1028E000E7E7802208490C480CF0D2F9FFF776FCA4
:1028F000034A137801331370DBE7C04657350020D5
:10290000823500208C22002020320020102300205D
:102910002A350020283500209423002070B50E4B66
:102920001C78002C08D00D4B1D78002D11D0FEF71F
:10293000F9FD2C00200070BD0020FFF715FFFFF708
:102940004DFC074B1A88074B1A80034B01221A7063
:10295000F0E700F045FAEDE7573500205D3500203F
:102960002A3500202835002070B50C000F2803D828
:102970008000294B1B589F460126284D2EE0042637
:10298000274D2BE00426274D28E00126264D25E083
:102990000126264D22E00126254D1FE00126254D6A
:1029A0001CE00126244D19E00126244D16E00126E5
:1029B000234D13E00126234D10E00126224D0DE0AA
:1029C0000126224D0AE00126214D07E00126214D76
:1029D00004E00426204D01E00426104D002A12D008
:1029E00023001E4A31002800FFF79AFE23001C4AEC
:1029F00031002800FFF794FE23001A4A3100280016
:102A0000FFF78EFE70BD2300154A31002800FFF746
:102A100087FEFFF7E3FBF5E7882B01100C2C011074
:102A2000F82B0110EC2B0110FC2B0110E82B0110EE
:102A3000F02B0110042C0110142C0110102C01108B
:102A4000E02B0110E42B0110F42B0110182C0110C5
:102A5000082C01101C2C0110002C01101423002044
:102A6000942300208C22002070B50C4B1968402262
:102A70000B480CF00DF900240CE0A300084DED18F4
:102A80002800FFF75FFC296800222000FFF76CFF99
:102A90000134E4B20F2CF0D970BDC04614240020DC
:102AA0001824002010B5024B1860FFF7DDFF10BDA1
:102AB0001424002010B5074B1B78002B00D010BD4C
:102AC0000548FFF7EFFFFFF789FB024B01221A7061
:102AD000F5E7C04659350020A8190020144AF02314
:102AE0005B00D35C834209D0002B03D1E133FF3379
:102AF0000521D1540E4AF0235B00D0540C4AF02338
:102B00005B00D25C0B4B1A700B4B1B78052B0AD069
:102B10000A4B15221A80094B1A88094B1A80094B57
:102B200000221A707047084B1A88044B1A80F2E78B
:102B3000001900202B150020583500202C350020CE
:102B400028350020593500202E35002010B5054BC2
:102B500018604908044C2000FFF7A4FB034B1C60DD
:102B600010BDC04610230020A1280010882200209C
:102B700010B5054B1870054B00221A600A21044855
:102B8000FFF790FB10BDC0465D3500208422002079
:102B90001D29001070B582B004000D00254B1B7874
:102BA000002B0CD0244B1C700023244A1370244AA1
:102BB0001370052C16D8A400224B1B599F46224E99
:102BC000224930000CF070FF0200002300931733FD
:102BD00000213000FFF758FA164B01221A70FFF758
:102BE0008DFCDFE71A4B1B4A1A601B4AF0235B007F
:102BF000D05CFFF773FF002D15DA02B070BD144BE7
:102C0000164A1A60F1E7124B154A1A60EDE7104BAD
:102C1000144A1A60E9E70E4B134A1A60E5E70C4BB9
:102C2000124A1A60E1E7FF2D00DDFF25E8B2FFF749
:102C300091FDE2E75B350020583500205935002032
:102C40005E350020C82B011000002050202C011000
:102C500084220020B52A00100019002099270010B6
:102C60007124001055280010CD270010E921001014
:102C700010B5FF2903DC002902DA152100E0FF214D
:102C8000044B1980044B186064210520FFF782FF74
:102C900010BDC0462E3500200C23002010B5144A6C
:102CA000144900F0A7FA002800D110BDFFF7D2FCAC
:102CB000002803D1104B1B78002BF6D00F4B1B685C
:102CC000002B0ED098470028EFD000240B4B1C603F
:102CD0000B4AF0235B00D05CFFF700FF094B1C7030
:102CE000E3E7094B1B68002BDFD09847DDE7C046C0
:102CF0007C3000201A4100005E3500208822002030
:102D000000190020593500208422002000B587B02A
:102D10002C4B1B7805AA137004AA137008F09EFBB5
:102D200002000B1E2CDB2848002112184B41002BFF
:102D30002CDB002B2EDB029203930123009305AAC8
:102D40006A2122480DF014FA08F088FB02000B1EDD
:102D500026DB1D48002112184B41002B26DB002BDF
:102D600028DB0292039300230093013304AA6A2113
:102D700016480DF01CFA002822DD012007B000BD26
:102D8000134B144A3F21144809F0B8F8012252426B
:102D9000124BCEE70E4B0F4A3F210F4809F0AEF819
:102DA0000B4B0C4A3F210C4809F0A8F80122524273
:102DB0000A4BD4E7064B074A3F21074809F09EF823
:102DC0000020DBE7D4350110102700007017002029
:102DD000302C0110B02C01104C2C0110FFFFFF7F94
:102DE00010B586B00020FDF7FAFA00241CE0204B55
:102DF000204A3F21204809F081F8002B28DB02926D
:102E0000039300230093023305AA6A211B480DF0A7
:102E1000AFF90400831C21D0431C22D0FA2080008B
:102E200008F04CFAFEF77EFB002C1DD105AB144ACE
:102E30001A8008F013FB02000B1ED8DB114800219A
:102E400012184B41002BD8DA012252420E4BD4E724
:102E5000074B084A3F21084809F050F8FEF762FB8B
:102E6000DCE7FEF75FFBD9E7FEF75CFB06B010BDC1
:102E7000302C0110B02C01104C2C011070170020C8
:102E80000941000010270000FFFFFF7F10B586B04A
:102E90000400244B1880232824D8C0B20538C0B2BF
:102EA0007F231840002C00D1852005AB04221A7026
:102EB000587008F0D3FA02000B1E22DB1A480021DA
:102EC00012184B41002B22DB002B24DB02920393D0
:102ED00000230093023305AA6A2114480DF048F933
:102EE00006B010BDAF235B00984207D828380A21EE
:102EF0000AF08AF9C0B21F30C0B2D1E7AF2040005B
:102F0000F4E70B4B0B4A3F210B4808F0F7FF012277
:102F100052420A4BD8E7064B064A3F21064808F0C2
:102F2000EDFFC04634350020102700007017002048
:102F3000302C0110B02C01104C2C0110FFFFFF7F32
:102F400070B5064B1D880020FFF7A0FFFEF768FA5A
:102F500004002800FFF79AFF200070BD34350020E0
:102F600000B587B002281DD0E02205AB0A211970F8
:102F70005A7008F073FA02000B1E15DB124800218C
:102F800012184B41002B15DB002B17DB0292039329
:102F900000230093023305AA6A210C480DF0E8F8DB
:102FA00007B000BDE422E0E7094B0A4A3F210A4886
:102FB00008F0A4FF01225242084BE5E7044B054A02
:102FC0003F21054808F09AFF1027000070170020E5
:102FD000302C0110B02C01104C2C0110FFFFFF7F92
:102FE00000B587B0304B1B7805AA137004AA137084
:102FF00008F034FA02000B1E33DB2C4800211218B3
:103000004B41002B33DB002B35DB02920393012372
:10301000009305AA6A2126480DF0AAF808F01EFAC6
:1030200002000B1E2DDB2148002112184B41002B02
:103030002DDB002B2FDB029203930023009301333F
:1030400004AA6A211A480DF0B2F80230012828D9E2
:1030500004AB1A78174B1A70D0B2C007C00F07B074
:1030600000BD154B154A3F21154808F047FF0122C6
:103070005242144BC7E7104B104A3F21104808F04A
:103080003DFF0D4B0D4A3F210D4808F037FF01224F
:1030900052420C4BCDE7084B084A3F21084808F044
:1030A0002DFF0120DBE7C046D435011010270000BA
:1030B00070170020EC260020302C0110B02C0110DD
:1030C0004C2C0110FFFFFF7F10B5FA212B4A09029B
:1030D00000F090F8002800D110BDFFF781FF284BC9
:1030E000187000281AD0274B1B78002B19D0254BBD
:1030F0001B78002B20D1234B1B78002BECD0224BCC
:103100001B785B069A0F214909788A42E4D0022A8B
:1031100022D9032A23D1FF20000222E0FEF710FA71
:10312000E1E7FEF7E5F90028E1D0184B00221A701C
:10313000144B01321A70DEE7FEF7DAF90028DAD113
:10314000104B00221A70124AE2235B00D05C01216E
:103150004942FFF71FFDCEE753B2002B07D1FF20F6
:1031600000040A4B1A706421FFF782FDB4E7FF23C5
:103170001B04E62000061843F3E7C046C4300020D5
:10318000423500207D350020EC26002075350020DA
:103190000019002010B500220021002008F06EFE6A
:1031A000FEE70000072804D88000024B9C466044DC
:1031B000016070470C80054010B5072802D9002433
:1031C000200010BD8000044B9C4660440468002130
:1031D0000520FFF7E7FFF3E70C80054010B501007D
:1031E0000520FFF7DFFFFFF7D5FF10B50520FFF73C
:1031F000E3FF10BD10605368834205D9C31A013B39
:103200008B4205D200207047834204D2C31AF7E7ED
:1032100050600120F7E70020F5E730B51860002A7C
:103220000BD15C6884420BD9041B013C0025002DA6
:103230000BD1A14209D9100030BD58600020FBE736
:10324000844205D2041B0025F1E758600120F3E712
:103250001000F1E710B5FEF7ADFE022801D00248DC
:1032600010BD0248FCE7C046C82C0110B82D011063
:1032700010B500200EF01EFB10BD000010B510218F
:1032800006480FF0C9FB002800D110BD044B0122F5
:103290001A7002480FF088FBF7E7C046A817002015
:1032A0006C35002010B5102106480FF0B5FB002842
:1032B00000D110BD044B00221A7002480FF074FBBD
:1032C000F7E7C046A81700206C35002070B5050050
:1032D00064210D480FF050FB041E09D10B4B220056
:1032E0000B492800FFF799FF051E08D1200070BD8B
:1032F000084B1C78E4B204480FF056FBEEE7FFF7EA
:10330000BDFF2C00F2E7C046A8170020C032002005
:10331000A08601006C350020037801330370044B54
:103320001B785BB2022B01D0024870470248FCE7D1
:10333000EC150020FC2E0110343001100C4B1860ED
:103340000C4B98420BD00C4B98420CD0FA235B00EC
:10335000984200D07047094B01221A60FAE7074BE8
:1033600004221A60F6E7054B08221A60F2E7C0460D
:1033700080250020461000008D20000078250020C8
:1033800010B50400002001F0C7FF022C2CD0062C41
:103390001DD0012C10D0012001F0BEFF1848FFF70E
:1033A000CDFF184B184A1A60184B194A1A60194B6E
:1033B0001C700EF08BFE10BDFA204000FFF7BEFF20
:1033C000104B154A1A60114B144A1A60EFE701209E
:1033D00001F0A2FF1248FFF7B1FF0A4B114A1A6031
:1033E0000A4B0B4A1A60E2E7FA204000FFF7A6FFFB
:1033F000044B0D4A1A60054B0C4A1A60D7E7C046C9
:103400008D2000007C250020798B00108425002071
:1034100071320010EC15002089960010CD3A001092
:1034200046100000F59D0010F5710010593F001086
:10343000F8B506000C0015000120002140420DF0F7
:10344000ADFD234B9F6C234B1B68BB421CD2FB1A68
:10345000214A12689A4202D8204B01221A70204B4E
:103460001968204A3000FFF7C5FE002802D01E4B25
:1034700001221A701D4B1B78002B0AD11C4B1B68B4
:1034800098471A4B1870F8BDFB1A1A4A94466344C1
:10349000DEE73000FFF71AFF0028F4D00F4B1B784F
:1034A000002BF0D0104B1B78002BECD0094B1F6089
:1034B00000230A4A13700C4A13700C4A1370FFF76A
:1034C000F1FE0D4B1B68290020009847DBE7C04642
:1034D00000001150782C0020782500207B3500203A
:1034E0008025002020350020853500206D35002006
:1034F00084250020FF0700007C250020084B1B7856
:103500005BB2022B07D0062B07D0012B01D0054858
:1035100070470548FCE70548FAE70548F8E7C04664
:10352000EC150020D8370110442F01102030011075
:10353000B8400110084B1B785BB2022B07D0062B5A
:1035400007D0012B01D0054870470548FCE7054826
:10355000FAE70548F8E7C046EC1500209837011057
:10356000142F0110F42F01108C400110002070471F
:1035700010B5134B1B785BB2022B13D0062B18D05F
:10358000002B05D00B78002B0FD1FFF777FE0CE056
:103590000B78302B03D0212B01D0812B05D1FFF7E5
:1035A0006DFE02E00B78212B00D010BDFFF766FE08
:1035B000FBE70B78012BF8D1FFF760FEF5E7C0467B
:1035C000EC15002070B504AC25882E4C247864B22C
:1035D000012C2DD0022C12D0002C00D070BD00295F
:1035E000FCD1002AFAD11878102804D02A0019003A
:1035F00001F0ACF8F2E7981C00F0D8FDEEE70029E6
:10360000ECD1002AEAD11A78112A05D0132AE5D183
:103610001D480BF08DFCE1E75B78002B06D01B49C1
:103620000B1C1B4A1B48FDF7BDFED7E70021F7E73F
:103630000029D3D1002AD1D11A78002ACED15A78C4
:10364000082ACBD1DA78002A02D11979002911D0C1
:103650001B79101C9A4200D2181CC0B20BF063F9FF
:103660000D490BF0F6F8011C031C094A0948FDF747
:1036700099FEB3E70020031C021C011CFDF792FE1B
:10368000ACE7C046EC1500207C2E01106666263F94
:10369000000020420000F04200007F43064B1B78F0
:1036A0005BB2022B03D0062B03D1044870470448B9
:1036B000FCE70448FAE7C046EC150020CC400110B6
:1036C000882F0110EC37011070B5EE2824D00028A7
:1036D00025D080001E4BC55828000FF01DF9C0B240
:1036E0001F2800D91F20002327E05A1C194CA15C79
:1036F0000902E25C0A434400174962520233013076
:10370000112BF2D9154A144B13CB13C211001A68AE
:103710000A609B888B8019E000200023F0E70C4BA7
:10372000196802220E480BF0B3FA012007E05A1C78
:10373000EC5C5100094BCC52D3B29842F7D801301F
:103740004000C0239B001843044B1880034870BD01
:1037500010150020C02E01101C1B00205C1E002034
:103760005E1E002000B591B04022694600200EF098
:103770002FFB00200EF042FB064B1B785BB2002BA8
:1037800001D011B000BD04480BF0A2FB684605F063
:103790008DFBF6E7EC150020942E0110F0B583B0F8
:1037A00005001400012966D113785B069B0F012BDD
:1037B00058D0022B03D0002B01D000205CE06378AE
:1037C000022B24D0072B03D0012B19D0002053E06B
:1037D000227963791B021343042B03D0052B08D0F5
:1037E000002049E02433264A210028000DF0FAFC8D
:1037F00042E08D33234A210028000DF0F3FC3BE02A
:103800002723214A210028000DF0ECFC34E0227926
:1038100063791B021343072B30D11C4B1B785BB21F
:10382000022B0FD06B469F1D194E0222310038002B
:103830000BF02EFA3B883200083A210028000DF0E8
:10384000D1FC19E06B469F1D124E02223100380058
:103850000BF01EFA3B883200083A210028000DF0D8
:10386000C1FC09E051780C480BF062FB21002800F4
:103870000DF09CFC00E0012003B0F0BD0020FBE750
:10388000C415002030150020D42E0110EC150020A6
:103890000C2D0110E42D0110AC2E0110012815D0C3
:1038A000022907D000290BD1022A29D0002A29D0C9
:1038B00006207047022A1FD0002A1FD00800F8E710
:1038C000022A21D0002A21D00820F2E7022907D0BD
:1038D00000290BD1022A1FD0002A1FD00720E8E7B9
:1038E000022A15D0002A15D00320E2E7022AE0D0F0
:1038F000002A15D00020DCE70120DAE70320D8E712
:103900000720D6E70520D4E70020D2E70420D0E73F
:103910001000CEE70420CCE70820CAE70620C8E75D
:103920000520C6E70120704710B584220021024817
:103930000BF0A8F910BDC046A829002010B5002042
:10394000FFF7F2FF10BD0000F0B5C64600B5804697
:103950000D008B795D2B24D10B79DF00FF1ABFB2EC
:103960001937BFB2974221D80C780C19002605E010
:10397000104A53700136F6B22378E4182B79B3421B
:1039800010D96378052BF7D1210040460DF034F8AB
:1039900000280DD0A378DA09012AE9D0054A9370EE
:1039A000E8E70027380080BCB846F0BD0027F9E7FB
:1039B0000027F7E7A829002030B583B00400144899
:1039C0004078884206D0124A92788A420CD0012070
:1039D00003B030BD0F4A002A18D09AB20E49002019
:1039E000FFF7C6FD0120F3E70C4D9BB200932B00BF
:1039F000002200210020FFF7E5FD2B00443B9978D1
:103A000040232A0020000DF06BF8E1E70120DFE7FA
:103A1000A829002071350010AC290020EC290020D5
:103A200010B50CF04DFF002803D10023002B08D166
:103A300010BD0CF04DFF002801D10123F6E7002353
:103A4000F4E70B4B997800200DF086F80028EFD1B1
:103A5000074CA1780DF01CF822004432A1784023D5
:103A600000200DF03DF8A17800200DF025F8DFE7EB
:103A7000A829002070B505000C000CF029FF0028D3
:103A800006D1812100200DF003F8002803D170BD7C
:103A90000CF026FFF5E7231C402C00D940239CB2F4
:103AA000094E2200290030000BF0F2F8351F69782A
:103AB0002300320000200DF013F8697800200CF08C
:103AC000FBFFFFF7ADFFE2E7AC29002010B5104B7C
:103AD0005C780CF0F5FE002806D10023002B13D0F3
:103AE000002C09D1002010E00CF0F2FE002801D1DA
:103AF0000123F3E70023F1E7210000200DF02CF86B
:103B0000002803D1013000E0002010BD0020FCE7B8
:103B1000A829002010B53C22002102480BF0B2F881
:103B200010BDC046F81E002010B50020FFF7F2FFC0
:103B300010BD0000F0B583B006000F001500FEF7C1
:103B400039FA02284CD13B79DC00E41AA4B21234D1
:103B5000A4B2AC4248D80023002B09D00025002D88
:103B600044D0397879184B78212B11D0002438E0D3
:103B70001A01D21A92001F4882185278002A02D0E5
:103B80000133DBB2E8E71A01D11A89004518E6E7EC
:103B9000A9630B78C9183A796B1C0193AB1C00938D
:103BA000032330000CF042FF002821D0BB79012B09
:103BB00013D001232B71BB782B70AA6BD179137AA8
:103BC0001B020B43EB80A97800290AD02A0030326F
:103BD000062330000CF084FF03E0FB79EB70E8E78C
:103BE0000024200003B0F0BD0024FAE70024F8E729
:103BF0000024F6E7F81E002070B582B005001D4CC9
:103C0000002000280AD0002830D162788A4213D0E0
:103C1000A2788A421AD0012002B070BD0401241A91
:103C2000A400144A1419A2788A42ECD062788A421D
:103C3000E9D00130C0B2E4E70F4A002A18D02100D1
:103C400008319AB2FFF794FC0120E5E726003036F0
:103C50009BB20093330000220021FFF7B3FCA17850
:103C60000623320028000CF03BFFD5E70020D3E705
:103C70000120D1E7F81E002071350010F0B5C646CE
:103C800000B582B00600150012781F231340012BE7
:103C900000D01FE128790024002C0DD0FF24002C37
:103CA00000D01CE12700602318001040134239D1D6
:103CB00001290BD001200EE123011B1B9B008E4F1D
:103CC000DB5D9842EBD00134E4B2E5E7EA786B784B
:103CD000062B06D0062B00D005E1222A12D00020A8
:103CE000F9E0212AF6D123011F1BBF00824BDF1907
:103CF000BA6B002A00D1F4E01378290030000DF0EF
:103D000071FAE8E02000FFF7C9FC02003B01DF1B6D
:103D1000BF00794BDF19FB88290030000DF062FAF3
:103D20000120D8E0202800D0DFE06B780B2B00D9F1
:103D3000DDE09B00714AD3589F46012901D0012044
:103D4000C9E0EA78A97823011B1B9B0008336A4F5E
:103D5000FF18A879EB791B020343181C252B00D907
:103D6000252080B2002909D0012B16D97B1C9C4646
:103D70003970013880B20123984602E0BC46002326
:103D80009846009063462000FFF7F0FB0300434491
:103D90009BB2002B05D100209DE0BC460023984635
:103DA000EFE73A00290030000DF01CFA012092E004
:103DB000012903D0032915D001208CE0AA79EB79E1
:103DC0001B021343062B01D9002084E02201121BA1
:103DD0009200303248498A18290030000DF002FA6A
:103DE000012078E0EA78A97823011B1B9B0030337F
:103DF0004148C318AE79E87900023043051C062813
:103E000000D90625ADB2002904D0012802D91878BE
:103E1000884205D000952000FFF7D4FB01205AE02E
:103E20000133013DADB2F5E7012901D0012052E097
:103E3000E97823011F1BBF002F4BDF197971304B2D
:103E4000002B04D0200000E000BF002843D0290050
:103E500030000DF0ABF901203DE0012901D0012037
:103E600039E02201171BBF00234AD2190532012372
:103E7000290030000DF0B6F901202CE0012901D015
:103E8000012028E02201171BBF001B4AD21904326F
:103E90000123290030000DF0A5F901201BE00129C4
:103EA00003D0032907D0012015E0290030000DF0D0
:103EB0007DF901200FE0A97823011F1BBF000E4BE5
:103EC000DF1939710F4B002B13D0200000E000BF29
:103ED000012000E0002002B080BCB846F0BD002008
:103EE000F9E70020F7E70020F5E70020F3E70020DE
:103EF000F1E70120EFE7C046F81E0020582F01101F
:103F0000000000000000000010B50301181A800036
:103F1000104B181844780CF0D3FC002806D100236D
:103F2000002B13D0002C09D1002010E00CF0D0FCA5
:103F3000002801D10123F3E70023F1E7210000204D
:103F40000CF00AFE002803D1013000E0002010BD73
:103F50000020FCE7F81E002010B50020FFF7D4FF7A
:103F600010BD0000F8B504000F0016001D0003018D
:103F70001B1A9B001F4AD318597800200CF088FDAB
:103F8000002825D0002F24D02B1C242D00D9242339
:103F90009DB2184A2301191B890051180F721B1B6F
:103FA0009B000833D01801302A0031000AF070FE5F
:103FB0000135ADB20F4B2001021B920008329A1856
:103FC000001B8000181841782B0000200CF088FDA1
:103FD000F8BD2B1C252D00D925239DB22001001BE7
:103FE00080000830034B18182A0031000AF050FEF8
:103FF000E0E7C046F81E002010B513000A000100DB
:104000000020FFF7AFFF10BD107003120F20184003
:1040100050700B01184350700911917070470000E7
:1040200070B5124D802424012A0021002000FFF7E2
:10403000EBFFEA1C21002000FFF7E6FFAA1D21008C
:104040002000FFF7E1FF2A00093221002000FFF7DE
:10405000DBFF2A000C3221002000FFF7D5FF2A00E9
:104060000F3221002000FFF7CFFF70BDFC3400208D
:1040700010B54022002102480AF004FE10BDC046DF
:10408000BC240020014B18707047C04667350020E3
:10409000014B18737047C046BC240020014B587375
:1040A0007047C046BC240020074A0021535E1078A8
:1040B00006490870023399B21BB21380FF2B01DD51
:1040C000FF3911807047C04632350020BC240020E3
:1040D000024B1A78024B5A707047C046A431011047
:1040E000BC240020064B04229A732F32DA73303A34
:1040F0001A74013A5A74012119765A767047C046EB
:10410000BC24002010B5C4B2000A002307E0190047
:104110000E31044A5454013150540233DBB20D2B9A
:10412000F5D910BDBC24002010B503007F2800D9AC
:104130007F2080B2002B08D00AF0F5FB04490AF07A
:104140009EFB04490AF080FB10BD0248FCE7C04614
:10415000BA6693400000204210B503007F2800D9C2
:104160007F2080B2002B08D00AF0DDFB04490AF062
:1041700086FB04490AF068FB10BD0248FCE7C04614
:10418000C56613410000A04210B503007F2800D986
:104190007F2080B2002B05D00AF0C5FB02490AF04F
:1041A00058FB10BD0020FCE70000FE42F8B5CE46EB
:1041B000474680B50300C1788A0937D0012A17D055
:1041C000022A07D00026371C00239946984600256E
:1041D000002447E04178090202780A439205940DD1
:1041E000002A23D1A146A04625000026371C39E02D
:1041F000807804025E78320022431205140D002AF2
:1042000067D01B789A074ED17F2202409046490022
:104210007E252940C5090D43F201FF2414409B0867
:104220001C43730899460026371C1BE01C78E207E4
:104230003DD564085A78D1007820084081469978A5
:10424000C90008250D4052091543ED00254E0027F1
:10425000002290465A78D20601D5002291469B78DA
:104260009B073CD40021381C0AF03AFB002803D0FD
:104270002000FFF771FF071C0021301C0AF030FB03
:10428000002803D04046FFF74FFF061C4846FFF7C3
:104290007BFF041C2800FFF777FF031C321C211C46
:1042A000381CFDF77FF8C0BCB946B046F8BD6208BF
:1042B00090465A78D1007820084081469978C90004
:1042C00008250D4052091543ED000026064F002435
:1042D000C0E7A146A04625000026371CC2E70025FE
:1042E000C0E7C046000020430000A0430A4B012263
:1042F0001A7000225A7003329A70084A117AD970E3
:10430000D179197191795971517999711179D9715D
:10431000D2781A727047C046BC24002000190020D1
:1043200010B50400FFF7A4FE8120FFF7ABFE012CBF
:1043300009D0064B1C70064B19784023034A002015
:104340000DF0E0FA10BDFFF7D1FFF4E7BC24002028
:104350006735002070B586B06C462A4B04332200C6
:1043600070CB70C270CB70C2022837D0032841D006
:104370000023002500E00133052B10D8224AD21873
:104380007D32FF3214780522D21A885C8442F2D042
:104390001D4AD2187D32FF3210700125EBE7002D47
:1043A00019D18120FFF774FE184801238373164B3F
:1043B0001A7AC273DA7902749A7942745A798274D9
:1043C0001A79C274DB7803751530182269460AF031
:1043D0005FFC06B070BDFDF707FDE2E78120FFF747
:1043E00057FE0A48022383730F30102208490AF04F
:1043F0004FFCEEE78120FFF74BFE044B03229A733C
:10440000E7E7C046A431011000190020BC240020B9
:104410003C25002070B504000E001500FFF728FEB3
:104420002120FFF72FFEFFF73FFEFFF751FE200090
:10443000FFF734FE482C67D8A4003E4B1B599F461B
:104440008020FFF725FE00236AE0F07A431E9841A2
:10445000C0B200F061FFF27A374B1A708020FFF78C
:1044600017FEF0E731000C31F07AFFF773FFEAE74F
:104470008020FFF70DFEF27A304B1A70E3E78220BE
:10448000FFF706FEFFF72EFEDDE78020FFF700FEB8
:10449000D9E79020FFF7FCFDF27BF17A307B00F04A
:1044A00037FAD0E7FEF79CFCCDE78020FFF7F0FD60
:1044B000C9E78320FFF7ECFD6420FFF723FEC2E786
:1044C0008020FFF7E5FDBEE78020FFF7E1FDF27AEF
:1044D0000F231340033BDAB20C2A03D89300184A87
:1044E000D3589F460120FEF7A5F8ACE70320FAE772
:1044F0000420F8E70520F6E70620F4E70720F2E7B6
:104500000820F0E70220EEE70023AB4202D201339D
:104510009BB2FAE78020FFF7BBFD94E70133DBB2E3
:104520001F2BFBD94023074A212100200DF0EAF977
:1045300070BDC0464C30011068350020F0150020D9
:1045400070310110BC24002070B50C00150010283B
:104550000DD080280FD0012800D070BD881CFFF737
:1045600025FEA07A2A002100FFF754FFF5E7881CFA
:10457000FFF71CFEF1E74878FFF7D2FEEDE70000F9
:10458000094B1B780A2B07D00B2B09D0064B0A22AC
:104590001A70054B18787047034B0B221A70F8E716
:1045A000014B0C221A70F4E7F115002070B50400DD
:1045B0005D4B1B78002B04D15C4B1B78302B0BD050
:1045C00070BD5B4B1A885B4B18785B49FFF7BCFFEB
:1045D000554B00221A70F3E7FFF74AFD3020FFF732
:1045E00051FDFFF761FDFFF773FD544B1B78012B65
:1045F0002DD0022B00D18AE02378514DAB70637827
:10460000EB70A3782B71E3786B7123790F210B404A
:10461000AB716079A3791B0203431B11EB71E37942
:104620002B72237A19406972617AA37A1B020B43B9
:104630001B11AB72FFF7A4FFE872424B19784023BD
:104640002A0000200DF05EF902F0A6FAB8E700F0AB
:1046500007FD83783A4D2B73C3786B730378AB7384
:104660004378EB7303792B7443796B74037AAB74DF
:10467000437AEB7483792B75C3796B75837AAB7549
:10468000C37AEB7500F0ECFC83782B76C3786B76FD
:104690000378AB764378EB7603792B7743796B77A6
:1046A000037AAB77437AEB7782792023EA54C27995
:1046B0000133EA54827A0133EA54C27A0133EA546C
:1046C00000F0CEFC82782423EA54C2780133EA5405
:1046D00002780133EA5442780133EA540279013313
:1046E000EA5442790133EA54027A0133EA54427AB5
:1046F0000133EA5482790133EA54C2790133EA542E
:10470000827A0133EA54C27A0133EA5474E70E4DD7
:10471000280000F025F90A4B0C3307CD07C307CD5D
:1047200007C307CD07C367E769350020F0150020F0
:10473000EE1500206A350020FC240020683500209A
:10474000BC240020673500202031002010B5054B27
:1047500001241C70044B1870044B1A8004480AF0A2
:1047600097FA10BD693500206A350020EE1500204B
:10477000FC24002010B5024B18180AF089FA10BD6D
:10478000BC240020502800D1B0E003D960282FD0ED
:10479000FF2010E0402800D9AAE0202805D34B29AB
:1047A00024D88B00564AD3589F46002803D010289F
:1047B00000D09FE0002070479520FCE70020FAE73A
:1047C0002A39504B59187D31FF310878F3E7043905
:1047D0004C4B59187D31FF310878ECE70020EAE7AF
:1047E0000020E8E76820E6E70020E4E70020E2E7B1
:1047F000A92979D88B00444AD3589F46FF20DAE78D
:104800000220D8E70120D6E72320D4E70020D2E712
:10481000B920D0E71A20CEE70120CCE70020CAE774
:104820004020C8E70020C6E74020C4E70020C2E7D8
:104830004020C0E70120BEE70020BCE70120BAE726
:104840000020B8E70120B6E70020B4E73B20B2E73C
:104850003420B0E73B20AEE73420ACE73B20AAE7AA
:104860003420A8E73D39294B585CA4E73D39274B54
:10487000585CA0E71A209EE71A209CE71A209AE7C6
:104880005E2098E7012096E7502094E7FD2092E70C
:10489000002090E700208EE7C6208CE70F208AE7F3
:1048A0000F2088E7302086E7612084E7AE2082E78A
:1048B000902080E7D9207EE7D4207CE714207AE797
:1048C000542078E7412076E7152074E7542072E7FA
:1048D000C72070E779206EE79C206CE733206AE7F9
:1048E000362068E7632066E7002064E7002062E77F
:1048F000FF2060E7FF205EE722205CE703205AE705
:10490000C031011000190020F0320110FC340020E9
:10491000F0B58BB006000F00150008A90F704870A5
:1049200000248C70CC700A7105220E20FFF722FF44
:1049300000941A22002101A80AF0A4F907E039190D
:10494000C9B23000FFF71EFF6B4618550134A5426F
:10495000F5DC2A0069461320FFF70CFF0BB0F0BD11
:10496000F0B5DE4657464E464546E0B585B00400F4
:104970008379032293430222134383710125002686
:1049800001E00135EDB2032D0CD8724BAA00D058CE
:10499000B200D1584900490809F0C0FF0028F0D002
:1049A0002E00EEE7032333409A00A3790C218B43BA
:1049B0001343A371002509E06749404609F05FFFF2
:1049C000AF0009F0D7FF01ABD8510135022D15DC3E
:1049D00072190132032313405E4F9B00D8599D2169
:1049E000C90509F04CFF8046B300D859002109F0F1
:1049F0007FFF0028E0D1FE218905DEE7019B9B12A5
:104A0000DB02D90A0F2211400901A07902400A43B2
:104A1000A271D90BE171D90D2172DB0F01260121A1
:104A20000B40607AB04303436372029B9D127F2068
:104A3000824605406F00657A0D403D4365725B1408
:104A40009B049B0CA3721B0A3F273B40E57A40382E
:104A500085432B43E372039B9A129446032503225A
:104A60006046104080018446E07A07406046074374
:104A7000E7721B135B035F0BA774580DE0745B0FA9
:104A80000720804603409B46207D844607208146C0
:104A900060464B4698430300584618432075C3B2FE
:104AA00040460340237500236375A375E37D1830EA
:104AB0008343E375E77D1F233B40E3750023A37722
:104AC0002700E37FAB43E377DBB21340E3771E3786
:104AD000BB78B343BB701F36A35D0B40A3552123A6
:104AE0009C46E35C5F36B34360462354194E3369FA
:104AF0001940C9018946205C5146014008004946D9
:104B00000143604621545B089B059B0D3B711B0ACA
:104B100013407979A9430B437B712323E15C0A405D
:104B20000C210A43E254B38AA3701B0AE370F38A90
:104B300023701B0A6370338B23711B0A6371336903
:104B40000833336105B0F0BCBB46B246A946A04667
:104B5000F0BDC046F4150020000080BFF0B5DE4671
:104B600057464E464546E0B585B004000D00C36883
:104B70009A46CE68311C181C09F081FE071C236878
:104B800098462B689B46191C404609F078FE011C8C
:104B9000381C09F054FE071C63686A689146111CB2
:104BA0000093181C09F06BFE011C381C09F047FE2D
:104BB0000190A768AD68291C381C09F060FE011C33
:104BC000019809F03CFE01905946504609F057FE05
:104BD00002904146301C09F052FE011C029809F077
:104BE00033FE0290291C009809F049FE011C02982E
:104BF00009F02AFE0290391C484609F040FE011CCB
:104C0000029809F01CFE02904946504609F037FE12
:104C10000390291C404609F032FE011C039809F05C
:104C20000EFE03900099301C09F029FE011C039828
:104C300009F00AFE0390391C584609F020FE011CB9
:104C4000039809F001FE0390291C504609F017FE55
:104C5000051C4946404609F012FE011C281C09F0BB
:104C6000F3FD051C0099584609F009FE011C281C9B
:104C700009F0E5FD051C391C301C09F000FE011C83
:104C8000281C09F0E1FD019BE360029B2360039B6C
:104C90006360A06005B0F0BCBB46B246A946A04622
:104CA000F0BD70B504000168081C09F0E8FD051CA2
:104CB0006168081C09F0E3FD011C281C09F0C4FD13
:104CC000051CA168081C09F0DAFD011C281C09F06C
:104CD000BBFD051CE168081C09F0D1FD011C281C66
:104CE00009F0B2FD09F08AFE011CFE20800509F0E2
:104CF000B0FD051C011C206809F0C1FD2060291CC5
:104D0000606809F0BCFD6060291CA06809F0B7FD6F
:104D1000A060291CE06809F0B2FDE06070BD0000F1
:104D2000F0B5DE4657464E464546E0B58DB0804666
:104D3000944A934600911268881A09F0F4FD041C05
:104D40004246127A4146487A000210430004001499
:104D500009F0EEFD8C4909F092FD8C4909F079FDCE
:104D600009F042FE8A4A8B4B08F0EDFC00228A4B88
:104D700008F0CBFC0022894B08F0C7FC06000F00AE
:104D8000201C09F031FE04000D0002000B00300071
:104D9000390008F0D8FC08F09BFD82464246927923
:104DA0004146C879000210430004001409F0C0FD18
:104DB000754909F064FD754909F04BFD09F014FED1
:104DC000734A744B08F0BFFC0022734B08F09DFC43
:104DD0000022724B08F099FC02000B002000290011
:104DE00008F0B1FC08F074FD81464246927A4146D3
:104DF000C87A000210430004001409F099FD6249CA
:104E000009F03DFD614909F024FD09F0EDFD604A1E
:104E1000604B08F098FC00225F4B08F076FC002203
:104E20005E4B08F072FC02000B002000290008F025
:104E30008AFC08F04DFD051C5146504609F01FFD47
:104E4000041C4946484609F01AFD011C201C09F0C3
:104E5000FBFC041C291C0195281C09F010FD011CF9
:104E6000201C09F0F1FC09F0BFFD04000D00020058
:104E70000B0008F068FC06000F000022484B029669
:104E8000039708F042FC06000F000022454B20006B
:104E9000290008F03AFC02000B003000390008F04D
:104EA00022FC0022404B08F027FC06000F000022E5
:104EB0003E4B0298039908F028FC029003910022CF
:104EC000FF239B052000290008F03DFC02000B0099
:104ED0000298039908F007FC0022354B08F00CFCFF
:104EE00004000D001C22002105A809F0CBFE50464D
:104EF00009F07AFD32003B0008F025FC08F0E8FCE0
:104F00000590484609F070FD32003B0008F01BFC9C
:104F100008F0DEFC0690019809F066FD32003B00C7
:104F200008F011FC08F0D4FC07902000290008F0DC
:104F3000CFFC08901F4C05A92000FFF70FFE2000B2
:104F4000FFF7AFFE4246117853781B020B431B0458
:104F50001B14A3829178D3781B020B431B041B14F0
:104F6000E382117953791B020B431B041B14238327
:104F70005A46009B13600DB0F0BCBB46B246A94632
:104F8000A046F0BD983100200000FA4400FEFF4624
:104F9000182D4454FB2109400080664080842E4136
:104FA0000000AE40000048400000E03F00007840B4
:104FB0000000F03FF4150020F0B5C64600B504002F
:104FC0008846234923480DF017FD0028F9D0224ECA
:104FD0003368581C032108F017F92578627812020B
:104FE0001E4F4800401883005B182A43FA54120AE7
:104FF000FB185A70A078E278120202439A70120AE3
:10500000DA7020796279120202431A71120A5A7117
:10501000A079E279120202439A71120ADA71207AB7
:10502000627A120202431A72120A5A72A07AE27A61
:10503000120202439A72120ADA723160414620006B
:10504000FFF76EFE03480DF0AFFC80BCB846F0BD24
:10505000B4200020B0170020B020002088200020BD
:1050600010B5094909480DF0C7FC0028F9D0084BD4
:105070001C6806480DF098FC6000001980000019BB
:10508000044B181810BDC046B8200020B0170020EF
:10509000B0200020882000204118CB0F5B185B1047
:1050A00080225202914204DA044A914203DB18B290
:1050B00070470348FCE70348FAE7C046FFFFFEFFDE
:1050C000FF7F00000080FFFF70B5012149422848A2
:1050D000FDF7CEFD274D06220021280009F0D2FD64
:1050E000A81D0622002109F0CDFD234B01221A70D4
:1050F000224BFA2292011A60214B00221A70214E93
:10510000214C31002000FBF79BFE0023E25E9C3D1A
:105110009C23EA540223E25E9D23EA540423E25EC8
:105120009E23EA540623E25E9F23EA540823E25EAC
:10513000A023EA540A23E25EA123EA540023F25E8C
:10514000A223EA540223F25EA323EA540423F25E6C
:10515000A423EA540623F25EA523EA540823F25E50
:10516000A623EA540A23F25EA723EA5470BDC04680
:105170000000FFFF9C1900204D35002084200020F6
:105180004E350020742000205420002010B5084A1D
:10519000E2235B00D05C01214942FDF7FBFCFCF7F8
:1051A0001DFEFCF721FE034B00221A7010BDC04605
:1051B000001900204D350020F8B552495248FBF740
:1051C0003FFE524B1B78002B00D160E0504C9C25D9
:1051D0004D4E0023F15E6057FFF75EFF60550135CD
:1051E0000223F15E6057FFF757FF60550135042336
:1051F000F15E6057FFF750FF605501350623F15E01
:105200006057FFF749FF605501350823F15E60578D
:10521000FFF742FF605501350A23F15E6057FFF743
:105220003BFF6055A227374D0023E95EE057FFF7AB
:1052300033FFE05501370223E95EE057FFF72CFF0B
:10524000E05501370423E95EE057FFF725FFE055FD
:1052500001370623E95EE057FFF71EFFE0550137EF
:105260000823E95EE057FFF717FFE05501370A23EF
:10527000E95EE057FFF710FFE055002333732B730F
:10528000244A1368013B1360002B37D0F8BD1E4A37
:105290000023D05E1E4B9C2158540221505E9D215C
:1052A00058540421505E9E2158540621505E9F217F
:1052B00058540821505EA02158540A21515EA12261
:1052C0009954104A0021505EA22158540221505E88
:1052D000A32158540421505EA42158540621505E45
:1052E000A52158540821505EA62158540A21515E28
:1052F000A7229954054BA63A1A70C7E7FFF746FF55
:10530000C4E7C04674200020542000204E35002001
:105310000019002084200020014B18707047C046FF
:105320004F350020F0B5C64600B504004C4B1B7845
:10533000002B06D14B4B1B78002B05D180BCB84607
:10534000F0BDFFF739FFF9E7FA21474A8900FDF779
:1053500051FF0028F2D0454D29004548FBF770FD6C
:105360002B7B002B03D0424B1B7B002B0AD1404BE5
:105370001B7B002B00D06EE000233D4A13733B4A99
:105380001373DBE73A4B984618883A4D9C23EB564B
:105390009BB2C01A354F3988A223EB569BB2C91A6B
:1053A00009B200B2FFF778FE334E3080434658888A
:1053B0009D23EB569BB2C01A7988A323EB569BB270
:1053C000C91A09B200B2FFF767FE70804346988899
:1053D0009E23EB569BB2C01AB988A423EB569BB20E
:1053E000C91A09B200B2FFF757FEB0804346D88809
:1053F0009F23EB569BB2C01AF988A523EB569BB2AC
:10540000C91A09B200B2FFF747FEF0804346188977
:10541000A023EB569BB2C01A3989A623EB569BB248
:10542000C91A09B200B2FFF737FE308143465889E6
:10543000A123EB569BB2C01A7989A723EB569BB2E6
:10544000C91A09B200B2FFF727FE708121003000AF
:10545000FFF7B2FD90E721000548FFF7ADFD8BE7B0
:105460004D3500204F35002084300020742000206E
:1054700054200020001900206420002004281ED0A1
:105480000CDC012816D000280FDD0238C0B201283C
:105490000BD80D4B0B60083313600AE0052804D1CC
:1054A0000A4B0B600833136003E0094B0B600833B1
:1054B00013607047074B0B6008331360F9E7064B26
:1054C0000B6008331360F4E7481A0020681A0020C4
:1054D000281A0020381A0020581A002030B50F2250
:1054E0000D780F231D40047894432C4304704C78AE
:1054F0001C40250104781C402C4304708D781D400D
:10550000447894432C434470CC781C402501447863
:105510001C402C4344700D791D40847894432C43E7
:1055200084704C791C40250184781C402C43847085
:105530008D791D40C47894432C43C470CC791C40B1
:105540002501C4781C402C43C4700D7A1D40047999
:1055500094432C4304714C7A1C40250104791C406F
:105560002C4304718D7A1D40447994432C4344713B
:10557000CC7A1C40250144791C402C4344710D7B9E
:105580001D40847994432C4384714C7B1C4025013D
:1055900084791C402C4384718D7B1D40C4799443D5
:1055A00022002A43C271CA7B1A401201C1790B4002
:1055B0001343C37130BD0B781B071B0F03700B78AF
:1055C0001B0943704B781B071B0F83704B781B091B
:1055D000C3708B781B071B0F03718B781B094371FA
:1055E000CB781B071B0F8371CB781B09C3710B7919
:1055F0001B071B0F03720B791B0943724B791B07A7
:105600001B0F83724B791B09C3728B791B071B0F0E
:1056100003738B791B094373CB791B071B0F8373B0
:10562000CB791B09C373704770B50400144D154A3C
:105630002900FFF723FF2B68134A1168526819608D
:105640005A60042C12D0052C15D0032C09D00D4B18
:105650001B6800221A800A4B19680C48FFF7ABFF41
:1056600070BD084B1B680A4A1A80F4E7054B1B689B
:10567000084A1A80EFE7034B1B68074A1A80EAE7DB
:105680008022002074250020D835011064220020DB
:1056900000E1FFFF00C0FFFF00CAFFFF10B50E4B87
:1056A00019600E4B1A600E4B18700E4C0E4A2100FA
:1056B000FFF7E4FE21680D4C2000FFF77CFFE37A42
:1056C0000B3B5A1E93410A4A1370637A093B5A1ED8
:1056D0009341084A137010BD841B0020881B0020D2
:1056E00056350020802200207425002064220020EE
:1056F0005535002050350020024ABC235B00D054B1
:105700007047C0460019002010B5044B00221A70E3
:10571000034B19680348FFF74EFF10BD3F350020CB
:10572000802200206422002070B590B00500384C23
:10573000384E22003100FFF7A1FE31683648FFF7EE
:105740003AFFFFF7E1FF002300933C22002101A86C
:1057500009F098FAA6236A461370557033681A78D0
:105760001207120F69468A701A781209CA705A789D
:105770001207120F0A715A7812094A719A781207A1
:10578000120F8A719A781209CA71DA781207120F09
:105790000A72DA7812094A721A791207120F8A729B
:1057A0001A791209CA725A791207120F0A735A79B2
:1057B00012094A739A791207120F8A739A79120999
:1057C000CA73DA791207120F0A74DB791B094B745A
:1057D000226813881B0A8B741388CB740F4BBC226E
:1057E00052009A5C0A75BD2252009B5C4B75FA20F0
:1057F000000103F083FA002801D110B070BD002031
:105800000CF02CFB4022694600200CF009FBF4E769
:105810006825002064250020542500200019002060
:1058200070B50A0000210F2937D803000B41DB07B0
:1058300014D40131C9B2F6E70133DBB20F2B0FD814
:105840002A4AD05C2A4A12789042F5D1294A146833
:1058500001209840228802432280EDE70023EDE7F3
:10586000224C234803786354224B1D6801228A404E
:105870002B8893432B8002781F4809F059FB1F4B5C
:1058800000221A701E4B18682100FFF727FE1D4BDF
:1058900000201856FFF748FF70BD002AFCD00024F6
:1058A00001E00134E4B20F2C14D8104B1A5D104BF8
:1058B0001B789A42F5D12100134809F039FB0D4BB2
:1058C00019680122A2400B8813430B800B4B002266
:1058D0001A70E6E70A4B18680449FFF7FFFD094B09
:1058E00000201856FFF720FFD6E7C04654250020B9
:1058F0003E35002068250020983501103F350020F6
:10590000642500206B350020B435011070B504000B
:105910000D00084E084A3100FFF7B0FD3168074816
:10592000FFF749FE064B1C70064B1D70064B01220B
:105930001A7070BD642500206825002054250020C1
:105940006B3500203E3500203F35002070B5D14B2F
:1059500000221A809A70D04B1B78002B16D0CF4BA8
:105960001A6893789B06D90F002B06DA0023137070
:105970005370CA4B1B6800229A70C84B1B681A7878
:10598000587800021043FFF74BFF70BD01F02CFC6C
:10599000002826D0C14B19688A780124A2438A7056
:1059A00019688A78022082438A7019684A7810251B
:1059B000AA434A7019684A781035AA434A70196890
:1059C0000A78A2430A7019680A7882430A70196833
:1059D0000A78023082430A701A68137808218B43D0
:1059E0001370AC4B00229B5EAD4A12685178C90619
:1059F00000D527E1A94909684978C906C90FA9480E
:105A0000007B814009B20B43A2490B805178890683
:105A100000D519E1A149096849788906C90FA1484B
:105A2000407B814009B20B439A4C23809B49096813
:105A300088788007C00F4000A5780226B543284328
:105A4000A0708878C007C50FA078013EB0432843F6
:105A5000A0701078C00700D5F8E00878C007C00F24
:105A6000904C2478A04000B203438A480380107809
:105A7000800700D5ECE008788007C00F894C647877
:105A8000A04000B20343834803801078400700D54C
:105A9000E0E008784007C00F824CA478A04000B234
:105AA00003437C4803801078000700D5D4E00878D1
:105AB0000007C00F7B4CE478A04000B20343754858
:105AC00003801078C00600D5C8E00878C006C00F73
:105AD000744C2479A04000B203436E4803801078D0
