:020000041000EA
:1000000000B5324B212058609868022188439860DF
:10001000D860186158612E4B002199600221596106
:100020000121F02299502B49196001219960352056
:1000300000F044F80222904214D00621196600F024
:1000400034F8196E01211966002018661A6600F04E
:100050002CF8196E196E196E052000F02FF8012189
:100060000842F9D1002199601B49196000215960AB
:100070001A491B48016001219960EB211966A021F2
:10008000196600F012F800219960164914480160C1
:100090000121996001BC002800D000471248134993
:1000A000086003C880F30888084703B5996A0420EC
:1000B0000142FBD001200142F8D103BD02B5186610
:1000C0001866FFF7F2FF186E186E02BD00000240BE
:1000D000000000180000070000035F00212200005C
:1000E000F4000018222000A00001001008ED00E03C
:1000F00000000000000000000000000074B24E7A12
:1001000000200420F7010010C3010010C5010010F9
:10011000C1010010C1010010C1010010C101001097
:10012000C1010010C1010010C1010010C701001081
:10013000C1010010C1010010C9010010CB01001065
:10014000CD010010CD010010CD010010CD01001037
:10015000CD010010CD010010CD010010CD01001027
:10016000CD010010CD010010CD010010CD01001017
:10017000CD010010CD010010CD010010CD01001007
:10018000CD010010CD010010CD010010CD010010F7
:10019000CD010010CD010010CD010010CD010010E7
:1001A000CD010010CD010010CD010010CD010010D7
:1001B000CD010010CD010010CD010010CD010010C7
:1001C00000BE00BE00BE00BE00BE00BEEFF3058054
:1001D000103800BEF2EB8871804E0110AC4E011059
:1001E0003402001090A31AE700201F49086006C8D7
:1001F00081F3088810471D48006800282FD10DA4FE
:100200000ECC002902D000F012F8F9E71849194A7B
:10021000002000E001C19142FCD1174988471749ED
:1002200088471749884700BEFDE701C901C29A42C5
:10023000FBD37047AC4E0110C0000020C815002051
:10024000B46301100000042000000420B463011016
:10025000001004200010042000000000704709482E
:100260000CF000F80047000008ED00E0000000D0AE
:10027000E8150020D4310020EDAF0010A9070010D0
:10028000A9AF00105756000006005250ABB36053A0
:100290007044011006005250861C03028044011075
:1002A000060052505422A29D9C4401100500525059
:1002B000DE65F468B4630110F8B5C04610B5064CAD
:1002C0002378002B07D1054B002B02D0044800E017
:1002D00000BF0123237010BD98180020000000000B
:1002E000E01D0110044B10B5002B03D00349044856
:1002F00000E000BF10BDC046000000009C180020B8
:10030000E01D011070B500290AD001248440D025D9
:100310002D06AC620022002108F0D6FD6C6170BD94
:1003200001248440D0252D066C620022002108F0B3
:10033000CBFDAC61F3E770B500280ED0D0242406C5
:1003400080252D056561642009F020FF022363618B
:10035000642009F01BFFA56170BDD0242406802510
:100360002D056561642009F011FF0223A36164205B
:1003700009F00CFFA561EFE710B5002804D00121BA
:100380000E20FFF7BFFF10BD00210E20FFF7BAFFC0
:10039000F9E7000010B5002001F005FA0F2001F088
:1003A00002FA062001F0F0F9082001F0EDF90B2027
:1003B00001F0EAF90C2001F0E7F90D2001F0D4F981
:1003C0000A2001F0D1F9072001F0CEF9092001F04F
:1003D000CBF9184918480EF04BFE0121122008F005
:1003E0005BFD0121132008F057FD0121142008F0C6
:1003F00053FD102008F082FDD024240680235B02E8
:1004000063626361162008F079FD8023DB03636279
:100410006361112008F072FD80239B0263626361B7
:10042000152008F06BFD80239B036362636100F07D
:10043000DFFD10BDC0C62D0000C00340F8B5DE468C
:1004400057464E464546E0B50400D0263606802382
:100450009B019846B3610520002109F06BFE73688B
:10046000DB0A01252B405A42534101273B401B0127
:10047000227810218A431343237073681B0B2B408F
:100480005A4253413B405B01227820208243134370
:10049000237073689B092B405A4253413B409B0198
:1004A000227830318A431343237073681B0A2B4030
:1004B0005A425341DB0122783F310A4013432370F3
:1004C000434673618023DB009B46B3610520002116
:1004D00009F030FE73681B0B2B405A4253413B40DE
:1004E0009B002278042189468A4313432370736852
:1004F000DB0A2B405A4253413B40DB002278043157
:1005000088468A431343237073681B0A2B405A4260
:1005100053413B405B00227806398A468A431343A5
:10052000237073689B092B405A4253413B40227809
:10053000AA43134323705B46736180239B46B361D8
:100540000520002109F0F6FD73689B092B405A42F3
:1005500053413B401B01627810218A43134363706F
:1005600073681B0A2B405A4253413B405B00A27800
:10057000504682431343A37073681B0B2B405A42AF
:1005800053413B40A278AA431343A3707368DB0A2C
:100590002B405A4253413B405B0162781E308243FC
:1005A000134363705B4673618133FF339B46B361D2
:1005B0000520002109F0BEFD73681B0A2B405A423A
:1005C00053413B409B00627848468243134363702B
:1005D00073681B0B2B405A4253413B406278AA433D
:1005E0001343637073689B092B405A4253413B404D
:1005F0005B00627850468243134363707368DB0A82
:100600002B405A4253413B40DB00627840468243D4
:10061000134363705B46736173682B405A425341C6
:10062000DB01627877300240134363707368DB0B41
:100630002B405A4253413B409B0162783F388243F2
:100640001343637073689B081D406B425D413D40DE
:10065000AD00A3784A4693431D43A57062783F23BB
:10066000100098430300C03B59424B411F40FF001C
:10067000EBB2404683431F43A770D206D20F12014C
:10068000FBB210218B431A43A270F0BCBB46B246AA
:10069000A946A046F8BD0000F0B5D6464F464646EE
:1006A000C0B584B0040003AF3B4B1A883A800023E6
:1006B000BB7002AE3280B37001AD2A80AB70694668
:1006C0000A808B70D0231B06984680235B029946D4
:1006D00043464A469A61314B9A4603233A00D02159
:1006E000504611F0DDFA43464A465A619A610323A7
:1006F0003200F021504611F0D3FA43464A465A617F
:100700008023DB03994643464A469A6103236A469F
:10071000F021504611F0C4FA43464A465A619A61A4
:1007200003232A00D021504611F0BAFA43464A4624
:100730005A613B785B027A785200E02109010B4054
:100740001343BA78D2091343236032785202737884
:100750005B000A401A43B378DB091A4362602A78C7
:1007600052026B785B000A401A43AB78DB091A43EC
:10077000A2606B461B785B026A46527852000B40BF
:1007800013436A469278D2091343E36004B0E0BC95
:10079000BA46B146A846F0BDF41D011000C00340A2
:1007A00010B500F03AFB10BD10B584B00DF03CFC64
:1007B000642009F0EBFC35480DF0FAFBFFF7EAFD89
:1007C0000E2008F09BFB0020FFF7D6FD1B2008F051
:1007D00095FBD024240680231B056362A3610120BE
:1007E00008F08CFB02236362A361022008F086FB01
:1007F0000423A36200220121022008F065FB0C22E1
:10080000002101A80DF098FA01A8FFF717FE204B70
:100810009B886A46138063685B0703D401AB5B78EF
:10082000DB070ED401AB5B785B0704D5D0231B0636
:100830005B685B070CD5684600F098FE002004B0AA
:1008400010BD14480BF00EFD03000021080098476E
:1008500002236A4613700120FFF78EFD0120FFF787
:100860006AFD0D4809F092FC07E0002200210020FB
:100870000AF05EFB962009F089FC01AC2000FFF72E
:10088000DDFD6378DB07F0D4F4E7C046E01D01101E
:10089000F41D011055420000AC0D000010B5011C04
:1008A00005480DF030F805490DF02DF8FE218905B9
:1008B0000DF01FF810BDC046286BEE4C00401C46E2
:1008C000F8B5041C0E1C0021301C0DF063F8002844
:1008D0005FD13F49201C0DF07BF8002800D03C4C34
:1008E0003C49201C0DF05EF8002800D0394C3A49F4
:1008F000201C0CF0FEFF394B1C68FFF7CFFF071CD4
:100900000DF0C4F8C5B228000DF06CF8011C381CBD
:100910000CF0EFFF8321C9050DF00BF80DF0B6F8D0
:10092000C0B22D010543A3001B199B002C4A94461D
:1009300063445D602B4A1A61301C0DF0AFF82A4AFF
:100940002A4B0BF09DFF002800D0294E2949301C6E
:100950000CF0EFFF0DF09AF880B2A3001B199B007A
:10096000254A944663441A6850400004000C8022D3
:10097000520113431860194B19688B005B189B00D8
:1009800017498C4663441868012181431343196059
:10099000F8BD1248026893009B189B00164A9446C3
:1009A00063441968154A4A401204120C8021490117
:1009B0000B431A60026893009B189B00084A9446F8
:1009C00063441868012202400B431A60E0E7C04606
:1009D0000080A24400002042000020414831002055
:1009E0000000054010270000333333333333C33F57
:1009F0009A99193E00409C450C0005408813000060
:100A000010B5C168034B19608068034B1860FFF78D
:100A100057FF10BD3C1C0020401C0020F0B595B0D5
:100A2000192008F06BFAD0231B06802292045A6228
:100A30009A61642009F0AAFB13AA7D4B13807D4CB8
:100A40000025009502235A2120000EF003FD0A2004
:100A500009F09CFB12AA784B1380009502235A21BF
:100A600020000EF0F7FC0A2009F090FB11AA734B4E
:100A70001380009502235A2120000EF0EBFC0A207F
:100A800009F084FB10AA6E4B1380009502235A21B3
:100A900020000EF0DFFC0A2009F078FB0FAA694B5A
:100AA0001380009502235A2120000EF0D3FC0A2067
:100AB00009F06CFB0EAA644B1380009502235A21A7
:100AC00020000EF0C7FC0A2009F060FB0DAA5F4B66
:100AD0001380009502235A2120000EF0BBFC0A204F
:100AE00009F054FB0CAA86235B00138000950B3B96
:100AF000FF3B5A2120000EF0ADFC9620800009F04B
:100B000045FB534B1A780BAB1A70524B1A780AAB51
:100B10001A70002602E00A2009F038FB002E15D1D9
:100B2000444D012300930BAA5A2128000EF092FC99
:100B30000AAC00230093013322005A2128000EF052
:100B4000B4FC2378DB07E6D40126E4E709AA414B8D
:100B50001B7813706846202140180370354C01271C
:100B6000009701233A3120000EF074FC0025009517
:100B7000012308AA5A2120000EF097FC6A46D57777
:100B800095771D266E44357007AA334B1B7813707A
:100B9000009701235A2120000EF05CFC00950123F0
:100BA0001F226A445A2120000EF07FFC06AA2B4B1C
:100BB0001B781370009701235A2120000EF04AFC85
:100BC000009501231E226A445A2120000EF06DFC7C
:100BD00005AA234B1B781370009701235A2120008C
:100BE0000EF038FC0095012332005A2120000EF04F
:100BF0005CFC327803231340337004A96A46D27F29
:100C00000A706A46927F4A708B706A462023D31816
:100C10001B78CB70042007F09BF803AA114B1380BC
:100C2000009502235A2120000EF014FC15B0F0BDEF
:100C300001070000581500201603000017170000D8
:100C40001ABEFFFF1CFDFFFF1E2000001F0C00004E
:100C5000FC1D0110C0280110001E0110041E01100F
:100C6000081E01100103000070B58EB05A4B1B78AE
:100C7000002B01D00EB070BD574B01221A70192005
:100C800008F03CF9D0231B06802292045A625A6174
:100C9000182008F033F90421182008F0FDF84F4B14
:100CA00004221A604E4BFA22D2005A6500268BE0CD
:100CB00002AA4C4B13804C4C0025009502235A216C
:100CC00020000EF0C7FB0A2009F060FA03AA474B88
:100CD0001380009502235A2120000EF0BBFB0A204E
:100CE00009F054FA04AA424B1380009502235A21BA
:100CF00020000EF0AFFB0A2009F048FA05AA3D4B90
:100D00001380009502235A2120000EF0A3FB0A2035
:100D100009F03CFA06AA384B1380009502235A21A9
:100D200020000EF097FB0A2009F030FA07AA334B97
:100D30001380009502235A2120000EF08BFB0A201D
:100D400009F024FA08AA2E4B1380009502235A2199
:100D500020000EF07FFB0A2009F018FA09AA294B9F
:100D60001380009502235A2120000EF073FB0A2005
:100D700009F00CFA0AAA182313800095163B5A2191
:100D800020000EF067FB0BAA192313800095173B78
:100D90005A2120000EF05EFB0CAA1B4B138000951D
:100DA00002235A2120000EF055FB0DAA174B138089
:100DB000009502235A2120000EF04CFBD0231B0685
:100DC000802292049A610136012E00D870E700203B
:100DD000011CFFF775FD4DE7CF31002048310020A1
:100DE00000000540160300005815002017170000EA
:100DF0001ABEFFFF1BABFFFF1CFDFFFF1DD3FFFF54
:100E00001E2000001F0C0000221F00000103000034
:100E100010B5FFF703FE012010BD7047090208431B
:100E200000B2704770B582B0D02424068025AD0290
:100E3000A5616B46187159710B4E022201A9300051
:100E400010F07EFF6561022009F0A0F98025AD0356
:100E5000A561022201A9300010F072FF6561022035
:100E600009F094F902B070BD00C00340F0B5DE4651
:100E700057464E464546E0B585B006000D0001AC2C
:100E8000002301930822002102A80CF055FF032340
:100E90006B449A46A22352461370D0231B069846F1
:100EA0008027BF029F61514B99460122514618008D
:100EB00010F046FF0C2322000021484610F0F0FEFF
:100EC00043465F6161782078FFF7A8FF80B2404217
:100ED00083B2FF273840B0711B0AF371E178A07824
:100EE000FFF79CFF83B2384030721B0A737261793E
:100EF0002079FFF793FF83B23840B0721B0AF37278
:100F0000E179A079FFF78AFF80B2404283B238408E
:100F100030701B0A7370617A207AFFF77FFF83B20B
:100F20003840B0701B0AF370E17AA07AFFF776FFC1
:100F300083B2384030711B0A737180239B039B4638
:100F400043465A469A6101225146484610F0F8FE3F
:100F50000C2322000021484610F0A2FE43465A46C8
:100F60005A6161782078FFF759FF83B23840A87141
:100F70001B0AEB71E178A078FFF750FF80B2404286
:100F800083B2384028721B0A6B7261792079FFF7AF
:100F900045FF83B23840A8721B0AEB72E179A07951
:100FA000FFF73CFF83B2384028701B0A6B70617AF0
:100FB000207AFFF733FF80B2404283B23840A870F6
:100FC0001B0AEB70E17AA07AFFF728FF83B2384062
:100FD00028711B0A6B71012333732B7305B0F0BCAE
:100FE000BB46B246A946A046F0BDC04600C003407D
:100FF00010B58C211020FFF715FF8C211120FFF771
:1010000011FF04211220FFF70DFF06211320FFF727
:1010100009FF06211520FFF705FFE0211720FFF744
:1010200001FF10BDF0B5C64600B5040004282DD060
:1010300005282FD0032803D0002080BCB846F0BD7F
:10104000052704239846200007F058FF01263300A7
:10105000A340D0252D06AB6200220121200007F01D
:1010600033FF404607F04AFF3300424693406B622D
:10107000AB61380007F042FF3300BB406B62AB61ED
:101080006B68E3401E4209D00120D6E70527032301
:101090009846D8E7032704239846D4E70020CCE7F6
:1010A00010B50320FFF7BEFF10BD10B50520FFF7F8
:1010B000B9FF10BD10B50420FFF7B4FF10BD10B587
:1010C00001210E20FFF71EF99620800009F05EF83E
:1010D00007F05EFB002800D110BD0120FCE710B531
:1010E00001F092FB10BD0000F0B5C64600B584B01B
:1010F000142339E001330B2B05D801AAD25C002A56
:10110000F8D00125F6E7182009F040F8304BDB68ED
:101110005B07FBD5D02636068027BF03B7612C4B73
:10112000984601226B46D91C404610F009FE0C235C
:1011300001AA0021404610F0B3FD77610C283ED192
:101140000023002100E001330B2B05D801AAD25C5B
:10115000002AF8D00121F6E7002901D0002D31D175
:10116000182009F013F823005C1E002B29D000235F
:1011700001930822002102A80CF0DEFD6B46A2229A
:10118000DA70134BDB685B07FBD5D0252D06802674
:10119000B602AE610E4F01226B46D91C380010F02A
:1011A000CFFD0C2301AA0021380010F079FD6E61FB
:1011B0000C2802D1002300259DE7002502E0002530
:1011C00000E00025280004B080BCB846F0BDC04651
:1011D00000C0034070B584B003A9494B1A880A8047
:1011E00000238B7002A90A808B7001A90A808B7082
:1011F00069460A808B700A242300013C002B74D0BE
:10120000D0231B06802252029A613E4BDB685B07AB
:10121000FBD5032303AAD0213A4810F041FD03284F
:1012200066D1D0231B06802252025A619A61354B47
:10123000DB685B07FBD5032302AAF021314810F0DD
:101240002FFD032856D1D0231B06802252025A615B
:101250008022D2039A612B4BDB685B07FBD503230B
:101260006A46F021274810F01BFD032844D1D02303
:101270001B068022D2035A619A61224BDB685B070E
:10128000FBD5032301AAD0211E4810F009FD032835
:1012900034D1D0231B068022D2035A6100230020C0
:1012A00000260025002100E00133022B14D803AAF8
:1012B000D25C002A00D0012101AAD25C002A00D011
:1012C000012602AAD25C002A00D001256A46D25C1F
:1012D000002AE9D00120E7E700298DD0002D8BD02E
:1012E000002E89D0002887D000E0002004B070BD17
:1012F0000020FBE70020F9E70020F7E70020F5E7F2
:101300000C1E011000C0034010B5FFF781FD10BD99
:101310000120704770B582B0FFF75CFF01AC012679
:1013200001252840030120781022904318432070A3
:10133000FFF7D5FEC30122787F20104018432070AC
:10134000FFF7BDFE284083012078402290431843D8
:101350002070FFF7AFFE28408300207804229043DE
:1013600018432070FFF79CFE03002B402078B04309
:1013700018432070FFF799FE28404300207802228E
:10138000904318432070FFF7C3FF2840C300207824
:101390000822904318432070FFF7A6FE284043011F
:1013A00020782022904318432070FFF7ADFF0540BE
:1013B0006078B04305436570208802B070BD0000BE
:1013C00010B5041C0348046041608260C360FFF7ED
:1013D00017FB10BD142F00207047000010B512E05D
:1013E0000C4B9A6A0C4B1A600C4810F061FC00F030
:1013F00007FB094C206804F0EFFE206803F090F82A
:101400002068FFF7CDF90649044810F081FC002858
:10141000E6D1ECE700400540501E00208815002072
:101420009C22002070470000014B00201856704796
:101430000812002010B5002803D1074B00221A70B3
:1014400010BD0120FEF777FF0120FEF795FF024B4C
:1014500001221A70F4E7C0469631002010B5002032
:10146000FEF78AFF0020FEF766FF00220021002021
:1014700009F05EFD10BD000010B5064B1B78002B77
:1014800000D010BD034B01221A70002001F0FAF8C1
:10149000F7E7C046BA31002010B5284B1B78002B67
:1014A0002CD02749274810F033FC00282ED126489D
:1014B000FEF7C4FF254B1B78002B2FD103F036FB22
:1014C000234C2068204904F013FF206801F064F9E0
:1014D00006F012FC002825D01D4C20681D4903F0A1
:1014E000E9FD206800221C4906F058FC1B4B1B78C4
:1014F0005BB2012B1DD009F0C9FC10BD00211848BA
:1015000009F00AFD0D4B01221A70CAE7154B9A6AC1
:101510000F4B1A600B4810F0CBFBC8E70A48FFF7E7
:1015200081FFCBE70A4B18680B4A0F4900F04AFBD2
:10153000DCE7074B186801F0E5FADCE7C231002070
:1015400098220020881500200019002096310020E4
:10155000501E0020C8180020E818002008120020A3
:101560004C1D0000004005401819002070B582B0E5
:10157000051E00D1D3E001F006FB0400FEF70AFFD0
:10158000684969480DF03AFF03211C2007F084FCEC
:1015900003211D2007F080FC6448FEF74FFF00F098
:1015A00083FA002833D0614E614B0193614B009365
:1015B0003300614A6149624804F01AFCB378DB06E3
:1015C0002BD4FFF751FB02F0B9F9E3B2012B2AD07B
:1015D000022B2DD001242C57631C30D00022AA5698
:1015E000584B1A70514B1B789A062CD45A063CD48F
:1015F000DA063CD45AB2002A3BDB5A073BD40A2213
:101600001A40022A39D01B071ED503241CE000F023
:1016100005F9C82008F0BAFDC5E7062200214A48AE
:101620000CF08AFBCDE7474B02221A700024D9E761
:1016300023041B0F434A13702405240FD2E7434BA6
:1016400002241C57CAE70624404ABA235B00D65C32
:101650003C4B1B785BB2013311D06425E3B2062BFF
:1016600040D8A3003A4AD3589F460124ECE700240F
:10167000EAE70224E8E70524E6E70424E4E701F0CA
:10168000D3F9002804D12F4B02221A704625E5E732
:10169000642001F079F92B4B01221A706425DDE7F3
:1016A0002C48322100F0DCFF2900300000F0FCFF64
:1016B000244B00215956200000F094FA1B4B9B78D4
:1016C0009B0727D41B4A1949200003F0D7F80CF0D8
:1016D000C5FF21480CF0B0FFFFF7DEFEFCE7FF205E
:1016E0000006DEE71D48DCE7FF200002D9E7154BC6
:1016F00000221A70FF2000041925D2E7114B0022A6
:101700001A7017480F25CCE70E4B00221A701548A7
:101710001925C6E70D4B9C7000F0C0F9D2E702B066
:1017200070BDC046400D0300581500200019002070
:101730000C19002018190020C8180020E8180020F3
:10174000D81800200812002014180020E8160020E5
:10175000101E011000F115FFDD13001000A1A1A162
:1017600000FF61000000FFE610B5040007F0C6FBB3
:1017700000220121200007F0A7FB0123A340D02273
:1017800012065362536110BD10B5040007F0B6FB9A
:1017900000220121200007F097FB0123A340D02263
:1017A0001206936210BD10B5040007F0A7FB0022DB
:1017B0000121200007F088FB0123A340D02212065C
:1017C000936210BD10B512480CF022FC002407E013
:1017D000104B5B18D97810480CF01AFC0134E4B2B5
:1017E000052C0DD80DF00EFA2100C0B2094A1219CD
:1017F000D070002CECD1130001229043D870E7E7A1
:10180000044B9B221A720A200CF09EFB10BDC046AE
:101810002C1E0110E81600203C1E0110F0B5DE461B
:1018200057464E464546E0B5EDB0D4256D002A003A
:10183000002102A80CF080FA634B02AA1380059BDA
:101840000193DB0FDB078022120113430593069BF4
:101850000193DB0FDB0713430693079B0193DB0F19
:10186000DB0713430793089B0193DB0FDB071A4346
:101870000892564F0A97564E0B96564C0C94564863
:101880000D9056490E91564A0F92564B109312974F
:10189000139614941590169117921893524B19930E
:1018A0001A931B931C931D931E931F9320932193B4
:1018B000802202A98B5004328B5004328B500432A8
:1018C0008B5004328B5004328B5004328B50FF23E8
:1018D0001B049946A8230A004946D150434B9B4616
:1018E000AC235946D150424B9846B0234146D15083
:1018F000FF273F060433D750FF2636020433D65065
:1019000004333C4A02A9CA503B4B9A46C0230A0002
:101910005146D15004334946D1500433D750043393
:10192000D65004334146D1500433D650A23B2A222C
:10193000FF3202A98B5401328B54C63AC9214900A7
:1019400002A8425202314352023142523532FF3232
:1019500001008352294C2A0020000CF0F3F90020EA
:1019600002F052FF012002F04FFF032002F04CFF73
:10197000042002F049FF052002F046FF20009C30C1
:10198000062200210CF0D8F92000A2300622002106
:101990000CF0D2F9FFF716FFBC235B004A46E25079
:1019A00004335A46E25004334246E2500433E750CF
:1019B0000433E65004335246E2506DB0F0BCBB46EF
:1019C000B246A946A046F0BD01A0FFFF0000344288
:1019D0000000B442000007430000344300006143AC
:1019E0000000874300809D43000016440000FF4D27
:1019F0000000FFE600F115FF00FF6100E81600207F
:101A000070B51D4CA5441D4B1B78002B03D18023C2
:101A10005B019D4470BD0CF039FEEFF3108672B689
:101A200000230093164A002101A80CF085F9D42266
:101A30005200144968460CF085F980256D01124C5E
:101A40002900200010F06CF92A006946200010F0EF
:101A50003FF986F310880CF023FE0C4B1B78002B0B
:101A600003D1064B00221A70D1E706F0FFF9074BAD
:101A700000221A70F5E7C04600F0FFFFB8310020E1
:101A8000FC0F0000E816002000D01200C331002037
:101A9000014B01221A707047C3310020014B012213
:101AA0001A707047B831002010B5154CD42252007E
:101AB000144920000CF046F92288134B9A4214D1A5
:101AC0000F4A95235B00D35C1A1C312B00D83222BD
:101AD0000B4B952149005A54DA782A39FF398A4349
:101AE000DA709B221A72012010BD08480CF060FACF
:101AF000FFF794FE0020FFF7D1FF0020F4E7C04677
:101B0000E816002000D0121001A00000441E0110B1
:101B100010B5031C642800D9642303492A22FF322C
:101B20008B54FFF7A1F810BDE816002010B502286D
:101B300017D008D800280DD001280FD10B4ACA238E
:101B40005B00D1520AE0032808D1084ACC235B008D
:101B5000D15203E0054AC9235B00D15203F0DAFDFC
:101B600010BD024ACB235B00D152F7E7E8160020F4
:101B700030B50F4C40004508E068C00FC00728434F
:101B8000E060490048082169C90FC9070143216184
:101B9000520051086269D20FD2070A4362615B00AA
:101BA0005A08A369DB0FDB071343A36130BDC046AE
:101BB000E8160020062800DD0020014B98707047D1
:101BC000E816002010B5034B1B68002B00D0984787
:101BD00010BDC046241C0020014B00201856704741
:101BE000A331002010B588B00400284B18700229DA
:101BF00010D00C22002105A80CF09EF81022002124
:101C000001A80CF099F8E3B2062B0BD8A400204BE6
:101C10001B599F461F4B204A1A6006F04BFE0028B6
:101C2000E7D005E01B4B1D4A1A60002001F05AF86E
:101C300008B010BD174B194A1A60062001F052F87F
:101C4000F6E7144B154A1A60012001F04BF8EFE754
:101C5000104B124A1A60022001F044F8E8E70D4BDD
:101C60000F4A1A6001AA05A90020FFF7ABFFDFE7C2
:101C7000084B0C4A1A6001AA05A90020FFF7A2FF31
:101C8000D6E7044B084A1A60D2E7C046A3310020C9
:101C90009C1E0110241C0020198B0010912D001097
:101CA000416C001081740010CD790010F0B5C6466B
:101CB00000B590B004000D0016001F0016AB1B7895
:101CC0009846494B984200D188E00721380007F038
:101CD000E3F8012300933A00290020000DF07EF87C
:101CE0001022002108A80CF027F880235B0208933B
:101CF000F8235B0209938023DB020A93C0231B03B2
:101D00000A93102208A904A80CF01CF8F31C059AE9
:101D1000039236491140F20111431B031943059107
:101D2000079B0393DB00DB08802292051343079394
:101D30002F4B19400591102204A90CA80CF002F8B1
:101D40000F9B03932B4A1A40BF0217430F9743463A
:101D5000002B45D020220E9B039327491940802356
:101D60009B020B435206F82189050A4013430E9348
:101D70009B009B088022D20513430E93052008F098
:101D8000E7FF1E490AF0C2FA0BF027FE80460BF06F
:101D90007DFE87B2002F25D038000BF01EFE011CFF
:101DA00040460BF0A6FD8721C9050BF0C2FD0BF0E4
:101DB0006DFEC0B200023F0407430C970CAB32002B
:101DC000290020000DF05CF822680123AB409A4303
:101DD0001343236010B080BCB846F0BD062175E700
:101DE0001822B8E70020E5E7000020507F00FEFF42
:101DF000FFFFFF9FFF83FFFFFFFFF5C10050C30000
:101E0000014B01221A707047B131002070B5174B99
:101E10001B78002B28D1164B00221A70134B01326D
:101E20001A700024132C1FD80CF0ECFE06210AF0C7
:101E30006DFA104B19550134E4B2F3E70D4D2B5DEB
:101E40005E339B000C4A9958A2000C4BD1500CF009
:101E5000D9FE06210AF05AFA29550134E4B2132CAE
:101E6000ECD9FFF7CDFF70BD0024F8E7B0310020BA
:101E70009D310020441C0020E8160020282100206D
:101E8000034B1980034B1860034B00221A707047F4
:101E90008A3100207C200020AE31002070B5050082
:101EA0000C0000880BF099FD1B490BF02CFD1B4921
:101EB0000BF03FFD0BF0EAFDC2B22B79A978C943C4
:101EC000C9B25943090A5B1ADBB23F2528402D1AD3
:101ED000EDB2584380096B439B11DBB20818C0B2C6
:101EE000CB18DBB23F2A10D9403AD2B23F2A06D8EB
:101EF0001A060B061B0A0002134318430AE00906E0
:101F000000041B020843184304E000061B040902F6
:101F100018430843206070BD00007F4300003F432A
:101F2000F8B5CE46474680B50400234B1D78002DFA
:101F300005D100230360C0BCB946B046F8BD642D8E
:101F4000F9D08778E678B81963789846C0180BF00E
:101F500049FD1A490BF0D7FC814628000BF03DFDE6
:101F600017490BF0D0FC051C011C48460BF020FD66
:101F70000028E0D14946281C0BF0C5FC051C3800A0
:101F80000BF02BFD291C0BF0D4FC0BF07FFDA07097
:101F900030000BF022FD291C0BF0CBFC0BF076FD82
:101FA000E07040460BF019FD291C0BF0C2FC0BF051
:101FB0006DFD6070BFE7C0462A12002000007F431D
:101FC0000000C842F0B5D6464F464646C0B50400AC
:101FD0000368002B35D083789846C778D81966787F
:101FE00080190BF0FFFC051C40460BF0F6FC804608
:101FF000291C0BF088FC824638000BF0EEFC071C15
:10200000291C0BF080FC814630000BF0E6FC061C1E
:10201000291C0BF078FC051C514640460BF089FC4E
:102020000BF034FDA0704946381C0BF082FC0BF01D
:102030002DFDE070291C301C0BF07BFC0BF026FD05
:102040006070E0BCBA46B146A846F0BD30B585B078
:102050001D4B1B78002B0FD10024132C09D80CF03A
:10206000D1FDFF210AF052F9184B19550134E4B2A1
:10207000F3E7154B01221A7000241FE0134D2B5D6E
:10208000134A1078C018FF210AF018F9C9B229556F
:1020900002A80180FF23438083800023019301A9CC
:1020A000FFF7FCFE01A8FFF73BFF0A48A300019AD7
:1020B0001A50C018FFF786FF0134E4B2132CDDD9A3
:1020C000FFF79EFE05B030BDB03100204420002057
:1020D0002B1200202821002000220AE0930006494C
:1020E0005958064B5B68DB03FBD4044B1961013282
:1020F000D2B2132AF2D9704780200020000020506D
:10210000F8B5DE4657464E464546E0B506000D009A
:10211000141C80780BF061FC8046F0780BF05DFCBD
:10212000071C70780BF059FC061CA8780BF055FCC6
:102130008346E8780BF051FC824668780BF04DFC42
:102140008146414658460BF0D4FB211C0BF0F1FBB5
:1021500041460BF0D3FB051C391C50460BF0C9FB64
:10216000211C0BF0E6FB391C0BF0C8FB071C311CD3
:1021700048460BF0BEFB211C0BF0DBFB311C0BF0C7
:10218000BDFB061C281C0BF081FCC5B2381C0BF0F3
:102190007DFCC4B2301C0BF079FCC0B22D040002EF
:1021A000240628432043F0BCBB46B246A946A046BD
:1021B000F8BD0000F8B5274B1D8828000BF012FC75
:1021C000011CFE2080050BF09EFB041C224B1B789B
:1021D000002B0BD05022214921480BF0B3FD0023E6
:1021E000204A13701C4A13701F4A13701D4B1E782F
:1021F000B54204D21C4B187800281ED0F8BD300020
:102200000BF0EBFB211C0BF094FB051C00240BE0F6
:10221000A7001649C9191248C0192A1CFFF770FFF8
:102220000E4BD8510134E4B2132CF1D901360D4BC9
:102230001E70FFF751FF0020E0E750220B490748CE
:102240000BF080FDFFF748FF074B01221A700120B9
:10225000D4E7C04688310020B13100208020002022
:10226000D82000202D1200202C1200202821002030
:10227000F0B5C64600B506000F00150098460024CC
:102280000AE0335D9B004246EA50305D800028182A
:10229000FFF798FE0134E4B2BC42F2D380BCB846EA
:1022A000F0BD0000031C642800D96423014A1370A8
:1022B0007047C0462A12002030B583B005000024C4
:1022C0000CE0019501A8FFF72BFE0648A300019A38
:1022D0001A50C018FFF776FE0134E4B2132CF0D97F
:1022E00003B030BD2821002010B509480388094AF1
:1022F00012789B18FF2213400380074C2100FFF740
:10230000CDFD2068FFF7D8FFFFF77AFD10BDC0466E
:10231000241200202B1200204020002010B50D4B6D
:102320001B78002B05D10C4B00221A70094B01328F
:102330001A70094C23785E339B00084A9858FFF7BF
:10234000BBFF20780130062109F0B8FF2170FFF7AC
:1023500057FD10BDB03100209D310020E81600204F
:1023600010B50F4B1B78002B10D10E4B1B68002BA8
:1023700002D10C4B0C4A1A600A4B1868FFF79CFFFD
:10238000FFF73EFD064B01221A7010BD0020FFF73B
:1023900093FFFFF735FD024B00221A70F5E7C046A8
:1023A000CB310020D02000200000FFE610B5164BF6
:1023B0001C78002C05D0154B1B78002B17D0200063
:1023C00010BD5022124913480BF0BCFC124B186888
:1023D000FFF772FFFFF714FD104B1A88104B1A809D
:1023E000094B01221A70094B00221A70E7E75022AC
:1023F00008490C480BF0A6FCFFF702FD034A1378CE
:10240000013313700024DAE7AE310020D031002010
:1024100080200020C42E0020D42000208A310020FB
:10242000883100202821002070B50E4B1C78002C2C
:1024300008D00D4B1D78002D11D0FFF70FF82C00A0
:10244000200070BD0020FFF737FFFFF7D9FC074BD6
:102450001A88074B1A80034B01221A70F0E700F02C
:102460003DFAEDE7AE310020B33100208A31002083
:102470008831002070B50C000A2803D88000224B58
:102480001B589F460126214D1FE00426204D1CE0CD
:102490000426204D19E001261F4D16E001261F4D90
:1024A00013E001261E4D10E001261E4D0DE0012611
:1024B0001D4D0AE001261D4D07E001261C4D04E0DC
:1024C00001261C4D01E00426104D002A12D02300E5
:1024D000194A31002800FFF7CBFE2300174A3100CC
:1024E0002800FFF7C5FE2300154A31002800FFF73A
:1024F000BFFE70BD2300114A31002800FFF7B8FE6F
:10250000FFF77EFCF5E7C046B81E0110341F01102E
:10251000281F0110201F01102C1F01101C1F01106B
:10252000241F0110301F01103C1F0110381F011023
:10253000141F0110181F0110D8200020282100208E
:102540008020002070B50C4B19682C220B480BF032
:10255000F9FB00240CE0A300084DED182800FFF75C
:10256000DFFC296800222000FFF784FF0134E4B279
:102570000A2CF0D970BDC046782100207C210020B3
:1025800010B5024B1860FFF7DDFF10BD7821002069
:1025900010B5074B1B78002B00D010BD0548FFF786
:1025A000EFFFFFF72DFC024B01221A70F5E7C04642
:1025B000B031002090170020234AC8235B00D35C71
:1025C000834209D0002B03D19133FF330521D1542D
:1025D0001D4AC8235B00D0541B4AC8235B00D25C51
:1025E0001A4B1A701A4B1978052903D88B00194910
:1025F000CB589F46184B15221A80174B1A88174B39
:102600001A807047144B15221A80F6E7124B1522D8
:102610001A80F2E7104B15221A80EEE79300D218C9
:10262000FA2A00D9FA22FF231A409A1A0A4B1A8072
:10263000E3E79300D218FA2A00D9FA22FF231A40BE
:102640009A1A054B1A80D8E7E81600202B120020B2
:10265000AF310020E41E01108C31002088310020B1
:1026600010B5054B18604908044C2000FFF708FC22
:10267000034B1C6010BDC046D4200020AD230010C9
:102680007C20002010B5054B1870054B00221A6005
:102690000A210448FFF7F4FB10BDC046B331002007
:1026A000782000202924001070B582B004000D00AD
:1026B000254B1B78002B0CD0244B1C700023244A84
:1026C0001370244A1370052C16D8A400224B1B59F2
:1026D0009F46224E224930000CF064FB020000238A
:1026E0000093173300213000FFF7E0FA164B012268
:1026F0001A70FFF7F1FCDFE71A4B1B4A1A601B4AFE
:10270000C8235B00D05CFFF757FF002D15DA02B03D
:1027100070BD144B164A1A60F1E7124B154A1A6045
:10272000EDE7104B144A1A60E9E70E4B134A1A60A2
:10273000E5E70C4B124A1A60E1E7FF2D00DDFF25AB
:10274000E8B2FFF7AFFDE2E7B2310020AF31002081
:10275000B0310020B4310020FC1E011000002050D8
:10276000401F01107820002091250010E81600205D
:10277000E92200104D200010612300101D230010DD
:102780000D1E001010B5034B186064210520FFF7E3
:102790008BFF10BDD020002010B5144A144900F062
:1027A000F7F9002800D110BDFFF704FD002803D180
:1027B000104B1B78002BF6D00F4B1B68002B0ED054
:1027C00098470028EFD000240B4B1C600B4AC8230D
:1027D0005B00D05CFFF7F0FE094B1C70E3E7094B90
:1027E0001B68002BDFD09847DDE7C046B42D0020E2
:1027F0001A410000B43100207C200020E81600209F
:10280000B03100207820002000B587B02C4B1B7819
:1028100005AA137004AA137007F088FD02000B1EAE
:102820002CDB2848002112184B41002B2CDB002BFD
:102830002EDB029203930123009305AA6A2122480A
:102840000CF014FE07F072FD02000B1E26DB1D4883
:10285000002112184B41002B26DB002B28DB0292B3
:10286000039300230093013304AA6A2116480CF055
:1028700028FE002822DD012007B000BD134B144ABA
:102880003F21144808F094FB01225242124BCEE73C
:102890000E4B0F4A3F210F4808F08AFB0B4B0C4AA6
:1028A0003F210C4808F084FB012252420A4BD4E736
:1028B000064B074A3F21074808F07AFB0020DBE778
:1028C000C02801101027000058150020501F0110CB
:1028D000D01F01106C1F0110FFFFFF7F10B586B0E5
:1028E0000020FDF749FD00241CE0204B204A3F2139
:1028F000204808F05DFB002B28DB029203930023A5
:102900000093023305AA6A211B480CF0AFFD0400B6
:10291000831C21D0431C22D0FA20800007F036FC13
:10292000FEF79CFD002C1DD105AB144A1A8007F060
:10293000FDFC02000B1ED8DB1148002112184B4190
:10294000002BD8DA012252420E4BD4E7074B084A3B
:102950003F21084808F02CFBFEF780FDDCE7FEF77E
:102960007DFDD9E7FEF77AFD06B010BD501F0110BE
:10297000D01F01106C1F01105815002009410000E4
:1029800010270000FFFFFF7F00B587B0232821D864
:10299000C0B20538C0B27F23184005AB04221A70BC
:1029A000587007F0C3FC02000B1E20DB1848002102
:1029B00012184B41002B20DB002B22DB02920393E9
:1029C00000230093023305AA6A2112480CF04EFD41
:1029D00007B000BDAF235B00984200D9180028382B
:1029E0000A2109F06BFCC0B21F30C0B2D3E70A4B1A
:1029F0000A4A3F210A4808F0DBFA01225242094BF9
:102A0000DAE7054B054A3F21054808F0D1FAC046F0
:102A10001027000058150020501F0110D01F011072
:102A20006C1F0110FFFFFF7F00B587B02E4B1B7896
:102A300005AA137004AA137007F078FC02000B1E9D
:102A400030DB2A48002112184B41002B30DB002BD1
:102A500032DB029203930123009305AA6A212448E2
:102A60000CF004FD07F062FC02000B1E2ADB1F487D
:102A7000002112184B41002B2ADB002B2CDB029289
:102A8000039300230093013304AA6A2118480CF031
:102A900018FD0230012825D904AB1878C007C00FF3
:102AA00007B000BD134B144A3F21144808F080FAC8
:102AB00001225242124BCAE70E4B0F4A3F210F48E8
:102AC00008F076FA0B4B0C4A3F210C4808F070FADC
:102AD000012252420A4BD0E7064B074A3F210748E2
:102AE00008F066FA0120DBE7C0280110102700007B
:102AF00058150020501F0110D01F01106C1F01102D
:102B0000FFFFFF7F10B5FA21074A090200F040F8E5
:102B1000002800D110BDFFF787FF044B1870002874
:102B2000F8D1FEF7A9FCF5E7F42D00209B31002039
:102B300010B500220021002008F0FAF9FEE700009D
:102B4000072804D88000024B9C466044016070470F
:102B50000C80054010B5072802D90024200010BDC4
:102B60008000044B9C466044046800210520FFF768
:102B7000E7FFF3E70C80054010B501000520FFF7E3
:102B8000DFFFFFF7D5FF10B50520FFF7E3FF10BD0E
:102B900010605368834205D9C31A013B8B4205D2AA
:102BA00000207047834204D2C31AF7E75060012027
:102BB000F7E70020F5E730B51860002A0BD15C6814
:102BC00084420BD9041B013C0025002D0BD1A142EE
:102BD00009D9100030BD58600020FBE7844205D2BF
:102BE000041B0025F1E758600120F3E71000F1E72E
:102BF00010B5FEF7F1FF022801D0024810BD0248CF
:102C0000FCE7C046E81F0110D820011010B50020D5
:102C10000DF0DAFF10BD000010B5102106480FF0CE
:102C200087F8002800D110BD044B01221A70024819
:102C30000FF03EF8F7E7C04690150020C0310020A5
:102C400010B5102106480FF073F8002800D110BD10
:102C5000044B00221A7002480FF02AF8F7E7C0462A
:102C600090150020C031002070B5050010210D48DE
:102C70000FF05EF8041E09D10B4B22000B4928000F
:102C8000FFF799FF051E08D1200070BD084B1C7886
:102C9000E4B204480FF00CF8EEE7FFF7BDFF2C009C
:102CA000F2E7C04690150020242F0020A0860100E6
:102CB000C0310020037801330370044B1B785BB2F2
:102CC000022B01D0024870470248FCE7EC120020BA
:102CD0001C22011054230110014B18607047C0469C
:102CE000C822002010B50400002001F013FC022CC3
:102CF0002BD0062C1CD0012C10D0012001F00AFC96
:102D00001748FFF7E9FF174B174A1A60174B184A85
:102D10001A60184B1C700EF063FB10BD0120FFF70A
:102D2000DBFF104B144A1A60104B144A1A60F0E78C
:102D3000012001F0EFFB1248FFF7CEFF094B114ACB
:102D40001A600A4B0A4A1A60E3E70120FFF7C4FF42
:102D5000044B0D4A1A60054B0C4A1A60D9E7C0466D
:102D6000141E0000C42200205D7B0010CC22002035
:102D70000D2C0010EC12002015860010E933001015
:102D8000DC050000C58C00100564001075380010CB
:102D900070B504000D0016000120002140420DF026
:102DA00087FA2000FFF760FF002809D1154B1B7838
:102DB000002B04D1144B1B689847124B187070BD40
:102DC000124B1968124A2000FFF7E2FE0028F6D0E5
:102DD000FFF736FF0B4B1B78002BF0D00D4B1B6819
:102DE00031002800984701246442002120000DF0A2
:102DF0005FFA002120000DF05BFA002120000DF0A9
:102E000057FADCE7C1310020CC220020C822002084
:102E1000BC2D0020C4220020084B1B785BB2022B83
:102E200007D0062B07D0012B01D005487047054875
:102E3000FCE70548FAE70548F8E7C046EC12002031
:102E4000C029011064220110402301109C3201109E
:102E5000084B1B785BB2022B07D0062B07D0012B47
:102E600001D0054870470548FCE70548FAE70548E2
:102E7000F8E7C046EC12002080290110342201102E
:102E800014230110703201100020704710B5134B4D
:102E90001B785BB2022B13D0062B18D0002B05D069
:102EA0000B78002B0FD1FFF7B7FE0CE00B78302B1F
:102EB00003D0212B01D0812B05D1FFF7ADFE02E01D
:102EC0000B78212B00D010BDFFF7A6FEFBE70B7897
:102ED000012BF8D1FFF7A0FEF5E7C046EC12002069
:102EE00070B504AC25882E4C247864B2012C2DD00A
:102EF000022C12D0002C00D070BD0029FCD1002A79
:102F0000FAD11878102804D02A00190001F052F8DC
:102F1000F2E7981C00F0D6FDEEE70029ECD1002A7C
:102F2000EAD11A78112A05D0132AE5D11D480BF0F1
:102F30006FF8E1E75B78002B06D01B490B1C1B4A9E
:102F40001B48FEF73DFAD7E70021F7E70029D3D168
:102F5000002AD1D11A78002ACED15A78082ACBD1AA
:102F6000DA78002A02D11979002911D01B79101CB6
:102F70009A4200D2181CC0B20AF02FFD0D490AF087
:102F8000C2FC011C031C094A0948FEF719FAB3E701
:102F90000020031C021C011CFEF712FAACE7C0461D
:102FA000EC1200209C2101106666263F00002042A2
:102FB0000000F04200007F43064B1B785BB2022BFF
:102FC00003D0062B03D1044870470448FCE70448AB
:102FD000FAE7C046EC120020B0320110A82201101E
:102FE000D429011070B5EE2824D0002825D0800007
:102FF0001E4BC55828000EF019FEC0B21F2800D97C
:103000001F20002327E05A1C194CA15C0902E25C36
:103010000A4344001749625202330130112BF2D99E
:10302000154A144B13CB13C211001A680A609B880F
:103030008B8019E000200023F0E70C4B1968022276
:103040000E480AF07FFE012007E05A1CEC5C51009C
:10305000094BCC52D3B29842F7D801304000C0237C
:103060009B001843044B1880034870BD10120020C9
:10307000E0210110B4180020601C0020621C002018
:1030800000B591B04022694600200EF02BF80020D8
:103090000EF03EF8064B1B785BB2002B01D011B04E
:1030A00000BD04480AF084FF684604F003FFF6E719
:1030B000EC120020B4210110F0B583B0050014001B
:1030C000012966D113785B069B0F012B58D0022B88
:1030D00003D0002B01D000205CE06378022B24D0C9
:1030E000072B03D0012B19D0002053E022796379FC
:1030F0001B021343042B03D0052B08D0002049E00A
:103100002433264A210028000DF0F6F942E08D33E1
:10311000234A210028000DF0EFF93BE02723214A44
:10312000210028000DF0E8F934E0227963791B02D0
:103130001343072B30D11C4B1B785BB2022B0FD0F3
:103140006B469F1D194E0222310038000AF0FAFD2D
:103150003B883200083A210028000DF0CDF919E033
:103160006B469F1D124E0222310038000AF0EAFD24
:103170003B883200083A210028000DF0BDF909E033
:1031800051780C480AF044FF210028000DF098F90E
:1031900000E0012003B0F0BD0020FBE7C4120020D6
:1031A00030120020F4210110EC1200202C2001101C
:1031B00004210110CC210110012815D0022907D0CB
:1031C00000290BD1022A29D0002A29D006207047D5
:1031D000022A1FD0002A1FD00800F8E7022A21D0B7
:1031E000002A21D00820F2E7022907D000290BD1BC
:1031F000022A1FD0002A1FD00720E8E7022A15D094
:10320000002A15D00320E2E7022AE0D0002A15D0D8
:103210000020DCE70120DAE70320D8E70720D6E723
:103220000520D4E70020D2E70420D0E71000CEE745
:103230000420CCE70820CAE70620C8E70520C6E737
:103240000120704710B58422002102480AF074FD65
:1032500010BDC046EC26002010B50020FFF7F2FF9D
:1032600010BD0000F0B5C64600B580460D008B7954
:103270005D2B24D10B79DF00FF1ABFB21937BFB223
:10328000974221D80C780C19002605E0104A53709B
:103290000136F6B22378E4182B79B34210D963785B
:1032A000052BF7D1210040460CF030FD00280DD051
:1032B000A378DA09012AE9D0054A9370E8E70027E4
:1032C000380080BCB846F0BD0027F9E70027F7E7D3
:1032D000EC26002030B583B00400144840788842C2
:1032E00006D0124A92788A420CD0012003B030BD39
:1032F0000F4A002A18D09AB20E490020FFF7C6FDE7
:103300000120F3E70C4D9BB200932B00002200211B
:103310000020FFF7E5FD2B00443B997840232A006D
:1033200020000CF067FDE1E70120DFE7EC2600203C
:103330008D2E0010F02600203027002010B50CF054
:1033400049FC002803D10023002B08D110BD0CF04C
:1033500049FC002801D10123F6E70023F4E70B4BD9
:10336000997800200CF082FD0028EFD1074CA1785D
:103370000CF018FD22004432A178402300200CF00C
:1033800039FDA17800200CF021FDDFE7EC260020BC
:1033900070B505000C000CF025FC002806D1812139
:1033A00000200CF0FFFC002803D170BD0CF022FCC3
:1033B000F5E7231C402C00D940239CB2094E220083
:1033C000290030000AF0BEFC351F69782300320066
:1033D00000200CF00FFD697800200CF0F7FCFFF7DF
:1033E000ADFFE2E7F026002010B5104B5C780CF042
:1033F000F1FB002806D10023002B13D0002C09D1AB
:10340000002010E00CF0EEFB002801D10123F3E7CF
:103410000023F1E7210000200CF028FD002803D153
:10342000013000E0002010BD0020FCE7EC26002069
:1034300010B53C22002102480AF07EFC10BDC046B7
:10344000FC1C002010B50020FFF7F2FF10BD0000AB
:10345000F0B583B006000F001500FEF7BDFB022893
:103460004CD13B79DC00E41AA4B21234A4B2AC42D1
:1034700048D80023002B09D00025002D44D03978EE
:1034800079184B78212B11D0002438E01A01D21A78
:1034900092001F4882185278002A02D00133DBB212
:1034A000E8E71A01D11A89004518E6E7A9630B7805
:1034B000C9183A796B1C0193AB1C009303233000AD
:1034C0000CF03EFC002821D0BB79012B13D0012346
:1034D0002B71BB782B70AA6BD179137A1B020B432B
:1034E000EB80A97800290AD02A0030320623300068
:1034F0000CF080FC03E0FB79EB70E8E7002420008F
:1035000003B0F0BD0024FAE70024F8E70024F6E752
:10351000FC1C002070B582B005001D4C0020002866
:103520000AD0002830D162788A4213D0A2788A4229
:103530001AD0012002B070BD0401241AA400144A5C
:103540001419A2788A42ECD062788A42E9D001301C
:10355000C0B2E4E70F4A002A18D0210008319AB21D
:10356000FFF794FC0120E5E7260030369BB200937C
:10357000330000220021FFF7B3FCA17806233200BC
:1035800028000CF037FCD5E70020D3E70120D1E775
:10359000FC1C00208D2E0010F0B5C64600B582B090
:1035A0000600150012781F231340012B00D01FE1E5
:1035B00028790024002C0DD0FF24002C00D01CE121
:1035C0002700602318001040134239D101290BD085
:1035D00001200EE123011B1B9B008E4FDB5D9842F7
:1035E000EBD00134E4B2E5E7EA786B78062B06D03D
:1035F000062B00D005E1222A12D00020F9E0212A72
:10360000F6D123011F1BBF00824BDF19BA6B002AC2
:1036100000D1F4E01378290030000CF06DFFE8E0F1
:103620002000FFF7C9FC02003B01DF1BBF00794B04
:10363000DF19FB88290030000CF05EFF0120D8E084
:10364000202800D0DFE06B780B2B00D9DDE09B0059
:10365000714AD3589F46012901D00120C9E0EA7878
:10366000A97823011B1B9B0008336A4FFF18A87918
:10367000EB791B020343181C252B00D9252080B2AF
:10368000002909D0012B16D97B1C9C4639700138C2
:1036900080B20123984602E0BC4600239846009081
:1036A00063462000FFF7F0FB030043449BB2002B6E
:1036B00005D100209DE0BC4600239846EFE73A0084
:1036C000290030000CF018FF012092E0012903D0FE
:1036D000032915D001208CE0AA79EB791B02134352
:1036E000062B01D9002084E02201121B9200303207
:1036F00048498A18290030000CF0FEFE012078E0CD
:10370000EA78A97823011B1B9B0030334148C3187A
:10371000AE79E87900023043051C062800D9062559
:10372000ADB2002904D0012802D91878884205D00A
:1037300000952000FFF7D4FB01205AE00133013D42
:10374000ADB2F5E7012901D0012052E0E97823016B
:103750001F1BBF002F4BDF197971304B002B04D09A
:10376000200000E000BF002843D0290030000CF00A
:10377000A7FE01203DE0012901D0012039E022010E
:10378000171BBF00234AD21905320123290030003C
:103790000CF0B2FE01202CE0012901D0012028E02C
:1037A0002201171BBF001B4AD21904320123290032
:1037B00030000CF0A1FE01201BE0012903D00329F9
:1037C00007D0012015E0290030000CF079FE01201F
:1037D0000FE0A97823011F1BBF000E4BDF193971C1
:1037E0000F4B002B13D0200000E000BF012000E0B1
:1037F000002002B080BCB846F0BD0020F9E70020F0
:10380000F7E70020F5E70020F3E70020F1E70120CB
:10381000EFE7C046FC1C00207822011000000000E9
:103820000000000010B50301181A8000104B181892
:1038300044780CF0CFF9002806D10023002B13D0D8
:10384000002C09D1002010E00CF0CCF9002801D1A7
:103850000123F3E70023F1E7210000200CF006FB31
:10386000002803D1013000E0002010BD0020FCE75B
:10387000FC1C002010B50020FFF7D4FF10BD000095
:10388000F8B504000F0016001D0003011B1A9B0071
:103890001F4AD318597800200CF084FA002825D04C
:1038A000002F24D02B1C242D00D924239DB2184A8C
:1038B0002301191B890051180F721B1B9B00083331
:1038C000D01801302A0031000AF03CFA0135ADB2BF
:1038D0000F4B2001021B920008329A18001B800037
:1038E000181841782B0000200CF084FAF8BD2B1C2E
:1038F000252D00D925239DB22001001B8000083012
:10390000034B18182A0031000AF01CFAE0E7C04601
:10391000FC1C002010B513000A0001000020FFF776
:10392000AFFF10BD107003120F20184050700B0134
:1039300018435070091191707047000070B5124D16
:10394000802424012A0021002000FFF7EBFFEA1C5D
:1039500021002000FFF7E6FFAA1D21002000FFF74D
:10396000E1FF2A00093221002000FFF7DBFF2A00D7
:103970000C3221002000FFF7D5FF2A000F32210072
:103980002000FFF7CFFF70BD5C31002010B5402252
:10399000002102480AF0D0F910BDC04608220020DC
:1039A000014B18707047C046BC310020014B1873A2
:1039B0007047C04608220020014B58737047C0462C
:1039C00008220020074A0021535E1078064908703B
:1039D000023399B21BB21380FF2B01DDFF39118036
:1039E0007047C0469031002008220020024B1A7810
:1039F000024B5A707047C0469024011008220020E4
:103A0000054B03229A734821D9731A74013A5A74E8
:103A1000473919765A7670470822002010B5C4B28B
:103A2000000A002307E019000E31044A5454013102
:103A300050540233DBB20D2BF5D910BD0822002003
:103A400010B503007F2800D97F2080B2002B08D05A
:103A500009F0C3FF044909F06CFF044909F04EFF67
:103A600010BD0248FCE7C046BA6693400000204201
:103A700010B503007F2800D97F2080B2002B08D02A
:103A800009F0ABFF044909F054FF044909F036FF7F
:103A900010BD0248FCE7C046C56613410000A042C5
:103AA00010B503007F2800D97F2080B2002B05D0FD
:103AB00009F093FF024909F026FF10BD0020FCE742
:103AC0000000FE42F8B5CE46474680B5C27893095D
:103AD00009D0012B49D0022B43D14278120203783E
:103AE00013439B053DD00478E3075AD563089946F4
:103AF0004378DA007821114088468278D200082580
:103B000015405B091D43ED002F4E0027002443782C
:103B1000DB0601D50023984683789B0700D5002556
:103B20000021381C09F036FF002803D04846FFF773
:103B30009FFF071C0021301C09F02CFF002803D038
:103B40002000FFF77DFF061C4046FFF7A9FF041C7D
:103B50002800FFF7A5FF031C321C211C381CFDF7B1
:103B60002FFCC0BCB946B046F8BD81780C0246783F
:103B7000330023431B05F4D003789807F1D17F2449
:103B80000C4052007E252A40CD091543F101FF2249
:103B90000A409B081A439146730898460026371C32
:103BA000BEE764084378DA007821114088468278BD
:103BB000D200082515405B091D43ED000026034F88
:103BC00000239946A3E7C046000020430000A0431D
:103BD0000A4B01221A7000225A7003329A70084A66
:103BE000117AD970D1791971917959715179997185
:103BF0001179D971D2781A727047C0460822002014
:103C0000E816002010B50400FFF7C0FE8120FFF782
:103C1000C7FE012C09D0064B1C70064B19784023B7
:103C2000034A00200CF0F8FF10BDFFF7D1FFF4E7C6
:103C300008220020BC31002070B586B06C462A4BAB
:103C40000433220070CB70C270CB70C2022837D010
:103C5000032841D00023002500E00133052B10D8B4
:103C6000224AD2182D32FF3214780522D21A885CEB
:103C70008442F2D01D4AD2182D32FF321070012535
:103C8000EBE7002D19D18120FFF790FE18480123A2
:103C90008373164B1A7AC273DA7902749A79427472
:103CA0005A7982741A79C274DB7803751530182238
:103CB00069460AF047F806B070BDFDF7EFFEE2E78F
:103CC0008120FFF773FE0A48022383730F3010220E
:103CD00008490AF037F8EEE78120FFF767FE044B4A
:103CE00003229A73E7E7C04690240110E8160020EB
:103CF000082200208822002070B504000E00150064
:103D0000FFF744FE2120FFF74BFEFFF75BFEFFF7B6
:103D10006DFE2000FFF750FE482C48D8A4002E4B23
:103D20001B599F468020FFF741FE00234BE0F07AAD
:103D3000431E9841C0B200F0EDFB8020FFF736FE35
:103D4000F3E731000C31F07AFFF776FFEDE78020E2
:103D5000FFF72CFEF27A214B1A70E6E78220FFF77C
:103D600025FEFFF74DFEE0E78020FFF71FFEDCE7B2
:103D70009020FFF71BFEF27BF17A307B00F0FCF91C
:103D8000D3E7FEF7ABFDD0E78020FFF70FFECCE7CF
:103D90008320FFF70BFE6420FFF740FEC5E780207D
:103DA000FFF704FEC1E78020FFF700FEBDE7002318
:103DB000AB4202D201339BB2FAE78020FFF7F6FD57
:103DC000B3E70133DBB21F2BFBD94023044A212187
:103DD00000200CF021FF70BD6C230110F0120020B8
:103DE0000822002070B50C00150010280DD0802886
:103DF0000FD0012800D070BD881CFFF763FEA07AA9
:103E00002A002100FFF778FFF5E7881CFFF75AFE2C
:103E1000F1E74878FFF7F6FEEDE70000094B1B7865
:103E20000A2B07D00B2B09D0064B0A221A70054B20
:103E300018787047034B0B221A70F8E7014B0C22DD
:103E40001A70F4E7F112002070B50500524B1B7890
:103E5000002B04D1514B1B78302B0BD070BD504B35
:103E60001A88504B18785049FFF7BCFF4A4B002284
:103E70001A70F3E7FFF78AFD3020FFF791FDFFF797
:103E8000A1FDFFF7B3FD00F0EBF98378474C2373F6
:103E9000C37863730378A3734378E373037923745C
:103EA00043796374037AA374437AE3748379237543
:103EB000C3796375837AA375C37AE37500F0D0F98B
:103EC00083782376C37863760378A3764378E376A2
:103ED0000379237743796377037AA377437AE37788
:103EE00082792023E254C2790133E254827A013389
:103EF000E254C27A0133E25400F0B2F9827824230A
:103F0000E254C2780133E25402780133E254427839
:103F10000133E25402790133E25442790133E2542D
:103F2000027A0133E254427A0133E2548279013356
:103F3000E254C2790133E254827A0133E254C27A04
:103F40000133E2542B78A3706B78E370AB78237164
:103F5000EB7863712B790F210B40A3716879AB79F2
:103F60001B0203431B11E371EB7923722B7A194077
:103F70006172697AAB7A1B020B431B11A372FFF7C4
:103F80004DFFE0720A4B19784023220000200CF00C
:103F900043FE01F0F7FE61E7BD310020F012002082
:103FA000EE120020BE31002048220020082200200E
:103FB000BC31002010B5054B01241C70044B187057
:103FC000044B1A80044809F0BDFE10BDBD3100202D
:103FD000BE310020EE1200204822002010B5024B16
:103FE000181809F0AFFE10BD08220020502800D19B
:103FF000B0E003D960282FD0FF2010E0402800D97E
:10400000AAE0202805D34B2924D88B00564AD35840
:104010009F46002803D0102800D09FE00020704762
:104020009520FCE70020FAE72A39504B59182D312A
:10403000FF310878F3E704394C4B59182D31FF3123
:104040000878ECE70020EAE70020E8E76820E6E7E8
:104050000020E4E70020E2E7A92979D88B00444A50
:10406000D3589F46FF20DAE70220D8E70120D6E7A1
:104070002320D4E70020D2E7B920D0E71A20CEE7EA
:104080000120CCE70020CAE74020C8E70020C6E7AF
:104090004020C4E70020C2E74020C0E70120BEE77F
:1040A0000020BCE70120BAE70020B8E70120B6E70E
:1040B0000020B4E73B20B2E73420B0E73B20AEE776
:1040C0003420ACE73B20AAE73420A8E73D39294B50
:1040D000585CA4E73D39274B585CA0E71A209EE7BF
:1040E0001A209CE71A209AE75E2098E7012096E7BD
:1040F000502094E7FD2092E7002090E700208EE713
:10410000C6208CE70F208AE70F2088E7302086E75B
:10411000612084E7AE2082E7902080E7D9207EE707
:10412000D4207CE714207AE7542078E7412076E712
:10413000152074E7542072E7C72070E779206EE7F6
:104140009C206CE733206AE7362068E7632066E747
:10415000002064E7002062E7FF2060E7FF205EE7C1
:1041600022205CE703205AE7AC240110E816002067
:10417000DC2501105C310020F0B58BB006000F008B
:10418000150008A90F70487000248C70CC700A715B
:1041900005220E20FFF722FF00941A22002101A819
:1041A00009F0CAFD07E03919C9B23000FFF71EFF58
:1041B0006B4618550134A542F5DC2A0069461320E8
:1041C000FFF70CFF0BB0F0BDF8B504002049214803
:1041D0000DF09EFD0028F9D01F4D2B68581C0321BF
:1041E00008F06CF82778627812021C4E48004018DC
:1041F00083005B183A43F254120AF3185A70A078FD
:10420000E278120202439A70120ADA702079627917
:10421000120202431A71120A5A71A079E27912024B
:1042200002439A71120ADA71207A627A1202024308
:104230001A72120A5A72A07AE27A120202439A722F
:10424000120ADA72296003480DF032FDF8BDC0464B
:10425000B41E002098150020B01E0020881E0020EB
:1042600010B5094909480DF053FD0028F9D0084B55
:104270001C6806480DF01CFD600000198000001944
:10428000044B181810BDC046B81E00209815002019
:10429000B01E0020881E00204118CB0F5B185B1059
:1042A00080225202914204DA044A914203DB18B29E
:1042B00070470348FCE70348FAE7C046FFFFFEFFEC
:1042C000FF7F00000080FFFF70B52848FEF75AFA14
:1042D000274D06220021280009F02EFDA81D0622E8
:1042E000002109F029FD234B01221A70224BFA22EA
:1042F00092011A60214B00221A70214E214C31008C
:104300002000FCF7B3FD0023E25E9C3D9C23EA54B1
:104310000223E25E9D23EA540423E25E9E23EA54D4
:104320000623E25E9F23EA540823E25EA023EA54B8
:104330000A23E25EA123EA540023F25EA223EA5498
:104340000223F25EA323EA540423F25EA423EA5478
:104350000623F25EA523EA540823F25EA623EA545C
:104360000A23F25EA723EA5470BDC0460000FFFF97
:1043700084170020A5310020841E0020A6310020D3
:10438000741E0020541E002010B5084ABA235B009A
:10439000D05C01214942FEF787F9FDF779FBFDF773
:1043A0007DFB034B00221A7010BDC046E8160020AA
:1043B000A5310020F8B552495248FCF757FD524B41
:1043C0001B78002B00D160E0504C9C254D4E002303
:1043D000F15E6057FFF760FF605501350223F15E23
:1043E0006057FFF759FF605501350423F15E6057B0
:1043F000FFF752FF605501350623F15E6057FFF766
:104400004BFF605501350823F15E6057FFF744FF0D
:10441000605501350A23F15E6057FFF73DFF605597
:10442000A227374D0023E95EE057FFF735FFE0553F
:1044300001370223E95EE057FFF72EFFE055013711
:104440000423E95EE057FFF727FFE0550137062315
:10445000E95EE057FFF720FFE05501370823E95EEA
:10446000E057FFF719FFE05501370A23E95EE057EF
:10447000FFF712FFE055002333732B73244A1368B0
:10448000013B1360002B37D0F8BD1E4A0023D05EDD
:104490001E4B9C2158540221505E9D2158540421EA
:1044A000505E9E2158540621505E9F215854082189
:1044B000505EA02158540A21515EA1229954104AFD
:1044C0000021505EA22158540221505EA32158546D
:1044D0000421505EA42158540621505EA521585451
:1044E0000821505EA62158540A21515EA7229954F2
:1044F000054BA63A1A70C7E7FFF746FFC4E7C04668
:10450000741E0020541E0020A6310020E816002052
:10451000841E0020014B18707047C046A731002050
:10452000F8B5474B1B78002B04D1464B1B78002B6A
:1045300003D1F8BDFFF73EFFFBE7FA21424A8900AD
:10454000FEF726FB0028F4D0404C21004048FCF741
:104550008DFC237B002B03D03D4B1B7B002B09D113
:104560003B4B1B7B002B67D10023394A1373374A1F
:104570001373DEE7364F3888364C9C23E3569BB2E4
:10458000C01A324E3188A223E3569BB2C91A09B22F
:1045900000B2FFF781FE304D288078889D23E356D6
:1045A0009BB2C01A7188A323E3569BB2C91A09B201
:1045B00000B2FFF771FE6880B8889E23E3569BB275
:1045C000C01AB188A423E3569BB2C91A09B200B23B
:1045D000FFF762FEA880F8889F23E3569BB2C01ABB
:1045E000F188A523E3569BB2C91A09B200B2FFF7BE
:1045F00053FEE8803889A023E3569BB2C01A318964
:10460000A623E3569BB2C91A09B200B2FFF744FED3
:1046100028817889A123E3569BB2C01A7189A72308
:10462000E3569BB2C91A09B200B2FFF735FE6881A2
:104630002800FFF7C9FD97E70548FFF7C5FD93E799
:10464000A5310020A7310020C42D0020741E0020B9
:10465000541E0020E8160020641E002004281ED0EE
:104660000CDC012816D000280FDD0238C0B201286A
:104670000BD80D4B0B60083313600AE0052804D1FA
:104680000A4B0B600833136003E0094B0B600833DF
:1046900013607047074B0B6008331360F9E7064B54
:1046A0000B6008331360F4E7E017002000180020C7
:1046B000C0170020D0170020F017002030B50F22BF
:1046C0000D780F231D40047894432C4304704C78DC
:1046D0001C40250104781C402C4304708D781D403B
:1046E000447894432C434470CC781C402501447892
:1046F0001C402C4344700D791D40847894432C4316
:1047000084704C791C40250184781C402C438470B3
:104710008D791D40C47894432C43C470CC791C40DF
:104720002501C4781C402C43C4700D7A1D400479C7
:1047300094432C4304714C7A1C40250104791C409D
:104740002C4304718D7A1D40447994432C43447169
:10475000CC7A1C40250144791C402C4344710D7BCC
:104760001D40847994432C4384714C7B1C4025016B
:1047700084791C402C4384718D7B1D40C479944303
:1047800022002A43C271CA7B1A401201C1790B4030
:104790001343C37130BD0B781B071B0F03700B78DD
:1047A0001B0943704B781B071B0F83704B781B0949
:1047B000C3708B781B071B0F03718B781B09437128
:1047C000CB781B071B0F8371CB781B09C3710B7947
:1047D0001B071B0F03720B791B0943724B791B07D5
:1047E0001B0F83724B791B09C3728B791B071B0F3D
:1047F00003738B791B094373CB791B071B0F8373DF
:10480000CB791B09C373704770B50400144D154A6A
:104810002900FFF723FF2B68134A116852681960BB
:104820005A60042C12D0052C15D0032C09D00D4B46
:104830001B6800221A800A4B19680C48FFF7ABFF6F
:1048400070BD084B1B680A4A1A80F4E7054B1B68C9
:10485000084A1A80EFE7034B1B68074A1A80EAE709
:1048600074200020C0220020C828011058200020F9
:1048700000E1FFFF00C0FFFF00CAFFFF10B50E4BB5
:1048800019600E4B1A600E4B18700E4C0E4A210028
:10489000FFF7E4FE21680D4C2000FFF77CFFE37A70
:1048A0000B3B5A1E93410A4A1370637A093B5A1E06
:1048B0009341084A137010BD841900208819002004
:1048C000AD31002074200020C0220020582000209C
:1048D000AC310020A8310020024A94235B00D05460
:1048E0007047C046E816002010B5044B00221A702D
:1048F000034B19680348FFF74EFF10BD98310020A5
:10490000742000205820002070B590B00500384C6D
:10491000384E22003100FFF7A1FE31683648FFF71C
:104920003AFFFFF7E1FF002300933C22002101A89A
:1049300009F002FAA6236A461370557033681A7894
:104940001207120F69468A701A781209CA705A78CB
:104950001207120F0A715A7812094A719A781207CF
:10496000120F8A719A781209CA71DA781207120F37
:104970000A72DA7812094A721A791207120F8A72C9
:104980001A791209CA725A791207120F0A735A79E0
:1049900012094A739A791207120F8A739A791209C7
:1049A000CA73DA791207120F0A74DB791B094B7488
:1049B000226813881B0A8B741388CB740F4B9422C4
:1049C00052009A5C0A75952252009B5C4B75FA2046
:1049D000000103F09DF9002801D110B070BD002046
:1049E0000CF0C6FB4022694600200CF0A3FBF4E764
:1049F000B4220020B0220020A0220020E8160020CF
:104A000070B50A0000210F2937D803000B41DB07DE
:104A100014D40131C9B2F6E70133DBB20F2B0FD842
:104A20002A4AD05C2A4A12789042F5D1294A146861
:104A300001209840228802432280EDE70023EDE721
:104A4000224C234803786354224B1D6801228A407C
:104A50002B8893432B8002781F4809F0D9FA1F4B0B
:104A600000221A701E4B18682100FFF727FE1D4B0D
:104A700000201856FFF748FF70BD002AFCD0002424
:104A800001E00134E4B20F2C14D8104B1A5D104B26
:104A90001B789A42F5D12100134809F0B9FA0D4B61
:104AA00019680122A2400B8813430B800B4B002294
:104AB0001A70E6E70A4B18680449FFF7FFFD094B37
:104AC00000201856FFF720FFD6E7C046A02200209E
:104AD00097310020B4220020842801109831002052
:104AE000B0220020BF310020A028011070B50400C2
:104AF0000D00084E084A3100FFF7B0FD3168074845
:104B0000FFF749FE064B1C70064B1D70064B012239
:104B10001A7070BDB0220020B4220020A022002014
:104B2000BF310020973100209831002070B5D04B64
:104B300000221A809A70CF4B1B78002B13D0CE4BDB
:104B40001A6893789B07D90F002B03DA9378022019
:104B500083439370C84B1B681A785878000210433F
:104B6000FFF74EFF70BD01F047FC002826D0C24B76
:104B700019688A780124A2438A7019688A78022009
:104B800082438A7019684A781025AA434A701968C6
:104B90004A781035AA434A7019680A78A2430A7005
:104BA00019680A7882430A7019680A7802308243C9
:104BB0000A701A68137808218B431370AC4B0022DB
:104BC0009B5EAE4A12685178C90600D527E1AA4912
:104BD00009684978C906C90FA948007B814009B214
:104BE0000B43A3490B805178890600D519E1A249EE
:104BF000096849788906C90FA148407B814009B2FC
:104C00000B439B4C23809C49096888788007C00F20
:104C10004000A5780226B5432843A0708878C007D5
:104C2000C50FA078013EB0432843A0701078C0079C
:104C300000D5F8E00878C007C00F914C2478A04058
:104C400000B203438A4803801078800700D5ECE067
:104C500008788007C00F8A4C6478A04000B20343F4
:104C6000834803801078400700D5E0E008784007CB
:104C7000C00F834CA478A04000B203437C4803805B
:104C80001078000700D5D4E008780007C00F7C4CEE
:104C9000E478A04000B20343754803801078C00652
:104CA00000D5C8E00878C006C00F754C2479A04034
:104CB00000B203436E4803801078800600D5BCE044
:104CC00008788006C00F6E4C6479A04000B20343A0
:104CD000674803801078400600D5B0E008784006A9
:104CE000C00F674CA479A04000B203436048038022
:104CF0001078C00900D0A4E00878C009604CE479BD
:104D0000A04000B203435A4803805078C00700D542
:104D100099E04878C007C00F594C247AA04000B2EF
:104D20000343534803805078400700D58DE048780E
:104D30004007C00F524CA47AA04000B203434C4835
:104D400003805078800700D581E048788007C00F45
:104D50004B4C647AA04000B2034398B2444C20808C
:104D6000800576D54748424DEC1CE870050A657011
:104D70000025A570000EE070507880076BD448784D
:104D80008007C00F3E4C647AA04000B2034338480D
:104D900003805078000760D448780007C00F384C73
:104DA000E47AA04000B2034398B2314C2080000561
:104DB00055D534482E4DEC1DE871050A6570002567
:104DC000A570000EE070507800074AD448780007BC
:104DD000C00F2B4CE47AA04000B203432448038068
:104DE000507840063FD448784006C00F244CA47B3E
:104DF000A04000B203431E4803805278D20934D148
:104E00004A78D2091E49C97B8A4012B21849134315
:104E10000B801D4B18680C2208F094FFA2E60021BD
:104E2000DEE60021ECE600200BE7002017E700207B
:104E300023E700202FE700203BE7002047E7002082
:104E400053E700205EE700206AE7002076E70020B5
:104E500082E7002087E7002098E70020A3E70020F2
:104E6000A8E70020B9E70020C4E70022CEE7C0464B
:104E7000682000209831002084190020C0220020E2
:104E800058200020FF0F00008819002010B5054CA5
:104E9000A4466044624442430819634458431018CE
:104EA000C00F10BD00F8FFFF70B50C0008F09AFDB0
:104EB0008A21C90508F01DFD051C200008F092FD9F
:104EC0008A21C90508F015FD041C291C281C08F0BE
:104ED00030FD051C211C201C08F02BFD011C281C8A
:104EE00008F00CFD08F0E4FD70BD10B5031C081CB3
:104EF0000124191C08F05CFD002800D10024E0B258
:104F000010BD10B504001300406800280CDB0A0037
:104F1000A168FFF7BBFF002800D110BD01235B4251
:104F20006360A3600120F8E70020F6E7F0B5D646FD
:104F30004F464646C0B506000D0091469846089C6F
:104F4000FFF7B2FF071C3F4908F03AFD002822D0C6
:104F50006660A5602323A3812A0031002000FFF7AB
:104F6000D0FF002820D00C22A35E002B1CDD0023E4
:104F7000A3730122227663762374E37380252D01C7
:104F80002E0027604B461E6043461D60E0BCBA46BB
:104F9000B146A846F0BD0C22A35E002B02D09BB206
:104FA000013B1BB2A381D7E7237E002B32D0237CA9
:104FB0000133DBB29A462374391C2068FFF795FF52
:104FC000002811D00123A373E37B0133E37353461D
:104FD0001D2B05D81C49381C08F0F2FC002806D00F
:104FE000002323766376CCE70023E373EFE7E37BCC
:104FF000022B1FD90023A373237601336376534614
:105000000433A3746660A5602323A38180252D014A
:105010002E00B6E7637E002BB3D0A37C013BDBB24E
:10502000A374002B0AD1A3732376637680252D0108
:105030002E00A6E780252D012E00A2E780252D0158
:105040002E009EE70080D4440040E74430B583B092
:105050000D001400131D094A0092220049682868B7
:10506000FFF764FF23000C3322000832E968A868C8
:10507000034C0094FFF75AFF03B030BD1C2E0020F4
:105080009C2E002010B50011084A1378991C084C7A
:1050900060540133DBB213703D2B01D8002010BDEA
:1050A000130000221A700120F9E7C046A431002045
:1050B000B821002010B50C00FA213D4A8900FDF707
:1050C00067FD00281DD03B4B1B78002B12D13A4BBB
:1050D0001B78002B60D123680B3BFF3B374A934280
:1050E0002BD9374B1C60344B01221A70354B0022F0
:1050F0001A7006E0324B1B681868FFF7C3FF0028E0
:1051000000D110BD304BA5221A702E4A12785A7069
:10511000FA20000102F0FCFD002805D10023254AF9
:105120001370254A1370ECE74022274900200CF049
:1051300001F800200CF01CF8F0E763680B3BFF3B24
:105140001E4A934208D904341D4B1C6001231A4A9D
:1051500013701C4A1370D4E7A3680B3BFF3B174A3C
:10516000934209D90834164B1C60134B01221A7064
:10517000144B01321A70C4E7E3680B3BFF3B0F4A44
:105180009342BED90C340E4B1C600B4B01221A709B
:105190000C4B02321A70B4E7094B1B681B680B3BBF
:1051A000FF3B064A9342ACD8024B01221A70A8E793
:1051B000042E00209A310020A2310020EB0D0000C7
:1051C0003C300020B9310020B821002070B5041C0B
:1051D0000D000B78002B0AD0CE68011C301C08F0A3
:1051E000EFFB002804D06868211C08F0A2FB70BD0A
:1051F000311C201C08F07DFBA96808F09AFB0249CD
:1052000008F07CFBF3E7C0460000B44170B508F03D
:1052100070FB4000400808F041FC04000D00020053
:105220000B000020054907F0B8FA02000B0020002F
:1052300029000CF095FD07F0A5FB70BD00807640BD
:1052400070B5061C0C1C151C111C201C08F0B0FBB2
:1052500000280FD0311C201C08F0AAFB002807D022
:10526000311C281C08F0ACFB002802D0012000E013
:10527000002070BD311C201C08F09AFB002807D1CB
:10528000311C281C08F09CFB002803D00120F0E70B
:105290000120EEE70020ECE7F8B5071C0E00002423
:1052A000002503E0002206E00134E4B2072C0DD80B
:1052B000062CF7D8621CA3009200B258F158381C93
:1052C000FFF7BEFF0028EFD02500EDE72800F8BD6E
:1052D00010B508F0E3FB0022104B07F091FC07F03B
:1052E00051FB041C002108F05DFB00280FD1201C9D
:1052F00008F0D4FB00220A4B07F061FA07F006FB26
:10530000C217520F801807231840801A10BD054994
:10531000201C08F0F3FA041CE9E7C0460080764040
:10532000008046400000B44310B508F0E7FA041CC2
:105330000B4908F04DFB002806D00949201C08F055
:10534000D8FA041C201C10BD0021201C08F02AFBE8
:105350000028F7D00249201C08F0D0FA041CF1E71D
:105360000000B44370B5CD1A801A08F03BFB041C52
:10537000280008F037FB211C08F0ACFB114908F0AD
:10538000D8FA08F08BFB104A104B07F018FA07F018
:10539000F9FA041C002108F005FB00280BD10C4988
:1053A000201C08F00DFB00280AD00949201C08F039
:1053B000A0FA041C04E00649201C08F09FFA041C13
:1053C000201C70BD00003443182D4454FB210940BB
:1053D0000000B443F8B50C0017001E0008F002FBF3
:1053E000051C380008F0FEFA011C281C08F081FAA0
:1053F000051C200008F0F6FA041C300008F0F2FA50
:10540000011C201C08F075FA041C291C281C08F03B
:1054100090FA051C211C201C08F08BFA011C281C8A
:1054200008F06CFA08F044FBF8BD0000F8B50F0076
:10543000160008F033FB0B4A0B4B07F0DEF907F0C0
:10544000A1FA08F02BFB04000D0007F0B1FA07F0F9
:1054500099FA38602000290007F0C0FA07F092FAA4
:105460003060F8BD399D52A246DF913FF0B5DE466F
:1054700057464E464546E0B583B080468B461500FC
:105480001F001100FFF708FF040006285CDC461C23
:10549000A3009946EB589A46B600A959181CFFF785
:1054A000B5FE051C51464046FFF7B0FE8046291C5C
:1054B00008F029FA051C4B46FB589A46011CFE20B1
:1054C000800508F016FA011C504608F032FA8246B0
:1054D000B859291C08F02DFA011C504608F00EFAA4
:1054E000051C0C9B4A469858414608F022FA031CBA
:1054F00022010D9989180D98825C002A03D0181C8E
:10550000FFF764FE031CA400304AA058191CFFF7E3
:105510000BFF0026019600966A4601A9FFF786FF59
:105520005946281C08F005FA041C311C08F03AFA08
:1055300000280BD18A21C905201C08F049FA00284F
:1055400005D08A24E40502E00026A1E700240199A1
:10555000201C08F0EEF9051C0190211C009808F0B1
:10556000E8F900908A21C905281C08F0C7F908F05D
:1055700039FB08F059FA002823DB80235B019842AD
:1055800000DB134808F02EFA0E9B18608A21C9052B
:10559000009808F0B3F908F025FB08F045FA002858
:1055A00011DB80235B01984200DB094808F01AFAFE
:1055B0000F9B186003B0F0BCBB46B246A946A0469C
:1055C000F0BD0020E0E70020F2E7C046D02801103F
:1055D000FF0F0000F8B507000E00002409E0A50049
:1055E000795975198A20C00508F08DF928600134B1
:1055F000E4B2072CF3D9F8BDF8B505000E0000247D
:105600000DE00023A7009B00E958E859FFF7FEFDD5
:10561000011C064808F077F9F0510134E4B2072C78
:1056200003D8062CEDD8631CECE7F8BD000034422B
:10563000F0B5C64600B580460F00002419E02601EB
:10564000BE19012333702868164908F057F9051C64
:10565000F060011C134808F056F97060291C1248CC
:1056600008F047F9011C0F4808F04DF9B06001340B
:10567000E4B2072C12D8A50045440021286808F0A0
:1056800089F90028DBD02301FB1800221A70054A93
:10569000DA60FE2292055A609A60E8E780BCB8465C
:1056A000F0BDC0460000B441000034420A4AD3684D
:1056B0005B005B1009490B6053695B005B10084994
:1056C0000B6013695B005B1006490B6093695B001C
:1056D0005B10054A13607047E8160020F82100208F
:1056E00000220020FC2100200422002010B5054BE0
:1056F0001B68054A12680549096805480068FCF7F7
:1057000037FA10BD0422002000220020FC210020D6
:10571000F821002010B5104C10492000FFF76CFF55
:10572000200020300E49FFF767FF200040300D4970
:10573000FFF750FF200060300B49FFF74BFF2000C0
:105740001930FF300949FFF773FF20003930FF306F
:105750000749FFF76DFF10BD04170020F412002069
:10576000341300201413002054130020FC1E0020CA
:10577000C01F002010B50E4B00221A800D4C2032A5
:105780000021200008F0D8FA20002030202200213B
:1057900008F0D2FA200040382022002108F0CCFA8C
:1057A000200020382022002108F0C6FA10BDC04693
:1057B0008E31002044170020F0B5DE4657464E4695
:1057C0004546E0B583B004005F4B9B465F4B9A466D
:1057D0005B461B685246126841680068FFF7C2FDCD
:1057E000071C5B4B99465B4D1B682A68E168A06803
:1057F000FFF7B8FD80460190574E311C0097381CCA
:10580000FFF792FD071C311C4046FFF78DFD061C7B
:10581000381CFFF75DFD0700301CFFF759FD06003F
:105820005B461B685246126861682068FFF7D2FD2C
:1058300082464B461B682A68E168A068FFF7CAFDEC
:105840008046009808F02AF90022444B07F0D8F966
:1058500007F098F8041CFE21890508F0A3F8002839
:1058600005D13F49201C08F0B3F8002822D03A00A7
:10587000163292003B4B9B185868514608F092F83C
:10588000002817D03849504608F0A2F8002811D057
:10589000344A3B0016339B00D31851465960BB1D58
:1058A0009B00D218009B53600122BA402F490B88FD
:1058B00013430B80019808F0F1F80022274B07F002
:1058C0009FF907F05FF8041CFE21890508F06AF8CB
:1058D000002805D12249201C08F07AF8002824D09D
:1058E00032001E3292001F4B9B185868414608F048
:1058F00059F8002819D01C49404608F069F80028DA
:1059000013D0184A33001E339B00D3184146596008
:1059100033000E339B00D218019B536008360122DE
:10592000B24012490B8813430B80104B1888104B60
:105930009C46604443425841C0B203B0F0BCBB46F1
:10594000B246A946A046F0BDFC210020F821002067
:1059500004220020002200200000B44100804640C4
:1059600000003042E81600200000FA428E3100208C
:105970000100FFFF064B02681A60064B42681A607E
:10598000054B82681A60C268044B1A607047C046B3
:10599000F8210020FC210020002200200422002009
:1059A000F0B5DE4600B584B0040000910192224BB0
:1059B0009B46224F1B683A6841680068FFF7D2FC9B
:1059C00002901F4E1F4D33682A68E168A068FFF7F8
:1059D000C9FC03905B461B683A6861682068FFF762
:1059E000F9FC071C33682A68E168A068FFF7F2FC3D
:1059F000041C1549381C07F0EBFF002809D1124997
:105A0000201C07F0E5FF00280CD104B080BCBB4689
:105A1000F0BD0298FFF75CFC0023009A1370019B15
:105A20001870F2E70398FFF753FC0123009A1370F4
:105A3000019B1870E9E7C046FC210020F8210020F6
:105A400004220020002200200000FA42F0B5DE46C9
:105A500057464E464546E0B585B004000091019298
:105A6000294B9A46294D1B682A6841680068FFF750
:105A700079FC8146264E274F33683A68E168A06872
:105A8000FFF770FC8046244B9B46191C4846FFF7E5
:105A90004BFC029059464046FFF746FC03905346A4
:105AA0001B682A6861682068FFF794FC051C33684E
:105AB0003A68E168A068FFF78DFC041C1749281CB0
:105AC00007F086FF00280CD11449201C07F080FF46
:105AD00000280FD105B0F0BCBB46B246A946A0468F
