:020000041000EA
:1000000000B5324B212058609868022188439860DF
:10001000D860186158612E4B002199600221596106
:100020000121F02299502B49196001219960352056
:1000300000F044F80222904214D00621196600F024
:1000400034F8196E01211966002018661A6600F04E
:100050002CF8196E196E196E052000F02FF8012189
:100060000842F9D1002199601B49196000215960AB
:100070001A491B48016001219960EB211966A021F2
:10008000196600F012F800219960164914480160C1
:100090000121996001BC002800D000471248134993
:1000A000086003C880F30888084703B5996A0420EC
:1000B0000142FBD001200142F8D103BD02B5186610
:1000C0001866FFF7F2FF186E186E02BD00000240BE
:1000D000000000180000070000035F00212200005C
:1000E000F4000018222000A00001001008ED00E03C
:1000F00000000000000000000000000074B24E7A12
:1001000000200420F7010010C3010010C5010010F9
:10011000C1010010C1010010C1010010C101001097
:10012000C1010010C1010010C1010010C701001081
:10013000C1010010C1010010C9010010CB01001065
:10014000CD010010CD010010CD010010CD01001037
:10015000CD010010CD010010CD010010CD01001027
:10016000CD010010CD010010CD010010CD01001017
:10017000CD010010CD010010CD010010CD01001007
:10018000CD010010CD010010CD010010CD010010F7
:10019000CD010010CD010010CD010010CD010010E7
:1001A000CD010010CD010010CD010010CD010010D7
:1001B000CD010010CD010010CD010010CD010010C7
:1001C00000BE00BE00BE00BE00BE00BEEFF3058054
:1001D000103800BEF2EB8871C0560110EC560110C9
:1001E0003402001090A31AE700201F49086006C8D7
:1001F00081F3088810471D48006800282FD10DA4FE
:100200000ECC002902D000F012F8F9E71849194A7B
:10021000002000E001C19142FCD1174988471749ED
:1002200088471749884700BEFDE701C901C29A42C5
:10023000FBD37047EC560110C0000020A816002028
:10024000D46C01100000042000000420D46C0110C4
:10025000001004200010042000000000704709482E
:100260000CF044FC0047000008ED00E0000000D066
:10027000C81600209833002075B800100D08001033
:1002800031B800105756000006005250ABB360530F
:10029000B04C011006005250861C0302C04C0110E5
:1002A000060052505422A29DDC4C01100500525011
:1002B000DE65F468D46C0110F8B5C04610B5064C84
:1002C0002378002B07D1054B002B02D0044800E017
:1002D00000BF0123237010BDC819002000000000DA
:1002E00060260110044B10B5002B03D003490448CD
:1002F00000E000BF10BDC04600000000CC19002087
:100300006026011070B500290AD001248440D02550
:100310002D06AC620022002109F01AFA6C6170BD52
:1003200001248440D0252D066C620022002109F0B2
:100330000FFAAC61F3E7000010B504004378DB0767
:1003400013D463781022110019401A4203D0124BC3
:100350001B78002B0FD0002903D10F4B1B78002BEB
:1003600011D196200AF056FB10BD0022002100207A
:100370000BF022FAE5E7084B0F3A1A7000210E2025
:10038000FFF7C0FFEDE701310E20FFF7BBFF024B87
:1003900000221A70E5E7C0468A33002070B50028B5
:1003A0000ED0D024240680252D05656164200AF036
:1003B00031FB0223636164200AF02CFBA56170BD50
:1003C000D024240680252D05656164200AF022FBD7
:1003D0000223A36164200AF01DFBA561EFE710B5BD
:1003E000002804D001210E20FFF78CFF10BD002152
:1003F0000E20FFF787FFF9E710B5002001F0A1F804
:100400000F2001F09EF8062001F08CF8082001F082
:1004100089F80B2001F086F80C2001F083F80D20FC
:1004200001F070F80A2001F06DF8072001F06AF879
:10043000092001F067F8184918480FF05DFA01210A
:10044000122009F06DF90121132009F069F9012149
:10045000142009F065F9102009F094F9D02424063D
:1004600080235B0263626361162009F08BF98023AD
:10047000DB0363626361112009F084F980239B022E
:1004800063626361152009F07DF980239B03636239
:10049000636100F079FC10BDC0C62D0000C00340B0
:1004A000F8B5DE4657464E464546E0B50400D02630
:1004B000360680239B019846B361052000210AF08F
:1004C0007DFA7368DB0A01252B405A42534101270C
:1004D0003B401B01227810218A4313432370736829
:1004E0001B0B2B405A4253413B405B01227820209A
:1004F00082431343237073689B092B405A42534134
:100500003B409B01227830318A4313432370736848
:100510001B0A2B405A425341DB0122783F310A40EB
:1005200013432370434673618023DB009B46B36112
:10053000052000210AF042FA73681B0B2B405A4237
:1005400053413B409B002278042189468A43134350
:1005500023707368DB0A2B405A4253413B40DB0057
:100560002278043188468A431343237073681B0A38
:100570002B405A4253413B405B00227806398A4661
:100580008A431343237073689B092B405A4253419B
:100590003B402278AA43134323705B467361802358
:1005A0009B46B361052000210AF008FA73689B0995
:1005B0002B405A4253413B401B01627810218A4331
:1005C0001343637073681B0A2B405A4253413B40EC
:1005D0005B00A278504682431343A37073681B0BE1
:1005E0002B405A4253413B40A278AA431343A37085
:1005F0007368DB0A2B405A4253413B405B016278EF
:100600001E308243134363705B4673618133FF3353
:100610009B46B361052000210AF0D0F973681B0ADC
:100620002B405A4253413B409B00627848468243EC
:100630001343637073681B0B2B405A4253413B407A
:100640006278AA431343637073689B092B405A4234
:1006500053413B405B0062785046824313436370D2
:100660007368DB0A2B405A4253413B40DB006278FF
:1006700040468243134363705B46736173682B404B
:100680005A425341DB016278773002401343637072
:100690007368DB0B2B405A4253413B409B0162780D
:1006A0003F3882431343637073689B081D406B425D
:1006B0005D413D40AD00A3784A4693431D43A5707C
:1006C00062783F23100098430300C03B59424B41DE
:1006D0001F40FF00EBB2404683431F43A770D20682
:1006E000D20F1201FBB210218B431A43A270F0BC4F
:1006F000BB46B246A946A046F8BD0000F0B5D646B6
:100700004F464646C0B584B0040003AF3B4B1A8841
:100710003A800023BB7002AE3280B37001AD2A80F4
:10072000AB7069460A808B70D0231B0698468023E5
:100730005B02994643464A469A61314B9A460323E7
:100740003A00D021504611F0EBFE43464A465A612A
:100750009A6103233200F021504611F0E1FE434636
:100760004A465A618023DB03994643464A469A61CA
:1007700003236A46F021504611F0D2FE43464A4612
:100780005A619A6103232A00D021504611F0C8FE15
:1007900043464A465A613B785B027A785200E02130
:1007A00009010B401343BA78D2091343236032780E
:1007B000520273785B000A401A43B378DB091A438C
:1007C00062602A7852026B785B000A401A43AB7869
:1007D000DB091A43A2606B461B785B026A465278BB
:1007E00052000B4013436A469278D2091343E360E8
:1007F00004B0E0BCBA46B146A846F0BD6026011080
:1008000000C0034010B500F0D4F910BD10B584B09D
:100810000EF04EF864200AF0FDF8FFF7EDFD0E2013
:1008200008F0B0FF0020FFF7DAFD1B2008F0AAFF58
:10083000D024240680231B056362A361012008F0F5
:10084000A1FF02236362A361022008F09BFF04233F
:10085000A36200220121022008F07AFF0C2200216D
:1008600001A80DF0ADFE01A8FFF71AFE164B9B88FC
:100870006A46138063685B0703D401AB5B78DB07D0
:100880000ED401AB5B785B0704D5D0231B065B68F5
:100890005B070CD5684600F037FD002004B010BDA2
:1008A0000A480CF023F903000021080098470223AE
:1008B0006A4613700120FFF792FD0120FFF76EFDDD
:1008C000012000F081FCE5E76026011055420000A0
:1008D000F0B585B0041C0D1C0021281C0DF09EFCF9
:1008E000002860D1404B1B78002B00D06EE03F49C0
:1008F000201C0DF0B1FC002800D03C4C3C49201CD1
:100900000DF094FC002800D0394C211C39480DF022
:100910003EFC061C384B1868211C0DF07FFC00289B
:100920000ED1364B1F68301C0DF0F4FC80B2BB00BA
:10093000DB199B00324A9446634418612E4B1C60BD
:10094000311C281C0DF039FC041C2E4B1868211C8E
:100950000DF064FC002815D1284B1D68201C0DF0FB
:10096000D9FC83B2AA005219920027498C466244EE
:10097000106843401B041B0C802149010A4313608B
:10098000204B1C601D4B1A6893009B189B001C4A4F
:10099000944663441A680121914380225201134313
:1009A000196005B0F0BD194B164A1360124A136066
:1009B00003AA174B13800023009302335A211548D2
:1009C0000FF08CF9084B01221A70EAE703AA124BC8
:1009D00013800026009602235A210E480FF07EF95C
:1009E000014B1E7083E7C046893300200080A2447B
:1009F000000020420024F44918300020FC3200207E
:100A000000000540143000200C000540000080BFAD
:100A100001400000381600200103000070B50400FA
:100A2000C6684568291C301C0DF016FC00280BD048
:100A3000084B1E60A268084B1A60064B1968064BEB
:100A40001868FFF745FF70BD024B1D602268024B1E
:100A50001A60F2E7101D0020141D002010B5114B84
:100A60001B78002B1DD10F4B01221A7000240CE0C3
:100A7000A2000D4BD058FE218905FFF729FF0AF08F
:100A800049FE962009F0C6FF01341A2CF0DD9620AD
:100A900009F0C0FF00210548FFF71AFF014B0022B3
:100AA0001A7010BD91330020581200200000C84277
:100AB00030B589B0324B1B78002B01D009B030BD66
:100AC000642009F0A7FF01242D4B1C70192008F0A9
:100AD00059FED0231B06802292045A625A611820C4
:100AE00008F050FE0421182008F01AFE254B0422BD
:100AF0001A60254BFA2292005A6507AA1480234CEB
:100B00000025009502235A2120000FF0E7F806AADD
:100B10001F4B1380009502235A2120000FF0DEF8AE
:100B20000A2009F077FF05AA1A4B138000950223CB
:100B30005A2120000FF0D2F80A2009F06BFF04AA16
:100B4000154B1380009502235A2120000FF0C6F8A0
:100B500003AA124B1380009502235A2120000FF0A4
:100B6000BDF802AA0E4B1380009502235A212000E3
:100B70000FF0B4F800210B48FFF7AAFE9EE7C0462D
:100B800090330020FC320020000005403816002081
:100B90001AF6FFFF1D81FFFF172A00000140000029
:100BA000010300000000964310B5FFF757FF012036
:100BB00010BD70470902084300B2704770B582B09B
:100BC000D02424068025AD02A5616B4618715971A9
:100BD0000B4E022201A9300011F0EAFC65610220EF
:100BE00009F018FF8025AD03A561022201A930009C
:100BF00011F0DEFC6561022009F00CFF02B070BD4F
:100C000000C00340F0B5DE4657464E464546E0B5C7
:100C100085B006000D0001AC0023019308220021DD
:100C200002A80DF0CDFC03236B449A46A223524642
:100C30001370D0231B0698468027BF029F61514B3B
:100C4000994601225146180011F0B2FC0C232200F3
:100C50000021484611F064FC43465F6161782078CA
:100C6000FFF7A8FF80B2404283B2FF273840B0713F
:100C70001B0AF371E178A078FFF79CFF83B238403C
:100C800030721B0A737261792079FFF793FF83B288
:100C90003840B0721B0AF372E179A079FFF78AFF3E
:100CA00080B2404283B2384030701B0A7370617A60
:100CB000207AFFF77FFF83B23840B0701B0AF370D1
:100CC000E17AA07AFFF776FF83B2384030711B0AD1
:100CD000737180239B039B4643465A469A610122C7
:100CE0005146484611F064FC0C232200002148467E
:100CF00011F016FC43465A465A6161782078FFF796
:100D000059FF83B23840A8711B0AEB71E178A078D3
:100D1000FFF750FF80B2404283B2384028721B0A6E
:100D20006B7261792079FFF745FF83B23840A87272
:100D30001B0AEB72E179A079FFF73CFF83B23840E0
:100D400028701B0A6B70617A207AFFF733FF80B23C
:100D5000404283B23840A8701B0AEB70E17AA07A57
:100D6000FFF728FF83B2384028711B0A6B710123FB
:100D700033732B7305B0F0BCBB46B246A946A04600
:100D8000F0BDC04600C0034010B58C211020FFF715
:100D900015FF8C211120FFF711FF04211220FFF70E
:100DA0000DFF06211320FFF709FF06211520FFF78D
:100DB00005FFE0211720FFF701FF10BDF0B5C64683
:100DC00000B5040004282DD005282FD0032803D017
:100DD000002080BCB846F0BD0527042398462000BB
:100DE00008F0D0FC01263300A340D0252D06AB62CD
:100DF00000220121200008F0ABFC404608F0C2FCB4
:100E00003300424693406B62AB61380008F0BAFC95
:100E10003300BB406B62AB616B68E3401E4209D09C
:100E20000120D6E7052703239846D8E703270423A4
:100E30009846D4E70020CCE710B50320FFF7BEFFAB
:100E400010BD10B50520FFF7B9FF10BD10B5042087
:100E5000FFF7B4FF10BD10B501210E20FFF752FAC5
:100E60009620800009F0D6FD08F0A0F8002800D1F7
:100E700010BD0120FCE710B501F034FD10BD0000ED
:100E8000F0B5C64600B584B0142339E001330B2B0E
:100E900005D801AAD25C002AF8D00125F6E718206F
:100EA00009F0B8FD304BDB685B07FBD5D026360672
:100EB0008027BF03B7612C4B984601226B46D91C93
:100EC000404611F075FB0C2301AA0021404611F0A9
:100ED00027FB77610C283ED10023002100E001337D
:100EE0000B2B05D801AAD25C002AF8D00121F6E725
:100EF000002901D0002D31D1182009F08BFD2300ED
:100F00005C1E002B29D0002301930822002102A897
:100F10000DF056FB6B46A222DA70134BDB685B07C1
:100F2000FBD5D0252D068026B602AE610E4F0122DC
:100F30006B46D91C380011F03BFB0C2301AA0021A1
:100F4000380011F0EDFA6E610C2802D10023002563
:100F50009DE7002502E0002500E00025280004B000
:100F600080BCB846F0BDC04600C0034070B584B038
:100F700003A9494B1A880A8000238B7002A90A80B2
:100F80008B7001A90A808B7069460A808B700A24D5
:100F90002300013C002B74D0D0231B068022520278
:100FA0009A613E4BDB685B07FBD5032303AAD02184
:100FB0003A4811F0B5FA032866D1D0231B068022E7
:100FC00052025A619A61354BDB685B07FBD50323FC
:100FD00002AAF021314811F0A3FA032856D1D023F8
:100FE0001B06802252025A618022D2039A612B4B47
:100FF000DB685B07FBD503236A46F021274811F025
:101000008FFA032844D1D0231B068022D2035A61D1
:101010009A61224BDB685B07FBD5032301AAD02131
:101020001E4811F07DFA032834D1D0231B068022FC
:10103000D2035A610023002000260025002100E091
:101040000133022B14D803AAD25C002A00D001215C
:1010500001AAD25C002A00D0012602AAD25C002A92
:1010600000D001256A46D25C002AE9D00120E7E7DA
:1010700000298DD0002D8BD0002E89D0002887D05C
:1010800000E0002004B070BD0020FBE70020F9E77D
:101090000020F7E70020F5E76826011000C00340B4
:1010A00010B5FFF781FD10BD0120704770B582B00B
:1010B000FFF75CFF01AC01260125284003012078E1
:1010C0001022904318432070FFF7D5FEC301227809
:1010D0007F20104018432070FFF7BDFE2840830199
:1010E00020784022904318432070FFF7AFFE28403D
:1010F000830020780422904318432070FFF79CFE61
:1011000003002B402078B04318432070FFF799FE6E
:101110002840430020780222904318432070FFF7B4
:10112000C3FF2840C3002078082290431843207052
:10113000FFF7A6FE28404301207820229043184361
:101140002070FFF7ADFF05406078B0430543657040
:10115000208802B070BD000010B5041C0348046074
:1011600041608260C360FFF759FC10BDC8300020A9
:101170007047704710B512E00C4B9A6A0C4B1A601E
:101180000C4811F0D5F900F025FC094C206805F059
:1011900061FC206803F0E2FD2068FFF7EAFF0649E2
:1011A000044811F0EDF90028E6D1ECE700400540D5
:1011B000301F002068160020F8230020014B00207B
:1011C00018567047C812002010B5002803D1074BED
:1011D00000221A7010BD0120FFF7E0F80120FFF790
:1011E000FEF8024B01221A70F4E7C0465233002089
:1011F00010B50020FFF7F3F80020FFF7CFF800222A
:10120000002100200AF0D8FA10BD000010B5064BEE
:101210001B78002B00D010BD034B01221A70002058
:1012200001F09EFAF7E7C0467633002010B52A4B4E
:101230001B78002B30D02949294811F0A1F900284A
:1012400032D12848FFF72CF9274B1B78002B33D1DC
:1012500004F098F8254C2068224905F04FFC2068DE
:1012600001F008FB07F04EF9002829D01F4C206838
:101270001F4904F043FB206800221E4907F094F93F
:101280001D4B1B785BB2012B21D00AF043FA174BA0
:101290001868FFF7B7FA10BD002118480AF080FA65
:1012A0000D4B01221A70C6E7154B9A6A0F4B1A6054
:1012B0000B4811F03DF9C4E70A48FFF73DF8C7E7CE
:1012C0000A4B18680B4A0F4900F0B6FCD8E7074BE9
:1012D000186801F085FCD8E77F330020F423002054
:1012E00068160020301A002052330020301F0020E2
:1012F000F8190020181A0020C81200204C1D000008
:1013000000400540481A002070B582B0051E00D18B
:10131000D2E001F0A6FC0400FFF76EF867496848C8
:101320000EF0B0FC03211C2008F0FAF903211D2067
:1013300008F0F6F96348FFF7B3F800F0A7FB0028C0
:1013400033D0604E604B0193604B00933300604A92
:101350006049614805F070F9B378DB062AD4FFF7DD
:10136000A7FB02F099FBE3B2012B29D0022B2CD072
:1013700001242C57631C2FD00022AA56574B1A70F9
:10138000504B1B789A062BD45A063BD4DA063BD432
:101390005AB2002A3ADB5A073AD40A221A40022AE1
:1013A00038D01B071DD503241BE032214C4801F027
:1013B000C5F9C6E7062200214A480DF001F9CEE73B
:1013C000464B02221A700024DAE723041B0F434A1B
:1013D00013702405240FD3E7434B02241C57CBE79B
:1013E0000624414AE2235B00D65C3C4B1B785BB28F
:1013F000013311D06425E3B2062B40D8A3003B4A49
:10140000D3589F460124ECE70024EAE70224E8E7EA
:101410000524E6E70424E4E701F074FB002804D186
:101420002E4B02221A704625E5E7642001F01AFBD4
:101430002A4B01221A706425DDE72D48322101F084
:101440007DF92900300001F09DF9244B0021595607
:10145000200000F001FC1B4B9B789B0727D41B4A04
:101460001849200003F036FE0DF03CFD21480DF038
:1014700027FDFFF7DBFEFCE7FF200006DEE71E4846
:10148000DCE7FF200002D9E7144B00221A70FF208E
:1014900000041925D2E7114B00221A7017480F25B6
:1014A000CCE70E4B00221A7015481925C6E70E4BE3
:1014B0009C7000F0E5FAD2E702B070BD400D030069
:1014C00038160020301A00203C1A0020481A00204C
:1014D000F8190020181A0020081A0020C81200204D
:1014E0000000FF4D44190020C81700206C26011091
:1014F00000F115FF7511001000A1A1A100FF61000E
:101500000000FFE610B5040008F03CF900220121BC
:10151000200008F01DF90123A340D02212065362D7
:10152000536110BD10B5040008F02CF90022012110
:10153000200008F00DF90123A340D0221206936287
:1015400010BD10B5040008F01DF900220121200093
:1015500008F0FEF80123A340D0221206936210BDCA
:10156000094ABD235B00D35C1A1C312B00D8322200
:10157000054BBD2149005A54DA787A39FF398A433C
:10158000DA709B221A727047C817002070B50500E8
:1015900014006A4B1380012900D070BD0223C3568A
:1015A0009370D01CE91C06220DF010F8EB68E36084
:1015B0002B6923616B696361AB69A36120001C30F7
:1015C00029001C3120220DF001F820003C302900B8
:1015D0003C3120220CF0FAFF20005C3029005C3105
:1015E00020220CF0F3FF20007C3029007C312022E7
:1015F0000CF0ECFF20009C3029009C3106220CF0FE
:10160000E5FF2000A2302900A23106220CF0DEFF07
:101610002000A8302900A83130220CF0D7FF20008C
:101620002930FF302900D83110220CF0CFFF2000E4
:101630003930FF302900E83110220CF0C7FF2000BC
:101640004930FF302900F83110220CF0BFFF200094
:101650005930FF3029000931FF3110220CF0B6FF5C
:1016600020006930FF3029001931FF3110220CF0C1
:10167000ADFF94235B00EA5C5033E2542A23FF332E
:10168000EA5C7A23FF33E2544F3BEA5C5033E25486
:101690002C23FF33EA5C7C23FF33E25420007D30AF
:1016A000FF3029002D31FF3106220CF08FFF200082
:1016B0008530FF3029003531FF3120220CF086FFC4
:1016C0002000A530FF3029005531FF3120220CF0D9
:1016D0007DFFBA235B00EA5C5033E2542000C9303E
:1016E000FF3029007931FF3118220CF06FFFC82339
:1016F0005B00EA5C5033E2544E3BEA5A5033E2520C
:101700004E3BEA5A5033E2524E3BEA5A5033E252D1
:101710004E3BEA5A5033E2524E3BEA5A5033E252C1
:101720004E3BEA5A5033E2524E3BEA5A5033E252B1
:101730004E3BEA5A5033E2522FE7C04602A0FFFF69
:10174000064B984204D0064B984203D102207047C2
:101750000120FCE701204042F9E7C04601A000005B
:1017600002A0000010B512480DF096F8002407E022
:10177000104B5B18D97810480DF08EF80134E4B2A4
:10178000052C0DD80DF082FE2100C0B2094A1219B5
:10179000D070002CECD1130001229043D870E7E701
:1017A000044B9B221A720A200DF012F810BDC0469D
:1017B00088260110C817002098260110F0B5DE46D3
:1017C00057464E464546E0B56F4CA544FC256D0096
:1017D0002A00002102A80CF0F3FE6C4B02AA138031
:1017E000059B0193DB0FDB07802212011343059356
:1017F000069B0193DB0FDB0713430693079B0193C3
:10180000DB0FDB0713430793089B0193DB0FDB0719
:101810001A4308925E4F0A975E4E0B965E4C0C94EC
:101820005E480D905E490E915E4A0F925E4B10939A
:1018300012971396149415901691179218935B4B68
:1018400019931A931B931C931D931E931F9320931C
:101850002193802202A98B5004328B5004328B508A
:1018600004328B5004328B5004328B5004328B5034
:10187000FF231B049A46A8230A005146D1504C4B23
:101880009B46AC235946D1504A4B9946B023494612
:10189000D150FF231B069846B4234146D150FF2662
:1018A00036020433D6500433434A02A9CA50434F88
:1018B00004330A00CF5004335146D150043341461B
:1018C000D1500433D65004334946D1500433D65056
:1018D0003B4BD82202A98B5004328B5004328B50E0
:1018E00004328B50E823CF50B63B7A22FF328B5420
:1018F00001328B54173AFF3AF121490002A84252B3
:1019000002314352023142528532FF32010083528A
:101910002C4C2A0020000CF059FE002003F0A0FB04
:10192000012003F09DFB032003F09AFB042003F049
:1019300097FB052003F094FB20009C300622002139
:101940000CF03EFE2000A230062200210CF038FEF2
:10195000FFF708FFE4235B005246E25004335A4687
:10196000E25004334A46E25004334246E250043324
:10197000E6500433E75081239B009D44F0BCBB46F6
:10198000B246A946A046F0BDFCFDFFFF02A0FFFF46
:10199000000034420000B44200000743000034431A
:1019A000000061430000874300809D43000016440F
:1019B0000000FF4D0000FFE600F115FF00FF610091
:1019C00000A1A1A1C8170020014B18787047C0469C
:1019D0008D33002070B5204CA544204B1B78002B84
:1019E00003D180235B019D4470BD0DF093FAEFF3AA
:1019F000108672B61A4B1B78002B24D1194C002389
:101A00000093194A002101A80CF0DAFDFC225200D3
:101A1000164968460CF0DAFD80256D01290020008A
:101A200010F0B6FD2A006946200010F091FD86F303
:101A300010880DF079FA0E4B1B78002B06D1074B5E
:101A400000221A70CDE796246403D8E706F014FE4E
:101A5000074B00221A70F2E700F0FFFF74330020FA
:101A60008D33002000D01200FC0F0000C8170020AA
:101A700080330020014B01221A7070478033002010
:101A8000014B01221A7070477433002070B5394B36
:101A90001888394B1D88FFF753FE04002800FFF714
:101AA0004FFE0500631C0BD0022C0FD0022D0DD071
:101AB000012C2CDD012D2ADD0023002200262CE044
:101AC000431CF1D100230022012626E0022C05D080
:101AD000022D0FD00023002200261EE0FC2252001F
:101AE000244926480CF072FD254B00221A70002371
:101AF000002612E0FC2252001F4920480CF066FD2F
:101B00001F4B01221A7000230022002605E001234A
:101B1000012C15DDDBB201220026002E12D1002A95
:101B200023D0002B18D1164B01221A70134A210022
:101B30001048FFF72BFD0020FFF7A2FF300070BD1B
:101B40000023E7E70E4B00221A70FFF737FE002054
:101B5000FFF796FF0026F1E7094B00221A70074AAB
:101B600029000548FFF712FDE5E7FFF7F9FC01261C
:101B7000E4E7C04600D0121000C01210C8170020C1
:101B80008D33002010B5031C642800D96423034959
:101B90007A22FF328B54FEF78BFF10BDC81700204E
:101BA00010B5022817D008D800280DD001280FD171
:101BB0000B4AF2235B00D1520AE0032808D1084AFD
:101BC000F4235B00D15203E0054AF1235B00D152BC
:101BD00004F0C4F910BD024AF3235B00D152F7E7C9
:101BE000C817002030B50F4C40004508E068C00F12
:101BF000C0072843E060490048082169C90FC907A8
:101C000001432161520051086269D20FD2070A4391
:101C100062615B005A08A369DB0FDB071343A36112
:101C200030BDC046C8170020062800DD0020014B4B
:101C300098707047C817002010B5034B1B68002B25
:101C400000D0984710BDC046F81C0020014B002072
:101C5000185670475F33002010B588B00400284B39
:101C60001870022910D00C22002105A80CF0A8FC45
:101C70001022002101A80CF0A3FCE3B2062B0BD824
:101C8000A400204B1B599F461F4B204A1A6007F0A7
:101C90001FFA0028E7D005E01B4B1D4A1A60002000
:101CA00001F0AAF808B010BD174B194A1A600620B7
:101CB00001F0A2F8F6E7144B154A1A60012001F072
:101CC0009BF8EFE7104B124A1A60022001F094F8DB
:101CD000E8E70D4B0F4A1A6001AA05A90020FFF79B
:101CE000ABFFDFE7084B0C4A1A6001AA05A90020E8
:101CF000FFF7A2FFD6E7044B084A1A60D2E7C046B6
:101D00005F330020CC260110F81C002061930010E6
:101D1000A92E00104D7400108D7C0010D981001088
:101D2000F0B5C64600B590B004000D0016001F00C7
:101D300016AB1B789846494B984200D188E00721A2
:101D4000380007F0EDFC012300933A002900200041
:101D50000DF088FC1022002108A80CF031FC802333
:101D60005B020893F8235B0209938023DB020A934A
:101D7000C0231B030A93102208A904A80CF026FC18
:101D8000F31C059A039236491140F20111431B03DB
:101D900019430591079B0393DB00DB088022920522
:101DA000134307932F4B19400591102204A90CA847
:101DB0000CF00CFC0F9B03932B4A1A40BF021743F5
:101DC0000F974346002B45D020220E9B03932749B3
:101DD000194080239B020B435206F82189050A40D3
:101DE00013430E939B009B088022D20513430E934E
:101DF000052009F0F1FB1E490AF0CCFE0CF031FA87
:101E000080460CF087FA87B2002F25D038000CF0FE
:101E100028FA011C40460CF0B0F98721C9050CF0E6
:101E2000CCF90CF077FAC0B200023F0407430C97DC
:101E30000CAB3200290020000DF066FC2268012363
:101E4000AB409A431343236010B080BCB846F0BD4A
:101E5000062175E71822B8E70020E5E700002050CA
:101E60007F00FEFFFFFFFF9FFF83FFFFFFFFF5C126
:101E70000050C300014B01221A7070476D330020DF
:101E800070B5254B1B78002B17D1244B00221A70FC
:101E9000214B01321A7000241B2C09D80DF0F6FAE0
:101EA00006210AF077FE1E4B19550134E4B2F3E720
:101EB0001C4B00221A70002428E01A4B1B78002BC0
:101EC000F9D1194B1B789A009B18FA2B00D9FA23E9
:101ED000FF221A40FF239B1A9BB2144A1380144A14
:101EE0001380104B01221A70E5E70D4D2B5D723304
:101EF0009B00104A9958A2000F4BD1500DF0C6FA22
:101F000006210AF047FE29550134E4B21B2CECD916
:101F1000FFF7B0FF70BDC0466C330020593300207E
:101F2000181D0020ED120020EB1200204833002085
:101F300044330020C817002050220020034B198092
:101F4000034B1860034B00221A7070474633002081
:101F5000642100206A33002070B505000C00008861
:101F60000CF07FF91B490CF012F91B490CF025F914
:101F70000CF0D0F9C2B22B79A978C943C9B2594340
:101F8000090A5B1ADBB23F2528402D1AEDB25843EF
:101F900080096B439B11DBB20818C0B2CB18DBB2CF
:101FA0003F2A10D9403AD2B23F2A06D81A060B0669
:101FB0001B0A0002134318430AE0090600041B022F
:101FC0000843184304E000061B04090218430843B1
:101FD000206070BD00007F4300003F43F8B5CE464F
:101FE000474680B50400234B1D78002D05D1002302
:101FF0000360C0BCB946B046F8BD642DF9D08778FF
:10200000E678B81963789846C0180CF02FF91A4989
:102010000CF0BDF8814628000CF023F917490CF0AC
:10202000B6F8051C011C48460CF006F90028E0D162
:102030004946281C0CF0ABF8051C38000CF011F9CF
:10204000291C0CF0BAF80CF065F9A07030000CF007
:1020500008F9291C0CF0B1F80CF05CF9E07040466E
:102060000CF0FFF8291C0CF0A8F80CF053F9607084
:10207000BFE7C046EA12002000007F430000C842CC
:10208000F0B5D6464F464646C0B504000368002B5F
:1020900035D083789846C778D819667880190CF0BF
:1020A000E5F8051C40460CF0DCF88046291C0CF0D5
:1020B0006EF8824638000CF0D4F8071C291C0CF08E
:1020C00066F8814630000CF0CCF8061C291C0CF098
:1020D0005EF8051C514640460CF06FF80CF01AF9FA
:1020E000A0704946381C0CF068F80CF013F9E07049
:1020F000291C301C0CF061F80CF00CF96070E0BC8D
:10210000BA46B146A846F0BD30B585B01D4B1B7828
:10211000002B0FD100241B2C09D80DF0B7F9FF219B
:102120000AF038FD184B19550134E4B2F3E7154BAA
:1021300001221A7000241FE0134D2B5D134A107802
:10214000C018FF210AF0FEFCC9B2295502A801807F
:10215000FF23438083800023019301A9FFF7FCFE46
:1021600001A8FFF73BFF0A48A300019A1A50C018C4
:10217000FFF786FF0134E4B21B2CDDD9FFF77AFEAE
:1021800005B030BD6C33002024210020EB1200206C
:102190005022002000220AE0930006495958064BBD
:1021A0005B68DB03FBD4044B19610132D2B21B2AFA
:1021B000F2D970476821002000002050F8B5DE46B3
:1021C00057464E464546E0B506000D00141C807883
:1021D0000CF047F88046F0780CF043F8071C707854
:1021E0000CF03FF8061CA8780CF03BF88346E87822
:1021F0000CF037F8824668780CF033F88146414697
:1022000058460BF0BAFF211C0BF0D7FF41460BF0EC
:10221000B9FF051C391C50460BF0AFFF211C0BF019
:10222000CCFF391C0BF0AEFF071C311C48460BF0ED
:10223000A4FF211C0BF0C1FF311C0BF0A3FF061CF7
:10224000281C0CF067F8C5B2381C0CF063F8C4B257
:10225000301C0CF05FF8C0B22D04000224062843A5
:102260002043F0BCBB46B246A946A046F8BD0000DC
:10227000F8B5274B1D8828000BF0F8FF011CFE2045
:1022800080050BF084FF041C224B1B78002B0BD025
:102290007022214921480CF099F90023204A13703B
:1022A0001C4A13701F4A13701D4B1E78B54204D28E
:1022B0001C4B187800281ED0F8BD30000BF0D1FF61
:1022C000211C0BF07AFF051C00240BE0A700164927
:1022D000C9191248C0192A1CFFF770FF0E4BD851BC
:1022E0000134E4B21B2CF1D901360D4B1E70FFF7FF
:1022F00051FF0020E0E770220B4907480CF066F917
:10230000FFF748FF074B01221A700120D4E7C046AF
:10231000443300206D33002068210020E02100209C
:10232000EF120020EC12002050220020F0B5C6462B
:1023300000B506000F001500984600240AE0335D42
:102340009B004246EA50305D80002818FFF798FE57
:102350000134E4B2BC42F2D380BCB846F0BD000008
:10236000031C642800D96423014A13707047C046D7
:10237000EA12002030B583B0050000240CE001957E
:1023800001A8FFF72BFE0648A300019A1A50C018B7
:10239000FFF776FE0134E4B21B2CF0D903B030BD58
:1023A0005022002010B509480388094A12789B186A
:1023B000FF2213400380074C2100FFF7CDFD20686A
:1023C000FFF7D8FFFFF756FD10BDC046E41200200E
:1023D000EB1200202021002010B51A4B1B78002B97
:1023E00017D1194A1370174A01211170174A137037
:1023F000154C237872339B00154A9858FFF7BAFFA3
:102400002078013006210AF09DFB2170FFF732FD94
:1024100010BD0E4B1B78002BEAD10E4B1B789A0097
:102420009B18FA2B00D9FA23FF221A40FF239B1A8C
:102430009BB2094A1380094A1380044B01221A7087
:10244000D6E7C0466C33002059330020EE1200203E
:10245000C8170020EB12002048330020443300202E
:1024600010B50F4B1B78002B10D10E4B1B68002BA7
:1024700002D10C4B0C4A1A600A4B1868FFF77AFF1E
:10248000FFF7F8FC064B01221A7010BD0020FFF781
:1024900071FFFFF7EFFC024B00221A70F5E7C04610
:1024A00088330020D82100200000FFE610B5164B2D
:1024B0001C78002C05D0154B1B78002B17D0200062
:1024C00010BD7022124913480CF080F8124B1868A6
:1024D000FFF750FF114B1A88114B1A80FFF7CAFC07
:1024E000094B01221A70094B00221A70E7E770228B
:1024F00008490C480CF06AF8FFF7BCFC034A137853
:1025000001331370DBE7C0466A33002092330020AA
:102510006821002058300020DC21002046330020B4
:10252000443300205022002070B50E4B1C78002C44
:1025300008D00D4B1D78002D11D0FEF759FE2C0050
:10254000200070BD0020FFF715FFFFF793FC074B3D
:102550001A88074B1A80034B01221A70F0E700F02B
:102560002BFAEDE76A3300206F330020463300205A
:102570004433002070B50C000F2803D88000294B8D
:102580001B589F460126284D2EE00426274D2BE0A0
:102590000426274D28E00126264D25E00126264D5C
:1025A00022E00126254D1FE00126254D1CE00126D5
:1025B000244D19E00126244D16E00126234D13E099
:1025C0000126234D10E00126224D0DE00126224D6B
:1025D0000AE00126214D07E00126214D04E00126F5
:1025E000204D01E00426104D002A12D023001E4A7F
:1025F00031002800FFF79AFE23001C4A3100280012
:10260000FFF794FE23001A4A31002800FFF78EFEE0
:1026100070BD2300154A31002800FFF787FEFFF741
:1026200029FCF5E7E82601106C2701105827011056
:102630004C2701105C27011048270110502701107A
:102640006427011074270110702701104027011022
:102650004427011054270110782701106827011022
:102660007C27011060270110E0210020502200206B
:102670006821002070B50C4B196840220B480BF004
:10268000A5FF00240CE0A300084DED182800FFF77B
:10269000A5FC296800222000FFF76CFF0134E4B29A
:1026A0000F2CF0D970BDC046C0220020C4220020EB
:1026B00010B5024B1860FFF7DDFF10BDC0220020EF
:1026C00010B5074B1B78002B00D010BD0548FFF755
:1026D000EFFFFFF7CFFB024B01221A70F5E7C04670
:1026E0006C330020701800200F4AF0235B00D35C8D
:1026F000834209D0002B03D1E133FF330521D154AC
:10270000094AF0235B00D054074AF0235B00D25CF7
:10271000064B1A701523064A1380064A1380064B8F
:1027200000221A707047C046C8170020EB12002024
:1027300048330020443300206C33002010B5054B93
:1027400018604908044C2000FFF7F8FB034B1C609D
:1027500010BDC046DC210020AD2400106421002003
:1027600010B5054B1870054B00221A600A21044869
:10277000FFF7E4FB10BDC0466F330020602100204E
:102780002925001070B582B004000D00254B1B7880
:10279000002B0CD0244B1C700023244A1370244AB5
:1027A0001370052C16D8A400224B1B599F46224EAD
:1027B000224930000CF03AFF020000230093173347
:1027C00000213000FFF7ACFA164B01221A70FFF718
:1027D000E1FCDFE71A4B1B4A1A601B4AF0235B003F
:1027E000D05CFFF781FF002D15DA02B070BD144BED
:1027F000164A1A60F1E7124B154A1A60EDE7104BC2
:10280000144A1A60E9E70E4B134A1A60E5E70C4BCD
:10281000124A1A60E1E7FF2D00DDFF25E8B2FFF75D
:102820009FFDE2E76E3300206B3300206C33002005
:10283000703300202827011000002050802701104D
:1028400060210020C1260010C8170020A523001019
:102850000921001061240010D9230010811E0010EE
:1028600010B5034B186064210520FFF78BFF10BDE6
:10287000D821002010B5144A144900F0F7F90028B7
:1028800000D110BDFFF7F4FC002803D1104B1B78DA
:10289000002BF6D00F4B1B68002B0ED0984700285A
:1028A000EFD000240B4B1C600B4AF0235B00D05C84
:1028B000FFF71AFF094B1C70E3E7094B1B68002B5D
:1028C000DFD09847DDE7C046202F00201A410000E6
:1028D0007033002064210020C81700206C330020D2
:1028E0006021002000B587B02C4B1B7805AA13701F
:1028F00004AA137008F05EF902000B1E2CDB2848B6
:10290000002112184B41002B2CDB002B2EDB0292F6
:1029100003930123009305AA6A2122480DF0EAF9E6
:1029200008F048F902000B1E26DB1D480021121892
:102930004B41002B26DB002B28DB02920393002364
:102940000093013304AA6A2116480DF0F2F9002819
:1029500022DD012007B000BD134B144A3F2114486B
:1029600008F06AFF01225242124BCEE70E4B0F4A8B
:102970003F210F4808F060FF0B4B0C4A3F210C48E9
:1029800008F05AFF012252420A4BD4E7064B074A8D
:102990003F21074808F050FF0020DBE7003101101D
:1029A0001027000038160020902701101028011071
:1029B000AC270110FFFFFF7F10B586B00020FDF7A8
:1029C0000EFD00241CE0204B204A3F21204808F047
:1029D00033FF002B28DB0292039300230093023382
:1029E00005AA6A211B480DF085F90400831C21D03B
:1029F000431C22D0FA20800008F00CF8FEF7F8FB08
:102A0000002C1DD105AB144A1A8008F0D3F802003F
:102A10000B1ED8DB1148002112184B41002BD8DACD
:102A2000012252420E4BD4E7074B084A3F21084887
:102A300008F002FFFEF7DCFBDCE7FEF7D9FBD9E785
:102A4000FEF7D6FB06B010BD90270110102801102C
:102A5000AC270110381600200941000010270000A3
:102A6000FFFFFF7F00B587B0232821D8C0B205380B
:102A7000C0B27F23184005AB04221A70587008F0CA
:102A800099F802000B1E20DB1848002112184B4158
:102A9000002B20DB002B22DB029203930023009308
:102AA000023305AA6A2112480DF024F907B000BDCF
:102AB000AF235B00984200D9180028380A210AF099
:102AC00041F8C0B21F30C0B2D3E70A4B0A4A3F21D7
:102AD0000A4808F0B1FE01225242094BDAE7054BE1
:102AE000054A3F21054808F0A7FEC0461027000010
:102AF000381600209027011010280110AC27011073
:102B0000FFFFFF7F00B587B02E4B1B7805AA13701F
:102B100004AA137008F04EF802000B1E30DB2A489E
:102B2000002112184B41002B30DB002B32DB0292CC
:102B300003930123009305AA6A2124480DF0DAF8D3
:102B400008F038F802000B1E2ADB1F48002112187B
:102B50004B41002B2ADB002B2CDB0292039300233A
:102B60000093013304AA6A2118480DF0E2F80230FC
:102B7000012825D904AB1878C007C00F07B000BDE5
:102B8000134B144A3F21144808F056FE01225242CA
:102B9000124BCAE70E4B0F4A3F210F4808F04CFE7C
:102BA0000B4B0C4A3F210C4808F046FE01225242D2
:102BB0000A4BD0E7064B074A3F21074808F03CFE86
:102BC0000120DBE70031011010270000381600203B
:102BD0009027011010280110AC270110FFFFFF7F84
:102BE00010B5FA21074A090200F040F8002800D188
:102BF00010BDFFF787FF044B18700028F8D1FEF7CF
:102C000005FBF5E7582F00205733002010B50022B0
:102C10000021002008F0D0FDFEE70000072804D8BE
:102C20008000024B9C466044016070470C80054068
:102C300010B5072802D90024200010BD8000044BE5
:102C40009C466044046800210520FFF7E7FFF3E796
:102C50000C80054010B501000520FFF7DFFFFFF7EE
:102C6000D5FF10B50520FFF7E3FF10BD10605368D6
:102C7000834205D9C31A013B8B4205D2002070471D
:102C8000834204D2C31AF7E750600120F7E700201F
:102C9000F5E730B51860002A0BD15C6884420BD987
:102CA000041B013C0025002D0BD1A14209D91000C5
:102CB00030BD58600020FBE7844205D2041B00258C
:102CC000F1E758600120F3E71000F1E710B5FEF7D7
:102CD000BDFF022801D0024810BD0248FCE7C046F3
:102CE000282801101829011010B500200EF0A4FBAF
:102CF00010BD000010B5102106480FF051FC00284F
:102D000000D110BD044B01221A7002480FF010FCD4
:102D1000F7E7C046701600207D33002010B5102163
:102D200006480FF03DFC002800D110BD044B0022E6
:102D30001A7002480FF0FCFBF7E7C046701600203F
:102D40007D33002070B5050064210D480FF0D8FBDD
:102D5000041E09D10B4B22000B492800FFF799FFF5
:102D6000051E08D1200070BD084B1C78E4B2044851
:102D70000FF0DEFBEEE7FFF7BDFF2C00F2E7C046E9
:102D800070160020D8300020A08601007D3300207E
:102D9000037801330370044B1B785BB2022B01D024
:102DA000024870470248FCE7AC1300205C2A01107F
:102DB000942B01100C4B18600C4B98420BD00C4B11
:102DC00098420CD0FA235B00984200D07047094B20
:102DD00001221A60FAE7074B04221A60F6E7054B56
:102DE00008221A60F2E7C04628240020461000009E
:102DF0008D2000002024002010B50400002001F0E8
:102E0000A7FF022C2CD0062C1DD0012C10D00120A5
:102E100001F09EFF1848FFF7CDFF184B184A1A60C3
:102E2000184B194A1A60194B1C700EF011FF10BD97
:102E3000FA204000FFF7BEFF104B154A1A60114BF5
:102E4000144A1A60EFE7012001F082FF1248FFF7F1
:102E5000B1FF0A4B114A1A600A4B0B4A1A60E2E7AB
:102E6000FA204000FFF7A6FF044B0D4A1A60054BFD
:102E70000C4A1A60D7E7C0468D20000024240020A9
:102E8000698300102C240020E92C0010AC130020D2
:102E9000318E001045350010461000004D95001091
:102EA000116C0010D1390010F8B506000C001500A7
:102EB0000120002140420DF033FE234B9F6C234B39
:102EC0001B68BB421CD2FB1A214A12689A4202D8E4
:102ED000204B01221A70204B1968204A3000FFF75E
:102EE000C5FE002802D01E4B01221A701D4B1B7814
:102EF000002B0AD11C4B1B6898471A4B1870F8BD61
:102F0000FB1A1A4A94466344DEE73000FFF71AFFC3
:102F10000028F4D00F4B1B78002BF0D0104B1B78FF
:102F2000002BECD0094B1F6000230A4A13700C4A97
:102F300013700C4A1370FFF7F1FE0D4B1B6829004C
:102F400020009847DBE7C046000011501C2B0020F2
:102F5000202400208C330020282400203C33002033
:102F6000953300207E3300202C240020FF07000032
:102F700024240020084B1B785BB2022B07D0062BC1
:102F800007D0012B01D0054870470548FCE70548EC
:102F9000FAE70548F8E7C046AC13002000320110FC
:102FA000A42A0110802B0110DC3A0110084B1B7879
:102FB0005BB2022B07D0062B07D0012B01D00548AE
:102FC00070470548FCE70548FAE70548F8E7C046BA
:102FD000AC130020C0310110742A0110542B0110D1
:102FE000B03A01100020704710B5134B1B785BB24C
:102FF000022B13D0062B18D0002B05D00B78002BFA
:103000000FD1FFF777FE0CE00B78302B03D0212B8C
:1030100001D0812B05D1FFF76DFE02E00B78212B4B
:1030200000D010BDFFF766FEFBE70B78012BF8D14F
:10303000FFF760FEF5E7C046AC13002070B504ACA6
:1030400025882E4C247864B2012C2DD0022C12D06D
:10305000002C00D070BD0029FCD1002AFAD11878CC
:10306000102804D02A00190001F08EF8F2E7981C0D
:1030700000F0D8FDEEE70029ECD1002AEAD11A7859
:10308000112A05D0132AE5D11D480BF005FCE1E714
:103090005B78002B06D01B490B1C1B4A1B48FEF714
:1030A0005BF8D7E70021F7E70029D3D1002AD1D177
:1030B0001A78002ACED15A78082ACBD1DA78002A99
:1030C00002D11979002911D01B79101C9A4200D223
:1030D000181CC0B20BF0C5F80D490BF058F8011CD4
:1030E000031C094A0948FEF737F8B3E70020031C20
:1030F000021C011CFEF730F8ACE7C046AC13002000
:10310000DC2901106666263F000020420000F042E4
:1031100000007F43064B1B785BB2022B03D0062BCB
:1031200003D1044870470448FCE70448FAE7C04666
:10313000AC130020F03A0110E82A011014320110FB
:1031400070B5EE2824D0002825D080001E4BC5582D
:1031500028000FF0A3F9C0B21F2800D91F200023B8
:1031600027E05A1C194CA15C0902E25C0A434400A6
:103170001749625202330130112BF2D9154A144B10
:1031800013CB13C211001A680A609B888B8019E068
:1031900000200023F0E70C4B196802220E480BF0C8
:1031A00015FA012007E05A1CEC5C5100094BCC5287
:1031B000D3B29842F7D801304000C0239B00184397
:1031C000044B1880034870BDD0120020202A011043
:1031D000E41900203C1D00203E1D002000B591B0E8
:1031E0004022694600200EF0B5FB00200EF0C8FB1F
:1031F000064B1B785BB2002B01D011B000BD044818
:103200000BF01AFB684605F05BFAF6E7AC130020FA
:10321000F4290110F0B583B005001400012966D12E
:1032200013785B069B0F012B58D0022B03D0002B89
:1032300001D000205CE06378022B24D0072B03D060
:10324000012B19D0002053E0227963791B0213432C
:10325000042B03D0052B08D0002049E02433264A54
:10326000210028000DF080FD42E08D33234A21002B
:1032700028000DF079FD3BE02723214A210028009A
:103280000DF072FD34E0227963791B021343072BA2
:1032900030D11C4B1B785BB2022B0FD06B469F1DAD
:1032A000194E0222310038000BF090F93B883200B1
:1032B000083A210028000DF057FD19E06B469F1DCC
:1032C000124E0222310038000BF080F93B883200A8
:1032D000083A210028000DF047FD09E051780C481C
:1032E0000BF0DAFA210028000DF022FD00E00120A9
:1032F00003B0F0BD0020FBE784130020F012002093
:10330000342A0110AC1300206C280110442901104C
:103310000C2A0110012815D0022907D000290BD151
:10332000022A29D0002A29D006207047022A1FD05D
:10333000002A1FD00800F8E7022A21D0002A21D055
:103340000820F2E7022907D000290BD1022A1FD05A
:10335000002A1FD00720E8E7022A15D0002A15D03E
:103360000320E2E7022AE0D0002A15D00020DCE7A3
:103370000120DAE70320D8E70720D6E70520D4E7C5
:103380000020D2E70420D0E71000CEE70420CCE7ED
:103390000820CAE70620C8E70520C6E701207047D5
:1033A00010B58422002102480BF00AF910BDC04676
:1033B0004C28002010B50020FFF7F2FF10BD0000E0
:1033C000F0B5C64600B580460D008B795D2B24D143
:1033D0000B79DF00FF1ABFB21937BFB2974221D86D
:1033E0000C780C19002605E0104A53700136F6B22D
:1033F0002378E4182B79B34210D96378052BF7D1E1
:10340000210040460DF0BAF800280DD0A378DA0963
:10341000012AE9D0054A9370E8E70027380080BC0C
:10342000B846F0BD0027F9E70027F7E74C28002051
:1034300030B583B0040014484078884206D0124A60
:1034400092788A420CD0012003B030BD0F4A002A86
:1034500018D09AB20E490020FFF7C6FD0120F3E70D
:103460000C4D9BB200932B00002200210020FFF79F
:10347000E5FD2B00443B997840232A0020000DF005
:10348000F1F8E1E70120DFE74C280020E92F0010E8
:10349000502800209028002010B50CF0D3FF002801
:1034A00003D10023002B08D110BD0CF0D3FF00285E
:1034B00001D10123F6E70023F4E70B4B99780020B4
:1034C0000DF00CF90028EFD1074CA1780DF0A2F80F
:1034D00022004432A178402300200DF0C3F8A178E7
:1034E00000200DF0ABF8DFE74C28002070B5050098
:1034F0000C000CF0AFFF002806D1812100200DF058
:1035000089F8002803D170BD0CF0ACFFF5E7231C4F
:10351000402C00D940239CB2094E220029003000E3
:103520000BF054F8351F69782300320000200DF0AD
:1035300099F8697800200DF081F8FFF7ADFFE2E718
:103540005028002010B5104B5C780CF07BFF002851
:1035500006D10023002B13D0002C09D1002010E04D
:103560000CF078FF002801D10123F3E70023F1E7F5
:10357000210000200DF0B2F8002803D1013000E056
:10358000002010BD0020FCE74C28002010B53C2294
:10359000002102480BF014F810BDC046D81D0020D1
:1035A00010B50020FFF7F2FF10BD0000F0B583B0AA
:1035B00006000F001500FEF749FB02284CD13B79AD
:1035C000DC00E41AA4B21234A4B2AC4248D80023FE
:1035D000002B09D00025002D44D0397879184B787C
:1035E000212B11D0002438E01A01D21A92001F4872
:1035F00082185278002A02D00133DBB2E8E71A01C0
:10360000D11A89004518E6E7A9630B78C9183A79F9
:103610006B1C0193AB1C0093032330000CF0C8FF1C
:10362000002821D0BB79012B13D001232B71BB784B
:103630002B70AA6BD179137A1B020B43EB80A9780C
:1036400000290AD02A003032062330000DF00AF893
:1036500003E0FB79EB70E8E70024200003B0F0BD45
:103660000024FAE70024F8E70024F6E7D81D00203C
:1036700070B582B005001D4C002000280AD000283B
:1036800030D162788A4213D0A2788A421AD00120BF
:1036900002B070BD0401241AA400144A1419A278BF
:1036A0008A42ECD062788A42E9D00130C0B2E4E7C5
:1036B0000F4A002A18D0210008319AB2FFF794FC73
:1036C0000120E5E7260030369BB20093330000224C
:1036D0000021FFF7B3FCA1780623320028000CF08C
:1036E000C1FFD5E70020D3E70120D1E7D81D002096
:1036F000E92F0010F0B5C64600B582B006001500EF
:1037000012781F231340012B00D01FE128790024D9
:10371000002C0DD0FF24002C00D01CE127006023DA
:1037200018001040134239D101290BD001200EE1BD
:1037300023011B1B9B008E4FDB5D9842EBD00134B5
:10374000E4B2E5E7EA786B78062B06D0062B00D0CA
:1037500005E1222A12D00020F9E0212AF6D1230126
:103760001F1BBF00824BDF19BA6B002A00D1F4E0A7
:103770001378290030000DF0F7FAE8E02000FFF799
:10378000C9FC02003B01DF1BBF00794BDF19FB883E
:10379000290030000DF0E8FA0120D8E0202800D000
:1037A000DFE06B780B2B00D9DDE09B00714AD3582A
:1037B0009F46012901D00120C9E0EA78A9782301B8
:1037C0001B1B9B0008336A4FFF18A879EB791B027B
:1037D0000343181C252B00D9252080B2002909D0CD
:1037E000012B16D97B1C9C463970013880B201230D
:1037F000984602E0BC4600239846009063462000AD
:10380000FFF7F0FB030043449BB2002B05D10020DF
:103810009DE0BC4600239846EFE73A0029003000BF
:103820000DF0A2FA012092E0012903D0032915D05E
:1038300001208CE0AA79EB791B021343062B01D9F6
:10384000002084E02201121B9200303248498A187D
:10385000290030000DF088FA012078E0EA78A97894
:1038600023011B1B9B0030334148C318AE79E87914
:1038700000023043051C062800D90625ADB20029F8
:1038800004D0012802D91878884205D0009520007C
:10389000FFF7D4FB01205AE00133013DADB2F5E75B
:1038A000012901D0012052E0E97823011F1BBF004C
:1038B0002F4BDF197971304B002B04D0200000E032
:1038C00000BF002843D0290030000DF031FA01205C
:1038D0003DE0012901D0012039E02201171BBF0082
:1038E000234AD21905320123290030000DF03CFA99
:1038F00001202CE0012901D0012028E02201171B22
:10390000BF001B4AD21904320123290030000DF0F8
:103910002BFA01201BE0012903D0032907D0012045
:1039200015E0290030000DF003FA01200FE0A9781E
:1039300023011F1BBF000E4BDF1939710F4B002BEA
:1039400013D0200000E000BF012000E0002002B002
:1039500080BCB846F0BD0020F9E70020F7E7002062
:10396000F5E70020F3E70020F1E70120EFE7C0468C
:10397000D81D0020B82A011000000000000000003F
:1039800010B50301181A8000104B181844780CF079
:1039900059FD002806D10023002B13D0002C09D19B
:1039A000002010E00CF056FD002801D10123F3E7C0
:1039B0000023F1E7210000200CF090FE002803D145
:1039C000013000E0002010BD0020FCE7D81D0020E1
:1039D00010B50020FFF7D4FF10BD0000F8B50400BB
:1039E0000F0016001D0003011B1A9B001F4AD3186D
:1039F000597800200CF00EFE002825D0002F24D08E
:103A00002B1C242D00D924239DB2184A2301191BF5
:103A1000890051180F721B1B9B000833D01801300E
:103A20002A0031000AF0D2FD0135ADB20F4B200162
:103A3000021B920008329A18001B80001818417867
:103A40002B0000200CF00EFEF8BD2B1C252D00D9FC
:103A500025239DB22001001B80000830034B18185D
:103A60002A0031000AF0B2FDE0E7C046D81D002070
:103A700010B513000A0001000020FFF7AFFF10BDD2
:103A8000107003120F20184050700B011843507033
:103A9000091191707047000070B5124D8024240107
:103AA0002A0021002000FFF7EBFFEA1C2100200084
:103AB000FFF7E6FFAA1D21002000FFF7E1FF2A0023
:103AC000093221002000FFF7DBFF2A000C32210021
:103AD0002000FFF7D5FF2A000F3221002000FFF75A
:103AE000CFFF70BD1033002010B5402200210248E6
:103AF0000AF066FD10BDC04664230020014B18701B
:103B00007047C04678330020014B18737047C04699
:103B100064230020014B58737047C0466423002083
:103B2000074A0021535E107806490870023399B2A3
:103B30001BB21380FF2B01DDFF3911807047C04697
:103B40004C33002064230020024B1A78024B5A7039
:103B50007047C046D02C011064230020064B04227D
:103B60009A732F32DA73303A1A74013A5A74012177
:103B700019765A767047C0466423002010B5C4B247
:103B8000000A002307E019000E31044A54540131A1
:103B900050540233DBB20D2BF5D910BD6423002045
:103BA00010B503007F2800D97F2080B2002B08D0F9
:103BB0000AF057FB04490AF000FB04490AF0E2FA54
:103BC00010BD0248FCE7C046BA66934000002042A0
:103BD00010B503007F2800D97F2080B2002B08D0C9
:103BE0000AF03FFB04490AF0E8FA04490AF0CAFA6D
:103BF00010BD0248FCE7C046C56613410000A04264
:103C000010B503007F2800D97F2080B2002B05D09B
:103C10000AF027FB02490AF0BAFA10BD0020FCE7BF
:103C20000000FE42F8B5CE46474680B50300C17895
:103C30008A0937D0012A17D0022A07D00026371C5C
:103C40000023994698460025002447E04178090260
:103C500002780A439205940D002A23D1A146A0467A
:103C600025000026371C39E0807804025E78320097
:103C700022431205140D002A67D01B789A074ED1F3
:103C80007F220240904649007E252940C5090D4308
:103C9000F201FF2414409B081C4373089946002638
:103CA000371C1BE01C78E2073DD564085A78D10028
:103CB0007820084081469978C90008250D405209AE
:103CC0001543ED00254E0027002290465A78D20673
:103CD00001D5002291469B789B073CD40021381CDB
:103CE0000AF09CFA002803D02000FFF771FF071CA0
:103CF0000021301C0AF092FA002803D04046FFF75A
:103D00004FFF061C4846FFF77BFF041C2800FFF707
:103D100077FF031C321C211C381CFDF71DFAC0BCA8
:103D2000B946B046F8BD620890465A78D10078206E
:103D3000084081469978C90008250D40520915436D
:103D4000ED000026064F0024C0E7A146A04625004E
:103D50000026371CC2E70025C0E7C046000020430C
:103D60000000A0430A4B01221A7000225A7003324D
:103D70009A70084A117AD970D1791971917959716B
:103D8000517999711179D971D2781A727047C046F8
:103D900064230020C817002010B50400FFF7A4FE1C
:103DA0008120FFF7ABFE012C09D0064B1C70064B9F
:103DB00019784023034A00200DF066FB10BDFFF781
:103DC000D1FFF4E7642300207833002070B586B07B
:103DD0006C462A4B0433220070CB70C270CB70C289
:103DE000022837D0032841D00023002500E001330A
:103DF000052B10D8224AD2187D32FF3214780522C2
:103E0000D21A885C8442F2D01D4AD2187D32FF3229
:103E100010700125EBE7002D19D18120FFF774FE0A
:103E2000184801238373164B1A7AC273DA79027425
:103E30009A7942745A7982741A79C274DB7803755C
:103E40001530182269460AF0C1FB06B070BDFDF7B7
:103E500017FEE2E78120FFF757FE0A48022383732B
:103E60000F30102208490AF0B1FBEEE78120FFF77E
:103E70004BFE044B03229A73E7E7C046D02C011097
:103E8000C817002064230020E423002070B504003C
:103E90000E001500FFF728FE2120FFF72FFEFFF789
:103EA0003FFEFFF751FE2000FFF734FE482C4BD8B1
:103EB000A400304B1B599F468020FFF725FE0023AE
:103EC0004EE0F07A431E9841C0B200F041FFF27A12
:103ED000294B1A708020FFF717FEF0E731000C31F4
:103EE000F07AFFF773FFEAE78020FFF70DFEF27A22
:103EF000224B1A70E3E78220FFF706FEFFF72EFE43
:103F0000DDE78020FFF700FED9E79020FFF7FCFDFA
:103F1000F27BF17A307B00F019FAD0E7FEF74CFD26
:103F2000CDE78020FFF7F0FDC9E78320FFF7ECFD28
:103F30006420FFF723FEC2E78020FFF7E5FDBEE720
:103F40008020FFF7E1FDBAE70023AB4202D2013344
:103F50009BB2FAE78020FFF7D7FDB0E70133DBB271
:103F60001F2BFBD94023064A212100200DF08CFA9B
:103F700070BDC046AC2B011079330020B013002077
:103F80006423002070B50C00150010280DD0802887
:103F90000FD0012800D070BD881CFFF743FEA07A27
:103FA0002A002100FFF772FFF5E7881CFFF73AFEB1
:103FB000F1E74878FFF7F0FEEDE70000094B1B78CA
:103FC0000A2B07D00B2B09D0064B0A221A70054B7F
:103FD00018787047034B0B221A70F8E7014B0C223C
:103FE0001A70F4E7B113002070B504005D4B1B7824
:103FF000002B04D15C4B1B78302B0BD070BD5B4B7E
:104000001A885B4B18785B49FFF7BCFF554B0022C1
:104010001A70F3E7FFF768FD3020FFF76FFDFFF739
:104020007FFDFFF791FD544B1B78012B2DD0022B08
:1040300000D18AE02378514DAB706378EB70A378A0
:104040002B71E3786B7123790F210B40AB71607991
:10405000A3791B0203431B11EB71E3792B72237AC3
:1040600019406972617AA37A1B020B431B11AB7270
:10407000FFF7A4FFE872424B197840232A00002082
:104080000DF002FA02F0A2FAB8E700F007FD83781B
:104090003A4D2B73C3786B730378AB734378EB7330
:1040A00003792B7443796B74037AAB74437AEB74A2
:1040B00083792B75C3796B75837AAB75C37AEB758E
:1040C00000F0ECFC83782B76C3786B760378AB76C4
:1040D0004378EB7603792B7743796B77037AAB7769
:1040E000437AEB7782792023EA54C2790133EA5488
:1040F000827A0133EA54C27A0133EA5400F0CEFCEA
:1041000082782423EA54C2780133EA5402780133D6
:10411000EA5442780133EA5402790133EA5442798D
:104120000133EA54027A0133EA54427A0133EA5401
:1041300082790133EA54C2790133EA54827A013335
:10414000EA54C27A0133EA5474E70E4D280000F0B5
:1041500025F90A4B0C3307CD07C307CD07C307CD9D
:1041600007C367E77A330020B0130020AE130020A6
:104170007B330020A4230020793300206423002017
:1041800078330020AC2F002010B5054B01241C70A3
:10419000044B1870044B1A8004480AF017FA10BD3B
:1041A0007A3300207B330020AE130020A4230020AC
:1041B00010B5024B18180AF009FA10BD642300204C
:1041C000502800D1B0E003D960282FD0FF2010E0A4
:1041D000402800D9AAE0202805D34B2924D88B00F9
:1041E000564AD3589F46002803D0102800D09FE09D
:1041F000002070479520FCE70020FAE72A39504B51
:1042000059187D31FF310878F3E704394C4B5918C0
:104210007D31FF310878ECE70020EAE70020E8E78D
:104220006820E6E70020E4E70020E2E7A92979D842
:104230008B00444AD3589F46FF20DAE70220D8E794
:104240000120D6E72320D4E70020D2E7B920D0E729
:104250001A20CEE70120CCE70020CAE74020C8E7BB
:104260000020C6E74020C4E70020C2E74020C0E7A6
:104270000120BEE70020BCE70120BAE70020B8E734
:104280000120B6E70020B4E73B20B2E73420B0E7D6
:104290003B20AEE73420ACE73B20AAE73420A8E778
:1042A0003D39294B585CA4E73D39274B585CA0E7C2
:1042B0001A209EE71A209CE71A209AE75E2098E7CA
:1042C000012096E7502094E7FD2092E7002090E738
:1042D00000208EE7C6208CE70F208AE70F2088E7B2
:1042E000302086E7612084E7AE2082E7902080E7D7
:1042F000D9207EE7D4207CE714207AE7542078E7A1
:10430000412076E7152074E7542072E7C72070E754
:1043100079206EE79C206CE733206AE7362068E757
:10432000632066E7002064E7002062E7FF2060E783
:10433000FF205EE722205CE703205AE7EC2C011007
:10434000C81700201C2E011010330020F0B58BB0D0
:1043500006000F00150008A90F70487000248C702B
:10436000CC700A7105220E20FFF722FF00941A225A
:10437000002101A80AF024F907E03919C9B2300078
:10438000FFF71EFF6B4618550134A542F5DC2A00E5
:1043900069461320FFF70CFF0BB0F0BDF0B5DE4609
:1043A00057464E464546E0B585B004008379032262
:1043B00093430222134383710125002601E0013556
:1043C000EDB2032D0CD8724BAA00D058B200D158D0
:1043D0004900490809F040FF0028F0D02E00EEE720
:1043E000032333409A00A3790C218B431343A37119
:1043F000002509E06749404609F0DFFEAF0009F0FB
:1044000057FF01ABD8510135022D15DC721901326D
:10441000032313405E4F9B00D8599D21C90509F025
:10442000CCFE8046B300D859002109F0FFFE0028D9
:10443000E0D1FE218905DEE7019B9B12DB02D90A50
:104440000F2211400901A07902400A43A271D90B41
:10445000E171D90D2172DB0F012601210B40607A39
:10446000B04303436372029B9D127F208246054046
:104470006F00657A0D403D4365725B149B049B0C95
:10448000A3721B0A3F273B40E57A403885432B4304
:10449000E372039B9A129446032503226046104060
:1044A00080018446E07A074060460743E7721B13A9
:1044B0005B035F0BA774580DE0745B0F0720804609
:1044C00003409B46207D84460720814660464B463C
:1044D00098430300584618432075C3B24046034032
:1044E000237500236375A375E37D18308343E3755B
:1044F000E77D1F233B40E3750023A3772700E37F7D
:10450000AB43E377DBB21340E3771E37BB78B343AB
:10451000BB701F36A35D0B40A35521239C46E35C73
:104520005F36B34360462354194E33691940C901BD
:104530008946205C514601400800494601436046D7
:1045400021545B089B059B0D3B711B0A1340797935
:10455000A9430B437B712323E15C0A400C210A43EE
:10456000E254B38AA3701B0AE370F38A23701B0A18
:104570006370338B23711B0A6371336908333361B2
:1045800005B0F0BCBB46B246A946A046F0BDC04649
:10459000B4130020000080BFF0B5DE4657464E46FB
:1045A0004546E0B585B004000D00C3689A46CE6864
:1045B000311C181C09F001FE071C236898462B6863
:1045C0009B46191C404609F0F8FD011C381C09F0F7
:1045D000D4FD071C63686A689146111C0093181C7F
:1045E00009F0EBFD011C381C09F0C7FD0190A7681C
:1045F000AD68291C381C09F0E0FD011C019809F088
:10460000BCFD01905946504609F0D7FD0290414645
:10461000301C09F0D2FD011C029809F0B3FD029094
:10462000291C009809F0C9FD011C029809F0AAFD97
:104630000290391C484609F0C0FD011C029809F09F
:104640009CFD02904946504609F0B7FD0390291C95
:10465000404609F0B2FD011C039809F08EFD03905D
:104660000099301C09F0A9FD011C039809F08AFD8E
:104670000390391C584609F0A0FD011C039809F06D
:1046800081FD0390291C504609F097FD051C494601
:10469000404609F092FD011C281C09F073FD051C21
:1046A0000099584609F089FD011C281C09F065FD98
:1046B000051C391C301C09F080FD011C281C09F068
:1046C00061FD019BE360029B2360039B6360A0602C
:1046D00005B0F0BCBB46B246A946A046F0BD70B5D9
:1046E00004000168081C09F068FD051C6168081CCD
:1046F00009F063FD011C281C09F044FD051CA1689C
:10470000081C09F05AFD011C281C09F03BFD051C82
:10471000E168081C09F051FD011C281C09F032FD5C
:1047200009F00AFE011CFE20800509F030FD051C81
:10473000011C206809F041FD2060291C606809F017
:104740003CFD6060291CA06809F037FDA060291CB1
:10475000E06809F032FDE06070BD0000F0B5DE46B3
:1047600057464E464546E0B58DB08046944A93463E
:1047700000911268881A09F074FD041C4246127AEE
:104780004146487A000210430004001409F06EFD0F
:104790008C4909F012FD8C4909F0F9FC09F0C2FDC1
:1047A0008A4A8B4B08F06DFC00228A4B08F04BFCC8
:1047B0000022894B08F047FC06000F00201C09F07E
:1047C000B1FD04000D0002000B003000390008F0BC
:1047D00058FC08F01BFD8246424692794146C87952
:1047E000000210430004001409F040FD754909F06F
:1047F000E4FC754909F0CBFC09F094FD734A744B55
:1048000008F03FFC0022734B08F01DFC0022724BA5
:1048100008F019FC02000B002000290008F031FC10
:1048200008F0F4FC81464246927A4146C87A00027A
:1048300010430004001409F019FD624909F0BDFCA1
:10484000614909F0A4FC09F06DFD604A604B08F075
:1048500018FC00225F4B08F0F6FB00225E4B08F0CC
:10486000F2FB02000B002000290008F00AFC08F00F
:10487000CDFC051C5146504609F09FFC041C4946DE
:10488000484609F09AFC011C201C09F07BFC041C22
:10489000291C0195281C09F090FC011C201C09F022
:1048A00071FC09F03FFD04000D0002000B0008F050
:1048B000E8FB06000F000022484B0296039708F021
:1048C000C2FB06000F000022454B2000290008F023
:1048D000BAFB02000B003000390008F0A2FB0022F6
:1048E000404B08F0A7FB06000F0000223E4B029849
:1048F000039908F0A8FB029003910022FF239B0577
:104900002000290008F0BDFB02000B00029803996B
:1049100008F087FB0022354B08F08CFB04000D00EB
:104920001C22002105A809F04BFE504609F0FAFCB4
:1049300032003B0008F0A5FB08F068FC05904846F3
:1049400009F0F0FC32003B0008F09BFB08F05EFC35
:104950000690019809F0E6FC32003B0008F091FB5C
:1049600008F054FC07902000290008F04FFC089044
:104970001F4C05A92000FFF70FFE2000FFF7AFFE38
:104980004246117853781B020B431B041B14A3826D
:104990009178D3781B020B431B041B14E38211791B
:1049A00053791B020B431B041B1423835A46009BA1
:1049B00013600DB0F0BCBB46B246A946A046F0BDA0
:1049C0002C3000200000FA4400FEFF46182D44540D
:1049D000FB2109400080664080842E410000AE40EB
:1049E000000048400000E03F000078400000F03F39
:1049F000B4130020F0B5C64600B50400884623492C
:104A000023480DF0BDFD0028F9D0224E3368581C14
:104A1000032108F097F82578627812021E4F4800AB
:104A2000401883005B182A43FA54120AFB185A7084
:104A3000A078E278120202439A70120ADA702079A2
:104A40006279120202431A71120A5A71A079E2794C
:104A5000120202439A71120ADA71207A627A120201
:104A600002431A72120A5A72A07AE27A12020243BE
:104A70009A72120ADA72316041462000FFF76EFE28
:104A800003480DF055FD80BCB846F0BD941F0020D2
:104A900078160020901F0020681F002010B50949DB
:104AA00009480DF06DFD0028F9D0084B1C68064838
:104AB0000DF03EFD6000001980000019044B18182D
:104AC00010BDC046981F002078160020901F0020BF
:104AD000681F00204118CB0F5B185B108022520228
:104AE000914204DA044A914203DB18B2704703484A
:104AF000FCE70348FAE7C046FFFFFEFFFF7F000028
:104B00000080FFFF70B52848FDF7AAFE274D06225A
:104B10000021280009F054FDA81D0622002109F0FB
:104B20004FFD234B01221A70224BFA2292011A6088
:104B3000214B00221A70214E214C31002000FCF73D
:104B400061F80023E25E9C3D9C23EA540223E25E6E
:104B50009D23EA540423E25E9E23EA540623E25E88
:104B60009F23EA540823E25EA023EA540A23E25E6C
:104B7000A123EA540023F25EA223EA540223F25E48
:104B8000A323EA540423F25EA423EA540623F25E2C
:104B9000A523EA540823F25EA623EA540A23F25E10
:104BA000A723EA5470BDC0460000FFFF6418002030
:104BB00061330020641F002062330020541F002056
:104BC000341F002010B5084AE2235B00D05C0121AD
:104BD0004942FDF7D7FDFCF74DFFFCF751FF034BB2
:104BE00000221A7010BDC046C81700206133002093
:104BF000F8B552495248FCF705F8524B1B78002B88
:104C000000D160E0504C9C254D4E0023F15E605772
:104C1000FFF760FF605501350223F15E6057FFF733
:104C200059FF605501350423F15E6057FFF752FFCD
:104C3000605501350623F15E6057FFF74BFF605565
:104C400001350823F15E6057FFF744FF60550135D9
:104C50000A23F15E6057FFF73DFF6055A227374DED
:104C60000023E95EE057FFF735FFE05501370223E7
:104C7000E95EE057FFF72EFFE05501370423E95EB8
:104C8000E057FFF727FFE05501370623E95EE057BD
:104C9000FFF720FFE05501370823E95EE057FFF7F3
:104CA00019FFE05501370A23E95EE057FFF712FFCD
:104CB000E055002333732B73244A1368013B1360C0
:104CC000002B37D0F8BD1E4A0023D05E1E4B9C211E
:104CD00058540221505E9D2158540421505E9E215B
:104CE00058540621505E9F2158540821505EA0213F
:104CF00058540A21515EA1229954104A0021505E55
:104D0000A22158540221505EA32158540421505E20
:104D1000A42158540621505EA52158540821505E04
:104D2000A62158540A21515EA7229954054BA63A50
:104D30001A70C7E7FFF746FFC4E7C046541F0020BC
:104D4000341F002062330020C8170020641F002099
:104D5000014B18707047C04663330020F0B5C6465B
:104D600000B504004C4B1B78002B06D14B4B1B7835
:104D7000002B05D180BCB846F0BDFFF739FFF9E73D
:104D8000FA21474A8900FDF771FF0028F2D0454D0E
:104D900029004548FBF736FF2B7B002B03D0424B05
:104DA0001B7B002B0AD1404B1B7B002B00D06EE0FD
:104DB00000233D4A13733B4A1373DBE73A4B984693
:104DC00018883A4D9C23EB569BB2C01A354F398850
:104DD000A223EB569BB2C91A09B200B2FFF77AFEC2
:104DE000334E3080434658889D23EB569BB2C01A01
:104DF0007988A323EB569BB2C91A09B200B2FFF718
:104E000069FE7080434698889E23EB569BB2C01A79
:104E1000B988A423EB569BB2C91A09B200B2FFF7B6
:104E200059FEB0804346D8889F23EB569BB2C01AE8
:104E3000F988A523EB569BB2C91A09B200B2FFF755
:104E400049FEF08043461889A023EB569BB2C01A56
:104E50003989A623EB569BB2C91A09B200B2FFF7F3
:104E600039FE308143465889A123EB569BB2C01AC4
:104E70007989A723EB569BB2C91A09B200B2FFF792
:104E800029FE708121003000FFF7B4FD90E721007A
:104E90000548FFF7AFFD8BE7613300206333002047
:104EA000282F0020541F0020341F0020C817002086
:104EB000441F002004281ED00CDC012816D0002836
:104EC0000FDD0238C0B201280BD80D4B0B60083340
:104ED00013600AE0052804D10A4B0B600833136005
:104EE00003E0094B0B60083313607047074B0B60FE
:104EF00008331360F9E7064B0B6008331360F4E7DF
:104F00001019002030190020F0180020001900208E
:104F10002019002030B50F220D780F231D40047892
:104F200094432C4304704C781C40250104781C40A9
:104F30002C4304708D781D40447894432C43447076
:104F4000CC781C40250144781C402C4344700D79DA
:104F50001D40847894432C4384704C791C40250177
:104F600084781C402C4384708D791D40C478944310
:104F70002C43C470CC791C402501C4781C402C43C0
:104F8000C4700D7A1D40047994432C4304714C7A0B
:104F90001C40250104791C402C4304718D7A1D406E
:104FA000447994432C434471CC7A1C4025014479C4
:104FB0001C402C4344710D7B1D40847994432C4349
:104FC00084714C7B1C40250184791C402C438471E6
:104FD0008D7B1D40C479944322002A43C271CA7B51
:104FE0001A401201C1790B401343C37130BD0B78D5
:104FF0001B071B0F03700B781B0943704B781B07B3
:105000001B0F83704B781B09C3708B781B071B0F1A
:1050100003718B781B094371CB781B071B0F8371BE
:10502000CB781B09C3710B791B071B0F03720B791C
:105030001B0943724B791B071B0F83724B791B09AA
:10504000C3728B791B071B0F03738B791B09437387
:10505000CB791B071B0F8373CB791B09C373704775
:1050600070B50400144D154A2900FFF723FF2B6883
:10507000134A1168526819605A60042C12D0052C2A
:1050800015D0032C09D00D4B1B6800221A800A4B47
:1050900019680C48FFF7ABFF70BD084B1B680A4A44
:1050A0001A80F4E7054B1B68084A1A80EFE7034BA8
:1050B0001B68074A1A80EAE75C2100201C240020B4
:1050C000083101104021002000E1FFFF00C0FFFF78
:1050D00000CAFFFF10B50E4B19600E4B1A600E4B45
:1050E00018700E4C0E4A2100FFF7E4FE21680D4CAB
:1050F0002000FFF77CFFE37A0B3B5A1E93410A4ADC
:105100001370637A093B5A1E9341084A137010BD0D
:10511000581A00205C1A0020693300205C2100200E
:105120001C2400204021002068330020643300202C
:10513000024ABC235B00D0547047C046C817002009
:1051400010B5044B00221A70034B19680348FFF78F
:105150004EFF10BD543300205C2100204021002070
:1051600070B590B00500384C384E22003100FFF782
:10517000A1FE31683648FFF73AFFFFF7E1FF002351
:1051800000933C22002101A809F01AFAA6236A46DE
:105190001370557033681A781207120F69468A70B7
:1051A0001A781209CA705A781207120F0A715A78BF
:1051B00012094A719A781207120F8A719A781209A5
:1051C000CA71DA781207120F0A72DA7812094A7273
:1051D0001A791207120F8A721A791209CA725A7949
:1051E0001207120F0A735A7912094A739A79120731
:1051F000120F8A739A791209CA73DA791207120F99
:105200000A74DB791B094B74226813881B0A8B74A0
:105210001388CB740F4BBC2252009A5C0A75BD22D6
:1052200052009B5C4B75FA20000103F077F90028CF
:1052300001D110B070BD00200CF0D2FB40226946B5
:1052400000200CF0AFFBF4E7102400200C24002019
:10525000FC230020C817002070B50A0000210F2988
:1052600037D803000B41DB0714D40131C9B2F6E78C
:105270000133DBB20F2B0FD82A4AD05C2A4A1278AE
:105280009042F5D1294A14680120984022880243AF
:105290002280EDE70023EDE7224C23480378635496
:1052A000224B1D6801228A402B8893432B80027871
:1052B0001F4809F0F1FA1F4B00221A701E4B1868A4
:1052C0002100FFF727FE1D4B00201856FFF748FF6F
:1052D00070BD002AFCD0002401E00134E4B20F2CA0
:1052E00014D8104B1A5D104B1B789A42F5D121004F
:1052F000134809F0D1FA0D4B19680122A2400B881E
:1053000013430B800B4B00221A70E6E70A4B186818
:105310000449FFF7FFFD094B00201856FFF720FF57
:10532000D6E7C046FC230020533300201024002081
:10533000C4300110543300200C2400207C330020A2
:10534000E030011070B504000D00084E084A31002D
:10535000FFF7B0FD31680748FFF749FE064B1C70A8
:10536000064B1D70064B01221A7070BD0C240020E4
:1053700010240020FC2300207C3300205333002025
:105380005433002070B5D04B00221A809A70CF4B56
:105390001B78002B13D0CE4B1A6893789B07D90F3C
:1053A000002B03DA9378022083439370C84B1B6869
:1053B0001A78587800021043FFF74EFF70BD01F0D5
:1053C00021FC002826D0C24B19688A780124A24308
:1053D0008A7019688A78022082438A7019684A782C
:1053E0001025AA434A7019684A781035AA434A70B2
:1053F00019680A78A2430A7019680A7882430A7009
:1054000019680A78023082430A701A6813780821F2
:105410008B431370AC4B00229B5EAE4A12685178EE
:10542000C90600D527E1AA4909684978C906C90F04
:10543000A948007B814009B20B43A3490B805178F6
:10544000890600D519E1A249096849788906C90F7A
:10545000A148407B814009B20B439B4C23809C496F
:10546000096888788007C00F4000A5780226B543F8
:105470002843A0708878C007C50FA078013EB043CC
:105480002843A0701078C00700D5F8E00878C0075E
:10549000C00F914C2478A04000B203438A48038097
:1054A0001078800700D5ECE008788007C00F8A4CA0
:1054B0006478A04000B2034383480380107840071B
:1054C00000D5E0E008784007C00F834CA478A040E6
:1054D00000B203437C4803801078000700D5D4E075
:1054E00008780007C00F7C4CE478A04000B203436A
:1054F000754803801078C00600D5C8E00878C0065B
:10550000C00F754C2479A04000B203436E4803805D
:105510001078800600D5BCE008788006C00F6E4C7D
:105520006479A04000B203436748038010784006C6
:1055300000D5B0E008784006C00F674CA479A040C1
:1055400000B20343604803801078C00900D0A4E093
:105550000878C009604CE479A04000B203435A487F
:1055600003805078C00700D599E04878C007C00F85
:10557000594C247AA04000B203435348038050782A
:10558000400700D58DE048784007C00F524CA47A00
:10559000A04000B203434C4803805078800700D5F8
:1055A00081E048788007C00F4B4C647AA04000B27D
:1055B000034398B2444C2080800576D54748424D3D
:1055C000EC1CE870050A65700025A570000EE070FF
:1055D000507880076BD448788007C00F3E4C647ABF
:1055E000A04000B20343384803805078000760D4DD
:1055F00048780007C00F384CE47AA04000B203435B
:1056000098B2314C2080000555D534482E4DEC1D04
:10561000E871050A65700025A570000EE0705078ED
:1056200000074AD448780007C00F2B4CE47AA0400A
:1056300000B2034324480380507840063FD44878A2
:105640004006C00F244CA47BA04000B203431E4878
:1056500003805278D20934D14A78D2091E49C97BD5
:105660008A4012B2184913430B801D4B18680C2254
:1056700008F0ACFFA2E60021DEE60021ECE6002007
:105680000BE7002017E7002023E700202FE700208A
:105690003BE7002047E7002053E700205EE70020BB
:1056A0006AE7002076E7002082E7002087E70020F5
:1056B00098E70020A3E70020A8E70020B9E7002032
:1056C000C4E70022CEE7C04650210020543300201A
:1056D000581A00201C24002040210020FF0F000049
:1056E0005C1A002010B5054CA44660446244424355
:1056F0000819634458431018C00F10BD00F8FFFF8D
:1057000070B50C0008F0B2FD8A21C90508F035FD1E
:10571000051C200008F0AAFD8A21C90508F02DFD0E
:10572000041C291C281C08F048FD051C211C201CF9
:1057300008F043FD011C281C08F024FD08F0FCFDC6
:1057400070BD10B5031C081C0124191C08F074FD61
:10575000002800D10024E0B210BD10B504001300F1
:10576000406800280CDB0A00A168FFF7BBFF002897
:1057700000D110BD01235B426360A3600120F8E704
:105780000020F6E7F0B5D6464F464646C0B50600BF
:105790000D0091469846089CFFF7B2FF071C3C4954
:1057A00008F052FD002822D06660A5601423A38172
:1057B0002A0031002000FFF7D0FF002820D00C2263
:1057C000A35E002B1CDD0023A373012222766376E7
:1057D0002374E37380252D012E0027604B461E6045
:1057E00043461D60E0BCBA46B146A846F0BD0C2257
:1057F000A35E002B02D09BB2013B1BB2A381D7E773
:10580000237E002B2CD0237C0133DBB29A462374F9
:10581000391C2068FFF795FF00280BD00123A373E4
:10582000E37B0133E37353461D2B06D90023237614
:105830006376D2E70023E373F5E7E37B022B1FD9FE
:105840000023A37323760133637653460433A37492
:105850006660A5601423A38180252D012E00BCE77E
:10586000637E002BB9D0A37C013BDBB2A374002B79
:105870000AD1A3732376637680252D012E00ACE731
:1058800080252D012E00A8E780252D012E00A4E7FC
:105890000080224430B583B00D001400131D094A66
:1058A0000092220049682868FFF76CFF23000C3340
:1058B00022000832E968A868034C0094FFF762FFF1
:1058C00003B030BD802F00203030002010B5001113
:1058D000084A1378991C084C60540133DBB21370EA
:1058E0003D2B01D8002010BD130000221A700120AA
:1058F000F9E7C046603300201423002010B50C00E7
:10590000FA213D4A8900FDF7B1F900281DD03B4B33
:105910001B78002B12D13A4B1B78002B60D12368E7
:105920000B3BFF3B374A93422BD9374B1C60344B20
:1059300001221A70354B00221A7006E0324B1B68A8
:105940001868FFF7C3FF002800D110BD304BA52217
:105950001A702E4A12785A70FA20000102F0DEFD09
:10596000002805D10023254A1370254A1370ECE75F
:105970004022274900200CF015F800200CF030F8E8
:10598000F0E763680B3BFF3B1E4A934208D904349F
:105990001D4B1C6001231A4A13701C4A1370D4E774
:1059A000A3680B3BFF3B174A934209D90834164BB7
:1059B0001C60134B01221A70144B01321A70C4E799
:1059C000E3680B3BFF3B0F4A9342BED90C340E4BAE
:1059D0001C600B4B01221A700C4B02321A70B4E798
:1059E000094B1B681B680B3BFF3B064A9342ACD834
:1059F000024B01221A70A8E7682F002056330020BE
:105A00005E330020EB0D0000F031002075330020E4
:105A10001423002070B5041C0D000B78002B0AD055
:105A2000CE68011C301C08F00FFC002804D0686808
:105A3000211C08F0C2FB70BD311C201C08F09DFB2E
:105A4000A96808F0BAFB024908F09CFBF3E7C046DE
:105A50000000B44170B508F090FB4000400808F029
:105A600061FC04000D0002000B000020054907F056
:105A7000D8FA02000B00200029000CF0A9FD07F065
:105A8000C5FB70BD0080764070B5061C0C1C151C53
:105A9000111C201C08F0D0FB00280FD0311C201C4A
:105AA00008F0CAFB002807D0311C281C08F0CCFBEA
:105AB000002802D0012000E0002070BD311C201C15
:105AC00008F0BAFB002807D1311C281C08F0BCFBE9
:105AD000002803D00120F0E70120EEE70020ECE7EA
