:020000041000EA
:1000000000B5324B212058609868022188439860DF
:10001000D860186158612E4B002199600221596106
:100020000121F02299502B49196001219960352056
:1000300000F044F80222904214D00621196600F024
:1000400034F8196E01211966002018661A6600F04E
:100050002CF8196E196E196E052000F02FF8012189
:100060000842F9D1002199601B49196000215960AB
:100070001A491B48016001219960EB211966A021F2
:10008000196600F012F800219960164914480160C1
:100090000121996001BC002800D000471248134993
:1000A000086003C880F30888084703B5996A0420EC
:1000B0000142FBD001200142F8D103BD02B5186610
:1000C0001866FFF7F2FF186E186E02BD00000240BE
:1000D000000000180000070000035F00212200005C
:1000E000F4000018222000A00001001008ED00E03C
:1000F00000000000000000000000000074B24E7A12
:1001000000200420F7010010C3010010C5010010F9
:10011000C1010010C1010010C1010010C101001097
:10012000C1010010C1010010C1010010C701001081
:10013000C1010010C1010010C9010010CB01001065
:10014000CD010010CD010010CD010010CD01001037
:10015000CD010010CD010010CD010010CD01001027
:10016000CD010010CD010010CD010010CD01001017
:10017000CD010010CD010010CD010010CD01001007
:10018000CD010010CD010010CD010010CD010010F7
:10019000CD010010CD010010CD010010CD010010E7
:1001A000CD010010CD010010CD010010CD010010D7
:1001B000CD010010CD010010CD010010CD010010C7
:1001C00000BE00BE00BE00BE00BE00BEEFF3058054
:1001D000103800BEF2EB8871085A0110345A011031
:1001E0003402001090A31AE700201F49086006C8D7
:1001F00081F3088810471D48006800282FD10DA4FE
:100200000ECC002902D000F012F8F9E71849194A7B
:10021000002000E001C19142FCD1174988471749ED
:1002200088471749884700BEFDE701C901C29A42C5
:10023000FBD37047345A0110C0000020A8160020DC
:100240001C70011000000420000004201C7001102C
:10025000001004200010042000000000704709482E
:100260000CF056FD0047000008ED00E0000000D053
:10027000C8160020D433002099BA00100D080010D1
:1002800055BA00105756000006005250ABB36053E9
:10029000F84F011006005250861C0302085001104E
:1002A000060052505422A29D2450011005005250C5
:1002B000DE65F4681C700110F8B5C04610B5064C38
:1002C0002378002B07D1054B002B02D0044800E017
:1002D00000BF0123237010BDC819002000000000DA
:1002E00080280110044B10B5002B03D003490448AB
:1002F00000E000BF10BDC04600000000CC19002087
:100300008028011070B500290AD001248440D0252E
:100310002D06AC620022002109F02CFB6C6170BD3F
:1003200001248440D0252D066C620022002109F0B2
:1003300021FBAC61F3E7000010B504004378DB0754
:1003400013D463781022110019401A4203D0124BC3
:100350001B78002B0FD0002903D10F4B1B78002BEB
:1003600011D10A200AF068FC10BD002200210020F3
:100370000BF034FBE5E7084B0F3A1A7000210E2012
:10038000FFF7C0FFEDE701310E20FFF7BBFF024B87
:1003900000221A70E5E7C046C633002070B5002879
:1003A0000ED0D024240680252D05656164200AF036
:1003B00043FC0223636164200AF03EFCA56170BD2A
:1003C000D024240680252D05656164200AF034FCC4
:1003D0000223A36164200AF02FFCA561EFE710B5AA
:1003E000002804D001210E20FFF78CFF10BD002152
:1003F0000E20FFF787FFF9E710B5002001F015F98F
:100400000F2001F012F9062001F000F9082001F098
:10041000FDF80B2001F0FAF80C2001F0F7F80D20A0
:1004200001F0E4F80A2001F0E1F8072001F0DEF81D
:10043000092001F0DBF8184918480FF06FFB012183
:10044000122009F07FFA0121132009F07BFA012123
:10045000142009F077FA102009F0A6FAD024240617
:1004600080235B0263626361162009F09DFA80239A
:10047000DB0363626361112009F096FA80239B021B
:1004800063626361152009F08FFA80239B03636226
:10049000636100F0E1FC10BDC0C62D0000C0034048
:1004A000F8B5DE4657464E464546E0B50400D02630
:1004B000360680239B019846B361052000210AF08F
:1004C0008FFB7368DB0A01252B405A4253410127F9
:1004D0003B401B01227810218A4313432370736829
:1004E0001B0B2B405A4253413B405B01227820209A
:1004F00082431343237073689B092B405A42534134
:100500003B409B01227830318A4313432370736848
:100510001B0A2B405A425341DB0122783F310A40EB
:1005200013432370434673618023DB009B46B36112
:10053000052000210AF054FB73681B0B2B405A4224
:1005400053413B409B002278042189468A43134350
:1005500023707368DB0A2B405A4253413B40DB0057
:100560002278043188468A431343237073681B0A38
:100570002B405A4253413B405B00227806398A4661
:100580008A431343237073689B092B405A4253419B
:100590003B402278AA43134323705B467361802358
:1005A0009B46B361052000210AF01AFB73689B0982
:1005B0002B405A4253413B401B01627810218A4331
:1005C0001343637073681B0A2B405A4253413B40EC
:1005D0005B00A278504682431343A37073681B0BE1
:1005E0002B405A4253413B40A278AA431343A37085
:1005F0007368DB0A2B405A4253413B405B016278EF
:100600001E308243134363705B4673618133FF3353
:100610009B46B361052000210AF0E2FA73681B0AC9
:100620002B405A4253413B409B00627848468243EC
:100630001343637073681B0B2B405A4253413B407A
:100640006278AA431343637073689B092B405A4234
:1006500053413B405B0062785046824313436370D2
:100660007368DB0A2B405A4253413B40DB006278FF
:1006700040468243134363705B46736173682B404B
:100680005A425341DB016278773002401343637072
:100690007368DB0B2B405A4253413B409B0162780D
:1006A0003F3882431343637073689B081D406B425D
:1006B0005D413D40AD00A3784A4693431D43A5707C
:1006C00062783F23100098430300C03B59424B41DE
:1006D0001F40FF00EBB2404683431F43A770D20682
:1006E000D20F1201FBB210218B431A43A270F0BC4F
:1006F000BB46B246A946A046F8BD0000F0B5D646B6
:100700004F464646C0B584B0040003AF3B4B1A8841
:100710003A800023BB7002AE3280B37001AD2A80F4
:10072000AB7069460A808B70D0231B0698468023E5
:100730005B02994643464A469A61314B9A460323E7
:100740003A00D021504611F0FBFF43464A465A6119
:100750009A6103233200F021504611F0F1FF434625
:100760004A465A618023DB03994643464A469A61CA
:1007700003236A46F021504611F0E2FF43464A4601
:100780005A619A6103232A00D021504611F0D8FF04
:1007900043464A465A613B785B027A785200E02130
:1007A00009010B401343BA78D2091343236032780E
:1007B000520273785B000A401A43B378DB091A438C
:1007C00062602A7852026B785B000A401A43AB7869
:1007D000DB091A43A2606B461B785B026A465278BB
:1007E00052000B4013436A469278D2091343E360E8
:1007F00004B0E0BCBA46B146A846F0BD802801105E
:1008000000C0034010B500F03CFA10BD10B584B034
:100810000EF060F964200AF00FFAFFF7EDFD0E20EC
:1008200009F0C2F80020FFF7DAFD1B2009F0BCF840
:10083000D024240680231B056362A361012009F0F4
:10084000B3F802236362A361022009F0ADF8042328
:10085000A36200220121022009F08CF80C22002161
:1008600001A80DF0BFFF01A8FFF71AFE124B9B88ED
:100870006A46138063685B0703D401AB5B78DB07D0
:1008800013D401AB5B785B0709D5D0231B065B68EB
:100890005B0704D402236A4613700533537068461D
:1008A00000F0ACFD002004B010BD04480CF030FA9C
:1008B00003000021080098478028011055420000DD
:1008C000F0B5CE46474680B589B00400102200211D
:1008D00004A80DF087FF002160680DF0B1FD00282D
:1008E00005D00021E0680DF0ABFD002863D17B4B03
:1008F0001B78002B70D126687949301C0DF0BEFDA5
:10090000002800D0764E26607649301C0DF0A0FD00
:10091000002800D0734E2660A5687149281C0DF090
:10092000ADFD002800D06E4DA5606E49281C0DF06D
:100930008FFD002800D06B4DA560311C6A480DF07A
:1009400038FD8146291C68480DF033FD8046674B11
:100950001E6848460DF0F0FD80B2B3009B199B0065
:10096000634A94466344186123680493614B1D688D
:1009700040460DF0E1FD80B2AB005B199B005C4A84
:10098000944663441861A368069367680021381C85
:100990000DF074FD00282CD05749381C0DF058FD7F
:1009A000002800D0544F5549381C0DF067FD002831
:1009B00020D0524F1EE0524B0593079303AA514B90
:1009C00013800023009302335A214F480FF098FA06
:1009D000424B01221A7078E003AA4C4B1380002589
:1009E000009502235A2148480FF08AFA3B4B1D70AC
:1009F00081E70027E5680021281C0DF03FFD002855
:100A00000ED03D49281C0DF023FD002800D03A4DA2
:100A10003A49281C0DF032FD002802D0374D00E085
:100A200000254946381C0DF0DAFC041C4146281C00
:100A30000DF0D5FC051C201C0DF07EFD83B2B2002C
:100A40009219920032498C466244106843401B045C
:100A50001B0C802149010A4313600594254B1F6834
:100A6000281C0DF069FD0600281C0DF065FD80B204
:100A7000BB00DB199B00264A94466344002E29D014
:100A800010229040002E27D0224A1968484010407A
:100A900080225201134318600794144B19688B008D
:100AA0005B189B0012498C466344186801210C00B6
:100AB000844313431C600F4B186883001B189B0072
:100AC0006344186881431343196009B0C0BCB94638
:100AD000B046F0BD3200D4E70F4AD6E7C533002058
:100AE0000080A244000020420024F449303300205A
:100AF0000000054034330020CDCC4C3E6666663F96
:100B0000000080BF014000003816002001030000F3
:100B10000C0005400000FFFFFFFF000010B5FFF7CD
:100B2000CFFE10BD10B5134B1B78002B21D1114BFC
:100B300001221A7000240EE00F48104BC360A2007F
:100B40000F4BD3588360FFF7BBFE0AF0F5FE9620EB
:100B50000AF072F801341A2CEEDD96200AF06CF8D7
:100B600005480023C3604360FFF7AAFE014B002243
:100B70001A7010BDCD330020FC3000206666663F41
:100B80005013002030B589B0314B1B78002B01D0B9
:100B900009B030BD64200AF04FF801242C4B1C70C2
:100BA000192008F001FFD0231B06802292045A620C
:100BB0005A61182008F0F8FE0421182008F0C2FE3F
:100BC0000423244A1360244A1360244BFA2292001F
:100BD0005A655A6507AA1480214C00250095022306
:100BE0005A2120000FF08CF906AA1E4B13800095A5
:100BF00002235A2120000FF083F90A200AF01CF882
:100C000005AA194B1380009502235A2120000FF0EA
:100C100077F90A200AF010F804AA144B1380009503
:100C200002235A2120000FF06BF903AA104B138006
:100C3000009502235A2120000FF062F902AA0D4B01
:100C40001380009502235A2120000FF059F99FE7E5
:100C5000CC33002034330020303300200000054026
:100C6000381600201AF6FFFF1D81FFFF171900003C
:100C7000014000000103000010B5FFF753FF012001
:100C800010BD70470902084300B2704770B582B0CA
:100C9000D02424068025AD02A5616B4618715971D8
:100CA0000B4E022201A9300011F0AAFD656102205D
:100CB00009F0C2FF8025AD03A561022201A9300021
:100CC00011F09EFD6561022009F0B6FF02B070BD13
:100CD00000C00340F0B5DE4657464E464546E0B5F7
:100CE00085B006000D0001AC00230193082200210D
:100CF00002A80DF077FD03236B449A46A2235246C7
:100D00001370D0231B0698468027BF029F61514B6A
:100D1000994601225146180011F072FD0C23220061
:100D20000021484611F00CFD43465F616178207850
:100D3000FFF7A8FF80B2404283B2FF273840B0716E
:100D40001B0AF371E178A078FFF79CFF83B238406B
:100D500030721B0A737261792079FFF793FF83B2B7
:100D60003840B0721B0AF372E179A079FFF78AFF6D
:100D700080B2404283B2384030701B0A7370617A8F
:100D8000207AFFF77FFF83B23840B0701B0AF37000
:100D9000E17AA07AFFF776FF83B2384030711B0A00
:100DA000737180239B039B4643465A469A610122F6
:100DB0005146484611F024FD0C23220000214846EC
:100DC00011F0BEFC43465A465A6161782078FFF71D
:100DD00059FF83B23840A8711B0AEB71E178A07803
:100DE000FFF750FF80B2404283B2384028721B0A9E
:100DF0006B7261792079FFF745FF83B23840A872A2
:100E00001B0AEB72E179A079FFF73CFF83B238400F
:100E100028701B0A6B70617A207AFFF733FF80B26B
:100E2000404283B23840A8701B0AEB70E17AA07A86
:100E3000FFF728FF83B2384028711B0A6B7101232A
:100E400033732B7305B0F0BCBB46B246A946A0462F
:100E5000F0BDC04600C0034010B58C211020FFF744
:100E600015FF8C211120FFF711FF04211220FFF73D
:100E70000DFF06211320FFF709FF06211520FFF7BC
:100E800005FFE0211720FFF701FF10BDF0B5C646B2
:100E900000B5040004282DD005282FD0032803D046
:100EA000002080BCB846F0BD0527042398462000EA
:100EB00008F07AFD01263300A340D0252D06AB6251
:100EC00000220121200008F055FD404608F06CFD8D
:100ED0003300424693406B62AB61380008F064FD1A
:100EE0003300BB406B62AB616B68E3401E4209D0CC
:100EF0000120D6E7052703239846D8E703270423D4
:100F00009846D4E70020CCE710B50320FFF7BEFFDA
:100F100010BD10B50520FFF7B9FF10BD10B50420B6
:100F2000FFF7B4FF10BD000010B501210E20FFF740
:100F3000E9F99620800009F07FFE08F02BF9054BB7
:100F4000984202D0002802D110BD0020FCE7012009
:100F5000FAE7C046FFFF000010B501F03DFD10BDEF
:100F6000F0B5C64600B584B0142339E001330B2B2D
:100F700005D801AAD25C002AF8D00125F6E718208E
:100F800009F05AFE304BDB685B07FBD5D0263606EE
:100F90008027BF03B7612C4B984601226B46D91CB2
:100FA000404611F02DFC0C2301AA0021404611F00F
:100FB000C7FB77610C283ED10023002100E00133FC
:100FC0000B2B05D801AAD25C002AF8D00121F6E744
:100FD000002901D0002D31D1182009F02DFE230069
:100FE0005C1E002B29D0002301930822002102A8B7
:100FF0000DF0F8FB6B46A222DA70134BDB685B073F
:10100000FBD5D0252D068026B602AE610E4F0122FB
:101010006B46D91C380011F0F3FB0C2301AA002108
:10102000380011F08DFB6E610C2802D100230025E1
:101030009DE7002502E0002500E00025280004B01F
:1010400080BCB846F0BDC04600C0034070B584B057
:1010500003A9494B1A880A8000238B7002A90A80D1
:101060008B7001A90A808B7069460A808B700A24F4
:101070002300013C002B74D0D0231B068022520297
:101080009A613E4BDB685B07FBD5032303AAD021A3
:101090003A4811F055FB032866D1D0231B06802265
:1010A00052025A619A61354BDB685B07FBD503231B
:1010B00002AAF021314811F043FB032856D1D02376
:1010C0001B06802252025A618022D2039A612B4B66
:1010D000DB685B07FBD503236A46F021274811F044
:1010E0002FFB032844D1D0231B068022D2035A6150
:1010F0009A61224BDB685B07FBD5032301AAD02151
:101100001E4811F01DFB032834D1D0231B0680227A
:10111000D2035A610023002000260025002100E0B0
:101120000133022B14D803AAD25C002A00D001217B
:1011300001AAD25C002A00D0012602AAD25C002AB1
:1011400000D001256A46D25C002AE9D00120E7E7F9
:1011500000298DD0002D8BD0002E89D0002887D07B
:1011600000E0002004B070BD0020FBE70020F9E79C
:101170000020F7E70020F5E78828011000C00340B1
:1011800010B5FFF779FD10BD0120704770B582B032
:10119000FFF75CFF01AC0126012528400301207800
:1011A0001022904318432070FFF7D6FEC301227827
:1011B0007F20104018432070FFF7B6FE28408301BF
:1011C00020784022904318432070FFF7A7FE284064
:1011D000830020780422904318432070FFF794FE88
:1011E00003002B402078B04318432070FFF791FE96
:1011F0002840430020780222904318432070FFF7D4
:10120000C3FF2840C3002078082290431843207071
:10121000FFF7A6FE28404301207820229043184380
:101220002070FFF7ADFF05406078B043054365705F
:10123000208802B070BD000010B5041C0348046093
:1012400041608260C360FFF769FC10BDEC30002094
:101250007047704710B512E00C4B9A6A0C4B1A603D
:101260000C4811F075FA00F029FC094C206805F0D3
:1012700065FC206803F00AFE2068FFF7EAFF0649D4
:10128000044811F0A5FA0028E6D1ECE7004005403B
:10129000181F00206816002014240020014B002095
:1012A00018567047C013002010B5002803D1074B13
:1012B00000221A7010BD0120FFF770F80120FFF71F
:1012C0008EF8024B01221A70F4E7C0468A330020E0
:1012D00010B50020FFF783F80020FFF75FF8002229
:1012E000002100200AF07AFB10BD000010B5064B6B
:1012F0001B78002B00D010BD034B01221A70002078
:1013000001F0A8FAF7E7C046B233002010B52F4B22
:101310001B78002B30D02E492E4811F059FA0028A6
:1013200032D12D48FFF7BCF82C4B1B78002B33D162
:1013300004F0C0F82A4C2068274905F07FFC20689B
:1013400001F012FB07F0C2F9002832D0244C2068CB
:10135000244904F06BFB2068234A244907F0E2F992
:10136000234B1B785BB2012B2AD00AF0E5FA1C4B09
:101370001868FFF747FA10BD00211E480AF022FB4B
:10138000124B01221A70C6E71B4B9A6A144B1A6063
:10139000104811F0DDF9C4E70F48FEF7CDFF0AF061
:1013A000CBFA0F4C206801F0DFFA206801F092FCC4
:1013B000E1E70B4B18680D4A0B4900F0B1FCCFE791
:1013C000074B186801F086FCCFE7C046BB3300200E
:1013D0001024002068160020301A00208A330020D4
:1013E000181F0020F81900203C1A0020181A0020AD
:1013F000C01300204C1D00000040054070B5051EC4
:1014000000D1D0E001F0A7FC0400FEF7F5FF66492B
:1014100066480EF049FD03211C2008F093FA0321D1
:101420001D2008F08FFA6248FFF73AF800F0A2FB9F
:10143000002831D05E4E33005E4A5F495F4805F0B8
:1014400093F905F0CFFBB378DB062AD4FFF79AFBBC
:1014500002F09CFBE3B2012B29D0022B2CD00124FB
:101460002C57631C2FD00022AA56554B1A70504B94
:101470001B789A062BD45A063BD4DA063BD45AB2D0
:10148000002A3ADB5A073AD40A221A40022A38D0F4
:101490001B071DD503241BE032214A4801F0C8F97F
:1014A000C8E70622002148480DF09CF9CEE7444BDE
:1014B00002221A700024DAE723041B0F404A13703B
:1014C0002405240FD3E7414B02241C57CBE7062405
:1014D0003E4AE2235B00D65C394B1B785BB201339A
:1014E00011D06425E3B2062B40D8A300384AD35864
:1014F0009F460124ECE70024EAE70224E8E70524FC
:10150000E6E70424E4E701F077FB002804D12C4B44
:1015100002221A704625E5E7642001F01DFB284BE6
:1015200001221A706425DDE72A48322101F080F992
:101530002900300001F0A0F9214B0021595620006C
:1015400000F0FEFB1A4B9B789B0727D4224A1849D0
:10155000200003F057FE0DF0D7FD20480DF0C2FD2E
:10156000FFF7D4FEFCE7FF200006DEE71C48DCE7BF
:10157000FF200002D9E7124B00221A70FF2000045E
:101580001925D2E70E4B00221A7016480F25CCE71A
:101590000B4B00221A7014481925C6E70B4B9C70A0
:1015A00000F0E2FAD2E770BD400D030038160020CB
:1015B000301A0020F8190020181A0020081A0020FC
:1015C000C01300200000FF4D44190020C817002060
:1015D0008C28011000F115FF3C1A00205512001054
:1015E00000A1A1A100FF61000000FFE610B504000A
:1015F00008F0DAF900220121200008F0BBF90123EC
:10160000A340D02212065362536110BD10B50400EE
:1016100008F0CAF900220121200008F0ABF90123EB
:10162000A340D0221206936210BD10B5040008F04A
:10163000BBF900220121200008F09CF90123A340FE
:10164000D0221206936210BD094ABD235B00D35C11
:101650001A1C312B00D83222054BBD2149005A54A7
:10166000DA787A39FF398A43DA709B221A72704726
:10167000C817002070B5050014006A4B13800129BB
:1016800000D070BD0223C3569370D01CE91C062203
:101690000DF0AEF8EB68E3602B6923616B69636161
:1016A000AB69A36120001C3029001C3120220DF001
:1016B0009FF820003C3029003C3120220DF098F8A2
:1016C00020005C3029005C3120220DF091F82000D0
:1016D0007C3029007C3120220DF08AF820009C30DB
:1016E00029009C3106220DF083F82000A230290049
:1016F000A23106220DF07CF82000A8302900A83184
:1017000030220DF075F820002930FF302900D83143
:1017100010220DF06DF820003930FF302900E8313B
:1017200010220DF065F820004930FF302900F83113
:1017300010220DF05DF820005930FF3029000931EA
:10174000FF3110220DF054F820006930FF302900DD
:101750001931FF3110220DF04BF894235B00EA5C45
:101760005033E2542A23FF33EA5C7A23FF33E254F6
:101770004F3BEA5C5033E2542C23FF33EA5C7C237A
:10178000FF33E25420007D30FF3029002D31FF313E
:1017900006220DF02DF820008530FF30290035316C
:1017A000FF3120220DF024F82000A530FF30290061
:1017B0005531FF3120220DF01BF8BA235B00EA5CA3
:1017C0005033E2542000C930FF3029007931FF3115
:1017D00018220DF00DF8C8235B00EA5C5033E25488
:1017E0004E3BEA5A5033E2524E3BEA5A5033E252F1
:1017F0004E3BEA5A5033E2524E3BEA5A5033E252E1
:101800004E3BEA5A5033E2524E3BEA5A5033E252D0
:101810004E3BEA5A5033E2524E3BEA5A5033E252C0
:101820002FE7C04602A0FFFF064B984204D0064BAC
:10183000984203D1022070470120FCE7012040427A
:10184000F9E7C04601A0000002A0000010B5124850
:101850000DF034F9002407E0104B5B18D9781048DC
:101860000DF02CF90134E4B2052C0DD80DF020FF59
:101870002100C0B2094A1219D070002CECD113001B
:1018800001229043D870E7E7044B9B221A720A208A
:101890000DF0B0F810BDC046A8280110C8170020F0
:1018A000B8280110F0B5DE4657464E464546E0B52D
:1018B0006F4CA544FC256D002A00002102A80CF005
:1018C00091FF6C4B02AA1380059B0193DB0FDB0792
:1018D0008022120113430593069B0193DB0FDB0764
:1018E00013430693079B0193DB0FDB071343079317
:1018F000089B0193DB0FDB071A4308925E4F0A97A0
:101900005E4E0B965E4C0C945E480D905E490E91B7
:101910005E4A0F925E4B1093129713961494159093
:101920001691179218935B4B19931A931B931C9360
:101930001D931E931F9320932193802202A98B5005
:1019400004328B5004328B5004328B5004328B5053
:1019500004328B5004328B50FF231B049A46A82379
:101960000A005146D1504C4B9B46AC235946D150AE
:101970004A4B9946B0234946D150FF231B0698464F
:10198000B4234146D150FF2636020433D6500433E7
:10199000434A02A9CA50434F04330A00CF500433CC
:1019A0005146D15004334146D1500433D65004330C
:1019B0004946D1500433D6503B4BD82202A98B5014
:1019C00004328B5004328B5004328B50E823CF50BA
:1019D000B63B7A22FF328B5401328B54173AFF3ACE
:1019E000F121490002A842520231435202314252CF
:1019F0008532FF32010083522C4C2A0020000CF06B
:101A0000F7FE002003F0C4FB012003F0C1FB03201C
:101A100003F0BEFB042003F0BBFB052003F0B8FB82
:101A200020009C30062200210CF0DCFE2000A230B9
:101A3000062200210CF0D6FEFFF708FFE4235B002E
:101A40005246E25004335A46E25004334A46E250CA
:101A500004334246E2500433E6500433E750812316
:101A60009B009D44F0BCBB46B246A946A046F0BDD3
:101A7000FCFDFFFF02A0FFFF000034420000B44263
:101A80000000074300003443000061430000874327
:101A900000809D43000016440000FF4D0000FFE65B
:101AA00000F115FF00FF610000A1A1A1C8170020EF
:101AB000014B18787047C046C933002070B5204CE0
:101AC000A544204B1B78002B03D180235B019D4450
:101AD00070BD0DF031FBEFF3108672B61A4B1B7818
:101AE000002B24D1194C00230093194A002101A88E
:101AF0000CF078FEFC225200164968460CF078FE85
:101B000080256D012900200010F06AFE2A00694638
:101B1000200010F03DFE86F310880DF017FB0E4BF1
:101B20001B78002B06D1074B00221A70CDE79624B4
:101B30006403D8E706F08AFE074B00221A70F2E72A
:101B400000F0FFFFB0330020C933002000D01200A6
:101B5000FC0F0000C8170020BC330020014B0122FD
:101B60001A707047BC330020014B01221A70704775
:101B7000B033002070B5394B1888394B1D88FFF7FA
:101B800053FE04002800FFF74FFE0500631C0BD036
:101B9000022C0FD0022D0DD0012C2CDD012D2ADDC1
:101BA0000023002200262CE0431CF1D10023002258
:101BB000012626E0022C05D0022D0FD000230022A2
:101BC00000261EE0FC225200244926480CF010FE9C
:101BD000254B00221A700023002612E0FC2252003E
:101BE0001F4920480CF004FE1F4B01221A700023ED
:101BF0000022002605E00123012C15DDDBB20122C5
:101C00000026002E12D1002A23D0002B18D1164B0B
:101C100001221A70134A21001048FFF72BFD002003
:101C2000FFF7A2FF300070BD0023E7E70E4B002254
:101C30001A70FFF737FE0020FFF796FF0026F1E746
:101C4000094B00221A70074A29000548FFF712FDC8
:101C5000E5E7FFF7F9FC0126E4E7C04600D01210E3
:101C600000C01210C8170020C933002010B5031C93
:101C7000642800D9642303497A22FF328B54FEF78B
:101C800081FF10BDC817002010B5022817D008D852
:101C900000280DD001280FD10B4AF2235B00D1524E
:101CA0000AE0032808D1084AF4235B00D15203E07C
:101CB000054AF1235B00D15204F0E8F910BD024A55
:101CC000F3235B00D152F7E7C817002030B50F4C63
:101CD00040004508E068C00FC0072843E0604900A5
:101CE00048082169C90FC907014321615200510801
:101CF0006269D20FD2070A4362615B005A08A36986
:101D0000DB0FDB071343A36130BDC046C8170020BB
:101D1000062800DD0020014B98707047C81700208E
:101D200010B5034B1B68002B00D0984710BDC04670
:101D3000E41C0020014B0020185670479833002007
:101D400010B588B00400284B1870022910D00C225E
:101D5000002105A80CF046FD1022002101A80CF07E
:101D600041FDE3B2062B0BD8A400204B1B599F4624
:101D70001F4B204A1A6007F0ADFA0028E7D005E0B3
:101D80001B4B1D4A1A60002001F0B0F808B010BDCE
:101D9000174B194A1A60062001F0A8F8F6E7144B11
:101DA000154A1A60012001F0A1F8EFE7104B124A22
:101DB0001A60022001F09AF8E8E70D4B0F4A1A600A
:101DC00001AA05A90020FFF7ABFFDFE7084B0C4A8B
:101DD0001A6001AA05A90020FFF7A2FFD6E7044B6D
:101DE000084A1A60D2E7C04698330020E028011064
:101DF000E41C0020859500109D2F00108D750010AB
:101E0000197E0010A1830010F0B5C64600B590B051
:101E100004000D0016001F0016AB1B789846494BB6
:101E2000984200D188E00721380007F08BFD01239C
:101E300000933A00290020000DF026FD1022002119
:101E400008A80CF0CFFC80235B020893F8235B0208
:101E500009938023DB020A93C0231B030A931022F9
:101E600008A904A80CF0C4FCF31C059A0392364997
:101E70001140F20111431B0319430591079B039382
:101E8000DB00DB0880229205134307932F4B194098
:101E90000591102204A90CA80CF0AAFC0F9B039337
:101EA0002B4A1A40BF0217430F974346002B45D0D9
:101EB00020220E9B03932749194080239B020B434A
:101EC0005206F82189050A4013430E939B009B0894
:101ED0008022D20513430E93052009F08FFC1E4982
:101EE0000AF06AFF0CF0CFFA80460CF025FB87B2AF
:101EF000002F25D038000CF0C6FA011C40460CF02B
:101F00004EFA8721C9050CF06AFA0CF015FBC0B235
:101F100000023F0407430C970CAB3200290020005D
:101F20000DF004FD22680123AB409A431343236064
:101F300010B080BCB846F0BD062175E71822B8E79E
:101F40000020E5E7000020507F00FEFFFFFFFF9F1D
:101F5000FF83FFFFFFFFF5C10050C300014B0122CB
:101F60001A707047A733002070B5254B1B78002BE3
:101F700017D1244B00221A70214B01321A70002411
:101F80001F2C09D80DF094FB06210AF015FF1E4BFB
:101F900019550134E4B2F3E71C4B00221A700024F7
:101FA00028E01A4B1B78002BF9D1194B1B789A00AB
:101FB0009B18FA2B00D9FA23FF221A40FF239B1A01
:101FC0009BB2144A1380144A1380104B01221A70DA
:101FD000E5E70D4D2B5D72339B00104A9958A20026
:101FE0000F4BD1500DF064FB06210AF0E5FE295598
:101FF0000134E4B21F2CECD9FFF7B0FF70BDC0462E
:10200000A633002092330020FC1C0020E5130020A2
:10201000E3130020803300207C330020C817002009
:102020005C220020034B1980034B1860034B0022F5
:102030001A7070477E33002050210020A433002006
:1020400070B505000C0000880CF01DFA1B490CF05F
:10205000B0F91B490CF0C3F90CF06EFAC2B22B793F
:10206000A978C943C9B25943090A5B1ADBB23F25B3
:1020700028402D1AEDB2584380096B439B11DBB207
:102080000818C0B2CB18DBB23F2A10D9403AD2B2FE
:102090003F2A06D81A060B061B0A000213431843F0
:1020A0000AE0090600041B020843184304E0000686
:1020B0001B04090218430843206070BD00007F43E1
:1020C00000003F43F8B5CE46474680B50400234B99
:1020D0001D78002D05D100230360C0BCB946B04671
:1020E000F8BD642DF9D08778E678B81963789846FA
:1020F000C0180CF0CDF91A490CF05BF981462800A4
:102100000CF0C1F917490CF054F9051C011C4846A4
:102110000CF0A4F90028E0D14946281C0CF049F93C
:10212000051C38000CF0AFF9291C0CF058F90CF024
:1021300003FAA07030000CF0A6F9291C0CF04FF93E
:102140000CF0FAF9E07040460CF09DF9291C0CF0F7
:1021500046F90CF0F1F96070BFE7C046E2130020C9
:1021600000007F430000C842F0B5D6464F464646C1
:10217000C0B504000368002B35D083789846C77833
:10218000D819667880190CF083F9051C40460CF0CC
:102190007AF98046291C0CF00CF9824638000CF0C4
:1021A00072F9071C291C0CF004F9814630000CF070
:1021B0006AF9061C291C0CF0FCF8051C5146404627
:1021C0000CF00DF90CF0B8F9A0704946381C0CF071
:1021D00006F90CF0B1F9E070291C301C0CF0FFF886
:1021E0000CF0AAF96070E0BCBA46B146A846F0BD52
:1021F00030B585B01D4B1B78002B0FD100241F2C50
:1022000009D80DF055FAFF210AF0D6FD184B1955E3
:102210000134E4B2F3E7154B01221A7000241FE0E9
:10222000134D2B5D134A1078C018FF210AF09CFD56
:10223000C9B2295502A80180FF234380838000236F
:10224000019301A9FFF7FCFE01A8FFF73BFF0A4B32
:10225000A000019AC250C018FFF786FF0134E4B213
:102260001F2CDDD9FFF77AFE05B030BDA633002064
:102270000C210020E31300205C22002000220AE051
:10228000930006495958064B5B68DB03FBD4044BAB
:1022900019610132D2B21F2AF2D9704754210020AD
:1022A00000002050F8B5DE4657464E464546E0B59C
:1022B00006000D00141C80780CF0E5F88046F078DC
:1022C0000CF0E1F8071C70780CF0DDF8061CA8781B
:1022D0000CF0D9F88346E8780CF0D5F88246687897
:1022E0000CF0D1F88146414658460CF058F8211CB4
:1022F0000CF075F841460CF057F8051C391C504697
:102300000CF04DF8211C0CF06AF8391C0CF04CF85C
:10231000071C311C48460CF042F8211C0CF05FF8F9
:10232000311C0CF041F8061C281C0CF005F9C5B254
:10233000381C0CF001F9C4B2301C0CF0FDF8C0B22E
:102340002D040002240628432043F0BCBB46B246BD
:10235000A946A046F8BD0000014B18707047C04662
:10236000A9330020F8B5274B1D8828000CF090F801
:10237000011CFE2080050CF01CF8041C224B1B786D
:10238000002B0BD08022214921480CF031FA002388
:10239000204A13701C4A13701F4A13701D4B1E787D
:1023A000B54204D21C4B187800281ED0F8BD30006E
:1023B0000CF069F8211C0CF012F8051C00240BE04D
:1023C000A70016497918124838182A1CFFF76AFF27
:1023D0000E4BD8510134E4B21F2CF1D901360D4B0C
:1023E0001E70FFF74BFF0020E0E780220B490748F3
:1023F0000CF0FEF9FFF742FF074B01221A70012093
:10240000D4E7C0467C330020A733002054210020AD
:10241000DC210020E7130020E41300205C220020D0
:10242000F0B5C64600B506000F001500984600241A
:102430000AE0335D9B004246EA50305D8000281878
:10244000FFF792FE0134E4B2BC42F2D380BCB8463E
:10245000F0BD0000031C642800D96423014A1370F6
:102460007047C046E213002030B583B00500002459
:102470000CE0019501A8FFF725FE064BA000019A8C
:10248000C250C018FFF770FE0134E4B21F2CF0D91F
:1024900003B030BD5C22002010B509480388094A0A
:1024A00012789B18FF2213400380074C2100FFF78E
:1024B000C7FD2068FFF7D8FFFFF750FD10BDC046ED
:1024C000DC130020E31300200821002010B51A4B74
:1024D0001B78002B17D1194A1370174A012111706C
:1024E000174A1370154C237872339B00154A98587D
:1024F000FFF7BAFF2078013006210AF035FC217081
:10250000FFF72CFD10BD0E4B1B78002BEAD10E4BB4
:102510001B789A009B18FA2B00D9FA23FF221A4045
:10252000FF239B1A9BB2094A1380094A1380044B6C
:1025300001221A70D6E7C046A6330020923300204D
:10254000E6130020C8170020E3130020803300208A
:102550007C33002010B50F4B1B78002B10D10E4B95
:102560001B68002B02D10C4B0C4A1A600A4B1868EE
:10257000FFF77AFFFFF7F2FC064B01221A7010BD3D
:102580000020FFF771FFFFF7E9FC024B00221A70F1
:10259000F5E7C046C4330020D42100200000FFE648
:1025A00010B5164B1C78002C05D0154B1B78002B52
:1025B00017D0200010BD8022124913480CF018F9E2
:1025C000124B1868FFF750FF114B1A88114B1A80F5
:1025D000FFF7C4FC094B01221A70094B00221A7044
:1025E000E7E7802208490C480CF002F9FFF7B6FC37
:1025F000034A137801331370DBE7C046A43300208D
:10260000CE330020542100206C300020D82100203F
:102610007E3300207C3300205C22002070B50E4BFE
:102620001C78002C08D00D4B1D78002D11D0FEF722
:102630004FFE2C00200070BD0020FFF715FFFFF7B4
:102640008DFC074B1A88074B1A80034B01221A7026
:10265000F0E700F02BFAEDE7A4330020AA330020C6
:102660007E3300207C33002070B50C000F2803D887
:102670008000294B1B589F460126284D2EE004263A
:10268000274D2BE00426274D28E00126264D25E086
:102690000126264D22E00126254D1FE00126254D6D
:1026A0001CE00126244D19E00126244D16E00126E8
:1026B000234D13E00126234D10E00126224D0DE0AD
:1026C0000126224D0AE00126214D07E00126214D79
:1026D00004E00126204D01E00426104D002A12D00E
:1026E00023001E4A31002800FFF79AFE23001C4AEF
:1026F00031002800FFF794FE23001A4A3100280019
:10270000FFF78EFE70BD2300154A31002800FFF749
:1027100087FEFFF723FCF5E7FC2801108029011054
:102720006C29011060290110702901105C29011029
:1027300064290110782901108829011084290110C9
:102740005429011058290110682901108C29011001
:102750007C2901109029011074290110DC2100202E
:102760005C2200205421002070B50C4B19684022D7
:102770000B480CF03DF800240CE0A300084DED18C8
:102780002800FFF79FFC296800222000FFF76CFF5C
:102790000134E4B20F2CF0D970BDC046DC22002019
:1027A000E022002010B5024B1860FFF7DDFF10BDDE
:1027B000DC22002010B5074B1B78002B00D010BD89
:1027C0000548FFF7EFFFFFF7C9FB024B01221A7024
:1027D000F5E7C046A6330020701800200F4AF0230A
:1027E0005B00D35C834209D0002B03D1E133FF337C
:1027F0000521D154094AF0235B00D054074AF02345
:102800005B00D25C064B1A701523064A1380064AF9
:102810001380064B00221A707047C046C81700206C
:10282000E3130020803300207C330020A6330020F7
:1028300010B5054B18604908044C2000FFF7F2FB67
:10284000034B1C6010BDC046D8210020A1250010FC
:102850005021002010B5054B1870054B00221A605E
:102860000A210448FFF7DEFB10BDC046AA33002052
:102870004C2100201D26001070B582B004000D0010
:10288000254B1B78002B0CD0244B1C700023244AB2
:102890001370244A1370052C16D8A400224B1B5920
:1028A0009F46224E224930000CF0D2FF0200002346
:1028B0000093173300213000FFF7A6FA164B0122D0
:1028C0001A70FFF7DBFCDFE71A4B1B4A1A601B4A42
:1028D000F0235B00D05CFFF781FF002D15DA02B01A
:1028E00070BD144B164A1A60F1E7124B154A1A6074
:1028F000EDE7104B144A1A60E9E70E4B134A1A60D1
:10290000E5E70C4B124A1A60E1E7FF2D00DDFF25D9
:10291000E8B2FFF79FFDE2E7A8330020A5330020CF
:10292000A6330020AB3300203C29011000002050CA
:10293000942901104C210020B5270010C817002051
:1029400099240010F121001055250010CD2400100D
:10295000691F001010B5034B186064210520FFF7B4
:102960008BFF10BDD421002010B5144A144900F08B
:10297000F7F9002800D110BDFFF7F4FC002803D1BF
:10298000104B1B78002BF6D00F4B1B68002B0ED082
:1029900098470028EFD000240B4B1C600B4AF02313
:1029A0005B00D05CFFF71AFF094B1C70E3E7094B93
:1029B0001B68002BDFD09847DDE7C0463C2F002086
:1029C0001A410000AB33002050210020C81700201E
:1029D000A63300204C21002000B587B02C4B1B787B
:1029E00005AA137004AA137008F0F6F902000B1E72
:1029F0002CDB2848002112184B41002B2CDB002B2C
:102A00002EDB029203930123009305AA6A21224838
:102A10000DF082FA08F0E0F902000B1E26DB1D48DB
:102A2000002112184B41002B26DB002B28DB0292E1
:102A3000039300230093013304AA6A2116480DF082
:102A40008AFA002822DD012007B000BD134B144A8A
:102A50003F21144809F002F801225242124BCEE7FE
:102A60000E4B0F4A3F210F4808F0F8FF0B4B0C4A62
:102A70003F210C4808F0F2FF012252420A4BD4E7F2
:102A8000064B074A3F21074808F0E8FF0020DBE734
:102A9000483301101027000038160020A429011027
:102AA000242A0110C0290110FFFFFF7F10B586B056
:102AB0000020FDF794FC00241CE0204B204A3F211D
:102AC000204808F0CBFF002B28DB02920393002361
:102AD0000093023305AA6A211B480DF01DFA040079
:102AE000831C21D0431C22D0FA20800008F0A4F8D7
:102AF000FEF7EEFB002C1DD105AB144A1A8008F03E
:102B00006BF902000B1ED8DB1148002112184B4153
:102B1000002BD8DA012252420E4BD4E7074B084A69
:102B20003F21084808F09AFFFEF7D2FBDCE7FEF7EA
:102B3000CFFBD9E7FEF7CCFB06B010BDA4290110EE
:102B4000242A0110C0290110381600200941000074
:102B500010270000FFFFFF7F00B587B0232821D892
:102B6000C0B20538C0B27F23184005AB04221A70EA
:102B7000587008F031F902000B1E20DB18480021C4
:102B800012184B41002B20DB002B22DB0292039317
:102B900000230093023305AA6A2112480DF0BCF904
:102BA00007B000BDAF235B00984200D91800283859
:102BB0000A210AF0D9F8C0B21F30C0B2D3E70A4BDD
:102BC0000A4A3F210A4808F049FF01225242094BB4
:102BD000DAE7054B054A3F21054808F03FFFC046AC
:102BE0001027000038160020A4290110242A011003
:102BF000C0290110FFFFFF7F00B587B02E4B1B7867
:102C000005AA137004AA137008F0E6F802000B1E60
:102C100030DB2A48002112184B41002B30DB002BFF
:102C200032DB029203930123009305AA6A21244810
:102C30000DF072F908F0D0F802000B1E2ADB1F48D5
:102C4000002112184B41002B2ADB002B2CDB0292B7
:102C5000039300230093013304AA6A2118480DF05E
:102C60007AF90230012825D904AB1878C007C00FC3
:102C700007B000BD134B144A3F21144808F0EEFE84
:102C800001225242124BCAE70E4B0F4A3F210F4816
:102C900008F0E4FE0B4B0C4A3F210C4808F0DEFE26
:102CA000012252420A4BD0E7064B074A3F21074810
:102CB00008F0D4FE0120DBE74833011010270000A4
:102CC00038160020A4290110242A0110C02901105F
:102CD000FFFFFF7F10B5FA21074A090200F040F814
:102CE000002800D110BDFFF787FF044B18700028A3
:102CF000F8D1FEF7FBFAF5E7742F0020903300209F
:102D000010B500220021002008F068FEFEE7000058
:102D1000072804D88000024B9C466044016070473D
:102D20000C80054010B5072802D90024200010BDF2
:102D30008000044B9C466044046800210520FFF796
:102D4000E7FFF3E70C80054010B501000520FFF711
:102D5000DFFFFFF7D5FF10B50520FFF7E3FF10BD3C
:102D600010605368834205D9C31A013B8B4205D2D8
:102D700000207047834204D2C31AF7E75060012055
:102D8000F7E70020F5E730B51860002A0BD15C6842
:102D900084420BD9041B013C0025002D0BD1A1421C
:102DA00009D9100030BD58600020FBE7844205D2ED
:102DB000041B0025F1E758600120F3E71000F1E75C
:102DC00010B5FEF7B7FF022801D0024810BD024837
:102DD000FCE7C0463C2A01102C2B011010B5002046
:102DE0000EF03CFC10BD000010B5102106480FF09D
:102DF000FFFC002800D110BD044B01221A700248CC
:102E00000FF0A6FCF7E7C04670160020B93300208B
:102E100010B5102106480FF0EBFC002800D110BDC2
:102E2000044B00221A7002480FF092FCF7E7C046EC
:102E300070160020B933002070B5050064210D48DC
:102E40000FF06EFC041E09D10B4B22000B49280029
:102E5000FFF799FF051E08D1200070BD084B1C78B4
:102E6000E4B204480FF074FCEEE7FFF7BDFF2C005E
:102E7000F2E7C046701600200C310020A086010049
:102E8000B9330020037801330370044B1B785BB225
:102E9000022B01D0024870470248FCE7A41400202E
:102EA000702C0110A82D01100C4B18600C4B98428F
:102EB0000BD00C4B98420CD0FA235B00984200D008
:102EC0007047094B01221A60FAE7074B04221A6087
:102ED000F6E7054B08221A60F2E7C04644240020BA
:102EE000461000008D2000003C24002010B5040096
:102EF000002001F0C5FF022C2CD0062C1DD0012C87
:102F000010D0012001F0BCFF1848FFF7CDFF184B8F
:102F1000184A1A60184B194A1A60194B1C700EF0A7
:102F2000A9FF10BDFA204000FFF7BEFF104B154A65
:102F30001A60114B144A1A60EFE7012001F0A0FF5C
:102F40001248FFF7B1FF0A4B114A1A600A4B0B4AAD
:102F50001A60E2E7FA204000FFF7A6FF044B0D4A93
:102F60001A60054B0C4A1A60D7E7C0468D20000056
:102F7000402400203185001048240020DD2D001061
:102F8000A41400200D9000103936001046100000E7
:102F900071970010516D0010C53A0010F8B5060089
:102FA0000C0015000120002140420DF0CBFE234B08
:102FB0009F6C234B1B68BB421CD2FB1A214A126830
:102FC0009A4202D8204B01221A70204B1968204ADD
:102FD0003000FFF7C5FE002802D01E4B01221A70F8
:102FE0001D4B1B78002B0AD11C4B1B6898471A4BB2
:102FF0001870F8BDFB1A1A4A94466344DEE73000A5
:10300000FFF71AFF0028F4D00F4B1B78002BF0D0ED
:10301000104B1B78002BECD0094B1F6000230A4A91
:1030200013700C4A13700C4A1370FFF7F1FE0D4B2E
:103030001B68290020009847DBE7C04600001150BC
:10304000382B00203C240020C833002044240020DA
:1030500074330020D1330020BA33002048240020EC
:10306000FF07000040240020084B1B785BB2022BB6
:1030700007D0062B07D0012B01D005487047054823
:10308000FCE70548FAE70548F8E7C046A414002025
:1030900048350110B82C0110942D0110243E011068
:1030A000084B1B785BB2022B07D0062B07D0012BF5
:1030B00001D0054870470548FCE70548FAE7054890
:1030C000F8E7C046A414002008350110882C011030
:1030D000682D0110F83D01100020704710B5134B0A
:1030E0001B785BB2022B13D0062B18D0002B05D017
:1030F0000B78002B0FD1FFF777FE0CE00B78302B0D
:1031000003D0212B01D0812B05D1FFF76DFE02E00A
:103110000B78212B00D010BDFFF766FEFBE70B7884
:10312000012BF8D1FFF760FEF5E7C046A41400209C
:1031300070B504AC25882E4C247864B2012C2DD0B7
:10314000022C12D0002C00D070BD0029FCD1002A26
:10315000FAD11878102804D02A00190001F0ACF830
:10316000F2E7981C00F0D8FDEEE70029ECD1002A28
:10317000EAD11A78112A05D0132AE5D11D480BF09F
:103180009DFCE1E75B78002B06D01B490B1C1B4A1A
:103190001B48FEF751F8D7E70021F7E70029D3D104
:1031A000002AD1D11A78002ACED15A78082ACBD158
:1031B000DA78002A02D11979002911D01B79101C64
:1031C0009A4200D2181CC0B20BF05DF90D490BF009
:1031D000F0F8011C031C094A0948FEF72DF8B3E773
:1031E0000020031C021C011CFEF726F8ACE7C046B9
:1031F000A4140020F02B01106666263F0000204238
:103200000000F04200007F43064B1B785BB2022BAC
:1032100003D0062B03D1044870470448FCE7044858
:10322000FAE7C046A4140020383E0110FC2C01101F
:103230005C35011070B5EE2824D0002825D0800020
:103240001E4BC55828000FF03BFAC0B21F2800D90A
:103250001F20002327E05A1C194CA15C0902E25CE4
:103260000A4344001749625202330130112BF2D94C
:10327000154A144B13CB13C211001A680A609B88BD
:103280008B8019E000200023F0E70C4B1968022224
:103290000E480BF0ADFA012007E05A1CEC5C51001F
:1032A000094BCC52D3B29842F7D801304000C0232A
:1032B0009B001843044B1880034870BDC8130020BE
:1032C000342C0110E4190020241D0020261D0020AC
:1032D00000B591B04022694600200EF04DFC002060
:1032E0000EF060FC064B1B785BB2002B01D011B0D6
:1032F00000BD04480BF0B2FB684605F0CBFAF6E7D8
:10330000A4140020082C0110F0B583B005001400AF
:10331000012966D113785B069B0F012B58D0022B35
:1033200003D0002B01D000205CE06378022B24D076
:10333000072B03D0012B19D0002053E022796379A9
:103340001B021343042B03D0052B08D0002049E0B7
:103350002433264A210028000DF018FE42E08D3368
:10336000234A210028000DF011FE3BE02723214ACB
:10337000210028000DF00AFE34E0227963791B0257
:103380001343072B30D11C4B1B785BB2022B0FD0A1
:103390006B469F1D194E0222310038000BF028FAAF
:1033A0003B883200083A210028000DF0EFFD19E0BB
:1033B0006B469F1D124E0222310038000BF018FAA6
:1033C0003B883200083A210028000DF0DFFD09E0BB
:1033D00051780C480BF072FB210028000DF0BAFD6B
:1033E00000E0012003B0F0BD0020FBE77C140020CA
:1033F000E8130020482C0110A4140020802A01109A
:10340000582B0110202C0110012815D0022907D0BB
:1034100000290BD1022A29D0002A29D00620704782
:10342000022A1FD0002A1FD00800F8E7022A21D064
:10343000002A21D00820F2E7022907D000290BD169
:10344000022A1FD0002A1FD00720E8E7022A15D041
:10345000002A15D00320E2E7022AE0D0002A15D086
:103460000020DCE70120DAE70320D8E70720D6E7D1
:103470000520D4E70020D2E70420D0E71000CEE7F3
:103480000420CCE70820CAE70620C8E70520C6E7E5
:103490000120704710B58422002102480BF0A2F9E8
:1034A00010BDC0466828002010B50020FFF7F2FFCD
:1034B00010BD0000F0B5C64600B580460D008B7902
:1034C0005D2B24D10B79DF00FF1ABFB21937BFB2D1
:1034D000974221D80C780C19002605E0104A537049
:1034E0000136F6B22378E4182B79B34210D9637809
:1034F000052BF7D1210040460DF052F900280DD0E0
:10350000A378DA09012AE9D0054A9370E8E7002791
:10351000380080BCB846F0BD0027F9E70027F7E780
:103520006828002030B583B00400144840788842F1
:1035300006D0124A92788A420CD0012003B030BDE6
:103540000F4A002A18D09AB20E490020FFF7C6FD94
:103550000120F3E70C4D9BB200932B0000220021C9
:103560000020FFF7E5FD2B00443B997840232A001B
:1035700020000DF089F9E1E70120DFE7682800204D
:10358000DD3000106C280020AC28002010B50DF0B4
:103590006BF8002803D10023002B08D110BD0DF0DB
:1035A0006BF8002801D10123F6E70023F4E70B4B69
:1035B000997800200DF0A4F90028EFD1074CA178EC
:1035C0000DF03AF922004432A178402300200DF09A
:1035D0005BF9A17800200DF043F9DFE768280020AF
:1035E00070B505000C000DF047F8002806D18121C8
:1035F00000200DF021F9002803D170BD0DF044F832
:10360000F5E7231C402C00D940239CB2094E220030
:10361000290030000BF0ECF8351F697823003200E8
:1036200000200DF031F9697800200DF019F9FFF74D
:10363000ADFFE2E76C28002010B5104B5C780DF070
:1036400013F8002806D10023002B13D0002C09D139
:10365000002010E00DF010F8002801D10123F3E75D
:103660000023F1E7210000200DF04AF9002803D1E2
:10367000013000E0002010BD0020FCE76828002099
:1036800010B53C22002102480BF0ACF810BDC0463A
:10369000C01D002010B50020FFF7F2FF10BD000094
:1036A000F0B583B006000F001500FEF743FB0228BB
:1036B0004CD13B79DC00E41AA4B21234A4B2AC427F
:1036C00048D80023002B09D00025002D44D039789C
:1036D00079184B78212B11D0002438E01A01D21A26
:1036E00092001F4882185278002A02D00133DBB2C0
:1036F000E8E71A01D11A89004518E6E7A9630B78B3
:10370000C9183A796B1C0193AB1C0093032330005A
:103710000DF060F8002821D0BB79012B13D00123D4
:103720002B71BB782B70AA6BD179137A1B020B43D8
:10373000EB80A97800290AD02A0030320623300015
:103740000DF0A2F803E0FB79EB70E8E7002420001D
:1037500003B0F0BD0024FAE70024F8E70024F6E700
:10376000C01D002070B582B005001D4C002000284F
:103770000AD0002830D162788A4213D0A2788A42D7
:103780001AD0012002B070BD0401241AA400144A0A
:103790001419A2788A42ECD062788A42E9D00130CA
:1037A000C0B2E4E70F4A002A18D0210008319AB2CB
:1037B000FFF794FC0120E5E7260030369BB200932A
:1037C000330000220021FFF7B3FCA178062332006A
:1037D00028000DF059F8D5E70020D3E70120D1E704
:1037E000C01D0020DD300010F0B5C64600B582B027
:1037F0000600150012781F231340012B00D01FE193
:1038000028790024002C0DD0FF24002C00D01CE1CE
:103810002700602318001040134239D101290BD032
:1038200001200EE123011B1B9B008E4FDB5D9842A4
:10383000EBD00134E4B2E5E7EA786B78062B06D0EA
:10384000062B00D005E1222A12D00020F9E0212A1F
:10385000F6D123011F1BBF00824BDF19BA6B002A70
:1038600000D1F4E01378290030000DF08FFBE8E080
:103870002000FFF7C9FC02003B01DF1BBF00794BB2
:10388000DF19FB88290030000DF080FB0120D8E013
:10389000202800D0DFE06B780B2B00D9DDE09B0007
:1038A000714AD3589F46012901D00120C9E0EA7826
:1038B000A97823011B1B9B0008336A4FFF18A879C6
:1038C000EB791B020343181C252B00D9252080B25D
:1038D000002909D0012B16D97B1C9C463970013870
:1038E00080B20123984602E0BC460023984600902F
:1038F00063462000FFF7F0FB030043449BB2002B1C
:1039000005D100209DE0BC4600239846EFE73A0031
:10391000290030000DF03AFB012092E0012903D08C
:10392000032915D001208CE0AA79EB791B021343FF
:10393000062B01D9002084E02201121B92003032B4
:1039400048498A18290030000DF020FB012078E05A
:10395000EA78A97823011B1B9B0030334148C31828
:10396000AE79E87900023043051C062800D9062507
:10397000ADB2002904D0012802D91878884205D0B8
:1039800000952000FFF7D4FB01205AE00133013DF0
:10399000ADB2F5E7012901D0012052E0E978230119
:1039A0001F1BBF002F4BDF197971304B002B04D048
:1039B000200000E000BF002843D0290030000DF0B7
:1039C000C9FA01203DE0012901D0012039E022019E
:1039D000171BBF00234AD2190532012329003000EA
:1039E0000DF0D4FA01202CE0012901D0012028E0BB
:1039F0002201171BBF001B4AD219043201232900E0
:103A000030000DF0C3FA01201BE0012903D0032987
:103A100007D0012015E0290030000DF09BFA0120AD
:103A20000FE0A97823011F1BBF000E4BDF1939716E
:103A30000F4B002B13D0200000E000BF012000E05E
:103A4000002002B080BCB846F0BD0020F9E700209D
:103A5000F7E70020F5E70020F3E70020F1E7012079
:103A6000EFE7C046C01D0020CC2C01100000000074
:103A70000000000010B50301181A8000104B181840
:103A800044780CF0F1FD002806D10023002B13D060
:103A9000002C09D1002010E00CF0EEFD002801D12F
:103AA0000123F3E70023F1E7210000200CF028FFB9
:103AB000002803D1013000E0002010BD0020FCE709
:103AC000C01D002010B50020FFF7D4FF10BD00007E
:103AD000F8B504000F0016001D0003011B1A9B001F
:103AE0001F4AD318597800200CF0A6FE002825D0D4
:103AF000002F24D02B1C242D00D924239DB2184A3A
:103B00002301191B890051180F721B1B9B000833DE
:103B1000D01801302A0031000AF06AFE0135ADB23A
:103B20000F4B2001021B920008329A18001B8000E4
:103B3000181841782B0000200CF0A6FEF8BD2B1CB5
:103B4000252D00D925239DB22001001B80000830BF
:103B5000034B18182A0031000AF04AFEE0E7C0467D
:103B6000C01D002010B513000A0001000020FFF75F
:103B7000AFFF10BD107003120F20184050700B01E2
:103B800018435070091191707047000070B5124DC4
:103B9000802424012A0021002000FFF7EBFFEA1C0B
:103BA00021002000FFF7E6FFAA1D21002000FFF7FB
:103BB000E1FF2A00093221002000FFF7DBFF2A0085
:103BC0000C3221002000FFF7D5FF2A000F32210020
:103BD0002000FFF7CFFF70BD4833002010B5402212
:103BE000002102480AF0FEFD10BDC04680230020DF
:103BF000014B18707047C046B4330020014B187356
:103C00007047C04680230020014B58737047C04660
:103C100080230020074A0021535E1078064908706F
:103C2000023399B21BB21380FF2B01DDFF391180E3
:103C30007047C0468433002080230020024B1A784E
:103C4000024B5A707047C046182F01108023002085
:103C5000064B04229A732F32DA73303A1A74013AFF
:103C60005A74012119765A767047C0468023002085
:103C700010B5C4B2000A002307E019000E31044A4F
:103C80005454013150540233DBB20D2BF5D910BD21
:103C90008023002010B503007F2800D97F2080B248
:103CA000002B08D00AF0EFFB04490AF098FB044906
:103CB0000AF07AFB10BD0248FCE7C046BA669340A2
:103CC0000000204210B503007F2800D97F2080B279
:103CD000002B08D00AF0D7FB04490AF080FB044906
:103CE0000AF062FB10BD0248FCE7C046C5661341FE
:103CF0000000A04210B503007F2800D97F2080B2C9
:103D0000002B05D00AF0BFFB02490AF052FB10BDA0
:103D10000020FCE70000FE42F8B5CE46474680B5DD
:103D20000300C1788A0937D0012A17D0022A07D0A8
:103D30000026371C0023994698460025002447E0BA
:103D40004178090202780A439205940D002A23D192
:103D5000A146A04625000026371C39E080780402E1
:103D60005E78320022431205140D002A67D01B78BA
:103D70009A074ED17F220240904649007E25294075
:103D8000C5090D43F201FF2414409B081C4373082E
:103D900099460026371C1BE01C78E2073DD56408D5
:103DA0005A78D1007820084081469978C9000825C2
:103DB0000D4052091543ED00254E00270022904684
:103DC0005A78D20601D5002291469B789B073CD4B5
:103DD0000021381C0AF034FB002803D02000FFF734
:103DE00071FF071C0021301C0AF02AFB002803D0B9
:103DF0004046FFF74FFF061C4846FFF77BFF041CB9
:103E00002800FFF777FF031C321C211C381CFDF72C
:103E100013FAC0BCB946B046F8BD620890465A785D
:103E2000D1007820084081469978C90008250D40C6
:103E300052091543ED000026064F0024C0E7A146B5
:103E4000A04625000026371CC2E70025C0E7C04673
:103E5000000020430000A0430A4B01221A700022F8
:103E60005A7003329A70084A117AD970D17919714F
:103E700091795971517999711179D971D2781A72F0
:103E80007047C04680230020C817002010B50400EA
:103E9000FFF7A4FE8120FFF7ABFE012C09D0064BF3
:103EA0001C70064B19784023034A00200DF0FEFBDE
:103EB00010BDFFF7D1FFF4E780230020B4330020CA
:103EC00070B586B06C462A4B0433220070CB70C2AA
:103ED00070CB70C2022837D0032841D000230025C0
:103EE00000E00133052B10D8224AD2187D32FF3270
:103EF00014780522D21A885C8442F2D01D4AD21866
:103F00007D32FF3210700125EBE7002D19D18120A1
:103F1000FFF774FE184801238373164B1A7AC27395
:103F2000DA7902749A7942745A7982741A79C2746D
:103F3000DB7803751530182269460AF059FC06B083
:103F400070BDFDF711FEE2E78120FFF757FE0A483A
:103F5000022383730F30102208490AF049FCEEE770
:103F60008120FFF74BFE044B03229A73E7E7C0461C
:103F7000182F0110C81700208023002000240020E3
:103F800070B504000E001500FFF728FE2120FFF792
:103F90002FFEFFF73FFEFFF751FE2000FFF734FE34
:103FA000482C67D8A4003E4B1B599F468020FFF742
:103FB00025FE00236AE0F07A431E9841C0B200F06B
:103FC0005FFFF27A374B1A708020FFF717FEF0E799
:103FD00031000C31F07AFFF773FFEAE78020FFF73A
:103FE0000DFEF27A304B1A70E3E78220FFF706FEEF
:103FF000FFF72EFEDDE78020FFF700FED9E79020D7
:10400000FFF7FCFDF27BF17A307B00F037FAD0E766
:10401000FEF74CFDCDE78020FFF7F0FDC9E78320D8
:10402000FFF7ECFD6420FFF723FEC2E78020FFF7D7
:10403000E5FDBEE78020FFF7E1FDF27A0F23134094
:10404000033BDAB20C2A03D89300184AD3589F4690
:104050000120FEF781F9ACE70320FAE70420F8E736
:104060000520F6E70620F4E70720F2E70820F0E74E
:104070000220EEE70023AB4202D201339BB2FAE703
:104080008020FFF7BBFD94E70133DBB21F2BFBD988
:104090004023074A212100200DF008FB70BDC046D7
:1040A000C02D0110B5330020A8140020E42E01100B
:1040B0008023002070B50C00150010280DD080283A
:1040C0000FD0012800D070BD881CFFF725FEA07A14
:1040D0002A002100FFF754FFF5E7881CFFF71CFEBC
:1040E000F1E74878FFF7D2FEEDE70000094B1B78B7
:1040F0000A2B07D00B2B09D0064B0A221A70054B4E
:1041000018787047034B0B221A70F8E7014B0C220A
:104110001A70F4E7A914002070B504005D4B1B78F9
:10412000002B04D15C4B1B78302B0BD070BD5B4B4C
:104130001A885B4B18785B49FFF7BCFF554B002290
:104140001A70F3E7FFF74AFD3020FFF751FDFFF744
:1041500061FDFFF773FD544B1B78012B2DD0022B13
:1041600000D18AE02378514DAB706378EB70A3786F
:104170002B71E3786B7123790F210B40AB71607960
:10418000A3791B0203431B11EB71E3792B72237A92
:1041900019406972617AA37A1B020B431B11AB723F
:1041A000FFF7A4FFE872424B197840232A00002051
:1041B0000DF07CFA02F0A2FAB8E700F007FD837870
:1041C0003A4D2B73C3786B730378AB734378EB73FF
:1041D00003792B7443796B74037AAB74437AEB7471
:1041E00083792B75C3796B75837AAB75C37AEB755D
:1041F00000F0ECFC83782B76C3786B760378AB7693
:104200004378EB7603792B7743796B77037AAB7737
:10421000437AEB7782792023EA54C2790133EA5456
:10422000827A0133EA54C27A0133EA5400F0CEFCB8
:1042300082782423EA54C2780133EA5402780133A5
:10424000EA5442780133EA5402790133EA5442795C
:104250000133EA54027A0133EA54427A0133EA54D0
:1042600082790133EA54C2790133EA54827A013304
:10427000EA54C27A0133EA5474E70E4D280000F084
:1042800025F90A4B0C3307CD07C307CD07C307CD6C
:1042900007C367E7B6330020A8140020A614002047
:1042A000B7330020C0230020B53300208023002036
:1042B000B4330020C82F002010B5054B01241C701A
:1042C000044B1870044B1A8004480AF091FA10BD90
:1042D000B6330020B7330020A6140020C0230020EE
:1042E00010B5024B18180AF083FA10BD8023002085
:1042F000502800D1B0E003D960282FD0FF2010E073
:10430000402800D9AAE0202805D34B2924D88B00C7
:10431000564AD3589F46002803D0102800D09FE06B
:10432000002070479520FCE70020FAE72A39504B1F
:1043300059187D31FF310878F3E704394C4B59188F
:104340007D31FF310878ECE70020EAE70020E8E75C
:104350006820E6E70020E4E70020E2E7A92979D811
:104360008B00444AD3589F46FF20DAE70220D8E763
:104370000120D6E72320D4E70020D2E7B920D0E7F8
:104380001A20CEE70120CCE70020CAE74020C8E78A
:104390000020C6E74020C4E70020C2E74020C0E775
:1043A0000120BEE70020BCE70120BAE70020B8E703
:1043B0000120B6E70020B4E73B20B2E73420B0E7A5
:1043C0003B20AEE73420ACE73B20AAE73420A8E747
:1043D0003D39294B585CA4E73D39274B585CA0E791
:1043E0001A209EE71A209CE71A209AE75E2098E799
:1043F000012096E7502094E7FD2092E7002090E707
:1044000000208EE7C6208CE70F208AE70F2088E780
:10441000302086E7612084E7AE2082E7902080E7A5
:10442000D9207EE7D4207CE714207AE7542078E76F
:10443000412076E7152074E7542072E7C72070E723
:1044400079206EE79C206CE733206AE7362068E726
:10445000632066E7002064E7002062E7FF2060E752
:10446000FF205EE722205CE703205AE7342F01108B
:10447000C81700206430011048330020F0B58BB01D
:1044800006000F00150008A90F70487000248C70FA
:10449000CC700A7105220E20FFF722FF00941A2229
:1044A000002101A80AF09EF907E03919C9B23000CD
:1044B000FFF71EFF6B4618550134A542F5DC2A00B4
:1044C00069461320FFF70CFF0BB0F0BDF0B5DE46D8
:1044D00057464E464546E0B585B004008379032231
:1044E00093430222134383710125002601E0013525
:1044F000EDB2032D0CD8724BAA00D058B200D1589F
:104500004900490809F0BAFF0028F0D02E00EEE774
:10451000032333409A00A3790C218B431343A371E7
:10452000002509E06749404609F059FFAF0009F04E
:10453000D1FF01ABD8510135022D15DC72190132C2
:10454000032313405E4F9B00D8599D21C90509F0F4
:1045500046FF8046B300D859002109F079FF0028B2
:10456000E0D1FE218905DEE7019B9B12DB02D90A1F
:104570000F2211400901A07902400A43A271D90B10
:10458000E171D90D2172DB0F012601210B40607A08
:10459000B04303436372029B9D127F208246054015
:1045A0006F00657A0D403D4365725B149B049B0C64
:1045B000A3721B0A3F273B40E57A403885432B43D3
:1045C000E372039B9A12944603250322604610402F
:1045D00080018446E07A074060460743E7721B1378
:1045E0005B035F0BA774580DE0745B0F07208046D8
:1045F00003409B46207D84460720814660464B460B
:1046000098430300584618432075C3B24046034000
:10461000237500236375A375E37D18308343E37529
:10462000E77D1F233B40E3750023A3772700E37F4B
:10463000AB43E377DBB21340E3771E37BB78B3437A
:10464000BB701F36A35D0B40A35521239C46E35C42
:104650005F36B34360462354194E33691940C9018C
:104660008946205C514601400800494601436046A6
:1046700021545B089B059B0D3B711B0A1340797904
:10468000A9430B437B712323E15C0A400C210A43BD
:10469000E254B38AA3701B0AE370F38A23701B0AE7
:1046A0006370338B23711B0A637133690833336181
:1046B00005B0F0BCBB46B246A946A046F0BDC04618
:1046C000AC140020000080BFF0B5DE4657464E46D1
:1046D0004546E0B585B004000D00C3689A46CE6833
:1046E000311C181C09F07BFE071C236898462B68B8
:1046F0009B46191C404609F072FE011C381C09F04B
:104700004EFE071C63686A689146111C0093181CD2
:1047100009F065FE011C381C09F041FE0190A768F4
:10472000AD68291C381C09F05AFE011C019809F0DB
:1047300036FE01905946504609F051FE029041461E
:10474000301C09F04CFE011C029809F02DFE02906D
:10475000291C009809F043FE011C029809F024FE70
:104760000290391C484609F03AFE011C029809F0F3
:1047700016FE02904946504609F031FE0390291C6E
:10478000404609F02CFE011C039809F008FE039036
:104790000099301C09F023FE011C039809F004FE67
:1047A0000390391C584609F01AFE011C039809F0C1
:1047B000FBFD0390291C504609F011FE051C4946DB
:1047C000404609F00CFE011C281C09F0EDFD051CFB
:1047D0000099584609F003FE011C281C09F0DFFD72
:1047E000051C391C301C09F0FAFD011C281C09F0BD
:1047F000DBFD019BE360029B2360039B6360A06081
:1048000005B0F0BCBB46B246A946A046F0BD70B5A7
:1048100004000168081C09F0E2FD051C6168081C21
:1048200009F0DDFD011C281C09F0BEFD051CA16876
:10483000081C09F0D4FD011C281C09F0B5FD051C5D
:10484000E168081C09F0CBFD011C281C09F0ACFD37
:1048500009F084FE011CFE20800509F0AAFD051C5C
:10486000011C206809F0BBFD2060291C606809F06C
:10487000B6FD6060291CA06809F0B1FDA060291C8C
:10488000E06809F0ACFDE06070BD0000F0B5DE4608
:1048900057464E464546E0B58DB08046944A93460D
:1048A00000911268881A09F0EEFD041C4246127A43
:1048B0004146487A000210430004001409F0E8FD64
:1048C0008C4909F08CFD8C4909F073FD09F03CFE20
:1048D0008A4A8B4B08F0E7FC00228A4B08F0C5FCA3
:1048E0000022894B08F0C1FC06000F00201C09F0D3
:1048F0002BFE04000D0002000B003000390008F010
:10490000D2FC08F095FD8246424692794146C8792C
:10491000000210430004001409F0BAFD754909F0C3
:104920005EFD754909F045FD09F00EFE734A744BB2
:1049300008F0B9FC0022734B08F097FC0022724B80
:1049400008F093FC02000B002000290008F0ABFCEB
:1049500008F06EFD81464246927A4146C87A0002CE
:1049600010430004001409F093FD624909F037FD7B
:10497000614909F01EFD09F0E7FD604A604B08F04F
:1049800092FC00225F4B08F070FC00225E4B08F0A6
:104990006CFC02000B002000290008F084FC08F0E9
:1049A00047FD051C5146504609F019FD041C4946B7
:1049B000484609F014FD011C201C09F0F5FC041CFC
:1049C000291C0195281C09F00AFD011C201C09F076
:1049D000EBFC09F0B9FD04000D0002000B0008F02B
:1049E00062FC06000F000022484B0296039708F075
:1049F0003CFC06000F000022454B2000290008F077
:104A000034FC02000B003000390008F01CFC0022CE
:104A1000404B08F021FC06000F0000223E4B02989C
:104A2000039908F022FC029003910022FF239B05CA
:104A30002000290008F037FC02000B0002980399BF
:104A400008F001FC0022354B08F006FC04000D00C4
:104A50001C22002105A809F0C5FE504609F074FD8E
:104A600032003B0008F01FFC08F0E2FC05904846CD
:104A700009F06AFD32003B0008F015FC08F0D8FC94
:104A80000690019809F060FD32003B0008F00BFC35
:104A900008F0CEFC07902000290008F0C9FC08901F
:104AA0001F4C05A92000FFF70FFE2000FFF7AFFE07
:104AB0004246117853781B020B431B041B14A3823C
:104AC0009178D3781B020B431B041B14E3821179EA
:104AD00053791B020B431B041B1423835A46009B70
:104AE00013600DB0F0BCBB46B246A946A046F0BD6F
:104AF000403000200000FA4400FEFF46182D4454C8
:104B0000FB2109400080664080842E410000AE40B9
:104B1000000048400000E03F000078400000F03F07
:104B2000AC140020F0B5C64600B504008846234901
:104B300023480DF04DFE0028F9D0224E3368581C52
:104B4000032108F011F92578627812021E4F4800FF
:104B5000401883005B182A43FA54120AFB185A7053
:104B6000A078E278120202439A70120ADA70207971
:104B70006279120202431A71120A5A71A079E2791B
:104B8000120202439A71120ADA71207A627A1202D0
:104B900002431A72120A5A72A07AE27A120202438D
:104BA0009A72120ADA72316041462000FFF76EFEF7
:104BB00003480DF0CDFD80BCB846F0BD7C1F002041
:104BC00078160020781F0020501F002010B50949DA
:104BD00009480DF0FDFD0028F9D0084B1C68064877
:104BE0000DF0B6FD6000001980000019044B181884
:104BF00010BDC046801F002078160020781F0020BE
:104C0000501F00204118CB0F5B185B10802252020E
:104C1000914204DA044A914203DB18B27047034818
:104C2000FCE70348FAE7C046FFFFFEFFFF7F0000F6
:104C30000080FFFF70B52848FDF78CFE274D062247
:104C40000021280009F0CEFDA81D0622002109F050
:104C5000C9FD234B01221A70224BFA2292011A60DD
:104C6000214B00221A70214E214C31002000FCF70C
:104C700031F80023E25E9C3D9C23EA540223E25E6D
:104C80009D23EA540423E25E9E23EA540623E25E57
:104C90009F23EA540823E25EA023EA540A23E25E3B
:104CA000A123EA540023F25EA223EA540223F25E17
:104CB000A323EA540423F25EA423EA540623F25EFB
:104CC000A523EA540823F25EA623EA540A23F25EDF
:104CD000A723EA5470BDC0460000FFFF64180020FF
:104CE0009A3300204C1F00209B3300203C1F0020E3
:104CF0001C1F002010B5084AE2235B00D05C012194
:104D00004942FDF7B9FDFCF729FFFCF72DFF034BE6
:104D100000221A7010BDC046C81700209A33002028
:104D2000F8B552495248FBF7D5FF524B1B78002B80
:104D300000D160E0504C9C254D4E0023F15E605741
:104D4000FFF760FF605501350223F15E6057FFF702
:104D500059FF605501350423F15E6057FFF752FF9C
:104D6000605501350623F15E6057FFF74BFF605534
:104D700001350823F15E6057FFF744FF60550135A8
:104D80000A23F15E6057FFF73DFF6055A227374DBC
:104D90000023E95EE057FFF735FFE05501370223B6
:104DA000E95EE057FFF72EFFE05501370423E95E87
:104DB000E057FFF727FFE05501370623E95EE0578C
:104DC000FFF720FFE05501370823E95EE057FFF7C2
:104DD00019FFE05501370A23E95EE057FFF712FF9C
:104DE000E055002333732B73244A1368013B13608F
:104DF000002B37D0F8BD1E4A0023D05E1E4B9C21ED
:104E000058540221505E9D2158540421505E9E2129
:104E100058540621505E9F2158540821505EA0210D
:104E200058540A21515EA1229954104A0021505E23
:104E3000A22158540221505EA32158540421505EEF
:104E4000A42158540621505EA52158540821505ED3
:104E5000A62158540A21515EA7229954054BA63A1F
:104E60001A70C7E7FFF746FFC4E7C0463C1F0020A3
:104E70001C1F00209B330020C81700204C1F00205F
:104E8000014B18707047C0469C330020F0B5C646F1
:104E900000B504004C4B1B78002B06D14B4B1B7804
:104EA000002B05D180BCB846F0BDFFF739FFF9E70C
:104EB000FA21474A8900FDF753FF0028F2D0454DFB
:104EC00029004548FBF706FF2B7B002B03D0424B04
:104ED0001B7B002B0AD1404B1B7B002B00D06EE0CC
:104EE00000233D4A13733B4A1373DBE73A4B984662
:104EF00018883A4D9C23EB569BB2C01A354F39881F
:104F0000A223EB569BB2C91A09B200B2FFF77AFE90
:104F1000334E3080434658889D23EB569BB2C01ACF
:104F20007988A323EB569BB2C91A09B200B2FFF7E6
:104F300069FE7080434698889E23EB569BB2C01A48
:104F4000B988A423EB569BB2C91A09B200B2FFF785
:104F500059FEB0804346D8889F23EB569BB2C01AB7
:104F6000F988A523EB569BB2C91A09B200B2FFF724
:104F700049FEF08043461889A023EB569BB2C01A25
:104F80003989A623EB569BB2C91A09B200B2FFF7C2
:104F900039FE308143465889A123EB569BB2C01A93
:104FA0007989A723EB569BB2C91A09B200B2FFF761
:104FB00029FE708121003000FFF7B4FD90E7210049
:104FC0000548FFF7AFFD8BE79A3300209C330020A4
:104FD000442F00203C1F00201C1F0020C817002069
:104FE0002C1F002004281ED00CDC012816D000281D
:104FF0000FDD0238C0B201280BD80D4B0B6008330F
:1050000013600AE0052804D10A4B0B6008331360D3
:1050100003E0094B0B60083313607047074B0B60CC
:1050200008331360F9E7064B0B6008331360F4E7AD
:105030001019002030190020F0180020001900205D
:105040002019002030B50F220D780F231D40047861
:1050500094432C4304704C781C40250104781C4078
:105060002C4304708D781D40447894432C43447045
:10507000CC781C40250144781C402C4344700D79A9
:105080001D40847894432C4384704C791C40250146
:1050900084781C402C4384708D791D40C4789443DF
:1050A0002C43C470CC791C402501C4781C402C438F
:1050B000C4700D7A1D40047994432C4304714C7ADA
:1050C0001C40250104791C402C4304718D7A1D403D
:1050D000447994432C434471CC7A1C402501447993
:1050E0001C402C4344710D7B1D40847994432C4318
:1050F00084714C7B1C40250184791C402C438471B5
:105100008D7B1D40C479944322002A43C271CA7B1F
:105110001A401201C1790B401343C37130BD0B78A3
:105120001B071B0F03700B781B0943704B781B0781
:105130001B0F83704B781B09C3708B781B071B0FE9
:1051400003718B781B094371CB781B071B0F83718D
:10515000CB781B09C3710B791B071B0F03720B79EB
:105160001B0943724B791B071B0F83724B791B0979
:10517000C3728B791B071B0F03738B791B09437356
:10518000CB791B071B0F8373CB791B09C373704744
:1051900070B50400144D154A2900FFF723FF2B6852
:1051A000134A1168526819605A60042C12D0052CF9
:1051B00015D0032C09D00D4B1B6800221A800A4B16
:1051C00019680C48FFF7ABFF70BD084B1B680A4A13
:1051D0001A80F4E7054B1B68084A1A80EFE7034B77
:1051E0001B68074A1A80EAE748210020382400207B
:1051F000503301102C21002000E1FFFF00C0FFFF11
:1052000000CAFFFF10B50E4B19600E4B1A600E4B13
:1052100018700E4C0E4A2100FFF7E4FE21680D4C79
:105220002000FFF77CFFE37A0B3B5A1E93410A4AAA
:105230001370637A093B5A1E9341084A137010BDDC
:105240004C1A0020501A0020A333002048210020CF
:10525000382400202C210020A23300209D33002080
:10526000024ABC235B00D0547047C046C8170020D8
:1052700010B5044B00221A70034B19680348FFF75E
:105280004EFF10BD8D330020482100202C2100202E
:1052900070B590B00500384C384E22003100FFF751
:1052A000A1FE31683648FFF73AFFFFF7E1FF002320
:1052B00000933C22002101A809F094FAA6236A4633
:1052C0001370557033681A781207120F69468A7086
:1052D0001A781209CA705A781207120F0A715A788E
:1052E00012094A719A781207120F8A719A78120974
:1052F000CA71DA781207120F0A72DA7812094A7242
:105300001A791207120F8A721A791209CA725A7917
:105310001207120F0A735A7912094A739A791207FF
:10532000120F8A739A791209CA73DA791207120F67
:105330000A74DB791B094B74226813881B0A8B746F
:105340001388CB740F4BBC2252009A5C0A75BD22A5
:1053500052009B5C4B75FA20000103F0C3F9002852
:1053600001D110B070BD00200CF04CFC4022694609
:1053700000200CF029FCF4E72C2400202824002035
:1053800018240020C817002070B50A0000210F293A
:1053900037D803000B41DB0714D40131C9B2F6E75B
:1053A0000133DBB20F2B0FD82A4AD05C2A4A12787D
:1053B0009042F5D1294A146801209840228802437E
:1053C0002280EDE70023EDE7224C23480378635465
:1053D000224B1D6801228A402B8893432B80027840
:1053E0001F4809F06BFB1F4B00221A701E4B1868F8
:1053F0002100FFF727FE1D4B00201856FFF748FF3E
:1054000070BD002AFCD0002401E00134E4B20F2C6E
:1054100014D8104B1A5D104B1B789A42F5D121001D
:10542000134809F04BFB0D4B19680122A2400B8871
:1054300013430B800B4B00221A70E6E70A4B1868E7
:105440000449FFF7FFFD094B00201856FFF720FF26
:10545000D6E7C046182400208C3300202C240020DE
:105460000C3301108D33002028240020B833002095
:105470002833011070B504000D00084E084A3100B1
:10548000FFF7B0FD31680748FFF749FE064B1C7077
:10549000064B1D70064B01221A7070BD2824002097
:1054A0002C24002018240020B83300208C33002046
:1054B0008D33002070B5D04B00221A809A70CF4BEC
:1054C0001B78002B13D0CE4B1A6893789B07D90F0B
:1054D000002B03DA9378022083439370C84B1B6838
:1054E0001A78587800021043FFF74EFF70BD01F0A4
:1054F00029FC002826D0C24B19688A780124A243CF
:105500008A7019688A78022082438A7019684A78FA
:105510001025AA434A7019684A781035AA434A7080
:1055200019680A78A2430A7019680A7882430A70D7
:1055300019680A78023082430A701A6813780821C1
:105540008B431370AC4B00229B5EAE4A12685178BD
:10555000C90600D527E1AA4909684978C906C90FD3
:10556000A948007B814009B20B43A3490B805178C5
:10557000890600D519E1A249096849788906C90F49
:10558000A148407B814009B20B439B4C23809C493E
:10559000096888788007C00F4000A5780226B543C7
:1055A0002843A0708878C007C50FA078013EB0439B
:1055B0002843A0701078C00700D5F8E00878C0072D
:1055C000C00F914C2478A04000B203438A48038066
:1055D0001078800700D5ECE008788007C00F8A4C6F
:1055E0006478A04000B203438348038010784007EA
:1055F00000D5E0E008784007C00F834CA478A040B5
:1056000000B203437C4803801078000700D5D4E043
:1056100008780007C00F7C4CE478A04000B2034338
:10562000754803801078C00600D5C8E00878C00629
:10563000C00F754C2479A04000B203436E4803802C
:105640001078800600D5BCE008788006C00F6E4C4C
:105650006479A04000B20343674803801078400695
:1056600000D5B0E008784006C00F674CA479A04090
:1056700000B20343604803801078C00900D0A4E062
:105680000878C009604CE479A04000B203435A484E
:1056900003805078C00700D599E04878C007C00F54
:1056A000594C247AA04000B20343534803805078F9
:1056B000400700D58DE048784007C00F524CA47ACF
:1056C000A04000B203434C4803805078800700D5C7
:1056D00081E048788007C00F4B4C647AA04000B24C
:1056E000034398B2444C2080800576D54748424D0C
:1056F000EC1CE870050A65700025A570000EE070CE
:10570000507880076BD448788007C00F3E4C647A8D
:10571000A04000B20343384803805078000760D4AB
:1057200048780007C00F384CE47AA04000B2034329
:1057300098B2314C2080000555D534482E4DEC1DD3
:10574000E871050A65700025A570000EE0705078BC
:1057500000074AD448780007C00F2B4CE47AA040D9
:1057600000B2034324480380507840063FD4487871
:105770004006C00F244CA47BA04000B203431E4847
:1057800003805278D20934D14A78D2091E49C97BA4
:105790008A4012B2184913430B801D4B18680C2223
:1057A00009F026F8A2E60021DEE60021ECE6002062
:1057B0000BE7002017E7002023E700202FE7002059
:1057C0003BE7002047E7002053E700205EE700208A
:1057D0006AE7002076E7002082E7002087E70020C4
:1057E00098E70020A3E70020A8E70020B9E7002001
:1057F000C4E70022CEE7C0463C2100208D330020C4
:105800004C1A0020382400202C210020FF0F00001B
:10581000501A002010B5054CA4466044624442432F
:105820000819634458431018C00F10BD00F8FFFF5B
:1058300070B50C0008F02CFE8A21C90508F0AFFDF8
:10584000051C200008F024FE8A21C90508F0A7FDE8
:10585000041C291C281C08F0C2FD051C211C201C4E
:1058600008F0BDFD011C281C08F09EFD08F076FE26
:1058700070BD10B5031C081C0124191C08F0EEFDB6
:10588000002800D10024E0B210BD10B504001300C0
:10589000406800280CDB0A00A168FFF7BBFF002866
:1058A00000D110BD01235B426360A3600120F8E7D3
:1058B0000020F6E7F0B5D6464F464646C0B506008E
:1058C0000D0091469846089CFFF7B2FF071C3C4923
:1058D00008F0CCFD002822D06660A5601423A381C7
:1058E0002A0031002000FFF7D0FF002820D00C2232
:1058F000A35E002B1CDD0023A373012222766376B6
:105900002374E37380252D012E0027604B461E6013
:1059100043461D60E0BCBA46B146A846F0BD0C2225
:10592000A35E002B02D09BB2013B1BB2A381D7E741
:10593000237E002B2CD0237C0133DBB29A462374C8
:10594000391C2068FFF795FF00280BD00123A373B3
:10595000E37B0133E37353461D2B06D900232376E3
:105960006376D2E70023E373F5E7E37B022B1FD9CD
:105970000023A37323760133637653460433A37461
:105980006660A5601423A38180252D012E00BCE74D
:10599000637E002BB9D0A37C013BDBB2A374002B48
:1059A0000AD1A3732376637680252D012E00ACE700
:1059B00080252D012E00A8E780252D012E00A4E7CB
:1059C0000080224430B583B00D001400131D094A35
:1059D0000092220049682868FFF76CFF23000C330F
:1059E00022000832E968A868034C0094FFF762FFC0
:1059F00003B030BD9C2F00204430002010B50011B2
:105A0000084A1378991C084C60540133DBB21370B8
:105A10003D2B01D8002010BD130000221A70012078
:105A2000F9E7C046993300203023002010B50C0060
:105A3000FA213D4A8900FDF793F900281DD03B4B20
:105A40001B78002B12D13A4B1B78002B60D12368B6
:105A50000B3BFF3B374A93422BD9374B1C60344BEF
:105A600001221A70354B00221A7006E0324B1B6877
:105A70001868FFF7C3FF002800D110BD304BA522E6
:105A80001A702E4A12785A70FA20000102F02AFE8B
:105A9000002805D10023254A1370254A1370ECE72E
:105AA0004022274900200CF08FF800200CF0AAF8C3
:105AB000F0E763680B3BFF3B1E4A934208D904346E
:105AC0001D4B1C6001231A4A13701C4A1370D4E743
:105AD000A3680B3BFF3B174A934209D90834164B86
