:020000041000EA
:1000000000B5324B212058609868022188439860DF
:10001000D860186158612E4B002199600221596106
:100020000121F02299502B49196001219960352056
:1000300000F044F80222904214D00621196600F024
:1000400034F8196E01211966002018661A6600F04E
:100050002CF8196E196E196E052000F02FF8012189
:100060000842F9D1002199601B49196000215960AB
:100070001A491B48016001219960EB211966A021F2
:10008000196600F012F800219960164914480160C1
:100090000121996001BC002800D000471248134993
:1000A000086003C880F30888084703B5996A0420EC
:1000B0000142FBD001200142F8D103BD02B5186610
:1000C0001866FFF7F2FF186E186E02BD00000240BE
:1000D000000000180000070000035F00212200005C
:1000E000F4000018222000A00001001008ED00E03C
:1000F00000000000000000000000000074B24E7A12
:1001000000200420F7010010C3010010C5010010F9
:10011000C1010010C1010010C1010010C101001097
:10012000C1010010C1010010C1010010C701001081
:10013000C1010010C1010010C9010010CB01001065
:10014000CD010010CD010010CD010010CD01001037
:10015000CD010010CD010010CD010010CD01001027
:10016000CD010010CD010010CD010010CD01001017
:10017000CD010010CD010010CD010010CD01001007
:10018000CD010010CD010010CD010010CD010010F7
:10019000CD010010CD010010CD010010CD010010E7
:1001A000CD010010CD010010CD010010CD010010D7
:1001B000CD010010CD010010CD010010CD010010C7
:1001C00000BE00BE00BE00BE00BE00BEEFF3058054
:1001D000103800BEF2EB8871E44B0110104C011096
:1001E0003402001090A31AE700201F49086006C8D7
:1001F00081F3088810471D48006800282FD10DA4FE
:100200000ECC002902D000F012F8F9E71849194A7B
:10021000002000E001C19142FCD1174988471749ED
:1002200088471749884700BEFDE701C901C29A42C5
:10023000FBD37047104C0110C0000020181600209E
:1002400068610110000004200000042068610110B2
:10025000001004200010042000000000704709482E
:100260000BF0EAFE0047000008ED00E0000000D0BF
:1002700038160020F4310020C1AD0010A90700108D
:100280007DAD00105756000006005250ABB36053CE
:10029000D841011006005250861C0302E8410110AB
:1002A000060052505422A29D0042011005005250F7
:1002B000DE65F46868610110F8B5C04610B5064CFB
:1002C0002378002B07D1054B002B02D0044800E017
:1002D00000BF0123237010BDE818002000000000BB
:1002E000901B0110044B10B5002B03D003490448A8
:1002F00000E000BF10BDC04600000000EC18002068
:10030000901B011070B500290AD001248440D0252B
:100310002D06AC620022002108F0C0FC6C6170BDAB
:1003200001248440D0252D066C620022002108F0B3
:10033000B5FCAC61F3E770B500280ED0D0242406DC
:1003400080252D056561642009F00AFE02236361A2
:10035000642009F005FEA56170BDD0242406802527
:100360002D056561642009F0FBFD0223A361642073
:1003700009F0F6FDA561EFE710B5002804D00121D2
:100380000E20FFF7BFFF10BD00210E20FFF7BAFFC0
:10039000F9E7000010B5002001F093F80F2001F0FC
:1003A00090F8062001F07EF8082001F07BF80B2081
:1003B00001F078F80C2001F075F80D2001F062F8DA
:1003C0000A2001F05FF8072001F05CF8092001F035
:1003D00059F8184918480EF035FD0121122008F08F
:1003E00045FC0121132008F041FC0121142008F0F4
:1003F0003DFC102008F06CFCD024240680235B0216
:1004000063626361162008F063FC8023DB03636290
:100410006361112008F05CFC80239B0263626361CE
:10042000152008F055FC80239B036362636100F094
:100430005DFC10BDC0C62D0000C00340F8B5DE460F
:1004400057464E464546E0B50400D0263606802382
:100450009B019846B3610520002109F055FD7368A2
:10046000DB0A01252B405A42534101273B401B0127
:10047000227810218A431343237073681B0B2B408F
:100480005A4253413B405B01227820208243134370
:10049000237073689B092B405A4253413B409B0198
:1004A000227830318A431343237073681B0A2B4030
:1004B0005A425341DB0122783F310A4013432370F3
:1004C000434673618023DB009B46B3610520002116
:1004D00009F01AFD73681B0B2B405A4253413B40F5
:1004E0009B002278042189468A4313432370736852
:1004F000DB0A2B405A4253413B40DB002278043157
:1005000088468A431343237073681B0A2B405A4260
:1005100053413B405B00227806398A468A431343A5
:10052000237073689B092B405A4253413B40227809
:10053000AA43134323705B46736180239B46B361D8
:100540000520002109F0E0FC73689B092B405A420A
:1005500053413B401B01627810218A43134363706F
:1005600073681B0A2B405A4253413B405B00A27800
:10057000504682431343A37073681B0B2B405A42AF
:1005800053413B40A278AA431343A3707368DB0A2C
:100590002B405A4253413B405B0162781E308243FC
:1005A000134363705B4673618133FF339B46B361D2
:1005B0000520002109F0A8FC73681B0A2B405A4251
:1005C00053413B409B00627848468243134363702B
:1005D00073681B0B2B405A4253413B406278AA433D
:1005E0001343637073689B092B405A4253413B404D
:1005F0005B00627850468243134363707368DB0A82
:100600002B405A4253413B40DB00627840468243D4
:10061000134363705B46736173682B405A425341C6
:10062000DB01627877300240134363707368DB0B41
:100630002B405A4253413B409B0162783F388243F2
:100640001343637073689B081D406B425D413D40DE
:10065000AD00A3784A4693431D43A57062783F23BB
:10066000100098430300C03B59424B411F40FF001C
:10067000EBB2404683431F43A770D206D20F12014C
:10068000FBB210218B431A43A270F0BCBB46B246AA
:10069000A946A046F8BD0000F0B5D6464F464646EE
:1006A000C0B584B0040003AF3B4B1A883A800023E6
:1006B000BB7002AE3280B37001AD2A80AB70694668
:1006C0000A808B70D0231B06984680235B029946D4
:1006D00043464A469A61314B9A4603233A00D02159
:1006E000504611F0B5F943464A465A619A610323D0
:1006F0003200F021504611F0ABF943464A465A61A8
:100700008023DB03994643464A469A6103236A469F
:10071000F021504611F09CF943464A465A619A61CD
:1007200003232A00D021504611F092F943464A464D
:100730005A613B785B027A785200E02109010B4054
:100740001343BA78D2091343236032785202737884
:100750005B000A401A43B378DB091A4362602A78C7
:1007600052026B785B000A401A43AB78DB091A43EC
:10077000A2606B461B785B026A46527852000B40BF
:1007800013436A469278D2091343E36004B0E0BC95
:10079000BA46B146A846F0BD901B011000C0034008
:1007A00010B500F0B5F810BD10B584B00DF026FB03
:1007B000642009F0D5FBFFF7EDFD0E2008F088FA64
:1007C0000020FFF7D9FD1B2008F082FAD024240670
:1007D00080231B056362A361012008F079FA0223DC
:1007E0006362A361022008F073FA0423A36200226B
:1007F0000121022008F052FA0C22002101A80DF07C
:1008000085F901A8FFF71AFE1E4B9B886A461380E4
:1008100063685B0703D401AB5B78DB070ED401ABE5
:100820005B785B0704D5D0231B065B685B070CD5A0
:10083000684600F029FD002004B010BD12480BF0FE
:10084000FBFB030000210800984702236A4613704F
:100850000120FFF791FD0120FFF76DFD0B4809F026
:100860007FFB07E00022002100200AF04BFA9620CF
:1008700009F076FB01AC2000FFF7E0FD6378DB07B1
:10088000F0D4F4E7901B011055420000AC0D0000BD
:100890001A4B1B681A4A126893421CDA0A33174A29
:1008A0001360164B1B68002B23D1FF331B04154A22
:1008B000126853401B0C1B04134A13600F4B1B6838
:1008C000002B18DB9BB20F4A126853401B041B0C11
:1008D0000D4A136070470A3B084A13600B4A1268BE
:1008E000934201DC054B1A60044B1A68044B1A60F2
:1008F000D7E70023DAE70023E4E7C0469C21002085
:10090000982100205C0005405C100540A4210020D7
:1009100010B5FA21044A490101F0DEFF002800D198
:1009200010BDFFF7B5FFFBE7C82D002070B5174BD2
:100930001E68002E28D04468C568291C201C0CF0B5
:1009400031FF002800D0251CFE218905281C0CF051
:1009500029FF002801D0FE25AD050D49281C0CF00B
:10096000D2FE0CF07DFF84B20021281C0CF01AFF8F
:10097000002801D0A419A4B2064B1C60064B1B68CA
:100980009C4201DD044B1C6070BDC046A0210020CC
:1009900000004842A42100209821002010B584B016
:1009A000134B01221A700F32002168460DF0AEF889
:1009B000FE239B05019303936846FFF7B7FF0024CE
:1009C00007E0FFF765FF0AF04BF9082009F0C8FAC5
:1009D00001343D2CF5DD002301930393044B0022E9
:1009E0001A706846FFF7A2FFFFF752FF04B010BD70
:1009F000EF31002010B5FFF7D1FF012010BD00003E
:100A0000F0B5C64600B582B0182008F061F919208B
:100A100008F05EF9D0231B06802252045A6280221D
:100A200092045A620421182008F020F904211920A8
:100A300008F01CF9304F04233B60304D2B60304BE5
:100A4000FF221A661A662F4C23681B0C1B042E48C3
:100A500003602A6893009B189A002C4B9C466244C2
:100A60001168FF231B0498465940090C090480268D
:100A70007601324311603A68910089188A00204B50
:100A80009C466244176801210B00BB43324313604C
:100A90002A689500AD18AA0062441568A943164358
:100AA00031602268434653401B0C1B0403602368DB
:100AB0001B041B0C03609620002109F025FA6B46ED
:100AC000DC1D991D200000F02BFB2378104A1360D9
:100AD0001A1CCD2B00D9CD2232320E490A70002BC0
:100AE00002D10B4A13600B70AF20400009F038FAB6
:100AF00002B080BCB846F0BD5C2E002094280020D7
:100B0000000005405C0005405C1005400C000540FD
:100B1000A0210020D13100200902084300B2704713
:100B200070B582B0D02424068025AD02A5616B4645
:100B3000187159710B4E022201A9300010F0E0FF2C
:100B40006561022009F00CFA8025AD03A56102223F
:100B500001A9300010F0D4FF6561022009F000FA0D
:100B600002B070BD00C00340F0B5DE4657464E46A9
:100B70004546E0B585B006000D0001AC00230193A9
:100B80000822002102A80CF0C1FF03236B449A46FF
:100B9000A22352461370D0231B0698468027BF021B
:100BA0009F61514B994601225146180010F0A8FF51
:100BB0000C2322000021484610F04AFF43465F61A3
:100BC00061782078FFF7A8FF80B2404283B2FF2708
:100BD0003840B0711B0AF371E178A078FFF79CFFF1
:100BE00083B2384030721B0A737261792079FFF743
:100BF00093FF83B23840B0721B0AF372E179A07997
:100C0000FFF78AFF80B2404283B2384030701B0A3F
:100C10007370617A207AFFF77FFF83B23840B0703B
:100C20001B0AF370E17AA07AFFF776FF83B23840AF
:100C300030711B0A737180239B039B4643465A46BF
:100C40009A6101225146484610F05AFF0C232200B7
:100C50000021484610F0FCFE43465A465A6161782E
:100C60002078FFF759FF83B23840A8711B0AEB7157
:100C7000E178A078FFF750FF80B2404283B238405D
:100C800028721B0A6B7261792079FFF745FF83B2E6
:100C90003840A8721B0AEB72E179A079FFF73CFF9C
:100CA00083B2384028701B0A6B70617A207AFFF794
:100CB00033FF80B2404283B23840A8701B0AEB7009
:100CC000E17AA07AFFF728FF83B2384028711B0A27
:100CD0006B71012333732B7305B0F0BCBB46B24676
:100CE000A946A046F0BDC04600C0034010B58C2107
:100CF0001020FFF715FF8C211120FFF711FF0421B1
:100D00001220FFF70DFF06211320FFF709FF062130
:100D10001520FFF705FFE0211720FFF701FF10BDA9
:100D2000F0B5C64600B5040004282DD005282FD004
:100D3000032803D0002080BCB846F0BD052704235B
:100D40009846200007F0C4FF01263300A340D025B9
:100D50002D06AB6200220121200007F09FFF4046D4
:100D600007F0B6FF3300424693406B62AB61380038
:100D700007F0AEFF3300BB406B62AB616B68E340D2
:100D80001E4209D00120D6E7052703239846D8E75D
:100D9000032704239846D4E70020CCE710B50320AE
:100DA000FFF7BEFF10BD10B50520FFF7B9FF10BD5E
:100DB00010B50420FFF7B4FF10BD10B501210E20BF
:100DC000FFF7A0FA9620800009F0CAF807F09EFB12
:100DD000002800D110BD0120FCE710B501F0B8FBE0
:100DE00010BD0000F0B5C64600B584B0142339E04C
:100DF00001330B2B05D801AAD25C002AF8D00125BB
:100E0000F6E7182009F0ACF8304BDB685B07FBD540
:100E1000D02636068027BF03B7612C4B98460122A7
:100E20006B46D91C404610F06BFE0C2301AA002132
:100E3000404610F00DFE77610C283ED100230021C2
:100E400000E001330B2B05D801AAD25C002AF8D0B0
:100E50000121F6E7002901D0002D31D1182009F039
:100E60007FF823005C1E002B29D000230193082269
:100E7000002102A80CF04AFE6B46A222DA70134B46
:100E8000DB685B07FBD5D0252D068026B602AE6158
:100E90000E4F01226B46D91C380010F031FE0C2396
:100EA00001AA0021380010F0D3FD6E610C2802D198
:100EB000002300259DE7002502E0002500E0002535
:100EC000280004B080BCB846F0BDC04600C0034056
:100ED00070B584B003A9494B1A880A8000238B702F
:100EE00002A90A808B7001A90A808B7069460A806A
:100EF0008B700A242300013C002B74D0D0231B06E6
:100F0000802252029A613E4BDB685B07FBD50323CC
:100F100003AAD0213A4810F09BFD032866D1D023C4
:100F20001B06802252025A619A61354BDB685B07CF
:100F3000FBD5032302AAF021314810F089FD0328D4
:100F400056D1D0231B06802252025A618022D2033E
:100F50009A612B4BDB685B07FBD503236A46F021C4
:100F6000274810F075FD032844D1D0231B068022AA
:100F7000D2035A619A61224BDB685B07FBD50323DE
:100F800001AAD0211E4810F063FD032834D1D023DC
:100F90001B068022D2035A61002300200026002570
:100FA000002100E00133022B14D803AAD25C002AEE
:100FB00000D0012101AAD25C002A00D0012602AA99
:100FC000D25C002A00D001256A46D25C002AE9D012
:100FD0000120E7E700298DD0002D8BD0002E89D08D
:100FE000002887D000E0002004B070BD0020FBE79F
:100FF0000020F9E70020F7E70020F5E7981B011033
:1010000000C0034010B5FFF7F5FC10BD012070478C
:1010100070B582B0FFF75CFF01AC012601252840C6
:10102000030120781022904318432070FFF7D5FE6B
:10103000C30122787F20104018432070FFF7BDFEC7
:101040002840830120784022904318432070FFF706
:10105000AFFE28408300207804229043184320707C
:10106000FFF79CFE03002B402078B043184320700C
:10107000FFF799FE2840430020780222904318434E
:101080002070FFF7C3FF2840C30020780822904358
:1010900018432070FFF7A6FE284043012078202245
:1010A000904318432070FFF7ADFF05406078B043D0
:1010B00005436570208802B070BD000010B5041CA7
:1010C0000348046041608260C360FFF72FFC10BDDD
:1010D0002C2F00207047000010B512E00C4B9A6ACC
:1010E0000C4B1A600C4810F0BBFC00F017FB094CCD
:1010F000206804F067FF206803F0F6F82068FFF727
:10110000E9FF0649044810F0E3FC0028E6D1ECE7CB
:1011100000400540401E0020D81500209C220020E1
:10112000044B2A22FF329A5C02702C22FF329B5C15
:101130000B7070473817002070470000014B0020EB
:10114000185670475812002010B5002803D1074BDD
:1011500000221A7010BD0120FFF7EDF80120FFF703
:101160000BF9024B01221A70F4E7C046B23100209D
:1011700010B50020FFF700F90020FFF7DCF800228F
:101180000021002009F0BEFD10BD000010B5064B87
:101190001B78002B00D010BD034B01221A700020D9
:1011A00001F014F9F7E7C046D731002010B52A4BFB
:1011B0001B78002B30D02949294810F089FC0028E1
:1011C00032D12848FFF73AF9274B1B78002B33D14F
:1011D00003F090FB254C2068224904F047FF20686B
:1011E00001F07EF906F046FC002829D01F4C20684B
:1011F0001F4903F03BFE206800221E4906F08CFCCC
:101200001D4B1B785BB2012B21D009F029FD174B38
:101210001868FFF7C5FA10BD0021184809F066FDEF
:101220000D4B01221A70C6E7154B9A6A0F4B1A60D4
:101230000B4810F015FCC4E70A48FFF77DFFC7E72D
:101240000A4B18680B4A0F4900F04AFBD8E7074BD6
:10125000186801F0FBFAD8E7DF310020982200205F
:10126000D815002050190020B2310020401E002067
:101270001819002038190020581200204C1D0000B9
:10128000004005406819002070B582B0051E00D1ED
:10129000D3E001F01CFB0400FFF77CF868496948C3
:1012A0000DF096FF03211C2007F0E0FC03211D2018
:1012B00007F0DCFC6448FFF7C1F800F083FA00286F
:1012C00033D0614E614B0193614B00933300614A0F
:1012D0006149624804F068FCB378DB062BD4FFF761
:1012E0008FFB02F00FFAE3B2012B2AD0022B2DD094
:1012F00001242C57631C30D00022AA56584B1A7078
:10130000514B1B789A062CD45A063CD4DA063CD4AE
:101310005AB2002A3BDB5A073BD40A221A40022A5F
:1013200039D01B071ED503241CE000F005F9C820A6
:1013300008F016FEC5E7062200214A480CF0E6FB3D
:10134000CDE7474B02221A700024D9E723041B0F74
:10135000434A13702405240FD2E7434B02241C5741
:10136000CAE70624404ABA235B00D65C3C4B1B7894
:101370005BB2013311D06425E3B2062B40D8A30041
:101380003A4AD3589F460124ECE70024EAE70224B6
:10139000E8E70524E6E70424E4E701F0E9F900289A
:1013A00004D12F4B02221A704625E5E7642001F094
:1013B0008FF92B4B01221A706425DDE72C4832216E
:1013C00000F0F2FF2900300001F012F8244B002158
:1013D0005956200000F094FA1B4B9B789B0727D4AA
:1013E0001B4A1949200003F02DF90DF021F821487E
:1013F0000DF00CF8FFF7DAFEFCE7FF200006DEE751
:101400001D48DCE7FF200002D9E7154B00221A70C7
:10141000FF2000041925D2E7114B00221A7017484B
:101420000F25CCE70E4B00221A7015481925C6E788
:101430000D4B9C7000F0C0F9D2E702B070BDC04601
:1014400020BF0200A8150020501900205C190020C0
:1014500068190020181900203819002028190020C8
:101460005812002064180020381700209C1B01101F
:1014700000F115FFD910001000A1A1A100FF61002B
:101480000000FFE610B5040007F022FC0022012155
:10149000200007F003FC0123A340D0221206536270
:1014A000536110BD10B5040007F012FC00220121A9
:1014B000200007F0F3FB0123A340D0221206936221
:1014C00010BD10B5040007F003FC0022012120002C
:1014D00007F0E4FB0123A340D0221206936210BD63
:1014E00010B512480CF07EFC002407E0104B5B188E
:1014F000D97810480CF076FC0134E4B2052C0DD8F4
:101500000DF06AFA2100C0B2094A1219D070002CFD
:10151000ECD1130001229043D870E7E7044B9B22E3
:101520001A720A200CF0FAFB10BDC046B81B01105D
:1015300038170020C81B0110F0B5DE4657464E464E
:101540004546E0B5EDB0D4256D002A00002102A883
:101550000CF0DCFA634B02AA1380059B0193DB0FAE
:10156000DB078022120113430593069B0193DB0FD7
:10157000DB0713430693079B0193DB0FDB07134342
:101580000793089B0193DB0FDB071A430892564F22
:101590000A97564E0B96564C0C9456480D90564949
:1015A0000E91564A0F92564B10931297139614941D
:1015B0001590169117921893524B19931A931B93E7
:1015C0001C931D931E931F9320932193802202A9A5
:1015D0008B5004328B5004328B5004328B500432C7
:1015E0008B5004328B5004328B50FF231B049946DE
:1015F000A8230A004946D150434B9B46AC23594689
:10160000D150424B9846B0234146D150FF273F0668
:101610000433D750FF2636020433D65004333C4AF5
:1016200002A9CA503B4B9A46C0230A005146D150EA
:1016300004334946D1500433D7500433D6500433D1
:101640004146D1500433D650A23B2A22FF3202A990
:101650008B5401328B54C63AC921490002A8425228
:1016600002314352023142523532FF32010083527D
:10167000294C2A0020000CF04FFA002002F0A8FFAD
:10168000012002F0A5FF032002F0A2FF042002F0D7
:101690009FFF052002F09CFF20009C3006220021C5
:1016A0000CF034FA2000A230062200210CF02EFAB1
:1016B000FFF716FFBC235B004A46E25004335A464C
:1016C000E25004334246E2500433E7500433E6501C
:1016D00004335246E2506DB0F0BCBB46B246A94658
:1016E000A046F0BD01A0FFFF000034420000B4425C
:1016F00000000743000034430000614300008743BB
:1017000000809D43000016440000FF4D0000FFE6EE
:1017100000F115FF00FF61003817002070B51D4C67
:10172000A5441D4B1B78002B03D180235B019D44F6
:1017300070BD0CF095FEEFF3108672B60023009397
:10174000164A002101A80CF0E1F9D42252001449F4
:1017500068460CF0E1F980256D01124C290020004B
:1017600010F0BEF92A006946200010F091F986F3C6
:1017700010880CF07FFE0C4B1B78002B03D1064B1E
:1017800000221A70D1E706F02FFA074B00221A70D8
:10179000F5E7C04600F0FFFFD5310020FC0F000048
:1017A0003817002000D01200E0310020014B012248
:1017B0001A707047E0310020014B01221A70704707
:1017C000D531002010B5154CD42252001449200008
:1017D0000CF0A2F92288134B9A4214D10F4A952398
:1017E0005B00D35C1A1C312B00D832220B4B9521A5
:1017F00049005A54DA782A39FF398A43DA709B2231
:101800001A72012010BD08480CF0BCFAFFF794FED4
:101810000020FFF7D1FF0020F4E7C0463817002072
:1018200000D0121001A00000D01B011010B5031C45
:10183000642800D9642303492A22FF328B54FFF71E
:10184000DFF810BD3817002010B5022817D008D8CF
:1018500000280DD001280FD10B4ACA235B00D152BA
:101860000AE0032808D1084ACC235B00D15203E0E8
:10187000054AC9235B00D15203F028FE10BD024A7D
:10188000CB235B00D152F7E73817002030B50F4C5F
:1018900040004508E068C00FC0072843E0604900E9
:1018A00048082169C90FC907014321615200510845
:1018B0006269D20FD2070A4362615B005A08A369CA
:1018C000DB0FDB071343A36130BDC0463817002090
:1018D000062800DD0020014B987070473817002063
:1018E00010B5034B1B68002B00D0984710BDC046B5
:1018F000181C0020014B002018567047BF310020F3
:1019000010B588B00400284B1870022910D00C22A2
:10191000002105A80CF0FAF81022002101A80CF013
:10192000F5F8E3B2062B0BD8A400204B1B599F46B9
:101930001F4B204A1A6006F07BFE0028E7D005E026
:101940001B4B1D4A1A60002001F08CF808B010BD36
:10195000174B194A1A60062001F084F8F6E7144B79
:10196000154A1A60012001F07DF8EFE7104B124A8A
:101970001A60022001F076F8E8E70D4B0F4A1A6072
:1019800001AA05A90020FFF7ABFFDFE7084B0C4ACF
:101990001A6001AA05A90020FFF7A2FFD6E7044BB1
:1019A000084A1A60D2E7C046BF310020201C01104F
:1019B000181C0020AD880010152B0010BD69001008
:1019C000FD71001049770010F0B5C64600B590B023
:1019D00004000D0016001F0016AB1B789846494BFB
:1019E000984200D188E00721380007F03FF9012331
:1019F00000933A00290020000DF0DAF810220021AF
:101A000008A80CF083F880235B020893F8235B029C
:101A100009938023DB020A93C0231B030A9310223D
:101A200008A904A80CF078F8F31C059A039236492B
:101A30001140F20111431B0319430591079B0393C6
:101A4000DB00DB0880229205134307932F4B1940DC
:101A50000591102204A90CA80CF05EF80F9B0393CB
:101A60002B4A1A40BF0217430F974346002B45D01D
:101A700020220E9B03932749194080239B020B438E
:101A80005206F82189050A4013430E939B009B08D8
:101A90008022D20513430E93052009F043F81E4916
:101AA0000AF01EFB0BF083FE80460BF0D9FE87B2D6
:101AB000002F25D038000BF07AFE011C40460BF0B9
:101AC00002FE8721C9050BF01EFE0BF0C9FEC0B255
:101AD00000023F0407430C970CAB320029002000A2
:101AE0000DF0B8F822680123AB409A4313432360FA
:101AF00010B080BCB846F0BD062175E71822B8E7E3
:101B00000020E5E7000020507F00FEFFFFFFFF9F61
:101B1000FF83FFFFFFFFF5C10050C300014B01220F
:101B20001A707047CD31002070B5254B1B78002B03
:101B300017D1244B00221A70214B01321A70002455
:101B4000132C09D80CF048FF06210AF0C9FA1E4BE5
:101B500019550134E4B2F3E71C4B00221A7000243B
:101B600028E01A4B1B78002BF9D1194B1B789A00EF
:101B70009B18FA2B00D9FA23FF221A40FF239B1A45
:101B80009BB2144A1380144A1380104B01221A701E
:101B9000E5E70D4D2B5D5E339B00104A9958A2007E
:101BA0000F4BD1500CF018FF06210AF099FA295575
:101BB0000134E4B2132CECD9FFF7B0FF70BDC0467E
:101BC000CC310020B9310020301C00207D120020D3
:101BD0007B120020A8310020A431002038170020FB
:101BE00018210020034B1980034B1860034B00227F
:101BF0001A707047A63100206C200020CA310020E6
:101C000070B505000C0000880BF0D1FD1B490BF0EE
:101C100064FD1B490BF077FD0BF022FEC2B22B795D
:101C2000A978C943C9B25943090A5B1ADBB23F25F7
:101C300028402D1AEDB2584380096B439B11DBB24B
:101C40000818C0B2CB18DBB23F2A10D9403AD2B242
:101C50003F2A06D81A060B061B0A00021343184334
:101C60000AE0090600041B020843184304E00006CA
:101C70001B04090218430843206070BD00007F4325
:101C800000003F43F8B5CE46474680B50400234BDD
:101C90001D78002D05D100230360C0BCB946B046B5
:101CA000F8BD642DF9D08778E678B819637898463E
:101CB000C0180BF081FD1A490BF00FFD814628007A
:101CC0000BF075FD17490BF008FD051C011C48467B
:101CD0000BF058FD0028E0D14946281C0BF0FDFC14
:101CE000051C38000BF063FD291C0BF00CFD0BF0FC
:101CF000B7FDA07030000BF05AFD291C0BF003FD5E
:101D00000BF0AEFDE07040460BF051FD291C0BF0CE
:101D1000FAFC0BF0A5FD6070BFE7C0467A12002008
:101D200000007F430000C842F0B5D6464F46464605
:101D3000C0B504000368002B35D083789846C77877
:101D4000D819667880190BF037FD051C40460BF05A
:101D50002EFD8046291C0BF0C0FC824638000BF09B
:101D600026FD071C291C0BF0B8FC814630000BF047
:101D70001EFD061C291C0BF0B0FC051C51464046FC
:101D80000BF0C1FC0BF06CFDA0704946381C0BF049
:101D9000BAFC0BF065FDE070291C301C0BF0B3FCA5
:101DA0000BF05EFD6070E0BCBA46B146A846F0BDDF
:101DB00030B585B01D4B1B78002B0FD10024132CA0
:101DC00009D80CF009FEFF210AF08AF9184B1955C1
:101DD0000134E4B2F3E7154B01221A7000241FE02E
:101DE000134D2B5D134A1078C018FF210AF050F9EB
:101DF000C9B2295502A80180FF23438083800023B4
:101E0000019301A9FFF7FCFE01A8FFF73BFF0A4879
:101E1000A300019A1A50C018FFF786FF0134E4B2FC
:101E2000132CDDD9FFF77AFE05B030BDCC31002090
:101E3000342000207B1200201821002000220AE01C
:101E4000930006495958064B5B68DB03FBD4044BEF
:101E500019610132D2B2132AF2D9704770200020E2
:101E600000002050F8B5DE4657464E464546E0B5E0
:101E700006000D00141C80780BF099FC8046F07869
:101E80000BF095FC071C70780BF091FC061CA878F1
:101E90000BF08DFC8346E8780BF089FC824668786D
:101EA0000BF085FC8146414658460BF00CFC211C8A
:101EB0000BF029FC41460BF00BFC051C391C50466D
:101EC0000BF001FC211C0BF01EFC391C0BF000FC7C
:101ED000071C311C48460BF0F6FB211C0BF013FCD1
:101EE000311C0BF0F5FB061C281C0BF0B9FCC5B22D
:101EF000381C0BF0B5FCC4B2301C0BF0B1FCC0B206
:101F00002D040002240628432043F0BCBB46B24601
:101F1000A946A046F8BD0000F8B5274B1D8828004B
:101F20000BF04AFC011CFE2080050BF0D6FB041CC4
:101F3000224B1B78002B0BD05022214921480BF05B
:101F4000EBFD0023204A13701C4A13701F4A1370C4
:101F50001D4B1E78B54204D21C4B187800281ED0A9
:101F6000F8BD30000BF023FC211C0BF0CCFB051C52
:101F700000240BE0A7001649C9191248C0192A1CF1
:101F8000FFF770FF0E4BD8510134E4B2132CF1D996
:101F900001360D4B1E70FFF751FF0020E0E7502285
:101FA0000B4907480BF0B8FDFFF748FF074B01222C
:101FB0001A700120D4E7C046A4310020CD310020A2
:101FC00070200020C82000207F1200207C120020FA
:101FD00018210020F0B5C64600B506000F00150018
:101FE000984600240AE0335D9B004246EA50305D8B
:101FF00080002818FFF798FE0134E4B2BC42F2D307
:1020000080BCB846F0BD0000031C642800D96423DE
:10201000014A13707047C0467A12002030B583B071
:10202000050000240CE0019501A8FFF72BFE0648EF
:10203000A300019A1A50C018FFF776FE0134E4B2EB
:10204000132CF0D903B030BD1821002010B5094879
:102050000388094A12789B18FF2213400380074C1B
:102060002100FFF7CDFD2068FFF7D8FFFFF756FDF1
:1020700010BDC046741200207B12002030200020CA
:1020800010B51A4B1B78002B17D1194A1370174A39
:1020900001211170174A1370154C23785E339B0091
:1020A000154A9858FFF7BAFF20780130062109F049
:1020B000EFFF2170FFF732FD10BD0E4B1B78002B98
:1020C000EAD10E4B1B789A009B18FA2B00D9FA2301
:1020D000FF221A40FF239B1A9BB2094A1380094A28
:1020E0001380044B01221A70D6E7C046CC31002081
:1020F000B93100207E120020381700207B1200200A
:10210000A8310020A431002010B50F4B1B78002B04
:1021100010D10E4B1B68002B02D10C4B0C4A1A60DD
:102120000A4B1868FFF77AFFFFF7F8FC064B01220D
:102130001A7010BD0020FFF771FFFFF7EFFC024B94
:1021400000221A70F5E7C046E8310020C0200020C8
:102150000000FFE610B5164B1C78002C05D0154B7F
:102160001B78002B17D0200010BD502212491348B5
:102170000BF0D2FC124B1868FFF750FF114B1A8876
:10218000114B1A80FFF7CAFC094B01221A70094B48
:1021900000221A70E7E7502208490C480BF0BCFCFB
:1021A000FFF7BCFC034A1378013313700024DAE70D
:1021B000CA310020ED31002070200020DC2E0020EC
:1021C000C4200020A6310020A431002018210020C6
:1021D00070B50E4B1C78002C08D00D4B1D78002DCF
:1021E00011D0FEF7C5FF2C00200070BD0020FFF7C6
:1021F00015FFFFF793FC074B1A88074B1A80034B18
:1022000001221A70F0E700F00DFAEDE7CA31002064
:10221000CF310020A6310020A431002070B50C0081
:102220000A2803D88000224B1B589F460126214DC7
:102230001FE00426204D1CE00426204D19E0012655
:102240001F4D16E001261F4D13E001261E4D10E024
:1022500001261E4D0DE001261D4D0AE001261D4DF3
:1022600007E001261C4D04E001261C4D01E0042678
:10227000104D002A12D02300194A31002800FFF720
:10228000A9FE2300174A31002800FFF7A3FE230010
:10229000154A31002800FFF79DFE70BD2300114A4A
:1022A00031002800FFF796FEFFF738FCF5E7C0463F
:1022B0003C1C0110A01C0110941C01108C1C01106E
:1022C000981C0110881C0110901C01109C1C01100E
:1022D000A81C0110A41C0110801C0110841C0110FA
:1022E000C8200020182100207020002070B50C4B61
:1022F00019682C220B480BF00FFC00240CE0A30003
:10230000084DED182800FFF7BDFC296800222000C9
:10231000FFF784FF0134E4B20A2CF0D970BDC04647
:10232000682100206C21002010B5024B1860FFF7D7
:10233000DDFF10BD6821002010B5074B1B78002B76
:1023400000D010BD0548FFF7EFFFFFF7E7FB024B9A
:1023500001221A70F5E7C046CC310020E0170020BA
:102360000D4AC8235B00D35C834209D0002B03D104
:102370009133FF330521D154074AC8235B00D05461
:10238000054AC8235B00D25C044B1A701523044A2B
:102390001380044A13807047381700207B120020F6
:1023A000A8310020A431002010B5054B1860490861
:1023B000044C2000FFF716FC034B1C6010BDC04608
:1023C000C4200020552100106C20002010B5054BC2
:1023D0001870054B00221A600A210448FFF702FC1E
:1023E00010BDC046CF31002068200020D121001050
:1023F00070B582B004000D00254B1B78002B0CD06B
:10240000244B1C700023244A1370244A1370052C9B
:1024100016D8A400224B1B599F46224E2249300059
:102420000CF0AAFB020000230093173300213000B8
:10243000FFF7CAFA164B01221A70FFF7FFFCDFE71D
:102440001A4B1B4A1A601B4AC8235B00D05CFFF77B
:1024500087FF002D15DA02B070BD144B164A1A60C2
:10246000F1E7124B154A1A60EDE7104B144A1A6057
:10247000E9E70E4B134A1A60E5E70C4B124A1A6063
:10248000E1E7FF2D00DDFF25E8B2FFF7BDFDE2E744
:10249000CE310020CB310020CC310020D0310020C3
:1024A000681C011000002050AC1C011068200020A6
:1024B00039230010381700204D200010B11D0010E6
:1024C0000921001081200010291B001010B5034BBA
:1024D000186064210520FFF78BFF10BDC02000208D
:1024E00010B5144A144900F0F7F9002800D110BDC6
:1024F000FFF712FD002803D1104B1B78002BF6D0FC
:102500000F4B1B68002B0ED098470028EFD00024FB
:102510000B4B1C600B4AC8235B00D05CFFF720FF0D
:10252000094B1C70E3E7094B1B68002BDFD0984771
:10253000DDE7C046D02D00201A410000D031002038
:102540006C20002038170020CC31002068200020AB
:1025500000B587B02C4B1B7805AA137004AA137022
:1025600007F0CEFD02000B1E2CDB284800211218BC
:102570004B41002B2CDB002B2EDB0292039301231B
:10258000009305AA6A2122480CF04EFE07F0B8FD20
:1025900002000B1E26DB1D48002112184B41002BA8
:1025A00026DB002B28DB02920393002300930133E8
:1025B00004AA6A2116480CF056FE002822DD0120EC
:1025C00007B000BD134B144A3F21144808F0DAFB52
:1025D00001225242124BCEE70E4B0F4A3F210F48C9
:1025E00008F0D0FB0B4B0C4A3F210C4808F0CAFB0B
:1025F000012252420A4BD4E7064B074A3F210748C3
:1026000008F0C0FB0020DBE72C260110102700009B
:10261000A8150020BC1C01103C1D0110D81C011085
:10262000FFFFFF7F10B586B00020FDF7A5FE002458
:102630001CE0204B204A3F21204808F0A3FB002B40
:1026400028DB0292039300230093023305AA6A2138
:102650001B480CF0E9FD0400831C21D0431C22D050
:10266000FA20800007F07CFCFEF782FD002C1DD1D3
:1026700005AB144A1A8007F043FD02000B1ED8DB9D
:102680001148002112184B41002BD8DA0122524286
:102690000E4BD4E7074B084A3F21084808F072FB6D
:1026A000FEF766FDDCE7FEF763FDD9E7FEF760FDA8
:1026B00006B010BDBC1C01103C1D0110D81C01103F
:1026C000A81500200941000010270000FFFFFF7F30
:1026D00000B587B0232821D8C0B20538C0B27F2307
:1026E000184005AB04221A70587007F009FD02006B
:1026F0000B1E20DB1848002112184B41002B20DB59
:10270000002B22DB0292039300230093023305AADD
:102710006A2112480CF088FD07B000BDAF235B00B2
:10272000984200D9180028380A2109F0B1FCC0B23B
:102730001F30C0B2D3E70A4B0A4A3F210A4808F0CB
:1027400021FB01225242094BDAE7054B054A3F21A2
:10275000054808F017FBC04610270000A815002008
:10276000BC1C01103C1D0110D81C0110FFFFFF7F95
:1027700000B587B02E4B1B7805AA137004AA1370FE
:1027800007F0BEFC02000B1E30DB2A4800211218A5
:102790004B41002B30DB002B32DB029203930123F1
:1027A000009305AA6A2124480CF03EFD07F0A8FC1E
:1027B00002000B1E2ADB1F48002112184B41002B80
:1027C0002ADB002B2CDB02920393002300930133BE
:1027D00004AA6A2118480CF046FD0230012825D9C8
:1027E00004AB1878C007C00F07B000BD134B144AE4
:1027F0003F21144808F0C6FA01225242124BCAE7A0
:102800000E4B0F4A3F210F4808F0BCFA0B4B0C4A05
:102810003F210C4808F0B6FA012252420A4BD0E799
:10282000064B074A3F21074808F0ACFA0120DBE7D6
:102830002C26011010270000A8150020BC1C011038
:102840003C1D0110D81C0110FFFFFF7F10B5FA21BD
:10285000074A090200F040F8002800D110BDFFF738
:1028600087FF044B18700028F8D1FEF78FFCF5E7BE
:10287000082E0020B731002010B5002200210020D2
:1028800008F040FAFEE70000072804D88000024B59
:102890009C466044016070470C80054010B50728D5
:1028A00002D90024200010BD8000044B9C466044E7
:1028B000046800210520FFF7E7FFF3E70C800540DF
:1028C00010B501000520FFF7DFFFFFF7D5FF10B5BA
:1028D0000520FFF7E3FF10BD10605368834205D960
:1028E000C31A013B8B4205D200207047834204D2B9
:1028F000C31AF7E750600120F7E70020F5E730B58D
:102900001860002A0BD15C6884420BD9041B013C7F
:102910000025002D0BD1A14209D9100030BD58600F
:102920000020FBE7844205D2041B0025F1E7586034
:102930000120F3E71000F1E710B5FEF7DBFF0228F6
:1029400001D0024810BD0248FCE7C046541D0110EA
:10295000441E011010B500200EF008F810BD000054
:1029600010B5102106480FF0C3F8002800D110BDA3
:10297000044B01221A7002480FF072F8F7E7C046C4
:10298000E0150020DD31002010B5102106480FF0C1
:10299000AFF8002800D110BD044B00221A70024885
:1029A0000FF05EF8F7E7C046E0150020DD310020AB
:1029B00070B5050064210D480FF03AF8041E09D1E6
:1029C0000B4B22000B492800FFF799FF051E08D189
:1029D000200070BD084B1C78E4B204480FF040F8AA
:1029E000EEE7FFF7BDFF2C00F2E7C046E015002040
:1029F0003C2F0020A0860100DD3100200378013348
:102A00000370044B1B785BB2022B01D00248704765
:102A10000248FCE73C130020881F0110C020011071
:102A20000C4B18600C4B98420BD00C4B98420CD0BE
:102A3000FA235B00984200D07047094B01221A60CC
:102A4000FAE7074B04221A60F6E7054B08221A60E2
:102A5000F2E7C046CC220020461000008D20000086
:102A6000C422002010B50400002001F037FC022C25
:102A70002CD0062C1DD0012C10D0012001F02EFCF2
:102A80001848FFF7CDFF184B184A1A60184B194A1F
:102A90001A60194B1C700EF075FB10BDFA20400037
:102AA000FFF7BEFF104B154A1A60114B144A1A600B
:102AB000EFE7012001F012FC1248FFF7B1FF0A4BCB
:102AC000114A1A600A4B0B4A1A60E2E7FA204000EA
:102AD000FFF7A6FF044B0D4A1A60054B0C4A1A601B
:102AE000D7E7C0468D200000C8220020D97800100A
:102AF000D0220020552900103C13002091830010A3
:102B0000B131001046100000998A00108161001058
:102B10003D360010F8B506000C001500012000211C
:102B200040420DF097FA234B9F6C234B1B68BB422E
:102B30001CD2FB1A214A12689A4202D8204B012269
:102B40001A70204B1968204A3000FFF7C5FE002894
:102B500002D01E4B01221A701D4B1B78002B0AD18C
:102B60001C4B1B6898471A4B1870F8BDFB1A1A4A81
:102B700094466344DEE73000FFF71AFF0028F4D0E4
:102B80000F4B1B78002BF0D0104B1B78002BECD098
:102B9000094B1F6000230A4A13700C4A13700C4A39
:102BA0001370FFF7F1FE0D4B1B68290020009847BA
:102BB000DBE7C04600001150C4290020C4220020D9
:102BC000EA310020CC2200209C310020F13100208D
:102BD000DE310020D0220020FF070000C8220020A4
:102BE000084B1B785BB2022B07D0062B07D0012BBA
:102BF00001D0054870470548FCE70548FAE7054855
:102C0000F8E7C0463C13002028270110D01F011010
:102C1000AC20011004300110084B1B785BB2022B72
:102C200007D0062B07D0012B01D005487047054877
:102C3000FCE70548FAE70548F8E7C0463C130020E2
:102C4000E8260110A01F011080200110D82F0110CC
:102C50000020704710B5134B1B785BB2022B13D0CA
:102C6000062B18D0002B05D00B78002B0FD1FFF7C7
:102C700077FE0CE00B78302B03D0212B01D0812B79
:102C800005D1FFF76DFE02E00B78212B00D010BDBF
:102C9000FFF766FEFBE70B78012BF8D1FFF760FE2C
:102CA000F5E7C0463C13002070B504AC25882E4CD7
:102CB000247864B2012C2DD0022C12D0002C00D02C
:102CC00070BD0029FCD1002AFAD11878102804D050
:102CD0002A00190001F052F8F2E7981C00F0D6FD26
:102CE000EEE70029ECD1002AEAD11A78112A05D0A2
:102CF000132AE5D11D480BF075F8E1E75B78002B4E
:102D000006D01B490B1C1B4A1B48FEF7D7F9D7E717
:102D10000021F7E70029D3D1002AD1D11A78002A5F
:102D2000CED15A78082ACBD1DA78002A02D1197983
:102D3000002911D01B79101C9A4200D2181CC0B275
:102D40000AF035FD0D490AF0C8FC011C031C094AB4
:102D50000948FEF7B3F9B3E70020031C021C011C6D
:102D6000FEF7ACF9ACE7C0463C130020081F011089
:102D70006666263F000020420000F04200007F43CC
:102D8000064B1B785BB2022B03D0062B03D1044801
:102D900070470448FCE70448FAE7C0463C130020AB
:102DA00018300110142001103C27011070B5EE28D6
:102DB00024D0002825D080001E4BC55828000EF0D6
:102DC00007FEC0B21F2800D91F20002327E05A1C8D
:102DD000194CA15C0902E25C0A43440017496252A3
:102DE00002330130112BF2D9154A144B13CB13C205
:102DF00011001A680A609B888B8019E0002000236C
:102E0000F0E70C4B196802220E480AF085FE0120FB
:102E100007E05A1CEC5C5100094BCC52D3B29842EB
:102E2000F7D801304000C0239B001843044B1880A2
:102E3000034870BD601200204C1F011004190020CF
:102E40004C1C00204E1C002000B591B04022694669
:102E500000200EF019F800200EF02CF8064B1B781D
:102E60005BB2002B01D011B000BD04480AF08AFF0C
:102E7000684604F0DDFEF6E73C130020201F011039
:102E8000F0B583B005001400012966D113785B0604
:102E90009B0F012B58D0022B03D0002B01D0002018
:102EA0005CE06378022B24D0072B03D0012B19D0D0
:102EB000002053E0227963791B021343042B03D0D3
:102EC000052B08D0002049E02433264A21002800A1
:102ED0000DF0E4F942E08D33234A210028000DF083
:102EE000DDF93BE02723214A210028000DF0D6F927
:102EF00034E0227963791B021343072B30D11C4B3A
:102F00001B785BB2022B0FD06B469F1D194E02221D
:102F1000310038000AF000FE3B883200083A2100F8
:102F200028000DF0BBF919E06B469F1D124E0222DE
:102F3000310038000AF0F0FD3B883200083A2100E9
:102F400028000DF0ABF909E051780C480AF04AFF6F
:102F5000210028000DF086F900E0012003B0F0BD4B
:102F60000020FBE71413002080120020601F0110D6
:102F70003C130020981D0110701E0110381F011015
:102F8000012815D0022907D000290BD1022A29D007
:102F9000002A29D006207047022A1FD0002A1FD0FD
:102FA0000800F8E7022A21D0002A21D00820F2E701
:102FB000022907D000290BD1022A1FD0002A1FD0D6
:102FC0000720E8E7022A15D0002A15D00320E2E7FF
:102FD000022AE0D0002A15D00020DCE70120DAE741
:102FE0000320D8E70720D6E70520D4E70020D2E762
:102FF0000420D0E71000CEE70420CCE70820CAE781
:103000000620C8E70520C6E70120704710B58422D6
:10301000002102480AF07AFD10BDC046F0260020CB
:1030200010B50020FFF7F2FF10BD0000F0B5C64656
:1030300000B580460D008B795D2B24D10B79DF0024
:10304000FF1ABFB21937BFB2974221D80C780C19BA
:10305000002605E0104A53700136F6B22378E418D2
:103060002B79B34210D96378052BF7D12100404664
:103070000CF01EFD00280DD0A378DA09012AE9D052
:10308000054A9370E8E70027380080BCB846F0BDD9
:103090000027F9E70027F7E7F026002030B583B0D6
:1030A000040014484078884206D0124A92788A4236
:1030B0000CD0012003B030BD0F4A002A18D09AB2BC
:1030C0000E490020FFF7C6FD0120F3E70C4D9BB22F
:1030D00000932B00002200210020FFF7E5FD2B00CC
:1030E000443B997840232A0020000CF055FDE1E78D
:1030F0000120DFE7F0260020552C0010F4260020E8
:103100003427002010B50CF037FC002803D1002331
:10311000002B08D110BD0CF037FC002801D1012391
:10312000F6E70023F4E70B4B997800200CF070FDD4
:103130000028EFD1074CA1780CF006FD22004432A4
:10314000A178402300200CF027FDA17800200CF08E
:103150000FFDDFE7F026002070B505000C000CF035
:1031600013FC002806D1812100200CF0EDFC002882
:1031700003D170BD0CF010FCF5E7231C402C00D9E6
:1031800040239CB2094E2200290030000AF0C4FC02
:10319000351F69782300320000200CF0FDFC6978AF
:1031A00000200CF0E5FCFFF7ADFFE2E7F42600207D
:1031B00010B5104B5C780CF0DFFB002806D1002323
:1031C000002B13D0002C09D1002010E00CF0DCFB08
:1031D000002801D10123F3E70023F1E721000020BB
:1031E0000CF016FD002803D1013000E0002010BDD6
:1031F0000020FCE7F026002010B53C220021024808
:103200000AF084FC10BDC046E81C002010B5002068
:10321000FFF7F2FF10BD0000F0B583B006000F000D
:103220001500FEF767FB02284CD13B79DC00E41A5D
:10323000A4B21234A4B2AC4248D80023002B09D067
:103240000025002D44D0397879184B78212B11D0E6
:10325000002438E01A01D21A92001F4882185278CE
:10326000002A02D00133DBB2E8E71A01D11A890043
:103270004518E6E7A9630B78C9183A796B1C0193E6
:10328000AB1C0093032330000CF02CFC002821D051
:10329000BB79012B13D001232B71BB782B70AA6B48
:1032A000D179137A1B020B43EB80A97800290AD04D
:1032B0002A003032062330000CF06EFC03E0FB796C
:1032C000EB70E8E70024200003B0F0BD0024FAE72B
:1032D0000024F8E70024F6E7E81C002070B582B06F
:1032E00005001D4C002000280AD0002830D162784B
:1032F0008A4213D0A2788A421AD0012002B070BD4F
:103300000401241AA400144A1419A2788A42ECD0A9
:1033100062788A42E9D00130C0B2E4E70F4A002A5D
:1033200018D0210008319AB2FFF794FC0120E5E79C
:10333000260030369BB20093330000220021FFF7B5
:10334000B3FCA1780623320028000CF025FCD5E759
:103350000020D3E70120D1E7E81C0020552C001005
:10336000F0B5C64600B582B00600150012781F23DE
:103370001340012B00D01FE128790024002C0DD030
:10338000FF24002C00D01CE127006023180010400F
:10339000134239D101290BD001200EE123011B1B5F
:1033A0009B008E4FDB5D9842EBD00134E4B2E5E741
:1033B000EA786B78062B06D0062B00D005E1222A8E
:1033C00012D00020F9E0212AF6D123011F1BBF00F3
:1033D000824BDF19BA6B002A00D1F4E01378290080
:1033E00030000CF05BFFE8E02000FFF7C9FC0200B2
:1033F0003B01DF1BBF00794BDF19FB882900300040
:103400000CF04CFF0120D8E0202800D0DFE06B78E2
:103410000B2B00D9DDE09B00714AD3589F46012950
:1034200001D00120C9E0EA78A97823011B1B9B0089
:1034300008336A4FFF18A879EB791B020343181C65
:10344000252B00D9252080B2002909D0012B16D9BF
:103450007B1C9C463970013880B20123984602E0FB
:10346000BC4600239846009063462000FFF7F0FB1F
:10347000030043449BB2002B05D100209DE0BC46D5
:1034800000239846EFE73A00290030000CF006FFD1
:10349000012092E0012903D0032915D001208CE0FE
:1034A000AA79EB791B021343062B01D9002084E093
:1034B0002201121B9200303248498A18290030003C
:1034C0000CF0ECFE012078E0EA78A97823011B1BC0
:1034D0009B0030334148C318AE79E879000230438D
:1034E000051C062800D90625ADB2002904D0012804
:1034F00002D91878884205D000952000FFF7D4FB48
:1035000001205AE00133013DADB2F5E7012901D0B8
:10351000012052E0E97823011F1BBF002F4BDF1968
:103520007971304B002B04D0200000E000BF002850
:1035300043D0290030000CF095FE01203DE0012928
:1035400001D0012039E02201171BBF00234AD21904
:1035500005320123290030000CF0A0FE01202CE0F0
:10356000012901D0012028E02201171BBF001B4ABE
:10357000D21904320123290030000CF08FFE012003
:103580001BE0012903D0032907D0012015E0290001
:1035900030000CF067FE01200FE0A97823011F1B0B
:1035A000BF000E4BDF1939710F4B002B13D02000D9
:1035B00000E000BF012000E0002002B080BCB8465F
:1035C000F0BD0020F9E70020F7E70020F5E7002034
:1035D000F3E70020F1E70120EFE7C046E81C0020F8
:1035E000E41F0110000000000000000010B50301FE
:1035F000181A8000104B181844780CF0BDF90028F8
:1036000006D10023002B13D0002C09D1002010E09C
:103610000CF0BAF9002801D10123F3E70023F1E708
:10362000210000200CF0F4FA002803D1013000E062
:10363000002010BD0020FCE7E81C002010B5002091
:10364000FFF7D4FF10BD0000F8B504000F0016000E
:103650001D0003011B1A9B001F4AD3185978002034
:103660000CF072FA002825D0002F24D02B1C242D1A
:1036700000D924239DB2184A2301191B890051182F
:103680000F721B1B9B000833D01801302A00310039
:103690000AF042FA0135ADB20F4B2001021B920035
:1036A00008329A18001B8000181841782B0000205F
:1036B0000CF072FAF8BD2B1C252D00D925239DB2E4
:1036C0002001001B80000830034B18182A0031002D
:1036D0000AF022FAE0E7C046E81C002010B513000B
:1036E0000A0001000020FFF7AFFF10BD10700312A9
:1036F0000F20184050700B01184350700911917041
:103700007047000070B5124D802424012A0021006A
:103710002000FFF7EBFFEA1C21002000FFF7E6FF87
:10372000AA1D21002000FFF7E1FF2A000932210035
:103730002000FFF7DBFF2A000C3221002000FFF7FA
:10374000D5FF2A000F3221002000FFF7CFFF70BD08
:103750007031002010B54022002102480AF0D6F94D
:1037600010BDC04608220020014B18707047C046AB
:10377000D9310020014B18737047C0460822002041
:10378000014B58737047C04608220020074A0021A9
:10379000535E107806490870023399B21BB2138049
:1037A000FF2B01DDFF3911807047C046AC3100208E
:1037B00008220020024B1A78024B5A707047C0460C
:1037C000FC21011008220020054B03229A73482196
:1037D000D9731A74013A5A74473919765A76704770
:1037E0000822002010B5C4B2000A002307E0190027
:1037F0000E31044A5454013150540233DBB20D2BC4
:10380000F5D910BD0822002010B503007F2800D98B
:103810007F2080B2002B08D009F0C9FF044909F0CD
:1038200072FF044909F054FF10BD0248FCE7C0468E
:10383000BA6693400000204210B503007F2800D9EB
:103840007F2080B2002B08D009F0B1FF044909F0B5
:103850005AFF044909F03CFF10BD0248FCE7C0468E
:10386000C56613410000A04210B503007F2800D9AF
:103870007F2080B2002B05D009F099FF024909F0A2
:103880002CFF10BD0020FCE70000FE42F8B5CE463C
:10389000474680B5C278930909D0012B49D0022B45
:1038A00043D142781202037813439B053DD004783C
:1038B000E3075AD5630899464378DA007821114026
:1038C00088468278D200082515405B091D43ED002B
:1038D0002F4E002700244378DB0601D500239846AD
:1038E00083789B0700D500250021381C09F03CFF98
:1038F000002803D04846FFF79FFF071C0021301C1B
:1039000009F032FF002803D02000FFF77DFF061CDE
:103910004046FFF7A9FF041C2800FFF7A5FF031C82
:10392000321C211C381CFDF7C9FBC0BCB946B0468F
:10393000F8BD81780C024678330023431B05F4D090
:1039400003789807F1D17F240C4052007E252A404D
:10395000CD091543F101FF220A409B081A43914605
:10396000730898460026371CBEE764084378DA00DF
:103970007821114088468278D200082515405B09DD
:103980001D43ED000026034F00239946A3E7C046E0
:10399000000020430000A0430A4B01221A700022BD
:1039A0005A7003329A70084A117AD970D179197114
:1039B00091795971517999711179D971D2781A72B5
:1039C0007047C046082200203817002010B50400B8
:1039D000FFF7C0FE8120FFF7C7FE012C09D0064B80
:1039E0001C70064B19784023034A00200CF0E6FFB8
:1039F00010BDFFF7D1FFF4E708220020D9310020E5
:103A000070B586B06C462A4B0433220070CB70C26E
:103A100070CB70C2022837D0032841D00023002584
:103A200000E00133052B10D8224AD2182D32FF3284
:103A300014780522D21A885C8442F2D01D4AD2182A
:103A40002D32FF3210700125EBE7002D19D18120B6
:103A5000FFF790FE184801238373164B1A7AC2733E
:103A6000DA7902749A7942745A7982741A79C27432
:103A7000DB7803751530182269460AF04DF806B058
:103A800070BDFDF799FEE2E78120FFF773FE0A485B
:103A9000022383730F30102208490AF03DF8EEE745
:103AA0008120FFF767FE044B03229A73E7E7C046C5
:103AB000FC21011038170020082200208822002055
:103AC00070B504000E001500FFF744FE2120FFF73B
:103AD0004BFEFFF75BFEFFF76DFE2000FFF750FE89
:103AE000482C48D8A4002E4B1B599F468020FFF736
:103AF00041FE00234BE0F07A431E9841C0B200F033
:103B0000EDFB8020FFF736FEF3E731000C31F07A51
:103B1000FFF776FFEDE78020FFF72CFEF27A214BCE
:103B20001A70E6E78220FFF725FEFFF74DFEE0E77B
:103B30008020FFF71FFEDCE79020FFF71BFEF27BE3
:103B4000F17A307B00F0FCF9D3E7FEF76BFDD0E7AC
:103B50008020FFF70FFECCE78320FFF70BFE6420E9
:103B6000FFF740FEC5E78020FFF704FEC1E7802095
:103B7000FFF700FEBDE70023AB4202D201339BB248
:103B8000FAE78020FFF7F6FDB3E70133DBB21F2B26
:103B9000FBD94023044A212100200CF00FFF70BD07
:103BA000D8200110401300200822002070B50C001E
:103BB000150010280DD080280FD0012800D070BD2E
:103BC000881CFFF763FEA07A2A002100FFF778FF28
:103BD000F5E7881CFFF75AFEF1E74878FFF7F6FE95
:103BE000EDE70000094B1B780A2B07D00B2B09D0FF
:103BF000064B0A221A70054B18787047034B0B22AC
:103C00001A70F8E7014B0C221A70F4E741130020F8
:103C100070B50500524B1B78002B04D1514B1B781B
:103C2000302B0BD070BD504B1A88504B1878504930
:103C3000FFF7BCFF4A4B00221A70F3E7FFF78AFD3B
:103C40003020FFF791FDFFF7A1FDFFF7B3FD00F076
:103C5000EBF98378474C2373C37863730378A373BA
:103C60004378E3730379237443796374037AA37409
:103C7000437AE37483792375C3796375837AA37573
:103C8000C37AE37500F0D0F983782376C37863763E
:103C90000378A3764378E3760379237743796377D0
:103CA000037AA377437AE37782792023E254C279B7
:103CB0000133E254827A0133E254C27A0133E2548E
:103CC00000F0B2F982782423E254C2780133E2543E
:103CD00002780133E25442780133E254027901332D
:103CE000E25442790133E254027A0133E254427AD7
:103CF0000133E25482790133E254C2790133E25450
:103D0000827A0133E254C27A0133E2542B78A370F1
:103D10006B78E370AB782371EB7863712B790F21AB
:103D20000B40A3716879AB791B0203431B11E3714C
:103D3000EB7923722B7A19406172697AAB7A1B0294
:103D40000B431B11A372FFF74DFFE0720A4B19786A
:103D50004023220000200CF031FE01F0EFFE61E76D
:103D6000DA310020401300203E130020DB31002018
:103D70004822002008220020D931002010B5054B30
:103D800001241C70044B1870044B1A80044809F07D
:103D9000C3FE10BDDA310020DB3100203E130020CD
:103DA0004822002010B5024B181809F0B5FE10BDCE
:103DB00008220020502800D1B0E003D960282FD07D
:103DC000FF2010E0402800D9AAE0202805D34B2985
:103DD00024D88B00564AD3589F46002803D0102879
:103DE00000D09FE0002070479520FCE70020FAE714
:103DF0002A39504B59182D31FF310878F3E704392F
:103E00004C4B59182D31FF310878ECE70020EAE7D8
:103E10000020E8E76820E6E70020E4E70020E2E78A
:103E2000A92979D88B00444AD3589F46FF20DAE766
:103E30000220D8E70120D6E72320D4E70020D2E7EC
:103E4000B920D0E71A20CEE70120CCE70020CAE74E
:103E50004020C8E70020C6E74020C4E70020C2E7B2
:103E60004020C0E70120BEE70020BCE70120BAE700
:103E70000020B8E70120B6E70020B4E73B20B2E716
:103E80003420B0E73B20AEE73420ACE73B20AAE784
:103E90003420A8E73D39294B585CA4E73D39274B2E
:103EA000585CA0E71A209EE71A209CE71A209AE7A0
:103EB0005E2098E7012096E7502094E7FD2092E7E6
:103EC000002090E700208EE7C6208CE70F208AE7CD
:103ED0000F2088E7302086E7612084E7AE2082E764
:103EE000902080E7D9207EE7D4207CE714207AE771
:103EF000542078E7412076E7152074E7542072E7D4
:103F0000C72070E779206EE79C206CE733206AE7D2
:103F1000362068E7632066E7002064E7002062E758
:103F2000FF2060E7FF205EE722205CE703205AE7DE
:103F3000182201103817002048230110703100208A
:103F4000F0B58BB006000F00150008A90F7048707F
:103F500000248C70CC700A7105220E20FFF722FF1E
:103F600000941A22002101A809F0D0FD07E03919B8
:103F7000C9B23000FFF71EFF6B4618550134A54249
:103F8000F5DC2A0069461320FFF70CFF0BB0F0BDEB
:103F9000F8B50400204921480DF09AFD0028F9D019
:103FA0001F4D2B68581C032108F072F8277862789F
:103FB00012021C4E4800401883005B183A43F2542A
:103FC000120AF3185A70A078E278120202439A702B
:103FD000120ADA7020796279120202431A71120A07
:103FE0005A71A079E279120202439A71120ADA71C7
:103FF000207A627A120202431A72120A5A72A07A64
:10400000E27A120202439A72120ADA7229600348B3
:104010000DF026FDF8BDC046A41E0020E8150020C6
:10402000A01E0020781E002010B5094909480DF097
:104030004FFD0028F9D0084B1C6806480DF010FD14
:104040006000001980000019044B181810BDC0460C
:10405000A81E0020E8150020A01E0020781E0020C9
:104060004118CB0F5B185B1080225202914204DA98
:10407000044A914203DB18B270470348FCE7034847
:10408000FAE7C046FFFFFEFFFF7F00000080FFFF52
:1040900070B52848FEF71AFA274D0622002128009D
:1040A00009F034FDA81D0622002109F02FFD234B45
:1040B00001221A70224BFA2292011A60214B00222F
:1040C0001A70214E214C31002000FCF74DFD0023D9
:1040D000E25E9C3D9C23EA540223E25E9D23EA5467
:1040E0000423E25E9E23EA540623E25E9F23EA5401
:1040F0000823E25EA023EA540A23E25EA123EA54E5
:104100000023F25EA223EA540223F25EA323EA54C0
:104110000423F25EA423EA540623F25EA523EA54A4
:104120000823F25EA623EA540A23F25EA723EA5488
:1041300070BDC0460000FFFFD4170020C131002031
:10414000741E0020C2310020641E0020441E002086
:1041500010B5084ABA235B00D05C01214942FEF742
:1041600047F9FDF723FBFDF727FB034B00221A70ED
:1041700010BDC04638170020C1310020F8B55249A3
:104180005248FCF7F1FC524B1B78002B00D160E049
:10419000504C9C254D4E0023F15E6057FFF760FFA9
:1041A000605501350223F15E6057FFF759FF6055F6
:1041B00001350423F15E6057FFF752FF605501356A
:1041C0000623F15E6057FFF74BFF6055013508236A
:1041D000F15E6057FFF744FF605501350A23F15E39
:1041E0006057FFF73DFF6055A227374D0023E95E7A
:1041F000E057FFF735FFE05501370223E95EE0574E
:10420000FFF72EFFE05501370423E95EE057FFF783
:1042100027FFE05501370623E95EE057FFF720FF4F
:10422000E05501370823E95EE057FFF719FFE05535
:1042300001370A23E95EE057FFF712FFE05500233C
:1042400033732B73244A1368013B1360002B37D060
:10425000F8BD1E4A0023D05E1E4B9C2158540221FB
:10426000505E9D2158540421505E9E2158540621D1
:10427000505E9F2158540821505EA02158540A21B5
:10428000515EA1229954104A0021505EA221585437
:104290000221505EA32158540421505EA421585499
:1042A0000621505EA52158540821505EA62158547D
:1042B0000A21515EA7229954054BA63A1A70C7E706
:1042C000FFF746FFC4E7C046641E0020441E0020DE
:1042D000C231002038170020741E0020014B1870D6
:1042E0007047C046C3310020F8B5474B1B78002B00
:1042F00004D1464B1B78002B03D1F8BDFFF73EFFDE
:10430000FBE7FA21424A8900FEF7E6FA0028F4D0DA
:10431000404C21004048FCF727FC237B002B03D0B6
:104320003D4B1B7B002B09D13B4B1B7B002B67D1EB
:104330000023394A1373374A1373DEE7364F388840
:10434000364C9C23E3569BB2C01A324E3188A223CE
:10435000E3569BB2C91A09B200B2FFF781FE304D95
:10436000288078889D23E3569BB2C01A7188A323C6
:10437000E3569BB2C91A09B200B2FFF771FE68801A
:10438000B8889E23E3569BB2C01AB188A423E35693
:104390009BB2C91A09B200B2FFF762FEA880F88882
:1043A0009F23E3569BB2C01AF188A523E3569BB224
:1043B000C91A09B200B2FFF753FEE8803889A0237A
:1043C000E3569BB2C01A3189A623E3569BB2C91AA1
:1043D00009B200B2FFF744FE28817889A123E35691
:1043E0009BB2C01A7189A723E3569BB2C91A09B2BE
:1043F00000B2FFF735FE68812800FFF7C9FD97E797
:104400000548FFF7C5FD93E7C1310020C331002007
:10441000D82D0020641E0020441E002038170020E4
:10442000541E002004281ED00CDC012816D00028C1
:104430000FDD0238C0B201280BD80D4B0B600833DA
:1044400013600AE0052804D10A4B0B60083313609F
:1044500003E0094B0B60083313607047074B0B6098
:1044600008331360F9E7064B0B6008331360F4E779
:1044700030180020501800201018002020180020AC
:104480004018002030B50F220D780F231D4004780E
:1044900094432C4304704C781C40250104781C4044
:1044A0002C4304708D781D40447894432C43447011
:1044B000CC781C40250144781C402C4344700D7975
:1044C0001D40847894432C4384704C791C40250112
:1044D00084781C402C4384708D791D40C4789443AB
:1044E0002C43C470CC791C402501C4781C402C435B
:1044F000C4700D7A1D40047994432C4304714C7AA6
:104500001C40250104791C402C4304718D7A1D4008
:10451000447994432C434471CC7A1C40250144795E
:104520001C402C4344710D7B1D40847994432C43E3
:1045300084714C7B1C40250184791C402C43847180
:104540008D7B1D40C479944322002A43C271CA7BEB
:104550001A401201C1790B401343C37130BD0B786F
:104560001B071B0F03700B781B0943704B781B074D
:104570001B0F83704B781B09C3708B781B071B0FB5
:1045800003718B781B094371CB781B071B0F837159
:10459000CB781B09C3710B791B071B0F03720B79B7
:1045A0001B0943724B791B071B0F83724B791B0945
:1045B000C3728B791B071B0F03738B791B09437322
:1045C000CB791B071B0F8373CB791B09C373704710
:1045D00070B50400144D154A2900FFF723FF2B681E
:1045E000134A1168526819605A60042C12D0052CC5
:1045F00015D0032C09D00D4B1B6800221A800A4BE2
:1046000019680C48FFF7ABFF70BD084B1B680A4ADE
:104610001A80F4E7054B1B68084A1A80EFE7034B42
:104620001B68074A1A80EAE764200020C0220020A5
:10463000302601104820002000E1FFFF00C0FFFFEE
:1046400000CAFFFF10B50E4B19600E4B1A600E4BDF
:1046500018700E4C0E4A2100FFF7E4FE21680D4C45
:104660002000FFF77CFFE37A0B3B5A1E93410A4A76
:104670001370637A093B5A1E9341084A137010BDA8
:10468000781900207C190020C93100206420002006
:10469000C022002048200020C8310020C431002062
:1046A000024A94235B00D0547047C046381700205C
:1046B00010B5044B00221A70034B19680348FFF72A
:1046C0004EFF10BDB431002064200020482000209F
:1046D00070B590B00500384C384E22003100FFF71D
:1046E000A1FE31683648FFF73AFFFFF7E1FF0023EC
:1046F00000933C22002101A809F008FAA6236A468B
:104700001370557033681A781207120F69468A7051
:104710001A781209CA705A781207120F0A715A7859
:1047200012094A719A781207120F8A719A7812093F
:10473000CA71DA781207120F0A72DA7812094A720D
:104740001A791207120F8A721A791209CA725A79E3
:104750001207120F0A735A7912094A739A791207CB
:10476000120F8A739A791209CA73DA791207120F33
:104770000A74DB791B094B74226813881B0A8B743B
:104780001388CB740F4B942252009A5C0A759522C1
:1047900052009B5C4B75FA20000103F077F900286A
:1047A00001D110B070BD00200CF0B4FB402269466E
:1047B00000200CF091FBF4E7B4220020B02200208E
:1047C000A02200203817002070B50A0000210F2910
:1047D00037D803000B41DB0714D40131C9B2F6E727
:1047E0000133DBB20F2B0FD82A4AD05C2A4A127849
:1047F0009042F5D1294A146801209840228802434A
:104800002280EDE70023EDE7224C23480378635430
:10481000224B1D6801228A402B8893432B8002780B
:104820001F4809F0DFFA1F4B00221A701E4B186850
:104830002100FFF727FE1D4B00201856FFF748FF09
:1048400070BD002AFCD0002401E00134E4B20F2C3A
:1048500014D8104B1A5D104B1B789A42F5D12100E9
:10486000134809F0BFFA0D4B19680122A2400B88CA
:1048700013430B800B4B00221A70E6E70A4B1868B3
:104880000449FFF7FFFD094B00201856FFF720FFF2
:10489000D6E7C046A0220020B3310020B422002079
:1048A000F0250110B4310020B0220020DC310020BE
:1048B0000C26011070B504000D00084E084A3100A6
:1048C000FFF7B0FD31680748FFF749FE064B1C7043
:1048D000064B1D70064B01221A7070BDB0220020DD
:1048E000B4220020A0220020DC310020B3310020BF
:1048F000B431002070B5D04B00221A809A70CF4B93
:104900001B78002B13D0CE4B1A6893789B07D90FD6
:10491000002B03DA9378022083439370C84B1B6803
:104920001A78587800021043FFF74EFF70BD01F06F
:1049300021FC002826D0C24B19688A780124A243A2
:104940008A7019688A78022082438A7019684A78C6
:104950001025AA434A7019684A781035AA434A704C
:1049600019680A78A2430A7019680A7882430A70A3
:1049700019680A78023082430A701A68137808218D
:104980008B431370AC4B00229B5EAE4A1268517889
:10499000C90600D527E1AA4909684978C906C90F9F
:1049A000A948007B814009B20B43A3490B80517891
:1049B000890600D519E1A249096849788906C90F15
:1049C000A148407B814009B20B439B4C23809C490A
:1049D000096888788007C00F4000A5780226B54393
:1049E0002843A0708878C007C50FA078013EB04367
:1049F0002843A0701078C00700D5F8E00878C007F9
:104A0000C00F914C2478A04000B203438A48038031
:104A10001078800700D5ECE008788007C00F8A4C3A
:104A20006478A04000B203438348038010784007B5
:104A300000D5E0E008784007C00F834CA478A04080
:104A400000B203437C4803801078000700D5D4E00F
:104A500008780007C00F7C4CE478A04000B2034304
:104A6000754803801078C00600D5C8E00878C006F5
:104A7000C00F754C2479A04000B203436E480380F8
:104A80001078800600D5BCE008788006C00F6E4C18
:104A90006479A04000B20343674803801078400661
:104AA00000D5B0E008784006C00F674CA479A0405C
:104AB00000B20343604803801078C00900D0A4E02E
:104AC0000878C009604CE479A04000B203435A481A
:104AD00003805078C00700D599E04878C007C00F20
:104AE000594C247AA04000B20343534803805078C5
:104AF000400700D58DE048784007C00F524CA47A9B
:104B0000A04000B203434C4803805078800700D592
:104B100081E048788007C00F4B4C647AA04000B217
:104B2000034398B2444C2080800576D54748424DD7
:104B3000EC1CE870050A65700025A570000EE07099
:104B4000507880076BD448788007C00F3E4C647A59
:104B5000A04000B20343384803805078000760D477
:104B600048780007C00F384CE47AA04000B20343F5
:104B700098B2314C2080000555D534482E4DEC1D9F
:104B8000E871050A65700025A570000EE070507888
:104B900000074AD448780007C00F2B4CE47AA040A5
:104BA00000B2034324480380507840063FD448783D
:104BB0004006C00F244CA47BA04000B203431E4813
:104BC00003805278D20934D14A78D2091E49C97B70
:104BD0008A4012B2184913430B801D4B18680C22EF
:104BE00008F09AFFA2E60021DEE60021ECE60020B4
:104BF0000BE7002017E7002023E700202FE7002025
:104C00003BE7002047E7002053E700205EE7002055
:104C10006AE7002076E7002082E7002087E700208F
:104C200098E70020A3E70020A8E70020B9E70020CC
:104C3000C4E70022CEE7C04658200020B43100204F
:104C400078190020C022002048200020FF0F00001B
:104C50007C19002010B5054CA446604462444243D0
:104C60000819634458431018C00F10BD00F8FFFF27
:104C700070B50C0008F0A0FD8A21C90508F023FDDD
:104C8000051C200008F098FD8A21C90508F01BFDCD
:104C9000041C291C281C08F036FD051C211C201CA6
:104CA00008F031FD011C281C08F012FD08F0EAFD97
:104CB00070BD10B5031C081C0124191C08F062FD0E
:104CC000002800D10024E0B210BD10B5040013008C
:104CD000406800280CDB0A00A168FFF7BBFF002832
:104CE00000D110BD01235B426360A3600120F8E79F
:104CF0000020F6E7F0B5D6464F464646C0B506005A
:104D00000D0091469846089CFFF7B2FF071C3C49EE
:104D100008F040FD002822D06660A5601423A3811E
:104D20002A0031002000FFF7D0FF002820D00C22FD
:104D3000A35E002B1CDD0023A37301222276637681
:104D40002374E37380252D012E0027604B461E60DF
:104D500043461D60E0BCBA46B146A846F0BD0C22F1
:104D6000A35E002B02D09BB2013B1BB2A381D7E70D
:104D7000237E002B2CD0237C0133DBB29A46237494
:104D8000391C2068FFF795FF00280BD00123A3737F
:104D9000E37B0133E37353461D2B06D900232376AF
:104DA0006376D2E70023E373F5E7E37B022B1FD999
:104DB0000023A37323760133637653460433A3742D
:104DC0006660A5601423A38180252D012E00BCE719
:104DD000637E002BB9D0A37C013BDBB2A374002B14
:104DE0000AD1A3732376637680252D012E00ACE7CC
:104DF00080252D012E00A8E780252D012E00A4E797
:104E00000080224430B583B00D001400131D094A00
:104E10000092220049682868FFF76CFF23000C33DA
:104E200022000832E968A868034C0094FFF762FF8B
:104E300003B030BD302E0020B42E002010B500117C
:104E4000084A1378991C084C60540133DBB2137084
:104E50003D2B01D8002010BD130000221A70012044
:104E6000F9E7C046C0310020B821002010B50C0081
:104E7000FA213D4A8900FDF72FFD00281DD03B4B4C
:104E80001B78002B12D13A4B1B78002B60D1236882
:104E90000B3BFF3B374A93422BD9374B1C60344BBB
:104EA00001221A70354B00221A7006E0324B1B6843
:104EB0001868FFF7C3FF002800D110BD304BA522B2
:104EC0001A702E4A12785A70FA20000102F0DEFDA4
:104ED000002805D10023254A1370254A1370ECE7FA
:104EE0004022274900200BF0F7FF00200CF012F8B9
:104EF000F0E763680B3BFF3B1E4A934208D904343A
:104F00001D4B1C6001231A4A13701C4A1370D4E70E
:104F1000A3680B3BFF3B174A934209D90834164B51
:104F20001C60134B01221A70144B01321A70C4E733
:104F3000E3680B3BFF3B0F4A9342BED90C340E4B48
:104F40001C600B4B01221A700C4B02321A70B4E732
:104F5000094B1B681B680B3BFF3B064A9342ACD8CE
:104F6000024B01221A70A8E7182E0020B63100204B
:104F7000BE310020EB0D000054300020D63100205F
:104F8000B821002070B5041C0D000B78002B0AD04E
:104F9000CE68011C301C08F0FDFB002804D06868B6
:104FA000211C08F0B0FB70BD311C201C08F08BFBED
:104FB000A96808F0A8FB024908F08AFBF3E7C0469D
:104FC0000000B44170B508F07EFB4000400808F0D6
:104FD0004FFC04000D0002000B000020054907F003
:104FE000C6FA02000B00200029000CF099FD07F022
:104FF000B3FB70BD0080764070B5061C0C1C151C00
:10500000111C201C08F0BEFB00280FD0311C201CF6
:1050100008F0B8FB002807D0311C281C08F0BAFBA8
:10502000002802D0012000E0002070BD311C201CAF
:1050300008F0A8FB002807D1311C281C08F0AAFBA7
:10504000002803D00120F0E70120EEE70020ECE784
:10505000F8B5071C0E000024002503E0002206E03E
:105060000134E4B2072C0DD8062CF7D8621CA3003B
:105070009200B258F158381CFFF7BEFF0028EFD05D
:105080002500EDE72800F8BD10B508F0F1FB00227F
:10509000104B07F09FFC07F05FFB041C002108F099
:1050A0006BFB00280FD1201C08F0E2FB00220A4B0A
:1050B00007F06FFA07F014FBC217520F801807238E
:1050C0001840801A10BD0549201C08F001FB041C83
:1050D000E9E7C04600807640008046400000B443C7
:1050E00010B508F0F5FA041C0B4908F05BFB00282A
:1050F00006D00949201C08F0E6FA041C201C10BD4B
:105100000021201C08F038FB0028F7D00249201CA1
:1051100008F0DEFA041CF1E70000B44370B5CD1AC4
:10512000801A08F049FB041C280008F045FB211CEC
:1051300008F0BAFB114908F0E6FA08F099FB104AAA
:10514000104B07F026FA07F007FB041C002108F0BB
:1051500013FB00280BD10C49201C08F01BFB002876
:105160000AD00949201C08F0AEFA041C04E00649E4
:10517000201C08F0ADFA041C201C70BD0000344354
:10518000182D4454FB2109400000B443F8B50C002D
:1051900017001E0008F010FB051C380008F00CFB7F
:1051A000011C281C08F08FFA051C200008F004FBE5
:1051B000041C300008F000FB011C201C08F083FADE
:1051C000041C291C281C08F09EFA051C211C201C0C
:1051D00008F099FA011C281C08F07AFA08F052FB32
:1051E000F8BD0000F8B50F00160008F041FB0B4AAF
:1051F0000B4B07F0ECF907F0AFFA08F039FB0400AD
:105200000D0007F0BFFA07F0A7FA38602000290068
:1052100007F0CEFA07F0A0FA3060F8BD399D52A22F
:1052200046DF913FF0B5DE4657464E464546E0B56F
:1052300083B080468B4615001F001100FFF708FF62
:10524000040006285CDC461CA3009946EB589A46ED
:10525000B600A959181CFFF7B5FE051C514640467B
:10526000FFF7B0FE8046291C08F037FA051C4B46B4
:10527000FB589A46011CFE20800508F024FA011C08
:10528000504608F040FA8246B859291C08F03BFA0B
:10529000011C504608F01CFA051C0C9B4A46985805
:1052A000414608F030FA031C22010D9989180D9827
:1052B000825C002A03D0181CFFF764FE031CA400C4
:1052C000304AA058191CFFF70BFF002601960096E4
:1052D0006A4601A9FFF786FF5946281C08F013FA11
:1052E000041C311C08F048FA00280BD18A21C9059A
:1052F000201C08F057FA002805D08A24E40502E0B3
:105300000026A1E700240199201C08F0FCF9051CE7
:105310000190211C009808F0F6F900908A21C90537
:10532000281C08F0D5F908F047FB08F067FA0028B8
:1053300023DB80235B01984200DB134808F03CFA32
:105340000E9B18608A21C905009808F0C1F908F081
:1053500033FB08F053FA002811DB80235B019842ED
:1053600000DB094808F028FA0F9B186003B0F0BC76
:10537000BB46B246A946A046F0BD0020E0E70020AB
:10538000F2E7C04638260110FF0F0000F8B507000D
:105390000E00002409E0A500795975198A20C0057E
:1053A00008F09BF928600134E4B2072CF3D9F8BD6A
:1053B000F8B505000E0000240DE00023A7009B00B7
:1053C000E958E859FFF7FEFD011C064808F085F989
:1053D000F0510134E4B2072C03D8062CEDD8631C3D
:1053E000ECE7F8BD00003442F0B5C64600B5804693
:1053F0000F00002419E02601BE190123337028682C
:10540000164908F065F9051CF060011C134808F006
:1054100064F97060291C124808F055F9011C0F4806
:1054200008F05BF9B0600134E4B2072C12D8A50093
:1054300045440021286808F097F90028DBD02301B3
:10544000FB1800221A70054ADA60FE2292055A60A3
:105450009A60E8E780BCB846F0BDC0460000B441A1
:10546000000034420A4AD3685B005B1009490B60B4
:1054700053695B005B1008490B6013695B005B10AC
:1054800006490B6093695B005B10054A1360704727
:1054900038170020F821002000220020FC210020E5
:1054A0000422002010B5054B1B68054A1268054907
:1054B000096805480068FCF7E9F910BD04220020DE
:1054C00000220020FC210020F821002010B5104C03
:1054D00010492000FFF76CFF200020300E49FFF735
:1054E00067FF200040300D49FFF750FF200060307B
:1054F0000B49FFF74BFF20001930FF300949FFF738
:1055000073FF20003930FF300749FFF76DFF10BDF2
:10551000541700204413002084130020641300203B
:10552000A4130020EC1E0020B01F002010B50E4B6D
:1055300000221A800D4C20320021200008F0E6FAEB
:10554000200020302022002108F0E0FA200040381E
:105550002022002108F0DAFA200020382022002141
:1055600008F0D4FA10BDC046AA31002094170020DC
:10557000F0B5DE4657464E464546E0B583B00400DA
:105580005F4B9B465F4B9A465B461B6852461268D0
:1055900041680068FFF7C2FD071C5B4B99465B4DF5
:1055A0001B682A68E168A068FFF7B8FD8046019093
:1055B000574E311C0097381CFFF792FD071C311C19
:1055C0004046FFF78DFD061C381CFFF75DFD070008
:1055D000301CFFF759FD06005B461B6852461268F7
:1055E00061682068FFF7D2FD82464B461B682A6837
:1055F000E168A068FFF7CAFD8046009808F038F916
:105600000022444B07F0E6F907F0A6F8041CFE213F
:10561000890508F0B1F8002805D13F49201C08F0A1
:10562000C1F8002822D03A00163292003B4B9B185A
:105630005868514608F0A0F8002817D0384950465D
:1056400008F0B0F8002811D0344A3B0016339B0014
:10565000D31851465960BB1D9B00D218009B536064
:105660000122BA402F490B8813430B80019808F0A0
:10567000FFF80022274B07F0ADF907F06DF8041C86
:10568000FE21890508F078F8002805D12249201C60
:1056900008F088F8002824D032001E3292001F4BF8
:1056A0009B185868414608F067F8002819D01C4933
:1056B000404608F077F8002813D0184A33001E330C
:1056C0009B00D3184146596033000E339B00D2181B
:1056D000019B536008360122B24012490B881343E4
:1056E0000B80104B1888104B9C4660444342584135
:1056F000C0B203B0F0BCBB46B246A946A046F0BD5E
:10570000FC210020F821002004220020002200209B
:105710000000B441008046400000304238170020AD
:105720000000FA42AA3100200100FFFF064B026888
:105730001A60064B42681A60054B82681A60C2689C
:10574000044B1A607047C046F8210020FC2100205D
:105750000022002004220020F0B5DE4600B584B00F
:10576000040000910192224B9B46224F1B683A682D
:1057700041680068FFF7D2FC02901F4E1F4D33684E
:105780002A68E168A068FFF7C9FC03905B461B68C4
:105790003A6861682068FFF7F9FC071C33682A68DB
:1057A000E168A068FFF7F2FC041C1549381C07F0FB
:1057B000F9FF002809D11249201C07F0F3FF002847
:1057C0000CD104B080BCBB46F0BD0298FFF75CFC76
:1057D0000023009A1370019B1870F2E70398FFF7FB
:1057E00053FC0123009A1370019B1870E9E7C0462F
:1057F000FC210020F82100200422002000220020AB
:105800000000FA42F0B5DE4657464E464546E0B542
:1058100085B0040000910192294B9A46294D1B68DE
:105820002A6841680068FFF779FC8146264E274FB9
:1058300033683A68E168A068FFF770FC8046244B43
:105840009B46191C4846FFF74BFC029059464046C0
:10585000FFF746FC039053461B682A68616820687E
:10586000FFF794FC051C33683A68E168A068FFF70D
:105870008DFC041C1749281C07F094FF00280CD14C
:105880001449201C07F08EFF00280FD105B0F0BC92
:10589000BB46B246A946A046F0BD0298FFF7F4FB0E
:1058A0000023009A1370019B1870EFE70398FFF72D
:1058B000EBFB0123009A1370019B1870E6E7C046CA
:1058C000FC210020F82100200422002000220020DA
:1058D0000000B4410000FA42F0B5DE4657464E469D
:1058E0004546E0B585B00400334B9A46334D1B68FE
:1058F0002A6841680068FFF711FC81460190304E2C
:10590000304F33683A68E168A068FFF707FC8046CB
:105910002D4B9B46191C4846FFF7E2FB0290594667
:105920004046FFF7DDFB039053461B682A68616819
:105930002068FFF72BFC814633683A68E168A0686D
:10594000FFF724FC041C2149484607F02BFF0028E0
:105950000DD11E49201C07F025FF002819D1002079
:1059600005B0F0BCBB46B246A946A046F0BD0298C1
:10597000FFF78AFB164A831D9B00D31801995960D3
:105980001630800010184B464360FFF79FFD012042
:10599000E6E70398FFF778FB0D4A03000E339B0000
:1059A000D318414659601E30800010184460FFF73C
:1059B0008DFD0120D4E7C046FC210020F821002005
:1059C00004220020002200200000B4410000FA421E
:1059D00038170020F0B5DE4657464E464546E0B53E
:1059E00089B004000D00484B9B46484B99465B46E6
:1059F0001B684A46126841680068FFF78FFB8046C3
:105A0000434E444F33683A68E168A068FFF786FB6D
:105A100082465B461B684A46126861682068FFF749
:105A2000B5FB814633683A68E168A068FFF7AEFBD2
:105A3000071C00230793069305930493364C06AB8B
:105A4000039307AB0293354B0193354B0093354BD2
:105A5000220049464046FFF7E5FB2200203204AB16
:105A6000039305AB0293304B0193304B0093304BC3
:105A7000391C5046FFF7D6FB1C3C0F23E356002B86
:105A800025DB079807F0BAFE28602A4BDB7C5BB267
:105A9000002B23DB069807F0B1FE6860254BDB7D09
:105AA0005BB2002B21DB059807F0A8FEA860214B14
:105AB000DB7E5BB2002B1FDB049807F09FFEE860E3
:105AC00009B0F0BCBB46B246A946A046F0BD079956
:105AD000194807F0F8FD07F091FED5E7069916483A
