:020000041000EA
:1000000000B5324B212058609868022188439860DF
:10001000D860186158612E4B002199600221596106
:100020000121F02299502B49196001219960352056
:1000300000F044F80222904214D00621196600F024
:1000400034F8196E01211966002018661A6600F04E
:100050002CF8196E196E196E052000F02FF8012189
:100060000842F9D1002199601B49196000215960AB
:100070001A491B48016001219960EB211966A021F2
:10008000196600F012F800219960164914480160C1
:100090000121996001BC002800D000471248134993
:1000A000086003C880F30888084703B5996A0420EC
:1000B0000142FBD001200142F8D103BD02B5186610
:1000C0001866FFF7F2FF186E186E02BD00000240BE
:1000D000000000180000070000035F00212200005C
:1000E000F4000018222000A00001001008ED00E03C
:1000F00000000000000000000000000074B24E7A12
:1001000000200420F7010010C3010010C5010010F9
:10011000C1010010C1010010C1010010C101001097
:10012000C1010010C1010010C1010010C701001081
:10013000C1010010C1010010C9010010CB01001065
:10014000CD010010CD010010CD010010CD01001037
:10015000CD010010CD010010CD010010CD01001027
:10016000CD010010CD010010CD010010CD01001017
:10017000CD010010CD010010CD010010CD01001007
:10018000CD010010CD010010CD010010CD010010F7
:10019000CD010010CD010010CD010010CD010010E7
:1001A000CD010010CD010010CD010010CD010010D7
:1001B000CD010010CD010010CD010010CD010010C7
:1001C00000BE00BE00BE00BE00BE00BEEFF3058054
:1001D000103800BEF2EB8871044B0110304B011057
:1001E0003402001090A31AE700201F49086006C8D7
:1001F00081F3088810471D48006800282FD10DA4FE
:100200000ECC002902D000F012F8F9E71849194A7B
:10021000002000E001C19142FCD1174988471749ED
:1002200088471749884700BEFDE701C901C29A42C5
:10023000FBD37047304B0110C0000020B8150020E0
:100240002860011000000420000004202860011034
:10025000001004200010042000000000704709482E
:100260000BF068FE0047000008ED00E0000000D041
:10027000D8150020D8310020BDAC0010A90700100F
:1002800079AC00105756000006005250ABB36053D3
:10029000F840011006005250861C0302084101106C
:1002A000060052505422A29D2041011005005250D8
:1002B000DE65F46828600110F8B5C04610B5064C3C
:1002C0002378002B07D1054B002B02D0044800E017
:1002D00000BF0123237010BD88180020000000001B
:1002E000801A0110044B10B5002B03D003490448B9
:1002F00000E000BF10BDC046000000008C180020C8
:10030000801A011070B500290AD001248440D0253C
:100310002D06AC620022002108F03EFC6C6170BD2D
:1003200001248440D0252D066C620022002108F0B3
:1003300033FCAC61F3E770B500280ED0D02424065E
:1003400080252D056561642009F088FD0223636125
:10035000642009F083FDA56170BDD02424068025AA
:100360002D056561642009F079FD0223A3616420F5
:1003700009F074FDA561EFE710B5002804D0012154
:100380000E20FFF7BFFF10BD00210E20FFF7BAFFC0
:10039000F9E7000010B5002001F093F80F2001F0FC
:1003A00090F8062001F07EF8082001F07BF80B2081
:1003B00001F078F80C2001F075F80D2001F062F8DA
:1003C0000A2001F05FF8072001F05CF8092001F035
:1003D00059F8184918480EF0B3FC0121122008F012
:1003E000C3FB0121132008F0BFFB0121142008F0FA
:1003F000BBFB102008F0EAFBD024240680235B021C
:1004000063626361162008F0E1FB8023DB03636213
:100410006361112008F0DAFB80239B026362636151
:10042000152008F0D3FB80239B036362636100F017
:1004300063FC10BDC0C62D0000C00340F8B5DE4609
:1004400057464E464546E0B50400D0263606802382
:100450009B019846B3610520002109F0D3FC736825
:10046000DB0A01252B405A42534101273B401B0127
:10047000227810218A431343237073681B0B2B408F
:100480005A4253413B405B01227820208243134370
:10049000237073689B092B405A4253413B409B0198
:1004A000227830318A431343237073681B0A2B4030
:1004B0005A425341DB0122783F310A4013432370F3
:1004C000434673618023DB009B46B3610520002116
:1004D00009F098FC73681B0B2B405A4253413B4078
:1004E0009B002278042189468A4313432370736852
:1004F000DB0A2B405A4253413B40DB002278043157
:1005000088468A431343237073681B0A2B405A4260
:1005100053413B405B00227806398A468A431343A5
:10052000237073689B092B405A4253413B40227809
:10053000AA43134323705B46736180239B46B361D8
:100540000520002109F05EFC73689B092B405A428C
:1005500053413B401B01627810218A43134363706F
:1005600073681B0A2B405A4253413B405B00A27800
:10057000504682431343A37073681B0B2B405A42AF
:1005800053413B40A278AA431343A3707368DB0A2C
:100590002B405A4253413B405B0162781E308243FC
:1005A000134363705B4673618133FF339B46B361D2
:1005B0000520002109F026FC73681B0A2B405A42D3
:1005C00053413B409B00627848468243134363702B
:1005D00073681B0B2B405A4253413B406278AA433D
:1005E0001343637073689B092B405A4253413B404D
:1005F0005B00627850468243134363707368DB0A82
:100600002B405A4253413B40DB00627840468243D4
:10061000134363705B46736173682B405A425341C6
:10062000DB01627877300240134363707368DB0B41
:100630002B405A4253413B409B0162783F388243F2
:100640001343637073689B081D406B425D413D40DE
:10065000AD00A3784A4693431D43A57062783F23BB
:10066000100098430300C03B59424B411F40FF001C
:10067000EBB2404683431F43A770D206D20F12014C
:10068000FBB210218B431A43A270F0BCBB46B246AA
:10069000A946A046F8BD0000F0B5D6464F464646EE
:1006A000C0B584B0040003AF3B4B1A883A800023E6
:1006B000BB7002AE3280B37001AD2A80AB70694668
:1006C0000A808B70D0231B06984680235B029946D4
:1006D00043464A469A61314B9A4603233A00D02159
:1006E000504611F02DF943464A465A619A61032358
:1006F0003200F021504611F023F943464A465A6130
:100700008023DB03994643464A469A6103236A469F
:10071000F021504611F014F943464A465A619A6155
:1007200003232A00D021504611F00AF943464A46D5
:100730005A613B785B027A785200E02109010B4054
:100740001343BA78D2091343236032785202737884
:100750005B000A401A43B378DB091A4362602A78C7
:1007600052026B785B000A401A43AB78DB091A43EC
:10077000A2606B461B785B026A46527852000B40BF
:1007800013436A469278D2091343E36004B0E0BC95
:10079000BA46B146A846F0BD941A011000C0034005
:1007A00010B500F0BBF810BD10B584B00DF0A4FA80
:1007B000642009F053FB35480DF062FAFFF7EAFDBB
:1007C0000E2008F003FA0020FFF7D6FD1B2008F0EA
:1007D000FDF9D024240680231B056362A361012058
:1007E00008F0F4F902236362A361022008F0EEF935
:1007F0000423A36200220121022008F0CDF90C227B
:10080000002101A80DF000F901A8FFF717FE204B09
:100810009B886A46138063685B0703D401AB5B78EF
:10082000DB070ED401AB5B785B0704D5D0231B0636
:100830005B685B070CD5684600F026FD002004B01D
:1008400010BD14480BF076FB030000210800984708
:1008500002236A4613700120FFF78EFD0120FFF787
:100860006AFD0D4809F0FAFA07E000220021002095
:100870000AF0C6F9962009F0F1FA01AC2000FFF762
:10088000DDFD6378DB07F0D4F4E7C046801A011081
:10089000941A011055420000AC0D00001A4B1B6861
:1008A0001A4A126893421CDA0A33174A1360164B2D
:1008B0001B68002B23D1FF331B04154A12685340D9
:1008C0001B0C1B04134A13600F4B1B68002B18DB17
:1008D0009BB20F4A126853401B041B0C0D4A136055
:1008E00070470A3B084A13600B4A1268934201DCC6
:1008F000054B1A60044B1A68044B1A60D7E70023B3
:10090000DAE70023E4E7C04694210020902100208C
:100910005C0005405C1005409C21002010B5FA21C8
:10092000044A490101F0C2FF002800D110BDFFF7C1
:10093000B5FFFBE7B02D002070B5174B1E68002EE9
:1009400028D04468C568291C201C0CF0A9FE00288A
:1009500000D0251CFE218905281C0CF0A1FE0028D2
:1009600001D0FE25AD050D49281C0CF04AFE0CF007
:10097000F5FE84B20021281C0CF092FE002801D064
:10098000A419A4B2064B1C60064B1B689C4201DDF7
:10099000044B1C6070BDC0469821002000004842F6
:1009A0009C2100209021002010B584B0134B01221F
:1009B0001A700F32002168460DF026F8FE239B05C1
:1009C000019303936846FFF7B7FF002407E0FFF7A2
:1009D00065FF0AF0C3F8082009F040FA01343D2C05
:1009E000F5DD002301930393044B00221A7068463F
:1009F000FFF7A2FFFFF752FF04B010BDD631002071
:100A000010B5FFF7D1FF012010BD0000F0B5C646BC
:100A100000B582B0182008F0D9F8192008F0D6F8EF
:100A2000D0231B06802252045A62802292045A620A
:100A30000421182008F098F80421192008F094F8EF
:100A4000304F04233B60304D2B60304BFF221A6641
:100A50001A662F4C23681B0C1B042E4803602A685F
:100A600093009B189A002C4B9C4662441168FF230C
:100A70001B0498465940090C09048026760132432C
:100A800011603A68910089188A00204B9C466244A4
:100A9000176801210B00BB43324313602A6895009D
:100AA000AD18AA0062441568A94316433160226854
:100AB000434653401B0C1B04036023681B041B0CA0
:100AC00003609620002109F09DF96B46DC1D991DFD
:100AD000200000F029FB2378104A13601A1CCD2B4C
:100AE00000D9CD2232320E490A70002B02D10B4AB6
:100AF00013600B70AF20400009F0B0F902B080BC69
:100B0000B846F0BD4C2E002088280020000005408B
:100B10005C0005405C1005400C0005409821002059
:100B2000B93100200902084300B2704770B582B0A5
:100B3000D02424068025AD02A5616B461871597139
:100B40000B4E022201A9300010F04AFF656102201D
:100B500009F084F98025AD03A561022201A93000C6
:100B600010F03EFF6561022009F078F902B070BD17
:100B700000C00340F0B5DE4657464E464546E0B558
:100B800085B006000D0001AC00230193082200216E
:100B900002A80CF039FF03236B449A46A223524665
:100BA0001370D0231B0698468027BF029F61514BCC
:100BB000994601225146180010F012FF0C23220022
:100BC0000021484610F0BCFE43465F616178207802
:100BD000FFF7A8FF80B2404283B2FF273840B071D0
:100BE0001B0AF371E178A078FFF79CFF83B23840CD
:100BF00030721B0A737261792079FFF793FF83B219
:100C00003840B0721B0AF372E179A079FFF78AFFCE
:100C100080B2404283B2384030701B0A7370617AF0
:100C2000207AFFF77FFF83B23840B0701B0AF37061
:100C3000E17AA07AFFF776FF83B2384030711B0A61
:100C4000737180239B039B4643465A469A61012257
:100C50005146484610F0C4FE0C23220000214846AD
:100C600010F06EFE43465A465A6161782078FFF7CD
:100C700059FF83B23840A8711B0AEB71E178A07864
:100C8000FFF750FF80B2404283B2384028721B0AFF
:100C90006B7261792079FFF745FF83B23840A87203
:100CA0001B0AEB72E179A079FFF73CFF83B2384071
:100CB00028701B0A6B70617A207AFFF733FF80B2CD
:100CC000404283B23840A8701B0AEB70E17AA07AE8
:100CD000FFF728FF83B2384028711B0A6B7101238C
:100CE00033732B7305B0F0BCBB46B246A946A04691
:100CF000F0BDC04600C0034010B58C211020FFF7A6
:100D000015FF8C211120FFF711FF04211220FFF79E
:100D10000DFF06211320FFF709FF06211520FFF71D
:100D200005FFE0211720FFF701FF10BDF0B5C64613
:100D300000B5040004282DD005282FD0032803D0A7
:100D4000002080BCB846F0BD05270423984620004B
:100D500007F03CFF01263300A340D0252D06AB62EF
:100D600000220121200007F017FF404607F02EFF68
:100D70003300424693406B62AB61380007F026FFB8
:100D80003300BB406B62AB616B68E3401E4209D02D
:100D90000120D6E7052703239846D8E70327042335
:100DA0009846D4E70020CCE710B50320FFF7BEFF3C
:100DB00010BD10B50520FFF7B9FF10BD10B5042018
:100DC000FFF7B4FF10BD10B501210E20FFF79AFA0E
:100DD0009620800009F042F807F042FB002800D17D
:100DE00010BD0120FCE710B501F09CFB10BD000018
:100DF000F0B5C64600B584B0142339E001330B2B9F
:100E000005D801AAD25C002AF8D00125F6E71820FF
:100E100009F024F8304BDB685B07FBD5D02636069B
:100E20008027BF03B7612C4B984601226B46D91C23
:100E3000404610F0D5FD0C2301AA0021404610F0D9
:100E40007FFD77610C283ED10023002100E00133B3
:100E50000B2B05D801AAD25C002AF8D00121F6E7B5
:100E6000002901D0002D31D1182008F0F7FF230010
:100E70005C1E002B29D0002301930822002102A828
:100E80000CF0C2FD6B46A222DA70134BDB685B07E5
:100E9000FBD5D0252D068026B602AE610E4F01226D
:100EA0006B46D91C380010F09BFD0C2301AA0021D1
:100EB000380010F045FD6E610C2802D1002300259A
:100EC0009DE7002502E0002500E00025280004B091
:100ED00080BCB846F0BDC04600C0034070B584B0C9
:100EE00003A9494B1A880A8000238B7002A90A8043
:100EF0008B7001A90A808B7069460A808B700A2466
:100F00002300013C002B74D0D0231B068022520208
:100F10009A613E4BDB685B07FBD5032303AAD02114
:100F20003A4810F00DFD032866D1D0231B0680221D
:100F300052025A619A61354BDB685B07FBD503238C
:100F400002AAF021314810F0FBFC032856D1D0232F
:100F50001B06802252025A618022D2039A612B4BD7
:100F6000DB685B07FBD503236A46F021274810F0B6
:100F7000E7FC032844D1D0231B068022D2035A6108
:100F80009A61224BDB685B07FBD5032301AAD021C2
:100F90001E4810F0D5FC032834D1D0231B06802234
:100FA000D2035A610023002000260025002100E022
:100FB0000133022B14D803AAD25C002A00D00121ED
:100FC00001AAD25C002A00D0012602AAD25C002A23
:100FD00000D001256A46D25C002AE9D00120E7E76B
:100FE00000298DD0002D8BD0002E89D0002887D0ED
:100FF00000E0002004B070BD0020FBE70020F9E70E
:101000000020F7E70020F5E79C1A011000C003401C
:1010100010B5FFF7F5FC10BD0120704770B582B028
:10102000FFF75CFF01AC0126012528400301207871
:101030001022904318432070FFF7D5FEC301227899
:101040007F20104018432070FFF7BDFE2840830129
:1010500020784022904318432070FFF7AFFE2840CD
:10106000830020780422904318432070FFF79CFEF1
:1010700003002B402078B04318432070FFF799FEFF
:101080002840430020780222904318432070FFF745
:10109000C3FF2840C30020780822904318432070E3
:1010A000FFF7A6FE284043012078202290431843F2
:1010B0002070FFF7ADFF05406078B04305436570D1
:1010C000208802B070BD000010B5041C0348046005
:1010D00041608260C360FFF72FFC10BD1C2F002011
:1010E00010B512E00C4B9A6A0C4B1A600C4810F0C9
:1010F0002FFC00F013FB094C206804F0FBFE206875
:1011000003F09CF82068FFF74BFB0649044810F0F9
:101110004FFC0028E6D1ECE700400540381E0020D7
:101120007815002094220020044B2A22FF329A5C7A
:1011300002702C22FF329B5C0B707047D816002087
:1011400070470000014B0020185670470012002025
:1011500010B5002803D1074B00221A7010BD0120E2
:10116000FFF7E9F80120FFF707F9024B01221A7097
:10117000F4E7C0469A31002010B50020FFF7FCF8D4
:101180000020FFF7D8F800220021002009F038FDE8
:1011900010BD000010B5064B1B78002B00D010BD11
:1011A000034B01221A70002001F0FAF8F7E7C0465D
:1011B000BF31002010B5284B1B78002B2CD02749BD
:1011C000274810F0F5FB00282ED12648FFF736F906
:1011D000254B1B78002B2FD103F036FB234C2068C6
:1011E000204904F013FF206801F064F906F012FCB6
:1011F000002825D01D4C20681D4903F0E9FD20681A
:1012000000221C4906F032FC1B4B1B785BB2012B01
:101210001DD009F0A3FC10BD0021184809F0E4FC22
:101220000D4B01221A70CAE7154B9A6A0F4B1A60D0
:101230000B4810F08DFBC8E70A48FFF781FFCBE7AA
:101240000A4B18680B4A0F4900F04AFBDCE7074BD2
:10125000186801F0E5FADCE7C73100209022002091
:1012600078150020F01800209A310020381E002048
:10127000B8180020D8180020001200204C1D0000D3
:10128000004005400819002070B582B0051E00D14D
:10129000D3E001F006FB0400FFF77CF868496948D9
:1012A0000DF014FF03211C2007F05EFC03211D201C
:1012B00007F05AFC6448FFF7C1F800F083FA0028F1
:1012C00033D0614E614B0193614B00933300614A0F
:1012D0006149624804F01AFCB378DB062BD4FFF7AF
:1012E00095FB02F0B9F9E3B2012B2AD0022B2DD0E5
:1012F00001242C57631C30D00022AA56584B1A7078
:10130000514B1B789A062CD45A063CD4DA063CD4AE
:101310005AB2002A3BDB5A073BD40A221A40022A5F
:1013200039D01B071ED503241CE000F005F9C820A6
:1013300008F094FDC5E7062200214A480CF064FB42
:10134000CDE7474B02221A700024D9E723041B0F74
:10135000434A13702405240FD2E7434B02241C5741
:10136000CAE70624404ABA235B00D65C3C4B1B7894
:101370005BB2013311D06425E3B2062B40D8A30041
:101380003A4AD3589F460124ECE70024EAE70224B6
:10139000E8E70524E6E70424E4E701F0D3F90028B0
:1013A00004D12F4B02221A704625E5E7642001F094
:1013B00079F92B4B01221A706425DDE72C48322184
:1013C00000F0DCFF2900300000F0FCFF244B00217E
:1013D0005956200000F094FA1B4B9B789B0727D4AA
:1013E0001B4A1949200003F0D7F80CF09FFF214851
:1013F0000CF08AFFFFF7DEFEFCE7FF200006DEE7C9
:101400001D48DCE7FF200002D9E7154B00221A70C7
:10141000FF2000041925D2E7114B00221A7017484B
:101420000F25CCE70E4B00221A7015481925C6E788
:101430000D4B9C7000F0C0F9D2E702B070BDC04601
:10144000400D030048150020F0180020FC18002073
:1014500008190020B8180020D8180020C81800204B
:101460000012002004180020D8160020A01A011035
:1014700000F115FFE110001000A1A1A100FF610023
:101480000000FFE610B5040007F0A0FB00220121D8
:10149000200007F081FB0123A340D02212065362F3
:1014A000536110BD10B5040007F090FB002201212C
:1014B000200007F071FB0123A340D02212069362A3
:1014C00010BD10B5040007F081FB002201212000AF
:1014D00007F062FB0123A340D0221206936210BDE5
:1014E00010B512480CF0FCFB002407E0104B5B1811
:1014F000D97810480CF0F4FB0134E4B2052C0DD877
:101500000DF0E8F92100C0B2094A1219D070002C80
:10151000ECD1130001229043D870E7E7044B9B22E3
:101520001A720A200CF078FB10BDC046BC1A0110DC
:10153000D8160020CC1A0110F0B5DE4657464E46AC
:101540004546E0B5EDB0D4256D002A00002102A883
:101550000CF05AFA634B02AA1380059B0193DB0F30
:10156000DB078022120113430593069B0193DB0FD7
:10157000DB0713430693079B0193DB0FDB07134342
:101580000793089B0193DB0FDB071A430892564F22
:101590000A97564E0B96564C0C9456480D90564949
:1015A0000E91564A0F92564B10931297139614941D
:1015B0001590169117921893524B19931A931B93E7
:1015C0001C931D931E931F9320932193802202A9A5
:1015D0008B5004328B5004328B5004328B500432C7
:1015E0008B5004328B5004328B50FF231B049946DE
:1015F000A8230A004946D150434B9B46AC23594689
:10160000D150424B9846B0234146D150FF273F0668
:101610000433D750FF2636020433D65004333C4AF5
:1016200002A9CA503B4B9A46C0230A005146D150EA
:1016300004334946D1500433D7500433D6500433D1
:101640004146D1500433D650A23B2A22FF3202A990
:101650008B5401328B54C63AC921490002A8425228
:1016600002314352023142523532FF32010083527D
:10167000294C2A0020000CF0CDF9002002F052FF86
:10168000012002F04FFF032002F04CFF042002F083
:1016900049FF052002F046FF20009C300622002171
:1016A0000CF0B2F92000A230062200210CF0ACF9B7
:1016B000FFF716FFBC235B004A46E25004335A464C
:1016C000E25004334246E2500433E7500433E6501C
:1016D00004335246E2506DB0F0BCBB46B246A94658
:1016E000A046F0BD01A0FFFF000034420000B4425C
:1016F00000000743000034430000614300008743BB
:1017000000809D43000016440000FF4D0000FFE6EE
:1017100000F115FF00FF6100D816002070B51D4CC8
:10172000A5441D4B1B78002B03D180235B019D44F6
:1017300070BD0CF013FEEFF3108672B60023009319
:10174000164A002101A80CF05FF9D4225200144976
:1017500068460CF05FF980256D01124C29002000CD
:1017600010F02EF92A006946200010F009F986F3DE
:1017700010880CF0FDFD0C4B1B78002B03D1064BA1
:1017800000221A70D1E706F0D9F9074B00221A702F
:10179000F5E7C04600F0FFFFBD310020FC0F000060
:1017A000D816002000D01200C8310020014B0122C1
:1017B0001A707047C8310020014B01221A7070471F
:1017C000BD31002010B5154CD42252001449200020
:1017D0000CF020F92288134B9A4214D10F4A95231A
:1017E0005B00D35C1A1C312B00D832220B4B9521A5
:1017F00049005A54DA782A39FF398A43DA709B2231
:101800001A72012010BD08480CF03AFAFFF794FE56
:101810000020FFF7D1FF0020F4E7C046D8160020D3
:1018200000D0121001A00000D41A011010B5031C42
:10183000642800D9642303492A22FF328B54FFF71E
:10184000E5F810BDD816002010B5022817D008D82A
:1018500000280DD001280FD10B4ACA235B00D152BA
:101860000AE0032808D1084ACC235B00D15203E0E8
:10187000054AC9235B00D15203F0DAFD10BD024ACC
:10188000CB235B00D152F7E7D816002030B50F4CC0
:1018900040004508E068C00FC0072843E0604900E9
:1018A00048082169C90FC907014321615200510845
:1018B0006269D20FD2070A4362615B005A08A369CA
:1018C000DB0FDB071343A36130BDC046D8160020F1
:1018D000062800DD0020014B98707047D8160020C4
:1018E00010B5034B1B68002B00D0984710BDC046B5
:1018F000141C0020014B002018567047A73100200F
:1019000010B588B00400284B1870022910D00C22A2
:10191000002105A80CF078F81022002101A80CF095
:1019200073F8E3B2062B0BD8A400204B1B599F463B
:101930001F4B204A1A6006F025FE0028E7D005E07C
:101940001B4B1D4A1A60002001F05AF808B010BD68
:10195000174B194A1A60062001F052F8F6E7144BAB
:10196000154A1A60012001F04BF8EFE7104B124ABC
:101970001A60022001F044F8E8E70D4B0F4A1A60A4
:1019800001AA05A90020FFF7ABFFDFE7084B0C4ACF
:101990001A6001AA05A90020FFF7A2FFD6E7044BB1
:1019A000084A1A60D2E7C046A7310020241B011064
:1019B000141C0020E9870010AD2A00105D6900109A
:1019C0009D710010E9760010F0B5C64600B590B0E4
:1019D00004000D0016001F0016AB1B789846494BFB
:1019E000984200D188E00721380007F0BDF80123B4
:1019F00000933A00290020000DF058F81022002131
:101A000008A80CF001F880235B020893F8235B021E
:101A100009938023DB020A93C0231B030A9310223D
:101A200008A904A80BF0F6FFF31C059A03923649A7
:101A30001140F20111431B0319430591079B0393C6
:101A4000DB00DB0880229205134307932F4B1940DC
:101A50000591102204A90CA80BF0DCFF0F9B039347
:101A60002B4A1A40BF0217430F974346002B45D01D
:101A700020220E9B03932749194080239B020B438E
:101A80005206F82189050A4013430E939B009B08D8
:101A90008022D20513430E93052008F0C1FF1E4992
:101AA0000AF09CFA0BF001FE80460BF057FE87B25D
:101AB000002F25D038000BF0F8FD011C40460BF03C
:101AC00080FD8721C9050BF09CFD0BF047FEC0B2DD
:101AD00000023F0407430C970CAB320029002000A2
:101AE0000DF036F822680123AB409A43134323607C
:101AF00010B080BCB846F0BD062175E71822B8E7E3
:101B00000020E5E7000020507F00FEFFFFFFFF9F61
:101B1000FF83FFFFFFFFF5C10050C300014B01220F
:101B20001A707047B531002070B5174B1B78002B29
:101B300028D1164B00221A70134B01321A70002460
:101B4000132C1FD80CF0C6FE06210AF047FA104BE2
:101B500019550134E4B2F3E70D4D2B5D5E339B0064
:101B60000C4A9958A2000C4BD1500CF0B3FE062140
:101B70000AF034FA29550134E4B2132CECD9FFF7FA
:101B8000CDFF70BD0024F8E7B4310020A131002062
:101B90002C1C0020D816002010210020034B198097
:101BA000034B1860034B00221A7070478E310020DF
:101BB00064200020B231002070B505000C000088C0
:101BC0000BF073FD1B490BF006FD1B490BF019FDD3
:101BD0000BF0C4FDC2B22B79A978C943C9B25943ED
:101BE000090A5B1ADBB23F2528402D1AEDB2584393
:101BF00080096B439B11DBB20818C0B2CB18DBB273
:101C00003F2A10D9403AD2B23F2A06D81A060B060C
:101C10001B0A0002134318430AE0090600041B02D2
:101C20000843184304E000061B0409021843084354
:101C3000206070BD00007F4300003F43F8B5CE46F2
:101C4000474680B50400234B1D78002D05D10023A5
:101C50000360C0BCB946B046F8BD642DF9D08778A2
:101C6000E678B81963789846C0180BF023FD1A4936
:101C70000BF0B1FC814628000BF017FD17490BF063
:101C8000AAFC051C011C48460BF0FAFC0028E0D118
:101C90004946281C0BF09FFC051C38000BF005FD85
:101CA000291C0BF0AEFC0BF059FDA07030000BF0BE
:101CB000FCFC291C0BF0A5FC0BF050FDE07040462D
:101CC0000BF0F3FC291C0BF09CFC0BF047FD607043
:101CD000BFE7C0462212002000007F430000C84238
:101CE000F0B5D6464F464646C0B504000368002B03
:101CF00035D083789846C778D819667880190BF064
:101D0000D9FC051C40460BF0D0FC8046291C0BF08A
:101D100062FC824638000BF0C8FC071C291C0BF043
:101D20005AFC814630000BF0C0FC061C291C0BF04D
:101D300052FC051C514640460BF063FC0BF00EFDB7
:101D4000A0704946381C0BF05CFC0BF007FDE070FE
:101D5000291C301C0BF055FC0BF000FD6070E0BC42
:101D6000BA46B146A846F0BD30B585B01D4B1B78CC
:101D7000002B0FD10024132C09D80CF0ABFDFF2150
:101D80000AF02CF9184B19550134E4B2F3E7154B5E
:101D900001221A7000241FE0134D2B5D134A1078A6
:101DA000C018FF210AF0F2F8C9B2295502A8018033
:101DB000FF23438083800023019301A9FFF7FCFEEA
:101DC00001A8FFF73BFF0A48A300019A1A50C01868
:101DD000FFF786FF0134E4B2132CDDD9FFF79EFE36
:101DE00005B030BDB43100202C200020231200208B
:101DF0001021002000220AE0930006495958064BA2
:101E00005B68DB03FBD4044B19610132D2B2132AA5
:101E1000F2D970476820002000002050F8B5DE4657
:101E200057464E464546E0B506000D00141C807826
:101E30000BF03BFC8046F0780BF037FC071C707809
:101E40000BF033FC061CA8780BF02FFC8346E878D7
:101E50000BF02BFC824668780BF027FC814641464C
:101E600058460BF0AEFB211C0BF0CBFB41460BF0B0
:101E7000ADFB051C391C50460BF0A3FB211C0BF0DD
:101E8000C0FB391C0BF0A2FB071C311C48460BF0B1
:101E900098FB211C0BF0B5FB311C0BF097FB061CCB
:101EA000281C0BF05BFCC5B2381C0BF057FCC4B20D
:101EB000301C0BF053FCC0B22D0400022406284352
:101EC0002043F0BCBB46B246A946A046F8BD000080
:101ED000F8B5274B1D8828000BF0ECFB011CFE20F9
:101EE00080050BF078FB041C224B1B78002B0BD0D9
:101EF0005022214921480BF08DFD0023204A137008
:101F00001C4A13701F4A13701D4B1E78B54204D231
:101F10001C4B187800281ED0F8BD30000BF0C5FB14
:101F2000211C0BF06EFB051C00240BE0A7001649DA
:101F3000C9191248C0192A1CFFF770FF0E4BD8515F
:101F40000134E4B2132CF1D901360D4B1E70FFF7AA
:101F500051FF0020E0E750220B4907480BF05AFDE3
:101F6000FFF748FF074B01221A700120D4E7C04653
:101F70008C310020B531002068200020C0200020D6
:101F8000251200202412002010210020F0B5C646A2
:101F900000B506000F001500984600240AE0335DE6
:101FA0009B004246EA50305D80002818FFF798FEFB
:101FB0000134E4B2BC42F2D380BCB846F0BD0000AC
:101FC000031C642800D96423014A13707047C0467B
:101FD0002212002030B583B0050000240CE00195EA
:101FE00001A8FFF72BFE0648A300019A1A50C0185B
:101FF000FFF776FE0134E4B2132CF0D903B030BD04
:102000001021002010B509480388094A12789B184E
:10201000FF2213400380074C2100FFF7CDFD20680D
:10202000FFF7D8FFFFF77AFD10BDC0461C12002055
:10203000231200202820002010B50D4B1B78002B08
:1020400005D10C4B00221A70094B01321A70094C51
:1020500023785E339B00084A9858FFF7BBFF20782F
:102060000130062109F092FF2170FFF757FD10BDE6
:10207000B4310020A1310020D816002010B50F4B3C
:102080001B78002B10D10E4B1B68002B02D10C4B80
:102090000C4A1A600A4B1868FFF79CFFFFF73EFDD9
:1020A000064B01221A7010BD0020FFF793FFFFF7C7
:1020B00035FD024B00221A70F5E7C046D0310020F2
:1020C000B82000200000FFE610B5164B1C78002C4D
:1020D00005D0154B1B78002B17D0200010BD5022C7
:1020E000124913480BF096FC124B1868FFF772FF69
:1020F000FFF714FD104B1A88104B1A80094B012270
:102100001A70094B00221A70E7E7502208490C4860
:102110000BF080FCFFF702FD034A137801331370C4
:102120000024DAE7B2310020D431002068200020FA
:10213000CC2E0020BC2000208E3100208C310020CD
:102140001021002070B50E4B1C78002C08D00D4BD0
:102150001D78002D11D0FFF70FF82C00200070BD66
:102160000020FFF737FFFFF7D9FC074B1A88074B12
:102170001A80034B01221A70F0E700F03DFAEDE7F8
:10218000B2310020B73100208E3100208C31002088
:1021900070B50C000A2803D88000224B1B589F46BC
:1021A0000126214D1FE00426204D1CE00426204D71
:1021B00019E001261F4D16E001261F4D13E00126F0
:1021C0001E4D10E001261E4D0DE001261D4D0AE0BA
:1021D00001261D4D07E001261C4D04E001261C4D83
:1021E00001E00426104D002A12D02300194A3100C4
:1021F0002800FFF7CBFE2300174A31002800FFF725
:10220000C5FE2300154A31002800FFF7BFFE70BD50
:102210002300114A31002800FFF7B8FEFFF77EFCCB
:10222000F5E7C046401B0110BC1B0110B01B01109C
:10223000A81B0110B41B0110A41B0110AC1B011042
:10224000B81B0110C41B0110C01B01109C1B011006
:10225000A01B0110C02000201021002068200020B9
:1022600070B50C4B19682C220B480BF0D3FB0024E3
:102270000CE0A300084DED182800FFF7DFFC2968EB
:1022800000222000FFF784FF0134E4B20A2CF0D9C9
:1022900070BDC046602100206421002010B5024BB3
:1022A0001860FFF7DDFF10BD6021002010B5074B5F
:1022B0001B78002B00D010BD0548FFF7EFFFFFF79C
:1022C0002DFC024B01221A70F5E7C046B431002004
:1022D00080170020234AC8235B00D35C834209D0C7
:1022E000002B03D19133FF330521D1541D4AC8235C
:1022F0005B00D0541B4AC8235B00D25C1A4B1A7097
:102300001A4B1978052903D88B001949CB589F46D9
:10231000184B15221A80174B1A88174B1A807047D2
:10232000144B15221A80F6E7124B15221A80F2E799
:10233000104B15221A80EEE79300D218FA2A00D922
:10234000FA22FF231A409A1A0A4B1A80E3E79300F5
:10235000D218FA2A00D9FA22FF231A409A1A054BFA
:102360001A80D8E7D816002023120020B3310020AD
:102370006C1B0110903100208C31002010B5054BF2
:1023800018604908044C2000FFF708FC034B1C6050
:1023900010BDC046BC200020C920001064200020D1
:1023A00010B5054B1870054B00221A600A2104482D
:1023B000FFF7F4FB10BDC046B731002060200020BD
:1023C0004521001070B582B004000D00254B1B782C
:1023D000002B0CD0244B1C700023244A1370244A79
:1023E0001370052C16D8A400224B1B599F46224E71
:1023F000224930000CF03EFB02000023009317330B
:1024000000213000FFF7E0FA164B01221A70FFF7A7
:10241000F1FCDFE71A4B1B4A1A601B4AC8235B001A
:10242000D05CFFF757FF002D15DA02B070BD144BDA
:10243000164A1A60F1E7124B154A1A60EDE7104B85
:10244000144A1A60E9E70E4B134A1A60E5E70C4B91
:10245000124A1A60E1E7FF2D00DDFF25E8B2FFF721
:10246000AFFDE2E7B6310020B3310020B4310020E7
:10247000B8310020841B011000002050C81B01103F
:1024800060200020AD220010D8160020052000108A
:10249000691D00107D20001039200010291B00103C
:1024A00010B5034B186064210520FFF78BFF10BDAA
:1024B000B820002010B5144A144900F0F7F900289C
:1024C00000D110BDFFF704FD002803D1104B1B788D
:1024D000002BF6D00F4B1B68002B0ED0984700281E
:1024E000EFD000240B4B1C600B4AC8235B00D05C70
:1024F000FFF7F0FE094B1C70E3E7094B1B68002B4C
:10250000DFD09847DDE7C046B82D00201A41000013
:10251000B831002064200020D8160020B4310020FB
:102520006020002000B587B02C4B1B7805AA1370E3
:1025300004AA137007F062FD02000B1E2CDB284872
:10254000002112184B41002B2CDB002B2EDB0292BA
:1025500003930123009305AA6A2122480CF0E2FDAF
:1025600007F04CFD02000B1E26DB1D48002112184F
:102570004B41002B26DB002B28DB02920393002328
:102580000093013304AA6A2116480CF0EAFD0028E2
:1025900022DD012007B000BD134B144A3F2114482F
:1025A00008F06EFB01225242124BCEE70E4B0F4A4F
:1025B0003F210F4808F064FB0B4B0C4A3F210C48AD
:1025C00008F05EFB012252420A4BD4E7064B074A51
:1025D0003F21074808F054FB0020DBE748250110A5
:1025E0001027000048150020D81B0110581C0110AE
:1025F000F41B0110FFFFFF7F10B586B00020FDF730
:10260000BBFE00241CE0204B204A3F21204808F05C
:1026100037FB002B28DB0292039300230093023345
:1026200005AA6A211B480CF07DFD0400831C21D003
:10263000431C22D0FA20800007F010FCFEF79CFD1E
:10264000002C1DD105AB144A1A8007F0D7FC0200FC
:102650000B1ED8DB1148002112184B41002BD8DA91
:10266000012252420E4BD4E7074B084A3F2108484B
:1026700008F006FBFEF780FDDCE7FEF77DFDD9E7FD
:10268000FEF77AFD06B010BDD81B0110581C0110D2
:10269000F41B01104815002009410000102700001C
:1026A000FFFFFF7F00B587B0232821D8C0B20538CF
:1026B000C0B27F23184005AB04221A70587007F08F
:1026C0009DFC02000B1E20DB1848002112184B4114
:1026D000002B20DB002B22DB0292039300230093CC
:1026E000023305AA6A2112480CF01CFD07B000BD98
:1026F000AF235B00984200D9180028380A2109F05E
:1027000045FCC0B21F30C0B2D3E70A4B0A4A3F2192
:102710000A4808F0B5FA01225242094BDAE7054BA4
:10272000054A3F21054808F0ABFAC04610270000D3
:1027300048150020D81B0110581C0110F41B011073
:10274000FFFFFF7F00B587B02E4B1B7805AA1370E3
:1027500004AA137007F052FC02000B1E30DB2A485B
:10276000002112184B41002B30DB002B32DB029290
:1027700003930123009305AA6A2124480CF0D2FC9C
:1027800007F03CFC02000B1E2ADB1F480021121838
:102790004B41002B2ADB002B2CDB029203930023FE
:1027A0000093013304AA6A2118480CF0DAFC0230C5
:1027B000012825D904AB1878C007C00F07B000BDA9
:1027C000134B144A3F21144808F05AFA012252428E
:1027D000124BCAE70E4B0F4A3F210F4808F050FA40
:1027E0000B4B0C4A3F210C4808F04AFA0122524296
:1027F0000A4BD0E7064B074A3F21074808F040FA4A
:102800000120DBE7482501101027000048150020B3
:10281000D81B0110581C0110F41B0110FFFFFF7F93
:1028200010B5FA21074A090200F040F8002800D14B
:1028300010BDFFF787FF044B18700028F8D1FEF792
:10284000A9FCF5E7F82D00209F31002010B50022EB
:102850000021002008F0D4F9FEE70000072804D882
:102860008000024B9C466044016070470C8005402C
:1028700010B5072802D90024200010BD8000044BA9
:102880009C466044046800210520FFF7E7FFF3E75A
:102890000C80054010B501000520FFF7DFFFFFF7B2
:1028A000D5FF10B50520FFF7E3FF10BD106053689A
:1028B000834205D9C31A013B8B4205D200207047E1
:1028C000834204D2C31AF7E750600120F7E70020E3
:1028D000F5E730B51860002A0BD15C6884420BD94B
:1028E000041B013C0025002D0BD1A14209D9100089
:1028F00030BD58600020FBE7844205D2041B002550
:10290000F1E758600120F3E71000F1E710B5FEF79A
:10291000F1FF022801D0024810BD0248FCE7C04682
:10292000701C0110601D011010B500200DF09CFFFF
:1029300010BD000010B5102106480FF049F800281E
:1029400000D110BD044B01221A7002480FF000F8AC
:10295000F7E7C04680150020C531002010B51021D2
:1029600006480FF035F8002800D110BD044B0022B6
:102970001A7002480EF0ECFFF7E7C0468015002001
:10298000C531002070B5050010210D480FF020F86A
:10299000041E09D10B4B22000B492800FFF799FFB9
:1029A000051E08D1200070BD084B1C78E4B2044815
:1029B0000EF0CEFFEEE7FFF7BDFF2C00F2E7C046BA
:1029C000801500202C2F0020A0860100C53100209A
:1029D000037801330370044B1B785BB2022B01D0E8
:1029E000024870470248FCE7E4120020A41E0110D0
:1029F000DC1F0110014B18607047C046C022002048
:102A000010B50400002001F013FC022C2BD0062C82
:102A10001CD0012C10D0012001F00AFC1748FFF750
:102A2000E9FF174B174A1A60174B184A1A60184BE0
:102A30001C700EF025FB10BD0120FFF7DBFF104BD3
:102A4000144A1A60104B144A1A60F0E7012001F092
:102A5000EFFB1248FFF7CEFF094B114A1A600A4BF1
:102A60000A4A1A60E3E70120FFF7C4FF044B0D4A4E
:102A70001A60054B0C4A1A60D9E7C046141E0000C4
:102A8000BC22002079780010C422002029290010DF
:102A9000E4120020E582001005310010DC05000082
:102AA00095890010216100109135001070B5040067
:102AB0000D0016000120002140420DF049FA2000CF
:102AC000FFF760FF002809D1154B1B78002B04D1BC
:102AD000144B1B689847124B187070BD124B196845
:102AE000124A2000FFF7E2FE0028F6D0FFF736FF7B
:102AF0000B4B1B78002BF0D00D4B1B6831002800CE
:102B0000984701246442002120000DF021FA0021A1
:102B100020000DF01DFA002120000DF019FADCE76D
:102B2000C6310020C4220020C0220020C02D002079
:102B3000BC220020084B1B785BB2022B07D0062B6F
:102B400007D0012B01D0054870470548FCE7054830
:102B5000FAE70548F8E7C046E412002048260110CD
:102B6000EC1E0110C81F0110242F0110084B1B7808
:102B70005BB2022B07D0062B07D0012B01D00548F2
:102B800070470548FCE70548FAE70548F8E7C046FE
:102B9000E412002008260110BC1E01109C1F011029
:102BA000F82E01100020704710B5134B1B785BB254
:102BB000022B13D0062B18D0002B05D00B78002B3E
:102BC0000FD1FFF7B7FE0CE00B78302B03D0212B91
:102BD00001D0812B05D1FFF7ADFE02E00B78212B50
:102BE00000D010BDFFF7A6FEFBE70B78012BF8D154
:102BF000FFF7A0FEF5E7C046E412002070B504AC74
:102C000025882E4C247864B2012C2DD0022C12D0B1
:102C1000002C00D070BD0029FCD1002AFAD1187810
:102C2000102804D02A00190001F052F8F2E7981C8D
:102C300000F0D6FDEEE70029ECD1002AEAD11A789F
:102C4000112A05D0132AE5D11D480BF049F8E1E718
:102C50005B78002B06D01B490B1C1B4A1B48FEF758
:102C600033FAD7E70021F7E70029D3D1002AD1D1E1
:102C70001A78002ACED15A78082ACBD1DA78002ADD
:102C800002D11979002911D01B79101C9A4200D267
:102C9000181CC0B20AF009FD0D490AF09CFC011C89
:102CA000031C094A0948FEF70FFAB3E70020031C8A
:102CB000021C011CFEF708FAACE7C046E412002033
:102CC000241E01106666263F000020420000F042EC
:102CD00000007F43064B1B785BB2022B03D0062B10
:102CE00003D1044870470448FCE70448FAE7C046AB
:102CF000E4120020382F0110301F01105C26011053
:102D000070B5EE2824D0002825D080001E4BC55871
:102D100028000EF0DBFDC0B21F2800D91F200023C1
:102D200027E05A1C194CA15C0902E25C0A434400EA
:102D30001749625202330130112BF2D9154A144B54
:102D400013CB13C211001A680A609B888B8019E0AC
:102D500000200023F0E70C4B196802220E480AF00D
:102D600059FE012007E05A1CEC5C5100094BCC5283
:102D7000D3B29842F7D801304000C0239B001843DB
:102D8000044B1880034870BD08120020681E011013
:102D9000A4180020481C00204A1C002000B591B057
:102DA0004022694600200DF0EDFF00200EF000F8F3
:102DB000064B1B785BB2002B01D011B000BD04485C
:102DC0000AF05EFF684604F0DDFEF6E7E41200203C
:102DD0003C1E0110F0B583B005001400012966D136
:102DE00013785B069B0F012B58D0022B03D0002BCE
:102DF00001D000205CE06378022B24D0072B03D0A5
:102E0000012B19D0002053E0227963791B02134370
:102E1000042B03D0052B08D0002049E02433264A98
:102E2000210028000DF0B8F942E08D33234A21003B
:102E300028000DF0B1F93BE02723214A21002800AA
:102E40000DF0AAF934E0227963791B021343072BB2
:102E500030D11C4B1B785BB2022B0FD06B469F1DF1
:102E6000194E0222310038000AF0D4FD3B883200AE
:102E7000083A210028000DF08FF919E06B469F1DDC
:102E8000124E0222310038000AF0C4FD3B883200A5
:102E9000083A210028000DF07FF909E051780C482C
:102EA0000AF01EFF210028000DF05AF900E0012071
:102EB00003B0F0BD0020FBE7BC1200202812002068
:102EC0007C1E0110E4120020B41C01108C1D0110A6
:102ED000541E0110012815D0022907D000290BD15A
:102EE000022A29D0002A29D006207047022A1FD0A2
:102EF000002A1FD00800F8E7022A21D0002A21D09A
:102F00000820F2E7022907D000290BD1022A1FD09E
:102F1000002A1FD00720E8E7022A15D0002A15D082
:102F20000320E2E7022AE0D0002A15D00020DCE7E7
:102F30000120DAE70320D8E70720D6E70520D4E709
:102F40000020D2E70420D0E71000CEE70420CCE731
:102F50000820CAE70620C8E70520C6E70120704719
:102F600010B58422002102480AF04EFD10BDC04673
:102F7000E426002010B50020FFF7F2FF10BD00008E
:102F8000F0B5C64600B580460D008B795D2B24D187
:102F90000B79DF00FF1ABFB21937BFB2974221D8B1
:102FA0000C780C19002605E0104A53700136F6B271
:102FB0002378E4182B79B34210D96378052BF7D125
:102FC000210040460CF0F2FC00280DD0A378DA096D
:102FD000012AE9D0054A9370E8E70027380080BC51
:102FE000B846F0BD0027F9E70027F7E7E426002000
:102FF00030B583B0040014484078884206D0124AA5
:1030000092788A420CD0012003B030BD0F4A002ACA
:1030100018D09AB20E490020FFF7C6FD0120F3E751
:103020000C4D9BB200932B00002200210020FFF7E3
:10303000E5FD2B00443B997840232A0020000CF04A
:1030400029FDE1E70120DFE7E4260020A92B00109D
:10305000E82600202827002010B50CF00BFC0028E3
:1030600003D10023002B08D110BD0CF00BFC00286D
:1030700001D10123F6E70023F4E70B4B99780020F8
:103080000CF044FD0028EFD1074CA1780CF0DAFCDD
:1030900022004432A178402300200CF0FBFCA178F0
:1030A00000200CF0E3FCDFE7E426002070B505000B
:1030B0000C000CF0E7FB002806D1812100200CF069
:1030C000C1FC002803D170BD0CF0E4FBF5E7231C24
:1030D000402C00D940239CB2094E22002900300028
:1030E0000AF098FC351F69782300320000200CF0AC
:1030F000D1FC697800200CF0B9FCFFF7ADFFE2E7E6
:10310000E826002010B5104B5C780CF0B3FB0028CB
:1031100006D10023002B13D0002C09D1002010E091
:103120000CF0B0FB002801D10123F3E70023F1E705
:10313000210000200CF0EAFC002803D1013000E05F
:10314000002010BD0020FCE7E426002010B53C2242
:10315000002102480AF058FC10BDC046E41C0020C3
:1031600010B50020FFF7F2FF10BD0000F0B583B0EE
:1031700006000F001500FEF7BDFB02284CD13B797D
:10318000DC00E41AA4B21234A4B2AC4248D8002342
:10319000002B09D00025002D44D0397879184B78C0
:1031A000212B11D0002438E01A01D21A92001F48B6
:1031B00082185278002A02D00133DBB2E8E71A0104
:1031C000D11A89004518E6E7A9630B78C9183A793E
:1031D0006B1C0193AB1C0093032330000CF000FC2C
:1031E000002821D0BB79012B13D001232B71BB7890
:1031F0002B70AA6BD179137A1B020B43EB80A97851
:1032000000290AD02A003032062330000CF042FC9C
:1032100003E0FB79EB70E8E70024200003B0F0BD89
:103220000024FAE70024F8E70024F6E7E41C002075
:1032300070B582B005001D4C002000280AD000287F
:1032400030D162788A4213D0A2788A421AD0012003
:1032500002B070BD0401241AA400144A1419A27803
:103260008A42ECD062788A42E9D00130C0B2E4E709
:103270000F4A002A18D0210008319AB2FFF794FCB7
:103280000120E5E7260030369BB200933300002290
:103290000021FFF7B3FCA1780623320028000CF0D0
:1032A000F9FBD5E70020D3E70120D1E7E41C00209B
:1032B000A92B0010F0B5C64600B582B00600150077
:1032C00012781F231340012B00D01FE1287900241E
:1032D000002C0DD0FF24002C00D01CE1270060231F
:1032E00018001040134239D101290BD001200EE102
:1032F00023011B1B9B008E4FDB5D9842EBD00134FA
:10330000E4B2E5E7EA786B78062B06D0062B00D00E
:1033100005E1222A12D00020F9E0212AF6D123016A
:103320001F1BBF00824BDF19BA6B002A00D1F4E0EB
:103330001378290030000CF02FFFE8E02000FFF7A1
:10334000C9FC02003B01DF1BBF00794BDF19FB8882
:10335000290030000CF020FF0120D8E0202800D008
:10336000DFE06B780B2B00D9DDE09B00714AD3586E
:103370009F46012901D00120C9E0EA78A9782301FC
:103380001B1B9B0008336A4FFF18A879EB791B02BF
:103390000343181C252B00D9252080B2002909D011
:1033A000012B16D97B1C9C463970013880B2012351
:1033B000984602E0BC4600239846009063462000F1
:1033C000FFF7F0FB030043449BB2002B05D1002024
:1033D0009DE0BC4600239846EFE73A002900300004
:1033E0000CF0DAFE012092E0012903D0032915D068
:1033F00001208CE0AA79EB791B021343062B01D93B
:10340000002084E02201121B9200303248498A18C1
:10341000290030000CF0C0FE012078E0EA78A9789D
:1034200023011B1B9B0030334148C318AE79E87958
:1034300000023043051C062800D90625ADB200293C
:1034400004D0012802D91878884205D000952000C0
:10345000FFF7D4FB01205AE00133013DADB2F5E79F
:10346000012901D0012052E0E97823011F1BBF0090
:103470002F4BDF197971304B002B04D0200000E076
:1034800000BF002843D0290030000CF069FE012065
:103490003DE0012901D0012039E02201171BBF00C6
:1034A000234AD21905320123290030000CF074FEA2
:1034B00001202CE0012901D0012028E02201171B66
:1034C000BF001B4AD21904320123290030000CF03E
:1034D00063FE01201BE0012903D0032907D001204E
:1034E00015E0290030000CF03BFE01200FE0A97828
:1034F00023011F1BBF000E4BDF1939710F4B002B2F
:1035000013D0200000E000BF012000E0002002B046
:1035100080BCB846F0BD0020F9E70020F7E70020A6
:10352000F5E70020F3E70020F1E70120EFE7C046D0
:10353000E41C0020001F011000000000000000003B
:1035400010B50301181A8000104B181844780CF0BD
:1035500091F9002806D10023002B13D0002C09D1AB
:10356000002010E00CF08EF9002801D10123F3E7D0
:103570000023F1E7210000200CF0C8FA002803D155
:10358000013000E0002010BD0020FCE7E41C00201A
:1035900010B50020FFF7D4FF10BD0000F8B50400FF
:1035A0000F0016001D0003011B1A9B001F4AD318B1
:1035B000597800200CF046FA002825D0002F24D09E
:1035C0002B1C242D00D924239DB2184A2301191B3A
:1035D000890051180F721B1B9B000833D018013053
:1035E0002A0031000AF016FA0135ADB20F4B200166
:1035F000021B920008329A18001B800018184178AC
:103600002B0000200CF046FAF8BD2B1C252D00D90C
:1036100025239DB22001001B80000830034B1818A1
:103620002A0031000AF0F6F9E0E7C046E41C002069
:1036300010B513000A0001000020FFF7AFFF10BD16
:10364000107003120F20184050700B011843507077
:10365000091191707047000070B5124D802424014B
:103660002A0021002000FFF7EBFFEA1C21002000C8
:10367000FFF7E6FFAA1D21002000FFF7E1FF2A0067
:10368000093221002000FFF7DBFF2A000C32210065
:103690002000FFF7D5FF2A000F3221002000FFF79E
:1036A000CFFF70BD6031002010B5402200210248DC
:1036B0000AF0AAF910BDC04600220020014B187084
:1036C0007047C046C1310020014B18737047C04697
:1036D00000220020014B58737047C0460022002092
:1036E000074A0021535E107806490870023399B2E8
:1036F0001BB21380FF2B01DDFF3911807047C046DC
:103700009431002000220020024B1A78024B5A709C
:103710007047C0461821011000220020054B0322EB
:103720009A734821D9731A74013A5A744739197631
:103730005A7670470022002010B5C4B2000A002358
:1037400007E019000E31044A545401315054023339
:10375000DBB20D2BF5D910BD0022002010B50300FF
:103760007F2800D97F2080B2002B08D009F09DFF70
:10377000044909F046FF044909F028FF10BD02483A
:10378000FCE7C046BA6693400000204210B5030033
:103790007F2800D97F2080B2002B08D009F085FF58
:1037A000044909F02EFF044909F010FF10BD02483A
:1037B000FCE7C046C56613410000A04210B50300F7
:1037C0007F2800D97F2080B2002B05D009F06DFF43
:1037D000024909F000FF10BD0020FCE70000FE4296
:1037E000F8B5CE46474680B5C278930909D0012B7B
:1037F00049D0022B43D142781202037813439B0530
:103800003DD00478E3075AD5630899464378DA0037
:103810007821114088468278D200082515405B093E
:103820001D43ED002F4E002700244378DB0601D511
:103830000023984683789B0700D500250021381C7B
:1038400009F010FF002803D04846FFF79FFF071C30
:103850000021301C09F006FF002803D02000FFF7EC
:103860007DFF061C4046FFF7A9FF041C2800FFF758
:10387000A5FF031C321C211C381CFDF725FCC0BC15
:10388000B946B046F8BD81780C0246783300234330
:103890001B05F4D003789807F1D17F240C40520027
:1038A0007E252A40CD091543F101FF220A409B08DD
:1038B0001A439146730898460026371CBEE76408F1
:1038C0004378DA007821114088468278D2000825B2
:1038D00015405B091D43ED000026034F0023994668
:1038E000A3E7C046000020430000A0430A4B01228A
:1038F0001A7000225A7003329A70084A117AD970ED
:10390000D179197191795971517999711179D97167
:10391000D2781A727047C04600220020D8160020C4
:1039200010B50400FFF7C0FE8120FFF7C7FE012C91
:1039300009D0064B1C70064B19784023034A00201F
:103940000CF0BAFF10BDFFF7D1FFF4E70022002012
:10395000C131002070B586B06C462A4B043322007A
:1039600070CB70C270CB70C2022837D0032841D010
:103970000023002500E00133052B10D8224AD2187D
:103980002D32FF3214780522D21A885C8442F2D09C
:103990001D4AD2182D32FF3210700125EBE7002DA1
:1039A00019D18120FFF790FE184801238373164B2D
:1039B0001A7AC273DA7902749A7942745A798274E3
:1039C0001A79C274DB7803751530182269460AF03B
:1039D00021F806B070BDFDF7EFFEE2E78120FFF7AA
:1039E00073FE0A48022383730F30102208490AF03D
:1039F00011F8EEE78120FFF767FE044B03229A736C
:103A0000E7E7C04618210110D81600200022002048
:103A10008022002070B504000E001500FFF744FE60
:103A20002120FFF74BFEFFF75BFEFFF76DFE200046
:103A3000FFF750FE482C48D8A4002E4B1B599F4638
:103A40008020FFF741FE00234BE0F07A431E9841AF
:103A5000C0B200F0EDFB8020FFF736FEF3E7310047
:103A60000C31F07AFFF776FFEDE78020FFF72CFEB0
:103A7000F27A214B1A70E6E78220FFF725FEFFF766
:103A80004DFEE0E78020FFF71FFEDCE79020FFF708
:103A90001BFEF27BF17A307B00F0FCF9D3E7FEF7F6
:103AA000ABFDD0E78020FFF70FFECCE78320FFF7C8
:103AB0000BFE6420FFF740FEC5E78020FFF704FE01
:103AC000C1E78020FFF700FEBDE70023AB4202D232
:103AD00001339BB2FAE78020FFF7F6FDB3E701332D
:103AE000DBB21F2BFBD94023044A212100200CF01C
:103AF000E3FE70BDF41F0110E81200200022002038
:103B000070B50C00150010280DD080280FD00128AA
:103B100000D070BD881CFFF763FEA07A2A00210048
:103B2000FFF778FFF5E7881CFFF75AFEF1E74878C2
:103B3000FFF7F6FEEDE70000094B1B780A2B07D0D4
:103B40000B2B09D0064B0A221A70054B18787047C8
:103B5000034B0B221A70F8E7014B0C221A70F4E7A2
:103B6000E912002070B50500524B1B78002B04D1E0
:103B7000514B1B78302B0BD070BD504B1A88504BDB
:103B800018785049FFF7BCFF4A4B00221A70F3E740
:103B9000FFF78AFD3020FFF791FDFFF7A1FDFFF74A
:103BA000B3FD00F0EBF98378474C2373C37863735C
:103BB0000378A3734378E3730379237443796374BD
:103BC000037AA374437AE37483792375C3796375A5
:103BD000837AA375C37AE37500F0D0F983782376EE
:103BE000C37863760378A3764378E3760379237703
:103BF00043796377037AA377437AE3778279202343
:103C0000E254C2790133E254827A0133E254C27A37
:103C10000133E25400F0B2F982782423E254C278EE
:103C20000133E25402780133E25442780133E25422
:103C300002790133E25442790133E254027A0133CA
:103C4000E254427A0133E25482790133E254C27978
:103C50000133E254827A0133E254C27A0133E254EE
:103C60002B78A3706B78E370AB782371EB7863717A
:103C70002B790F210B40A3716879AB791B020343A9
:103C80001B11E371EB7923722B7A19406172697A07
:103C9000AB7A1B020B431B11A372FFF74DFFE072BF
:103CA0000A4B19784023220000200CF005FE01F099
:103CB000F7FE61E7C2310020E8120020E612002082
:103CC000C33100204022002000220020C13100200A
:103CD00010B5054B01241C70044B1870044B1A805E
:103CE000044809F097FE10BDC2310020C331002006
:103CF000E61200204022002010B5024B181809F0EF
:103D000089FE10BD00220020502800D1B0E003D968
:103D100060282FD0FF2010E0402800D9AAE02028FA
:103D200005D34B2924D88B00564AD3589F460028E8
:103D300003D0102800D09FE0002070479520FCE7BA
:103D40000020FAE72A39504B59182D31FF310878F5
:103D5000F3E704394C4B59182D31FF310878ECE763
:103D60000020EAE70020E8E76820E6E70020E4E733
:103D70000020E2E7A92979D88B00444AD3589F460E
:103D8000FF20DAE70220D8E70120D6E72320D4E796
:103D90000020D2E7B920D0E71A20CEE70120CCE7F7
:103DA0000020CAE74020C8E70020C6E74020C4E75B
:103DB0000020C2E74020C0E70120BEE70020BCE7AA
:103DC0000120BAE70020B8E70120B6E70020B4E7F9
:103DD0003B20B2E73420B0E73B20AEE73420ACE72D
:103DE0003B20AAE73420A8E73D39294B585CA4E7DB
:103DF0003D39274B585CA0E71A209EE71A209CE724
:103E00001A209AE75E2098E7012096E7502094E771
:103E1000FD2092E7002090E700208EE7C6208CE787
:103E20000F208AE70F2088E7302086E7612084E7AB
:103E3000AE2082E7902080E7D9207EE7D4207CE77F
:103E400014207AE7542078E7412076E7152074E7BC
:103E5000542072E7C72070E779206EE79C206CE75A
:103E600033206AE7362068E7632066E7002064E7CE
:103E7000002062E7FF2060E7FF205EE722205CE78A
:103E800003205AE734210110D816002064220110C3
:103E900060310020F0B58BB006000F00150008A9B6
:103EA0000F70487000248C70CC700A7105220E20AF
:103EB000FFF722FF00941A22002101A809F0A4FDB7
:103EC00007E03919C9B23000FFF71EFF6B461855DD
:103ED0000134A542F5DC2A0069461320FFF70CFFE8
:103EE0000BB0F0BDF8B50400204921480DF060FD8D
:103EF0000028F9D01F4D2B68581C032108F046F804
:103F00002778627812021C4E4800401883005B1824
:103F10003A43F254120AF3185A70A078E278120267
:103F200002439A70120ADA7020796279120202430F
:103F30001A71120A5A71A079E279120202439A7137
:103F4000120ADA71207A627A120202431A72120A93
:103F50005A72A07AE27A120202439A72120ADA7252
:103F6000296003480DF0F4FCF8BDC0469C1E0020FB
:103F700088150020981E0020701E002010B50949E9
:103F800009480DF015FD0028F9D0084B1C680648BB
:103F90000DF0DEFC6000001980000019044B1818B9
:103FA00010BDC046A01E002088150020981E0020CD
:103FB000701E00204118CB0F5B185B10802252024C
:103FC000914204DA044A914203DB18B27047034875
:103FD000FCE70348FAE7C046FFFFFEFFFF7F000053
:103FE0000080FFFF70B52848FEF75AFA274D0622D9
:103FF0000021280009F008FDA81D0622002109F073
:1040000003FD234B01221A70224BFA2292011A60FF
:10401000214B00221A70214E214C31002000FCF768
:10402000A9FD0023E25E9C3D9C23EA540223E25E4C
:104030009D23EA540423E25E9E23EA540623E25EB3
:104040009F23EA540823E25EA023EA540A23E25E97
:10405000A123EA540023F25EA223EA540223F25E73
:10406000A323EA540423F25EA423EA540623F25E57
:10407000A523EA540823F25EA623EA540A23F25E3B
:10408000A723EA5470BDC0460000FFFF741700204C
:10409000A93100206C1E0020AA3100205C1E0020E7
:1040A0003C1E002010B5084ABA235B00D05C0121F9
:1040B0004942FEF787F9FDF779FBFDF77DFB034BDE
:1040C00000221A7010BDC046D8160020A931002069
:1040D000F8B552495248FCF74DFD524B1B78002B66
:1040E00000D160E0504C9C254D4E0023F15E60579E
:1040F000FFF760FF605501350223F15E6057FFF75F
:1041000059FF605501350423F15E6057FFF752FFF8
:10411000605501350623F15E6057FFF74BFF605590
:1041200001350823F15E6057FFF744FF6055013504
:104130000A23F15E6057FFF73DFF6055A227374D18
:104140000023E95EE057FFF735FFE0550137022312
:10415000E95EE057FFF72EFFE05501370423E95EE3
:10416000E057FFF727FFE05501370623E95EE057E8
:10417000FFF720FFE05501370823E95EE057FFF71E
:1041800019FFE05501370A23E95EE057FFF712FFF8
:10419000E055002333732B73244A1368013B1360EB
:1041A000002B37D0F8BD1E4A0023D05E1E4B9C2149
:1041B00058540221505E9D2158540421505E9E2186
:1041C00058540621505E9F2158540821505EA0216A
:1041D00058540A21515EA1229954104A0021505E80
:1041E000A22158540221505EA32158540421505E4C
:1041F000A42158540621505EA52158540821505E30
:10420000A62158540A21515EA7229954054BA63A7B
:104210001A70C7E7FFF746FFC4E7C0465C1E0020E0
:104220003C1E0020AA310020D81600206C1E002061
:10423000014B18707047C046AB310020F8B5474BB2
:104240001B78002B04D1464B1B78002B03D1F8BD03
:10425000FFF73EFFFBE7FA21424A8900FEF726FB03
:104260000028F4D0404C21004048FCF783FC237B1D
:10427000002B03D03D4B1B7B002B09D13B4B1B7B01
:10428000002B67D10023394A1373374A1373DEE7D3
:10429000364F3888364C9C23E3569BB2C01A324EB8
:1042A0003188A223E3569BB2C91A09B200B2FFF7C4
:1042B00081FE304D288078889D23E3569BB2C01A3A
:1042C0007188A323E3569BB2C91A09B200B2FFF763
:1042D00071FE6880B8889E23E3569BB2C01AB188ED
:1042E000A423E3569BB2C91A09B200B2FFF762FEDB
:1042F000A880F8889F23E3569BB2C01AF188A523B3
:10430000E3569BB2C91A09B200B2FFF753FEE88028
:104310003889A023E3569BB2C01A3189A623E356FD
:104320009BB2C91A09B200B2FFF744FE288178890E
:10433000A123E3569BB2C01A7189A723E3569BB20F
:10434000C91A09B200B2FFF735FE68812800FFF7ED
:10435000C9FD97E70548FFF7C5FD93E7A9310020A0
:10436000AB310020C82D00205C1E00203C1E002028
:10437000D81600204C1E002004281ED00CDC01287A
:1043800016D000280FDD0238C0B201280BD80D4B23
:104390000B60083313600AE0052804D10A4B0B6058
:1043A0000833136003E0094B0B6008331360704758
:1043B000074B0B6008331360F9E7064B0B600833BB
:1043C0001360F4E7D0170020F0170020B01700208A
:1043D000C0170020E017002030B50F220D780F2302
:1043E0001D40047894432C4304704C781C402501F4
:1043F00004781C402C4304708D781D40447894430D
:104400002C434470CC781C40250144781C402C433C
:1044100044700D791D40847894432C4384704C790A
:104420001C40250184781C402C4384708D791D40EC
:10443000C47894432C43C470CC791C402501C478C3
:104440001C402C43C4700D7A1D40047994432C43C6
:1044500004714C7A1C40250104791C402C430471E2
:104460008D7A1D40447994432C434471CC7A1C408E
:10447000250144791C402C4344710D7B1D408479F7
:1044800094432C4384714C7B1C40250184791C404F
:104490002C4384718D7B1D40C479944322002A43B0
:1044A000C271CA7B1A401201C1790B401343C37118
:1044B00030BD0B781B071B0F03700B781B09437073
:1044C0004B781B071B0F83704B781B09C3708B78CD
:1044D0001B071B0F03718B781B094371CB781B07DC
:1044E0001B0F8371CB781B09C3710B791B071B0F43
:1044F00003720B791B0943724B791B071B0F8372E5
:104500004B791B09C3728B791B071B0F03738B79C4
:104510001B094373CB791B071B0F8373CB791B09D3
:10452000C373704770B50400144D154A2900FFF796
:1045300023FF2B68134A1168526819605A60042CD3
:1045400012D0052C15D0032C09D00D4B1B6800226E
:104550001A800A4B19680C48FFF7ABFF70BD084B77
:104560001B680A4A1A80F4E7054B1B68084A1A8040
:10457000EFE7034B1B68074A1A80EAE75C2000203C
:10458000B8220020502501104020002000E1FFFF4C
:1045900000C0FFFF00CAFFFF10B50E4B19600E4BA5
:1045A0001A600E4B18700E4C0E4A2100FFF7E4FE05
:1045B00021680D4C2000FFF77CFFE37A0B3B5A1E6D
:1045C00093410A4A1370637A093B5A1E9341084A81
:1045D000137010BD7419002078190020B13100202B
:1045E0005C200020B822002040200020B0310020B4
:1045F000AC310020024A94235B00D0547047C0467F
:10460000D816002010B5044B00221A70034B19680D
:104610000348FFF74EFF10BD9C3100205C200020B6
:104620004020002070B590B00500384C384E220074
:104630003100FFF7A1FE31683648FFF73AFFFFF778
:10464000E1FF002300933C22002101A809F0DCF9DE
:10465000A6236A461370557033681A781207120F32
:1046600069468A701A781209CA705A781207120FAE
:104670000A715A7812094A719A781207120F8A71D0
:104680009A781209CA71DA781207120F0A72DA7868
:1046900012094A721A791207120F8A721A791209CC
:1046A000CA725A791207120F0A735A7912094A7399
:1046B0009A791207120F8A739A791209CA73DA79F2
:1046C0001207120F0A74DB791B094B7422681388D6
:1046D0001B0A8B741388CB740F4B942252009A5C84
:1046E0000A75952252009B5C4B75FA20000103F07D
:1046F0009DF9002801D110B070BD00200CF088FB9E
:104700004022694600200CF065FBF4E7AC22002053
:10471000A822002098220020D816002070B50A0098
:1047200000210F2937D803000B41DB0714D40131D6
:10473000C9B2F6E70133DBB20F2B0FD82A4AD05C9F
:104740002A4A12789042F5D1294A146801209840EB
:10475000228802432280EDE70023EDE7224C234824
:1047600003786354224B1D6801228A402B889343AF
:104770002B8002781F4809F0B3FA1F4B00221A70F1
:104780001E4B18682100FFF727FE1D4B002018560E
:10479000FFF748FF70BD002AFCD0002401E001347F
:1047A000E4B20F2C14D8104B1A5D104B1B789A42B0
:1047B000F5D12100134809F093FA0D4B1968012235
:1047C000A2400B8813430B800B4B00221A70E6E7C4
:1047D0000A4B18680449FFF7FFFD094B00201856E3
:1047E000FFF720FFD6E7C046982200209B3100202B
:1047F000AC2200200C2501109C310020A8220020B2
:10480000C43100202825011070B504000D00084EA9
:10481000084A3100FFF7B0FD31680748FFF749FE4D
:10482000064B1C70064B1D70064B01221A7070BDA2
:10483000A8220020AC22002098220020C4310020B1
:104840009B3100209C31002070B5D04B00221A8093
:104850009A70CF4B1B78002B13D0CE4B1A689378ED
:104860009B07D90F002B03DA9378022083439370C0
:10487000C84B1B681A78587800021043FFF74EFFA8
:1048800070BD01F047FC002826D0C24B19688A7819
:104890000124A2438A7019688A78022082438A70B0
:1048A00019684A781025AA434A7019684A78103561
:1048B000AA434A7019680A78A2430A7019680A78EC
:1048C00082430A7019680A78023082430A701A68B3
:1048D000137808218B431370AC4B00229B5EAE4AC9
:1048E00012685178C90600D527E1AA4909684978B4
:1048F000C906C90FA948007B814009B20B43A349EF
:104900000B805178890600D519E1A24909684978D8
:104910008906C90FA148407B814009B20B439B4CDB
:1049200023809C49096888788007C00F4000A578DB
:104930000226B5432843A0708878C007C50FA07829
:10494000013EB0432843A0701078C00700D5F8E0BE
:104950000878C007C00F914C2478A04000B20343F0
:104960008A4803801078800700D5ECE0087880073B
:10497000C00F8A4C6478A04000B203438348038090
:104980001078400700D5E0E008784007C00F834C5E
:10499000A478A04000B203437C480380107800074D
:1049A00000D5D4E008780007C00F7C4CE478A04024
:1049B00000B20343754803801078C00600D5C8E0F4
:1049C0000878C006C00F754C2479A04000B203439C
:1049D0006E4803801078800600D5BCE00878800619
:1049E000C00F6E4C6479A04000B203436748038057
:1049F0001078400600D5B0E008784006C00F674C3C
:104A0000A479A04000B20343604803801078C00935
:104A100000D0A4E00878C009604CE479A04000B25E
:104A200003435A4803805078C00700D599E048787E
:104A3000C007C00F594C247AA04000B2034353482A
:104A400003805078400700D58DE048784007C00FBC
:104A5000524CA47AA04000B203434C4803805078E3
:104A6000800700D581E048788007C00F4B4C647AFE
:104A7000A04000B2034398B2444C2080800576D514
:104A80004748424DEC1CE870050A65700025A5708A
:104A9000000EE070507880076BD448788007C00F14
:104AA0003E4C647AA04000B20343384803805078FB
:104AB000000760D448780007C00F384CE47AA04063
:104AC00000B2034398B2314C2080000555D53448DC
:104AD0002E4DEC1DE871050A65700025A570000ECD
:104AE000E070507800074AD448780007C00F2B4C7C
:104AF000E47AA04000B20343244803805078400683
:104B00003FD448784006C00F244CA47BA04000B29C
:104B100003431E4803805278D20934D14A78D2091F
:104B20001E49C97B8A4012B2184913430B801D4BA2
:104B300018680C2208F06EFFA2E60021DEE60021D4
:104B4000ECE600200BE7002017E7002023E7002019
:104B50002FE700203BE7002047E7002053E7002035
:104B60005EE700206AE7002076E7002082E7002069
:104B700087E7002098E70020A3E70020A8E70020AF
:104B8000B9E70020C4E70022CEE7C046502000204D
:104B90009C31002074190020B82200204020002001
:104BA000FF0F00007819002010B5054CA4466044A2
:104BB000624442430819634458431018C00F10BDA3
:104BC00000F8FFFF70B50C0008F074FD8A21C905DC
:104BD00008F0F7FC051C200008F06CFD8A21C905CF
:104BE00008F0EFFC041C291C281C08F00AFD051C19
:104BF000211C201C08F005FD011C281C08F0E6FC07
:104C000008F0BEFD70BD10B5031C081C0124191C62
:104C100008F036FD002800D10024E0B210BD10B528
:104C200004001300406800280CDB0A00A168FFF7AD
:104C3000BBFF002800D110BD01235B426360A3606D
:104C40000120F8E70020F6E7F0B5D6464F46464685
:104C5000C0B506000D0091469846089CFFF7B2FFCC
:104C6000071C3F4908F014FD002822D06660A560AB
:104C70002D23A3812A0031002000FFF7D0FF002858
:104C800020D00C22A35E002B1CDD0023A373012285
:104C9000227663762374E37380252D012E0027602E
:104CA0004B461E6043461D60E0BCBA46B146A8466E
:104CB000F0BD0C22A35E002B02D09BB2013B1BB2C5
:104CC000A381D7E7237E002B32D0237C0133DBB2D4
:104CD0009A462374391C2068FFF795FF002811D0ED
:104CE0000123A373E37B0133E37353461D2B05D8E4
:104CF0001C49381C08F0CCFC002806D00023237681
:104D00006376CCE70023E373EFE7E37B022B1FD945
:104D10000023A37323760133637653460433A374CD
:104D20006660A5602D23A38180252D012E00B6E7A6
:104D3000637E002BB3D0A37C013BDBB2A374002BBA
:104D40000AD1A3732376637680252D012E00A6E772
:104D500080252D012E00A2E780252D012E009EE743
:104D60000080D4440040E74430B583B00D00140007
:104D7000131D094A0092220049682868FFF764FF62
:104D800023000C3322000832E968A868034C009421
:104D9000FFF75AFF03B030BD202E0020A42E0020C4
:104DA00010B50011084A1378991C084C605401335F
:104DB000DBB213703D2B01D8002010BD1300002280
:104DC0001A700120F9E7C046A8310020B021002068
:104DD00010B50C00FA213D4A8900FDF767FD002857
:104DE0001DD03B4B1B78002B12D13A4B1B78002B6C
:104DF00060D123680B3BFF3B374A93422BD9374B9B
:104E00001C60344B01221A70354B00221A7006E0E8
:104E1000324B1B681868FFF7C3FF002800D110BD94
:104E2000304BA5221A702E4A12785A70FA200001CF
:104E300002F0FCFD002805D10023254A1370254A05
:104E40001370ECE74022274900200BF0C3FF00203D
:104E50000BF0DEFFF0E763680B3BFF3B1E4A93421B
:104E600008D904341D4B1C6001231A4A13701C4AD4
:104E70001370D4E7A3680B3BFF3B174A934209D951
:104E80000834164B1C60134B01221A70144B01326C
:104E90001A70C4E7E3680B3BFF3B0F4A9342BED94D
:104EA0000C340E4B1C600B4B01221A700C4B02325F
:104EB0001A70B4E7094B1B681B680B3BFF3B064AA3
:104EC0009342ACD8024B01221A70A8E7082E0020AA
:104ED0009E310020A6310020EB0D00004430002060
:104EE000BE310020B021002070B5041C0D000B78ED
:104EF000002B0AD0CE68011C301C08F0C9FB00282A
:104F000004D06868211C08F07CFB70BD311C201C9B
:104F100008F057FBA96808F074FB024908F056FB3B
:104F2000F3E7C0460000B44170B508F04AFB40000A
:104F3000400808F01BFC04000D0002000B000020DC
:104F4000054907F092FA02000B00200029000CF03E
:104F500057FD07F07FFB70BD0080764070B5061CE2
:104F60000C1C151C111C201C08F08AFB00280FD0FB
:104F7000311C201C08F084FB002807D0311C281CA1
:104F800008F086FB002802D0012000E0002070BD60
:104F9000311C201C08F074FB002807D1311C281C90
:104FA00008F076FB002803D00120F0E70120EEE7AF
:104FB0000020ECE7F8B5071C0E000024002503E0F4
:104FC000002206E00134E4B2072C0DD8062CF7D8F5
:104FD000621CA3009200B258F158381CFFF7BEFFC4
:104FE0000028EFD02500EDE72800F8BD10B508F047
:104FF000BDFB0022104B07F06BFC07F02BFB041CE1
:10500000002108F037FB00280FD1201C08F0AEFB70
:1050100000220A4B07F03BFA07F0E0FAC217520FE2
:10502000801807231840801A10BD0549201C08F07D
:10503000CDFA041CE9E7C046008076400080464077
:105040000000B44310B508F0C1FA041C0B4908F085
:1050500027FB002806D00949201C08F0B2FA041CDE
:10506000201C10BD0021201C08F004FB0028F7D0F4
:105070000249201C08F0AAFA041CF1E70000B4431E
:1050800070B5CD1A801A08F015FB041C280008F032
:1050900011FB211C08F086FB114908F0B2FA08F058
:1050A00065FB104A104B07F0F2F907F0D3FA041C25
:1050B000002108F0DFFA00280BD10C49201C08F071
:1050C000E7FA00280AD00949201C08F07AFA041CE3
:1050D00004E00649201C08F079FA041C201C70BD6D
:1050E00000003443182D4454FB2109400000B44310
:1050F000F8B50C0017001E0008F0DCFA051C38009B
:1051000008F0D8FA011C281C08F05BFA051C2000E6
:1051100008F0D0FA041C300008F0CCFA011C201C66
:1051200008F04FFA041C291C281C08F06AFA051C18
:10513000211C201C08F065FA011C281C08F046FA06
:1051400008F01EFBF8BD0000F8B50F00160008F0CF
:105150000DFB0B4A0B4B07F0B8F907F07BFA08F090
:1051600005FB04000D0007F08BFA07F073FA3860B6
:105170002000290007F09AFA07F06CFA3060F8BDB9
:10518000399D52A246DF913FF0B5DE4657464E4666
:105190004546E0B583B080468B4615001F001100E0
:1051A000FFF708FF040006285CDC461CA3009946B4
:1051B000EB589A46B600A959181CFFF7B5FE051C16
:1051C00051464046FFF7B0FE8046291C08F003FA1E
:1051D000051C4B46FB589A46011CFE20800508F032
:1051E000F0F9011C504608F00CFA8246B859291C07
:1051F00008F007FA011C504608F0E8F9051C0C9B62
:105200004A469858414608F0FCF9031C22010D99C2
:1052100089180D98825C002A03D0181CFFF764FEE1
:10522000031CA400304AA058191CFFF70BFF0026EE
:10523000019600966A4601A9FFF786FF5946281C89
:1052400008F0DFF9041C311C08F014FA00280BD117
:105250008A21C905201C08F023FA002805D08A24D9
:10526000E40502E00026A1E700240199201C08F0D3
:10527000C8F9051C0190211C009808F0C2F90090A3
:105280008A21C905281C08F0A1F908F013FB08F0D1
:1052900033FA002823DB80235B01984200DB1348AC
:1052A00008F008FA0E9B18608A21C905009808F0DA
:1052B0008DF908F0FFFA08F01FFA002811DB8023AF
:1052C0005B01984200DB094808F0F4F90F9B186075
:1052D00003B0F0BCBB46B246A946A046F0BD0020D4
:1052E000E0E70020F2E7C04658250110FF0F00005C
:1052F000F8B507000E00002409E0A50079597519DA
:105300008A20C00508F067F928600134E4B2072C50
:10531000F3D9F8BDF8B505000E0000240DE0002318
:10532000A7009B00E958E859FFF7FEFD011C06485D
:1053300008F051F9F0510134E4B2072C03D8062CDF
:10534000EDD8631CECE7F8BD00003442F0B5C6466A
:1053500000B580460F00002419E02601BE19012384
:1053600033702868164908F031F9051CF060011CFB
:10537000134808F030F97060291C124808F021F930
:10538000011C0F4808F027F9B0600134E4B2072C83
:1053900012D8A50045440021286808F063F90028C8
:1053A000DBD02301FB1800221A70054ADA60FE22C6
:1053B00092055A609A60E8E780BCB846F0BDC046E6
:1053C0000000B441000034420A4AD3685B005B101D
:1053D00009490B6053695B005B1008490B60136956
:1053E0005B005B1006490B6093695B005B10054A2C
:1053F00013607047D8160020F0210020F82100200B
:10540000F4210020FC21002010B5054B1B68054A43
:1054100012680549096805480068FCF737FA10BDAD
:10542000FC210020F8210020F4210020F0210020A0
:1054300010B5104C10492000FFF76CFF2000203001
:105440000E49FFF767FF200040300D49FFF750FF7E
:10545000200060300B49FFF74BFF20001930FF3070
:105460000949FFF773FF20003930FF300749FFF784
:105470006DFF10BDF4160020EC1200202C1300204C
:105480000C1300204C130020E41E0020A81F002055
:1054900010B50E4B00221A800D4C20320021200046
:1054A00008F0B2FA200020302022002108F0ACFAE7
:1054B000200040382022002108F0A6FA20002038E1
:1054C0002022002108F0A0FA10BDC0469231002031
:1054D00034170020F0B5DE4657464E464546E0B547
:1054E00083B004005F4B9B465F4B9A465B461B684C
:1054F0005246126841680068FFF7C2FD071C5B4B0B
:1055000099465B4D1B682A68E168A068FFF7B8FD03
:1055100080460190574E311C0097381CFFF792FDD2
:10552000071C311C4046FFF78DFD061C381CFFF799
:105530005DFD0700301CFFF759FD06005B461B6848
:105540005246126861682068FFF7D2FD82464B46DA
:105550001B682A68E168A068FFF7CAFD80460098CA
:1055600008F004F90022444B07F0B2F907F072F892
:10557000041CFE21890508F07DF8002805D13F496B
:10558000201C08F08DF8002822D03A001632920034
:105590003B4B9B185868514608F06CF8002817D010
:1055A0003849504608F07CF8002811D0344A3B00B6
:1055B00016339B00D31851465960BB1D9B00D2186F
:1055C000009B53600122BA402F490B8813430B8084
:1055D000019808F0CBF80022274B07F079F907F083
:1055E00039F8041CFE21890508F044F8002805D18B
:1055F0002249201C08F054F8002824D032001E3222
:1056000092001F4B9B185868414608F033F8002859
:1056100019D01C49404608F043F8002813D0184A16
:1056200033001E339B00D3184146596033000E33BC
:105630009B00D218019B536008360122B2401249E8
:105640000B8813430B80104B1888104B9C4660440A
:1056500043425841C0B203B0F0BCBB46B246A94673
:10566000A046F0BDF4210020F0210020FC21002004
:10567000F82100200000B441008046400000304284
:10568000D81600200000FA42923100200100FFFFEE
:10569000064B02681A60064B42681A60054B826826
:1056A0001A60C268044B1A607047C046F02100209F
:1056B000F4210020F8210020FC210020F0B5DE4676
:1056C00000B584B0040000910192224B9B46224F0A
:1056D0001B683A6841680068FFF7D2FC02901F4ED1
:1056E0001F4D33682A68E168A068FFF7C9FC039082
:1056F0005B461B683A6861682068FFF7F9FC071C85
:1057000033682A68E168A068FFF7F2FC041C1549B9
:10571000381C07F0C5FF002809D11249201C07F0EA
:10572000BFFF00280CD104B080BCBB46F0BD02987E
:10573000FFF75CFC0023009A1370019B1870F2E7DE
:105740000398FFF753FC0123009A1370019B187014
:10575000E9E7C046F4210020F0210020FC210020D0
:10576000F82100200000FA42F0B5DE4657464E46CA
:105770004546E0B585B0040000910192294B9A4658
:10578000294D1B682A6841680068FFF779FC81464B
:10579000264E274F33683A68E168A068FFF770FC2F
:1057A0008046244B9B46191C4846FFF74BFC029051
:1057B00059464046FFF746FC039053461B682A684B
:1057C00061682068FFF794FC051C33683A68E1685B
:1057D000A068FFF78DFC041C1749281C07F060FF28
:1057E00000280CD11449201C07F05AFF00280FD1C3
:1057F00005B0F0BCBB46B246A946A046F0BD029833
:10580000FFF7F4FB0023009A1370019B1870EFE779
:105810000398FFF7EBFB0123009A1370019B1870AC
:10582000E6E7C046F4210020F0210020FC21002002
:10583000F82100200000B4410000FA42F0B5DE4635
:1058400057464E464546E0B585B00400334B9A4670
:10585000334D1B682A6841680068FFF711FC8146D8
:105860000190304E304F33683A68E168A068FFF726
:1058700007FC80462D4B9B46191C4846FFF7E2FB70
:10588000029059464046FFF7DDFB039053461B68E4
:105890002A6861682068FFF72BFC814633683A6804
:1058A000E168A068FFF724FC041C2149484607F082
:1058B000F7FE00280DD11E49201C07F0F1FE00283C
:1058C00019D1002005B0F0BCBB46B246A946A0469F
:1058D000F0BD0298FFF78AFB164A831D9B00D31880
:1058E000019959601630800010184B464360FFF74D
:1058F0009FFD0120E6E70398FFF778FB0D4A0300C0
:105900000E339B00D318414659601E30800010189A
:105910004460FFF78DFD0120D4E7C046F42100204C
:10592000F0210020FC210020F82100200000B441DB
:105930000000FA42D8160020F0B5DE4657464E4623
:105940004546E0B589B004000D00484B9B46484BE6
:1059500099465B461B684A46126841680068FFF733
:105960008FFB8046434E444F33683A68E168A06835
:10597000FFF786FB82465B461B684A4612686168F1
:105980002068FFF7B5FB814633683A68E168A06894
:10599000FFF7AEFB071C00230793069305930493C0
:1059A000364C06AB039307AB0293354B0193354B53
:1059B0000093354B220049464046FFF7E5FB2200A5
:1059C000203204AB039305AB0293304B0193304B71
:1059D0000093304B391C5046FFF7D6FB1C3C0F237D
:1059E000E356002B25DB079807F086FE28602A4B3C
:1059F000DB7C5BB2002B23DB069807F07DFE686042
:105A0000254BDB7D5BB2002B21DB059807F074FE94
:105A1000A860214BDB7E5BB2002B1FDB049807F0F4
:105A20006BFEE86009B0F0BCBB46B246A946A04692
:105A3000F0BD0799194807F0C4FD07F05DFED5E7F2
:105A40000699164807F0BDFD07F056FED7E7059901
:105A5000124807F0B6FD07F04FFED9E704990F484A
:105A600007F0AFFD07F048FEDBE7C046F421002059
:105A7000F0210020FC210020F8210020F416002055
:105A8000E41E0020EC1200200C130020A81F0020B0
:105A90002C1300204C130020D816002000F07F4566
:105AA0000023044A1370044A1370044A1370044A12
:105AB00013707047641F00206C1F0020A02100207D
:105AC000A821002010B5E1200004FCF7E9FCFFF755
:105AD000DFFC0A4C20220021200007F095FF200067
