:020000041000EA
:1000000000B5324B212058609868022188439860DF
:10001000D860186158612E4B002199600221596106
:100020000121F02299502B49196001219960352056
:1000300000F044F80222904214D00621196600F024
:1000400034F8196E01211966002018661A6600F04E
:100050002CF8196E196E196E052000F02FF8012189
:100060000842F9D1002199601B49196000215960AB
:100070001A491B48016001219960EB211966A021F2
:10008000196600F012F800219960164914480160C1
:100090000121996001BC002800D000471248134993
:1000A000086003C880F30888084703B5996A0420EC
:1000B0000142FBD001200142F8D103BD02B5186610
:1000C0001866FFF7F2FF186E186E02BD00000240BE
:1000D000000000180000070000035F00212200005C
:1000E000F4000018222000A00001001008ED00E03C
:1000F00000000000000000000000000074B24E7A12
:1001000000200420F7010010C3010010C5010010F9
:10011000C1010010C1010010C1010010C101001097
:10012000C1010010C1010010C1010010C701001081
:10013000C1010010C1010010C9010010CB01001065
:10014000CD010010CD010010CD010010CD01001037
:10015000CD010010CD010010CD010010CD01001027
:10016000CD010010CD010010CD010010CD01001017
:10017000CD010010CD010010CD010010CD01001007
:10018000CD010010CD010010CD010010CD010010F7
:10019000CD010010CD010010CD010010CD010010E7
:1001A000CD010010CD010010CD010010CD010010D7
:1001B000CD010010CD010010CD010010CD010010C7
:1001C00000BE00BE00BE00BE00BE00BEEFF3058054
:1001D000103800BEF2EB8871FC5201102853011058
:1001E0003402001090A31AE700201F49086006C8D7
:1001F00081F3088810471D48006800282FD10DA4FE
:100200000ECC002902D000F012F8F9E71849194A7B
:10021000002000E001C19142FCD1174988471749ED
:1002200088471749884700BEFDE701C901C29A42C5
:10023000FBD3704728530110C0000020C8150020D0
:100240003068011000000420000004203068011014
:10025000001004200010042000000000704709482E
:100260000CF04CF80047000008ED00E0000000D062
:10027000E81500200033002085B000109907001019
:1002800041B000105756000006005250ABB3605307
:10029000F048011006005250861C0302004901106C
:1002A000060052505422A29D1849011005005250D8
:1002B000DE65F46830680110F8B5C04610B5064C2C
:1002C0002378002B07D1054B002B02D0044800E017
:1002D00000BF0123237010BD88180020000000001B
:1002E00050240110044B10B5002B03D003490448DF
:1002F00000E000BF10BDC046000000008C180020C8
:100300005024011070B500290AD001248440D02562
:100310002D06AC620022002108F022FE6C6170BD47
:1003200001248440D0252D066C620022002108F0B3
:1003300017FEAC61F3E770B500280ED0D024240678
:1003400080252D056561642009F06CFF022363613F
:10035000642009F067FFA56170BDD02424068025C4
:100360002D056561642009F05DFF0223A36164200F
:1003700009F058FFA561EFE710B5002804D001216E
:100380000E20FFF7BFFF10BD00210E20FFF7BAFFC0
:10039000F9E7000010B5002001F04DF80F2001F042
:1003A0004AF8062001F038F8082001F035F80B2053
:1003B00001F032F80C2001F02FF80D2001F01CF8AC
:1003C0000A2001F019F8072001F016F8092001F0C1
:1003D00013F8184918480FF09DF90121122008F070
:1003E000A7FD0121132008F0A3FD0121142008F02E
:1003F0009FFD102008F0CEFDD024240680235B0250
:1004000063626361162008F0C5FD8023DB0363622D
:100410006361112008F0BEFD80239B02636263616B
:10042000152008F0B7FD80239B036362636100F031
:1004300035FC10BDC0C62D0000C00340F8B5DE4637
:1004400057464E464546E0B50400D0263606802382
:100450009B019846B3610520002109F0B7FE73683F
:10046000DB0A01252B405A42534101273B401B0127
:10047000227810218A431343237073681B0B2B408F
:100480005A4253413B405B01227820208243134370
:10049000237073689B092B405A4253413B409B0198
:1004A000227830318A431343237073681B0A2B4030
:1004B0005A425341DB0122783F310A4013432370F3
:1004C000434673618023DB009B46B3610520002116
:1004D00009F07CFE73681B0B2B405A4253413B4092
:1004E0009B002278042189468A4313432370736852
:1004F000DB0A2B405A4253413B40DB002278043157
:1005000088468A431343237073681B0A2B405A4260
:1005100053413B405B00227806398A468A431343A5
:10052000237073689B092B405A4253413B40227809
:10053000AA43134323705B46736180239B46B361D8
:100540000520002109F042FE73689B092B405A42A6
:1005500053413B401B01627810218A43134363706F
:1005600073681B0A2B405A4253413B405B00A27800
:10057000504682431343A37073681B0B2B405A42AF
:1005800053413B40A278AA431343A3707368DB0A2C
:100590002B405A4253413B405B0162781E308243FC
:1005A000134363705B4673618133FF339B46B361D2
:1005B0000520002109F00AFE73681B0A2B405A42ED
:1005C00053413B409B00627848468243134363702B
:1005D00073681B0B2B405A4253413B406278AA433D
:1005E0001343637073689B092B405A4253413B404D
:1005F0005B00627850468243134363707368DB0A82
:100600002B405A4253413B40DB00627840468243D4
:10061000134363705B46736173682B405A425341C6
:10062000DB01627877300240134363707368DB0B41
:100630002B405A4253413B409B0162783F388243F2
:100640001343637073689B081D406B425D412F40EC
:10065000BA00A378484683431343A370FF00DDB27A
:1006600043469D432F43A7706378DB06DB0F1B01D6
:10067000FAB210218A431343A370F0BCBB46B246C2
:10068000A946A046F8BD0000F0B5D6464F464646FE
:10069000C0B584B0040003AF3B4B1A883A800023F6
:1006A000BB7002AE3280B37001AD2A80AB70694678
:1006B0000A808B70D0231B06984680235B029946E4
:1006C00043464A469A61314B9A4603233A00D02169
:1006D000504611F01DFE43464A465A619A61032373
:1006E0003200F021504611F013FE43464A465A614B
:1006F0008023DB03994643464A469A6103236A46B0
:10070000F021504611F004FE43464A465A619A6170
:1007100003232A00D021504611F0FAFD43464A46F1
:100720005A613B785B027A785200E02109010B4064
:100730001343BA78D2091343236032785202737894
:100740005B000A401A43B378DB091A4362602A78D7
:1007500052026B785B000A401A43AB78DB091A43FC
:10076000A2606B461B785B026A46527852000B40CF
:1007700013436A469278D2091343E36004B0E0BCA5
:10078000BA46B146A846F0BD6424011000C003403B
:1007900010B500F07BF810BD10B584B00DF096FFD9
:1007A000642009F03FFD35480DF054FFFFF7F2FDDE
:1007B0000E2008F0EFFB0020FFF7DEFD1B2008F005
:1007C000E9FBD024240680231B056362A36101207A
:1007D00008F0E0FB02236362A361022008F0DAFB69
:1007E0000423A36200220121022008F0B9FB0B229E
:1007F000002101A80DF0F2FD01A8FFF71FFE204B1C
:100800009B886A46138063685B0703D401AB5B78FF
:10081000DB070ED401AB5B785B0704D5D0231B0646
:100820005B685B070CD5684600F0FCFC002004B058
:1008300010BD14480BF062FD03000021080098472A
:1008400002236A4613700120FFF796FD0120FFF78F
:1008500072FD0D4809F0E6FC07E0002200210020AF
:100860000AF0B2FB962009F0DDFC01AC2000FFF796
:10087000E5FD6378DB07F0D4F4E7C04650240110AF
:100880006424011055420000AC0D000010B5FA219F
:100890001D4A490102F0FCF8002821D01B4B1B68BF
:1008A0001B4A126893421CDA1433184A1360174B20
:1008B0001B68002B23D1FF331B04164A12685340D8
:1008C0001B0C1B04144A1360104B1B68002B18DB15
:1008D0009BB2104A126853401B041B0C0E4A136053
:1008E00010BD0A3B094A13600C4A1268934201DCAE
:1008F000064B1A60054B1A68054B1A60D7E70023B0
:10090000DAE70023E4E7C046402D0020182100204C
:10091000142100205C0005405C10054024210020CB
:1009200070B50D1CFE218905281C0DF0E9F9002881
:1009300001D0FE25AD050E4B18780DF0EBF9291C02
:100940000DF08FF90DF03AFA84B20021281C0DF059
:10095000D7F9002803D0074B18682418A4B2064B17
:100960001C60064B1B689C4201DD044B1C6070BD83
:10097000081200201C210020242100201421002026
:1009800001207047F0B5C64600B582B0182008F0C7
:1009900001FB192008F0FEFAD0231B068022520426
:1009A0005A62802292045A620421182008F0C0FA88
:1009B0000421192008F0BCFA3A4F04233B603A4D59
:1009C0002B603A4BFF221A661A66394C23681B0CBF
:1009D0001B04384803602A6893009B189A00364B22
:1009E0009C4662441168FF231B0498465940090C39
:1009F000090480267601324311603A689100891813
:100A00008A002A4B9C466244176801210B00BB43B5
:100A1000324313602A689500AD18AA006244156835
:100A2000A943164331602268434653401B0C1B0404
:100A3000036023681B041B0C03609620002109F04F
:100A4000C5FB6B46DC1D991D200000F033FB2378AD
:100A50001A1CDBB24B2B00D94B22D2B2174B1A60B7
:100A60006B4606331B781A1CDBB2322B00D93222BC
:100A7000D3B213490A70002B02D1104A13600B70D5
:100A8000FE2189050F48FFF74BFFAF20400009F01A
:100A9000C9FB0020011CFFF743FF02B080BCB84631
:100AA000F0BDC046D82E00201028002000000540D0
:100AB0005C0005405C1005400C0005401C21002036
:100AC000081200200000C8420902084300B2704723
:100AD00070B582B0D02424068025AD02A5616B4696
:100AE000187159710B4E022201A9300011F058FC07
:100AF0006561022009F096FB8025AD03A561022205
:100B000001A9300011F04CFC6561022009F08AFB5C
:100B100002B070BD00C00340F0B5DE4657464E46F9
:100B20004546E0B585B006000D0001AC00230193F9
:100B30000822002102A80DF051FC03236B449A46C1
:100B4000A22352461370D0231B0698468027BF026B
:100B50009F61514B994601225146180011F020FC2B
:100B60000C2322000021484611F0D2FB43465F616E
:100B700061782078FFF7A8FF80B2404283B2FF2758
:100B80003840B0711B0AF371E178A078FFF79CFF41
:100B900083B2384030721B0A737261792079FFF793
:100BA00093FF83B23840B0721B0AF372E179A079E7
:100BB000FFF78AFF80B2404283B2384030701B0A90
:100BC0007370617A207AFFF77FFF83B23840B0708C
:100BD0001B0AF370E17AA07AFFF776FF83B2384000
:100BE00030711B0A737180239B039B4643465A4610
:100BF0009A6101225146484611F0D2FB0C23220093
:100C00000021484611F084FB43465A465A616178F8
:100C10002078FFF759FF83B23840A8711B0AEB71A7
:100C2000E178A078FFF750FF80B2404283B23840AD
:100C300028721B0A6B7261792079FFF745FF83B236
:100C40003840A8721B0AEB72E179A079FFF73CFFEC
:100C500083B2384028701B0A6B70617A207AFFF7E4
:100C600033FF80B2404283B23840A8701B0AEB7059
:100C7000E17AA07AFFF728FF83B2384028711B0A77
:100C80006B71012333732B7305B0F0BCBB46B246C6
:100C9000A946A046F0BDC04600C0034010B58C2157
:100CA0001020FFF715FF8C211120FFF711FF042101
:100CB0001220FFF70DFF06211320FFF709FF062181
:100CC0001520FFF705FFE0211720FFF701FF10BDFA
:100CD000F0B5C64600B5040004282DD005282FD055
:100CE000032803D0002080BCB846F0BD05270423AC
:100CF0009846200008F04EF901263300A340D02585
:100D00002D06AB6200220121200008F029F940469F
:100D100008F040F93300424693406B62AB61380003
:100D200008F038F93300BB406B62AB616B68E3409D
:100D30001E4209D00120D6E7052703239846D8E7AD
:100D4000032704239846D4E70020CCE710B50320FE
:100D5000FFF7BEFF10BD10B50520FFF7B9FF10BDAE
:100D600010B50420FFF7B4FF10BD10B501210E200F
:100D7000FFF7C8FA9620800009F054FA07F06EFDDC
:100D8000002800D110BD0120FCE710B501F0C2FC25
:100D900010BD0000F0B5C64600B584B0142339E09C
:100DA00001330B2B05D801AAD25C002AF8D001250B
:100DB000F6E7182009F036FA304BDB685B07FBD505
:100DC000D02636068027BF03B7612C4B98460122F8
:100DD0006B46D91C404611F0E3FA0C2301AA00210E
:100DE000404611F095FA77610C283ED1002300218E
:100DF00000E001330B2B05D801AAD25C002AF8D001
:100E00000121F6E7002901D0002D31D1182009F089
:100E100009FA23005C1E002B29D00023019308222D
:100E2000002102A80DF0DAFA6B46A222DA70134B09
:100E3000DB685B07FBD5D0252D068026B602AE61A8
:100E40000E4F01226B46D91C380011F0A9FA0C2371
:100E500001AA0021380011F05BFA6E610C2802D162
:100E6000002300259DE7002502E0002500E0002585
:100E7000280004B080BCB846F0BDC04600C00340A6
:100E800070B584B003A9494B1A880A8000238B707F
:100E900002A90A808B7001A90A808B7069460A80BA
:100EA0008B700A242300013C002B74D0D0231B0636
:100EB000802252029A613E4BDB685B07FBD503231D
:100EC00003AAD0213A4811F023FA032866D1D0238F
:100ED0001B06802252025A619A61354BDB685B0720
:100EE000FBD5032302AAF021314811F011FA03289F
:100EF00056D1D0231B06802252025A618022D2038F
:100F00009A612B4BDB685B07FBD503236A46F02114
:100F1000274811F0FDF9032844D1D0231B06802275
:100F2000D2035A619A61224BDB685B07FBD503232E
:100F300001AAD0211E4811F0EBF9032834D1D023A7
:100F40001B068022D2035A610023002000260025C0
:100F5000002100E00133022B14D803AAD25C002A3E
:100F600000D0012101AAD25C002A00D0012602AAE9
:100F7000D25C002A00D001256A46D25C002AE9D062
:100F80000120E7E700298DD0002D8BD0002E89D0DD
:100F9000002887D000E0002004B070BD0020FBE7EF
:100FA0000020F9E70020F7E70020F5E76C240110A6
:100FB00000C0034010B5FFF7E3FC10BD01207047EF
:100FC00070B582B0FFF75CFF01AC01260125284017
:100FD000030120781022904318432070FFF7D5FEBC
:100FE000C30122787F20104018432070FFF7BDFE18
:100FF0002840830120784022904318432070FFF757
:10100000AFFE2840830020780422904318432070CC
:10101000FFF79CFE03002B402078B043184320705C
:10102000FFF799FE2840430020780222904318439E
:101030002070FFF7C3FF2840C300207808229043A8
:1010400018432070FFF7A6FE284043012078202295
:10105000904318432070FFF7ADFF05406078B04320
:1010600005436570208802B070BD000010B512E025
:101070000C4B9A6A0C4B1A600C4811F051F900F0B5
:10108000FBFA094C206805F057F9206803F0D6F9FF
:101090002068FFF77DFB0649044811F069F9002834
:1010A000E6D1ECE700400540C81D0020881500206F
:1010B0001C220020044B2C22FF329A5C02702A2250
:1010C000FF329B5C0B707047E816002070470000F1
:1010D000014B002018567047091200200048704745
:1010E000B818002000487047F018002010B50028FC
:1010F00003D1074B00221A7010BD0120FFF71BF926
:101100000120FFF739F9024B01221A70F4E7C046BB
:10111000BE32002010B50020FFF72EF90020FFF7A7
:101120000AF900220021002009F04EFF10BD000046
:1011300010B5064B1B78002B00D010BD034B0122CD
:101140001A70002001F00EFAF7E7C046E8320020DE
:1011500010B5284B1B78002B2CD02749274811F0BD
:1011600007F900282ED12648FFF768F9254B1B7890
:10117000002B2FD103F064FC234C2068204905F09C
:101180002FF9206801F092FA06F00CFE002825D015
:101190001D4C20681D4904F091F8206800221C496C
:1011A00006F02CFE1B4B1B785BB2012B1DD009F007
:1011B000B9FE10BD0021184809F0FAFE0D4B0122BE
:1011C0001A70CAE7154B9A6A0F4B1A600B4811F058
:1011D000A7F8C8E70A48FFF779FFCBE70A4B18687A
:1011E0000B4A0F4900F016FBDCE7074B186801F0CB
:1011F0000FFCDCE7F03200201822002088150020C8
:10120000F0180020BE320020C81D0020B8180020B1
:10121000D818002009120020881300000040054063
:10122000FC18002070B5041E00D1C4E001F02BFCB6
:10123000C0B2012841D0FFF7ADF85F495F480EF01A
:101240002FFC03211C2007F073FE03211D2007F053
:101250006FFE5B48FFF7F2F800F07EFA00282FD00F
:10126000574D2B00574A5849584804F0B5FEAB7803
:10127000DB062BD4FFF786FB02F0CAFA012565577F
:101280006B1C29D00023E3565A1C01D0504A13701E
:101290004B4B1B789A0623D45A0632D4DA0632D442
:1012A0005AB2002A31DB5A0731D40A221A40022AE4
:1012B0002FD01B0715D5022513E002232370BAE7B0
:1012C00000F0F4F8C82008F0ADFFC9E706220021BD
:1012D00040480DF083F8CDE73F4B02255D57D1E73D
:1012E00006253D4ABA235B00D65C0023E356013352
:1012F00011D06421EBB2072B40D8AB00374AD3584A
:101300009F460125EDE70025EBE70525E9E70425E4
:10131000E7E70325E5E701F00DFB002804D12C4B9E
:1013200002221A704621E5E7642001F0B3FA284B47
:1013300001221A706421DDE7294C300001F038F9F0
:101340000121200001F0ECF8214B00215956280022
:1013500000F070FA1A4B9B789B0727D4214A184952
:10136000280003F015FA0DF0CBFC1F480DF0B6FC79
:10137000FFF7EEFEFCE7FF242406DEE71B4CDCE76C
:10138000FF242402D9E7124B00221A70FF24240400
:101390001921D2E70E4B00221A70154C0F21CCE711
:1013A0000B4B00221A70134C1921C6E70A4B9D7093
:1013B00000F0B0F9D2E770BD400D030058150020D1
:1013C000F0180020B8180020D8180020C8180020F5
:1013D0000912002014180020E816002070240110C3
:1013E00000F115FFFC1800206D10001000A1A1A154
:1013F00000FF61000000FFE610B5040007F0CAFD21
:1014000000220121200007F0ABFD0123A340D022E0
:1014100012065362536110BD10B5040007F0BAFD07
:1014200000220121200007F09BFD0123A340D022D0
:101430001206936210BD10B5040007F0ABFD002248
:101440000121200007F08CFD0123A340D0221206C9
:10145000936210BD10B512480DF02CF9002407E07E
:10146000104B5B18D97810480DF024F90134E4B220
:10147000052C0DD80DF018FF2100C0B2094A121931
:10148000D070002CECD1130001229043D870E7E714
:10149000044B9B221A720A200DF0A8F810BDC0461A
:1014A00090240110E8160020A0240110F0B5DE46BB
:1014B00057464E464546E0B5E9B0CC256D002A00BA
:1014C000002102A80CF08AFF5D4B02AA1380059B45
:1014D0000193DB0FDB078022120113430593069B68
:1014E0000193DB0FDB0713430693079B0193DB0F8D
:1014F000DB0713430793089B0193DB0FDB071A43BA
:101500000892504F0A97504E0B96504C0C945048EE
:101510000D9050490E91504A0F92504B10931297D4
:101520001396149415901691179218934C4B199387
:101530001A931B931C931D931E931F932093219327
:10154000802202A98B5004328B5004328B5004321B
:101550008B5004328B5004328B5004328B50FF235B
:101560001B049946A8230A004946D1503D4B9B468F
:10157000AC235946D1503C4B9846B0234146D150FC
:10158000FF273F060433D750FF2636020433D650D8
:101590000433364A02A9CA50354B9A46C0230A0082
:1015A0005146D15004334946D1500433D750043307
:1015B000D65004334146D1500433D650A23B2A22A0
:1015C000FF3202A98B5401328B542A4C2A0020008E
:1015D0000CF00AFF002003F0A1F8012003F09EF8B0
:1015E000022003F09BF8032003F098F8042003F096
:1015F00095F820009C30062200210CF0EFFE200020
:10160000A230062200210CF0E9FEFFF723FFBC23E5
:101610005B004A46E25004335A46E25004334246E5
:10162000E2500433E7500433E65004335246E250AC
:1016300069B0F0BCBB46B246A946A046F0BDC04664
:1016400001A0FFFF000034420000B4420000074345
:1016500000003443000061430000874300809D4345
:10166000000016440000FF4D0000FFE600F115FFEA
:1016700000FF6100E816002070B51D4CA5441D4B0D
:101680001B78002B03D180235B019D4470BD0DF0BE
:101690004FFBEFF3108672B600230093164A002129
:1016A00001A80CF09BFECC225200144968460CF0B5
:1016B0009BFE80256D01124C2900200010F060FE79
:1016C0002A006946200010F03BFE86F310880DF0DA
:1016D00039FB0C4B1B78002B03D1064B00221A70F0
:1016E000D1E706F0F3FB074B00221A70F5E7C0467E
:1016F00000F0FFFFE6320020FC0F0000E81600209B
:1017000000D01200F1320020014B01221A70704704
:10171000F1320020014B01221A707047E63200209E
:1017200010B5031C4B2800D94B2303492C22FF3250
:101730008B54FFF727F910BDE816002010B5031CE5
:10174000322800D9322303492A22FF328B54FFF773
:1017500019F910BDE816002010B5194CCC22520022
:10176000184920000CF040FE2288174B9A4209D0FD
:1017700016480CF06FFFFFF799FE0020FFF7CAFF35
:1017800000201CE00E4A95235B00D35C1A1C312B11
:1017900000D832220A4C95235B00E2542C23FF33FD
:1017A000E05CFFF7BDFF2A23FF33E05CFFF7C6FFD5
:1017B000E37801229343E3709B232372012010BD41
:1017C000E816002000D0121001A00000A82401108B
:1017D00030B50F4C40004508E068C00FC0072843F3
:1017E000E060490048082169C90FC9070143216128
:1017F000520051086269D20FD2070A4362615B004E
:101800005A08A369DB0FDB071343A36130BDC04651
:10181000E816002010B5034B1B68002B00D098473A
:1018200010BDC046A41B0020014B00201856704775
:10183000CB32002010B588B00400284B1870022964
:1018400010D00B22002105A80CF0C8FD10220021A9
:1018500001A80CF0C3FDE3B2062B0BD8A400204B6B
:101860001B599F461F4B204A1A6007F087F8002833
:10187000E7D005E01B4B1D4A1A60002001F0B2F9C9
:1018800008B010BD174B194A1A60062001F0AAF9DA
:10189000F6E7144B154A1A60012001F0A3F9EFE7AF
:1018A000104B124A1A60052001F09CF9E8E70D4B35
:1018B0000F4A1A6001AA05A90020FFF7ABFFDFE776
:1018C000084B0C4A1A6001AA05A90020FFF7A2FFE5
:1018D000D6E7044B084A1A60D2E7C046CB32002054
:1018E000F8240110A41B0020B58B0010912C0010CF
:1018F000F56C00102D750010797A001010B5054BAD
:101900001B78002B03D0FFF705FC012010BD00F071
:101910006BFFFAE7E1320020F0B5C64600B590B0A3
:1019200004000D0016001F0016AB1B789846494BAB
:10193000984200D188E00721380007F0F9FA012326
:1019400000933A00290020000DF09AFD102200219A
:1019500008A80CF043FD80235B020893F8235B0288
:1019600009938023DB020A93C0231B030A931022EE
:1019700008A904A80CF038FDF31C059A0392364917
:101980001140F20111431B0319430591079B039377
:10199000DB00DB0880229205134307932F4B19408D
:1019A0000591102204A90CA80CF01EFD0F9B0393B7
:1019B0002B4A1A40BF0217430F974346002B45D0CE
:1019C00020220E9B03932749194080239B020B433F
:1019D0005206F82189050A4013430E939B009B0889
:1019E0008022D20513430E93052009F0FDF91E490C
:1019F0000AF0D8FC0CF089F980460CF0DFF987B2C8
:101A0000002F25D038000CF080F9011C40460CF066
:101A100008F98721C9050CF024F90CF0CFF9C0B200
:101A200000023F0407430C970CAB32002900200052
:101A30000DF078FD22680123AB409A4313432360E5
:101A400010B080BCB846F0BD062175E71822B8E793
:101A50000020E5E7000020507F00FEFFFFFFFF9F12
:101A6000FF83FFFFFFFFF5C10050C30070B5050005
:101A70000C0000880CF049F91B490CF0DCF81B49FC
:101A80000CF0EFF80CF09AF9C2B22B79A978C9439F
:101A9000C9B25943090A5B1ADBB23F2528402D1A07
:101AA000EDB2584380096B439B11DBB20818C0B2FA
:101AB000CB18DBB23F2A10D9403AD2B23F2A06D81F
:101AC0001A060B061B0A0002134318430AE0090614
:101AD00000041B020843184304E000061B0409022B
:101AE00018430843206070BD00007F4300003F435F
:101AF000F8B5CE46474680B50400234B1D78002D2F
:101B000005D100230360C0BCB946B046F8BD642DC2
:101B1000F9D08778E678B81963789846C0180CF041
:101B2000F9F81A490CF087F8814628000CF0EDF816
:101B300017490CF080F8051C011C48460CF0D0F841
:101B40000028E0D14946281C0CF075F8051C380027
:101B50000CF0DBF8291C0CF084F80CF02FF9A070C5
:101B600030000CF0D2F8291C0CF07BF80CF026F9B0
:101B7000E07040460CF0C9F8291C0CF072F80CF02B
:101B80001DF96070BFE7C0462A12002000007F43A5
:101B90000000C842F0B5D6464F464646C0B50400E0
:101BA0000368002B35D083789846C778D8196678B3
:101BB00080190CF0AFF8051C40460CF0A6F88046E2
:101BC000291C0CF038F8824638000CF09EF8071CEF
:101BD000291C0CF030F8814630000CF096F8061CF9
:101BE000291C0CF028F8051C514640460CF039F829
:101BF0000CF0E4F8A0704946381C0CF032F80CF0F8
:101C0000DDF8E070291C301C0CF02BF80CF0D6F835
:101C10006070E0BCBA46B146A846F0BD00220AE0BA
:101C2000930006495958064B5B68DB03FBD4044B11
:101C300019610132D2B2132AF2D97047EC1F002089
:101C400000002050F8B5DE4657464E464546E0B502
:101C500006000D00141C80780CF057F88046F078D0
:101C60000CF053F8071C70780CF04FF8061CA8789D
:101C70000CF04BF88346E8780CF047F88246687819
:101C80000CF043F88146414658460BF0CAFF211C30
:101C90000BF0E7FF41460BF0C9FF051C391C50460D
:101CA0000BF0BFFF211C0BF0DCFF391C0BF0BEFF5B
:101CB000071C311C48460BF0B4FF211C0BF0D1FF70
:101CC000311C0BF0B3FF061C281C0CF077F8C5B2D2
:101CD000381C0CF073F8C4B2301C0CF06FF8C0B2B2
:101CE0002D040002240628432043F0BCBB46B24624
:101CF000A946A046F8BD0000F8B5274B1D7828007E
:101D00000CF008F8011CFE2080050BF094FF041C69
:101D1000224B1B78002B0BD05022214921480CF07C
:101D200063FB0023204A13701C4A13701F4A137070
:101D30001D4B1E78B5421DD330000BF0E6FF211C71
:101D40000BF08FFF051C00240BE0A7001849C919F0
:101D50001448C0192A1CFFF775FF114BD8510134E4
:101D6000E4B2132CF1D901360F4B1E70FFF756FF6A
:101D70000020F8BD0D4B1B78002B01D00020F8E7A8
:101D800050220B4906480CF02FFBFFF747FF074B8B
:101D900001221A700120ECE7D8320020DF32002047
:101DA000EC1F002044200020FE3200202C120020D6
:101DB00094200020F0B5C64600B506000F001500BF
:101DC000984600240AE0335D9B004246EA50305DAD
:101DD00080002818FFF7DEFE0134E4B2BC42F2D3E3
:101DE00080BCB846F0BD0000031C642800D9642301
:101DF000014A13707047C0462A120020014B01228D
:101E00001A707047DF32002030B585B01D4B1B784B
:101E1000002B0FD10024132C09D80DF045FAFF2117
:101E20000AF0C0FA184B19550134E4B2F3E7154B28
:101E300001221A7000241FE0134D2B5D134A107805
:101E4000C018FF210AF086FAC9B2295502A80180FC
:101E5000FF23438083800023019301A9FFF706FE3F
:101E600001A8FFF745FE0A48A300019A1A50C018BE
:101E7000FFF790FE0134E4B2132CDDD9FFF7BEFF6B
:101E800005B030BDDE320020BC1F00202B12002028
:101E90009420002070B5194B1B78002B12D1184BE1
:101EA00000221A70154B01321A700024132C0DD821
:101EB0000DF0FAF906210AF075FA124B19550134A2
:101EC000E4B2F3E7104B1A78104B1A70002410E0BC
:101ED0000C4D2B5D5E339B000D4A9958A2000D4BB3
:101EE000D1500DF0E1F906210AF05CFA29550134D0
:101EF000E4B2132CECD9FFF781FF70BDDE32002075
:101F0000C5320020BC1B0020D9320020D83200206E
:101F1000E81600209420002030B583B0050000248E
:101F20000CE0019501A8FFF7E3FD0648A300019A24
:101F30001A50C018FFF72EFE0134E4B2132CF0D96A
:101F400003B030BD9420002010B509480388094A29
:101F500012789B18FF2213400380074C2100FFF7E3
:101F600085FD2068FFF7D8FFFFF748FF10BDC0468A
:101F7000241200202B120020B81F002010B5104B97
:101F80001B78002B16D10F4B00221A700C4B01321C
:101F90001A700C4C23785E339B000B4A9858FFF75D
:101FA000BBFF2078013006210AF0D4F92170FFF739
:101FB00025FF10BD054B1A78054B1A70E9E7C0469E
:101FC000DE320020C5320020E8160020D932002081
:101FD000D832002010B50F4B1B78002B10D10E4BC0
:101FE0001B68002B02D10C4B0C4A1A600A4B186874
:101FF000FFF792FFFFF702FF064B01221A7010BD98
:102000000020FFF789FFFFF7F9FE024B00221A704C
:10201000F5E7C046F93200203C2000200000FFE632
:1020200010B50F4B1868FFF777FFFFF7E7FE0D4B72
:102030001B780D4A1278934204D20133094A137077
:10204000002010BD0023084A1370064A1370074A87
:102050001370074B1A78074B1A700120F1E7C0463E
:1020600040200020DB320020DA320020D73200206E
:10207000DC320020D832002070B50C000A2803D8CA
:102080008000224B1B589F460126214D1FE004264D
:10209000204D1CE00426204D19E001261F4D16E0BE
:1020A00001261F4D13E001261E4D10E001261E4D96
:1020B0000DE001261D4D0AE001261D4D07E0012619
:1020C0001C4D04E001261C4D01E00426104D002AA1
:1020D00012D02300194A31002800FFF76BFE2300BD
:1020E000174A31002800FFF765FE2300154A31002A
:1020F0002800FFF75FFE70BD2300114A3100280061
:10210000FFF758FEFFF77AFEF5E7C04614250110E9
:102110009425011088250110802501108C250110BF
:102120007C25011084250110902501109C250110AB
:1021300098250110742501107825011044200020F5
:1021400094200020EC1F002070B50C4B19682C2245
:102150000B480CF049F900240CE0A300084DED18E1
:102160002800FFF7C5FC296800222000FFF784FF44
:102170000134E4B20A2CF0D970BDC046E42000203E
:10218000E820002010B5024B1860FFF7DDFF10BDFE
:10219000E420002010B50F4B1B78002B08D00E4B0D
:1021A0001B68052B0DD80C4A13680133136010BD52
:1021B0000A48FFF7E7FFFFF721FE064B01221A70DE
:1021C000EDE7054B00221A600448FFF7DBFFFFF73D
:1021D00015FEE8E7DE32002070280020901700206E
:1021E000274AC8235B00D35C834209D0002B03D16C
:1021F0009133FF330521D154214AC8235B00D054C9
:102200001F4AC8235B00D25C1E4B1A701E4B197804
:10221000052903D88B001D49CB589F4615231C4A1E
:1022200013701C4A137070471523194A1370194A0A
:102230001370F8E71523164A1370164A1370F2E765
:102240001523134A1370134A1370ECE7104B152132
:1022500019709300D218FA2A00D9FA22D2B2D243C6
:102260000C4B1A70DFE70A4B152119709300D21836
:10227000FA2A00D9FA22D2B2D243064B1A70D2E718
:10228000E81600202B120020DD320020402501102E
:10229000D8320020D932002070B50C000BF03AFD86
:1022A0008A21C9050BF0BDFC051C20000BF032FD96
:1022B0008A21C9050BF0B5FC041C291C281C0BF055
:1022C000D0FC051C211C201C0BF0CBFC011C281C85
:1022D0000BF0ACFC0BF084FDE82189050BF0C1FC90
:1022E000041CFE2189050BF00BFD002801D0FE2403
:1022F000A4050021201C0BF0EDFC002801D1201CBE
:1023000070BD0024FBE7000070B584B0FEF7EAFE64
:102310000400FEF7E3FE050041680068FFF7BCFF1C
:10232000061CE968A868FFF7B7FF051C784B1B7807
:10233000002B04D10133764A1370764A1370227849
:1023400063781B021343744A1288934200D1C9E098
:102350002378DB0600D58DE023789B0600D591E03D
:1023600023785B0600D595E00023E356002B00DAC6
:1023700098E06378DB0600D59CE063789B0600D587
:10238000A0E02278D307DB0F9107C90F0B43510759
:10239000C90F0B431207D20F134300D09AE02278E3
:1023A00063781B0213435C4A13800121A3785A4AC5
:1023B0009278934200D1A7E053409B0700D593E069
:1023C000A378554A92785340DB0700D594E0A27871
:1023D000514B9A70002200210920FFF74DFE002288
:1023E00000210A20FFF748FE002200210820FFF705
:1023F00043FE002200210720FFF73EFE00220021BD
:102400000620FFF739FE002200210320FFF734FEEB
:10241000002200210220FFF72FFE002200210520CC
:10242000FFF72AFE002200210420FFF725FEFFF718
:10243000E5FC00230393394CAC33E3580293321C80
:1024400002A903A8FFF7FEFB010001220120FFF70C
:1024500013FEA823E35801932A1C01A903A8FFF740
:10246000F1FB010001220020FFF706FEFFF7D6FB7B
:1024700004B070BD294ACC23D15801220920FFF7AE
:10248000FBFD69E7254AD023D15801220A20FFF736
:10249000F3FD65E7214AC823D15801220820FFF740
:1024A000EBFD61E71D4AC423D15801220720FFF745
:1024B000E3FD5EE7194AC023D15801220620FFF749
:1024C000DBFD5AE7154AB423D15801220320FFF758
:1024D000D3FD56E7114AB023D15801220220FFF75D
:1024E000CBFD5CE7002161E70C4ABC23D1580122F7
:1024F0000520FFF7C1FD63E7084AB823D158012240
:102500000420FFF7B9FD62E7002900D191E761E7F8
:10251000DE320020E232002074280020E81600207D
:1025200010B5094B1970094B1978094A1170152219
:102530001A70084B1860084B084A1A60084B0122B1
:102540001A70FFF75BFC10BDDA320020D832002091
:10255000DC32002040200020E81F00202120001055
:10256000D732002010B50B4B18700B4B00221A60AD
:102570000A4B0A321A700A4B0B321A70094B0A4A7C
:102580001A600A4B01221A700020FFF7C5FCFFF702
:1025900035FC10BDE1320020E41F0020D8320020BD
:1025A000D9320020E81F0020FD180010D73200208B
:1025B00070B582B004000D00274B1B78002B0CD0A7
:1025C000264B1C700023264A1370264A1370062CD3
:1025D00014D8A400244B1B599F46244E2449300094
:1025E0000CF032FF0200002300931733002130006B
:1025F000FFF792F9184B01221A70E1E71D4B1E4AB2
:102600001A601E4AC8235B00D05CFFF7E9FD002D6D
:102610001BDAFFF7F3FB02B070BD164B184A1A60C5
:10262000EFE7144B174A1A60EBE7124B164A1A6091
:10263000E7E7104B154A1A60E3E70E4B144A1A609D
:10264000DFE70C4B134A1A60DBE7FF2D00DDFF25A7
:10265000E8B2FFF7C9FBDCE7E0320020DD32002002
:10266000DE320020E2320020582501100000205008
:10267000A0250110E41F002095210010E81600207D
:10268000491F0010091E0010D51F00107D1F0010EB
:10269000951E00100923001010B5034B186064212B
:1026A0000520FFF785FF10BD3C20002010B5124A21
:1026B000124900F0EDF9002800D110BDFFF71CFB16
:1026C000002803D10E4B1B78002BF6D00D4B1B7846
:1026D000002B0AD00C4B1B6898470028EDD0002334
:1026E000084A1370094A1370E7E7094B1B68002B6F
:1026F000E3D09847E1E7C046482D00201A4100008A
:10270000E2320020D7320020E81F0020DE32002015
:10271000E41F002000B587B02C4B1B7805AA13706E
:1027200004AA137007F04EFE02000B1E2CDB284893
:10273000002112184B41002B2CDB002B2EDB0292C8
:1027400003930123009305AA6A2122480DF0D4F9CE
:1027500007F038FE02000B1E26DB1D480021121870
:102760004B41002B26DB002B28DB02920393002336
:102770000093013304AA6A2116480DF0DCF9002801
:1027800022DD012007B000BD134B144A3F2114483D
:1027900008F05AFC01225242124BCEE70E4B0F4A70
:1027A0003F210F4808F050FC0B4B0C4A3F210C48CE
:1027B00008F04AFC012252420A4BD4E7064B074A72
:1027C0003F21074808F040FC0020DBE7382F0110CC
:1027D0001027000058150020B025011030260110E8
:1027E000CC250110FFFFFF7F10B586B00020FDF75C
:1027F000C3FD00241CE0204B204A3F21204808F064
:1028000023FC002B28DB0292039300230093023366
:1028100005AA6A211B480DF06FF90400831C21D022
:10282000431C22D0FA20800007F0FCFCFEF772FC6B
:10283000002C1DD105AB144A1A8007F0C3FD02001D
:102840000B1ED8DB1148002112184B41002BD8DA9F
:10285000012252420E4BD4E7074B084A3F21084859
:1028600008F0F2FBFEF756FCDCE7FEF753FCD9E775
:10287000FEF750FC06B010BDB02501103026011047
:10288000CC25011058150020094100001027000038
:10289000FFFFFF7F00B587B0232821D8C0B20538DD
:1028A000C0B27F23184005AB04221A70587007F09D
:1028B00089FD02000B1E20DB1848002112184B4135
:1028C000002B20DB002B22DB0292039300230093DA
:1028D000023305AA6A2112480DF00EF907B000BDB7
:1028E000AF235B00984200D9180028380A2109F06C
:1028F00031FDC0B21F30C0B2D3E70A4B0A4A3F21B4
:102900000A4808F0A1FB01225242094BDAE7054BC5
:10291000054A3F21054808F097FBC04610270000F4
:1029200058150020B025011030260110CC250110CB
:10293000FFFFFF7F00B587B02E4B1B7805AA1370F1
:1029400004AA137007F03EFD02000B1E30DB2A487C
:10295000002112184B41002B30DB002B32DB02929E
:1029600003930123009305AA6A2124480DF0C4F8BB
:1029700007F028FD02000B1E2ADB1F480021121859
:102980004B41002B2ADB002B2CDB0292039300230C
:102990000093013304AA6A2118480DF0CCF80230E4
:1029A000012825D904AB1878C007C00F07B000BDB7
:1029B000134B144A3F21144808F046FB01225242AF
:1029C000124BCAE70E4B0F4A3F210F4808F03CFB61
:1029D0000B4B0C4A3F210C4808F036FB01225242B7
:1029E0000A4BD0E7064B074A3F21074808F02CFB6B
:1029F0000120DBE7382F01101027000058150020B8
:102A0000B025011030260110CC250110FFFFFF7FFB
:102A100010B5FA21074A090200F03AF8002800D15F
:102A200010BDFFF787FF044B18700028F8D1FEF7A0
:102A30007FFBF5E7902D0020C3320020072804D843
:102A40008000024B9C466044016070470C8005404A
:102A500010B5072802D90024200010BD8000044BC7
:102A60009C466044046800210520FFF7E7FFF3E778
:102A70000C80054010B501000520FFF7DFFF0120A5
:102A8000FFF770FD10BD10B50520FFF7E1FF10BD89
:102A900010605368834205D9C31A013B8B4205D2AB
:102AA00000207047834204D2C31AF7E75060012028
:102AB000F7E70020F5E730B51860002A0BD15C6815
:102AC00084420BD9041B013C0025002D0BD1A142EF
:102AD00009D9100030BD58600020FBE7844205D2C0
:102AE000041B0025F1E758600120F3E71000F1E72F
:102AF00010B5FEF799FE052801D0024810BD024826
:102B0000FCE7C046482601103827011010B5002008
:102B10000EF094FB10BD000010B5102106480FF018
:102B200037FC002800D110BD044B01221A70024866
:102B30000FF0F6FBF7E7C04690150020EE320020BC
:102B400010B5102106480FF023FC002800D110BD5D
:102B5000044B00221A7002480FF0E2FBF7E7C04670
:102B600090150020EE32002070B5050010210D48B0
:102B70000FF00EFC041E09D10B4B22000B4928005C
:102B8000FFF799FF051E08D1200070BD084B1C7887
:102B9000E4B204480FF0C4FBEEE7FFF7BDFF2C00E2
:102BA000F2E7C046901500205C300020A0860100AE
:102BB000EE320020037801330370044B1B785BB2C4
:102BC000052B01D0024870470248FCE7EC120020B8
:102BD0007C280110B4290110014B18607047C046D1
:102BE0004822002010B50400002001F021FC052C33
:102BF0002BD0062C1CD0012C10D0012001F018FC89
:102C00001748FFF7E9FF174B174A1A60174B184A86
:102C10001A60184B1C700EF01DFF10BD0120FFF74D
:102C2000DBFF104B144A1A60104B144A1A60F0E78D
:102C3000012001F0FDFB1248FFF7CEFF094B114ABE
:102C40001A600A4B0A4A1A60E3E70120FFF7C4FF43
:102C5000044B0D4A1A60054B0C4A1A60D9E7C0466E
:102C6000581B000044220020097C00104C22002048
:102C70000D2B0010EC1200204D860010BD3200100C
:102C8000DC0500005D8D0010B964001049370010AC
:102C900070B504000D0016000120002140420DF027
:102CA00041FE2000FFF760FF002809D10E4B1B7882
:102CB000002B04D10D4B1B6898470B4B187070BD4F
:102CC0000B4B19680B4A2000FFF7E2FE0028F6D0F4
:102CD000FFF736FF044B1B78002BF0D0064B1B6828
:102CE000310028009847EAE7EF3200204C2200200C
:102CF00048220020502D002044220020084B1B7841
:102D00005BB2052B07D0062B07D0012B01D005485D
:102D100070470548FCE70548FAE70548F8E7C0466C
:102D2000EC12002038300110C4280110A029011035
:102D300020370110084B1B785BB2052B07D0062B00
:102D400007D0012B01D0054870470548FCE705482E
:102D5000FAE70548F8E7C046EC120020F82F01100A
:102D60009428011074290110F436011000207047D6
:102D700010B5134B1B785BB2052B13D0062B18D064
:102D8000002B05D00B78002B0FD1FFF7C5FE0CE010
:102D90000B78302B03D0212B01D0812B05D1FFF7ED
:102DA000BBFE02E00B78212B00D010BDFFF7B4FE74
:102DB000FBE70B78012BF8D1FFF7AEFEF5E7C04635
:102DC000EC12002070B504AC25882B4C247864B23A
:102DD000012C2BD0052C12D0002C00D070BD002966
:102DE000FCD1002AFAD11878102804D02A00190042
:102DF00001F06EF8F2E7981C00F0CEFDEEE7002936
:102E0000ECD1002AEAD11A78112A05D0132AE5D18B
:102E10001A480BF04FFCE1E75B78002B04D018490F
:102E20001848FDF77DFDD9E70021F9E70029D5D144
:102E3000002AD3D11A78002AD0D15A78082ACDD1C5
:102E4000DA78002A02D1197900290FD01B79101CD9
:102E50009A4200D2181CC0B20AF057FF0A490AF081
:102E6000EAFE011C0748FDF75BFDB7E700210548B6
:102E7000FDF756FDB2E7C046EC120020FC2701101A
:102E80006666263F0000204200007F43064B1B7809
:102E90005BB2052B03D0062B03D1044870470448CE
:102EA000FCE70448FAE7C046EC1200203437011072
:102EB000082901104C30011070B5EE2824D00028EC
:102EC00025D080001E4BC55828000FF0E9F9C0B28C
:102ED0001F2800D91F20002327E05A1C194CA15C91
:102EE0000902E25C0A43440017496252023301308E
:102EF000112BF2D9154A144B13CB13C211001A68C7
:102F00000A609B888B8019E000200023F0E70C4BBF
:102F1000196802220E480BF067FA012007E05A1CDC
:102F2000EC5C5100094BCC52D3B29842F7D8013037
:102F30004000C0239B001843044B1880034870BD19
:102F40001012002040280110A4180020D81B0020D7
:102F5000DA1B002000B591B04022694600200EF037
:102F6000FBFB00200EF00EFC064B1B785BB2002B27
:102F700001D011B000BD04480BF06CFB684604F0B2
:102F8000C9FFF6E7EC12002014280110F0B583B059
:102F900005001400012966D113785B069B0F012BF5
:102FA00058D0022B03D0002B01D000205CE06378C6
:102FB000022B24D0072B03D0012B19D0002053E083
:102FC000227963791B021343042B03D0052B08D00D
:102FD000002049E02433264A210028000DF0C6FDD8
:102FE00042E08D33234A210028000DF0BFFD3BE075
:102FF0002723214A210028000DF0B8FD34E0227972
:1030000063791B021343072B30D11C4B1B785BB237
:10301000052B0FD06B469F1D194E02223100380040
:103020000BF0E2F93B883200083A210028000DF04D
:103030009DFD19E06B469F1D124E022231003800A3
:103040000BF0D2F93B883200083A210028000DF03D
:103050008DFD09E051780C480BF02CFB2100280075
:103060000DF068FD00E0012003B0F0BD0020FBE79B
:10307000C41200203012002054280110EC1200204D
:103080008C260110642701102C280110012815D06E
:10309000022907D000290BD1022A29D0002A29D0E1
:1030A00006207047022A1FD0002A1FD00800F8E728
:1030B000022A21D0002A21D00820F2E7022907D0D5
:1030C00000290BD1022A1FD0002A1FD00720E8E7D1
:1030D000022A15D0002A15D00320E2E7022AE0D008
:1030E000002A15D00020DCE70120DAE70320D8E72A
:1030F0000720D6E70520D4E70020D2E70420D0E758
:103100001000CEE70420CCE70820CAE70620C8E775
:103110000520C6E70120704710B58422002102482F
:103120000BF05CF910BDC0466C26002010B50020E5
:10313000FFF7F2FF10BD0000F0B5C64600B58046AF
:103140000D008B795D2B24D10B79DF00FF1ABFB204
:103150001937BFB2974221D80C780C19002605E028
:10316000104A53700136F6B22378E4182B79B34233
:1031700010D96378052BF7D1210040460DF000F9F6
:1031800000280DD0A378DA09012AE9D0054A937006
:10319000E8E70027380080BCB846F0BD0027F9E713
:1031A0000027F7E76C26002030B583B004001448F0
:1031B0004078884206D0124A92788A420CD0012088
:1031C00003B030BD0F4A002A18D09AB20E49002031
:1031D000FFF7CEFD0120F3E70C4D9BB200932B00CF
:1031E000002200210020FFF7EDFD2B00443B9978E1
:1031F00040232A0020000DF037F9E1E70120DFE746
:103200006C260020712D001070260020B0260020B2
:1032100010B50DF019F8002803D10023002B08D1B8
:1032200010BD0DF019F8002801D10123F6E70023A5
:10323000F4E70B4B997800200DF052F90028EFD1FC
:10324000074CA1780DF0E8F822004432A178402321
:1032500000200DF009F9A17800200DF0F1F8DFE76A
:103260006C26002070B505000C000CF0F5FF00285E
:1032700006D1812100200DF0CFF8002803D170BDC8
:103280000CF0F2FFF5E7231C402C00D940239CB240
:10329000094E2200290030000BF0A6F8351F69788E
:1032A0002300320000200DF0DFF8697800200DF0D7
:1032B000C7F8FFF7ADFFE2E77026002010B5104B0E
:1032C0005C780CF0C1FF002806D10023002B13D03E
:1032D000002C09D1002010E00CF0BEFF002801D125
:1032E0000123F3E70023F1E7210000200DF0F8F8B7
:1032F000002803D1013000E0002010BD0020FCE7D1
:103300006C26002010B53C22002102480BF066F824
:1033100010BDC046741C002010B50020FFF7F2FF5E
:1033200010BD0000F0B583B006000F001500FEF7D9
:103330007BFA05284CD13B79DC00E41AA4B21234A4
:10334000A4B2AC4248D80023002B09D00025002DA0
:1033500044D0397879184B78212B11D0002438E0EB
:103360001A01D21A92001F4882185278002A02D0FD
:103370000133DBB2E8E71A01D11A89004518E6E704
:10338000A9630B78C9183A796B1C0193AB1C0093A5
:10339000032330000DF00EF8002821D0BB79012B5B
:1033A00013D001232B71BB782B70AA6BD179137AC0
:1033B0001B020B43EB80A97800290AD02A00303287
:1033C000062330000DF050F803E0FB79EB70E8E7DE
:1033D0000024200003B0F0BD0024FAE70024F8E741
:1033E0000024F6E7741C002070B582B005001D4C67
:1033F000002000280AD0002830D162788A4213D0F9
:10340000A2788A421AD0012002B070BD0401241AA9
:10341000A400144A1419A2788A42ECD062788A4235
:10342000E9D00130C0B2E4E70F4A002A18D02100E9
:1034300008319AB2FFF79CFC0120E5E72600303600
:103440009BB20093330000220021FFF7BBFCA17860
:103450000623320028000DF007F8D5E70020D3E757
:103460000120D1E7741C0020712D0010F0B5C64674
:1034700000B582B00600150012781F231340012BFF
:1034800000D01FE128790024002C0DD0FF24002C4F
:1034900000D01CE12700602318001040134239D1EE
:1034A00001290BD001200EE123011B1B9B008E4F35
:1034B000DB5D9842EBD00134E4B2E5E7EA786B7863
:1034C000062B06D0062B00D005E1222A12D00020C0
:1034D000F9E0212AF6D123011F1BBF00824BDF191F
:1034E000BA6B002A00D1F4E01378290030000DF007
:1034F0003DFBE8E02000FFF7C9FC02003B01DF1BB9
:10350000BF00794BDF19FB88290030000DF02EFB3E
:103510000120D8E0202800D0DFE06B780B2B00D909
:10352000DDE09B00714AD3589F46012901D001205C
:10353000C9E0EA78A97823011B1B9B0008336A4F76
:10354000FF18A879EB791B020343181C252B00D91F
:10355000252080B2002909D0012B16D97B1C9C465E
:103560003970013880B20123984602E0BC4600233E
:103570009846009063462000FFF7F8FB03004344A1
:103580009BB2002B05D100209DE0BC46002398464D
:10359000EFE73A00290030000DF0E8FA012092E050
:1035A000012903D0032915D001208CE0AA79EB79F9
:1035B0001B021343062B01D9002084E02201121BB9
:1035C0009200303248498A18290030000DF0CEFAB6
:1035D000012078E0EA78A97823011B1B9B00303397
:1035E0004148C318AE79E87900023043051C06282B
:1035F00000D90625ADB2002904D0012802D91878D7
:10360000884205D000952000FFF7DCFB01205AE03E
:103610000133013DADB2F5E7012901D0012052E0AF
:10362000E97823011F1BBF002F4BDF197971304B45
:10363000002B04D0200000E000BF002843D0290068
:1036400030000DF077FA01203DE0012901D0012082
:1036500039E02201171BBF00234AD219053201238A
:10366000290030000DF082FA01202CE0012901D060
:10367000012028E02201171BBF001B4AD219043287
:103680000123290030000DF071FA01201BE001290F
:1036900003D0032907D0012015E0290030000DF0E8
:1036A00049FA01200FE0A97823011F1BBF000E4B30
:1036B000DF1939710F4B002B13D0200000E000BF41
:1036C000012000E0002002B080BCB846F0BD002020
:1036D000F9E70020F7E70020F5E70020F3E70020F6
:1036E000F1E70120EFE7C046741C0020D828011044
:1036F000000000000000000010B50301181A80004F
:10370000104B181844780CF09FFD002806D10023B8
:10371000002B13D0002C09D1002010E00CF09CFDF0
:10372000002801D10123F3E70023F1E72100002065
:103730000CF0D6FE002803D1013000E0002010BDBF
:103740000020FCE7741C002010B50020FFF7D4FF18
:1037500010BD0000F8B504000F0016001D000301A5
:103760001B1A9B001F4AD318597800200CF054FEF6
:10377000002825D0002F24D02B1C242D00D9242351
:103780009DB2184A2301191B890051180F721B1B87
:103790009B000833D01801302A0031000AF024FEC3
:1037A0000135ADB20F4B2001021B920008329A186E
:1037B000001B8000181841782B0000200CF054FEEC
:1037C000F8BD2B1C252D00D925239DB22001001BFF
:1037D00080000830034B18182A0031000AF004FE5C
:1037E000E0E7C046741C002010B513000A00010079
:1037F0000020FFF7AFFF10BD107003120F2018401C
:1038000050700B01184350700911917070470000FF
:1038100070B5124D802424012A0021002000FFF7FA
:10382000EBFFEA1C21002000FFF7E6FFAA1D2100A4
:103830002000FFF7E1FF2A00093221002000FFF7F6
:10384000DBFF2A000C3221002000FFF7D5FF2A0001
:103850000F3221002000FFF7CFFF70BD883200201B
:1038600010B54022002102480AF0B8FD10BDC04644
:1038700088210020014B18707047C046EA320020B2
:10388000014B18737047C04688210020014B5873C4
:103890007047C04688210020074A0021535E1078F7
:1038A00006490870023399B21BB21380FF2B01DD69
:1038B000FF3911807047C046B832002088210020AF
:1038C000024B1A78024B5A707047C046F02A01101A
:1038D00088210020054B03229A734821D9731A745A
:1038E000013A5A74473919765A7670478821002070
:1038F00010B5C4B2000A002307E019000E31044AD3
:103900005454013150540233DBB20D2BF5D910BDA4
:103910008821002010B503007F2800D97F2080B2C5
:10392000002B08D00AF0F1F904490AF09AF9044989
:103930000AF07CF910BD0248FCE7C046BA66934025
:103940000000204210B503007F2800D97F2080B2FC
:10395000002B08D00AF0D9F904490AF082F9044989
:103960000AF064F910BD0248FCE7C046C566134181
:103970000000A04210B503007F2800D97F2080B24C
:10398000002B05D00AF0C1F902490AF054F910BD24
:103990000020FCE70000FE42F8B5CE46474680B561
:1039A000C278930909D0012B54D0022B4ED1427812
:1039B0001202037813439B0548D00478E30765D5CA
:1039C000630899464378DA00782111408846827866
:1039D000D200082515405B091D43ED00404E00272D
:1039E00000244378DB0601D50023984683789B07A3
:1039F00000D500250021381C0AF064F9002803D006
:103A00004846FFF79FFF071C0021301C0AF05AF9B7
:103A1000002803D02000FFF77DFF061C4046FFF77B
:103A2000A9FF041C2800FFF7A5FF051C011C201C92
:103A30000AF056F9002841D00021281C0AF060F94C
:103A4000002835D10021301CFCF76AFFC0BCB94604
:103A5000B046F8BD81780C024678330023431B053D
:103A6000F4D003789807F1D17F240C4052007E25D2
:103A70002A40CD091543F101FF220A409B081A4351
:103A80009146730898460026371CB3E764084378CC
:103A9000DA007821114088468278D2000825154046
:103AA0005B091D43ED0000260E4F0023994698E761
:103AB0000D49281C0AF002FB011CC4E70021201C50
:103AC0000AF01EF9002804D10021381CFCF728FF59
:103AD000BCE70549201C0AF0F1FA011CF5E7C046D5
:103AE000000020430000A0436666263F0A4B0122E7
:103AF0001A7000225A7003329A70084A117AD970EB
:103B0000D179197191795971517999711179D97165
:103B1000D2781A727047C04688210020E81600202B
:103B200010B50400FFF79CFE8120FFF7A3FE012CD7
:103B300009D0064B1C70064B19784023034A00201D
:103B40000DF0A4FB10BDFFF7D1FFF4E788210020A2
:103B5000EA32002070B586B06C462A4B043322004E
:103B600070CB70C270CB70C2022837D0032841D00E
:103B70000023002500E00133052B10D8224AD2187B
:103B80002D32FF3214780522D21A885C8442F2D09A
:103B90001D4AD2182D32FF3210700125EBE7002D9F
:103BA00019D18120FFF76CFE184801238373164B4F
:103BB0001A7AC273DA7902749A7942745A798274E1
:103BC0001A79C274DB7803751530182269460AF039
:103BD0000BFC06B070BDFDF79DFDE2E78120FFF70D
:103BE0004FFE0A48022383730F30102208490AF05F
:103BF000FBFBEEE78120FFF743FE044B03229A73A1
:103C0000E7E7C046F02A0110E816002088210020CE
:103C10000822002070B504000E001500FFF720FEFA
:103C20002120FFF727FEFFF737FEFFF749FE2000B0
:103C3000FFF72CFE482C48D8A4002E4B1B599F465A
:103C40008020FFF71DFE00234BE0F07A431E9841D1
:103C5000C0B200F0EDFB8020FFF712FEF3E7310069
:103C60000C31F07AFFF776FFEDE78020FFF708FED2
:103C7000F27A214B1A70E6E78220FFF701FEFFF788
:103C800029FEE0E78020FFF7FBFDDCE79020FFF74F
:103C9000F7FDF27BF17A307B00F0FCF9D3E7FEF719
:103CA000A3FDD0E78020FFF7EBFDCCE78320FFF7F3
:103CB000E7FD6420FFF71CFEC5E78020FFF7E0FD6D
:103CC000C1E78020FFF7DCFDBDE70023AB4202D255
:103CD00001339BB2FAE78020FFF7D2FDB3E701334F
:103CE000DBB21F2BFBD94023044A212100200DF019
:103CF000CDFA70BDCC290110F012002088210020DF
:103D000070B50C00150010280DD080280FD00128A8
:103D100000D070BD881CFFF73FFEA07A2A0021006A
:103D2000FFF778FFF5E7881CFFF736FEF1E74878E4
:103D3000FFF7F6FEEDE70000094B1B780A2B07D0D2
:103D40000B2B09D0064B0A221A70054B18787047C6
:103D5000034B0B221A70F8E7014B0C221A70F4E7A0
:103D6000F112002070B50500524B1B78002B04D1D6
:103D7000514B1B78302B0BD070BD504B1A88504BD9
:103D800018785049FFF7BCFF4A4B00221A70F3E73E
:103D9000FFF766FD3020FFF76DFDFFF77DFDFFF7B4
:103DA0008FFD00F0EBF98378474C2373C37863737E
:103DB0000378A3734378E3730379237443796374BB
:103DC000037AA374437AE37483792375C3796375A3
:103DD000837AA375C37AE37500F0D0F983782376EC
:103DE000C37863760378A3764378E3760379237701
:103DF00043796377037AA377437AE3778279202341
:103E0000E254C2790133E254827A0133E254C27A35
:103E10000133E25400F0B2F982782423E254C278EC
:103E20000133E25402780133E25442780133E25420
:103E300002790133E25442790133E254027A0133C8
:103E4000E254427A0133E25482790133E254C27976
:103E50000133E254827A0133E254C27A0133E254EC
:103E60002B78A3706B78E370AB782371EB78637178
:103E70002B790F210B40A3716879AB791B020343A7
:103E80001B11E371EB7923722B7A19406172697A05
:103E9000AB7A1B020B431B11A372FFF74DFFE072BD
:103EA0000A4B19784023220000200DF0EFF902F0B0
:103EB0005DF861E7EB320020F0120020EE120020E6
:103EC000EC320020C821002088210020EA320020A6
:103ED00010B5054B01241C70044B1870044B1A805C
:103EE00004480AF081FA10BDEB320020EC320020C9
:103EF000EE120020C821002010B5024B18180AF05D
:103F000073FA10BD88210020502800D1B0E003D9F9
:103F100060282FD0FF2010E0402800D9AAE02028F8
:103F200005D34B2924D88B00564AD3589F460028E6
:103F300003D0102800D09FE0002070479520FCE7B8
:103F40000020FAE72A39504B59182D31FF310878F3
:103F5000F3E704394C4B59182D31FF310878ECE761
:103F60000020EAE70020E8E76820E6E70020E4E731
:103F70000020E2E7A92979D88B00444AD3589F460C
:103F8000FF20DAE70220D8E70120D6E72320D4E794
:103F90000020D2E7B920D0E71A20CEE70120CCE7F5
:103FA0000020CAE74020C8E70020C6E74020C4E759
:103FB0000020C2E74020C0E70120BEE70020BCE7A8
:103FC0000120BAE70020B8E70120B6E70020B4E7F7
:103FD0003B20B2E73420B0E73B20AEE73420ACE72B
:103FE0003B20AAE73420A8E73D39294B585CA4E7D9
:103FF0003D39274B585CA0E71A209EE71A209CE722
:104000001A209AE75E2098E7012096E7502094E76F
:10401000FD2092E7002090E700208EE7C6208CE785
:104020000F208AE70F2088E7302086E7612084E7A9
:10403000AE2082E7902080E7D9207EE7D4207CE77D
:1040400014207AE7542078E7412076E7152074E7BA
:10405000542072E7C72070E779206EE79C206CE758
:1040600033206AE7362068E7632066E7002064E7CC
:10407000002062E7FF2060E7FF205EE722205CE788
:1040800003205AE70C2B0110E81600203C2C0110ED
:1040900088320020F0B58BB006000F00150008A98B
:1040A0000F70487000248C70CC700A7105220E20AD
:1040B000FFF722FF00941A22002101A80AF08EF9CE
:1040C00007E03919C9B23000FFF71EFF6B461855DB
:1040D0000134A542F5DC2A0069461320FFF70CFFE6
:1040E0000BB0F0BDF8B50400204921480EF040F9AE
:1040F0000028F9D01F4D2B68581C032108F02AF91D
:104100002778627812021C4E4800401883005B1822
:104110003A43F254120AF3185A70A078E278120265
:1041200002439A70120ADA7020796279120202430D
:104130001A71120A5A71A079E279120202439A7135
:10414000120ADA71207A627A120202431A72120A91
:104150005A72A07AE27A120202439A72120ADA7250
:10416000296003480EF0DCF8F8BDC0462C1E002084
:1041700098150020281E0020001E002010B50949B7
:1041800009480EF0F5F80028F9D0084B1C680648DD
:104190000EF0C6F86000001980000019044B1818D2
:1041A00010BDC046301E002098150020281E00209B
:1041B000001E00204118CB0F5B185B1080225202BA
:1041C000914204DA044A914203DB18B27047034873
:1041D000FCE70348FAE7C046FFFFFEFFFF7F000051
:1041E0000080FFFF70B52848FEF756FA274D0622DB
:1041F000002128000AF0F2F8A81D062200210AF08A
:10420000EDF8234B01221A70224BFA2292011A6018
:10421000214B00221A70214E214C31002000FCF766
:104220007BFC0023E25E9C3D9C23EA540223E25E79
:104230009D23EA540423E25E9E23EA540623E25EB1
:104240009F23EA540823E25EA023EA540A23E25E95
:10425000A123EA540023F25EA223EA540223F25E71
:10426000A323EA540423F25EA423EA540623F25E55
:10427000A523EA540823F25EA623EA540A23F25E39
:10428000A723EA5470BDC0460000FFFF841700203A
:10429000CE320020FC1D0020CF320020EC1D00207B
:1042A000CC1D002010B5084ABA235B00D05C012168
:1042B0004942FEF77DF9FDF727FAFDF72BFA034B8C
:1042C00000221A7010BDC046E8160020CE32002031
:1042D000F8B552495248FCF71FFC524B1B78002B93
:1042E00000D160E0504C9C254D4E0023F15E60579C
:1042F000FFF760FF605501350223F15E6057FFF75D
:1043000059FF605501350423F15E6057FFF752FFF6
:10431000605501350623F15E6057FFF74BFF60558E
:1043200001350823F15E6057FFF744FF6055013502
:104330000A23F15E6057FFF73DFF6055A227374D16
:104340000023E95EE057FFF735FFE0550137022310
:10435000E95EE057FFF72EFFE05501370423E95EE1
:10436000E057FFF727FFE05501370623E95EE057E6
:10437000FFF720FFE05501370823E95EE057FFF71C
:1043800019FFE05501370A23E95EE057FFF712FFF6
:10439000E055002333732B73244A1368013B1360E9
:1043A000002B37D0F8BD1E4A0023D05E1E4B9C2147
:1043B00058540221505E9D2158540421505E9E2184
:1043C00058540621505E9F2158540821505EA02168
:1043D00058540A21515EA1229954104A0021505E7E
:1043E000A22158540221505EA32158540421505E4A
:1043F000A42158540621505EA52158540821505E2E
:10440000A62158540A21515EA7229954054BA63A79
:104410001A70C7E7FFF746FFC4E7C046EC1D00204F
:10442000CC1D0020CF320020E8160020FC1D00200B
:10443000014B18707047C046D0320020F8B5474B8A
:104440001B78002B04D1464B1B78002B03D1F8BD01
:10445000FFF73EFFFBE7FA21424A8900FEF718FB0F
:104460000028F4D0404C21004048FCF755FB237B4A
:10447000002B03D03D4B1B7B002B09D13B4B1B7BFF
:10448000002B67D10023394A1373374A1373DEE7D1
:10449000364FF888364C9F23E3569BB2C01A324EF3
:1044A000F188A523E3569BB2C91A09B200B2FFF7FF
:1044B00081FE304DE8803889A023E3569BB2C01AB4
:1044C0003189A623E3569BB2C91A09B200B2FFF79D
:1044D00071FE28817889A123E3569BB2C01A7189A5
:1044E000A723E3569BB2C91A09B200B2FFF762FED6
:1044F000688138889C23E3569BB2C01A3188A22376
:10450000E3569BB2C91A09B200B2FFF753FE2880E6
:1045100078889D23E3569BB2C01A7188A323E35683
:104520009BB2C91A09B200B2FFF744FE6880B8888E
:104530009E23E3569BB2C01AB188A423E3569BB2D4
:10454000C91A09B200B2FFF735FEA8802800FFF7AC
:10455000C9FD97E70548FFF7C5FD93E7CE32002078
:10456000D0320020582D0020EC1D0020CC1D002052
:10457000E8160020DC1D0020C3B2052B03D8800004
:104580000D4B1B589F460D4B0B6008331360704753
:104590000B4B0B6008331360F9E70A4B0B600833D1
:1045A0001360F4E7084B0B6008331360EFE7074B29
:1045B0000B6008331360EAE7E42E0110C0170020F7
:1045C000E0170020D0170020F0170020001800206E
:1045D00030B50F220D780F231D40047894432C43EF
:1045E00004704C781C40250104781C402C43047056
:1045F0008D781D40447894432C434470CC781C4003
:10460000250144781C402C4344700D791D4084786A
:1046100094432C4384704C791C40250184781C40C1
:104620002C4384708D791D40C47894432C43C4700E
:10463000CC791C402501C4781C402C43C4700D7AF1
:104640001D40047994432C4304714C7A1C4025018D
:1046500004791C402C4304718D7A1D4044799443A5
:104660002C434471CC7A1C40250144791C402C43D6
:1046700044710D7B1D40847994432C4384714C7BA1
:104680001C40250184791C402C4384718D7B1D4086
:10469000C479944322002A43C271CA7B1A40120192
:1046A000C1790B401343C37130BD0B781B071B0F3F
:1046B00003700B781B0943704B781B071B0F83702B
:1046C0004B781B09C3708B781B071B0F03718B780A
:1046D0001B094371CB781B071B0F8371CB781B0918
:1046E000C3710B791B071B0F03720B791B094372F4
:1046F0004B791B071B0F83724B791B09C3728B7994
:104700001B071B0F03738B791B094373CB791B07A3
:104710001B0F8373CB791B09C373704770B50400FB
:10472000144D154A2900FFF727FF2B68134A11681B
:10473000526819605A60032C12D0042C15D0022C38
:1047400009D00D4B1B6800221A800A4B19680C48CF
:10475000FFF7ABFF70BD084B1B680A4A1A80F4E7ED
:10476000054B1B68084A1A80EFE7034B1B68074A92
:104770001A80EAE7E01F002040220020402F0110AD
:10478000D01F002000E1FFFF00C0FFFF00CAFFFFB5
:1047900010B50E4B19600E4B1A600E4B18700E4C74
:1047A0000E4A2100FFF7E8FE21680D4C2000FFF7BC
:1047B0007CFFE37A0B3B5A1E93410A4A1370637ADB
:1047C000093B5A1E9341084A137010BD0C19002072
:1047D00010190020D6320020E01F002040220020C7
:1047E000D01F0020D5320020D1320020024A94236D
:1047F0005B00D0547047C046E816002010B5044B4B
:1048000000221A70034B19680348FFF74EFF10BDD2
:10481000C0320020E01F0020D01F002070B590B0F3
:104820000500384C384E22003100FFF7A5FE3168F4
:104830003648FFF73AFFFFF7E1FF002300933C22E1
:10484000002101A809F0CAFDA6236A46137055701D
:1048500033681A781207120F69468A701A7812099B
:10486000CA705A781207120F0A715A7812094A71DF
:104870009A781207120F8A719A781209CA71DA7837
:104880001207120F0A72DA7812094A721A7912079D
:10489000120F8A721A791209CA725A791207120F04
:1048A0000A735A7912094A739A791207120F8A7396
:1048B0009A791209CA73DA791207120F0A74DB792E
:1048C0001B094B74226813881B0A8B741388CB74E2
:1048D0000F4B942252009A5C0A75952252009B5C01
:1048E0004B75FA20000103F069FA002801D110B0DD
:1048F00070BD00200CF076FF4022694600200CF0CD
:1049000053FFF4E734220020302200202022002030
:10491000E816002070B50A0000210F2937D80300DF
:104920000B41DB0714D40131C9B2F6E70133DBB226
:104930000F2B0FD82A4AD05C2A4A12789042F5D120
:10494000294A146801209840228802432280EDE71A
:104950000023EDE7224C234803786354224B1D6863
:1049600001228A402B8893432B8002781F4809F04C
:10497000A1FE1F4B00221A701E4B18682100FFF782
:1049800027FE1D4B00201856FFF748FF70BD002A78
:10499000FCD0002401E00134E4B20F2C14D8104BF9
:1049A0001A5D104B1B789A42F5D12100134809F08B
:1049B00081FE0D4B19680122A2400B8813430B8026
:1049C0000B4B00221A70E6E70A4B18680449FFF700
:1049D000FFFD094B00201856FFF720FFD6E7C04621
:1049E00020220020BF32002034220020FC2E0110A3
:1049F000C032002030220020ED320020182F01109C
:104A000070B504000D00084E084A3100FFF7B4FDF0
:104A100031680748FFF749FE064B1C70064B1D70B6
:104A2000064B01221A7070BD302200203422002073
:104A300020220020ED320020BF320020C0320020B2
:104A400070B5104B1A680021117051701B6800225C
:104A50009A700D4B1B78002B1AD00C4B1A68937868
:104A60009B07D90F002B03DA9378022083439370BE
:104A7000064B1B681A78587800021043FFF74AFF6C
:104A800070BDC04610190020C03200200C19002053
:104A900001F00CFD002826D0F54B19688A78012416
:104AA000A2438A7019688A78022082438A70196842
:104AB0004A781025AA434A7019684A781035AA43E3
:104AC0004A7019680A78A2430A7019680A78824302
:104AD0000A7019680A78023082430A701A681378DB
:104AE00008218B431370E34B196808784B781B023D
:104AF00003431BB2E04A12685278D20600D533E273
:104B0000DB4A12685278D206D20FDC48007B824022
:104B100012B213439AB2FF2003400B70120A4A707C
:104B2000D44B196808784B781B0203431BB2D24A56
:104B300012685278920600D518E2CD4A126852786F
:104B40009206D20FCD48407B824012B213439AB2F4
:104B5000FF2003400B70120A4A70C6490868C44C13
:104B600023689B789B07DB0F5B0082780225AA43B2
:104B700013438370086823689B78DB07DA0F837818
:104B80000124A34313438370096808784B781B0200
:104B900003431BB2B84A12681278D20700D5E7E186
:104BA000B34A12681278D207D20FB4480078824014
:104BB00012B213439AB2FF2003400B70120A4A70DC
:104BC000AC4B196808784B781B0203431BB2AA4A06
:104BD00012681278920700D5CCE1A54A12681278C3
:104BE0009207D20FA5484078824012B213439AB27E
:104BF000FF2003400B70120A4A709E4B1968087818
:104C00004B781B0203431BB29B4A1268127852076F
:104C100000D5B1E1964A126812785207D20F974830
:104C20008078824012B213439AB2FF2003400B7087
:104C3000120A4A708F4B196808784B781B0203439D
:104C40001BB28D4A12681278120700D596E1884A85
:104C5000126812781207D20F8848C078824012B2C8
:104C600013439AB2FF2003400B70120A4A70814B23
:104C7000196808784B781B0203431BB27E4A1268FE
:104C80001278D20600D57BE1794A12681278D206F2
:104C9000D20F7A480079824012B213439AB2FF20B1
:104CA00003400B70120A4A70724B196808784B78EF
:104CB0001B0203431BB2704A12681278920600D599
:104CC00060E16B4A126812789206D20F6B48407905
:104CD000824012B213439AB2FF2003400B70120AB3
:104CE0004A70644B196808784B781B0203431BB267
:104CF000614A12681278520600D545E15C4A126892
:104D000012785206D20F5D488079824012B2134366
:104D10009AB2FF2003400B70120A4A70554B196873
:104D200008784B781B0203431BB2534A126812786F
:104D3000D20900D02AE14E4A12681278D2094F48AF
:104D4000C079824012B213439AB2FF2003400B7025
:104D5000120A4A70474B196808784B781B020343C4
:104D60001BB2454A12685278D20700D510E1404A7A
:104D700012685278D207D20F4048007A824012B2AD
:104D800013439AB2FF2003400B70120A4A70394B4A
:104D9000196808784B781B0203431BB2364A126825
:104DA0005278520700D5F5E0314A1268527852071E
:104DB000D20F3248807A824012B213439AB2FF2057
:104DC00003400B70120A4A702A4B196808784B7816
:104DD0001B0203431BB2284A12685278920700D57F
:104DE000DAE0234A126852789207D20F2348407AB9
:104DF000824012B213439AB2FF2003400B70120A92
:104E00004A701C4B19684B789B0700D4C6E01C4BBA
:104E1000CA1CCB70190A5170002191701B0ED370FF
:104E2000144B196808784B781B0203431BB2124AD3
:104E300012685278920700D5B2E00D4A1268527893
:104E40009207D20F0D48407A824012B213439AB2B1
:104E5000FF2003400B70120A4A70064B196808784D
:104E60004B781B0203431BB2034A1268527809E0D5
:104E70000C1900201019002040220020D01F002013
:104E8000FF0F0000120700D58CE04B4A12685278E1
:104E90001207D20F4948C07A824012B213439AB225
:104EA000FF2003400B70120A4A70454B19684B787B
:104EB0001B0779D5434ACA71100A0872002048724C
:104EC000120E8A7208784B781B0203431BB23E4ACB
:104ED00012685278120769D4374A1268527812075A
:104EE000D20F3648C07A824012B213439AB2FF20E2
:104EF00003400B70120A4A70314B196808784B78DE
:104F00001B0203431BB2304A1268527852064FD438
:104F1000294A126852785206D20F2848807B824074
:104F200012B213439AB2FF2003400B70120A4A7068
:104F3000234B196808784B781B0203431BB2224AA3
:104F400012685278D20935D11B4A12685278D209B8
:104F50001A48C07B824012B213439AB2FF2003402A
:104F60000B70120A4A708BE50022D2E50022EDE5B3
:104F700000221EE6002239E6002254E600226FE6F7
:104F800000228AE60022A5E60022C0E60022DAE638
:104F90000022F5E6002210E700222BE7002337E786
:104FA000002253E7002279E7002284E700229CE7F1
:104FB0000022B6E70022CFE70C190020D01F002006
:104FC00010190020FF0F000040220020824201DB68
:104FD000884205DC824205DA884205DD002002E0D5
:104FE000012000E0002070470120FCE7401AC317B1
:104FF000C01858407047884202D003DD0120704736
:105000000020FCE701204042F9E70000F0B5DE4651
:1050100057464E464546E0B585B006000C007D2358
:10502000CD5C681C1F2107F095F90F00CBB29846A4
:10503000002D6FD0681E1F2107F08CF9CBB2994666
:105040004B469B001B599A467C23E35C002B64D0A3
:105050008020320051460001FFF7B8FF002814D02D
:105060007E234A46E25451463000FFF7C4FF8623B0
:10507000E05400238522A35407320121A1540132B8
:10508000A354063AA354033AA3548C23E35C002BA5
:1050900017D0802109013000FFF7A8FF8523E35CCA
:1050A00099461C2B02D8674B984244DD00238C2282
:1050B000A3540132A354063AA3544B46013385222C
:1050C000A3548D23E35C002B00D1AAE08722A35CCC
:1050D000013BDBB29946A354802031000001FFF769
:1050E00085FF08F017FE8823E15808F0BAFD08F0A4
:1050F00033FE8623E35643438022120194466344E1
:10510000AD002B514B46002B00D08CE08D3300229C
:10511000E25488E01E23994692E7AD002E517D337C
:105120004246E2544346002A02D17C330122E25433
:10513000802000017EE051463000FFF75CFF8623AF
:10514000E3569B46834201D0002803D184230022EA
:10515000E254B2E78423E35C002B02D18022514663
:10516000A1500133DBB28422A354022BA5D94B46B4
:1051700004330332A3548C230022E2540C3BE15845
:1051800080200001FFF732FFC72846DD08F0C2FD8E
:10519000011C2D4808F04FFD00908823E0500A3B89
:1051A000E35C0022AA4601971F0043460293039640
:1051B00025001400A14526D9781C1F2107F0CAF844
:1051C000CFB2BA451FD0FF260E40B60080207159DD
:1051D0000001FFF70BFF08F09DFD011C009808F08F
:1051E00040FD8046584608F095FD011C404608F0F9
:1051F00038FD08F0B1FD80231B019C4660447051CE
:105200000134E4B2D6E7019F029B9846039E2C002E
:1052100055468D230122E2544FE78D230022E254AC
:105220004BE7AD002E517D234246E254FF210F4053
:10523000BF00385905B0F0BCBB46B246A946A046EF
:10524000F0BDC046390700000000484370B50D00AE
:1052500014000A492868FFF7D9FE206008496868E9
:10526000FFF7D4FE60600749A868FFF7CFFEA06093
:10527000E8680549FFF7CAFEE06070BDB82D002060
:10528000482E00203C2F0020CC2F002010B500110C
:10529000084A1378991C084C60540133DBB2137030
:1052A0003D2B01D8002010BD130000221A700120F0
:1052B000F9E7C046CD3200203821002010B50C009F
:1052C000FA213D4A8900FDF7E3FB00281DD03B4B46
:1052D0001B78002B12D13A4B1B78002B60D123682E
:1052E000063BFF3B374A93422BD9374B1C60344B6C
:1052F00001221A70354B00221A7006E0324B1B68EF
:105300001868FFF7C3FF002800D110BD304BA5225D
:105310001A702E4A12785A70FA20000102F04EFDDF
:10532000002805D10023254A1370254A1370ECE7A5
:105330004022274900200CF037FA00200CF052FAE6
:10534000F0E76368063BFF3B1E4A934208D90434EA
:105350001D4B1C6001231A4A13701C4A1370D4E7BA
:10536000A368063BFF3B174A934209D90834164B02
:105370001C60134B01221A70144B01321A70C4E7DF
:10538000E368063BFF3B0F4A9342BED90C340E4BF9
:105390001C600B4B01221A700C4B02321A70B4E7DE
:1053A000094B1B681B68063BFF3B064A9342ACD87F
:1053B000024B01221A70A8E7982D0020C23200206B
:1053C000CA320020F50D000074310020E7320020C1
:1053D0003821002070B5041C0D000B78002B0AD07A
:1053E000CE68011C301C08F083FC002804D06868DB
:1053F000211C08F036FC70BD311C201C08F011FC8B
:10540000A96808F02EFC024908F010FCF3E7C0463A
:105410000000B44170B508F004FC4000400808F0FA
:10542000D5FC04000D0002000B000020054907F028
:1054300000FA02000B00200029000CF0C1FF07F069
:10544000EDFA70BD0080764070B5061C0C1C151C72
:10545000111C201C08F044FC00280FD0311C201C1B
:1054600008F03EFC002807D0311C281C08F040FC46
:10547000002802D0012000E0002070BD311C201C5B
:1054800008F02EFC002807D1311C281C08F030FC45
:10549000002803D00120F0E70120EEE70020ECE730
:1054A000F8B5071C0E000024002503E0002206E0EA
:1054B0000134E4B2072C0DD8062CF7D8621CA300E7
:1054C0009200B258F158381CFFF7BEFF0028EFD009
:1054D0002500EDE72800F8BD10B508F077FC0022A4
:1054E000104B07F0F1FB07F099FA041C002108F0BB
:1054F000F1FB00280FD1201C08F068FC00220A4BA9
:1055000007F0A9F907F04EFAC217520F80180723C7
:105510001840801A10BD0549201C08F087FB041CA8
:10552000E9E7C04600807640008046400000B44372
:1055300010B508F07BFB041C0B4908F0E1FB0028C8
:1055400006D00949201C08F06CFB041C201C10BD6F
:105550000021201C08F0BEFB0028F7D00249201CC7
:1055600008F064FB041CF1E70000B44370B5CD1AE9
:10557000801A08F0CFFB041C280008F0CBFB211C8C
:1055800008F040FC114908F06CFB08F01FFC104AC1
:10559000104B07F060F907F041FA041C002108F0F5
:1055A00099FB00280BD10C49201C08F0A1FB002816
:1055B0000AD00949201C08F034FB041C04E0064909
:1055C000201C08F033FB041C201C70BD0000344379
:1055D000182D4454FB2109400000B443F8B50C00D9
:1055E00017001E0008F096FB051C380008F092FB1F
:1055F000011C281C08F015FB051C200008F08AFB84
:10560000041C300008F086FB011C201C08F009FB7C
:10561000041C291C281C08F024FB051C211C201C30
:1056200008F01FFB011C281C08F000FB08F0D8FB49
:10563000F8BD0000F8B50F00160008F0C7FB0B4AD4
:105640000B4B07F026F907F0E9F908F0BFFB04005F
:105650000D0007F0F9F907F0E1F9386020002900A2
:1056600007F008FA07F0DAF93060F8BD399D52A268
:1056700046DF913FF0B5DE4657464E464546E0B51B
:1056800083B080468B4615001F001100FFF708FF0E
:105690000400062800DD86E0461CA3009946EB586E
:1056A0009A46B600A959181CFFF7B4FE051C5146CE
:1056B0004046FFF7AFFE8046291C08F0BCFA051CE7
:1056C0004B46FB589A46011CFE20800508F0A9FABB
:1056D000011C504608F0C5FA8246B859291C08F04A
:1056E000C0FA011C504608F0A1FA051C0C9B4A4662
:1056F0009858414608F0B5FA031C22010D99891803
:105700000D98825C002A03D0181CFFF763FE031C6F
:10571000A400284AA058191CFFF70AFF0023019390
:1057200000936A4601A9FFF785FF5946281C08F037
:1057300098FA051C019908F094FA041C0190291CA0
:10574000009808F08EFA00908A21C905201C08F004
:105750006DFA08F093FC08F0FFFA002825DB80239F
:105760005B01984200DB144808F0D4FA0E9B1860E5
:105770008A21C905009808F059FA08F07FFC08F062
:10578000EBFA002813DB80235B01984200DB0A4818
:1057900008F0C0FA0F9B186003B0F0BCBB46B246DD
:1057A000A946A046F0BD002677E70020DEE70020EE
:1057B000F0E7C046482F0110FF0F0000F8B50700C2
:1057C0000E00002409E0A500795975198A20C0054A
:1057D00008F031FA28600134E4B2072CF3D9F8BD9F
:1057E000F8B505000E0000240DE00023A7009B0083
:1057F000E958E859FFF70EFE011C064808F01BFAAD
:10580000F0510134E4B2072C03D8062CEDD8631C08
:10581000ECE7F8BD00003442F0B5C64600B580465E
:105820000F00002419E02601BE19012333702868F7
:10583000164908F0FBF9051CF060011C134808F03C
:10584000FAF97060291C124808F0EBF9011C0F48A6
:1058500008F0F1F9B0600134E4B2072C12D8A500C9
:1058600045440021286808F02DFA0028DBD02301E8
:10587000FB1800221A70054ADA60FE2292055A606F
:105880009A60E8E780BCB846F0BDC0460000B4416D
:10589000000034420A4AD3685B005B1009490B6080
:1058A00053695B005B1008490B6013695B005B1078
:1058B00006490B6093695B005B10054A13607047F3
:1058C000E816002078210020802100207C21002083
:1058D0008421002010B5054B1B68054A1268054954
:1058E000096805480068FBF773FF10BD842100209C
:1058F000802100207C2100207821002010B5104C50
:1059000010492000FFF76CFF200020300E49FFF700
:1059100067FF200040300D49FFF750FF2000603046
:105920000B49FFF74BFF20001930FF300949FFF703
:1059300073FF20003930FF300749FFF76DFF10BDBE
:1059400004170020F4120020341300201413002048
:1059500054130020741E0020381F002010B50E4B79
:1059600000221A800D4C20320021200008F036FD64
:10597000200020302022002108F030FD2000403897
:105980002022002108F02AFD2000203820220021BA
:1059900008F024FD10BDC046B63200204417002098
:1059A000F0B5DE4657464E464546E0B583B00400A6
:1059B0005F4B9B465F4B9A465B461B68524612689C
:1059C00041680068FFF7D2FD071C5B4B99465B4DB1
:1059D0001B682A68E168A068FFF7C8FD804601904F
:1059E000574E311C0097381CFFF7A2FD071C311CD5
:1059F0004046FFF79DFD061C381CFFF76DFD0700B4
:105A0000301CFFF769FD06005B461B6852461268B2
:105A100061682068FFF7E2FD82464B461B682A68F2
:105A2000E168A068FFF7DAFD8046009808F0CEF93B
:105A30000022444B07F048F906F0F0FF041CFE2159
:105A4000890508F047F9002805D13F49201C08F0D6
:105A500057F9002822D03A00163292003B4B9B188F
:105A60005868514608F036F9002817D03849504692
:105A700008F046F9002811D0344A3B0016339B0049
:105A8000D31851465960BB1D9B00D218009B536030
:105A90000122BA402F490B8813430B80019808F06C
:105AA00095F90022274B07F00FF906F0B7FF041C09
:105AB000FE21890508F00EF9002805D12249201C95
:105AC00008F01EF9002824D032001E3292001F4B2D
:105AD0009B185868414608F0FDF8002819D01C4969
