:020000041000EA
:1000000000B5324B212058609868022188439860DF
:10001000D860186158612E4B002199600221596106
:100020000121F02299502B49196001219960352056
:1000300000F044F80222904214D00621196600F024
:1000400034F8196E01211966002018661A6600F04E
:100050002CF8196E196E196E052000F02FF8012189
:100060000842F9D1002199601B49196000215960AB
:100070001A491B48016001219960EB211966A021F2
:10008000196600F012F800219960164914480160C1
:100090000121996001BC002800D000471248134993
:1000A000086003C880F30888084703B5996A0420EC
:1000B0000142FBD001200142F8D103BD02B5186610
:1000C0001866FFF7F2FF186E186E02BD00000240BE
:1000D000000000180000070000035F00212200005C
:1000E000F4000018222000A00001001008ED00E03C
:1000F00000000000000000000000000074B24E7A12
:1001000000200420F7010010C3010010C5010010F9
:10011000C1010010C1010010C1010010C101001097
:10012000C1010010C1010010C1010010C701001081
:10013000C1010010C1010010C9010010CB01001065
:10014000CD010010CD010010CD010010CD01001037
:10015000CD010010CD010010CD010010CD01001027
:10016000CD010010CD010010CD010010CD01001017
:10017000CD010010CD010010CD010010CD01001007
:10018000CD010010CD010010CD010010CD010010F7
:10019000CD010010CD010010CD010010CD010010E7
:1001A000CD010010CD010010CD010010CD010010D7
:1001B000CD010010CD010010CD010010CD010010C7
:1001C00000BE00BE00BE00BE00BE00BEEFF3058054
:1001D000103800BEF2EB8871B8790110D87901109F
:1001E0003402001090A31AE700201F49086006C8D7
:1001F00081F3088810471D48006800282FD10DA4FE
:100200000ECC002902D000F012F8F9E71849194A7B
:10021000002000E001C19142FCD1174988471749ED
:1002200088471749884700BEFDE701C901C29A42C5
:10023000FBD37047D8790110C00000203818002087
:100240005091011000000420000004205091011082
:10025000001004200010042000000000704709482E
:100260000EF092FA0047000008ED00E0000000D018
:1002700058180020A463002011D50010E1080010D8
:10028000CDD400105756000006005250ABB3605357
:10029000D06F011006005250861C0302E06F01105F
:1002A000060052505422A29DF46F011005005250D6
:1002B000DE65F46850910110F8B5C04610B5064CE3
:1002C0002378002B07D1054B002B02D0044800E017
:1002D00000BF0123237010BD581B00200000000048
:1002E00080450110044B10B5002B03D0034904488E
:1002F00000E000BF10BDC046000000005C1B0020F5
:100300008045011070B500290AD001248440D02511
:100310002D06AC62002200210BF03AF96C6170BD31
:1003200001248440D0252D066C62002200210BF0B0
:100330002FF9AC61F3E7000010B504004378DB0748
:1003400013D463781022110019401A4203D0124BC3
:100350001B78002B0FD0002903D10F4B1B78002BEB
:1003600011D10A200CF076FA10BD002200210020E5
:100370000DF070F8E5E7084B0F3A1A7000210E20D7
:10038000FFF7C0FFEDE701310E20FFF7BBFF024B87
:1003900000221A70E5E7C0469463002070B500287B
:1003A0000ED0D024240680252D05656164200CF034
:1003B00051FA0223636164200CF04CFAA56170BD10
:1003C000D024240680252D05656164200CF042FAB6
:1003D0000223A36164200CF03DFAA561EFE710B59C
:1003E000002804D001210E20FFF78CFF10BD002152
:1003F0000E20FFF787FFF9E710B5002001F02BFD75
:100400000F2001F028FD062001F016FD082001F064
:1004100013FD0B2001F010FD0C2001F00DFD0D204F
:1004200001F0FAFC0A2001F0F7FC072001F0F4FCCF
:10043000092001F0F1FC1849184811F0E7F90121F1
:1004400012200BF08DF8012113200BF089F8012107
:1004500014200BF085F810200BF0B4F8D0242406FB
:1004600080235B026362636116200BF0ABF880238C
:10047000DB036362636111200BF0A4F880239B020D
:100480006362636119200BF09DF880239B04636213
:10049000636101F02FF810BD80841E0000C003408E
:1004A000F8B5DE4657464E464546E0B50400D02630
:1004B000360680239B019846B361052000210CF08D
:1004C0009DF97368DB0A01252B405A4253410127ED
:1004D0003B401B01227810218A4313432370736829
:1004E0001B0B2B405A4253413B405B01227820209A
:1004F00082431343237073689B092B405A42534134
:100500003B409B01227830318A4313432370736848
:100510001B0A2B405A425341DB0122783F310A40EB
:1005200013432370434673618023DB009B46B36112
:10053000052000210CF062F973681B0B2B405A4216
:1005400053413B409B002278042189468A43134350
:1005500023707368DB0A2B405A4253413B40DB0057
:100560002278043188468A431343237073681B0A38
:100570002B405A4253413B405B00227806398A4661
:100580008A431343237073689B092B405A4253419B
:100590003B402278AA43134323705B467361802358
:1005A0009B46B361052000210CF028F973689B0974
:1005B0002B405A4253413B401B01627810218A4331
:1005C0001343637073681B0A2B405A4253413B40EC
:1005D0005B00A278504682431343A37073681B0BE1
:1005E0002B405A4253413B40A278AA431343A37085
:1005F0007368DB0A2B405A4253413B405B016278EF
:100600001E308243134363705B4673618133FF3353
:100610009B46B361052000210CF0F0F873681B0ABB
:100620002B405A4253413B409B00627848468243EC
:100630001343637073681B0B2B405A4253413B407A
:100640006278AA431343637073689B092B405A4234
:1006500053413B405B0062785046824313436370D2
:100660007368DB0A2B405A4253413B40DB006278FF
:1006700040468243134363705B46736173682B404B
:100680005A425341DB016278773002401343637072
:100690007368DB0B2B405A4253413B409B0162780D
:1006A0003F3882431343637073689B081D406B425D
:1006B0005D413D40AD00A3784A4693431D43A5707C
:1006C00062783F23100098430300C03B59424B41DE
:1006D0001F40FF00EBB2404683431F43A770D20682
:1006E000D20F1201FBB210218B431A43A270F0BC4F
:1006F000BB46B246A946A046F8BDF8B504000E1C9C
:100700000569AF00395840690FF0C5FC60613E5182
:10071000311C0FF0C5FC60610135EA17920FAD186E
:1007200003231D40AD1A2561F8BD10B54069FA21BB
:1007300089050FF0D0FC10BDF0B5DE4657464E4699
:100740004546E0B585B004005C4B9946180013F0AF
:100750000FFF03AF5A4B1A883A800023BB7002AEDA
:100760003280B37001AD2A80AB7069460A808B700D
:10077000D0231B06984680235B029A464346524686
:100780009A61504B9B4603233A00D021584613F000
:100790004FFE434652465A619A6103233200F021CC
:1007A000584613F045FE434652465A618023DB0308
:1007B0009A46434652469A6103236A46F0215846B8
:1007C00013F036FE434652465A619A6103232A00CB
:1007D000D021584613F02CFE434652465A613878D1
:1007E00040027B785B00E0221201904610401843E3
:1007F000BB78DB0918430FF0C2FC011C324F3800F4
:10080000FFF77BFF3078400273785B004246104070
:100810001843B378DB0918430FF0B1FC011C2B4ED1
:100820003000FFF76AFF287840026B785B00424691
:1008300010401843AB78DB0918430FF0A0FC011CF3
:10084000234D2800FFF759FF6B46187840025B786C
:100850005B004246104018436B469B78DB09184307
:100860000FF08DFC011C1B4B98461800FFF745FF4D
:100870003800FFF75AFF0FF0DBFC80B22060300039
:10088000FFF753FF0FF0D4FC80B260602800FFF741
:100890004CFF0FF0CDFC80B2A0604046FFF745FF53
:1008A0000FF0C6FC80B2E060484613F0C9FD05B009
:1008B000F0BCBB46B246A946A046F0BDE0170020FA
:1008C0008045011000C00340543E00206C3E0020D3
:1008D000843E00209C3E002010B500F07FFC10BD3F
:1008E00010B584B010F06CF864200BF0B3FFFFF784
:1008F00083FD0E200AF066FE0020FFF770FD1B202E
:100900000AF060FED024240680231B056362A361E5
:1009100001200AF057FE02236362A36102200AF05D
:1009200051FE0423A3620022012102200AF030FEBE
:100930000C22002101A80FF0E1FE01A8FFF7B0FD95
:10094000124B9B886A46138063685B0703D401AB34
:100950005B78DB0713D401AB5B785B0709D5D02349
:100960001B065B685B0704D402236A4613700533D9
:100970005370684601F028F9002004B010BD044807
:100980000DF002FF03000021080098478045011088
:100990005542000070B5041C144B1D680021281C32
:1009A0000FF0CAFB00281ED11149281C0FF093FB41
:1009B000051C0021201C0FF0DDFB002802D10024C3
:1009C000201C70BD211C281C0FF085FB09490FF06D
:1009D00067FB041CFE2189050FF0CCFB0028EFD03B
:1009E000FE24A405ECE70024EAE7C046AC2D002075
:1009F0003333733FCDCC4C3D70B50025002413E05C
:100A0000201C0FF041FC0B490FF065FB0FF0DEFBE3
:100A10006B00094AD0520949201C0FF041FB0849DC
:100A20000FF03EFD041C013580235B019D42E7DB96
:100A300070BDC04600007F43F8420020DB0FC93A7A
:100A4000DB0FC940F0B5DE4657464E464546E0B599
:100A500083B082460E00D04B5B78002B67D0002914
:100A600065D1CD4C002363702178CC4A1170CC4AFB
:100A70001370CC4A1370638AA08A00041843CA4FCB
:100A80007861FB689946191C0FF005FBC7490FF008
:100A90000CFB051C38618B21C90548460FF01BFB78
:100AA000C3490FF002FB38608B21C905281C0FF0E9
:100AB00012FBBF490FF0F9FA7860E38A208B00043B
:100AC00018433862B9690FF0E6FAB8490FF0EDFA49
:100AD000F861638BA08B00041843B64F7861FB6804
:100AE0009946191C0FF0D7FAB0490FF0DEFA051C31
:100AF00038618B21C90548460FF0EDFAAC490FF07B
:100B0000D4FA38608B21C905281C0FF0E4FAA849F3
:100B10000FF0CBFA7860E38B208C00041843386226
:100B2000B9690FF0B8FAA1490FF0BFFAF8619E4B0E
:100B30005C680021201C0FF01DFB002805D09A4F97
:100B4000211C38680FF0ACFA38609A4B5C680021C1
:100B5000201C0FF00FFB002805D0964F211C386891
:100B60000FF09EFA3860904CA0680FF061FB80B2E5
:100B7000914D4000405F0FF007FB83468D4FB868F2
:100B80000FF056FB83B25B00585F0FF0FDFA814611
:100B9000A3699846181CFFF7FDFE011C58460FF08C
:100BA0009AFA041CBF69381CFFF7F4FE011C484682
:100BB0000FF091FA011C201C0FF072FA041C0021A6
:100BC00040460FF0D7FA002812D07C49201C0FF0C5
:100BD00067FA041C7A49201C0FF0CCFA00280ED1C9
:100BE0000021201C0FF0B0FA002809D0002407E0F3
:100BF0000021381C0FF0BEFA0028E6D1EAE7704C5D
:100C000035005544201C0FF013FB2870664DA96871
:100C100028680FF045FA061CA860664C2168A06899
:100C20000FF03EFAA0608B27FF05391C301C0FF037
:100C300037FCA860391CA0680FF032FCA060594B4B
:100C40001B781E2B23D8584C2169E0680FF028FA36
:100C5000E060E169A0690FF023FAA061554C2169B9
:100C6000E0680FF01DFAE060E169A0690FF018FA82
:100C7000A0614C4B1B78632B02D80133494A137097
:100C800003B0F0BCBB46B246A946A046F0BD464BF9
:100C90005A699146DA601A6A93469A61454B5A69D5
:100CA0009046DA601A6A92469A613D4B1B78632B34
:100CB00002D801333A4A1370394B1D78374B1B78F1
:100CC0009D4262D2374B00221A70334E6C1C2401B5
:100CD00034196388A08800041843334F786149466B
:100CE0000FF0D9F931490FF0E0F9019038618B210B
:100CF000C90548460FF0EFF92D490FF0D6F93860D5
:100D00008B21C90501980FF0E6F929490FF0CDF9BB
:100D10007860E388208900041843386259460FF050
:100D2000BAF922490FF0C1F9F8612D0175192E00A9
:100D30006B8BA88B000418431E4C606141460FF07A
:100D4000AAF91A490FF0B1F9051C20618B21C905D8
:100D500040460FF0C0F916490FF0A7F920608B212B
:100D6000C905281C0FF0B7F911490FF09EF9606012
:100D7000F38B308C00041843206251460FF08BF93E
:100D80000A490FF092F9E06173E70023064A5360C5
:100D9000084A53606DE7C046943D0020A0630020E0
:100DA000A16300209F630020D03700200000F041A5
:100DB00000803B46383D0020F84200200000C8413A
:100DC00000007F43F0B5CE46474680B587B00500AA
:100DD0000F00FFF711FE042128000AF0C1FB6B0889
:100DE00007241C40012398461D40A94609200CF009
:100DF00027FA0FF0C4F99D490FF06DF99C490FF0E7
:100E000054F9061C38000FF0BFF9011C301C0FF01C
:100E10004CF9FA2189050FF05EF984466B460027EC
:100E200000975F609F6010225A60924A9A6003AEFA
:100E3000320023CB23C28321C90560460FF04BF952
:100E40000FF0F6F90490FE2305938B49A2001319C5
:100E50009B005F5013199B008C4663449F60DF60CA
:100E60000598186104985860434603980343121983
:100E700092005350012010F053FC804E306001204E
:100E800010F04EFC7E4B1860012010F049FC7D4BA9
:100E9000186032687C4B0C2A00D9C8E07B490B40B3
:100EA000D20213430C218B4308221343784803409A
:100EB00078480340784803400120034377480340C3
:100EC000022083438B4313430832934310329343EE
:100ED0006C4A12680C2A00D9AFE06C491940D30261
:100EE0000B43220018326E490B40D1030B43634978
:100EF0000968A0000419A4006A4884466444890172
:100F0000A020C00584466144674808604C60042006
:100F100088600B615A4B19685B4B0C2900D992E031
:100F20005A480340C9020B430C20834308210B435A
:100F3000574C2340574C2340574C23400124234314
:100F4000564C23400224A34383430B4308318B4375
:100F500010318B433F2A00D97BE051491940D3031C
:100F60000B43474A1068454A116889014F4A944625
:100F700061448201A024E405A44662444C4C146000
:100F80005160FF2189009160136101238340494A28
:100F9000136049490C200AF035FC01210C200AF0AD
:100FA00021FC384B1A68384B0C2A58D837490B406B
:100FB000D20213430C22934308210B4334490B40C4
:100FC00034490B4034490B400124234333490B403F
:100FD00002218B4393430432134310329343294A33
:100FE000126849464D00304845199201A021C905B3
:100FF0008C466244314E1660556094601361FF2246
:10100000002130000FF07AFB3000FF30FF2200217A
:101010000FF074FB1A4B1B689C40A022D20586235C
:10102000DB00D45007B0C0BCB946B046F0BD244B7D
:10103000244AC32124480CF04DFA214B214AB731F0
:1010400021480CF047FA1E4B1E4AC3211E480CF0E3
:1010500041FA1E4B1E4A95311B480CF03BFA184BC7
:10106000184AC32118480CF035FAC04600007A44EB
:1010700000007E43FFFF000000000540303E0020DE
:1010800030630020DC40002010801F00FF87FFFF3E
:101090003FF8FFFFFFFFBFFFFFFFDFFFFFFF7FFF07
:1010A000FF7FE0FF0C000540F86200203C0000508C
:1010B0004815002014240050C1000020A433002053
:1010C0008845011040460110A84501101446011042
:1010D0002846011010B50100034C422220000FF0F9
:1010E00013FB0123637010BD943D002030B589B01F
:1010F000304B1B78002B14D000236A46D3771E2177
:1011000069441F336B44180000F0E4FB6B46D87F42
:101110000FF035F828490EF0C8FF284B186009B0C9
:1011200030BD64200BF096FB224B01221A7003AAFB
:10113000234B1380234C0025009502235A212000C5
:1011400002F03EFB05200BF085FB04AA1E4B13802A
:10115000009502235A21200002F032FB05200BF0FB
:1011600079FB05AA194B1380009502235A21200010
:1011700002F026FB05200BF06DFB06AA144B138032
:10118000009502235A21200002F01AFB05200BF0E3
:1011900061FB07AA0F4B1380009502235A21200000
:1011A00002F00EFB05200BF055FB0B491520FFF755
:1011B00009FEA1E79A6300200000C842AC2D002080
:1011C0001AF6FFFFB01700201B3400001D030000BB
:1011D000171A000001030000E02E000070B50D4B4F
:1011E0001B78002B14D00B4B00221A700A4B1B6883
:1011F000DBB20125ED1AEDB2002407E02802401B06
:10120000064BC018A1B2FFF71DFC0134FE2CF5DD22
:1012100070BDC0469C630020A0330020A433002092
:1012200010B592B04222002101A80FF067FA012305
:101230006A461371537115336B4400221A801A4A9F
:101240005A801A216944FE22920500200880130C5E
:101250004B801E216944088014484880222169443B
:1012600000220A804B8001A90800FFF733FF002409
:1012700008E00020FFF7B2FF0CF09AF808200BF00E
:10128000E9FA01343D2CF4DD1A226A440021118070
:10129000518022226A4400231380538001A9080050
:1012A000FFF718FF12B010BDA0430000204300005C
:1012B00010B5FFF7B5FF012010BD0902084300B2C9
:1012C0007047000070B582B0D02424068025AD029E
:1012D000A5616B46187159710B4E022201A93000AD
:1012E00013F0F6F8656102200BF0B4FA8025AD0426
:1012F000A561022201A9300013F0EAF8656102201D
:101300000BF0A8FA02B070BD00C00340F0B5DE4695
:1013100057464E464546E0B585B006000D00724B77
:101320009B46180013F024F901AC00230193082216
:10133000002102A80FF0E2F903236B449A46A2238E
:1013400052461370D0231B0698468027BF029F6128
:10135000664B994601225146180013F0B9F80C2348
:1013600022000021484613F063F843465F6161782C
:101370002078FFF7A2FF40420EF006FF5C490EF016
:10138000AAFE0EF023FF83B2FF273840B0711B0A7C
:10139000F371E178A078FFF790FF0EF0F5FE544965
:1013A0000EF099FE0EF012FF83B2384030721B0A25
:1013B000737261792079FFF780FF0EF0E5FE4C49EA
:1013C0000EF089FE0EF002FF83B23840B0721B0AA5
:1013D000F372E179A079FFF770FF80B2404283B2E7
:1013E000384030701B0A7370617A207AFFF765FF0E
:1013F00083B23840B0701B0AF370E17AA07AFFF72D
:101400005CFF83B2384030711B0A737142468023FF
:101410009B04936101225146484613F059F80C236E
:1014200022000021484613F003F8424680239B0423
:10143000536161782078FFF740FF0EF0A5FE2C493C
:101440000EF049FE0EF0C2FE83B23840A8711B0AAE
:10145000EB71E178A078FFF730FF40420EF094FE88
:1014600023490EF038FE0EF0B1FE83B238402872E8
:101470001B0A6B7261792079FFF71FFF0EF084FE63
:101480001B490EF028FE0EF0A1FE83B23840A87270
:101490001B0AEB72E179A079FFF70FFF83B23840A6
:1014A00028701B0A6B70617A207AFFF706FF80B202
:1014B000404283B23840A8701B0AEB70E17AA07AF0
:1014C000FFF7FBFE83B2384028711B0A6B710123C2
:1014D00033732B73584612F0B3FF05B0F0BCBB4614
:1014E000B246A946A046F0BDE817002000C0034060
:1014F0003333B33F10B58C211020FFF7E3FE8C216E
:101500001120FFF7DFFE04211220FFF7DBFE06218A
:101510001320FFF7D7FE06211520FFF7D3FEE021A9
:101520001720FFF7CFFE10BDF0B5C64600B504008A
:1015300004282DD005282FD0032803D0002080BCFC
:10154000B846F0BD05270423984620000AF03AF873
:1015500001263300A340D0252D06AB6200220121D5
:1015600020000AF015F840460AF02CF833004246F5
:1015700093406B62AB6138000AF024F83300BB4043
:101580006B62AB616B68E3401E4209D00120D6E775
:10159000052703239846D8E7032704239846D4E772
:1015A0000020CCE710B50320FFF7BEFF10BD10B53B
:1015B0000520FFF7B9FF10BD10B50420FFF7B4FFF9
:1015C00010BD000010B501210E20FEF79BFE9620F5
:1015D00080000BF03FF909F0E7FB054B984202D081
:1015E000002802D110BD0020FCE70120FAE7C04628
:1015F000FFFF000010B501F06FFE10BDF0B5C6464C
:1016000000B584B0142339E001330B2B05D801AAAF
:10161000D25C002AF8D00125F6E718200BF01AF961
:10162000304BDB685B07FBD5D02636068027BF042E
:10163000B7612C4B984601226B46D91C404612F0EC
:1016400047FF0C2301AA0021404612F0F1FE77610A
:101650000C283ED10023002100E001330B2B05D8DC
:1016600001AAD25C002AF8D00121F6E7002901D0B6
:10167000002D31D118200BF0EDF823005C1E002B5B
:1016800029D0002301930822002102A80FF036F888
:101690006B46A222DA70134BDB685B07FBD5D025C3
:1016A0002D068026B602AE610E4F01226B46D91C74
:1016B000380012F00DFF0C2301AA0021380012F0AF
:1016C000B7FE6E610C2802D1002300259DE700259E
:1016D00002E0002500E00025280004B080BCB846E8
:1016E000F0BDC04600C0034070B584B003A9494BAB
:1016F0001A880A8000238B7002A90A808B7001A9C6
:101700000A808B7069460A808B700A242300013C92
:10171000002B74D0D0231B06802252029A613E4BCC
:10172000DB685B07FBD5032303AAD0213A4812F0FC
:101730007FFE032866D1D0231B06802252025A6105
:101740009A61354BDB685B07FBD5032302AAF021C6
:10175000314812F06DFE032856D1D0231B0680229B
:1017600052025A618022D2039A612B4BDB685B07DD
:10177000FBD503236A46F021274812F059FE0328BF
:1017800044D1D0231B068022D2035A619A61224B96
:10179000DB685B07FBD5032301AAD0211E4812F0AA
:1017A00047FE032834D1D0231B068022D2035A617E
:1017B0000023002000260025002100E00133022B39
:1017C00014D803AAD25C002A00D0012101AAD25C5D
:1017D000002A00D0012602AAD25C002A00D00125EE
:1017E0006A46D25C002AE9D00120E7E700298DD0C3
:1017F000002D8BD0002E89D0002887D000E000205B
:1018000004B070BD0020FBE70020F9E70020F7E7F7
:101810000020F5E75C46011000C0034010B5FFF75B
:1018200047FD10BD0120704770B582B0FFF75CFF27
:1018300001AC0126012528400301207810229043A5
:1018400018432070FFF7D6FEC30122787F20104096
:1018500018432070FFF7B6FE28408301207840220D
:10186000904318432070FFF7A7FE2840830020789C
:101870000422904318432070FFF794FE03002B408E
:101880002078B04318432070FFF791FE28404300B2
:1018900020780222904318432070FFF7C3FF2840AE
:1018A000C30020780822904318432070FFF7A6FE5B
:1018B0002840430120782022904318432070FFF7EE
:1018C000ADFF05406078B04305436570208802B0E5
:1018D00070BD7047044B7A22FF329A5C02707C2202
:1018E000FF329B5C0B7070475819002064207047D2
:1018F000014B0020185670474C150020F8B5040025
:101900000E001500254A2649280001F087FE071E13
:101910001DD0244B1A6824498C466244D1175218B2
:101920004A405B686344D9175B184B40642A0BDC60
:101930000022642B00DD02001C4B1B88002B05D00D
:101940001A4B00221A8002E00200F2E71700227808
:1019500063781B021343154A11880B431380114B04
:1019600032681A6072685A60114B3A0011492800B7
:1019700001F067FE002807D00F4B1B78002B03D126
:101980000D4B01221A70F8BD002FFCD00A4B1B78BA
:10199000002BF8D0084B00221A70F4E7D436002050
:1019A00040420F00203D002000F8FFFF4C63002064
:1019B000EC3C002000A3E11163630020014B187888
:1019C0007047C0466363002010B5002803D1074B61
:1019D00000221A7010BD0120FEF7E0FC0120FEF786
:1019E000FEFC024B01221A70F4E7C046526300204D
:1019F00010B50020FEF7F3FC0020FEF7CFFC00221C
:101A0000002100200BF026FD10BD000010B5084994
:101A1000084812F03DFD002802D1074B186810BDA0
:101A2000064B9A6A044B1A60024812F009FDF4E76B
:101A3000A02E0020F01700201C630020004005406D
:101A400030B583B00500FFF7E1FF00900190FFF78C
:101A5000DDFF0400FFF73DFF6A462900200001F08A
:101A6000DDFD0028F3D003B030BD000010B5FFF756
:101A7000CDFF074C206000F047FC206806F090FC8A
:101A8000206804F02FFE6420FFF7DAFFEFE7C0467E
:101A9000D036002010B504000A4B1B78002B00D074
:101AA00010BD084B01221A700020FEF777FC0020C1
:101AB000FEF795FC64200AF0CDFE2100002001F025
:101AC0003BFBEDE79263002010B5054B1B78002B24
:101AD00000D010BD024B01221A7001F02FFCF8E774
:101AE0007E63002010B52F4B1B78002B37D0FFF7FB
:101AF0008DFF2D4B18602D48FEF7D2FC2C4B1B7828
:101B0000002B35D105F002F9274C2849206806F052
:101B1000EDFC206801F0A8FB08F036FB002834D06B
:101B2000214C2449206805F0AFFB2068224A234954
:101B300008F056FB224B00221A701B4B1A681F49F3
:101B40001D48FFF7DBFE1F4B1B785BB2012B23D038
:101B5000154B1868FEF7C0FE0BF02AFC10BDFA20EA
:101B6000002180010BF06AFC0E4B01221A70BEE7C7
:101B70000E48FEF7E1FB0BF01BFC0B4C206801F05C
:101B800073FB206801F0ACFCE8E7074B18680B4AD0
:101B9000094900F0EBFCD0E7034B186801F0A0FC0A
:101BA000D6E7C04688630020CC360020C024002041
:101BB0005263002088240020CC240020A824002088
:101BC000636300204C15002070B584B0041E00D162
:101BD000FBE001F01EFD0500FEF70EFC7C497D4890
:101BE0000FF0DAFF03211C2009F0BAFC03211D20AD
:101BF00009F0B6FC01F096FB03AB02AA01A97648F6
:101C000009F05CFC002803D1734974480BF0FCFC1C
:101C1000039A0299019809F015FC7148FEF740FCFF
:101C200000F0CEFB002845D06D4E33006D4A6E4962
:101C30006E4806F0C9F906F023FC002001F0FCFB19
:101C4000FA2001F0A7FBB378DB0611D5684B002220
:101C5000BE2149005A547E21FF315A5401315A5451
:101C60008021FF315A5401315A548221FF315A5494
:101C7000EBB2012B23D0022B26D0012565576B1C1C
:101C800029D00022A2565B4B1A70554B1B789A063E
:101C900025D45A0637D4DA0637D45AB2002A36DBAE
:101CA0005A0736D40A221A40022A34D01B0717D505
:101CB000032515E03221504801F02CFAB4E74D4BD2
:101CC00002221A700025E0E72B041B0F494A13700B
:101CD0002D052D0FD9E7464B02255D57D1E7062587
:101CE00002F00CFD424AE2235B00D65C414B1B78BC
:101CF0005BB2013311D06424EBB2062B3FD8AB00AA
:101D00003E4AD3589F460125EAE70025E8E7022529
:101D1000E6E70525E4E70425E2E701F0B1FB00284A
:101D200004D1344B02221A704624E5E7314B0122DC
:101D30001A706424E0E73248322101F0EBF9210007
:101D4000300001F00FFAFFF7D1F92A4B0021595664
:101D5000280000F01BFC224B9B789B0730D4294ABB
:101D60001F49280004F07AFE0FF036F826480FF0DD
:101D700021F8FFF7B7FEFCE7FF200006DCE7234869
:101D8000DAE7FF200002D7E7002001F003FB194B40
:101D900000221A70FF2000041924CDE7002001F072
:101DA000F9FA144B00221A7019480F24C4E70020D6
:101DB00001F0F0FA0F4B00221A7016481924BBE705
:101DC0000B4B9D7000F0F6FAC9E704B070BDC04639
:101DD000801A0600B0170020400D03006046011075
:101DE000C024002088240020A8240020982400205B
:101DF000581900204C1500200000FF4D944601109A
:101E000000F115FFCC2400206D1A001000A1A1A143
:101E100000FF61000000FFE610B5040009F0D2FBEE
:101E200000220121200009F0B3FB0123A340D022AE
:101E300012065362536110BD10B5040009F0C2FBD5
:101E400000220121200009F0A3FB0123A340D0229E
:101E50001206936210BD10B5040009F0B3FB002216
:101E60000121200009F094FB0123A340D022120697
:101E7000936210BD094ABD235B00D35C1A1C312B51
:101E800000D83222054BBD2149005A54DA787A39FC
:101E9000FF398A43DA709B221A7270475819002062
:101EA00070B505001400724B1380012900D070BD7D
:101EB0000223C3569370D01CE91C06220EF024FCAA
:101EC000EB68E3602B6923616B696361AB69A361B4
:101ED00020001C3029001C3120220EF015FC2000AF
:101EE0003C3029003C3120220EF00EFC20005C30FA
:101EF00029005C3120220EF007FC20007C302900F4
:101F00007C3120220EF000FC20009C3029009C3106
:101F100006220EF0F9FB2000A2302900A231062291
:101F20000EF0F2FB2000A8302900A83130220EF07C
:101F3000EBFB20002930FF302900D83110220EF0B1
:101F4000E3FB20003930FF302900E83110220EF089
:101F5000DBFB20004930FF302900F83110220EF061
:101F6000D3FB20005930FF3029000931FF31102206
:101F70000EF0CAFB20006930FF3029001931FF3113
:101F800010220EF0C1FB94235B00EA5C5033E25454
:101F90002A23FF33EA5C7A23FF33E2544F3BEA5CA7
:101FA0005033E2542C23FF33EA5C7C23FF33E254AA
:101FB00020007D30FF3029002D31FF3106220EF048
:101FC000A3FB20008530FF3029003531FF3120226E
:101FD0000EF09AFB2000A530FF3029005531FF316B
:101FE00020220EF091FBBA235B00EA5C5033E254EE
:101FF0002000C930FF3029007931FF3118220EF05E
:1020000083FBC8235B00EA5C5033E2544E3BEA5A40
:102010005033E2524E3BEA5A5033E2524E3BEA5AB8
:102020005033E2524E3BEA5A5033E2524E3BEA5AA8
:102030005204F6204000110C225A9A3BFF3B1A40F2
:102040000A432252CE225200A95A22185180CF228E
:102050005200AA5A5204F8214900120C605A034057
:1020600013436352D0235B00EB5A641863801EE76E
:1020700002A0FFFF064B984204D0064B984203D1C2
:10208000022070470120FCE701204042F9E7C046EA
:1020900001A0000002A0000010B512480EF084FC60
:1020A000002407E0104B5B18D97810480EF07CFC38
:1020B0000134E4B2052C0DD80FF062F92100C0B252
:1020C000094A1219D070002CECD113000122904360
:1020D000D870E7E7044B9B221A720A200EF016FC18
:1020E00010BDC046B046011058190020C04601106E
:1020F000F0B5DE4657464E464546E0B56F4CA54422
:10210000FC256D002A00002102A80EF0F7FA6C4BA6
:1021100002AA1380059B0193DB0FDB0780221201CB
:1021200013430593069B0193DB0FDB0713430693D1
:10213000079B0193DB0FDB0713430793089B019376
:10214000DB0FDB071A4308925E4F0A975E4E0B9631
:102150005E4C0C945E480D905E490E915E4A0F9263
:102160005E4B109312971396149415901691179234
:1021700018935B4B19931A931B931C931D931E93F7
:102180001F9320932193802202A98B5004328B50FD
:1021900004328B5004328B5004328B5004328B50FB
:1021A00004328B50FF231B049A46A8230A00514691
:1021B000D1504C4B9B46AC235946D1504A4B994683
:1021C000B0234946D150FF231B069846B42341460D
:1021D000D150FF2636020433D6500433434A02A9B5
:1021E000CA50434F04330A00CF5004335146D150F4
:1021F00004334146D1500433D65004334946D150BC
:102200000433D6503B4BD82202A98B5004328B505A
:1022100004328B5004328B50E823CF50B63B7A22E5
:10222000FF328B5401328B54173AFF3AF1214900A7
:1022300002A8425202314352023142528532FF32E9
:10224000010083522C4C2A0020000EF05DFA002081
:1022500004F0CAFB012004F0C7FB032004F0C4FB18
:10226000042004F0C1FB052004F0BEFB20009C30DC
:10227000062200210EF042FA2000A23006220021A0
:102280000EF03CFAFFF708FFE4235B005246E250F1
:1022900004335A46E25004334A46E250043342467D
:1022A000E2500433E6500433E75081239B009D4401
:1022B000F0BCBB46B246A946A046F0BDFCFDFFFF00
:1022C00002A0FFFF000034420000B44200000743B8
:1022D00000003443000061430000874300809D43B9
:1022E000000016440000FF4D0000FFE600F115FF5E
:1022F00000FF610000A1A1A158190020014B18782E
:102300007047C0469663002070B5204CA544204B12
:102310001B78002B03D180235B019D4470BD0EF020
:1023200073FDEFF3108672B61A4B1B78002B24D185
:10233000194C00230093194A002101A80EF0DEF980
:10234000FC225200164968460EF0DEF980256D0128
:102350002900200012F0A4F82A006946200012F09B
:102360007FF886F310880EF059FD0E4B1B78002B7A
:1023700006D1074B00221A70CDE796246403D8E7F4
:1023800007F0C2FF074B00221A70F2E700F0FFFFD0
:102390007C6300209663002000D01200FC0F000038
:1023A0005819002089630020014B01221A707047E0
:1023B00089630020014B01221A7070477C63002062
:1023C00070B5394B1888394B1D88FFF753FE040050
:1023D0002800FFF74FFE0500631C0BD0022C0FD026
:1023E000022D0DD0012C2CDD012D2ADD0023002231
:1023F00000262CE0431CF1D100230022012626E018
:10240000022C05D0022D0FD00023002200261EE052
:10241000FC225200244926480EF076F9254B002272
:102420001A700023002612E0FC2252001F492048A7
:102430000EF06AF91F4B01221A70002300220026B9
:1024400005E00123012C15DDDBB201220026002E60
:1024500012D1002A23D0002B18D1164B01221A705A
:10246000134A21001048FFF71BFD0020FFF7A2FFD1
:10247000300070BD0023E7E70E4B00221A70FFF713
:1024800037FE0020FFF796FF0026F1E7094B0022F8
:102490001A70074A29000548FFF702FDE5E7FFF734
:1024A000E9FC0126E4E7C04600D0121000C012107B
:1024B000581900209663002010B5031C642800D929
:1024C000642303497A22FF328B54FEF70FFE10BDBE
:1024D0005819002010B5022817D008D800280DD0B0
:1024E00001280FD10B4AF2235B00D1520AE00328E6
:1024F00008D1084AF4235B00D15203E0054AF123D6
:102500005B00D15205F0F0F910BD024AF3235B00E5
:10251000D152F7E75819002030B50F4C400045085C
:10252000E068C00FC0072843E060490048082169FF
:10253000C90FC90701432161520051086269D20FD6
:10254000D2070A4362615B005A08A369DB0FDB070D
:102550001343A36130BDC04658190020062800DD92
:102560000020014B987070475819002010B5034B9C
:102570001B68002B00D0984710BDC0467427002070
:10258000014B0020185670476463002010B588B0D6
:102590000400284B1870022910D00C22002105A835
:1025A0000EF0ACF81022002101A80EF0A7F8E3B25B
:1025B000062B0BD8A400204B1B599F461F4B204ACB
:1025C0001A6008F049FC0028E7D005E01B4B1D4AC3
:1025D0001A60002001F014FA08B010BD174B194A18
:1025E0001A60062001F00CFAF6E7144B154A1A603F
:1025F000012001F005FAEFE7104B124A1A600220A1
:1026000001F0FEF9E8E70D4B0F4A1A6001AA05A98F
:102610000020FFF7ABFFDFE7084B0C4A1A6001AA66
:1026200005A90020FFF7A2FFD6E7044B084A1A606D
:10263000D2E7C04664630020E846011074270020FA
:10264000F5B00010B13A0010B58E0010DD98001002
:102650008D9E0010F0B5C64600B590B004000D0088
:1026600016001F0016AB1B789846494B984200D1C4
:1026700088E00721380008F073FF012300933A0037
:10268000290020000EF068FF1022002108A80EF09B
:1026900035F880235B020893F8235B0209938023BB
:1026A000DB020A93C0231B030A93102208A904A883
:1026B0000EF02AF8F31C059A039236491140F201F4
:1026C00011431B0319430591079B0393DB00DB08B0
:1026D00080229205134307932F4B19400591102236
:1026E00004A90CA80EF010F80F9B03932B4A1A4074
:1026F000BF0217430F974346002B45D020220E9B65
:1027000003932749194080239B020B435206F8216B
:1027100089050A4013430E939B009B088022D20533
:1027200013430E9305200AF085FD1E490CF080F836
:102730000DF025FD80460DF07BFD87B2002F25D0E2
:1027400038000DF01CFD011C40460DF0A4FC872153
:10275000C9050DF0C0FC0DF06BFDC0B200023F04D6
:1027600007430C970CAB3200290020000EF046FF07
:1027700022680123AB409A431343236010B080BC0E
:10278000B846F0BD062175E71822B8E70020E5E756
:10279000000020507F00FEFFFFFFFF9FFF83FFFF31
:1027A000FFFFF5C10050C300014B01221A707047B2
:1027B0007363002070B5254B1B78002B17D1244B79
:1027C00000221A70214B01321A7000241F2C09D8E4
:1027D0000EF0D6FD06210CF02BF81E4B19550134D6
:1027E000E4B2F3E71C4B00221A70002428E01A4BD5
:1027F0001B78002BF9D1194B1B789A009B18FA2BE8
:1028000000D9FA23FF221A40FF239B1A9BB2144AD5
:102810001380144A1380104B01221A70E5E70D4D06
:102820002B5D72339B00104A9958A2000F4BD15078
:102830000EF0A6FD06210BF0FBFF29550134E4B292
:102840001F2CECD9FFF7B0FF70BDC04672630020AB
:102850005C6300208C270020711500206F1500207C
:10286000426300203E63002058190020E42C002021
:10287000034B1980034B1860034B00221A707047FA
:1028800040630020D82B00207063002070B5050045
:102890000C0000880DF073FC1B490DF006FC1B4971
:1028A0000DF019FC0DF0C4FCC2B22B79A978C94314
:1028B000C9B25943090A5B1ADBB23F2528402D1AD9
:1028C000EDB2584380096B439B11DBB20818C0B2CC
:1028D000CB18DBB23F2A10D9403AD2B23F2A06D8F1
:1028E0001A060B061B0A0002134318430AE00906E6
:1028F00000041B020843184304E000061B040902FD
:1029000018430843206070BD00007F4300003F4330
:10291000F8B5CE46474680B50400234B1D78002D00
:1029200005D100230360C0BCB946B046F8BD642D94
:10293000F9D08778E678B81963789846C0180DF012
:1029400023FC1A490DF0B1FB814628000DF017FC5D
:1029500017490DF0AAFB051C011C48460DF0FAFBB7
:102960000028E0D14946281C0DF09FFB051C3800CB
:102970000DF005FC291C0DF0AEFB0DF059FCA0700C
:1029800030000DF0FCFB291C0DF0A5FB0DF050FCF8
:10299000E07040460DF0F3FB291C0DF09CFB0DF0A0
:1029A00047FC6070BFE7C0466E15002000007F4303
:1029B0000000C842F0B5D6464F464646C0B50400B2
:1029C0000368002B35D083789846C778D819667885
:1029D00080190DF0D9FB051C40460DF0D0FB804658
:1029E000291C0DF062FB824638000DF0C8FB071C65
:1029F000291C0DF05AFB814630000DF0C0FB061C6F
:102A0000291C0DF052FB051C514640460DF063FB9E
:102A10000DF00EFCA0704946381C0DF05CFB0DF06B
:102A200007FCE070291C301C0DF055FB0DF000FC7C
:102A30006070E0BCBA46B146A846F0BD30B585B07E
:102A40001D4B1B78002B0FD100241F2C09D80EF032
:102A500097FCFF210BF0ECFE184B19550134E4B242
:102A6000F3E7154B01221A7000241FE0134D2B5D74
:102A7000134A1078C018FF210BF0B2FEC9B22955D5
:102A800002A80180FF23438083800023019301A9D2
:102A9000FFF7FCFE01A8FFF73BFF0A4BA000019ADD
:102AA000C250C018FFF786FF0134E4B21F2CDDD9F5
:102AB000FFF77AFE05B030BD72630020942B002032
:102AC0006F150020E42C002000220AE09300064944
:102AD0005958064B5B68DB03FBD4044B1961013288
:102AE000D2B21F2AF2D97047DC2B00200000205000
:102AF000F8B5DE4657464E464546E0B506000D00A1
:102B0000141C80780DF03BFB8046F0780DF037FB0D
:102B1000071C70780DF033FB061CA8780DF02FFB16
:102B20008346E8780DF02BFB824668780DF027FB92
:102B30008146414658460DF0AEFA211C0DF0CBFA05
:102B400041460DF0ADFA051C391C50460DF0A3FAB4
:102B5000211C0DF0C0FA391C0DF0A2FA071C311C23
:102B600048460DF098FA211C0DF0B5FA311C0DF015
:102B700097FA061C281C0DF05BFBC5B2381C0DF043
:102B800057FBC4B2301C0DF053FBC0B22D04000241
:102B9000240628432043F0BCBB46B246A946A046C3
:102BA000F8BD0000082803D88300134AD3589F4675
:102BB000002000E00320C30702D4104B0022DA619A
:102BC000830702D40D4B00229A61430702D40B4BBA
:102BD00000225A61030702D4084B00221A61704791
:102BE0000720E8E70F20E6E70920E4E70A20E2E70C
:102BF0000B20E0E70620DEE704470110E42C00206C
:102C000010B5054B1870FFF7CDFF044B00221A706A
:102C1000FFF7CAFD10BDC046756300207263002037
:102C2000F8B52A4B18880DF0AFFA011CFE2080057C
:102C30000DF03BFA041C264B1B78002B0AD1254BC8
:102C40001E78224B1B889E4215D9234B18780028EA
:102C50002FD0F8BD214B1878FFF7A4FF8022204920
:102C600020480DF051FD00231A4A1370184A1370C2
:102C7000194A1370E3E730000DF081FA211C0DF0C2
:102C80002AFA051C00240BE0A700174979181548FB
:102C900038182A1CFFF72CFF114BD8510134E4B22D
:102CA0001F2CF1D901360B4B1E70FFF70DFF0020D2
:102CB000CFE780220C490A480DF026FDFFF704FFFC
:102CC000054B01221A700120C3E7C0463E63002075
:102CD00073630020731500207015002075630020B9
:102CE000DC2B0020642C0020E42C0020F0B5C6462C
:102CF00000B506000F001500984600240AE0335D79
:102D00009B004246EA50305D80002818FFF752FED3
:102D10000134E4B2BC42F2D380BCB846F0BD00003E
:102D2000031C642800D96423014A13707047C0460D
:102D30006E15002030B583B0050000240CE001952D
:102D400001A8FFF7E5FD064BA000019AC250C0188C
:102D5000FFF730FE0134E4B21F2CF0D903B030BDD0
:102D6000E42C002010B509480388094A12789B1802
:102D7000FF2213400380074C2100FFF787FD2068E6
:102D8000FFF7D8FFFFF710FD10BDC0466815002003
:102D90006F150020902B002010B51A4B1B78002BCC
:102DA00017D1194A1370174A01211170174A13706D
:102DB000154C237872339B00154A9858FFF7BAFFD9
:102DC0002078013006210BF00BFD2170FFF7ECFCA1
:102DD00010BD0E4B1B78002BEAD10E4B1B789A00CE
:102DE0009B18FA2B00D9FA23FF221A40FF239B1AC3
:102DF0009BB2094A1380094A1380044B01221A70BE
:102E0000D6E7C046726300205C6300207215002084
:102E1000581900206F150020426300203E630020F7
:102E200010B50F4B1B78002B10D10E4B1B68002BDD
:102E300002D10C4B0C4A1A600A4B1868FFF77AFF54
:102E4000FFF7B2FC064B01221A7010BD0020FFF7FD
:102E500071FFFFF7A9FC024B00221A70F5E7C0468C
:102E6000936300205C2C00200000FFE610B5164B99
:102E70001C78002C05D0154B1B78002B17D0200098
:102E800010BD8022124913480DF03EFC124B186809
:102E9000FFF750FF114B1A88114B1A80FFF784FC83
:102EA000094B01221A70094B00221A70E7E78022B1
:102EB00008490C480DF028FCFFF776FC034A13780C
:102EC00001331370DBE7C046706300209D63002070
:102ED000DC2B0020BC3E0020602C00204063002042
:102EE0003E630020E42C002010B50D4B1C78002C14
:102EF00006D00C4B1B68002B00D09847200010BD5B
:102F00000020FFF717FF0020FFF74CFEFFF74CFCF7
:102F1000054B1A88054B1A80014B01221A70EDE708
:102F200070630020A82D0020406300203E63002035
:102F300070B50C000F2803D88000294B1B589F4602
:102F40000126284D2EE00426274D2BE00426274D90
:102F500028E00126264D25E00126264D22E0012607
:102F6000254D1FE00126254D1CE00126244D19E0CA
:102F70000126244D16E00126234D13E00126234DA2
:102F800010E00126224D0DE00126224D0AE0012627
:102F9000214D07E00126214D04E00426204D01E0EB
:102FA0000426104D002A12D023001E4A31002800AA
:102FB000FFF79CFE23001C4A31002800FFF796FE15
:102FC00023001A4A31002800FFF790FE70BD23004D
:102FD000154A31002800FFF789FEFFF7E5FBF5E70A
:102FE00028470110AC470110984701108C47011089
:102FF0009C4701108847011090470110A447011019
:10300000B4470110B04701108047011084470110F8
:1030100094470110B8470110A8470110BC470110A0
:10302000A0470110642C0020E42C0020DC2B0020A1
:1030300070B50C4B196840220B480DF065FB00245D
:103040000CE0A300084DED182800FFF761FC29688B
:1030500000222000FFF76CFF0134E4B20F2CF0D9FE
:1030600070BDC046642D0020682D002010B5024BB5
:103070001860FFF7DDFF10BD642D002010B5074B71
:103080001B78002B00D010BD0548FFF7EFFFFFF7BE
:103090008BFB024B01221A70F5E7C04672630020D9
:1030A000001A0020144AF0235B00D35C834209D04D
:1030B000002B03D1E133FF330521D1540E4AF02315
:1030C0005B00D0540C4AF0235B00D25C0B4B1A70AF
:1030D0000B4B1B78052B0AD00A4B15221A80094B83
:1030E0001A88094B1A80094B00221A707047084B46
:1030F0001A88044B1A80F2E7581900206F15002037
:1031000071630020426300203E6300207263002050
:103110004463002010B5054B18604908044C20009A
:10312000FFF7A6FB034B1C6010BDC046602C0020BF
:103130006D2E0010D82B002010B5064B1870064BD2
:1031400000221A60054B196019210548FFF790FB12
:1031500010BDC04676630020D42B0020A82D00208F
:10316000E92E001070B582B004000D00244B1B78CE
:10317000002B0CD0234B1C700023234A1370234ACE
:103180001370052C16D8A400214B1B599F46214EC5
:10319000214930000EF0C4F90200002300931733D8
:1031A00000213000FFF756FA154B01221A70FFF785
:1031B0008BFCDFE7194B1A4A1A601A4AF0235B00AE
:1031C000D05CFFF76FFF2800642D00DD6420C0B2E3
:1031D000FFF7A6FD02B070BD104B134A1A60ECE772
:1031E0000E4B124A1A60E8E70C4B114A1A60E4E7EA
:1031F0000A4B104A1A60E0E7084B0F4A1A60DCE7F6
:1032000074630020716300207263002077630020E4
:103210006847011000002050C0470110D42B002047
:103220007D30001058190020652D00103D2A001037
:10323000212E0010992D0010B527001010B5FF2980
:1032400003DC002902DA152100E0FF21044B19807C
:10325000044B18601E210520FFF784FF10BDC046F7
:10326000446300205C2C002010B5144A144900F07F
:10327000D5F9002800D110BDFFF7D2FC002803D1FA
:10328000104B1B78002BF6D00F4B1B68002B0ED079
:1032900098470028EFD000240B4B1C600B4AF0230A
:1032A0005B00D05CFFF7FEFE094B1C70E3E7094BA7
:1032B0001B68002BDFD09847DDE7C0469C3C002010
:1032C0001A41000077630020D82B002058190020F5
:1032D00072630020D42B002010B586B00D4B1C78F3
:1032E000002C03D00024200006B010BD05AA0A4B14
:1032F0001978117004AB19700849029101210191EC
:10330000009301236931064800F076FA0028EADDCF
:103310000134E8E787630020F45201101027000011
:10332000B017002010B5FFF7D7FF002802D1024BDD
:1033300001221A7010BDC0468763002030B585B0E9
:10334000104B1B78002B1BD11E25002412E003AA72
:103350000D4B13800D4B01930023009302336A2120
:103360000B4800F0A1F90400322009F073FA0AF0CA
:103370001FF8013D002C01D1002DE8D1FEF738FBEC
:1033800005B030BD8763002009C1FFFFA0860100A2
:10339000B017002010B584B00400174B1B78002B29
:1033A00019D1164B1880232817D8C0B20538C0B2DF
:1033B0007F231840002C00D1852004236A46137314
:1033C00050730F4B019300230093023303AA6A2129
:1033D0000C4800F069F904B010BDAF235B009842BF
:1033E00007D828380A210BF0FBF9C0B21F30C0B251
:1033F000DEE7AF204000F4E7876300204A63002047
:1034000010270000B017002070B5094B1B78002B67
:103410000CD1084B1D880020FFF7BCFFFEF766FAB1
:1034200004002800FFF7B6FF200070BD6424FBE70E
:10343000876300204A63002000B585B00D4B1B78E0
:10344000002B12D1022812D0E02103AB0A221A70FD
:103450005970094B019300230093023303AA6A2198
:10346000064800F021F90228F3D105B000BDE4219F
:10347000EBE7C0468763002010270000B01700204C
:1034800000B587B0114B1878002801D007B000BDF7
:1034900005AA0F4B1978117004AB19700D490291F0
:1034A000012101910093012369310B4800F0A4F937
:1034B0000230012807D904AB1A78084B1A70D0B231
:1034C000C007C00FE2E70120E0E7C04687630020A5
:1034D000F452011010270000B01700203C300020EB
:1034E00010B52E4B1B78002B00D010BDFA212C4AB2
:1034F000490200F093F80028F7D0FFF7C1FF294BED
:103500001870002820D0284B1B78002B20D0264B89
:103510001B78002B27D1244B1B78002BE5D0234BA5
:103520001B785B069A0F224909788A42DDD0022A6D
:1035300029D853B2002B2BD1FF2000041C4B1A704A
:103540006421FFF77BFED0E71A48FEF7A3FADAE71B
:10355000FEF734FA0028DAD0154B00221A70124B0D
:1035600001321A70D7E7FEF729FA0028D3D10E4BA3
:1035700000221A70104AE2235B00D05C022149420B
:10358000FFF7F0FDC7E7032AD6D1FF200002D5E7F9
:10359000FF231B04E62000061843CFE787630020C3
:1035A000D43C002058630020976300203C3000206A
:1035B0008F630020C91A00105819002010B500228E
:1035C0000021002009F046FFFEE70000072804D88C
:1035D0008000024B9C466044016070470C800540AF
:1035E00010B5072802D90024200010BD8000044B2C
:1035F0009C466044046800210520FFF7E7FFF3E7DD
:103600000C80054010B501000520FFF7DFFFFFF734
:10361000D5FF10B50520FFF7E3FF10BD106053681C
:10362000834205D9C31A013B8B4205D20020704763
:10363000834204D2C31AF7E750600120F7E7002065
:10364000F5E730B51860002A0BD15C6884420BD9CD
:10365000041B013C0025002D0BD1A14209D910000B
:1036600030BD58600020FBE7844205D2041B0025D2
:10367000F1E758600120F3E71000F1E710B501E031
:1036800009F096FE0A21034810F0C2FE0028F7D088
:1036900010BDC046F817002010B5024810F0D0FE4B
:1036A00010BDC046F8170020F0B5D6464F46464636
:1036B000C0B584B081460F00924698460CAB1E7888
:1036C000FFF7DCFF0D9C002509F094F902000B1EAA
:1036D00018DB12196B41002B1ADB002B1CDB02924A
:1036E0000393009643465246390048460EF08CFA42
:1036F0000400FFF7D1FF200004B0E0BCBA46B14699
:10370000A846F0BD074B084A3F21084809F0E2FEF1
:1037100001225242064BE0E7024B034A3F21034895
:1037200009F0D8FED047011050480110EC470110B5
:10373000FFFFFF7FF0B5D6464F464646C0B584B082
:1037400081460F00924698460CAB1E78FFF796FF15
:103750000D9C002509F04EF902000B1E18DB121912
:103760006B41002B1ADB002B1CDB029203930096AB
:1037700043465246390048460EF065FA0400FFF70A
:103780008BFF200004B0E0BCBA46B146A846F0BDAD
:10379000074B084A3F21084809F09CFE012252428B
:1037A000064BE0E7024B034A3F21034809F092FE33
:1037B000D047011050480110EC470110FFFFFF7F78
:1037C000F0B5C64600B582B080460D0016001F0059
:1037D00008AB1C78FFF752FF00943B003200290031
:1037E00040460EF005FA0400FFF756FF200002B035
:1037F00080BCB846F0BD0000F0B5DE4657464E46E8
:103800004546E0B585B08046894692469B46FFF71F
:1038100035FF109C002509F0EDF806000F1E31DB86
:10382000A4197D41002D33DB002D35DB0294039577
:10383000012300935B465246494640460EF0E4F9A8
:10384000109C002509F0D6F802000B1E2ADB121985
:103850006B41002B2CDB002B2EDB02920393002309
:1038600000930F9B0E9A494640460EF0ECF9040077
:10387000FFF712FF200005B0F0BCBB46B246A946D8
:10388000A046F0BD0F4B104A3F21104809F022FE20
:10389000012464420E4DC7E70A4B0B4A3F210B48F7
:1038A00009F018FE074B084A3F21084809F012FEAC
:1038B00001225242064BCEE7024B034A3F21034806
:1038C00009F008FED047011050480110EC470110E4
:1038D000FFFFFF7F10B5FEF753FE022801D002481C
:1038E00010BD0248FCE7C046684801105849011065
:1038F00010B500200FF02AFD10BD000010B51021FA
:10390000064810F0D5FD002800D110BD044B01225F
:103910001A70024810F094FDF7E7C0460018002026
:103920008563002010B51021064810F0C1FD002865
:1039300000D110BD044B00221A70024810F080FD27
:10394000F7E7C046001800208563002070B5050029
:1039500064210D4810F05CFD041E09D10B4B2200C0
:103960000B492800FFF76DFE051E08D1200070BD31
:10397000084B1C78E4B2044810F062FDEEE7FFF754
:10398000BDFF2C00F2E7C04600180020D440002004
:10399000A086010085630020037801330370044B87
:1039A0001B785BB2022B01D0024870470248FCE74B
:1039B000301600209C4A0110D44B01100C4B1860AB
:1039C0000C4B98420BD00C4B98420CD0FA235B0066
:1039D000984200D07047094B01221A60FAE7074B62
:1039E00004221A60F6E7054B08221A60F2E7C04687
:1039F000D02E0020461000008D200000C82E002090
:103A000010B50400002002F067FE022C2CD0062C1A
:103A10001DD0012C10D0012002F05EFE1848FFF7E7
:103A2000CDFF184B184A1A60184B194A1A60194BE7
:103A30001C7010F097F810BDFA204000FFF7BEFF91
:103A4000104B154A1A60114B144A1A60EFE7012017
:103A500002F042FE1248FFF7B1FF0A4B114A1A600A
:103A60000A4B0B4A1A60E2E7FA204000FFF7A6FF74
:103A7000044B0D4A1A60054B0C4A1A60D7E7C04642
:103A80008D200000CC2E00201DA00010D42E002080
:103A9000F138001030160020A5AB0010A94100102D
:103AA0004610000071B20010498600103546001023
:103AB000F8B506000C0015000120002140420EF070
:103AC000B9FF234B9F6C234B1B68BB421CD2FB1AD4
:103AD000214A12689A4202D8204B01221A70204BC8
:103AE0001968204A3000FFF799FD002802D01E4BCC
:103AF00001221A701D4B1B78002B0AD11C4B1B682E
:103B000098471A4B1870F8BDFB1A1A4A944663443A
:103B1000DEE73000FFF71AFF0028F4D00F4B1B78C8
:103B2000002BF0D0104B1B78002BECD0094B1F6002
:103B300000230A4A13700C4A13700C4A1370FFF7E3
:103B4000F1FE0D4B1B68290020009847DBE7C046BB
:103B500000001150CC370020C82E002095630020B3
:103B6000D02E002034630020A36300208663002051
:103B7000D42E0020FF070000CC2E0020084B1B781D
:103B80005BB2022B07D0062B07D0012B01D00548D2
:103B900070470548FCE70548FAE70548F8E7C046DE
:103BA00030160020F8540110E44A0110C04B0110F7
:103BB000145E0110084B1B785BB2022B07D0062B5A
:103BC00007D0012B01D0054870470548FCE70548A0
:103BD000FAE70548F8E7C04630160020B85401104F
:103BE000B44A0110944B0110E85D011000207047A9
:103BF00010B5134B1B785BB2022B13D0062B18D0D9
:103C0000002B05D00B78002B0FD1FFF777FE0CE0CF
:103C10000B78302B03D0212B01D0812B05D1FFF75E
:103C20006DFE02E00B78212B00D010BDFFF766FE81
:103C3000FBE70B78012BF8D1FFF760FEF5E7C046F4
:103C40003016002070B51D0004AB1E88434B0024C5
:103C50001C57012C40D0022C12D0002C00D070BD7B
:103C60000029FCD1002AFAD12878102804D032008B
:103C7000290001F00FF8F2E7A81C01F0E9FFEEE7D8
:103C80000029ECD1002AEAD12B78112B05D0132B77
:103C9000E5D133480CF088FEE1E76B78002B19D0B2
:103CA000304B3148012505701904090CC1831A0CE9
:103CB0000284002242832D4C84832D490D701A0406
:103CC000120CCA831B0C0B8400234B838C83FDF7DF
:103CD00001FAC4E70023E4E70029C0D1002ABED1DD
:103CE0002B78002BBBD16B78082BB8D1EC78002C4B
:103CF00030D0A8780CF043FA1E490CF0D6F9061C17
:103D00002B79002B28D020000CF039FA19490CF03F
:103D1000CCF9041C211C301C0CF02CFA002800D01B
:103D2000341C1148012505702204120CC283230C97
:103D30000384002343830D4A82830D490D702304BD
:103D40001B0CCB83240C0C8400234B838A83FDF74C
:103D5000C1F984E70026D3E70024DBE73016002012
:103D60001C4A01106666263F3C3F002002430000CB
:103D70000840002000007F43064B1B785BB2022BFB
:103D800003D0062B03D1044870470448FCE70448DD
:103D9000FAE7C04630160020285E0110284B0110BB
:103DA0000C55011070B5EE2824D0002825D08000D5
:103DB0001E4BC558280010F0FBFAC0B21F2800D9CE
:103DC0001F20002327E05A1C194CA15C0902E25C69
:103DD0000A4344001749625202330130112BF2D9D1
:103DE000154A144B13CB13C211001A680A609B8842
:103DF0008B8019E000200023F0E70C4B19680222A9
:103E00000E480CF081FC012007E05A1CEC5C5100CC
:103E1000094BCC52D3B29842F7D801304000C023AE
:103E20009B001843044B1880034870BD54150020B4
:103E3000604A011074200020B4270020B62700201B
:103E400000B591B04022694600200FF00DFD002022
:103E50000FF020FD064B1B785BB2002B01D011B098
:103E600000BD04480CF070FD684606F071FAF6E7F4
:103E700030160020344A0110F0B583B0050014005C
:103E8000012966D113785B069B0F012B58D0022BBA
:103E900003D0002B01D000205CE06378022B24D0FB
:103EA000072B03D0012B19D0002053E0227963792E
:103EB0001B021343042B03D0052B08D0002049E03C
:103EC0002433264A210028000EF0D8FE42E08D332C
:103ED000234A210028000EF0D1FE3BE02723214A8F
:103EE000210028000EF0CAFE34E0227963791B021B
:103EF0001343072B30D11C4B1B785BB2022B0FD026
:103F00006B469F1D194E0222310038000CF0FCFB5D
:103F10003B883200083A210028000EF0AFFE19E07D
:103F20006B469F1D124E0222310038000CF0ECFB54
:103F30003B883200083A210028000EF09FFE09E07D
:103F400051780C480CF030FD210028000EF07AFE6C
:103F500000E0012003B0F0BD0020FBE708160020C0
:103F600074150020744A011030160020AC4801106E
:103F7000844901104C4A0110012815D0022907D0AC
:103F800000290BD1022A29D0002A29D00620704707
:103F9000022A1FD0002A1FD00800F8E7022A21D0E9
:103FA000002A21D00820F2E7022907D000290BD1EE
:103FB000022A1FD0002A1FD00720E8E7022A15D0C6
:103FC000002A15D00320E2E7022AE0D0002A15D00B
:103FD0000020DCE70120DAE70320D8E70720D6E756
:103FE0000520D4E70020D2E70420D0E71000CEE778
:103FF0000420CCE70820CAE70620C8E70520C6E76A
:104000000120704710B58422002102480CF076FB95
:1040100010BDC046F832002010B50020FFF7F2FFB7
:1040200010BD0000F0B5C64600B580460D008B7986
:104030005D2B24D10B79DF00FF1ABFB21937BFB255
:10404000974221D80C780C19002605E0104A5370CD
:104050000136F6B22378E4182B79B34210D963788D
:10406000052BF7D1210040460EF012FA00280DD0A2
:10407000A378DA09012AE9D0054A9370E8E7002716
:10408000380080BCB846F0BD0027F9E70027F7E705
:10409000F832002030B583B00400144840788842DC
:1040A00006D0124A92788A420CD0012003B030BD6B
:1040B0000F4A002A18D09AB20E490020FFF798FD47
:1040C0000120F3E70C4D9BB200932B00002200214E
:1040D0000020FFF7B7FD2B00443B997840232A00CE
:1040E00020000EF049FAE1E70120DFE7F832002076
:1040F000F13B0010FC3200203C33002010B50EF0E4
:104100002BF9002803D10023002B08D110BD0EF09D
:104110002BF9002801D10123F6E70023F4E70B4B2C
:10412000997800200EF064FA0028EFD1074CA178AE
:104130000EF0FAF922004432A178402300200EF05C
:104140001BFAA17800200EF003FADFE7F832002016
:1041500070B505000C000EF007F9002806D181218A
:1041600000200EF0E1F9002803D170BD0EF004F933
:10417000F5E7231C402C00D940239CB2094E2200B5
:10418000290030000CF0C0FA351F69782300320096
:1041900000200EF0F1F9697800200EF0D9F9FFF750
:1041A000ADFFE2E7FC32002010B5104B5C780EF05A
:1041B000D3F8002806D10023002B13D0002C09D1FE
:1041C000002010E00EF0D0F8002801D10123F3E721
:1041D0000023F1E7210000200EF00AFA002803D1A5
:1041E000013000E0002010BD0020FCE7F832002084
:1041F00010B53C22002102480CF080FA10BDC046E8
:104200005028002010B50020FFF7F2FF10BD00007D
:10421000F0B583B006000F001500FEF7B1F90228D3
:104220004CD13B79DC00E41AA4B21234A4B2AC4203
:1042300048D80023002B09D00025002D44D0397820
:1042400079184B78212B11D0002438E01A01D21AAA
:1042500092001F4882185278002A02D00133DBB244
:10426000E8E71A01D11A89004518E6E7A9630B7837
:10427000C9183A796B1C0193AB1C009303233000DF
:104280000EF020F9002821D0BB79012B13D0012397
:104290002B71BB782B70AA6BD179137A1B020B435D
:1042A000EB80A97800290AD02A003032062330009A
:1042B0000EF062F903E0FB79EB70E8E700242000E0
:1042C00003B0F0BD0024FAE70024F8E70024F6E785
:1042D0005028002070B582B005001D4C0020002839
:1042E0000AD0002830D162788A4213D0A2788A425C
:1042F0001AD0012002B070BD0401241AA400144A8F
:104300001419A2788A42ECD062788A42E9D001304E
:10431000C0B2E4E70F4A002A18D0210008319AB24F
:10432000FFF766FC0120E5E7260030369BB20093DC
:10433000330000220021FFF785FCA178062332001C
:1043400028000EF019F9D5E70020D3E70120D1E7C6
:1043500050280020F13B0010F0B5C64600B582B0F1
:104360000600150012781F231340012B00D01FE117
:1043700028790024002C0DD0FF24002C00D01CE153
:104380002700602318001040134239D101290BD0B7
:1043900001200EE123011B1B9B008E4FDB5D984229
:1043A000EBD00134E4B2E5E7EA786B78062B06D06F
:1043B000062B00D005E1222A12D00020F9E0212AA4
:1043C000F6D123011F1BBF00824BDF19BA6B002AF5
:1043D00000D1F4E01378290030000EF04FFCE8E043
:1043E0002000FFF7C9FC02003B01DF1BBF00794B37
:1043F000DF19FB88290030000EF040FC0120D8E0D6
:10440000202800D0DFE06B780B2B00D9DDE09B008B
:10441000714AD3589F46012901D00120C9E0EA78AA
:10442000A97823011B1B9B0008336A4FFF18A8794A
:10443000EB791B020343181C252B00D9252080B2E1
:10444000002909D0012B16D97B1C9C4639700138F4
:1044500080B20123984602E0BC46002398460090B3
:1044600063462000FFF7C2FB030043449BB2002BCE
:1044700005D100209DE0BC4600239846EFE73A00B6
:10448000290030000EF0FAFB012092E0012903D050
:10449000032915D001208CE0AA79EB791B02134384
:1044A000062B01D9002084E02201121B9200303239
:1044B00048498A18290030000EF0E0FB012078E01E
:1044C000EA78A97823011B1B9B0030334148C318AD
:1044D000AE79E87900023043051C062800D906258C
:1044E000ADB2002904D0012802D91878884205D03D
:1044F00000952000FFF7A6FB01205AE00133013DA3
:10450000ADB2F5E7012901D0012052E0E97823019D
:104510001F1BBF002F4BDF197971304B002B04D0CC
:10452000200000E000BF002843D0290030000EF03A
:1045300089FB01203DE0012901D0012039E0220161
:10454000171BBF00234AD21905320123290030006E
:104550000EF094FB01202CE0012901D0012028E07D
:104560002201171BBF001B4AD21904320123290064
:1045700030000EF083FB01201BE0012903D003294A
:1045800007D0012015E0290030000EF05BFB012070
:104590000FE0A97823011F1BBF000E4BDF193971F3
:1045A0000F4B002B13D0200000E000BF012000E0E3
:1045B000002002B080BCB846F0BD0020F9E7002022
:1045C000F7E70020F5E70020F3E70020F1E70120FE
:1045D000EFE7C04650280020F84A01100000000014
:1045E0000000000010B50301181A8000104B1818C5
:1045F00044780DF0B1FE002806D10023002B13D023
:10460000002C09D1002010E00DF0AEFE002801D1F1
:104610000123F3E70023F1E7210000200DF0E8FF7C
:10462000002803D1013000E0002010BD0020FCE78D
:104630005028002010B50020FFF7D4FF10BD000067
:10464000F8B504000F0016001D0003011B1A9B00A3
:104650001F4AD318597800200DF066FF002825D096
:10466000002F24D02B1C242D00D924239DB2184ABE
:104670002301191B890051180F721B1B9B00083363
:10468000D01801302A0031000CF03EF80135ADB2EF
:104690000F4B2001021B920008329A18001B800069
:1046A000181841782B0000200DF066FFF8BD2B1C78
:1046B000252D00D925239DB22001001B8000083044
:1046C000034B18182A0031000CF01EF8E0E7C04632
:1046D0005028002010B513000A0001000020FFF749
:1046E000AFFF10BD107003120F20184050700B0167
:1046F00018435070091191707047000070B5124D49
:10470000802424012A0021002000FFF7EBFFEA1C8F
:1047100021002000FFF7E6FFAA1D21002000FFF77F
:10472000E1FF2A00093221002000FFF7DBFF2A0009
:104730000C3221002000FFF7D5FF2A000F322100A4
:104740002000FFF7CFFF70BD0863002010B54022A6
:10475000002102480BF0D2FF10BDC046102E0020F1
:10476000014B18707047C04680630020014B1873DE
:104770007047C046102E0020014B58737047C0464A
:10478000102E002070B5FDF741F904000E4D2B6886
:10479000C01AC317C01858400AF032FB2C60002220
:1047A0000A4B0AF09EFA0AF067FB094B00215A5E99
:1047B0001C7808490C70801882B200B21880FF285B
:1047C00001DDFF3A1A8070BD303D002000408F406F
:1047D00048630020102E0020024B1A78024B5A70BA
:1047E0007047C046444D0110102E0020064B042295
:1047F0009A732F32DA73303A1A74013A5A740121DB
:1048000019765A767047C046102E002010B5C4B2F3
:10481000000A002307E019000E31044A5454013104
:1048200050540233DBB20D2BF5D910BD102E0020F1
:104830000A4B01221A7000225A7003329A70084AF9
:10484000117AD970D1791971917959715179997118
:104850001179D971D2781A727047C046102E002093
:104860005819002010B50400FFF770FF8120FFF7F2
:1048700077FF012C09D0064B1C70064B197840239A
:10488000034A00200EF08AFD10BDFFF7D1FFF4E7C8
:10489000102E00208063002070B586B06C462A4B35
:1048A0000433220070CB70C270CB70C2022837D0A4
:1048B000032841D00023002500E00133052B10D848
:1048C000224AD2187D32FF3214780522D21A885C2F
:1048D0008442F2D01D4AD2187D32FF321070012579
:1048E000EBE7002D19D18120FFF740FF1848012385
:1048F0008373164B1A7AC273DA7902749A79427406
:104900005A7982741A79C274DB78037515301822CB
:1049100069460BF0F9FE06B070BDFDF74BFDE2E70E
:104920008120FFF723FF0A48022383730F301022F0
:1049300008490BF0E9FEEEE78120FFF717FF044B73
:1049400003229A73E7E7C046444D0110581900202E
:10495000102E0020902E002070B504000E001500CF
:10496000FFF7F4FE2120FFF7FBFEFFF70BFFFFF739
:1049700033FF2000FFF700FF482C68D8A4003E4B0F
:104980001B599F468020FFF7F1FE00236BE0F07A71
:10499000431E9841C0B201F09FFEF27A374B1A7065
:1049A0008020FFF7E3FEF0E731000C31F07AFFF7EB
:1049B00073FFEAE78020FFF7D9FEF27A304B1A70D6
:1049C000E3E78220FFF7D2FEFFF710FFDDE780204C
:1049D000FFF7CCFED9E79020FFF7C8FEF27BF17A13
:1049E000307B00F039FAD0E72648FDF753F8CCE7E2
:1049F0008020FFF7BBFEC8E78320FFF7B7FE6420E7
:104A0000FFF704FFC1E78020FFF7B0FEBDE780207D
:104A1000FFF7ACFEF27A0F231340033BDAB20C2A05
:104A200003D89300184AD3589F460120FEF7E8F8B0
:104A3000ABE70320FAE70420F8E70520F6E70620B5
:104A4000F4E70720F2E70820F0E70220EEE7002372
:104A5000AB4202D201339BB2FAE78020FFF786FE19
:104A600093E70133DBB21F2BFBD94023074A2121F7
:104A700000200EF093FC70BDEC4B01108163002010
:104A800034160020C91A0010104D0110102E0020FD
:104A900070B50C00150010280DD080280FD001280B
:104AA00000D070BD881C01F0D3F8A07A2A00210044
:104AB000FFF752FFF5E7881C01F0CAF8F1E74878E4
:104AC000FFF7D0FEEDE70000094B1B780A2B07D05B
:104AD0000B2B09D0064B0A221A70054B1878704729
:104AE000034B0B221A70F8E7014B0C221A70F4E703
:104AF0003516002070B504005D4B1B78002B04D1E7
:104B00005C4B1B78302B0BD070BD5B4B1A885B4B1A
:104B100018785B49FFF7BCFF554B00221A70F3E78A
:104B2000FFF714FE3020FFF71BFEFFF72BFEFFF709
:104B300053FE544B1B78012B2DD0022B00D18AE061
:104B40002378514DAB706378EB70A3782B71E378C9
:104B50006B7123790F210B40AB716079A3791B0234
:104B600003431B11EB71E3792B72237A19406972AD
:104B7000617AA37A1B020B431B11AB72FFF7A4FFF0
:104B8000E872424B197840232A0000200EF006FC00
:104B900003F0E2F9B8E701F043FC83783A4D2B7358
:104BA000C3786B730378AB734378EB7303792B741F
:104BB00043796B74037AAB74437AEB7483792B7506
:104BC000C3796B75837AAB75C37AEB7501F028FCFA
:104BD00083782B76C3786B760378AB764378EB7665
:104BE00003792B7743796B77037AAB77437AEB774B
:104BF00082792023EA54C2790133EA54827A01335C
:104C0000EA54C27A0133EA5401F00AFC8278242380
:104C1000EA54C2780133EA5402780133EA54427804
:104C20000133EA5402790133EA5442790133EA54F8
:104C3000027A0133EA54427A0133EA548279013329
:104C4000EA54C2790133EA54827A0133EA54C27ACF
:104C50000133EA5474E70E4D280001F033F80A4B93
:104C60000C3307CD07C307CD07C307CD07C367E7DD
:104C70008263002034160020321600208363002057
:104C8000502E002081630020102E00208063002021
:104C9000703D002010B5054B01241C70044B1870AA
:104CA000044B1A8004480BF02FFD10BD82630020D6
:104CB0008363002032160020502E002010B5024BD6
:104CC00018180BF021FD10BD102E0020502800D127
:104CD000B0E003D960282FD0FF2010E0402800D991
:104CE000AAE0202805D34B2924D88B00564AD35854
:104CF0009F46002803D0102800D09FE00020704776
:104D00009520FCE70020FAE72A39504B59187D31ED
:104D1000FF310878F3E704394C4B59187D31FF31E6
:104D20000878ECE70020EAE70020E8E76820E6E7FB
:104D30000020E4E70020E2E7A92979D88B00444A63
:104D4000D3589F46FF20DAE70220D8E70120D6E7B4
:104D50002320D4E70020D2E7B920D0E71A20CEE7FD
:104D60000120CCE70020CAE74020C8E70020C6E7C2
:104D70004020C4E70020C2E74020C0E70120BEE792
:104D80000020BCE70120BAE70020B8E70120B6E721
:104D90000020B4E73B20B2E73420B0E73B20AEE789
:104DA0003420ACE73B20AAE73420A8E73D39294B63
:104DB000585CA4E73D39274B585CA0E71A209EE7D2
:104DC0001A209CE71A209AE75E2098E7012096E7D0
:104DD000502094E7FD2092E7002090E700208EE726
:104DE000C6208CE70F208AE70F2088E7302086E76F
:104DF000612084E7AE2082E7902080E7D9207EE71B
:104E0000D4207CE714207AE7542078E7412076E725
:104E1000152074E7542072E7C72070E779206EE709
:104E20009C206CE733206AE7362068E7632066E75A
:104E3000002064E7002062E7FF2060E7FF205EE7D4
:104E400022205CE703205AE7604D0110581900202A
:104E5000904E011008630020F0B58BB006000F00E3
:104E6000150008A90F70487000248C70CC700A716E
:104E700005220E20FFF722FF00941A22002101A82C
:104E80000BF03CFC07E03919C9B23000FFF71EFFF8
:104E90006B4618550134A542F5DC2A0069461320FB
:104EA000FFF70CFF0BB0F0BD70B5002406E0281C26
:104EB0000BF0E6FAA3000F4AD0500134A0235B00A8
:104EC0009C4215D220000BF05AF9F42189050BF011
:104ED00002F98221C9050BF0DEF8051C06490BF02A
:104EE00041F90028E3D1A300024A00219950E4E7E8
:104EF00070BDC046741B00200000FEC010B5002429
:104F000005E0A3001B4AC1210906995001347F2CFA
:104F10002FD8002CF5D00F2C0FD91F2C1BD9200017
:104F20000BF02DF9F42189050BF0D5F812490BF09F
:104F3000B2F8A3000F4AD050E8E720000BF01FF9A9
:104F4000FA2189050BF0C7F80C490BF0A4F8A3006F
:104F5000084AD050DAE720000BF011F9F621890554
:104F60000BF0B9F806490BF096F8A300014AD050AF
:104F7000CCE710BD8820002000007E400000F840F3
:104F800000009E4010B500240EE020000BF0F7F862
:104F9000F42189050BF09FF88021C9050BF07BF8FF
:104FA000A300034AD05001347F2CEED910BDC04677
:104FB0008822002010B5041C0BF008F90BF0E4F86F
:104FC0008221C9050BF06CF80BF000F900280BD01A
:104FD0008221C905201C0BF063F88421C9050BF060
:104FE0007AF80BF025F910BD0020FCE710B51C1C69
:104FF000022818D0032805D0002801D0201C10BD9D
:10500000141CFBE7101C0BF04BF8041C02990BF06E
:105010009BF8002809D10399201C0BF0ABF800285D
:10502000ECD0039CEAE70C1CE8E7029CE6E710B52D
:10503000FFF73AFFFFF762FFFFF7A4FF10BD000084
:1050400070B505000C0000786B781B020343AA784A
:1050500012041343E87800061843FFF7ABFF284E0D
:105060008000805927490BF036F82070030A6370DE
:10507000030CA370000EE070287A6B7A1B020343C6
:10508000AA7A12041343E87A00061843FFF792FF46
:10509000800080591C490BF01EF82072030A6372CD
:1050A000030CA372000EE07228796B791B02034394
:1050B000AA7912041343E87900061843FFF77AFF30
:1050C0008000335823711A0A62711A0CA2711B0EE8
:1050D000E371287B6B7B1B020343AA7B12041343FF
:1050E000E87B00061843FFF765FF80003358237301
:1050F0001A0A62731A0CA2731B0EE37370BDC046CA
:10510000741B00200000A04300002043F0B5DE46E1
:1051100057464E464546E0B589B005000C00C678B6
:10512000B3091E000B700C22002105A80BF0E6FA53
:105130000C22002102A80BF0E1FA002E0CD1012E66
:1051400000D99FE0022E00D932E109B0F0BCBB4685
:10515000B246A946A046F0BDAA781209EB78012113
:10516000194009010A43DD4B984653009B189B00E8
:10517000434405AA83CB83C200239B46A278E378ED
:105180001B021343217909040B43627912061A4367
:105190006B46587D8023DB050193C02109060091F1
:1051A0005B460799FFF722FFA21CA070030A9146F5
:1051B000E370030C2371000E6071C1221206924647
:1051C000A279E3791B021343217A09040B43627A23
:1051D00012061A4306996B46187D5F46019757469B
:1051E00000975346FFF702FFA071020AE271020C1A
:1051F0002272000E6072EA789206D20E53009B185B
:105200009B00434402AA83CB83C2A27AE37A1B02A7
:105210001343217B09040B43627B12061A436B463E
:10522000587A8023DB050193C021090600915B4673
:105230000499FFF7DBFEA072020AE272020C2273ED
:10524000000E6073A27BE37B1B021343217C0904E5
:105250000B43627C12061A4303996B46187A5B462D
:10526000019353460093FFF7C1FEA073020AE27355
:10527000020C2274000E6074210012314846FFF7C0
:10528000DFFE5CE76B785B06DA0E944B98465300C2
:105290009B189B00434405AA83CB83C200239B46F3
:1052A000A278E3781B021343217909040B43627946
:1052B00012061A436B46587D8023DB050193C021FB
:1052C000090600915B460799FFF790FEA21CA070AB
:1052D000030A9146E370030C2371000E6071C12232
:1052E00012069246A279E3791B021343217A09043C
:1052F0000B43627A12061A4306996B46187D5F4685
:105300000197574600975346FFF770FEA071020AB7
:10531000E271020C2272000E60726A78D209A978DA
:105320000F230B405B0013435A00D3189B004344E8
:1053300002AA83CB83C2A27AE37A1B021343217BA6
:1053400009040B43627B12061A436B46587A80238A
:10535000DB050193C021090600915B460499FFF724
:1053600045FEA072020AE272020C2273000E607304
:10537000A27BE37B1B021343217C09040B43627C69
:1053800012061A4303996B46187A5B4601935346FB
:105390000093FFF72BFEA073020AE273020C227443
:1053A000000E6074210022314846FFF749FEC9E62D
:1053B0002A78D206D10E05AF930E5B189B00474AA0
:1053C000944663443A0043CB43C200239A46A278F2
:1053D000E3781B021343217909040B436279120617
:1053E0001A4378788023DB059B460193C0231B0674
:1053F000009353460799FFF7F9FDA21C9046A07051
:10540000030AE370030C2371000E6071C1221206BF
:105410009146A279E3791B021343217A09040B43D5
:10542000627A12061A4306993878574601974F4612
:1054300000974B46FFF7DAFDA071020AE271020CF9
:105440002272000E60722A785209697803230B4099
:10545000DB00134302AD5A00D3189B001F4AD61835
:105460002A0083CE83C2A27AE37A1B021343217BF4
:1054700009040B43627B12061A436878594601916E
:10548000C0231B06009353460499FFF7AFFDA0729B
:10549000020AE272020C2273000E6073A27BE37BAD
:1054A0001B021343217C09040B43627C12061A433E
:1054B00003992878534601934B460093FFF796FDD6
:1054C000A073020AE273020C2274000E60742100C1
:1054D00032314046FFF7B4FD37E6C046385101107F
:1054E00070B50200C3789B090B700478A40840785B
:1054F000012303409B0123431A4D9B00881CEB585A
:105500008B701C0A44701C0C84701B0EC370937843
:105510005B06DB0DEB588B721D0ACD721D0C0D73F3
:105520001B0E4B7353785B080F4C9B00E3588B7139
:105530001E0ACE711E0C0E721B0E4B729578ED0971
:10554000D2783F2313405B002B439B00E3588B73BF
:105550001C0ACC731C0C0C741B0E4B741231FFF71D
:105560006FFD70BD8822002088200020F0B5DE4647
:1055700057464E464546E0B589B005000C000C2262
:10558000002105A80BF0BAF80C22002102A80BF0AC
:10559000B5F8EE78B3091E1E23706ED02B78DB07AA
:1055A00000D473E02B785B089B00B649CB58A370FE
:1055B000190AE170190C21711B0E6371A978C909D0
:1055C000EA783F2313405B000B439B00AE49CB5866
:1055D000A371190AE171190C21721B0E6372AA786A
:1055E0005206D20E02AB994653009A189200A74B6E
:1055F0009B184A4683CB83C200239846A27AE37A5B
:105600001B021343217B09040B43627B12061A43DE
:105610004B4658788023DB050193C0231B0600937B
:10562000434649468968FFF7E1FCA072020AE2722C
:10563000020C2273000E6073C1231B06A27BE17B68
:1056400009021143207C00040143627C12060A43D4
:105650004946496848460078474601970093FFF756
:10566000C5FCA073020AE273020C2274000E60747F
:10567000A01C21001231FFF7E3FC012E6DD809B008
:10568000F0BCBB46B246A946A046F0BD2B785B08ED
:105690009B007C4AD358A372190AE172190C21733A
:1056A0001B0E6373A978C909EA783F2313405B0096
:1056B0000B439B00744AD358A373190AE173190C66
:1056C00021741B0E6374AA785206D20E05AB99465C
:1056D00053009A1892006D4B9B184A4683CB83C2A5
:1056E00000239846A278E3781B021343217909042A
:1056F0000B43627912061A434B4658788023DB0528
:105700000193C0231B060093434649468968FFF76F
:105710006DFCA070020AE270020C2271000E607132
:10572000C1231B06A279E17909021143207A000402
:105730000143627A12060A4349464968484600789E
:10574000474601970093FFF751FCA071020AE271EE
:10575000020C2272000E60728AE76A78D206D10EBD
:1057600005AF930E5B189B00484A944663443A0089
:1057700043CB43C200239A46A278E3781B0213432B
:10578000217909040B43627912061A437878802341
:10579000DB059B460193C0231B06009353460799E4
:1057A000FFF724FCA21C9046A070030AE370030CD0
:1057B0002371000E6071C12212069146A279E3792D
:1057C0001B021343217A09040B43627A12061A431F
:1057D00006993878574601974F4600974B46FFF792
:1057E00005FCA071020AE271020C2272000E6072C6
:1057F0006A785209A97803230B40DB00134302ADFA
:105800005A00D3189B00214AD6182A0083CE83C29F
:10581000A27AE37A1B021343217B09040B43627BC8
:1058200012061A43687859460191C0231B0600935B
:1058300053460499FFF7DAFBA072020AE272020CE7
:105840002273000E6073A27BE37B1B021343217C57
:1058500009040B43627C12061A43039928785346C5
:1058600001934B460093FFF7C1FBA073020AE2735A
:10587000020C2274000E6074210022314046FFF7B2
:10588000DFFBFCE688220020882000203851011030
:10589000F0B5DE4657464E464546E0B589B00500B0
:1058A0000C000C22002105A80AF028FF0C22002180
:1058B00002A80AF023FFEE78B3091E1E23701AD047
:1058C0002B78DA0735D55B0721D5A978C909EA789D
:1058D0003F2313405B000B439B00BC49CB58A37094
:1058E000190AE170190C21711B0E6371A01C2100B3
:1058F0001231FFF7A5FB012E41D8022E00D9D4E0CA
:1059000009B0F0BCBB46B246A946A046F0BDA97896
:10591000C909EA783F2313405B000B439B00AC4965
:10592000CB58A371190AE171190C21721B0E637215
:10593000DCE75B0711D5A978C909EA783F23134052
:105940005B000B439B00A14AD358A372190AE17272
:10595000190C21731B0E6373C8E7A978C909EA788B
:105960003F2313405B000B439B00994AD358A3731A
:10597000190AE173190C21741B0E6374B6E76A7877
:105980005209AB7803211940C9000A43914B98464C
:1059900053009B189B00434405AA83CB83C200237A
:1059A0009B46A278E3781B021343217909040B4339
:1059B000627912061A436B46587D8023DB050193FA
:1059C000C021090600915B460799FFF70FFBA21C57
:1059D000A070030A9146E370030C2371000E6071FE
:1059E000C12212069246A279E3791B021343217A5F
:1059F00009040B43627A12061A4306996B46187D16
:105A00005F460197574600975346FFF7EFFAA0719C
:105A1000020AE271020C2272000E6072AA7852062B
:105A2000D20E53009B189B00434402AA83CB83C22F
:105A3000A27AE37A1B021343217B09040B43627BA6
:105A400012061A436B46587A8023DB050193C02166
:105A5000090600915B460499FFF7C8FAA072020A92
:105A6000E272020C2273000E6073A27BE37B1B02C6
:105A70001343217C09040B43627C12061A430399E9
:105A80006B46187A5B46019353460093FFF7AEFAD4
:105A9000A073020AE273020C2274000E60742100EB
:105AA00022314846FFF7CCFA27E72A78D20805AF1B
:105AB00053009B189B00474A944663443A0043CBEB
:105AC00043C200239A46A278E3781B02134321794C
:105AD00009040B43627912061A4378788023DB05A8
