:020000041000EA
:1000000000B5324B212058609868022188439860DF
:10001000D860186158612E4B002199600221596106
:100020000121F02299502B49196001219960352056
:1000300000F044F80222904214D00621196600F024
:1000400034F8196E01211966002018661A6600F04E
:100050002CF8196E196E196E052000F02FF8012189
:100060000842F9D1002199601B49196000215960AB
:100070001A491B48016001219960EB211966A021F2
:10008000196600F012F800219960164914480160C1
:100090000121996001BC002800D000471248134993
:1000A000086003C880F30888084703B5996A0420EC
:1000B0000142FBD001200142F8D103BD02B5186610
:1000C0001866FFF7F2FF186E186E02BD00000240BE
:1000D000000000180000070000035F00212200005C
:1000E000F4000018222000A00001001008ED00E03C
:1000F00000000000000000000000000074B24E7A12
:1001000000200420F7010010C3010010C5010010F9
:10011000C1010010C1010010C1010010C101001097
:10012000C1010010C1010010C1010010C701001081
:10013000C1010010C1010010C9010010CB01001065
:10014000CD010010CD010010CD010010CD01001037
:10015000CD010010CD010010CD010010CD01001027
:10016000CD010010CD010010CD010010CD01001017
:10017000CD010010CD010010CD010010CD01001007
:10018000CD010010CD010010CD010010CD010010F7
:10019000CD010010CD010010CD010010CD010010E7
:1001A000CD010010CD010010CD010010CD010010D7
:1001B000CD010010CD010010CD010010CD010010C7
:1001C00000BE00BE00BE00BE00BE00BEEFF3058054
:1001D000103800BEF2EB88713054011050540110F9
:1001E0003402001090A31AE700201F49086006C8D7
:1001F00081F3088810471D48006800282FD10DA4FE
:100200000ECC002902D000F012F8F9E71849194A7B
:10021000002000E001C19142FCD1174988471749ED
:1002200088471749884700BEFDE701C901C29A42C5
:10023000FBD3704750540110C000002090160020DE
:10024000206A01100000042000000420206A011030
:10025000001004200010042000000000704709482E
:100260000CF02CFC0047000008ED00E0000000D07E
:10027000B0160020BC33002045B800100D08001057
:1002800001B800105756000006005250ABB360533F
:10029000684A011006005250861C0302784A011079
:1002A000060052505422A29D8C4A01100500525063
:1002B000DE65F468206A0110F8B5C04610B5064C3A
:1002C0002378002B07D1054B002B02D0044800E017
:1002D00000BF0123237010BDB019002000000000F2
:1002E000E8230110044B10B5002B03D00349044848
:1002F00000E000BF10BDC04600000000B41900209F
:10030000E823011070B500290AD001248440D025CB
:100310002D06AC620022002109F0F4FA6C6170BD78
:1003200001248440D0252D066C620022002109F0B2
:10033000E9FAAC61F3E7000010B504004378DB078D
:1003400013D463781022110019401A4203D0124BC3
:100350001B78002B0FD0002903D10F4B1B78002BEB
:1003600011D10A200AF030FC10BD0022002100202B
:100370000BF00AFAE5E7084B0F3A1A7000210E203D
:10038000FFF7C0FFEDE701310E20FFF7BBFF024B87
:1003900000221A70E5E7C046AF33002070B5002890
:1003A0000ED0D024240680252D05656164200AF036
:1003B0000BFC0223636164200AF006FCA56170BD9A
:1003C000D024240680252D05656164200AF0FCFBFD
:1003D0000223A36164200AF0F7FBA561EFE710B5E3
:1003E000002804D001210E20FFF78CFF10BD002152
:1003F0000E20FFF787FFF9E710B5002001F00FF995
:100400000F2001F00CF9062001F0FAF8082001F0A5
:10041000F7F80B2001F0F4F80C2001F0F1F80D20B2
:1004200001F0DEF80A2001F0DBF8072001F0D8F82F
:10043000092001F0D5F8184918480FF021F90121D9
:10044000122009F047FA0121132009F043FA012193
:10045000142009F03FFA102009F06EFAD024240687
:1004600080235B0263626361162009F065FA8023D2
:10047000DB0363626361112009F05EFA80239B0253
:1004800063626361192009F057FA80239B04636259
:10049000636100F0E1FC10BDC0C62D0000C0034048
:1004A000F8B5DE4657464E464546E0B50400D02630
:1004B000360680239B019846B361052000210AF08F
:1004C00057FB7368DB0A01252B405A425341012731
:1004D0003B401B01227810218A4313432370736829
:1004E0001B0B2B405A4253413B405B01227820209A
:1004F00082431343237073689B092B405A42534134
:100500003B409B01227830318A4313432370736848
:100510001B0A2B405A425341DB0122783F310A40EB
:1005200013432370434673618023DB009B46B36112
:10053000052000210AF01CFB73681B0B2B405A425C
:1005400053413B409B002278042189468A43134350
:1005500023707368DB0A2B405A4253413B40DB0057
:100560002278043188468A431343237073681B0A38
:100570002B405A4253413B405B00227806398A4661
:100580008A431343237073689B092B405A4253419B
:100590003B402278AA43134323705B467361802358
:1005A0009B46B361052000210AF0E2FA73689B09BB
:1005B0002B405A4253413B401B01627810218A4331
:1005C0001343637073681B0A2B405A4253413B40EC
:1005D0005B00A278504682431343A37073681B0BE1
:1005E0002B405A4253413B40A278AA431343A37085
:1005F0007368DB0A2B405A4253413B405B016278EF
:100600001E308243134363705B4673618133FF3353
:100610009B46B361052000210AF0AAFA73681B0A01
:100620002B405A4253413B409B00627848468243EC
:100630001343637073681B0B2B405A4253413B407A
:100640006278AA431343637073689B092B405A4234
:1006500053413B405B0062785046824313436370D2
:100660007368DB0A2B405A4253413B40DB006278FF
:1006700040468243134363705B46736173682B404B
:100680005A425341DB016278773002401343637072
:100690007368DB0B2B405A4253413B409B0162780D
:1006A0003F3882431343637073689B081D406B425D
:1006B0005D413D40AD00A3784A4693431D43A5707C
:1006C00062783F23100098430300C03B59424B41DE
:1006D0001F40FF00EBB2404683431F43A770D20682
:1006E000D20F1201FBB210218B431A43A270F0BC4F
:1006F000BB46B246A946A046F8BD0000F0B5D646B6
:100700004F464646C0B584B0040003AF3B4B1A8841
:100710003A800023BB7002AE3280B37001AD2A80F4
:10072000AB7069460A808B70D0231B0698468023E5
:100730005B02994643464A469A61314B9A460323E7
:100740003A00D021504611F0AFFD43464A465A6167
:100750009A6103233200F021504611F0A5FD434673
:100760004A465A618023DB03994643464A469A61CA
:1007700003236A46F021504611F096FD43464A464F
:100780005A619A6103232A00D021504611F08CFD52
:1007900043464A465A613B785B027A785200E02130
:1007A00009010B401343BA78D2091343236032780E
:1007B000520273785B000A401A43B378DB091A438C
:1007C00062602A7852026B785B000A401A43AB7869
:1007D000DB091A43A2606B461B785B026A465278BB
:1007E00052000B4013436A469278D2091343E360E8
:1007F00004B0E0BCBA46B146A846F0BDE8230110FB
:1008000000C0034010B500F03CFA10BD10B584B034
:100810000EF020F864200AF0D7F9FFF7EDFD0E2066
:1008200009F08AF80020FFF7DAFD1B2009F084F8B0
:10083000D024240680231B056362A361012009F0F4
:100840007BF802236362A361022009F075F8042398
:10085000A36200220121022009F054F80C22002199
:1008600001A80DF095FE01A8FFF71AFE124B9B8818
:100870006A46138063685B0703D401AB5B78DB07D0
:1008800013D401AB5B785B0709D5D0231B065B68EB
:100890005B0704D402236A4613700533537068461D
:1008A00000F0A0FD002004B010BD04480CF006F9D3
:1008B0000300002108009847E8230110554200007A
:1008C000F0B5CE46474680B589B00400102200211D
:1008D00004A80DF05DFE002160680DF087FC002883
:1008E00005D00021E0680DF081FC002863D17B4B2E
:1008F0001B78002B70D126687949301C0DF094FCD0
:10090000002800D0764E26607649301C0DF076FC2B
:10091000002800D0734E2660A5687149281C0DF090
:1009200083FC002800D06E4DA5606E49281C0DF098
:1009300065FC002800D06B4DA560311C6A480DF0A5
:100940000EFC8146291C68480DF009FC8046674B67
:100950001E6848460DF0C6FC80B2B3009B199B0090
:10096000634A94466344186123680493614B1D688D
:1009700040460DF0B7FC80B2AB005B199B005C4AAF
:10098000944663441861A368069367680021381C85
:100990000DF04AFC00282CD05749381C0DF02EFCD5
:1009A000002800D0544F5549381C0DF03DFC00285C
:1009B00020D0524F1EE0524B0593079303AA514B90
:1009C00013800023009302335A214F480FF04AF856
:1009D000424B01221A7078E003AA4C4B1380002589
:1009E000009502235A2148480FF03CF83B4B1D70FC
:1009F00081E70027E5680021281C0DF015FC002880
:100A00000ED03D49281C0DF0F9FB002800D03A4DCE
:100A10003A49281C0DF008FC002802D0374D00E0B0
:100A200000254946381C0DF0B0FB041C4146281C2B
:100A30000DF0ABFB051C201C0DF054FC83B2B20082
:100A40009219920032498C466244106843401B045C
:100A50001B0C802149010A4313600594254B1F6834
:100A6000281C0DF03FFC0600281C0DF03BFC80B25A
:100A7000BB00DB199B00264A94466344002E29D014
:100A800010229040002E27D0224A1968484010407A
:100A900080225201134318600794144B19688B008D
:100AA0005B189B0012498C466344186801210C00B6
:100AB000844313431C600F4B186883001B189B0072
:100AC0006344186881431343196009B0C0BCB94638
:100AD000B046F0BD3200D4E70F4AD6E7AE3300206F
:100AE0000080A244000020420024F4492433002066
:100AF0000000054028330020CDCC4C3E6666663FA2
:100B0000000080BF0140000020160020010300000B
:100B10000C0005400000FFFFFFFF000010B5FFF7CD
:100B2000CFFE10BD10B5134B1B78002B21D1114BFC
:100B300001221A7000240EE00F48104BC360A2007F
:100B40000F4BD3588360FFF7BBFE0AF0CBFD962016
:100B50000AF03AF801341A2CEEDD96200AF034F847
:100B600005480023C3604360FFF7AAFE014B002243
:100B70001A7010BDB6330020F03000206666663F64
:100B80005812002030B589B0314B1B78002B01D0B2
:100B900009B030BD64200AF017F801242C4B1C70FA
:100BA000152008F0C9FE0421152008F093FE182036
:100BB00008F0C2FED0231B06802252049A62254B05
:100BC00002221A60244B02321A60244BFA2292004D
:100BD000DA625A6507AA1480214C00250095022389
:100BE0005A2120000EF03EFF06AA1E4B13800095EE
:100BF00002235A2120000EF035FF0A2009F0E4FFFD
:100C000005AA194B1380009502235A2120000EF0EB
:100C100029FF0A2009F0D8FF04AA144B138000957D
:100C200002235A2120000EF01DFF03AA104B13804F
:100C3000009502235A2120000EF014FF02AA0D4B4A
:100C40001380009502235A2120000EF00BFF9FE72E
:100C5000B533002028330020243300200000054055
:100C6000201600201AF6FFFF1D81FFFF1719000054
:100C7000014000000103000010B5FFF753FF012001
:100C800010BD70470902084300B2704770B582B0CA
:100C9000D02424068025AD02A5616B4618715971D8
:100CA0000B4E022201A9300011F04EFB65610220BB
:100CB00009F08AFF8025AD04A561022201A9300058
:100CC00011F042FB6561022009F07EFF02B070BDA9
:100CD00000C00340F0B5DE4657464E464546E0B5F7
:100CE00085B006000D0001AC00230193082200210D
:100CF00002A80DF04DFC03236B449A46A2235246F2
:100D00001370D0231B0698468027BF029F61514B6A
:100D1000994601225146180011F016FB0C232200BF
:100D20000021484611F0C0FA43465F61617820789F
:100D3000FFF7A8FF80B2404283B2FF273840B0716E
:100D40001B0AF371E178A078FFF79CFF83B238406B
:100D500030721B0A737261792079FFF793FF83B2B7
:100D60003840B0721B0AF372E179A079FFF78AFF6D
:100D700080B2404283B2384030701B0A7370617A8F
:100D8000207AFFF77FFF83B23840B0701B0AF37000
:100D9000E17AA07AFFF776FF83B2384030711B0A00
:100DA000737180239B049B4643465A469A610122F5
:100DB0005146484611F0C8FA0C232200002148464B
:100DC00011F072FA43465A465A6161782078FFF76B
:100DD00059FF83B23840A8711B0AEB71E178A07803
:100DE000FFF750FF80B2404283B2384028721B0A9E
:100DF0006B7261792079FFF745FF83B23840A872A2
:100E00001B0AEB72E179A079FFF73CFF83B238400F
:100E100028701B0A6B70617A207AFFF733FF80B26B
:100E2000404283B23840A8701B0AEB70E17AA07A86
:100E3000FFF728FF83B2384028711B0A6B7101232A
:100E400033732B7305B0F0BCBB46B246A946A0462F
:100E5000F0BDC04600C0034010B58C211020FFF744
:100E600015FF8C211120FFF711FF04211220FFF73D
:100E70000DFF06211320FFF709FF06211520FFF7BC
:100E800005FFE0211720FFF701FF10BDF0B5C646B2
:100E900000B5040004282DD005282FD0032803D046
:100EA000002080BCB846F0BD0527042398462000EA
:100EB00008F042FD01263300A340D0252D06AB6289
:100EC00000220121200008F01DFD404608F034FDFD
:100ED0003300424693406B62AB61380008F02CFD52
:100EE0003300BB406B62AB616B68E3401E4209D0CC
:100EF0000120D6E7052703239846D8E703270423D4
:100F00009846D4E70020CCE710B50320FFF7BEFFDA
:100F100010BD10B50520FFF7B9FF10BD10B50420B6
:100F2000FFF7B4FF10BD10B501210E20FFF7EAF95D
:100F30009620800009F048FE08F002F9002800D150
:100F400010BD0120FCE710B501F076FD10BD0000DA
:100F5000F0B5C64600B584B0142339E001330B2B3D
:100F600005D801AAD25C002AF8D00125F6E718209E
:100F700009F02AFE304BDB685B07FBD5D02636062E
:100F80008027BF04B7612C4B984601226B46D91CC1
:100F9000404611F0D9F90C2301AA0021404611F076
:100FA00083F977610C283ED10023002100E0013352
:100FB0000B2B05D801AAD25C002AF8D00121F6E754
:100FC000002901D0002D31D1182009F0FDFD2300AA
:100FD0005C1E002B29D0002301930822002102A8C7
:100FE0000DF0D6FA6B46A222DA70134BDB685B0772
:100FF000FBD5D0252D068026B602AE610E4F01220C
:101000006B46D91C380011F09FF90C2301AA00216E
:10101000380011F049F96E610C2802D10023002537
:101020009DE7002502E0002500E00025280004B02F
:1010300080BCB846F0BDC04600C0034070B584B067
:1010400003A9494B1A880A8000238B7002A90A80E1
:101050008B7001A90A808B7069460A808B700A2404
:101060002300013C002B74D0D0231B0680225202A7
:101070009A613E4BDB685B07FBD5032303AAD021B3
:101080003A4811F011F9032866D1D0231B068022BB
:1010900052025A619A61354BDB685B07FBD503232B
:1010A00002AAF021314811F0FFF8032856D1D023CD
:1010B0001B06802252025A618022D2039A612B4B76
:1010C000DB685B07FBD503236A46F021274811F054
:1010D000EBF8032844D1D0231B068022D2035A61A7
:1010E0009A61224BDB685B07FBD5032301AAD02161
:1010F0001E4811F0D9F8032834D1D0231B068022D2
:10110000D2035A610023002000260025002100E0C0
:101110000133022B14D803AAD25C002A00D001218B
:1011200001AAD25C002A00D0012602AAD25C002AC1
:1011300000D001256A46D25C002AE9D00120E7E709
:1011400000298DD0002D8BD0002E89D0002887D08B
:1011500000E0002004B070BD0020FBE70020F9E7AC
:101160000020F7E70020F5E7F023011000C003405E
:1011700010B5FFF781FD10BD0120704770B582B03A
:10118000FFF75CFF01AC0126012528400301207810
:101190001022904318432070FFF7D5FEC301227838
:1011A0007F20104018432070FFF7BDFE28408301C8
:1011B00020784022904318432070FFF7AFFE28406C
:1011C000830020780422904318432070FFF79CFE90
:1011D00003002B402078B04318432070FFF799FE9E
:1011E0002840430020780222904318432070FFF7E4
:1011F000C3FF2840C3002078082290431843207082
:10120000FFF7A6FE28404301207820229043184390
:101210002070FFF7ADFF05406078B043054365706F
:10122000208802B070BD000010B5041C03480460A3
:1012300041608260C360FFF771FC10BDE0300020A8
:101240007047704710B512E00C4B9A6A0C4B1A604D
:101250000C4811F031F800F02BFC094C206805F027
:10126000C1FC206803F042FE2068FFF7EAFF064950
:10127000044811F051F80028E6D1ECE700400540A1
:10128000141F00205016002010240020014B0020C5
:1012900018567047C812002010B5002803D1074B1C
:1012A00000221A7010BD0120FFF778F80120FFF727
:1012B00096F8024B01221A70F4E7C04676330020FC
:1012C00010B50020FFF78BF80020FFF767F8002229
:1012D000002100200AF058FA10BD000010B5064B9E
:1012E0001B78002B00D010BD034B01221A70002088
:1012F00001F0E0FAF7E7C0469B33002010B52D4B14
:101300001B78002B30D02C492C4811F005F8002810
:1013100032D12B48FFF7C4F82A4B1B78002B33D16E
:1013200004F0F8F8284C2068254905F0AFFC206847
:1013300001F04AFB07F0AEF900282FD0224C2068BC
:10134000224904F0A3FB20680022214907F0F4F9A8
:10135000204B1B785BB2012B27D00AF0C3F91A4B44
:101360001868FFF74FFA10BD00211B480AF000FA79
:10137000104B01221A70C6E7184B9A6A124B1A607A
:101380000E4810F099FFC4E70D48FEF7D5FF0AF0AC
:10139000A9F90D4B186801F017FBE4E70A4B186830
:1013A0000B4A0F4900F0B6FCD2E7074B186801F072
:1013B000C1FCD2E7A43300200C24002050160020EA
:1013C000181A002076330020141F0020E019002096
:1013D000001A0020C81200204C1D000000400540EB
:1013E000301A002070B582B0051E00D1D2E001F0A5
:1013F000E2FC0400FFF700F8674968480EF006FBBE
:1014000003211C2008F066FA03211D2008F062FA6F
:101410006348FFF745F800F0A7FB002833D0604E83
:10142000604B0193604B00933300604A6049614810
:1014300005F0CAF9B378DB062AD4FFF7A3FB02F064
:10144000D5FBE3B2012B29D0022B2CD001242C5741
:10145000631C2FD00022AA56574B1A70504B1B7892
:101460009A062BD45A063BD4DA063BD45AB2002A49
:101470003ADB5A073AD40A221A40022A38D01B070C
:101480001DD503241BE032214C4801F001FAC6E7C8
:10149000062200214A480DF07BF8CEE7464B022297
:1014A0001A700024DAE723041B0F434A1370240543
:1014B000240FD3E7434B02241C57CBE70624414AB1
:1014C000E2235B00D65C3C4B1B785BB2013311D04E
:1014D0006425E3B2062B40D8A3003B4AD3589F466D
:1014E0000124ECE70024EAE70224E8E70524E6E724
:1014F0000424E4E701F0B0FB002804D12E4B0222C3
:101500001A704625E5E7642001F056FB2A4B0122BC
:101510001A706425DDE72D48322101F0B9F9290060
:10152000300001F0D9F9244B00215956200000F079
:1015300001FC1B4B9B789B0727D41B4A18492000B2
:1015400003F090FE0DF092FB21480DF07DFBFFF7BC
:10155000D5FEFCE7FF200006DEE71E48DCE7FF20A3
:101560000002D9E7144B00221A70FF20000419254D
:10157000D2E7114B00221A7017480F25CCE70E4B0B
:1015800000221A7015481925C6E70E4B9C7000F012
:10159000E5FAD2E702B070BD400D0300201600202E
:1015A000181A0020241A0020301A0020E019002008
:1015B000001A0020F0190020C81200200000FF4D82
:1015C0002C190020B0170020F423011000F115FFA2
:1015D0004512001000A1A1A100FF61000000FFE67C
:1015E00010B5040008F0A8F900220121200008F03D
:1015F00089F90123A340D02212065362536110BD22
:1016000010B5040008F098F900220121200008F02C
:1016100079F90123A340D0221206936210BD10B5C0
:10162000040008F089F900220121200008F06AF97D
:101630000123A340D0221206936210BD094ABD23A4
:101640005B00D35C1A1C312B00D83222054BBD2124
:1016500049005A54DA787A39FF398A43DA709B2282
:101660001A727047B017002070B5050014006A4B5D
:101670001380012900D070BD0223C3569370D01C83
:10168000E91C06220CF08AFFEB68E3602B692361FA
:101690006B696361AB69A36120001C3029001C31B8
:1016A00020220CF07BFF20003C3029003C3120221E
:1016B0000CF074FF20005C3029005C3120220CF01B
:1016C0006DFF20007C3029007C3120220CF066FF69
:1016D00020009C3029009C3106220CF05FFF200086
:1016E000A2302900A23106220CF058FF2000A830B9
:1016F0002900A83130220CF051FF20002930FF30A2
:101700002900D83110220CF049FF20003930FF3079
:101710002900E83110220CF041FF20004930FF3051
:101720002900F83110220CF039FF20005930FF3029
:1017300029000931FF3110220CF030FF2000693000
:10174000FF3029001931FF3110220CF027FF9423BC
:101750005B00EA5C5033E2542A23FF33EA5C7A23CD
:10176000FF33E2544F3BEA5C5033E2542C23FF3307
:10177000EA5C7C23FF33E25420007D30FF302900F7
:101780002D31FF3106220CF009FF20008530FF309B
:1017900029003531FF3120220CF000FF2000A53058
:1017A000FF3029005531FF3120220CF0F7FEBA231B
:1017B0005B00EA5C5033E2542000C930FF3029005E
:1017C0007931FF3118220CF0E9FEC8235B00EA5C96
:1017D0005033E2544E3BEA5A5033E2524E3BEA5AFF
:1017E0005033E2524E3BEA5A5033E2524E3BEA5AF1
:1017F0005033E2524E3BEA5A5033E2524E3BEA5AE1
:101800005033E2524E3BEA5A5033E2524E3BEA5AD0
:101810005033E2522FE7C04602A0FFFF064B98422A
:1018200004D0064B984203D1022070470120FCE708
:1018300001204042F9E7C04601A0000002A00000DC
:1018400010B512480CF0FAFF002407E0104B5B18AB
:10185000D97810480CF0F2FF0134E4B2052C0DD811
:101860000DF0D8FC2100C0B2094A1219D070002C2A
:10187000ECD1130001229043D870E7E7044B9B2280
:101880001A720A200CF08CFF10BDC0461024011003
:10189000B017002020240110F0B5DE4657464E4612
:1018A0004546E0B56F4CA544FC256D002A0000219B
:1018B00002A80CF06DFE6C4B02AA1380059B0193ED
:1018C000DB0FDB078022120113430593069B019374
:1018D000DB0FDB0713430693079B0193DB0FDB074B
:1018E00013430793089B0193DB0FDB071A4308920E
:1018F0005E4F0A975E4E0B965E4C0C945E480D90C0
:101900005E490E915E4A0F925E4B109312971396AA
:10191000149415901691179218935B4B19931A9380
:101920001B931C931D931E931F932093219380223E
:1019300002A98B5004328B5004328B5004328B50EE
:1019400004328B5004328B5004328B50FF231B0423
:101950009A46A8230A005146D1504C4B9B46AC23D3
:101960005946D1504A4B9946B0234946D150FF239E
:101970001B069846B4234146D150FF263602043355
:10198000D6500433434A02A9CA50434F04330A00D5
:10199000CF5004335146D15004334146D150043323
:1019A000D65004334946D1500433D6503B4BD8224D
:1019B00002A98B5004328B5004328B5004328B506E
:1019C000E823CF50B63B7A22FF328B5401328B543E
:1019D000173AFF3AF121490002A84252023143521C
:1019E000023142528532FF32010083522C4C2A00D0
:1019F00020000CF0D3FD002003F0FAFB012003F0DF
:101A0000F7FB032003F0F4FB042003F0F1FB0520B7
:101A100003F0EEFB20009C30062200210CF0B8FD04
:101A20002000A230062200210CF0B2FDFFF708FFD3
:101A3000E4235B005246E25004335A46E25004333A
:101A40004A46E25004334246E2500433E65004333F
:101A5000E75081239B009D44F0BCBB46B246A9469B
:101A6000A046F0BDFCFDFFFF02A0FFFF00003442D6
:101A70000000B4420000074300003443000061430B
:101A80000000874300809D43000016440000FF4D86
:101A90000000FFE600F115FF00FF610000A1A1A119
:101AA000B0170020014B18787047C046B2330020B1
:101AB00070B5204CA544204B1B78002B03D180230C
:101AC0005B019D4470BD0DF0E9F8EFF3108672B62E
:101AD0001A4B1B78002B24D1194C00230093194A70
:101AE000002101A80CF054FDFC2252001649684662
:101AF0000CF054FD80256D012900200010F014FC2D
:101B00002A006946200010F0EFFB86F310880DF0E4
:101B1000CFF80E4B1B78002B06D1074B00221A7012
:101B2000CDE796246403D8E706F06EFE074B00224B
:101B30001A70F2E700F0FFFF99330020B233002063
:101B400000D01200FC0F0000B0170020A5330020C9
:101B5000014B01221A707047A5330020014B01226E
:101B60001A7070479933002070B5394B1888394B7B
:101B70001D88FFF753FE04002800FFF74FFE050005
:101B8000631C0BD0022C0FD0022D0DD0012C2CDDAC
:101B9000012D2ADD0023002200262CE0431CF1D178
:101BA00000230022012626E0022C05D0022D0FD0B2
:101BB0000023002200261EE0FC2252002449264871
:101BC0000CF0ECFC254B00221A700023002612E0DA
:101BD000FC2252001F4920480CF0E0FC1F4B012260
:101BE0001A7000230022002605E00123012C15DDD8
:101BF000DBB201220026002E12D1002A23D0002BB6
:101C000018D1164B01221A70134A21001048FFF711
:101C10002BFD0020FFF7A2FF300070BD0023E7E797
:101C20000E4B00221A70FFF737FE0020FFF796FFD9
:101C30000026F1E7094B00221A70074A29000548DF
:101C4000FFF712FDE5E7FFF7F9FC0126E4E7C046E0
:101C500000D0121000C01210B0170020B2330020C4
:101C600010B5031C642800D9642303497A22FF328B
:101C70008B54FEF787FF10BDB017002010B5022867
:101C800017D008D800280DD001280FD10B4AF22315
:101C90005B00D1520AE0032808D1084AF4235B0014
:101CA000D15203E0054AF1235B00D15204F01EFA41
:101CB00010BD024AF3235B00D152F7E7B0170020B2
:101CC00030B50F4C40004508E068C00FC0072843FE
:101CD000E060490048082169C90FC9070143216133
:101CE000520051086269D20FD2070A4362615B0059
:101CF0005A08A369DB0FDB071343A36130BDC0465D
:101D0000B0170020062800DD0020014B98707047B6
:101D1000B017002010B5034B1B68002B00D098476C
:101D200010BDC046E01C0020014B00201856704733
:101D30008333002010B588B00400284B18700229A6
:101D400010D00C22002105A80CF022FC102200214A
:101D500001A80CF01DFCE3B2062B0BD8A400204B0D
:101D60001B599F461F4B204A1A6007F07BFA002838
:101D7000E7D005E01B4B1D4A1A60002001F0E6F891
:101D800008B010BD174B194A1A60062001F0DEF8A2
:101D9000F6E7144B154A1A60012001F0D7F8EFE777
:101DA000104B124A1A60022001F0D0F8E8E70D4B00
:101DB0000F4A1A6001AA05A90020FFF7ABFFDFE771
:101DC000084B0C4A1A6001AA05A90020FFF7A2FFE0
:101DD000D6E7044B084A1A60D2E7C0468333002096
:101DE00048240110E01C002015950010FD2F001064
:101DF000DD7500101D7E001069830010F0B5C64629
:101E000000B590B004000D0016001F0016AB1B7843
:101E10009846494B984200D188E00721380007F0E6
:101E200059FD012300933A00290020000DF0DEFA4D
:101E30001022002108A80CF0ABFB80235B02089362
:101E4000F8235B0209938023DB020A93C0231B0360
:101E50000A93102208A904A80CF0A0FBF31C059A11
:101E6000039236491140F20111431B0319430591B6
:101E7000079B0393DB00DB08802292051343079343
:101E80002F4B19400591102204A90CA80CF086FBD9
:101E90000F9B03932B4A1A40BF0217430F974346E9
:101EA000002B45D020220E9B039327491940802305
:101EB0009B020B435206F82189050A4013430E93F7
:101EC0009B009B088022D20513430E93052009F046
:101ED0006BFB1E490AF046FE0CF0ABF980460CF095
:101EE00001FA87B2002F25D038000CF0A2F9011CAE
:101EF00040460CF02AF98721C9050CF046F90CF090
:101F0000F1F9C0B200023F0407430C970CAB32005A
:101F1000290020000DF0BCFA22680123AB409A434F
:101F20001343236010B080BCB846F0BD062175E7AE
:101F30001822B8E70020E5E7000020507F00FEFFF0
:101F4000FFFFFF9FFF83FFFFFFFFF5C10050C300AE
:101F5000014B01221A7070479133002070B5254B58
:101F60001B78002B17D1244B00221A70214B013211
:101F70001A7000241F2C09D80DF04CF906210AF024
:101F8000F1FD1E4B19550134E4B2F3E71C4B00225E
:101F90001A70002428E01A4B1B78002BF9D1194B3A
:101FA0001B789A009B18FA2B00D9FA23FF221A40BB
:101FB000FF239B1A9BB2144A1380144A1380104BC0
:101FC00001221A70E5E70D4D2B5D72339B00104A1C
:101FD0009958A2000F4BD1500DF01CF906210AF0C0
:101FE000C1FD29550134E4B21F2CECD9FFF7B0FF35
:101FF00070BDC046903300207D330020F81C0020C7
:10200000ED120020EB1200206C330020683300201A
:10201000B017002058220020034B1980034B186092
:10202000034B00221A7070476A3300204C210020B5
:102030008E33002070B505000C0000880CF0F9F814
:102040001B490CF08CF81B490CF09FF80CF04AF976
:10205000C2B22B79A978C943C9B25943090A5B1A9C
:10206000DBB23F2528402D1AEDB2584380096B435F
:102070009B11DBB20818C0B2CB18DBB23F2A10D9D3
:10208000403AD2B23F2A06D81A060B061B0A0002B3
:10209000134318430AE0090600041B0208431843CF
:1020A00004E000061B04090218430843206070BDC9
:1020B00000007F4300003F43F8B5CE46474680B559
:1020C0000400234B1D78002D05D100230360C0BC04
:1020D000B946B046F8BD642DF9D08778E678B819CE
:1020E00063789846C0180CF0A9F81A490CF037F834
:1020F000814628000CF09DF817490CF030F8051CBB
:10210000011C48460CF080F80028E0D14946281C04
:102110000CF025F8051C38000CF08BF8291C0CF08D
:1021200034F80CF0DFF8A07030000CF082F8291CB5
:102130000CF02BF80CF0D6F8E07040460CF079F873
:10214000291C0CF022F80CF0CDF86070BFE7C046F7
:10215000EA12002000007F430000C842F0B5D646D6
:102160004F464646C0B504000368002B35D083783F
:102170009846C778D819667880190CF05FF8051C66
:1021800040460CF056F88046291C0BF0E8FF8246CA
:1021900038000CF04EF8071C291C0BF0E0FF8146BC
:1021A00030000CF046F8061C291C0BF0D8FF051C6B
:1021B000514640460BF0E9FF0CF094F8A0704946F8
:1021C000381C0BF0E2FF0CF08DF8E070291C301C7D
:1021D0000BF0DBFF0CF086F86070E0BCBA46B1464D
:1021E000A846F0BD30B585B01D4B1B78002B0FD134
:1021F00000241F2C09D80DF00DF8FF210AF0B2FCC5
:10220000184B19550134E4B2F3E7154B01221A704B
:1022100000241FE0134D2B5D134A1078C018FF21D6
:102220000AF078FCC9B2295502A80180FF23438037
:1022300083800023019301A9FFF7FCFE01A8FFF7AB
:102240003BFF0A4BA000019AC250C018FFF786FF5F
:102250000134E4B21F2CDDD9FFF77AFE05B030BDA2
:102260009033002008210020EB120020582200208B
:1022700000220AE0930006495958064B5B68DB03CD
:10228000FBD4044B19610132D2B21F2AF2D9704734
:102290005021002000002050F8B5DE4657464E463B
:1022A0004546E0B506000D00141C80780BF0C1FF18
:1022B0008046F0780BF0BDFF071C70780BF0B9FF7B
:1022C000061CA8780BF0B5FF8346E8780BF0B1FF49
:1022D000824668780BF0ADFF8146414658460BF0C8
:1022E00034FF211C0BF051FF41460BF033FF051C5E
:1022F000391C50460BF029FF211C0BF046FF391CFE
:102300000BF028FF071C311C48460BF01EFF211C58
:102310000BF03BFF311C0BF01DFF061C281C0BF0C3
:10232000E1FFC5B2381C0BF0DDFFC4B2301C0BF06E
:10233000D9FFC0B22D040002240628432043F0BC7C
:10234000BB46B246A946A046F8BD0000014B187036
:102350007047C04693330020082803D88300134AEF
:10236000D3589F46002000E00320C30702D4104B3F
:102370000022DA61830702D40D4B00229A614307E1
:1023800002D40B4B00225A61030702D4084B0022EF
:102390001A6170470720E8E70F20E6E70920E4E725
:1023A0000A20E2E70B20E0E70620DEE764240110C4
:1023B00058220020F8B52A4B18880BF03FFF011C6B
:1023C000FE2080050BF0CBFE041C264B1B78002B57
:1023D0000AD1254B1E78224B1B889E4215D9234BD0
:1023E000187800282FD0F8BD214B1878FFF7B4FFDC
:1023F0008022204920480CF0D1F800231A4A13709B
:10240000184A1370194A1370E3E730000BF011FFFC
:10241000211C0BF0BAFE051C00240BE0A700174995
:102420007918154838182A1CFFF736FF114BD85178
:102430000134E4B21F2CF1D901360B4B1E70FFF7AB
:1024400017FF0020CFE780220C490A480CF0A6F8BD
:10245000FFF70EFF054B01221A700120C3E7C046AB
:102460006833002091330020EF120020EC1200208E
:102470009333002050210020D82100205822002032
:10248000F0B5C64600B506000F00150098460024BA
:102490000AE0335D9B004246EA50305D8000281818
:1024A000FFF75CFE0134E4B2BC42F2D380BCB84614
:1024B000F0BD0000031C642800D96423014A137096
:1024C0007047C046EA12002030B583B005000024F2
:1024D0000CE0019501A8FFF7EFFD064BA000019A63
:1024E000C250C018FFF73AFE0134E4B21F2CF0D9F5
:1024F00003B030BD5822002010B509480388094AAE
:1025000012789B18FF2213400380074C2100FFF72D
:1025100091FD2068FFF7D8FFFFF71AFD10BDC046F8
:10252000E4120020EB1200200421002010B51A4B09
:102530001B78002B17D1194A1370174A012111700B
:10254000174A1370154C237872339B00154A98581C
:10255000FFF7BAFF2078013006210AF0DBFA21707C
:10256000FFF7F6FC10BD0E4B1B78002BEAD10E4B8B
:102570001B789A009B18FA2B00D9FA23FF221A40E5
:10258000FF239B1A9BB2094A1380094A1380044B0C
:1025900001221A70D6E7C046903300207D33002018
:1025A000EE120020B0170020EB1200206C33002048
:1025B0006833002010B50F4B1B78002B10D10E4B49
:1025C0001B68002B02D10C4B0C4A1A600A4B18688E
:1025D000FFF77AFFFFF7BCFC064B01221A7010BD13
:1025E0000020FFF771FFFFF7B3FC024B00221A70C7
:1025F000F5E7C046AD330020D02100200000FFE603
:1026000010B5164B1C78002C05D0154B1B78002BF1
:1026100017D0200010BD8022124913480BF0BEFFD6
:10262000124B1868FFF750FF114B1A88114B1A8094
:10263000FFF78EFC094B01221A70094B00221A7019
:10264000E7E7802208490C480BF0A8FFFFF780FC61
:10265000034A137801331370DBE7C0468E33002042
:10266000B73300205021002060300020D42100200A
:102670006A330020683300205822002070B50E4BCA
:102680001C78002C08D00D4B1D78002D11D0FEF7C2
:1026900017FE2C00200070BD0020FFF715FFFFF78C
:1026A00057FC074B1A88074B1A80034B01221A70FC
:1026B000F0E700F02BFAEDE78E3300209433002092
:1026C0006A3300206833002070B50C000F2803D84F
:1026D0008000294B1B589F460126284D2EE00426DA
:1026E000274D2BE00426274D28E00126264D25E026
:1026F0000126264D22E00126254D1FE00126254D0D
:102700001CE00126244D19E00126244D16E0012687
:10271000234D13E00126234D10E00126224D0DE04C
:102720000126224D0AE00126214D07E00126214D18
:1027300004E00426204D01E00426104D002A12D0AA
:1027400023001E4A31002800FFF79AFE23001C4A8E
:1027500031002800FFF794FE23001A4A31002800B8
:10276000FFF78EFE70BD2300154A31002800FFF7E9
:1027700087FEFFF7EDFBF5E7882401100C2501101B
:10278000F8240110EC240110FC240110E8240110AD
:10279000F02401100425011014250110102501104A
:1027A000E0240110E4240110F42401101825011084
:1027B000082501101C25011000250110D82100203A
:1027C000582200205021002070B50C4B196840227F
:1027D0000B480BF0E3FE00240CE0A300084DED18BD
:1027E0002800FFF769FC296800222000FFF76CFF32
:1027F0000134E4B20F2CF0D970BDC046D8220020BD
:10280000DC22002010B5024B1860FFF7DDFF10BD81
:10281000D822002010B5074B1B78002B00D010BD2C
:102820000548FFF7EFFFFFF793FB024B01221A70F9
:10283000F5E7C04690330020581800200F4AF023D7
:102840005B00D35C834209D0002B03D1E133FF331B
:102850000521D154094AF0235B00D054074AF023E4
:102860005B00D25C064B1A701523064A1380064A99
:102870001380064B00221A707047C046B017002024
:10288000EB1200206C3300206833002090330020CE
:1028900010B5054B18604908044C2000FFF7BCFB3D
:1028A000034B1C6010BDC046D4210020012600103F
:1028B0004C21002010B5054B1870054B00221A6002
:1028C0000A210448FFF7A8FB10BDC046943300203E
:1028D000482100207D26001070B582B004000D0054
:1028E000254B1B78002B0CD0244B1C700023244A52
:1028F0001370244A1370052C16D8A400224B1B59C0
:102900009F46224E224930000CF054FD0200002365
:102910000093173300213000FFF770FA164B0122A5
:102920001A70FFF7A5FCDFE71A4B1B4A1A601B4A17
:10293000F0235B00D05CFFF781FF002D15DA02B0B9
:1029400070BD144B164A1A60F1E7124B154A1A6013
:10295000EDE7104B144A1A60E9E70E4B134A1A6070
:10296000E5E70C4B124A1A60E1E7FF2D00DDFF2579
:10297000E8B2FFF79FFDE2E7923300208F3300209B
:102980009033002095330020C8240110000020500F
:10299000202501104821002015280010B017002024
:1029A000F9240010E5210010B52500102D25001098
:1029B0005D1F001010B5034B186064210520FFF760
:1029C0008BFF10BDD021002010B5144A144900F02F
:1029D000F7F9002800D110BDFFF7ECFC002803D167
:1029E000104B1B78002BF6D00F4B1B68002B0ED022
:1029F00098470028EFD000240B4B1C600B4AF023B3
:102A00005B00D05CFFF71AFF094B1C70E3E7094B32
:102A10001B68002BDFD09847DDE7C046302F002031
:102A20001A410000953300204C210020B0170020EF
:102A3000903300204821002000B587B02C4B1B7834
:102A400005AA137004AA137008F08EF902000B1E79
:102A50002CDB2848002112184B41002B2CDB002BCB
:102A60002EDB029203930123009305AA6A212248D8
:102A70000DF004F808F078F902000B1E26DB1D4863
:102A8000002112184B41002B26DB002B28DB029281
:102A9000039300230093013304AA6A2116480DF022
:102AA0000CF8002822DD012007B000BD134B144AAA
:102AB0003F21144808F0A8FE01225242124BCEE7F3
:102AC0000E4B0F4A3F210F4808F09EFE0B4B0C4A5D
:102AD0003F210C4808F098FE012252420A4BD4E7ED
:102AE000064B074A3F21074808F08EFE0020DBE72F
:102AF000D42E0110102700002016002030250110D0
:102B0000B02501104C250110FFFFFF7F10B586B0E6
:102B10000020FDF764FC00241CE0204B204A3F21EC
:102B2000204808F071FE002B28DB0292039300235B
:102B30000093023305AA6A211B480CF09FFF040092
:102B4000831C21D0431C22D0FA20800008F03CF8DE
:102B5000FEF7B6FB002C1DD105AB144A1A8008F015
:102B600003F902000B1ED8DB1148002112184B415B
:102B7000002BD8DA012252420E4BD4E7074B084A09
:102B80003F21084808F040FEFEF79AFBDCE7FEF71D
:102B900097FBD9E7FEF794FB06B010BD3025011076
:102BA000B02501104C25011020160020094100001D
:102BB00010270000FFFFFF7F00B587B0232821D832
:102BC000C0B20538C0B27F23184005AB04221A708A
:102BD000587008F0C9F802000B1E20DB18480021CD
:102BE00012184B41002B20DB002B22DB02920393B7
:102BF00000230093023305AA6A2112480CF03EFF1D
:102C000007B000BDAF235B00984200D918002838F8
:102C10000A2109F07FFFC0B21F30C0B2D3E70A4BD0
:102C20000A4A3F210A4808F0EFFD01225242094BAF
:102C3000DAE7054B054A3F21054808F0E5FDC046A7
:102C4000102700002016002030250110B0250110AB
:102C50004C250110FFFFFF7F00B587B02E4B1B787E
:102C600005AA137004AA137008F07EF802000B1E68
:102C700030DB2A48002112184B41002B30DB002B9F
:102C800032DB029203930123009305AA6A212448B0
:102C90000CF0F4FE08F068F802000B1E2ADB1F4857
:102CA000002112184B41002B2ADB002B2CDB029257
:102CB000039300230093013304AA6A2118480CF0FF
:102CC000FCFE0230012825D904AB1878C007C00FDC
:102CD00007B000BD134B144A3F21144808F094FD7F
:102CE00001225242124BCAE70E4B0F4A3F210F48B6
:102CF00008F08AFD0B4B0C4A3F210C4808F084FD7C
:102D0000012252420A4BD0E7064B074A3F210748AF
:102D100008F07AFD0120DBE7D42E01101027000017
:102D20002016002030250110B02501104C2501107F
:102D3000FFFFFF7F10B5FA21074A090200F040F8B3
:102D4000002800D110BDFFF787FF044B1870002842
:102D5000F8D1FEF7C3FAF5E7682F00207B33002097
:102D600010B500220021002008F00EFDFEE7000053
:102D7000072804D88000024B9C46604401607047DD
:102D80000C80054010B5072802D90024200010BD92
:102D90008000044B9C466044046800210520FFF736
:102DA000E7FFF3E70C80054010B501000520FFF7B1
:102DB000DFFFFFF7D5FF10B50520FFF7E3FF10BDDC
:102DC00010605368834205D9C31A013B8B4205D278
:102DD00000207047834204D2C31AF7E750600120F5
:102DE000F7E70020F5E730B51860002A0BD15C68E2
:102DF00084420BD9041B013C0025002D0BD1A142BC
:102E000009D9100030BD58600020FBE7844205D28C
:102E1000041B0025F1E758600120F3E71000F1E7FB
:102E200010B5FEF781FF022801D0024810BD02480C
:102E3000FCE7C046C8250110B826011010B50020D7
:102E40000EF0BEF910BD000010B5102106480FF0BD
:102E500073FA002800D110BD044B01221A700248F9
:102E60000FF02AFAF7E7C04658160020A2330020D8
:102E700010B5102106480FF05FFA002800D110BDF0
:102E8000044B00221A7002480FF016FAF7E7C0460A
:102E900058160020A233002070B5050064210D48AB
:102EA0000FF0F2F9041E09D10B4B22000B49280048
:102EB000FFF799FF051E08D1200070BD084B1C7854
:102EC000E4B204480FF0F8F9EEE7FFF7BDFF2C007D
:102ED000F2E7C0465816002000310020A08601000D
:102EE000A2330020037801330370044B1B785BB2DC
:102EF000022B01D0024870470248FCE7AC130020C7
:102F0000FC270110342901100C4B18600C4B98421F
:102F10000BD00C4B98420CD0FA235B00984200D0A7
:102F20007047094B01221A60FAE7074B04221A6026
:102F3000F6E7054B08221A60F2E7C046402400205D
:102F4000461000008D2000003824002010B5040039
:102F5000002001F0C5FF022C2CD0062C1DD0012C26
:102F600010D0012001F0BCFF1848FFF7CDFF184B2F
:102F7000184A1A60184B194A1A60194B1C700EF047
:102F80002BFD10BDFA204000FFF7BEFF104B154A85
:102F90001A60114B144A1A60EFE7012001F0A0FFFC
:102FA0001248FFF7B1FF0A4B114A1A600A4B0B4A4D
:102FB0001A60E2E7FA204000FFF7A6FF044B0D4A33
:102FC0001A60054B0C4A1A60D7E7C0468D200000F6
:102FD0003C240020F9840010442400203D2E0010E1
:102FE000AC130020C58F0010993600104610000069
:102FF00001970010A16D0010253B0010F8B50600E8
:103000000C0015000120002140420DF04DFC234B27
:103010009F6C234B1B68BB421CD2FB1A214A1268CF
:103020009A4202D8204B01221A70204B1968204A7C
:103030003000FFF7C5FE002802D01E4B01221A7097
:103040001D4B1B78002B0AD11C4B1B6898471A4B51
:103050001870F8BDFB1A1A4A94466344DEE7300044
:10306000FFF71AFF0028F4D00F4B1B78002BF0D08D
:10307000104B1B78002BECD0094B1F6000230A4A31
:1030800013700C4A13700C4A1370FFF7F1FE0D4BCE
:103090001B68290020009847DBE7C046000011505C
:1030A0002C2B002038240020B133002040240020A5
:1030B00060330020BA330020A333002044240020D2
:1030C000FF0700003C240020084B1B785BB2022B5A
:1030D00007D0062B07D0012B01D0054870470548C3
:1030E000FCE70548FAE70548F8E7C046AC130020BE
:1030F000D02F01104428011020290110AC380110F4
:10310000084B1B785BB2022B07D0062B07D0012B94
:1031100001D0054870470548FCE70548FAE705482F
:10312000F8E7C046AC130020902F011014280110BE
:10313000F4280110803801100020704710B5134B9F
:103140001B785BB2022B13D0062B18D0002B05D0B6
:103150000B78002B0FD1FFF777FE0CE00B78302BAC
:1031600003D0212B01D0812B05D1FFF76DFE02E0AA
:103170000B78212B00D010BDFFF766FEFBE70B7824
:10318000012BF8D1FFF760FEF5E7C046AC13002035
:1031900070B504AC25882E4C247864B2012C2DD057
:1031A000022C12D0002C00D070BD0029FCD1002AC6
:1031B000FAD11878102804D02A00190001F0ACF8D0
:1031C000F2E7981C00F0D8FDEEE70029ECD1002AC8
:1031D000EAD11A78112A05D0132AE5D11D480BF03F
:1031E0002DFBE1E75B78002B06D01B490B1C1B4A2B
:1031F0001B48FEF719F8D7E70021F7E70029D3D1DC
:10320000002AD1D11A78002ACED15A78082ACBD1F7
:10321000DA78002A02D11979002911D01B79101C03
:103220009A4200D2181CC0B20BF003F80D490AF004
:1032300096FF011C031C094A0948FDF7F5FFB3E797
:103240000020031C021C011CFDF7EEFFACE7C0468A
:10325000AC1300207C2701106666263F0000204248
:103260000000F04200007F43064B1B785BB2022B4C
:1032700003D0062B03D1044870470448FCE70448F8
:10328000FAE7C046AC130020C038011088280110AE
:10329000E42F011070B5EE2824D0002825D080003E
:1032A0001E4BC55828000EF0BDFFC0B21F2800D924
:1032B0001F20002327E05A1C194CA15C0902E25C84
:1032C0000A4344001749625202330130112BF2D9EC
:1032D000154A144B13CB13C211001A680A609B885D
:1032E0008B8019E000200023F0E70C4B19680222C4
:1032F0000E480BF053F9012007E05A1CEC5C51001A
:10330000094BCC52D3B29842F7D801304000C023C9
:103310009B001843044B1880034870BDD012002056
:10332000C0270110CC190020201D0020221D0020E4
:1033300000B591B04022694600200EF0CFF9002080
:103340000EF0E2F9064B1B785BB2002B01D011B0F6
:1033500000BD04480BF042FA684605F079FAF6E73A
:10336000AC13002094270110F0B583B005001400C1
:10337000012966D113785B069B0F012B58D0022BD5
:1033800003D0002B01D000205CE06378022B24D016
:10339000072B03D0012B19D0002053E02279637949
:1033A0001B021343042B03D0052B08D0002049E057
:1033B0002433264A210028000DF09AFB42E08D3389
:1033C000234A210028000DF093FB3BE02723214AEC
:1033D000210028000DF08CFB34E0227963791B0278
:1033E0001343072B30D11C4B1B785BB2022B0FD041
:1033F0006B469F1D194E0222310038000BF0CEF8AB
:103400003B883200083A210028000DF071FB19E0DA
:103410006B469F1D124E0222310038000BF0BEF8A1
:103420003B883200083A210028000DF061FB09E0DA
:1034300051780C480BF002FA210028000DF03CFBFB
:1034400000E0012003B0F0BD0020FBE78413002062
:10345000F0120020D4270110AC1300200C2601101C
:10346000E4260110AC270110012815D0022907D04D
:1034700000290BD1022A29D0002A29D00620704722
:10348000022A1FD0002A1FD00800F8E7022A21D004
:10349000002A21D00820F2E7022907D000290BD109
:1034A000022A1FD0002A1FD00720E8E7022A15D0E1
:1034B000002A15D00320E2E7022AE0D0002A15D026
:1034C0000020DCE70120DAE70320D8E70720D6E771
:1034D0000520D4E70020D2E70420D0E71000CEE793
:1034E0000420CCE70820CAE70620C8E70520C6E785
:1034F0000120704710B58422002102480BF048F8E3
:1035000010BDC0466428002010B50020FFF7F2FF70
:1035100010BD0000F0B5C64600B580460D008B79A1
:103520005D2B24D10B79DF00FF1ABFB21937BFB270
:10353000974221D80C780C19002605E0104A5370E8
:103540000136F6B22378E4182B79B34210D96378A8
:10355000052BF7D1210040460CF0D4FE00280DD0F9
:10356000A378DA09012AE9D0054A9370E8E7002731
:10357000380080BCB846F0BD0027F9E70027F7E720
:103580006428002030B583B0040014484078884295
:1035900006D0124A92788A420CD0012003B030BD86
:1035A0000F4A002A18D09AB20E490020FFF7C6FD34
:1035B0000120F3E70C4D9BB200932B000022002169
:1035C0000020FFF7E5FD2B00443B997840232A00BB
:1035D00020000CF00BFFE1E70120DFE7642800206A
:1035E0003D31001068280020A828002010B50CF0FC
:1035F000EDFD002803D10023002B08D110BD0CF0F5
:10360000EDFD002801D10123F6E70023F4E70B4B81
:10361000997800200CF026FF0028EFD1074CA17804
:103620000CF0BCFE22004432A178402300200CF0B4
:10363000DDFEA17800200CF0C5FEDFE76428002045
:1036400070B505000C000CF0C9FD002806D18121E1
:1036500000200CF0A3FE002803D170BD0CF0C6FDC5
:10366000F5E7231C402C00D940239CB2094E2200D0
:10367000290030000AF092FF351F697823003200DC
:1036800000200CF0B3FE697800200CF09BFEFFF7E1
:10369000ADFFE2E76828002010B5104B5C780CF015
:1036A00095FD002806D10023002B13D0002C09D152
:1036B000002010E00CF092FD002801D10123F3E777
:1036C0000023F1E7210000200CF0CCFE002803D1FC
:1036D000013000E0002010BD0020FCE7642800203D
:1036E00010B53C22002102480AF052FF10BDC0462E
:1036F000BC1D002010B50020FFF7F2FF10BD000038
:10370000F0B583B006000F001500FEF70DFB022890
:103710004CD13B79DC00E41AA4B21234A4B2AC421E
:1037200048D80023002B09D00025002D44D039783B
:1037300079184B78212B11D0002438E01A01D21AC5
:1037400092001F4882185278002A02D00133DBB25F
:10375000E8E71A01D11A89004518E6E7A9630B7852
:10376000C9183A796B1C0193AB1C009303233000FA
:103770000CF0E2FD002821D0BB79012B13D00123EE
:103780002B71BB782B70AA6BD179137A1B020B4378
:10379000EB80A97800290AD02A00303206233000B5
:1037A0000CF024FE03E0FB79EB70E8E70024200036
:1037B00003B0F0BD0024FAE70024F8E70024F6E7A0
:1037C000BC1D002070B582B005001D4C00200028F3
:1037D0000AD0002830D162788A4213D0A2788A4277
:1037E0001AD0012002B070BD0401241AA400144AAA
:1037F0001419A2788A42ECD062788A42E9D001306A
:10380000C0B2E4E70F4A002A18D0210008319AB26A
:10381000FFF794FC0120E5E7260030369BB20093C9
:10382000330000220021FFF7B3FCA1780623320009
:1038300028000CF0DBFDD5E70020D3E70120D1E71D
:10384000BC1D00203D310010F0B5C64600B582B069
:103850000600150012781F231340012B00D01FE132
:1038600028790024002C0DD0FF24002C00D01CE16E
:103870002700602318001040134239D101290BD0D2
:1038800001200EE123011B1B9B008E4FDB5D984244
:10389000EBD00134E4B2E5E7EA786B78062B06D08A
:1038A000062B00D005E1222A12D00020F9E0212ABF
:1038B000F6D123011F1BBF00824BDF19BA6B002A10
:1038C00000D1F4E01378290030000DF011F9E8E0A0
:1038D0002000FFF7C9FC02003B01DF1BBF00794B52
:1038E000DF19FB88290030000DF002F90120D8E033
:1038F000202800D0DFE06B780B2B00D9DDE09B00A7
:10390000714AD3589F46012901D00120C9E0EA78C5
:10391000A97823011B1B9B0008336A4FFF18A87965
:10392000EB791B020343181C252B00D9252080B2FC
:10393000002909D0012B16D97B1C9C46397001380F
:1039400080B20123984602E0BC46002398460090CE
:1039500063462000FFF7F0FB030043449BB2002BBB
:1039600005D100209DE0BC4600239846EFE73A00D1
:10397000290030000DF0BCF8012092E0012903D0AD
:10398000032915D001208CE0AA79EB791B0213439F
:10399000062B01D9002084E02201121B9200303254
:1039A00048498A18290030000DF0A2F8012078E07B
:1039B000EA78A97823011B1B9B0030334148C318C8
:1039C000AE79E87900023043051C062800D90625A7
:1039D000ADB2002904D0012802D91878884205D058
:1039E00000952000FFF7D4FB01205AE00133013D90
:1039F000ADB2F5E7012901D0012052E0E9782301B9
:103A00001F1BBF002F4BDF197971304B002B04D0E7
:103A1000200000E000BF002843D0290030000DF056
:103A20004BF801203DE0012901D0012039E02201BD
:103A3000171BBF00234AD219053201232900300089
:103A40000DF056F801202CE0012901D0012028E0DA
:103A50002201171BBF001B4AD2190432012329007F
:103A600030000DF045F801201BE0012903D00329A7
:103A700007D0012015E0290030000DF01DF80120CD
:103A80000FE0A97823011F1BBF000E4BDF1939710E
:103A90000F4B002B13D0200000E000BF012000E0FE
:103AA000002002B080BCB846F0BD0020F9E700203D
:103AB000F7E70020F5E70020F3E70020F1E7012019
:103AC000EFE7C046BC1D0020582801100000000090
:103AD0000000000010B50301181A8000104B1818E0
:103AE00044780CF073FB002806D10023002B13D080
:103AF000002C09D1002010E00CF070FB002801D14F
:103B00000123F3E70023F1E7210000200CF0AAFCD9
:103B1000002803D1013000E0002010BD0020FCE7A8
:103B2000BC1D002010B50020FFF7D4FF10BD000021
:103B3000F8B504000F0016001D0003011B1A9B00BE
:103B40001F4AD318597800200CF028FC002825D0F3
:103B5000002F24D02B1C242D00D924239DB2184AD9
:103B60002301191B890051180F721B1B9B0008337E
:103B7000D01801302A0031000AF010FD0135ADB235
:103B80000F4B2001021B920008329A18001B800084
:103B9000181841782B0000200CF028FCF8BD2B1CD5
:103BA000252D00D925239DB22001001B800008305F
:103BB000034B18182A0031000AF0F0FCE0E7C04679
:103BC000BC1D002010B513000A0001000020FFF703
:103BD000AFFF10BD107003120F20184050700B0182
:103BE00018435070091191707047000070B5124D64
:103BF000802424012A0021002000FFF7EBFFEA1CAB
:103C000021002000FFF7E6FFAA1D21002000FFF79A
:103C1000E1FF2A00093221002000FFF7DBFF2A0024
:103C20000C3221002000FFF7D5FF2A000F322100BF
:103C30002000FFF7CFFF70BD3C33002010B54022BD
:103C4000002102480AF0A4FC10BDC0467C230020DD
:103C5000014B18707047C0469D330020014B18730C
:103C60007047C0467C230020014B58737047C04604
:103C70007C230020074A0021535E10780649087013
:103C8000023399B21BB21380FF2B01DDFF39118083
:103C90007047C046703300207C230020024B1A7806
:103CA000024B5A707047C046A42A01107C230020A2
:103CB000064B04229A732F32DA73303A1A74013A9F
:103CC0005A74012119765A767047C0467C23002029
:103CD00010B5C4B2000A002307E019000E31044AEF
:103CE0005454013150540233DBB20D2BF5D910BDC1
:103CF0007C23002010B503007F2800D97F2080B2EC
:103D0000002B08D00AF095FA04490AF03EFA04495B
:103D10000AF020FA10BD0248FCE7C046BA6693409C
:103D20000000204210B503007F2800D97F2080B218
:103D3000002B08D00AF07DFA04490AF026FA04495B
:103D40000AF008FA10BD0248FCE7C046C5661341F8
:103D50000000A04210B503007F2800D97F2080B268
:103D6000002B05D00AF065FA02490AF0F8F910BDF7
:103D70000020FCE70000FE42F8B5CE46474680B57D
:103D80000300C1788A0937D0012A17D0022A07D048
:103D90000026371C0023994698460025002447E05A
:103DA0004178090202780A439205940D002A23D132
:103DB000A146A04625000026371C39E08078040281
:103DC0005E78320022431205140D002A67D01B785A
:103DD0009A074ED17F220240904649007E25294015
:103DE000C5090D43F201FF2414409B081C437308CE
:103DF00099460026371C1BE01C78E2073DD5640875
:103E00005A78D1007820084081469978C900082561
:103E10000D4052091543ED00254E00270022904623
:103E20005A78D20601D5002291469B789B073CD454
:103E30000021381C0AF0DAF9002803D02000FFF72F
:103E400071FF071C0021301C0AF0D0F9002803D0B4
:103E50004046FFF74FFF061C4846FFF77BFF041C58
:103E60002800FFF777FF031C321C211C381CFDF7CC
:103E7000DBF9C0BCB946B046F8BD620890465A7836
:103E8000D1007820084081469978C90008250D4066
:103E900052091543ED000026064F0024C0E7A14655
:103EA000A04625000026371CC2E70025C0E7C04613
:103EB000000020430000A0430A4B01221A70002298
:103EC0005A7003329A70084A117AD970D1791971EF
:103ED00091795971517999711179D971D2781A7290
:103EE0007047C0467C230020B017002010B50400A6
:103EF000FFF7A4FE8120FFF7ABFE012C09D0064B93
:103F00001C70064B19784023034A00200DF080F9FD
:103F100010BDFFF7D1FFF4E77C2300209D33002084
:103F200070B586B06C462A4B0433220070CB70C249
:103F300070CB70C2022837D0032841D0002300255F
:103F400000E00133052B10D8224AD2187D32FF320F
:103F500014780522D21A885C8442F2D01D4AD21805
:103F60007D32FF3210700125EBE7002D19D1812041
:103F7000FFF774FE184801238373164B1A7AC27335
:103F8000DA7902749A7942745A7982741A79C2740D
:103F9000DB7803751530182269460AF0FFFA06B07F
:103FA00070BDFDF7DBFDE2E78120FFF757FE0A4811
:103FB000022383730F30102208490AF0EFFAEEE76C
:103FC0008120FFF74BFE044B03229A73E7E7C046BC
:103FD000A42A0110B01700207C230020FC2300201D
:103FE00070B504000E001500FFF728FE2120FFF732
:103FF0002FFEFFF73FFEFFF751FE2000FFF734FED4
:10400000482C67D8A4003E4B1B599F468020FFF7E1
:1040100025FE00236AE0F07A431E9841C0B200F00A
:104020005FFFF27A374B1A708020FFF717FEF0E738
:1040300031000C31F07AFFF773FFEAE78020FFF7D9
:104040000DFEF27A304B1A70E3E78220FFF706FE8E
:10405000FFF72EFEDDE78020FFF700FED9E7902076
:10406000FFF7FCFDF27BF17A307B00F037FAD0E706
:10407000FEF74CFDCDE78020FFF7F0FDC9E7832078
:10408000FFF7ECFD6420FFF723FEC2E78020FFF777
:10409000E5FDBEE78020FFF7E1FDF27A0F23134034
:1040A000033BDAB20C2A03D89300184AD3589F4630
:1040B0000120FEF74BF9ACE70320FAE70420F8E70C
:1040C0000520F6E70620F4E70720F2E70820F0E7EE
:1040D0000220EEE70023AB4202D201339BB2FAE7A3
:1040E0008020FFF7BBFD94E70133DBB21F2BFBD928
:1040F0004023074A212100200DF08AF870BDC046F8
:104100004C2901109E330020B0130020702A0110AA
:104110007C23002070B50C00150010280DD08028DD
:104120000FD0012800D070BD881CFFF725FEA07AB3
:104130002A002100FFF754FFF5E7881CFFF71CFE5B
:10414000F1E74878FFF7D2FEEDE70000094B1B7856
:104150000A2B07D00B2B09D0064B0A221A70054BED
:1041600018787047034B0B221A70F8E7014B0C22AA
:104170001A70F4E7B113002070B504005D4B1B7892
:10418000002B04D15C4B1B78302B0BD070BD5B4BEC
:104190001A885B4B18785B49FFF7BCFF554B002230
:1041A0001A70F3E7FFF74AFD3020FFF751FDFFF7E4
:1041B00061FDFFF773FD544B1B78012B2DD0022BB3
:1041C00000D18AE02378514DAB706378EB70A3780F
:1041D0002B71E3786B7123790F210B40AB71607900
:1041E000A3791B0203431B11EB71E3792B72237A32
:1041F00019406972617AA37A1B020B431B11AB72DF
:10420000FFF7A4FFE872424B197840232A000020F0
:104210000CF0FEFF02F0A2FAB8E700F007FD837889
:104220003A4D2B73C3786B730378AB734378EB739E
:1042300003792B7443796B74037AAB74437AEB7410
:1042400083792B75C3796B75837AAB75C37AEB75FC
:1042500000F0ECFC83782B76C3786B760378AB7632
:104260004378EB7603792B7743796B77037AAB77D7
:10427000437AEB7782792023EA54C2790133EA54F6
:10428000827A0133EA54C27A0133EA5400F0CEFC58
:1042900082782423EA54C2780133EA540278013345
:1042A000EA5442780133EA5402790133EA544279FC
:1042B0000133EA54027A0133EA54427A0133EA5470
:1042C00082790133EA54C2790133EA54827A0133A4
:1042D000EA54C27A0133EA5474E70E4D280000F024
:1042E00025F90A4B0C3307CD07C307CD07C307CD0C
:1042F00007C367E79F330020B0130020AE130020F0
:10430000A0330020BC2300209E3300207C2300200B
:104310009D330020BC2F002010B5054B01241C70DC
:10432000044B1870044B1A8004480AF037F910BD8A
:104330009F330020A0330020AE130020BC230020B8
:1043400010B5024B18180AF029F910BD7C23002083
:10435000502800D1B0E003D960282FD0FF2010E012
:10436000402800D9AAE0202805D34B2924D88B0067
:10437000564AD3589F46002803D0102800D09FE00B
:10438000002070479520FCE70020FAE72A39504BBF
:1043900059187D31FF310878F3E704394C4B59182F
:1043A0007D31FF310878ECE70020EAE70020E8E7FC
:1043B0006820E6E70020E4E70020E2E7A92979D8B1
:1043C0008B00444AD3589F46FF20DAE70220D8E703
:1043D0000120D6E72320D4E70020D2E7B920D0E798
:1043E0001A20CEE70120CCE70020CAE74020C8E72A
:1043F0000020C6E74020C4E70020C2E74020C0E715
:104400000120BEE70020BCE70120BAE70020B8E7A2
:104410000120B6E70020B4E73B20B2E73420B0E744
:104420003B20AEE73420ACE73B20AAE73420A8E7E6
:104430003D39294B585CA4E73D39274B585CA0E730
:104440001A209EE71A209CE71A209AE75E2098E738
:10445000012096E7502094E7FD2092E7002090E7A6
:1044600000208EE7C6208CE70F208AE70F2088E720
:10447000302086E7612084E7AE2082E7902080E745
:10448000D9207EE7D4207CE714207AE7542078E70F
:10449000412076E7152074E7542072E7C72070E7C3
:1044A00079206EE79C206CE733206AE7362068E7C6
:1044B000632066E7002064E7002062E7FF2060E7F2
:1044C000FF205EE722205CE703205AE7C02A0110A4
:1044D000B0170020F02B01103C330020F0B58BB05A
:1044E00006000F00150008A90F70487000248C709A
:1044F000CC700A7105220E20FFF722FF00941A22C9
:10450000002101A80AF044F807E03919C9B23000C7
:10451000FFF71EFF6B4618550134A542F5DC2A0053
:1045200069461320FFF70CFF0BB0F0BDF0B5DE4677
:1045300057464E464546E0B585B0040083790322D0
:1045400093430222134383710125002601E00135C4
:10455000EDB2032D0CD8724BAA00D058B200D1583E
:104560004900490809F060FE0028F0D02E00EEE76F
:10457000032333409A00A3790C218B431343A37187
:10458000002509E06749404609F0FFFDAF0009F04A
:1045900077FE01ABD8510135022D15DC72190132BD
:1045A000032313405E4F9B00D8599D21C90509F094
:1045B000ECFD8046B300D859002109F01FFE002809
:1045C000E0D1FE218905DEE7019B9B12DB02D90ABF
:1045D0000F2211400901A07902400A43A271D90BB0
:1045E000E171D90D2172DB0F012601210B40607AA8
:1045F000B04303436372029B9D127F2082460540B5
:104600006F00657A0D403D4365725B149B049B0C03
:10461000A3721B0A3F273B40E57A403885432B4372
:10462000E372039B9A1294460325032260461040CE
:1046300080018446E07A074060460743E7721B1317
:104640005B035F0BA774580DE0745B0F0720804677
:1046500003409B46207D84460720814660464B46AA
:1046600098430300584618432075C3B240460340A0
:10467000237500236375A375E37D18308343E375C9
:10468000E77D1F233B40E3750023A3772700E37FEB
:10469000AB43E377DBB21340E3771E37BB78B3431A
:1046A000BB701F36A35D0B40A35521239C46E35CE2
:1046B0005F36B34360462354194E33691940C9012C
:1046C0008946205C51460140080049460143604646
:1046D00021545B089B059B0D3B711B0A13407979A4
:1046E000A9430B437B712323E15C0A400C210A435D
:1046F000E254B38AA3701B0AE370F38A23701B0A87
:104700006370338B23711B0A637133690833336120
:1047100005B0F0BCBB46B246A946A046F0BDC046B7
:10472000B4130020000080BFF0B5DE4657464E4669
:104730004546E0B585B004000D00C3689A46CE68D2
:10474000311C181C09F021FD071C236898462B68B2
:104750009B46191C404609F018FD011C381C09F045
:10476000F4FC071C63686A689146111C0093181CCE
:1047700009F00BFD011C381C09F0E7FC0190A7684B
:10478000AD68291C381C09F000FD011C019809F0D6
:10479000DCFC01905946504609F0F7FC0290414676
:1047A000301C09F0F2FC011C029809F0D3FC0290C5
:1047B000291C009809F0E9FC011C029809F0CAFCC8
:1047C0000290391C484609F0E0FC011C029809F0EF
:1047D000BCFC02904946504609F0D7FC0390291CC6
:1047E000404609F0D2FC011C039809F0AEFC03908E
:1047F0000099301C09F0C9FC011C039809F0AAFCBF
:104800000390391C584609F0C0FC011C039809F0BC
:10481000A1FC0390291C504609F0B7FC051C494631
:10482000404609F0B2FC011C281C09F093FC051C51
:104830000099584609F0A9FC011C281C09F085FCC8
:10484000051C391C301C09F0A0FC011C281C09F0B7
:1048500081FC019BE360029B2360039B6360A0607B
:1048600005B0F0BCBB46B246A946A046F0BD70B547
:1048700004000168081C09F088FC051C6168081C1C
:1048800009F083FC011C281C09F064FC051CA168CC
:10489000081C09F07AFC011C281C09F05BFC051CB3
:1048A000E168081C09F071FC011C281C09F052FC8D
:1048B00009F02AFD011CFE20800509F050FC051CB2
:1048C000011C206809F061FC2060291C606809F067
:1048D0005CFC6060291CA06809F057FCA060291CE2
:1048E000E06809F052FCE06070BD0000F0B5DE4603
:1048F00057464E464546E0B58DB08046944A9346AD
:1049000000911268881A09F094FC041C4246127A3D
:104910004146487A000210430004001409F08EFC5E
:104920008C4909F032FC8C4909F019FC09F0E2FCD1
:104930008A4A8B4B08F08DFB00228A4B08F06BFBF8
:104940000022894B08F067FB06000F00201C09F0CD
:10495000D1FC04000D0002000B003000390008F00B
:1049600078FB08F03BFC8246424692794146C87982
:10497000000210430004001409F060FC754909F0BE
:1049800004FC754909F0EBFB09F0B4FC734A744B65
:1049900008F05FFB0022734B08F03DFB0022724BD6
:1049A00008F039FB02000B002000290008F051FB41
:1049B00008F014FC81464246927A4146C87A0002C9
:1049C00010430004001409F039FC624909F0DDFBD2
:1049D000614909F0C4FB09F08DFC604A604B08F0A6
:1049E00038FB00225F4B08F016FB00225E4B08F0FC
:1049F00012FB02000B002000290008F02AFB08F03F
:104A0000EDFB051C5146504609F0BFFB041C49460E
:104A1000484609F0BAFB011C201C09F09BFB041C52
:104A2000291C0195281C09F0B0FB011C201C09F071
:104A300091FB09F05FFC04000D0002000B0008F080
:104A400008FB06000F000022484B0296039708F06F
:104A5000E2FA06000F000022454B2000290008F072
:104A6000DAFA02000B003000390008F0C2FA002226
:104A7000404B08F0C7FA06000F0000223E4B029898
:104A8000039908F0C8FA029003910022FF239B05C6
:104A90002000290008F0DDFA02000B0002980399BB
:104AA00008F0A7FA0022354B08F0ACFA04000D001C
:104AB0001C22002105A809F06BFD504609F01AFCE4
:104AC00032003B0008F0C5FA08F088FB0590484624
:104AD00009F010FC32003B0008F0BBFA08F07EFB46
:104AE0000690019809F006FC32003B0008F0B1FA8C
:104AF00008F074FB07902000290008F06FFB089075
:104B00001F4C05A92000FFF70FFE2000FFF7AFFEA6
:104B10004246117853781B020B431B041B14A382DB
:104B20009178D3781B020B431B041B14E382117989
:104B300053791B020B431B041B1423835A46009B0F
:104B400013600DB0F0BCBB46B246A946A046F0BD0E
:104B5000343000200000FA4400FEFF46182D445473
:104B6000FB2109400080664080842E410000AE4059
:104B7000000048400000E03F000078400000F03FA7
:104B8000B4130020F0B5C64600B50400884623499A
:104B900023480DF0C1FB0028F9D0224E3368581C81
:104BA000032107F0B7FF2578627812021E4F4800F4
:104BB000401883005B182A43FA54120AFB185A70F3
:104BC000A078E278120202439A70120ADA70207911
:104BD0006279120202431A71120A5A71A079E279BB
:104BE000120202439A71120ADA71207A627A120270
:104BF00002431A72120A5A72A07AE27A120202432D
:104C00009A72120ADA72316041462000FFF76EFE96
:104C100003480DF051FB80BCB846F0BD781F002062
:104C200060160020741F00204C1F002010B5094999
:104C300009480DF071FB0028F9D0084B1C680648A4
:104C40000DF03AFB6000001980000019044B1818A1
:104C500010BDC0467C1F002060160020741F00207D
:104C60004C1F00204118CB0F5B185B1080225202B2
:104C7000914204DA044A914203DB18B270470348B8
:104C8000FCE70348FAE7C046FFFFFEFFFF7F000096
:104C90000080FFFF70B52848FDF78CFE274D0622E7
:104CA0000021280009F074FCA81D0622002109F04B
:104CB0006FFC234B01221A70224BFA2292011A60D8
:104CC000214B00221A70214E214C31002000FCF7AC
:104CD00001F80023E25E9C3D9C23EA540223E25E3D
:104CE0009D23EA540423E25E9E23EA540623E25EF7
:104CF0009F23EA540823E25EA023EA540A23E25EDB
:104D0000A123EA540023F25EA223EA540223F25EB6
:104D1000A323EA540423F25EA423EA540623F25E9A
:104D2000A523EA540823F25EA623EA540A23F25E7E
:104D3000A723EA5470BDC0460000FFFF4C180020B6
:104D400085330020481F002086330020381F0020B4
:104D5000181F002010B5084AE2235B00D05C012137
:104D60004942FDF7B9FDFCF7F3FEFCF7F7FE034BF4
:104D700000221A7010BDC046B017002085330020F5
:104D8000F8B552495248FBF7A5FF524B1B78002B50
:104D900000D160E0504C9C254D4E0023F15E6057E1
:104DA000FFF760FF605501350223F15E6057FFF7A2
:104DB00059FF605501350423F15E6057FFF752FF3C
:104DC000605501350623F15E6057FFF74BFF6055D4
:104DD00001350823F15E6057FFF744FF6055013548
:104DE0000A23F15E6057FFF73DFF6055A227374D5C
:104DF0000023E95EE057FFF735FFE0550137022356
:104E0000E95EE057FFF72EFFE05501370423E95E26
:104E1000E057FFF727FFE05501370623E95EE0572B
:104E2000FFF720FFE05501370823E95EE057FFF761
:104E300019FFE05501370A23E95EE057FFF712FF3B
:104E4000E055002333732B73244A1368013B13602E
:104E5000002B37D0F8BD1E4A0023D05E1E4B9C218C
:104E600058540221505E9D2158540421505E9E21C9
:104E700058540621505E9F2158540821505EA021AD
:104E800058540A21515EA1229954104A0021505EC3
:104E9000A22158540221505EA32158540421505E8F
:104EA000A42158540621505EA52158540821505E73
:104EB000A62158540A21515EA7229954054BA63ABF
:104EC0001A70C7E7FFF746FFC4E7C046381F002047
:104ED000181F002086330020B0170020481F002034
:104EE000014B18707047C04687330020F0B5C646A6
:104EF00000B504004C4B1B78002B06D14B4B1B78A4
:104F0000002B05D180BCB846F0BDFFF739FFF9E7AB
:104F1000FA21474A8900FDF753FF0028F2D0454D9A
:104F200029004548FBF7D6FE2B7B002B03D0424BD4
:104F30001B7B002B0AD1404B1B7B002B00D06EE06B
:104F400000233D4A13733B4A1373DBE73A4B984601
:104F500018883A4D9C23EB569BB2C01A354F3988BE
:104F6000A223EB569BB2C91A09B200B2FFF77AFE30
:104F7000334E3080434658889D23EB569BB2C01A6F
:104F80007988A323EB569BB2C91A09B200B2FFF786
:104F900069FE7080434698889E23EB569BB2C01AE8
:104FA000B988A423EB569BB2C91A09B200B2FFF725
:104FB00059FEB0804346D8889F23EB569BB2C01A57
:104FC000F988A523EB569BB2C91A09B200B2FFF7C4
:104FD00049FEF08043461889A023EB569BB2C01AC5
:104FE0003989A623EB569BB2C91A09B200B2FFF762
:104FF00039FE308143465889A123EB569BB2C01A33
:105000007989A723EB569BB2C91A09B200B2FFF700
:1050100029FE708121003000FFF7B4FD90E72100E8
:105020000548FFF7AFFD8BE785330020873300206D
:10503000382F0020381F0020181F0020B017002034
:10504000281F002004281ED00CDC012816D00028C0
:105050000FDD0238C0B201280BD80D4B0B600833AE
:1050600013600AE0052804D10A4B0B600833136073
:1050700003E0094B0B60083313607047074B0B606C
:1050800008331360F9E7064B0B6008331360F4E74D
:10509000F818002018190020D8180020E81800205F
:1050A0000819002030B50F220D780F231D40047819
:1050B00094432C4304704C781C40250104781C4018
:1050C0002C4304708D781D40447894432C434470E5
:1050D000CC781C40250144781C402C4344700D7949
:1050E0001D40847894432C4384704C791C402501E6
:1050F00084781C402C4384708D791D40C47894437F
:105100002C43C470CC791C402501C4781C402C432E
:10511000C4700D7A1D40047994432C4304714C7A79
:105120001C40250104791C402C4304718D7A1D40DC
:10513000447994432C434471CC7A1C402501447932
:105140001C402C4344710D7B1D40847994432C43B7
:1051500084714C7B1C40250184791C402C43847154
:105160008D7B1D40C479944322002A43C271CA7BBF
:105170001A401201C1790B401343C37130BD0B7843
:105180001B071B0F03700B781B0943704B781B0721
:105190001B0F83704B781B09C3708B781B071B0F89
:1051A00003718B781B094371CB781B071B0F83712D
:1051B000CB781B09C3710B791B071B0F03720B798B
:1051C0001B0943724B791B071B0F83724B791B0919
:1051D000C3728B791B071B0F03738B791B094373F6
:1051E000CB791B071B0F8373CB791B09C3737047E4
:1051F00070B50400144D154A2900FFF723FF2B68F2
:10520000134A1168526819605A60042C12D0052C98
:1052100015D0032C09D00D4B1B6800221A800A4BB5
:1052200019680C48FFF7ABFF70BD084B1B680A4AB2
:105230001A80F4E7054B1B68084A1A80EFE7034B16
:105240001B68074A1A80EAE7442100203424002022
:10525000D82E01102821002000E1FFFF00C0FFFF31
:1052600000CAFFFF10B50E4B19600E4B1A600E4BB3
:1052700018700E4C0E4A2100FFF7E4FE21680D4C19
:105280002000FFF77CFFE37A0B3B5A1E93410A4A4A
:105290001370637A093B5A1E9341084A137010BD7C
:1052A000401A0020441A00208D33002044210020A1
:1052B00034240020282100208C3300208833002053
:1052C000024ABC235B00D0547047C046B017002090
:1052D00010B5044B00221A70034B19680348FFF7FE
:1052E0004EFF10BD783300204421002028210020EB
:1052F00070B590B00500384C384E22003100FFF7F1
:10530000A1FE31683648FFF73AFFFFF7E1FF0023BF
:1053100000933C22002101A809F03AF9A6236A462D
:105320001370557033681A781207120F69468A7025
:105330001A781209CA705A781207120F0A715A782D
:1053400012094A719A781207120F8A719A78120913
:10535000CA71DA781207120F0A72DA7812094A72E1
:105360001A791207120F8A721A791209CA725A79B7
:105370001207120F0A735A7912094A739A7912079F
:10538000120F8A739A791209CA73DA791207120F07
:105390000A74DB791B094B74226813881B0A8B740F
:1053A0001388CB740F4BBC2252009A5C0A75BD2245
:1053B00052009B5C4B75FA20000103F077F900283E
:1053C00001D110B070BD00200CF0CEF9402269462A
:1053D00000200CF0ABF9F4E728240020242400205E
:1053E00014240020B017002070B50A0000210F29F6
:1053F00037D803000B41DB0714D40131C9B2F6E7FB
:105400000133DBB20F2B0FD82A4AD05C2A4A12781C
:105410009042F5D1294A146801209840228802431D
:105420002280EDE70023EDE7224C23480378635404
:10543000224B1D6801228A402B8893432B800278DF
:105440001F4809F0FBF91F4B00221A701E4B186809
:105450002100FFF727FE1D4B00201856FFF748FFDD
:1054600070BD002AFCD0002401E00134E4B20F2C0E
:1054700014D8104B1A5D104B1B789A42F5D12100BD
:10548000134809F0DBF90D4B19680122A2400B8883
:1054900013430B800B4B00221A70E6E70A4B186887
:1054A0000449FFF7FFFD094B00201856FFF720FFC6
:1054B000D6E7C0461424002077330020282400209B
:1054C000982E01107833002024240020A1330020DE
:1054D000B42E011070B504000D00084E084A3100CA
:1054E000FFF7B0FD31680748FFF749FE064B1C7017
:1054F000064B1D70064B01221A7070BD242400203B
:105500002824002014240020A13300207733002019
:105510007833002070B5D04B00221A809A70CF4BA0
:105520001B78002B13D0CE4B1A6893789B07D90FAA
:10553000002B03DA9378022083439370C84B1B68D7
:105540001A78587800021043FFF74EFF70BD01F043
:1055500021FC002826D0C24B19688A780124A24376
:105560008A7019688A78022082438A7019684A789A
:105570001025AA434A7019684A781035AA434A7020
:1055800019680A78A2430A7019680A7882430A7077
:1055900019680A78023082430A701A681378082161
:1055A0008B431370AC4B00229B5EAE4A126851785D
:1055B000C90600D527E1AA4909684978C906C90F73
:1055C000A948007B814009B20B43A3490B80517865
:1055D000890600D519E1A249096849788906C90FE9
:1055E000A148407B814009B20B439B4C23809C49DE
:1055F000096888788007C00F4000A5780226B54367
:105600002843A0708878C007C50FA078013EB0433A
:105610002843A0701078C00700D5F8E00878C007CC
:10562000C00F914C2478A04000B203438A48038005
:105630001078800700D5ECE008788007C00F8A4C0E
:105640006478A04000B20343834803801078400789
:1056500000D5E0E008784007C00F834CA478A04054
:1056600000B203437C4803801078000700D5D4E0E3
:1056700008780007C00F7C4CE478A04000B20343D8
:10568000754803801078C00600D5C8E00878C006C9
:10569000C00F754C2479A04000B203436E480380CC
:1056A0001078800600D5BCE008788006C00F6E4CEC
:1056B0006479A04000B20343674803801078400635
:1056C00000D5B0E008784006C00F674CA479A04030
:1056D00000B20343604803801078C00900D0A4E002
:1056E0000878C009604CE479A04000B203435A48EE
:1056F00003805078C00700D599E04878C007C00FF4
:10570000594C247AA04000B2034353480380507898
:10571000400700D58DE048784007C00F524CA47A6E
:10572000A04000B203434C4803805078800700D566
:1057300081E048788007C00F4B4C647AA04000B2EB
:10574000034398B2444C2080800576D54748424DAB
:10575000EC1CE870050A65700025A570000EE0706D
:10576000507880076BD448788007C00F3E4C647A2D
:10577000A04000B20343384803805078000760D44B
:1057800048780007C00F384CE47AA04000B20343C9
:1057900098B2314C2080000555D534482E4DEC1D73
:1057A000E871050A65700025A570000EE07050785C
:1057B00000074AD448780007C00F2B4CE47AA04079
:1057C00000B2034324480380507840063FD4487811
:1057D0004006C00F244CA47BA04000B203431E48E7
:1057E00003805278D20934D14A78D2091E49C97B44
:1057F0008A4012B2184913430B801D4B18680C22C3
:1058000008F0CCFEA2E60021DEE60021ECE6002056
:105810000BE7002017E7002023E700202FE70020F8
:105820003BE7002047E7002053E700205EE7002029
:105830006AE7002076E7002082E7002087E7002063
:1058400098E70020A3E70020A8E70020B9E70020A0
:10585000C4E70022CEE7C04638210020783300207C
:10586000401A00203424002028210020FF0F0000CF
:10587000441A002010B5054CA446604462444243DB
:105880000819634458431018C00F10BD00F8FFFFFB
:1058900070B50C0008F0D2FC8A21C90508F055FC4F
:1058A000051C200008F0CAFC8A21C90508F04DFC3F
:1058B000041C291C281C08F068FC051C211C201C49
:1058C00008F063FC011C281C08F044FC08F01CFDD7
:1058D00070BD10B5031C081C0124191C08F094FCB1
:1058E000002800D10024E0B210BD10B50400130060
:1058F000406800280CDB0A00A168FFF7BBFF002806
:1059000000D110BD01235B426360A3600120F8E772
:105910000020F6E7F0B5D6464F464646C0B506002D
:105920000D0091469846089CFFF7B2FF071C3C49C2
:1059300008F072FC002822D06660A5601423A381C1
:105940002A0031002000FFF7D0FF002820D00C22D1
:10595000A35E002B1CDD0023A37301222276637655
:105960002374E37380252D012E0027604B461E60B3
:1059700043461D60E0BCBA46B146A846F0BD0C22C5
:10598000A35E002B02D09BB2013B1BB2A381D7E7E1
:10599000237E002B2CD0237C0133DBB29A46237468
:1059A000391C2068FFF795FF00280BD00123A37353
:1059B000E37B0133E37353461D2B06D90023237683
:1059C0006376D2E70023E373F5E7E37B022B1FD96D
:1059D0000023A37323760133637653460433A37401
:1059E0006660A5601423A38180252D012E00BCE7ED
:1059F000637E002BB9D0A37C013BDBB2A374002BE8
:105A00000AD1A3732376637680252D012E00ACE79F
:105A100080252D012E00A8E780252D012E00A4E76A
:105A20000080224430B583B00D001400131D094AD4
:105A30000092220049682868FFF76CFF23000C33AE
:105A400022000832E968A868034C0094FFF762FF5F
:105A500003B030BD902F00203830002010B5001169
:105A6000084A1378991C084C60540133DBB2137058
:105A70003D2B01D8002010BD130000221A70012018
:105A8000F9E7C046843300202C23002010B50C0019
:105A9000FA213D4A8900FDF793F900281DD03B4BC0
:105AA0001B78002B12D13A4B1B78002B60D1236856
:105AB0000B3BFF3B374A93422BD9374B1C60344B8F
:105AC00001221A70354B00221A7006E0324B1B6817
:105AD0001868FFF7C3FF002800D110BD304BA52286
