:020000041000EA
:1000000000B5324B212058609868022188439860DF
:10001000D860186158612E4B002199600221596106
:100020000121F02299502B49196001219960352056
:1000300000F044F80222904214D00621196600F024
:1000400034F8196E01211966002018661A6600F04E
:100050002CF8196E196E196E052000F02FF8012189
:100060000842F9D1002199601B49196000215960AB
:100070001A491B48016001219960EB211966A021F2
:10008000196600F012F800219960164914480160C1
:100090000121996001BC002800D000471248134993
:1000A000086003C880F30888084703B5996A0420EC
:1000B0000142FBD001200142F8D103BD02B5186610
:1000C0001866FFF7F2FF186E186E02BD00000240BE
:1000D000000000180000070000035F00212200005C
:1000E000F4000018222000A00001001008ED00E03C
:1000F00000000000000000000000000074B24E7A12
:1001000000200420F7010010C3010010C5010010F9
:10011000C1010010C1010010C1010010C101001097
:10012000C1010010C1010010C1010010C701001081
:10013000C1010010C1010010C9010010CB01001065
:10014000CD010010CD010010CD010010CD01001037
:10015000CD010010CD010010CD010010CD01001027
:10016000CD010010CD010010CD010010CD01001017
:10017000CD010010CD010010CD010010CD01001007
:10018000CD010010CD010010CD010010CD010010F7
:10019000CD010010CD010010CD010010CD010010E7
:1001A000CD010010CD010010CD010010CD010010D7
:1001B000CD010010CD010010CD010010CD010010C7
:1001C00000BE00BE00BE00BE00BE00BEEFF3058054
:1001D000103800BEF2EB8871A8270110D427011057
:1001E0003402001090A31AE700201F49086006C8D7
:1001F00081F3088810471D48006800282FD10DA4FE
:100200000ECC002902D000F012F8F9E71849194A7B
:10021000002000E001C19142FCD1174988471749ED
:1002200088471749884700BEFDE701C901C29A42C5
:10023000FBD37047D4270110C0000020F014002029
:10024000043C01100000042000000420043C0110C4
:10025000001004200010042000000000704709482E
:1002600009F096FC0047000008ED00E0000000D017
:10027000101500200831002019890010790800109D
:10028000D58800105756000006005250ABB360539B
:10029000A01D011006005250861C0302B01D011063
:1002A000060052505422A29DC41D01100500525058
:1002B000DE65F468043C0110F8B5C04610B5064C84
:1002C0002378002B07D1054B002B02D0044800E017
:1002D00000BF0123237010BD701700200000000034
:1002E000C8FC0010044B10B5002B03D00349044890
:1002F00000E000BF10BDC0460000000074170020E1
:10030000C8FC001070B500290AD001248440D02513
:100310002D06AC620022012106F0E2FA6C6170BD8C
:1003200001248440D0252D066C620022002106F0B5
:10033000D7FAAC61F3E770B500280ED0D0242406BC
:1003400080252D056561642007F02CFC0223636184
:10035000642007F027FCA56170BDD0242406802509
:100360002D056561642007F01DFC0223A361642054
:1003700007F018FCA561EFE710B5002807D00120B1
:10038000FFF7D9FF01210E20FFF7BCFF10BD0021B0
:100390000E20FFF7B7FFF9E7F8B5CE46474680B520
:1003A000002000F0D2FD0F2000F0CFFD062000F06D
:1003B000BDFD082000F0BAFD0B2000F0B7FD0C20B9
:1003C00000F0B4FD0D2000F0A1FD0A2000F09EFD1C
:1003D000072000F09BFD092000F098FD182006F092
:1003E00099FA192006F096FAD024240680235B049B
:1003F000636280239B0463620421182006F058FA8C
:100400000421192006F054FA3C4F04233B603C4E73
:1004100033603C4BFF221A661A663B4803681B0C8C
:100420001B043A490B60326893009B189A00384BC2
:100430009C4662441568FF231B0499465D402D0CC1
:100440002D0480235B019C461A4315603A68950091
:10045000AD18AA002B4B98464244176801252B0083
:10046000BB431F0063461A43176032689600B618F4
:10047000B20042441668B5431A43156002684B4601
:1004800053401B0C1B040B6003681B041B0C0B600C
:100490009620002107F05AFB1E491F480CF064FD0E
:1004A0000121122006F004FA0121132006F000FABF
:1004B0000121142006F0FCF9102006F02BFA80230D
:1004C0005B0263626361162006F024FA8023DB037B
:1004D00063626361112006F01DFA80239B02636250
:1004E0006361152006F016FA80239B036362636143
:1004F00000F0A6FBC0BCB946B046F8BDB02C002049
:10050000BC250020000005405C0005405C10054053
:100510000C000540C0C62D0000C00340F8B5DE4603
:1005200057464E464546E0B50400D02636068023A1
:100530009B019846B3610520002107F007FB736813
:10054000DB0A01252B405A42534101273B401B0146
:10055000227810218A431343237073681B0B2B40AE
:100560005A4253413B405B0122782020824313438F
:10057000237073689B092B405A4253413B409B01B7
:10058000227830318A431343237073681B0A2B404F
:100590005A425341DB0122783F310A401343237012
:1005A000434673618023DB009B46B3610520002135
:1005B00007F0CCFA73681B0B2B405A4253413B4067
:1005C0009B002278042189468A4313432370736871
:1005D000DB0A2B405A4253413B40DB002278043176
:1005E00088468A431343237073681B0A2B405A4280
:1005F00053413B405B00227806398A468A431343C5
:10060000237073689B092B405A4253413B40227828
:10061000AA43134323705B46736180239B46B361F7
:100620000520002107F092FA73689B092B405A427B
:1006300053413B401B01627810218A43134363708E
:1006400073681B0A2B405A4253413B405B00A2781F
:10065000504682431343A37073681B0B2B405A42CE
:1006600053413B40A278AA431343A3707368DB0A4B
:100670002B405A4253413B405B0162781E3082431B
:10068000134363705B4673618133FF339B46B361F1
:100690000520002107F05AFA73681B0A2B405A42C2
:1006A00053413B409B00627848468243134363704A
:1006B00073681B0B2B405A4253413B406278AA435C
:1006C0001343637073689B092B405A4253413B406C
:1006D0005B00627850468243134363707368DB0AA1
:1006E0002B405A4253413B40DB00627840468243F4
:1006F000134363705B46736173682B405A425341E6
:10070000DB01627877300240134363707368DB0B60
:100710002B405A4253413B409B0162783F38824311
:100720001343637073689B081D406B425D412F400B
:10073000BA00A378484683431343A370FF00DDB299
:1007400043469D432F43A7706378DB06DB0F1B01F5
:10075000FAB210218A431343A370F0BCBB46B246E1
:10076000A946A046F8BD0000F0B5D6464F4646461D
:10077000C0B584B0040003AF3B4B1A883A80002315
:10078000BB7002AE3280B37001AD2A80AB70694697
:100790000A808B70D0231B06984680235B02994603
:1007A00043464A469A61314B9A4603233A00D02188
:1007B00050460FF0F1F943464A465A619A610323C5
:1007C0003200F02150460FF0E7F943464A465A619D
:1007D0008023DB03994643464A469A6103236A46CF
:1007E000F02150460FF0D8F943464A465A619A61C3
:1007F00003232A00D02150460FF0CEF943464A4643
:100800005A613B785B027A785200E02109010B4083
:100810001343BA78D20913432360327852027378B3
:100820005B000A401A43B378DB091A4362602A78F6
:1008300052026B785B000A401A43AB78DB091A431B
:10084000A2606B461B785B026A46527852000B40EE
:1008500013436A469278D2091343E36004B0E0BCC4
:10086000BA46B146A846F0BDDCFC001000C003400B
:1008700010B500F061F810BD10B582B00BF070FB40
:10088000642007F08FF929480BF02EFBFFF784FD59
:100890000E2006F03FF80020FFF76EFD1B2006F04B
:1008A00039F8D024240680231B056362A36101204C
:1008B00006F030F802236362A361022006F02AF8F2
:1008C0000423A36200220121022006F009F803227A
:1008D000002101A80BF0CCF901A8FFF71FFE144B73
:1008E0009B886A46138063685B0709D501AB5B7818
:1008F0005B070CD4684600F031FA002002B010BD4E
:100900000C4809F045F9030000210800984702232C
:100910006A4613700120FFF72FFD0120FFF70BFD42
:10092000FA20800007F03EF9E4E7C046C8FC00105A
:10093000DCFC001055420000264B1860264B1B685B
:1009400098422BD2C31A013BFA225201934229D278
:100950000023002B21D0214B1B68214A12689342AF
:1009600026DA14331D4A13601C4B1B68002B2DD153
:10097000FF331B041B4A126853401B0C1B041A4A0A
:100980001360164B1B68002B22DB9BB2154A1268C2
:1009900053401B041B0C144A13607047984205D93E
:1009A000C31AD1E70C4B18600123D2E70023D0E72C
:1009B0000A3B0A4A13600D4A1268934201DC074B56
:1009C0001A60064B1A68064B1A60CDE70023D0E781
:1009D0000023DAE790300020F82A0020A01E002033
:1009E0009C1E00205C0005405C100540A41E0020F9
:1009F00010B5041CFE2189050AF0CCFD002801D0A9
:100A0000FE24A405094B18780AF0CEFD211C0AF03B
:100A100072FD0AF01DFE80B2054B1860054B1B6885
:100A2000984201DD034B186010BDC04660110020E4
:100A3000A41E00209C1E002010B5031C322800D9E3
:100A40003223DBB20A1C322900D93222D2B2002969
:100A50000ED1094B00221A70FE208005FFF7C8FF57
:100A6000AF20400007F09EF80020FFF7C1FF10BD47
:100A70009B18014A1370EFE7601100200902084338
:100A800000B2704770B582B0D02424068025AD0234
:100A9000A5616B46187159710B4E022201A93000F5
:100AA0000FF0D2F86561022007F07CF88025AD03D5
:100AB000A561022201A930000FF0C6F8656102208D
:100AC00007F070F802B070BD00C00340F0B5D64624
:100AD0004F464646C0B584B006000D0001AC002369
:100AE00001930822002102A80BF0C2F803236B44F3
:100AF0009A46A22352461370D0231B06984680279D
:100B0000BF029F614D4B99460122514618000FF0DC
:100B10009BF80C232200002148460FF03DF8434685
:100B20005F6161782078FFF7A9FF80B2404283B20D
:100B3000FF273840B0711B0AF371E178A078FFF706
:100B40009DFF83B2384030721B0A7372617920793D
:100B5000FFF794FF83B23840B0721B0AF372E17959
:100B6000A079FFF78BFF80B2404283B238403070EB
:100B70001B0A7370617A207AFFF780FF83B23840D6
:100B8000B0701B0AF370E17AA07AFFF777FF83B2A7
:100B9000384030711B0A73718026B60343469E614C
:100BA0000122514648460FF04FF80C232200002145
:100BB00048460EF0F1FF43465E6161782078FFF70A
:100BC0005DFF83B23840A8711B0AEB71E178A07811
:100BD000FFF754FF80B2404283B2384028721B0AAC
:100BE0006B7261792079FFF749FF83B23840A872B0
:100BF0001B0AEB72E179A079FFF740FF83B238401E
:100C000028701B0A6B70617A207AFFF737FF80B279
:100C1000404283B23840A8701B0AEB70E17AA07A98
:100C2000FFF72CFF83B2384028711B0A6B7104B0A8
:100C3000E0BCBA46B146A846F0BDC04600C003407D
:100C400010B5AE211020FFF71DFF5C211120FFF72A
:100C500019FF04211220FFF715FF04211320FFF7CD
:100C600011FF00211520FFF70DFFE0211720FFF7EE
:100C700009FF10BD10B515E00E4B9A6A0E4B1A60B5
:100C80000E480EF091FF00F02FFA0B4C206803F095
:100C90002DFF206802F082FA206800F03DFE2068F7
:100CA000FFF7E6FD064905480EF0B6FF0028E3D140
:100CB000E9E7C04600400540BC1C0020B8140020F5
:100CC000D41F002070B51C491C480EF0A5FF002859
:100CD0001AD11B4C2000FFF721FC1A4B1868210089
:100CE00003F074FF02F0AAFD05F06CF9002813D19F
:100CF000144B1868144A154900F0D6FA144B1B78A7
:100D00005BB2012B13D070BD124B9A6A0D4B1A6067
:100D10000A480EF049FFDCE70A4D28680E4C210016
:100D200003F01EF92868210005F098F9E0E7054B6B
:100D3000186800F0CBFEE6E7D01F0020B8140020B2
:100D400004180020BC1C0020E81700200818002010
:100D50006111002000400540B817002070B5041E46
:100D600000D1BAE0FFF718FB5C495D480CF0C2FA0D
:100D700003211C2005F09CFD03211D2005F098FD9A
:100D800000F030FD5748FFF7C9FB00F023FA0028B8
:100D90003ED100F015F9C82006F004FF524800F0DB
:100DA00019FD504B514A5249524803F0EBFD4D4B4F
:100DB0009B78DB0636D4504B4A22FF32995C4C229A
:100DC000FF32985CFFF738FE01F072FC0125655791
:100DD0006B1C2DD00023E3565A1C01D0474A1370D8
:100DE000404B1B785A0641D4DA062DD45AB2002A59
:100DF00025DB5A072CD40A221A40022A32D01B07BC
:100E000032D4042D18DC022D23DA012D2FD01CE062
:100E1000354800F0DFFC334B344A3549354803F0A0
:100E2000B1FDC4E70622002135480AF021FFC2E7E0
:100E3000314B02255D57CDE7052D01D005E0052595
:100E40002E4B01221A7012E0002500F0A7FC0EE0E4
:100E500004252A4B00221A700A2000F0F3FB00F050
:100E60009DFC04E00325F4E70225F2E701250023B9
:100E7000E356013318D0214B00215956280000F0C9
:100E800023FA184B9B789B0722D41E4A1549280049
:100E900002F090FB00F0E0FB0BF07CFB1A480BF03B
:100EA00067FBFFF70FFFFCE700F0E0FD002808D12B
:100EB0004B3000F0C7FB00F071FC104B02221A709F
:100EC000D9E7642000F084FD0C4B01221A70D2E7B0
:100ED000094B9D7000F056F9D7E770BD400D030037
:100EE0008814002004180020D4160020B817002011
:100EF000E8170020D01700201016002061110020F4
:100F00005C17002008180020750C001010B50400B4
:100F100005F000FD00220121200005F0E1FC012385
:100F2000A340D02212065362536110BD10B50400D5
:100F300005F0F0FC00220121200005F0D1FC012386
:100F4000A340D0221206936210BD10B5040005F034
:100F5000E1FC00220121200005F0C2FC0123A34096
:100F6000D0221206936210BD10B512480AF0ECFFB1
:100F7000002407E0104B5B18D97810480AF0E4FF12
:100F80000134E4B2052C0DD80BF0D8FD2100C0B21D
:100F9000094A1219D070002CECD1130001229043A1
:100FA000D870E7E7044B9B221A720A200AF068FF08
:100FB00010BDC046E4FC001010160020F4FC001028
:100FC000F0B5D7B0AC2464002200002168460AF0D6
:100FD0004FFE3D4B6A46138080231B01039304930D
:100FE00005930693394B1793189319931A931B93F0
:100FF0001C931D931E931F93802269468B500432CD
:101000008B5004328B5004328B5004328B5004329C
:101010008B5004328B50FF200004C423C85004338B
:101020002B4ACA502B4A0433CA50FF210906043305
:101030006D46E950FF231B02D4256E4673510435DB
:10104000254E6F467E510435244E7E51043578512D
:10105000E4203950E8217B5004317A50F02269466F
:10106000BB5032234A22FF32BB540132BB54220010
:101070001B480AF003FE002002F062FA012002F091
:101080005FFA022002F05CFA032002F059FA042011
:1010900002F056FA002306E0114AD2189C32FF21D2
:1010A000117001339BB2192BF6D90E4C0622002188
:1010B00020000AF0DDFDA01D062200210AF0D8FD67
:1010C000FFF752FF57B0F0BD00A0FFFF000016442D
:1010D0000000FF4D0000FFE600F115FF00FF61007A
:1010E00010160020C616002070B51D4CA5441D4BDF
:1010F0001B78002B03D180235B019D4470BD0BF056
:1011000061FAEFF3108672B600230093164A0021AD
:1011100001A80AF0ADFDAC225200144968460AF05D
:10112000ADFD80256D01124C290020000EF07CFDE4
:101130002A00694620000EF057FD86F310880BF058
:101140004BFA0C4B1B78002B03D1064B00221A7074
:10115000D1E704F063FF074B00221A70F5E7C046A1
:1011600000F0FFFFF2300020FC0F000010160020FE
:1011700000D01200FA300020014B01221A70704793
:10118000FA300020014B01221A707047F230002023
:1011900010B5031C322800D93223D8B203494C229F
:1011A000FF328B540121FFF747FC10BD10160020C1
:1011B00010B5031C322800D93223D9B2044A4A2080
:1011C000FF3013544C23FF33D05CFFF735FC10BDC8
:1011D0001016002010B51A4CAC22520019492000FC
:1011E0000AF04CFD2288A0231B029A4209D016481F
:1011F0000AF07AFEFFF7E4FE0020FFF7C3FF0020AD
:101200001CE00F4AA5235B00D35C1A1C312B00D8CD
:1012100032220B4CA5235B00E2544C23FF33E05CED
:10122000FFF7B6FF4A23FF33E05CFFF7C1FFE37827
:1012300001229343E3709B232372012010BDC0461B
:101240001016002000D01210FCFC001010B5034C4A
:10125000E06021616261A36110BDC04610160020EC
:1012600070B50D00064C2022010020000AF006FD9A
:1012700020002030202229000AF000FD70BDC04669
:101280006C16002070B50D00064C202201002000D5
:101290000AF0F4FC20002030202229000AF0EEFCA5
:1012A00070BDC0462C16002010B5034B1B68002BE8
:1012B00000D0984710BDC046A81A0020014B00205E
:1012C00018567047DF30002010B588B00400234B5B
:1012D0001870022910D00322002107A80AF0C8FCC8
:1012E0001822002101A80AF0C3FCE3B2052B09D89B
:1012F000A4001B4B1B599F461A4B1B4A1A6005F052
:1013000081F905E0174B194A1A60002000F034FCFF
:1013100008B010BD134B154A1A60012000F02CFCD8
:10132000F6E7104B114A1A60052000F025FCEFE7A4
:101330000C4B0F4A1A6001AA07A90020FFF7B4FF5F
:10134000E6E7084B0B4A1A6001AA07A90020FFF73D
:10135000ABFFDDE7034B084A1A60D9E7DF30002016
:101360004CFD0010A81A00204D670010F91B00105A
:1013700081540010115C0010555E0010F8B5CE4687
:10138000474680B50400234B1D78002D05D100236E
:101390000360C0BCB946B046F8BD642DF9D087786B
:1013A000E678B81963789846C0180AF0FDF81A492B
:1013B0000AF08BF8814628000AF0F1F817490AF084
:1013C00084F8051C011C48460AF0D4F80028E0D136
:1013D0004946281C0AF079F8051C38000AF0DFF8A5
:1013E000291C0AF088F80AF033F9A07030000AF0DE
:1013F000D6F8291C0AF07FF80AF02AF9E070404676
:101400000AF0CDF8291C0AF076F80AF021F960708C
:10141000BFE7C0467C11002000007F430000C842A7
:10142000F0B5D6464F464646C0B504000368002BCB
:1014300035D083789846C778D819667880190AF02D
:10144000B3F8051C40460AF0AAF88046291C0AF0A9
:101450003CF8824638000AF0A2F8071C291C0AF062
:1014600034F8814630000AF09AF8061C291C0AF06C
:101470002CF8051C514640460AF03DF80AF0E8F801
:10148000A0704946381C0AF036F80AF0E1F8E0701E
:10149000291C301C0AF02FF80AF0DAF86070E0BC62
:1014A000BA46B146A846F0BD00220AE093000649BC
:1014B0005958064B5B68DB03FBD4044B19610132BE
:1014C000D2B2132AF2D970477C1D002000002050B0
:1014D000F8B5DE4657464E464546E0B506000D00D7
:1014E000141C80780AF05BF88046F0780AF057F810
:1014F000071C70780AF053F8061CA8780AF04FF819
:101500008346E8780AF04BF8824668780AF047F894
:1015100081464146584609F0CEFF211C09F0EBFFF9
:10152000414609F0CDFF8046391C504609F0C3FF03
:10153000211C09F0E0FF391C09F0C2FF051C311C19
:10154000484609F0B8FF211C09F0D5FF311C09F00D
:10155000B7FF0AF07DF8C4B2240240460AF078F8DA
:10156000C3B21B041C43281C0AF072F80006204377
:10157000F0BCBB46B246A946A046F8BDF8B51E4B26
:101580001B78002B17D050221C491D480AF076FB0F
:1015900000231C4A1370184A13700022194B1E783E
:1015A000152E1ED8300009F0FAFF174909F0A3FFE5
:1015B000051C00240DE00122F0E7A7001349C9191A
:1015C0000F48C0192A1CFFF783FF0C4BD851013478
:1015D000E4B2132CF1D901360A4B1E70FFF764FFF9
:1015E000F8BD002AFCD15032084904480AF046FBF5
:1015F000FFF75AFFF4E7C046EB3000207C1D0020C7
:10160000CC1D00207D110020310C433D1C1E00200C
:10161000F0B5C64600B506000F0015009846002438
:101620000AE0335D9B004246EA50305D8000281896
:10163000FFF7F6FE0134E4B2BC42F2D380BCB846F8
:10164000F0BD0000031C642800D96423014A137014
:101650007047C0467C110020014B01221A70704770
:10166000EB30002010B550220B490C480AF006FB65
:10167000002406E0A3000948C018FFF7D1FE01349A
:10168000E4B2132CF6D9FFF70FFF502203490448A8
:101690000AF0F4FA10BDC0461C1E00207C1D00207C
:1016A000CC1D002030B583B0050000240CE001956E
:1016B00001A8FFF763FE0648A300019A1A50C0185C
:1016C000FFF7AEFE0134E4B2132CF0D903B030BD05
:1016D0001C1E002010B50B000A2808D88000224AE2
:1016E00012589746214A04212148FFF791FF10BD67
:1016F0001E4A04211F48FFF78BFFF8E71B4A04210D
:101700001D48FFF785FFF2E7184A01211B48FFF744
:101710007FFFECE7154A01211948FFF779FFE6E75B
:10172000124A01211748FFF773FFE0E70F4A012132
:101730001548FFF76DFFDAE70C4A01211348FFF760
:1017400067FFD4E7094A01211148FFF761FFCEE79F
:10175000064A01210F48FFF75BFFC8E7034A012152
:101760000D48FFF755FFC2E764FD00101C1E002066
:10177000B0FD0010A4FD00109CFD0010A8FD00109D
:1017800098FD0010A0FD0010ACFD0010B8FD001089
:10179000B4FD001090FD001094FD001070B50B4BCF
:1017A00019682C220A480AF069FA00240BE0A30009
:1017B000074DED182800FFF7E1FD29682000FFF72D
:1017C00089FF0134E4B20A2CF1D970BD6C1E0020EF
:1017D000701E002010B5024B1860FFF7DFFF10BD30
:1017E0006C1E002070B58CB0434D444928000BF0AE
:1017F00075FA04000621172005F05AF8012300931A
:101800001722002128000BF085FA1022002108A8D9
:101810000AF02EFA80235B020893F8235B020993F7
:101820008023DB020A93C0231B030A93102208A91A
:1018300004A80AF023FAE21C059B0393304B03999A
:101840000B40E1010B43120313430593079A0392E4
:10185000D200D208802189050A430792294A134001
:101860000593102204A908A80AF008FA0B9B039319
:10187000254A1A40B823DB0113430B930A9B0393B9
:10188000224A1A40224B13430A939B009B08802252
:10189000D20513430A93052006F066FF1D4908F0A0
:1018A000CBF909F07CFE061C09F0D2FE85B2002DB2
:1018B0001FD0280009F073FE011C301C09F0FBFD4D
:1018C0008721C90509F017FE09F0C2FEC0B2000267
:1018D0002D0405430895084D08AB2200002128007F
:1018E0000BF06AFA2B680122934313432B600CB070
:1018F00070BD0020EBE7C04600002050BCFD00108A
:101900007F00FEFFFFFFFF9FFF83FFFFFFFFF5C18B
:10191000000002300050C30010B50E4B18600E4B93
:101920001B68984208D2C31A013B0C4A934207D85D
:101930000023002B0AD110BD984205D9C31AF4E741
:10194000054B18600123F4E70023F2E7FFF716FECA
:10195000F1E7C04694300020FC2A00201941000025
:1019600000B585B00020FEF707FD9620400006F088
:1019700019F903AA114B13800023009302336A2143
:101980000F480BF0E3FC831C05D0431C09D0022850
:101990000DD005B000BD0B48FFF784FEFFF762FED7
:1019A000F7E70948FFF77EFEFFF75CFEF1E707481F
:1019B000FFF778FEFFF756FEEBE7C046094100004F
:1019C0008814002000A1A1A100FF61000000FFE633
:1019D00000B587B0232822D8C0B20538C0B27F2313
:1019E000184005AB04221A70587006F0ABF90200DB
:1019F0000B1E21DBFA200001002112184B41002BA5
:101A000020DB002B22DB029203930023009302339E
:101A100005AA6A2110480BF0A5FC07B000BDAF2352
:101A20005B00984200D9180028380A2108F0DCF839
:101A3000C0B21F30C0B2D2E7084B094A3F21094863
:101A400006F04CFF01225242074BDAE7034B044AEF
:101A50003F21044806F042FF88140020CCFD00100E
:101A60004CFE0010E8FD0010FFFFFF7F30B585B091
:101A700003AA144B1B78137002AD2B70124C012378
:101A800000936A2120000BF061FC002300930133D6
:101A90002A006A2120000BF084FC831C05D202ABD3
:101AA0001878C007C00F05B030BDFF200004FFF755
:101AB000F9FDFFF7D7FDFA20800006F073F801204A
:101AC000F1E7C046A80201108814002010B5114BA0
:101AD0001860114B1B68984209D2C31A013BFA22C5
:101AE0001202934207D20023002B0AD110BD984264
:101AF00005D9C31AF3E7084B18600123F4E7002364
:101B0000F2E7FFF7B3FF054B18700028EED1FFF79F
:101B100027FFEBE7B8300020202B0020D830002032
:101B200010B5FFF7CBFB052801D0024810BD0248D5
:101B3000FCE7C04664FE001054FF001010B5002002
:101B40000CF0BEFF10BD0000037801330370044B9E
:101B50001B785BB2052B01D0024870470248FCE7B6
:101B60003C12002088000110C0010110014B1860D8
:101B70007047C0460020002010B50400002001F08E
:101B800007FB012C0FD0052C17D01148FFF7EEFFF3
:101B9000104B114A1A60114B114A1A60114B1C70FC
:101BA0000DF09AFB10BD6420FFF7E0FF094B0E4AD1
:101BB0001A600A4B0D4A1A60F0E76420FFF7D6FF5F
:101BC000044B0B4A1A60054B0A4A1A60E6E7C04606
:101BD000B01D0000FC1F0020595E001004200020F2
:101BE0003D1B00103C120020C16400105D2100105C
:101BF000E14C0010E925001070B506000C0015003E
:101C00000120002140420CF0CFFA1F4B1B785BB241
:101C1000012B01D0052B0AD11C4B1B6898470028CB
:101C200004D01B4B1B6829002000984770BD194B3E
:101C30001A78194B1E60002A15D1184B1B689E425A
:101C400015D2F31A013B16498B4214D8002A16D03C
:101C50000E4B1B6898470028E8D00D4B1B682900E5
:101C600020009847E2E70D4B1E600022EEE79E42FF
:101C7000ECD9F31AE7E7094B1E600122E6E7054BB2
:101C800000221A70D2E7C0463C1200200420002037
:101C9000FC1F0020F930002098300020002B00208D
:101CA0004B1D0000064B1B785BB2012B03D0052BAC
:101CB00003D1044870470448FCE70448FAE7C046EB
:101CC0003C120020AC010110D0000110B809011035
:101CD000064B1B785BB2012B03D0052B03D10448C4
:101CE00070470448FCE70448FAE7C0463C1200206D
:101CF00080010110A0000110780901100020704738
:101D0000014B01221A707047F930002070B504AC05
:101D10002588284C247864B2012C28D0052C0FD0BB
:101D2000002908D1002A06D11878102804D02A00EA
:101D3000190000F0EBFF70BD981C00F057FDFAE7AA
:101D40000029F8D1002AF6D11A78112A05D0132AD1
:101D5000F1D119480AF0F8F8EDE75B78002B04D0D0
:101D6000FE208005FEF744FEE5E70020FAE70029A3
:101D7000E1D1002ADFD11A78002ADCD15A78082A6A
:101D8000D9D1DA78002A02D1197900290DD01B792E
:101D9000101C9A4200D2181CC0B209F000FC07497E
:101DA00009F093FBFEF724FEC5E70020FEF720FEB6
:101DB000C1E7C0463C1200201800011000007F431C
:101DC000044B1B785BB2052B01D0034870470348D6
:101DD000FCE7C0463C120020CC09011014010110A0
:101DE00070B5EE2824D0002825D080001E4BC558A1
:101DF00028000DF097FEC0B21F2800D91F20002335
:101E000027E05A1C194CA15C0902E25C0A43440019
:101E10001749625202330130112BF2D9154A144B83
:101E200013CB13C211001A680A609B888B8019E0DB
:101E300000200023F0E70C4B196802220E4809F03D
:101E40001DFF012007E05A1CEC5C5100094BCC52ED
:101E5000D3B29842F7D801304000C0239B0018430A
:101E6000044B1880034870BD681100205C0001100D
:101E70008C170020CC1A0020CE1A002000B591B09B
:101E80004022694600200DF0A9F800200DF0BCF8B2
:101E9000064B1B785BB2002B01D011B000BD04488B
:101EA0000AF022F8684604F047F9F6E73C120020F1
:101EB00030000110F0B583B005001400012966D18F
:101EC00013785B069B0F012B58D0022B03D0002BFD
:101ED00001D000205CE06378022B24D0072B03D0D4
:101EE000012B19D0002053E0227963791B021343A0
:101EF000042B03D0052B08D0002049E02433264AC8
:101F0000210028000CF074FA42E08D33234A2100AE
:101F100028000CF06DFA3BE01523214A210028002F
:101F20000CF066FA34E0227963791B021343072B25
:101F300030D11C4B1B785BB2052B0FD06B469F1D1D
:101F4000194E02223100380009F098FE3B88320019
:101F5000083A210028000CF04BFA19E06B469F1D4F
:101F6000124E02223100380009F088FE3B88320010
:101F7000083A210028000CF03BFA09E051780C489F
:101F800009F0E2FF210028000CF016FA00E0012021
:101F900003B0F0BD0020FBE71412002080110020E8
:101FA000700001103C120020A8FE001080FF0010FD
:101FB000480001100120704710B58422002102481A
:101FC00009F056FE10BDC0462424002010B50020A4
:101FD000FFF7F2FF10BD0000F0B5C64600B5804621
:101FE0000D008B795D2B24D10B79DF00FF1ABFB276
:101FF0001937BFB2974221D80C780C19002605E09A
:10200000104A53700136F6B22378E4182B79B342A4
:1020100010D96378052BF7D1210040460BF0F2FD73
:1020200000280DD0A378DA09012AE9D0054A937077
:10203000E8E70027380080BCB846F0BD0027F9E784
:102040000027F7E72424002030B583B004001448AB
:102050004078884206D0124A92788A420CD00120F9
:1020600003B030BD0F4A002A18D09AB20E490020A2
:10207000FFF746FE0120F3E70C4D9BB200932B00C7
:10208000002200210020FFF741FE2B00443B9978FD
:1020900040232A0020000BF029FEE1E70120DFE7C2
:1020A00024240020011D0010282400206824002082
:1020B00010B50BF00BFD002803D10023002B08D135
:1020C00010BD0BF00BFD002801D10123F6E7002322
:1020D000F4E70B4B997800200BF044FE0028EFD179
:1020E000074CA1780BF0DAFD22004432A17840239E
:1020F00000200BF0FBFDA17800200BF0E3FDDFE7F3
:102100002424002070B505000C000BF0E7FC00282B
:1021100006D1812100200BF0C1FD002803D170BD44
:102120000BF0E4FCF5E7231C402C00D940239CB2C3
:10213000094E22002900300009F0A0FD351F697802
:102140002300320000200BF0D1FD697800200BF055
:10215000B9FDFFF7ADFFE2E72824002010B5104BD2
:102160005C780BF0B3FC002806D10023002B13D0C1
:10217000002C09D1002010E00BF0B0FC002801D1A8
:102180000123F3E70023F1E7210000200BF0EAFD33
:10219000002803D1013000E0002010BD0020FCE742
:1021A0002424002010B53C220021024809F060FDE3
:1021B00010BDC046681B002010B50020FFF7F2FFDD
:1021C00010BD0000F0B583B006000F001500FFF74A
:1021D00075F805284CD13B79DC00E41AA4B212341E
:1021E000A4B2AC4248D80023002B09D00025002D12
:1021F00044D0397879184B78212B11D0002438E05D
:102200001A01D21A92001F4882185278002A02D06E
:102210000133DBB2E8E71A01D11A89004518E6E775
:10222000A9630B78C9183A796B1C0193AB1C009316
:10223000032330000BF000FD002821D0BB79012BD7
:1022400013D001232B71BB782B70AA6BD179137A31
:102250001B020B43EB80A97800290AD02A003032F8
:10226000062330000BF042FD03E0FB79EB70E8E75A
:102270000024200003B0F0BD0024FAE70024F8E7B2
:102280000024F6E7681B002070B582B005001D4CE5
:10229000002000280AD0002830D162788A4213D06A
:1022A000A2788A421AD0012002B070BD0401241A1B
:1022B000A400144A1419A2788A42ECD062788A42A7
:1022C000E9D00130C0B2E4E70F4A002A18D021005B
:1022D00008319AB2FFF714FD0120E5E726003036F9
:1022E0009BB20093330000220021FFF70FFDA1787D
:1022F0000623320028000BF0F9FCD5E70020D3E7D5
:102300000120D1E7681B0020011D0010F0B5C64672
:1023100000B582B00600150012781F231340012B70
:1023200000D01FE128790024002C0DD0FF24002CC0
:1023300000D01CE12700602318001040134239D15F
:1023400001290BD001200EE123011B1B9B008E4FA6
:10235000DB5D9842EBD00134E4B2E5E7EA786B78D4
:10236000062B06D0062B00D005E1222A12D0002031
:10237000F9E0212AF6D123011F1BBF00824BDF1990
:10238000BA6B002A00D1F4E01378290030000CF079
:102390002FF8E8E02000FFF713FD02003B01DF1BF0
:1023A000BF00794BDF19FB88290030000CF020F8C2
:1023B0000120D8E0202800D0DFE06B780B2B00D97B
:1023C000DDE09B00714AD3589F46012901D00120CE
:1023D000C9E0EA78A97823011B1B9B0008336A4FE8
:1023E000FF18A879EB791B020343181C252B00D991
:1023F000252080B2002909D0012B16D97B1C9C46D0
:102400003970013880B20123984602E0BC460023AF
:102410009846009063462000FFF770FC0300434499
:102420009BB2002B05D100209DE0BC4600239846BE
:10243000EFE73A00290030000BF0DAFF012092E0CC
:10244000012903D0032915D001208CE0AA79EB796A
:102450001B021343062B01D9002084E02201121B2A
:102460009200303248498A18290030000BF0C0FF32
:10247000012078E0EA78A97823011B1B9B00303308
:102480004148C318AE79E87900023043051C06289C
:1024900000D90625ADB2002904D0012802D9187848
:1024A000884205D000952000FFF730FC01205AE05B
:1024B0000133013DADB2F5E7012901D0012052E021
:1024C000E97823011F1BBF002F4BDF197971304BB7
:1024D000002B04D0200000E000BF002843D02900DA
:1024E00030000BF069FF01203DE0012901D00120FF
:1024F00039E02201171BBF00234AD21905320123FC
:10250000290030000BF074FF01202CE0012901D0DC
:10251000012028E02201171BBF001B4AD2190432F8
:102520000123290030000BF063FF01201BE001298B
:1025300003D0032907D0012015E0290030000BF05B
:102540003BFF01200FE0A97823011F1BBF000E4BAA
:10255000DF1939710F4B002B13D0200000E000BFB2
:10256000012000E0002002B080BCB846F0BD002091
:10257000F9E70020F7E70020F5E70020F3E7002067
:10258000F1E70120EFE7C046681B0020E4000110DE
:10259000000000000000000010B50301181A8000C0
:1025A000104B181844780BF091FA002806D100233C
:1025B000002B13D0002C09D1002010E00BF08EFA74
:1025C000002801D10123F3E70023F1E721000020D7
:1025D0000BF0C8FB002803D1013000E0002010BD43
:1025E0000020FCE7681B002010B50020FFF7D4FF97
:1025F00010BD0000F8B504000F0016001D00030117
:102600001B1A9B001F4AD318597800200BF046FB79
:10261000002825D0002F24D02B1C242D00D92423C2
:102620009DB2184A2301191B890051180F721B1BF8
:102630009B000833D01801302A00310009F01EFB3E
:102640000135ADB20F4B2001021B920008329A18DF
:10265000001B8000181841782B0000200BF046FB6F
:10266000F8BD2B1C252D00D925239DB22001001B70
:1026700080000830034B18182A00310009F0FEFAD8
:10268000E0E7C046681B002010B513000A000100F7
:102690000020FFF7AFFF10BD107003120F2018408D
:1026A00050700B0118435070091191707047000071
:1026B00070B5124D802424012A0021002000FFF76C
:1026C000EBFFEA1C21002000FFF7E6FFAA1D210016
:1026D0002000FFF7E1FF2A00093221002000FFF768
:1026E000DBFF2A000C3221002000FFF7D5FF2A0073
:1026F0000F3221002000FFF7CFFF70BD6C300020AB
:1027000010B540220021024809F0B2FA10BDC046BF
:10271000401F0020014B18707047C046F530002064
:10272000014B18737047C046401F0020014B58737F
:102730007047C046401F0020074A0021535E1078B2
:1027400006490870033399B21BB21380FF2B01DDD9
:10275000FF3911807047C046CE300020401F002056
:10276000024B1A78024B5A707047C0467004011031
:10277000401F0020054B03229A734821D9731A7415
:10278000013A5A74473919765A767047401F00202B
:1027900010B5C4B2000A002307E019000E31044A44
:1027A0005454013150540233DBB20D2BF5D910BD16
:1027B000401F002030B5C4780325455743780821D1
:1027C0001940012293437E322240012B01D9002976
:1027D00007D0402A07D9002D01DB012004E00020AA
:1027E00002E0012000E0002030BD000070B50400D0
:1027F000FFF7E0FF002839D06178E278A378012064
:1028000081434C087E30104040384000C2B2803BCB
:102810001800434258418018C0B208F0C0FE154964
:1028200008F053FE8021C90509F092F8051C20002C
:1028300008F0B5FE0F4908F048FEFC21890509F0B3
:1028400087F8041C011C281C08F0A4FE002800D0F6
:102850002C1CFE218905201C08F094FE002801D0C4
:10286000FE24A405201CFEF7C3F870BD0020FEF76F
:10287000BFF8FAE70000C8420A4B01221A70002292
:102880005A7003329A70084A117AD970D179197145
:1028900091795971517999711179D971D2781A72E6
:1028A0007047C046401F00201016002010B50400DD
:1028B000FFF726FF8120FFF72DFF012C0DD021000F
:1028C000094809F041FB094B1C70094B197840235A
:1028D000064A00200CF01CF910BD064809F034FB34
:1028E000FFF7CAFFF1E7C046F0010110401F0020CA
:1028F000F5300020D801011070B586B06C462A4B27
:102900000433220070CB70C270CB70C2022837D063
:10291000032841D00023002500E00133052B10D807
:10292000224AD2184D32FF3214780522D21A885C1E
:102930008442F2D01D4AD2184D32FF321070012568
:10294000EBE7002D19D18120FFF7EAFE184801239B
:102950008373164B1A7AC273DA7902749A794274C5
:102960005A7982741A79C274DB780375153018228B
:10297000694609F083F906B070BDFEF703FCE2E793
:102980008120FFF7CDFE0A48022383730F30102207
:10299000084909F073F9EEE78120FFF7C1FE044B07
:1029A00003229A73E7E7C046700401101016002056
:1029B000401F0020C01F002070B504000D0016004D
:1029C000FFF79EFE2120FFF7A5FEFFF7B5FEFFF7FC
:1029D000C7FE2000FFF7AAFE6A4809F0B5FA482CA6
:1029E00000D9A7E0A300684AD3589F46674809F07A
:1029F0007BFA8020FFF794FE654809F0A5FA0024D1
:102A0000B4E0E97A634809F09FFAE87A431E9841F6
:102A1000C0B200F0BDFB8020FFF782FEECE75E480D
:102A200009F062FA29000C31E87AFFF765FFE3E765
:102A3000E97A5A4809F088FA8020FFF771FEEA7AAD
:102A4000574B1A70D8E7574809F04EFA8220FFF723
:102A500067FEFFF78FFECFE7E97A534809F074FA73
:102A60008020FFF75DFEC7E7297BEA7AEB7B4F48C2
:102A700009F06AFA9020FFF753FEEA7BE97A287B97
:102A800000F036FAB8E7297BEA7AEB7B484809F090
:102A90005BFA8020FFF744FE2B7B802BACD1EB7AD6
:102AA000262BA9D10024192C10D822001032A95CA1
:102AB000404B1B199C331970A95C3F4809F044FA3C
:102AC0000A2009F0DDF90134A4B2ECE70020FEF79A
:102AD00059FB91E7394809F007FA8320FFF720FEF8
:102AE0006420FFF755FE87E7354809F0FDF980209F
:102AF000FFF716FE80E7334809F026FA8020FFF73B
:102B00000FFEEA7A0F231340072B0BD00F2B0DD0AB
:102B1000032B03D02C4809F0E7F96DE72B4809F0A7
:102B2000E3F969E72A4809F0DFF965E7294809F080
:102B3000DBF961E72100284809F006FA002405E0E6
:102B4000295D264809F000FA0134A4B2B442F7D353
:102B50000A2009F095F98020FFF7E2FD4CE7204BB1
:102B6000195D1E4809F0F0F90134E4B21F2CF6D9C2
:102B70000A2009F085F94023194A212100200BF091
:102B8000C7FF70BD0C0201103803011014020110C0
:102B9000300301102402011034020110440201101C
:102BA000401200205C02011070020110840201102A
:102BB000AC02011010160020D4020110DC0201103A
:102BC000EC02011000030110D0200110A423011019
:102BD0001003011014030110180301102803011041
:102BE000401F002070B50C001500102811D080285F
:102BF00013D0012804D001000A4809F0A5F907E024
:102C0000881CFFF7F3FDA07A2A002100FFF7D4FE0D
:102C100070BD881CFFF7EAFDFAE74878FFF746FE2B
:102C2000F6E7C0465C040110094B1B780A2B07D05D
:102C30000B2B09D0064B0A221A70054B18787047E7
:102C4000034B0B221A70F8E7014B0C221A70F4E7C1
:102C50004112002070B50400254B1B78002B04D1D5
:102C6000244B1B78302B0BD070BD234B1A88234B81
:102C700018782349FFF7B6FF1D4B00221A70F3E7BF
:102C8000FFF73EFD3020FFF745FDFFF755FDFFF74D
:102C900067FD1C4D28000C3000F006FA2378AB705D
:102CA0006378EB70A3782B71E3786B7123790F2134
:102CB0000B40AB716079A3791B0203431B11EB71CD
:102CC000E3792B72237A19406972617AA37A1B0225
:102CD0000B431B11AB72FFF7A7FFE8720A4B197881
:102CE00040232A0000200BF013FF01F021FEBBE778
:102CF000F6300020401200203E120020F730002065
:102D0000801F0020401F0020F530002010B5054B2B
:102D100001241C70044B1870044B1A80044808F0FE
:102D2000ADFF10BDF6300020F73000203E1200202D
:102D3000801F002010B5024B181808F09FFF10BD2F
:102D4000401F0020502800D1BEE00FD960283DD0A0
:102D500080281DD10B00263BDBB2192B00D9BDE02A
:102D600026395F4B59189C31087810E0402800D96B
:102D7000ACE0202805D34B2926D88B00594AD358DC
:102D80009F46002803D0102800D0A1E00020704703
:102D9000FF20FCE79520FAE70020F8E72A39504B9E
:102DA00059184D31FF310878F1E704394C4B591867
:102DB0004D31FF310878EAE70020E8E70020E6E738
:102DC0006820E4E70020E2E70020E0E7A92979D8BD
:102DD0008B00454AD3589F46FF20D8E70220D6E70C
:102DE0000120D4E72320D2E70020D0E7B920CEE7A6
:102DF0001A20CCE70120CAE70020C8E74020C6E738
:102E00000020C4E74020C2E70020C0E74020BEE722
:102E10000120BCE70020BAE70120B8E70020B6E7B0
:102E20000120B4E70020B2E73B20B0E73420AEE752
:102E30003B20ACE73420AAE73B20A8E73420A6E7F4
:102E40003D392A4B585CA2E73D39284B585C9EE738
:102E50001A209CE71A209AE71A2098E75E2096E746
:102E6000012094E7502092E7FD2090E700208EE7B4
:102E700000208CE7C6208AE70F2088E70F2086E72E
:102E8000302084E7612082E7AE2080E790207EE753
:102E9000D9207CE7D4207AE7142078E7542076E71D
:102EA000412074E7152072E7542070E7C7206EE7D1
:102EB00079206CE79C206AE7332068E7362066E7D4
:102EC000632064E7002062E7002060E7FF205EE700
:102ED000FF205CE722205AE7032058E7FF2056E74F
:102EE000101600208C040110BC0501106C3000206D
:102EF000F0B58BB006000F00150008A90F704870E0
:102F000000248C70CC700A7105220E20FFF712FF8E
:102F100000941A22002101A808F0AAFE07E039193E
:102F2000C9B23000FFF70EFF6B4618550134A542B9
:102F3000F5DC2A0069461320FFF7FCFE0BB0F0BD5C
:102F40004118CB0F5B185B1080225202914204DAC9
:102F5000044A914203DB18B270470348FCE7034878
:102F6000FAE7C046FFFFFEFFFF7F00000080FFFF83
:102F700070B51B48FEF796FBFEF76EFB194D062257
:102F80000021280008F074FEA81D0622002108F088
:102F90006FFE154B01221A70144BFA2252011A606F
:102FA000134E144C31002000FDF790FD0623E25E25
:102FB000B63DB923EA540823E25EBA23EA540A2351
:102FC000E25EBB23EA540623F25EBF23EA540823E1
:102FD000F25EC023EA540A23F25EC123EA5470BDB4
:102FE0000000FFFFC6160020E2300020FC1C00207D
:102FF000F01C0020D81C002010B5FEF7CFFBFEF718
:103000002BFBFEF7B9F8FEF7BDF8024B00221A7051
:1030100010BDC046E2300020F8B51D4D1D4E290000
:103020003000FDF753FD1C4CB9270623F15EE05735
:10303000FFF786FFE05501370823F15EE057FFF701
:103040007FFFE05501370A23F15EE057FFF778FF75
:10305000E055BF260623E95EA057FFF771FFA05594
:1030600001360823E95EA057FFF76AFFA055013635
:103070000A23E95EA057FFF763FFA055074A1368CC
:10308000013B1360002B00D0F8BDFFF7B5FFFBE755
:10309000F01C0020D81C002010160020FC1C002072
:1030A0000870001248707047F0B583B0040001A9A1
:1030B0002F480CF0B1FD0028F9D02E4E3378237044
:1030C000737863702C4D2B78A3706B78E3702B486A
:1030D000037823714378637129490B78A3714B7886
:1030E000E371284A1378237253786372264B1F7852
:1030F000A7725F78E772B7782773F7786773AF784E
:10310000A773EF78E77387782774C77867748F7829
:10311000A774CF78E77497782775D77867759F7805
:10312000A775DF78E77537792776767966762E7911
:10313000A6766D79E5760579257740796077087907
:10314000A0774979E17710792021605451792122C3
:10315000A15419790132A1545A792323E2540B4B1B
:1031600000221A7002480CF01FFD03B0F0BDC046EB
:10317000C0140020A8170020A0170020B0170020BE
:10318000C81C0020C01C0020D01C0020E5300020FE
:10319000014B18707047C046E4300020F0B583B092
:1031A0006C4B1A78002A16D16B4B1B78002B03D17D
:1031B0006A4B1B78022B0CD9694B1860694B1B6852
:1031C00098420BD2C31A013B67498B420AD8002AA6
:1031D0000CD103B0F0BDFFF71FFFFAE79842F6D914
:1031E000C31AF1E75F4B18600122F0E75F496048BE
:1031F000FDF76CFC5F4B1B78002B45D05C4DE888DD
:103200005D4FB923FB569BB2C01A584EF188BF23BD
:10321000FB569BB2C91A09B200B2FFF791FE574C98
:10322000E0802889BA23FB569BB2C01A3189C0239B
:10323000FB569BB2C91A09B200B2FFF781FE20818A
:103240006889BB23FB569BB2C01A7189C123FB5608
:103250009BB2C91A09B200B2FFF772FE6081002367
:10326000F15E0023E85EFFF76BFE20800223F15E33
:103270000223E85EFFF764FE60800423F15E04230E
:10328000E85EFFF75DFEA08001A93D480CF0C4FC9C
:103290000028F9D0314B1C786400E4B2354B1B7820
:1032A000002B30D037490919344D0623E85EFFF76B
:1032B000F7FE354909190823E85EFFF7F1FE3349A7
:1032C00009190A23E85EFFF7EBFE314909190023CB
:1032D000E85EFFF7E5FE2F4909190223E85EFFF7D4
:1032E000DFFE2D4909190423E85EFFF7D9FE2448C3
:1032F0000CF05AFC194B1B78022B00D969E70133FB
:10330000164A137065E71F490919194D0623E85E2F
:10331000FFF7C6FE1C4909190823E85EFFF7C0FE47
:103320001A4909190A23E85EFFF7BAFE1849091974
:103330000023E85EFFF7B4FE164909190223E85E90
:10334000FFF7AEFE144909190423E85EFFF7A8FE53
:10335000CDE7C046E2300020E4300020E530002018
:103360009C300020042B00202D090000F01C0020C0
:10337000D81C0020E330002010160020E41C0020A0
:10338000C0140020C01C0020C81C0020D01C00203D
:10339000A0170020A8170020B0170020C3B2052BEB
:1033A00003D880000D4B1B589F460D4B0B60083314
:1033B000136070470B4B0B6008331360F9E70A4B3F
:1033C0000B6008331360F4E7084B0B60083313609D
:1033D000EFE7074B0B6008331360EAE7640801105E
:1033E0000817002028170020181700203817002081
:1033F0004817002030B50F220D780F231D400478A8
:1034000094432C4304704C781C40250104781C40E4
:103410002C4304708D781D40447894432C434470B1
:10342000CC781C40250144781C402C4344700D7915
:103430001D40847894432C4384704C791C402501B2
:1034400084781C402C4384708D791D40C47894434B
:103450002C43C470CC791C402501C4781C402C43FB
:10346000C4700D7A1D40047994432C4304714C7A46
:103470001C40250104791C402C4304718D7A1D40A9
:10348000447994432C434471CC7A1C4025014479FF
:103490001C402C4344710D7B1D40847994432C4384
:1034A00084714C7B1C40250184791C402C43847121
:1034B0008D7B1D40C479944322002A43C271CA7B8C
:1034C0001A401201C1790B401343C37130BD0B7810
:1034D0001B071B0F03700B781B0943704B781B07EE
:1034E0001B0F83704B781B09C3708B781B071B0F56
:1034F00003718B781B094371CB781B071B0F8371FA
:10350000CB781B09C3710B791B071B0F03720B7957
:103510001B0943724B791B071B0F83724B791B09E5
:10352000C3728B791B071B0F03738B791B094373C2
:10353000CB791B071B0F8373CB791B09C3737047B0
:1035400070B50400144D154A2900FFF727FF2B68BA
:10355000134A1168526819605A60032C12D0042C67
:1035600015D0022C09D00D4B1B6800221A800A4B83
:1035700019680C48FFF7ABFF70BD084B1B680A4A7F
:103580001A80F4E7054B1B68084A1A80EFE7034BE3
:103590001B68074A1A80EAE7781D0020F81F002000
:1035A000C0080110681D002000E1FFFF00C0FFFF00
:1035B00000CAFFFF10B5084B1960084B1A60084B92
:1035C0001870084C084A2100FFF7E8FE21680748F8
:1035D000FFF77DFF10BDC046101800201418002012
:1035E000EA300020781D0020F81F0020681D002010
:1035F000024AA4235B00D0547047C0461016002036
:1036000010B5044B00221A70034B19680348FFF7EA
:103610005EFF10BDD5300020781D0020681D002001
:1036200070B590B00500364C364E22003100FFF7E1
:10363000B5FE31683448FFF74AFFFFF7E1FF00238A
:1036400000933C22002101A808F012FBA6236A4641
:103650001370557033681A781207120F69468A7012
:103660001A781209CA705A781207120F0A715A781A
:1036700012094A719A781207120F8A719A78120900
:10368000CA71DA781207120F0A72DA7812094A72CE
:103690001A791207120F8A721A791209CA725A79A4
:1036A0001207120F0A735A7912094A739A7912078C
:1036B000120F8A739A791209CA73DA791207120FF4
:1036C0000A74DB791B094B74226813881B0A8B74FC
:1036D0001388CB740D4BA42252009A5C0A75A52264
:1036E00052009B5C4B75002002F078FC00200BF030
:1036F000BBFC4022694600200BF098FC10B070BD66
:10370000EC1F0020E81F0020D81F0020101600200A
:1037100070B50A0000210F2937D803000B41DB07E1
:1037200014D40131C9B2F6E70133DBB20F2B0FD845
:103730002A4AD05C2A4A12789042F5D1294A146864
:1037400001209840228802432280EDE70023EDE724
:10375000224C234803786354224B1D6801228A407F
:103760002B8893432B8002781F4808F0EDFB1F4BFA
:1037700000221A701E4B18682100FFF73BFE1D4BFC
:1037800000201856FFF74CFF70BD002AFCD0002423
:1037900001E00134E4B20F2C14D8104B1A5D104B29
:1037A0001B789A42F5D12100134808F0CDFB0D4B50
:1037B00019680122A2400B8813430B800B4B002297
:1037C0001A70E6E70A4B18680449FFF713FE094B25
:1037D00000201856FFF724FFD6E7C046D81F002068
:1037E000D4300020EC1F00207C080110D5300020D0
:1037F000E81F0020F83000209808011070B5040080
:103800000D00084E084A3100FFF7C8FD316807482F
:10381000FFF75DFE064B1C70064B1D70064B012228
:103820001A7070BDE81F0020EC1F0020D81F002078
:10383000F8300020D4300020D530002070B52B4B5C
:103840001A680021117051701B6800229A70284B71
:103850001B78002B12D0274B1A6893789B07D90F3F
:10386000002B03DA9378022083439370214B1B686B
:103870001A78587800021043FFF74AFF01F02AFA3D
:1038800000285CD1194B196808784B781B02034358
:103890001BB2194A12685278D20609D4154A126826
:1038A0005278D206D20F1548007B824012B200E057
:1038B000002213439AB2FF2003400B70120A4A7091
:1038C0000A4B196808784B781B0203431BB20A4A5B
:1038D00012685278920613D4064A126852789206F9
:1038E000D20F0648407B824012B20AE01418002032
:1038F000D530002010180020F81F0020681D00207F
:10390000002213439AB2FF2003400B70120A4A7040
:10391000E24C2168E24803689B789B07DB0F5B0061
:103920008A780225AA4313438B70216803689B7829
:10393000DB07DA0F8B780120834313438B70D74B5F
:10394000196808784B781B0203431BB2D54A1268EA
:103950001278D20700D584E1D14A12681278D207D2
:10396000D20FD1480078824012B213439AB2FF209E
:1039700003400B70120A4A70C84B196808784B78DC
:103980001B0203431BB2C74A12681278920700D584
:1039900069E1C34A126812789207D20FC248407890
:1039A000824012B213439AB2FF2003400B70120AF6
:1039B0004A70BA4B196808784B781B0203431BB254
:1039C000B84A12681278520700D54EE1B44A12681C
:1039D00012785207D20FB4488078824012B2134353
:1039E0009AB2FF2003400B70120A4A70AB4B196861
:1039F00008784B781B0203431BB2AA4A126812785C
:103A0000120700D533E1A64A126812781207D20FC6
:103A1000A548C078824012B213439AB2FF200340F7
:103A20000B70120A4A709D4B196808784B781B027C
:103A300003431BB29B4A12681278D20600D518E1E4
:103A4000974A12681278D206D20F974800798240BE
:103A500012B213439AB2FF2003400B70120A4A704D
:103A60008E4B196808784B781B0203431BB28D4AB2
:103A700012681278920600D5FDE0894A1268127821
:103A80009206D20F88484079824012B213439AB20C
:103A9000FF2003400B70120A4A70804B19680878A7
:103AA0004B781B0203431BB27E4A126812785206FF
:103AB00000D5E2E07A4A126812785206D20F7A48AC
:103AC0008079824012B213439AB2FF2003400B70F8
:103AD000120A4A70714B196808784B781B0203432D
:103AE0001BB2704A12681278D20900D0C7E06C4A43
:103AF00012681278D2096C48C079824012B213431E
:103B00009AB2FF2003400B70120A4A70634B196887
:103B100008784B781B0203431BB2624A1268527842
:103B2000D20700D5ADE05E4A12685278D207D20FB4
:103B30005D48007A824012B213439AB2FF200340DC
:103B40000B70120A4A70554B196808784B781B02A3
:103B500003431BB2534A12685278520700D592E0D1
:103B60004F4A126852785207D20F4F48807A8240EB
:103B700012B213439AB2FF2003400B70120A4A702C
:103B8000464B196808784B781B0203431BB2454A21
:103B900012685278920700D577E0414A126852784D
:103BA0009207D20F4048407A824012B213439AB231
:103BB000FF2003400B70120A4A70384B19680878CE
:103BC0004B781B0203431BB2364A12685278120725
:103BD0005DD4334A126852781207D20F3248C07A45
:103BE000824012B213439AB2FF2003400B70120AB4
:103BF0004A702A4B196808784B781B0203431BB2A2
:103C0000284A12685278520643D4254A12685278DC
:103C10005206D20F2448807B824012B213439AB2DC
:103C2000FF2003400B70120A4A701C4B1968087879
:103C30004B781B0203431BB21A4A12685278D2090E
:103C400029D1174A12685278D2091748C07B82409E
:103C500012B213439AB2FF2003400B70120A4A704B
:103C600070BD002281E600229CE60022B7E6002219
:103C7000D2E60022EDE6002208E7002223E7002238
:103C80003DE7002258E7002273E700228EE700227A
:103C9000A8E70022C2E70022DBE7C0461418002094
:103CA00010180020F81F0020681D0020F0B5DE4627
:103CB00057464E464546E0B583B005000C00AC23A0
:103CC000CB5C002B2FD0B823CB5C9B005B58984675
:103CD000AE23E35C002B2CD0B023E65C013EF6B2B1
:103CE000E6547B4BE818C317C018584080231B01CB
:103CF0009D421CDA01277F4207F056FCB423E158AD
:103D000007F0F9FB07F072FC4743B823E35C80221D
:103D10001201944667449B001F51002E0DD1AE2323
:103D20000022E25409E080231B019846D0E70127D6
:103D3000E2E7B823E35C9B001D51AD23E35C002B5D
:103D400014D0634BEB18DA179B1853409946AF23F6
:103D5000E65C0136F6B2E654282E02D85D4B994552
:103D600012DD0023AF22A354023AA354A423E35844
:103D7000AB4200DCA0E080221201954272DA93424D
:103D800000DB97E000236EE0A823E0584B46193390
:103D9000984263DDFA2861DD07F006FC011C4E48FD
:103DA00007F093FB0190B923E75C00239B461AE0E0
:103DB00001239A4607F0F8FB019907F09CFB07F0F6
:103DC00015FC53464343180080231B019C46604466
:103DD000BB001851781C292105F006FF0F005B4637
:103DE0000133DBB29B465E450ED9BB001B59384AF6
:103DF0009818C21780185040802212019342D7DAD7
:103E000001235B429A46D5E780231B019D4223DABA
:103E100001277F42484607F0C7FB019B9946191CC2
:103E200007F069FB07F0E2FB7843B823E35C8022EC
:103E30001201944660449B001851B4234A46E25054
:103E40000023AD22A35401320121A15404360232D1
:103E5000A654013AA35489E70127DBE7A8234A4681
:103E6000E25083E70023002B0DD00123AD22A354A1
:103E70000332A354013AA354A7330022E250103373
:103E8000E25C0133E254A423E550B825605D0130C3
:103E9000292105F0A9FEC9B26155002902D1AC2340
:103EA0000122E254404603B0F0BCBB46B246A946EC
:103EB000A046F0BD0123D6E780221201934203DA27
:103EC000954203DA0023CEE70023CCE70123CAE7BB
:103ED00000F8FFFF3907000000007A4370B50D00BD
:103EE00014000D4A1368C31A0C490B6010600C498A
:103EF0002868FFF7DBFE20600A496868FFF7D6FEF6
:103F000060600949A868FFF7D1FEA060E86807492A
:103F1000FFF7CCFEE06070BDF42A0020B82400203A
:103F2000382B0020F42B0020D02C00208C2D0020DA
:103F300010B50011084A1378991C084C60540133DD
:103F4000DBB213703D2B01D8002010BD13000022FE
:103F50001A700120F9E7C046E1300020B01E0020B1
:103F600010B5444B1860444B1B6898421ED2C31ACC
:103F7000013BFA22920093421CD20023002B26D050
:103F80003E4B1B78002B1BD13D4B1B78002B65D182
:103F90000B68C93B3B4A934234D93B4B1960384BC1
:103FA00001221A70394B00221A7010E0984205D98C
:103FB000C31ADEE7304B18600123DFE70023DDE79B
:103FC000314B1B681868FFF7B3FF002800D110BD04
:103FD0002F4BA5221A702D4A12785A702D4801F0E5
:103FE000FDFF002805D10023244A1370244A1370D2
:103FF000EDE74022264900200BF018F800200BF0D6
:1040000033F8F0E74B68C93B1E4A934208D90431A4
:104010001D4B196001231A4A13701C4A1370D6E70E
:104020008B68C93B174A934209D90831164B19606E
:10403000134B01221A70154B01321A70C7E7CB6877
:10404000C93B104A9342C2D90C310F4B19600C4B3B
:1040500001221A700D4B02321A70B8E70A4B1B6826
:104060001B68C93B074A9342B1D8044B01221A701E
:10407000ADE7C046A0300020082B0020D73000203C
:10408000DE3000206D0E0000602F0020F330002095
:10409000B01E00208813000010B507F011FA041CB0
:1040A0000B4907F077FA002806D00949201C07F0D1
:1040B00002FA041C201C10BD0021201C07F054FA39
:1040C0000028F7D00249201C07F0FAF9041CF1E798
:1040D0000000B44310B50449FFF7DEFF07F086FA8D
:1040E0002D2105F081FD10BD0000B441F8B5CE468C
:1040F000474680B581460E0000231CE03168002051
:10410000FFF7CAFF051C71682948FFF7C5FF071CA8
:10411000011C281C07F03EFA00282FD0291C484615
:1041200007F030FA00283FD1391C484607F01CFA46
:1041300000283BD12300072B2ED85C1CE4B2072BB0
:104140002CD0002BDAD01D009B00F158194FD85904
:10415000FFF7A2FF8046A300F158D859FFF79CFF54
:10416000071C4946404607F005FA0028E2D04946B8
:10417000381C07F00FFA0028DCD010E0291C484654
:1041800007F000FA0028D5D0391C484607F0ECF9B2
:104190000028CFD0002502E0002500E007252800F8
:1041A000C0BCB946B046F8BD0025F8E70025F6E7E3
:1041B00000003442C808011070B5CD1A801A07F00B
:1041C000F3F9041C280007F0EFF9211C07F064FA4A
:1041D000114907F090F907F043FA104A104B05F027
:1041E00084FF06F065F8041C002107F0BDF90028E3
:1041F0000BD10C49201C07F0C5F900280AD0094949
:10420000201C07F058F9041C04E00649201C07F0A4
:1042100057F9041C201C70BD00003443182D445471
:10422000FB2109400000B443F8B50C0017001E0044
:1042300007F0BAF9051C380007F0B6F9011C281C74
:1042400007F039F9051C200007F0AEF9041C300016
:1042500007F0AAF9011C201C07F02DF9041C291CE9
:10426000281C07F048F9051C211C201C07F043F905
:10427000011C281C07F024F907F0FCF9F8BD000028
:10428000F8B50F00160007F0EBF90B4A0B4B05F0E1
:104290004AFF06F00DF807F0E3F904000D0006F000
:1042A0001DF806F005F838602000290006F02CF80B
:1042B00005F0FEFF3060F8BD399D52A246DF913F08
:1042C000F0B5DE4657464E464546E0B585B08046D9
:1042D000019116001F001100FFF708FF0400451CA4
:1042E000072800D188E0AD00464B9B467159E8583D
:1042F000FFF7D2FE8246A3009946F1585B464A4634
:10430000D058FFF7C9FE80231B06C618311C504643
:10431000FFF7C2FE8246311C4046FFF7BDFE514604
:1043200007F0D3F8061C011CFE20800507F0C3F837
:1043300080467859311C07F0DEF8051C4B46F858CA
:10434000414607F0D8F8011C281C07F0B9F8051CF5
:104350002D49301C07F0CFF8061C63001C19200102
:10436000001B07F021F9011C301C07F0A9F80023FD
:104370000393029302AA03A9FFF782FF0199281C65
:1043800007F0B9F8051C039907F0B5F8041C039071
:10439000291C029807F0AFF802908A21C905201C59
:1043A00007F08EF807F0B4FA07F020F9002825DBB3
:1043B00080235B01984200DB144807F0F5F80E9B60
:1043C00018608A21C905029807F07AF807F0A0FA68
:1043D00007F00CF9002813DB80235B01984200DB17
:1043E0000A4807F0E1F80F9B186005B0F0BCBB4627
:1043F000B246A946A046F0BD002574E70020DEE7DE
:104400000020F0E7C808011000003442FF0F000050
:10441000F8B507000E00002409E0A50079597519C8
:104420008A20C00507F051F828600134E4B2072C57
:10443000F3D9F8BD30B51A481A4B1A005C320100A6
:1044400031CA31C131CA31C111CA11C116481A006D
:104450007C32010031CA31C131CA31C111CA11C126
:10446000124AD9681160124A59691160114A1969D2
:104470001160114A9969116010481A001C3201003C
:1044800031CA31C131CA31C111CA11C10C493C33E1
:104490000A0013CB13C213CB13C203CB03C230BD2C
:1044A000441200201016002084120020101F00204B
:1044B000381F0020141F00203C1F0020F01E002089
:1044C000181F002010B5094B1B68094A12680949DA
:1044D000096809480068FCF7B9FE08490848FCF774
:1044E000BFFE08490848FCF7CDFE10BD3C1F002068
:1044F000381F0020141F0020101F002084120020ED
:1045000044120020181F0020F01E002010B504499E
:104510000448FFF77DFF04490448FFF779FF10BD09
:104520006412002044120020A412002084120020F3
:1045300010B50C4B00221A80203200210A4807F0E7
:1045400097FB20220021094807F092FB202200213E
:10455000074807F08DFB20220021064807F088FB62
:1045600010BDC046CC300020441200208412002030
:10457000F01E0020181F0020F0B5DE4657464E46BC
:104580004546E0B585B004004E4B9B464E4E1B6839
:10459000326841680068FFF70FFE80464B4D4C4F74
:1045A0002B683A68E168A068FFF706FE8246029031
:1045B000434601934046FFF78DFD81465046FFF785
:1045C00089FD03905B461B68326861682068FFF7CD
:1045D0002BFE82462B683A68E168A068FFF724FE4C
:1045E0008046019807F03CF800223A4B05F0B6FFF0
:1045F00005F05EFE041CFE21890506F0B5FF0028CB
:1046000005D13549201C06F0C5FF00281AD04B46BD
:104610009B00324A9858514606F0A6FF002811D058
:104620002F49504606F0B6FF00280BD04B469A00A3
:104630002A4B5146D15001224B469A4029490B88BA
:1046400013430B80029807F00BF80022214B05F072
:1046500085FF05F02DFE041CFE21890506F084FF70
:10466000002805D11C49201C06F094FF002819D011
:10467000039CA3001C4A9858414606F075FF002889
:1046800010D01749404606F085FF00280AD0A20046
:10469000154B4146D15008340122A24011490B88E4
:1046A00013430B800F4B1888104B9C4660444342C9
:1046B0005841C0B205B0F0BCBB46B246A946A046C0
:1046C000F0BDC046141F0020101F00203C1F00201A
:1046D000381F002000804640000030424412002075
:1046E0000000FA42CC300020841200200100FFFFBD
:1046F000064B02681A60064B42681A60054B8268D6
:104700001A60C268044B1A607047C046101F002030
:10471000141F0020381F00203C1F0020F0B5D64693
:10472000474680B583B004003D4B9A463D4D1B681B
:104730002A6841680068FFF73FFD80463A4F3B4ECC
:104740003B683268E168A068FFF736FD0190534688
:104750001B682A6861682068FFF766FD051C3B68D6
:104760003268E168A068FFF75FFD041C3049281C2F
:1047700006F010FF00280BD12D49201C06F00AFF7F
:10478000002828D1002003B0C0BCBA46B046F0BD16
:104790004046FFF79FFC041E10D12649404606F014
:1047A000F1FE002806D02449404606F084FE234B43
:1047B00018600BE0214B42461A6007E08600204B50
:1047C000F158404606F077FE1C4B9851A4001D4B53
:1047D000E5500120D7E7019E301CFFF77BFC051E4A
:1047E00010D11449301C06F0CDFE002806D0124925
:1047F000301C06F060FE144B18600BE0124B019A5F
:104800001A6007E087000E4BF958019806F053FE36
:104810000D4BD851AD000D4BEC500120B3E7C04615
:10482000141F0020101F00203C1F0020381F0020F4
:104830000000FA4200809D430000B443F01E0020B7
:10484000C808011044120020181F00208412002004
:10485000F0B5DE4657464E464546E0B587B0040003
:104860000D002B4B9B462B4B98465B461B684246E4
:10487000126841680068FFF79FFC8246264F274E6A
:104880003B683268E168A068FFF796FC81465B46AA
:104890001B684246126861682068FFF7C5FC8046C5
:1048A0003B683268E168A068FFF7BEFC041C002387
:1048B000059304930393029304AB019305AB009318
:1048C000174B184A41465046FFF7FAFC02AB0193DA
:1048D00003AB0093144B154A211C4846FFF7F0FC2C
:1048E000059806F083FE2860039806F07FFEA86016
:1048F000049806F07BFE6860029806F077FEE86098
:1049000007B0F0BCBB46B246A946A046F0BDC046C3
:10491000141F0020101F00203C1F0020381F002003
:1049200064120020F01E0020A4120020181F002096
:104930000023044A1360044A1360044A1360044AC3
:1049400013607047401D0020441D0020A81E002059
:10495000AC1E002010B5E1200004FCF7A3FEFCF71C
:104960007BFEFFF7E5FD0023034A1370034A137033
:10497000034B01221A7010BDD0300020D23000202D
:10498000D130002010B50B4C20600B4801600B4962
:104990000A600B4C2360FFF74DFDFFF7B7FD23685E
:1049A0005A7830231340302B00D010BDFFF7D2FFD0
:1049B000FBE7C046C41A0020C81A0020C01A002015
:1049C0000C18002010B5FCF7E9FEFCF745FE094B7A
:1049D00000221A70FE208005FCF70AF8C82003F0B8
:1049E000E1F80020FCF704F8FFF76CFDFFF78EFDFF
:1049F00010BDC046D130002010B5FCF7CFFEFCF74B
:104A00002BFE0B4B00221A70FE208005FBF7F0FFF7
:104A1000C82003F0C7F80020FBF7EAFFFFF752FDBC
:104A2000FCF7B0FBC82003F0BDF8FFF76FFD10BD29
:104A3000D130002010B5024B1868FFF76FFE10BD93
:104A4000C41A002010B5134B1B78002B0CD1124B4D
:104A50001868FFF74DFE0F4B01221A700F4B1B68B1
:104A60009B789B0713D410BD0B4B1868FFF784FD90
:104A70000028F3D00A4B1B78002BEFD1084B012202
:104A80001A700848FCF70EFEFCF7E6FDE6E7FFF7B4
:104A9000B3FFE8E7D2300020C41A00200C18002031
:104AA000D03000200080008070B5C41780252D0113
:104AB0000026A8427441E4B20B4D4519EE17AD191A
:104AC00075401E78A64203D01C701560086070BD4A
:104AD0001368AB4202DA15600860F8E780231B0117
:104AE0009842F4D10B60F2E700F8FFFF70B50400C4
:104AF000274B1860274B1B68984207D2C31A013B0B
:104B0000C72B07D80023002B0AD170BD984205D9C6
:104B1000C31AF5E71F4B1C600123F4E70023F2E7FB
:104B20001D4B1868FBF720FE1C4B1B78002B02D096
:104B3000FFF788FFE9E71A4E174B18683100FFF7B7
:104B400087FE184D2A6831002000FFF7C7F92B684F
:104B5000154C1868154B164A2168FFF7A5FF2B68FE
:104B6000216808319868134B134AFFF79DFF2B68A3
:104B70002268111D5868114B114AFFF795FF2B68E9
:104B800021680C31D8680F4B0F4AFFF78DFFBCE747
:104B9000A43000200C2B0020C41A0020D1300020AB
:104BA000482E0020C01A0020C81A0020E63000203D
:104BB000401D0020E7300020A81E0020ED3000201E
:104BC000441D0020EE300020AC1E002070B5040013
:104BD0000D00394B1860394B1B6898422CD2C31A10
:104BE000013BFA22920193422AD20023002B0CD0DF
:104BF000AB780422110019401A4227D0304B1B78A1
:104C0000002B23D12E4B033A1A70AB78DB0801221C
:104C100053400122110019402A4804601A423BD136
:104C2000294B1B689C423BD2E31A013B274A934223
:104C30003AD800293CD170BD984205D9C31AD0E7B3
:104C40001E4B1C600123D1E70023CFE70029DCD1F4
:104C50001B4B1B78012BD8D11D4A137801214B40E7
:104C6000DBB21370164A00211170002B11D0062000
:104C7000FCF730FD00210520FCF72CFD002103206E
:104C8000FCF728FD00210420FCF724FDFCF7E4FCE0
:104C9000BBE7FCF783FDF9E70B4B1C600021C8E77D
:104CA0009C42C6D9E31AC1E7074B1C600121C0E74B
:104CB000FCF756FEBFE7C046C0300020282B00207E
:104CC000EF300020A8300020102B0020BFC62D00A0
:104CD000F1300020014B18787047C046F0300020BA
:104CE000F8B5DE4657464E464546E0B504000D0091
:104CF000C14B21221A70086806F056FCBF4906F025
:104D0000FAFBBF4906F0DCFB8246686806F04CFC03
:104D1000BA4906F0F0FBBA4906F0D2FB8146A86812
:104D200006F042FCB54906F0E6FBB54906F0C8FBC3
:104D30008046E86806F038FCB04906F0DCFBB04974
:104D400006F0BEFB071C2278D206D20FAD4B012124
:104D50008C461978604681430A431A70227892067D
:104D6000D20F520018780221884302431A70227829
:104D70005206D20F92001E780420864332431A70E6
:104D80002278D209D20093461A7806318A435E46C9
:104D900032431A706278D206D60F31005E786246CE
:104DA000964332000E0016435E7062789207D20F6F
:104DB000D2005E7808218E4332435A70627812071F
:104DC000D20F92005E78864332435A706678760737
:104DD000F60F7000D2B206398A4302435A7000219E
:104DE000504606F0C1FB00280AD18749504606F01C
:104DF000D1FB002818D1504606F02AFCC0B200E0D2
:104E00000020804B98700021484606F0ADFB00283A
:104E10000CD17D49484606F0BDFB00281AD1484612
:104E200006F016FCC0B202E0FF20EAE70020754B56
:104E3000D8700021404606F097FB00280CD172493B
:104E4000404606F0A7FB00281AD1404606F000FCB9
:104E5000C0B202E0FF20EAE700206A4B187100218F
:104E6000381C06F081FB00280CD16749381C06F07D
:104E700091FB002836D1381C06F0EAFBC0B202E0F4
:104E8000FF20EAE700205F4B587122789207D20F8B
:104E900092011978402081430A431A702278D20780
:104EA000110E18787F2202400A431A7022785207A6
:104EB000D20F12011978102081430A431A70227808
:104EC0001207D20F52011978103081430A431A7029
:104ED0004E4AA4235B00D35C052B05D89B004C4AAB
:104EE000D3589F46FF20CEE7637802221100194075
:104EF0001A4200D0FF21434B9971637808221100B8
:104F000019401A4200D0FF213E4BD971414B1B780A
:104F1000002B00D0B8E0384B14225A70103A9A7225
:104F2000DA741A773B4B033A1A7025223249002073
:104F3000FDF7AAFBFFF7FCFCF0BCBB46B246A94656
:104F4000A046F8BD6278D30712D53049A5235B008F
:104F5000CB5C92070ED4DBB22A4A937163780822A5
:104F6000110019401A4200D0FF21264BD971CDE71C
:104F70000023EEE7FF23EFE76278D30712D523493A
:104F8000A5235B00CB5C12070ED4DBB21D4AD371A4
:104F900063780222110019401A4200D0FF21194BF8
:104FA0009971B3E70023EEE7FF23EFE7637802226E
:104FB000110019401A4200D0FF21124B99716378F9
:104FC0000822110019401A4200D0FF210D4BD9715F
:104FD0006378DB079AD50B4B1A7801210A431A70C4
:104FE000FF229A71DA715A7808210A435A70D2B2B4
:104FF00004210A435A7089E7C025002082E2473D18
:105000000000E0411C26002000007F431016002015
:10501000E8080110DA3000206378DB07DB0F1E4A56
:105020001E437600537802218B431E4356706378EB
:105030009B07DB0FDB00F1B2082081430B43537069
:1050400063781B07DB0F9B005178043881430B43C7
:10505000537063780222110019401A4200D0FF21D8
:105060000D4B997163780822110019401A4200D043
:10507000FF21094BD97149E72B691B11064A93712E
:105080006B691B11D37141E70448082202490230C1
:1050900006F0F4FD49E7C0461C260020C02500208C
:1050A000F0B5DE4657464E464546E0B591B006009F
:1050B0008B4690461D001A9C1022002108A806F07D
:1050C000D7FD80235B020893F8235B0209938023BA
:1050D000DB020A93C0231B030A93102208A904A829
:1050E00006F0CCFD42461332059B0393494B0399CE
:1050F0000B404146C9010B43120313430593079A22
:105100000392D200D2088021C9050A430792424A7D
:1051100013400B4305930CAB9946102204A91800C9
:1051200006F0ACFD22004B4683CB83C21B681360A4
:10513000280001F0EFFB394B9E4266D00721280082
:1051400001F0B6FB0023009301332A0059463000DA
:1051500007F0E0FD324BE2681340EA031343E360DB
:10516000304A13402B43802252031343E3602E4BFB
:10517000626813402A0613436360052003F0F4FAC3
:105180002A4904F059FD06F00AFA824606F060FA50
:1051900083B29946002B3AD0180006F000FA011CA1
:1051A000504606F088F98721C90506F0A4F906F0F3
:1051B0004FFAC0B200024B461B04184320601C4B40
:1051C000E2681340AD021D43E5601A4AA3681A4025
:1051D00081231B041343A360174A1340174A134348
:1051E000A360230042465946300007F0E5FD3268CF
:1051F000012359468B409A431343336011B0F0BCEE
:10520000BB46B246A946A046F0BD062197E700205E
:10521000D0E7C0467F00FEFFFFFFFF9F0000205049
:10522000FF7FF0FFE0FF0FFCFFFFFFE000093D0004
:10523000FF83FFFFFFFF0AFEFFFFF5C10000021022
:1052400070B582B0104B1B6B9B0701D402B070BDD0
:105250000D4C022323630D4B1E6823680125AB43CD
:10526000236000230093013303220021200007F074
:1052700051FD074B32000021200007F09DFD2368FF
:10528000AB432B432360E1E700003050641B002058
:105290004C1B00200B4B5B68DB03FBD4094B9022BB
:1052A00012051A61074B5B68DB03FBD4054B002238
:1052B0001A61044B5B68DB03FBD4024BC0229204EF
:1052C0001A61704700003050254B5B68DB03FBD44C
:1052D000234B00221A61224B5B68DB03FBD4204B7B
:1052E000802212061A611E4B5B68DB03FBD41C4B49
:1052F000802212061A611A4B5B68DB03FBD4184B41
:10530000802212061A61164B5B68DB03FBD4144B38
:10531000802212061A61124B5B68DB03FBD4104B30
:10532000802212061A610E4B5B68DB03FBD40C4B28
:1053300000221A610A4B5B68DB03FBD4084B002296
:105340001A61074B5B68DB03FBD4054B00221A6133
:10535000034B5B68DB03FBD4014B00221A617047EF
:105360000000305010B5254B1A781206244B5B68AC
:10537000DB03FBD4224B1A61204B5A781206204BD8
:105380005B68DB03FBD41E4B1A611C4B9A78120638
:105390001B4B5B68DB03FBD4194B1A61174BDA78A4
:1053A0001206174B5B68DB03FBD4154B1A61134BDA
:1053B0001A791206124B5B68DB03FBD4104B1A619F
:1053C0000E4B5A7912060E4B5B68DB03FBD40C4B79
:1053D0001A610A4B9A791206094B5B68DB03FBD40E
:1053E000074B1A61054BDA791206054B5B68DB0344
:1053F000FBD4034B1A61FFF79BFA10BDC8120020C3
:105400000000305070B582B00D4B1E680D4C236803
:105410000125AB43236000230093013303220021C5
:10542000200007F077FC084B32000021200007F035
:10543000C3FC2368AB432B43236002B070BDC0465E
:10544000641B0020000030504C1B002010B50A4B9C
:105450001B6BDB070ED50123084A1370064A136342
:10546000282201E0C0461A00531E9BB2002AF9D13F
:105470000AF00AFC10BDC04600003050DB300020AE
:10548000F0B5D6464F464646C0B582B00D00140072
:10549000D14B1B78002B3CD1962002F083FBCF4EE2
:1054A000CF49300007F01AFCCE4F3860CE4D0923AB
:1054B0002B60CE4C0133236080239B01CC4A1A43DE
:1054C000802149001160CB4A1343802292001A6068
:1054D000C949286801F03EFBC849206801F03AFB41
:1054E0003A68C74B0093032300213000FFF7D8FD33
:1054F0002868012101F01EFB2068012101F01AFB40
:10550000B54B01221A7002B0E0BCBA46B146A846BB
:10551000F0BDBC4A1278D1B2BB4E3060002A00D038
:105520009CE0BA4A1268904200D39BE0821A013A8A
:10553000B74EB24200D99AE0002900D09BE0B54BAB
:105540001B78B54A1278934208D0B34A1370002BE7
:1055500000D196E0FE208005FBF74AFAA94B002215
:105560001A70AE4B5978803A0A435A702A78D1069D
:10557000C90F18780126B043014319709106C90F6D
:10558000480019780136B143014319705106C90F1B
:10559000880019780236B14301431970D209D2004C
:1055A000C9B2082081430A431A706A78D106C90F2C
:1055B000080119781027B943014319709107C90FE1
:1055C000880159783C36B143014359701107C90F1E
:1055D00048015978203EB143014359705207D60F14
:1055E00031015A78BA430A435A70206805F0DCFF4B
:1055F0008B4905F080FF8B4905F062FF82466068A9
:1056000005F0D2FF864905F076FF864905F058FF80
:105610008146A06805F0C8FF814905F06CFF81490B
:1056200005F04EFF8046E06805F0BEFF7C4905F0BE
:1056300062FF7C4905F044FF071C0021504605F03D
:1056400093FF00281FD17849504605F0A3FF00289A
:105650002DD1504605F0FCFFC0B215E06B4B186031
:10566000002169E7904200D866E7821A60E7674A3E
:105670001060190060E7FFF7C5FE642002F092FA9F
:1056800041E7002068E70020644B987000214846FD
:1056900005F06AFF00280CD16349484605F07AFFFF
:1056A00000281AD1484605F0D3FFC0B202E0FF201F
:1056B000EAE70020594BD8700021404605F054FF1E
:1056C00000280CD15849404605F064FF00281AD143
:1056D000404605F0BDFFC0B202E0FF20EAE700202F
:1056E0004E4B18710021381C05F03EFF00280CD1EC
:1056F0004D49381C05F04EFF002832D1381C05F00A
:10570000A7FFC0B202E0FF20EAE70020434B587138
:105710002A789107C90F880059780427B9430143B3
:1057200059705107C90F5878033FB8430143597066
:105730001107C90F480059780137B943014359701F
:10574000D207120FC9B2082081430A435A70374A60
:10575000A4235B00D35C052B05D89B00344AD358A7
:105760009F46FF20D2E76B780222110019401A42AF
:1057700000D0FF21294A91710822110019401A42D4
:1057800000D0FF21254BD971BDE66B78DA0704D52F
:105790002649A52252008A5C00E00022990701D424
:1057A000D2B200E0FF221D498A710822110019407F
:1057B0001A4200D0FF21194BD971A4E66B78DA07A1
:1057C00004D51A49A52252008A5C00E0002219077C
:1057D00030D4D2B22FE0C046DD300020000030507F
:1057E00018090110641B00205C1B0020601B0020B6
:1057F0002C013050380130504D54001041520010EF
:105800004C1B0020DB300020AC300020142B00208B
:105810003F9C0000DC300020EC300020C81200204B
:1058200082E2473D0000E04100007F431016002067
:1058300000090110FF222A49CA71022211001940F1
:105840001A4200D0FF21264B99715CE66B78022248
:10585000110019401A4200D0FF21214A91710822FB
:10586000110019401A4200D0FF211D4AD171DB07F7
:1058700000D448E61300127801210A431A70FF226F
:105880009A71DA715A7840210A435A70D2B22021B3
:105890000A435A7037E66B78DA07D20F104916437D
:1058A00036014A781020824316434E7002221100BE
:1058B00019401A4200D0FF21094A917108221100B3
:1058C00019401A4200D0FF21054BD9711BE623690C
:1058D0001B11034A937163691B11D37113E6C04610
:1058E000C8120020F0B5DE4657464E464546E0B5A4
:1058F00091B006008B4690461D001A9C1022002194
:1059000008A806F0B5F980235B020893F8235B0230
:1059100009938023DB020A93C0231B030A931022FE
:1059200008A904A806F0AAF942461332059B03937E
:10593000494B03990B404146C9010B4312031343E2
:105940000593079A0392D200D2088021C9050A4321
:105950000792424A13400B4305930CAB9946102221
:1059600004A9180006F08AF922004B4683CB83C2B3
:105970001B681360280000F0CDFF394B9E4266D0B3
:105980000721280000F094FF0023009301332A0030
:105990005946300007F0BEF9324BE2681340EA0383
:1059A0001343E360304A13402B43802252031343D6
:1059B000E3602E4B626813402A06134363600520A0
:1059C00002F0D2FE2A4904F037F905F0E8FD8246DC
:1059D00005F03EFE83B29946002B3AD0180005F040
:1059E000DEFD011C504605F066FD8721C90505F066
:1059F00082FD05F02DFEC0B200024B461B04184389
:105A000020601C4BE2681340AD021D43E5601A4A5A
:105A1000A3681A4081231B041343A360174A134051
:105A2000174A1343A360230042465946300007F04B
:105A3000C3F93268012359468B409A4313433360BC
:105A400011B0F0BCBB46B246A946A046F0BD062147
:105A500097E70020D0E7C0467F00FEFFFFFFFF9FD3
:105A600000002050FF7FF0FFE0FF0FFCFFFFFFE092
:105A700000093D00FF83FFFFFFFF0AFEFFFFF5C1A6
:105A80000000021070B582B0104B1B6B9B0701D455
:105A900002B070BD0D4C022323630D4B1E682368BA
:105AA0000125AB432360002300930133032200212F
:105AB000200007F02FF9074B32000021200007F0EB
:105AC0007BF92368AB432B432360E1E700003050B0
:105AD000601D0020481D0020024B185CC043C0B26E
