:020000041000EA
:1000000000B5324B212058609868022188439860DF
:10001000D860186158612E4B002199600221596106
:100020000121F02299502B49196001219960352056
:1000300000F044F80222904214D00621196600F024
:1000400034F8196E01211966002018661A6600F04E
:100050002CF8196E196E196E052000F02FF8012189
:100060000842F9D1002199601B49196000215960AB
:100070001A491B48016001219960EB211966A021F2
:10008000196600F012F800219960164914480160C1
:100090000121996001BC002800D000471248134993
:1000A000086003C880F30888084703B5996A0420EC
:1000B0000142FBD001200142F8D103BD02B5186610
:1000C0001866FFF7F2FF186E186E02BD00000240BE
:1000D000000000180000070000035F00212200005C
:1000E000F4000018222000A00001001008ED00E03C
:1000F00000000000000000000000000074B24E7A12
:1001000000200420F7010010C3010010C5010010F9
:10011000C1010010C1010010C1010010C101001097
:10012000C1010010C1010010C1010010C701001081
:10013000C1010010C1010010C9010010CB01001065
:10014000CD010010CD010010CD010010CD01001037
:10015000CD010010CD010010CD010010CD01001027
:10016000CD010010CD010010CD010010CD01001017
:10017000CD010010CD010010CD010010CD01001007
:10018000CD010010CD010010CD010010CD010010F7
:10019000CD010010CD010010CD010010CD010010E7
:1001A000CD010010CD010010CD010010CD010010D7
:1001B000CD010010CD010010CD010010CD010010C7
:1001C00000BE00BE00BE00BE00BE00BEEFF3058054
:1001D000103800BEF2EB8871A4750110D0750110C3
:1001E0003402001090A31AE700201F49086006C8D7
:1001F00081F3088810471D48006800282FD10DA4FE
:100200000ECC002902D000F012F8F9E71849194A7B
:10021000002000E001C19142FCD1174988471749ED
:1002200088471749884700BEFDE701C901C29A42C5
:10023000FBD37047D0750110C000002008180020C3
:10024000188D01100000042000000420188D0110FA
:10025000001004200010042000000000704709482E
:100260000EF0CAF80047000008ED00E0000000D0E2
:1002700028180020603F002081D100102D080010B8
:100280003DD100105756000006005250ABB36053EA
:10029000986B011006005250861C0302A86B0110D7
:1002A000060052505422A29DC06B0110050052500E
:1002B000DE65F468188D0110F8B5C04610B5064C1F
:1002C0002378002B07D1054B002B02D0044800E017
:1002D00000BF0123237010BD281B00200000000078
:1002E00000420110044B10B5002B03D00349044811
:1002F00000E000BF10BDC046000000002C1B002025
:100300000042011070B500290AD001248440D02594
:100310002D06AC62002200210AF0A0FE6C6170BDC7
:1003200001248440D0252D066C62002200210AF0B1
:1003300095FEAC61F3E7000010B504004378DB07DD
:1003400013D463781022110019401A4203D0124BC3
:100350001B78002B0FD0002903D10F4B1B78002BEB
:1003600011D10A200BF0DCFF10BD0022002100207B
:100370000CF0A8FEE5E7084B0F3A1A7000210E209A
:10038000FFF7C0FFEDE701310E20FFF7BBFF024B87
:1003900000221A70E5E7C046543F002070B50028DF
:1003A0000ED0D024240680252D05656164200BF035
:1003B000B7FF0223636164200BF0B2FFA56170BD3B
:1003C000D024240680252D05656164200BF0A8FF4C
:1003D0000223A36164200BF0A3FFA561EFE710B532
:1003E000002804D001210E20FFF78CFF10BD002152
:1003F0000E20FFF787FFF9E710B5002001F0E3F8C2
:100400000F2001F0E0F8062001F0CEF8082001F0FE
:10041000CBF80B2001F0C8F80C2001F0C5F80D2036
:1004200001F0B2F80A2001F0AFF8072001F0ACF8B3
:10043000092001F0A9F81849184811F033F80121F2
:1004400012200AF0F3FD012113200AF0EFFD012133
:1004500014200AF0EBFD10200AF01AFED024240626
:1004600080235B026362636116200AF011FE802321
:10047000DB036362636111200AF00AFE80239B02A2
:100480006362636115200AF003FE80239B036362AD
:10049000636100F083FC10BD80841E0000C0034037
:1004A000F8B5DE4657464E464546E0B50400D02630
:1004B000360680239B019846B361052000210BF08E
:1004C00003FF7368DB0A01252B405A425341012781
:1004D0003B401B01227810218A4313432370736829
:1004E0001B0B2B405A4253413B405B01227820209A
:1004F00082431343237073689B092B405A42534134
:100500003B409B01227830318A4313432370736848
:100510001B0A2B405A425341DB0122783F310A40EB
:1005200013432370434673618023DB009B46B36112
:10053000052000210BF0C8FE73681B0B2B405A42AC
:1005400053413B409B002278042189468A43134350
:1005500023707368DB0A2B405A4253413B40DB0057
:100560002278043188468A431343237073681B0A38
:100570002B405A4253413B405B00227806398A4661
:100580008A431343237073689B092B405A4253419B
:100590003B402278AA43134323705B467361802358
:1005A0009B46B361052000210BF08EFE73689B090A
:1005B0002B405A4253413B401B01627810218A4331
:1005C0001343637073681B0A2B405A4253413B40EC
:1005D0005B00A278504682431343A37073681B0BE1
:1005E0002B405A4253413B40A278AA431343A37085
:1005F0007368DB0A2B405A4253413B405B016278EF
:100600001E308243134363705B4673618133FF3353
:100610009B46B361052000210BF056FE73681B0A50
:100620002B405A4253413B409B00627848468243EC
:100630001343637073681B0B2B405A4253413B407A
:100640006278AA431343637073689B092B405A4234
:1006500053413B405B0062785046824313436370D2
:100660007368DB0A2B405A4253413B40DB006278FF
:1006700040468243134363705B46736173682B404B
:100680005A425341DB016278773002401343637072
:100690007368DB0B2B405A4253413B409B0162780D
:1006A0003F3882431343637073689B081D406B425D
:1006B0005D413D40AD00A3784A4693431D43A5707C
:1006C00062783F23100098430300C03B59424B41DE
:1006D0001F40FF00EBB2404683431F43A770D20682
:1006E000D20F1201FBB210218B431A43A270F0BC4F
:1006F000BB46B246A946A046F8BD0000F0B5DE46AE
:1007000057464E464546E0B585B00400404B9846F6
:10071000180013F065FD03AF3E4B1A883A800023A2
:10072000BB7002AE3280B37001AD2A80AB706946F7
:100730000A808B70D0231B06994680235B029A4661
:100740004B4652469A61344B9B4603233A00D021D4
:10075000584613F0ADFC4B4652465A619A6103234A
:100760003200F021584613F0A3FC4B4652465A6122
:100770008023DB039A464B4652469A6103236A461E
:10078000F021584613F094FC4B4652465A619A6148
:1007900003232A00D021584613F08AFC4B465246C8
:1007A0005A613B785B027A785200E02109010B40E4
:1007B0001343BA78D2091343236033785B0272780B
:1007C00052000B401343B278D209134363602A7876
:1007D00052026B785B000A401A43AB78DB091A437C
:1007E000A2606B461B785B026A46527852000B404F
:1007F00013436A469278D2091343E360404613F0EC
:100800005FFC05B0F0BCBB46B246A946A046F0BDB1
:10081000A81700200042011000C0034010B5024B91
:10082000186000F0DBF810BDE83E002010B584B081
:100830000FF014FE64200BF073FDFFF7DDFD0E20BA
:100840000AF026FC0020FFF7CAFD1B200AF020FC5E
:10085000D024240680231B056362A36101200AF0D3
:1008600017FC02236362A36102200AF011FC042337
:10087000A3620022012102200AF0F0FB0C220021D9
:1008800001A80FF073FC01A8FFF70AFE124B9B882A
:100890006A46138063685B0703D401AB5B78DB07B0
:1008A00013D401AB5B785B0709D5D0231B065B68CB
:1008B0005B0704D402236A461370053353706846FD
:1008C00000F042FD002004B010BD04480DF094FD7E
:1008D0000300002108009847004201105542000023
:1008E0001A4B1B681A4A126893421CDA0A33174AD9
:1008F0001360164B1B68002B23D1FF331B04154AD2
:10090000126853401B0C1B04134A13600F4B1B68E7
:10091000002B18DB9BB20F4A126853401B041B0CC0
:100920000D4A136070470A3B084A13600B4A12686D
:10093000934201DC054B1A60044B1A68044B1A60A1
:10094000D7E70023DAE70023E4E7C046802D002044
:100950007C2D00205C0005405C100540882D0020A7
:10096000F8B5061C0C1C184B1F68002F2AD00FF07E
:1009700039FA002800D0341C0021201C0FF032FA74
:10098000002808D0FD218905201C0FF0DCF90F4953
:100990000FF0BEF9041C0E49201C0FF0D4F90FF023
:1009A0007FFA85B20021201C0FF01CFA002801D02C
:1009B000ED19ADB2074B1D60074B1B689D4201DD71
:1009C000054B1D60F8BDC046842D00209A99193E44
:1009D00000004842882D00207C2D002010B5FA210F
:1009E0000B4A490102F0F6FA002800D110BD00239D
:1009F00000220849012002F02DFC002802D1FFF757
:100A00006FFFF3E7034B59681868FFF7A9FFF6E794
:100A1000DC3A00206833002010B5FE218905002053
:100A2000FFF79EFF002407E0FFF75AFF0CF0F8FAEB
:100A300008200BF075FC01343D2CF5DD0020011C75
:100A4000FFF78EFFFFF74CFF10BD0000F0B5C64664
:100A500000B582B018200AF01BFB19200AF018FB21
:100A6000D0231B06802252045A62802292045A62CA
:100A7000042118200AF0DAFA042119200AF0D6FA23
:100A8000304F04233B60304D2B60304BFF221A6601
:100A90001A662F4C23681B0C1B042E4803602A681F
:100AA00093009B189A002C4B9C4662441168FF23CC
:100AB0001B0498465940090C0904802676013243EC
:100AC00011603A68910089188A00204B9C46624464
:100AD000176801210B00BB43324313602A6895005D
:100AE000AD18AA0062441568A94316433160226814
:100AF000434653401B0C1B04036023681B041B0C60
:100B00000360962000210BF0DFFB6B46DC1D991D76
:100B1000200000F0C1FA2378104A13601A1CCD2B74
:100B200000D9CD2232320E490A70002B02D10B4A75
:100B300013600B70AF2040000BF0F2FB02B080BCE2
:100B4000B846F0BD6C3B0020B834002000000540E2
:100B50005C0005405C1005400C000540842D002021
:100B6000343F00200902084300B2704770B582B0DC
:100B7000D02424068025AD02A5616B4618715971F9
:100B80000B4E022201A9300013F0E2FA6561022047
:100B90000BF0C6FB8025AD03A561022201A9300040
:100BA00013F0D6FA656102200BF0BAFB02B070BDFB
:100BB00000C00340F0B5DE4657464E464546E0B518
:100BC00085B006000D00724B9B46180013F008FB21
:100BD00001AC002301930822002102A80FF0C6FAFD
:100BE00003236B449A46A22352461370D0231B065C
:100BF00098468027BF029F61664B99460122514665
:100C0000180013F0A5FA0C2322000021484613F027
:100C10004FFA43465F6161782078FFF7A3FF4042B7
:100C20000FF0EAF85C490FF08EF80FF007F983B285
:100C3000FF273840B0711B0AF371E178A078FFF705
:100C400091FF0FF0D9F854490FF07DF80FF0F6F846
:100C500083B2384030721B0A737261792079FFF7D2
:100C600081FF0FF0C9F84C490FF06DF80FF0E6F86E
:100C700083B23840B0721B0AF372E179A079FFF7B2
:100C800071FF80B2404283B2384030701B0A7370EB
:100C9000617A207AFFF766FF83B23840B0701B0A92
:100CA000F370E17AA07AFFF75DFF83B238403071CC
:100CB0001B0A7371424680239B03936101225146B4
:100CC000484613F045FA0C2322000021484613F051
:100CD000EFF9424680239B03536161782078FFF748
:100CE00041FF0FF089F82C490FF02DF80FF0A6F80E
:100CF00083B23840A8711B0AEB71E178A078FFF746
:100D000031FF40420FF078F823490FF01CF80FF044
:100D100095F883B2384028721B0A6B72617920798A
:100D2000FFF720FF0FF068F81B490FF00CF80FF0E9
:100D300085F883B23840A8721B0AEB72E179A0797A
:100D4000FFF710FF83B2384028701B0A6B70617A7E
:100D5000207AFFF707FF80B2404283B23840A87084
:100D60001B0AEB70E17AA07AFFF7FCFE83B23840F1
:100D700028711B0A6B71012333732B73584613F0D0
:100D80009FF905B0F0BCBB46B246A946A046F0BDEF
:100D9000B017002000C003403333B33F10B58C219F
:100DA0001020FFF7E3FE8C211120FFF7DFFE042166
:100DB0001220FFF7DBFE06211320FFF7D7FE0621E6
:100DC0001520FFF7D3FEE0211720FFF7CFFE10BD5F
:100DD000F0B5C64600B5040004282DD005282FD054
:100DE000032803D0002080BCB846F0BD05270423AB
:100DF000984620000AF04CF901263300A340D02584
:100E00002D06AB620022012120000AF027F940469E
:100E10000AF03EF93300424693406B62AB61380002
:100E20000AF036F93300BB406B62AB616B68E3409C
:100E30001E4209D00120D6E7052703239846D8E7AC
:100E4000032704239846D4E70020CCE710B50320FD
:100E5000FFF7BEFF10BD10B50520FFF7B9FF10BDAD
:100E600010B50420FFF7B4FF10BD000010B501213C
:100E70000E20FFF747FA962080000BF051FA09F098
:100E800041FD054B984202D0002802D110BD002040
:100E9000FCE70120FAE7C046FFFF000010B501F0B3
:100EA00091FF10BD0120704770B584B003A9494B74
:100EB0001A880A8000238B7002A90A808B7001A90E
:100EC0000A808B7069460A808B700A242300013CDB
:100ED000002B74D0D0231B06802252029A613E4B15
:100EE000DB685B07FBD5032303AAD0213A4813F044
:100EF000DFF8032866D1D0231B06802252025A61F4
:100F00009A61354BDB685B07FBD5032302AAF0210E
:100F1000314813F0CDF8032856D1D0231B06802288
:100F200052025A618022D2039A612B4BDB685B0725
:100F3000FBD503236A46F021274813F0B9F80328AC
:100F400044D1D0231B068022D2035A619A61224BDE
:100F5000DB685B07FBD5032301AAD0211E4813F0F1
:100F6000A7F8032834D1D0231B068022D2035A616C
:100F70000023002000260025002100E00133022B81
:100F800014D803AAD25C002A00D0012101AAD25CA5
:100F9000002A00D0012602AAD25C002A00D0012536
:100FA0006A46D25C002AE9D00120E7E700298DD00B
:100FB000002D8BD0002E89D0002887D000E00020A3
:100FC00004B070BD0020FBE70020F9E70020F7E740
:100FD0000020F5E70842011000C0034010B5FFF7FC
:100FE0001BFD012010BD0120704770B582B0FFF7D6
:100FF0005BFF01AC01260125284003012078102267
:10100000904318432070FFF749FFC30122787F20E7
:10101000104018432070FFF729FF284083012078F3
:101020004022904318432070FFF71AFF28408300A6
:1010300020780422904318432070FFF707FF030035
:101040002B402078B04318432070FFF704FF28405E
:10105000430020780222904318432070FFF7C3FF1B
:101060002840C30020780822904318432070FFF7DF
:1010700019FF284043012078202290431843207014
:10108000FFF7ACFF05406078B043054365702088EA
:1010900002B070BD70470000044B7A22FF329A5CA8
:1010A00002707C22FF329B5C0B7070472819002075
:1010B000014B002018567047E8140020F8B50400D2
:1010C0000E001500254A2649280001F083FF071E5F
:1010D0001DD0244B1A6824498C466244D1175218FB
:1010E0004A405B686344D9175B184B40642A0BDCA9
:1010F0000022642B00DD02001C4B1B88002B05D056
:101100001A4B00221A8002E00200F2E71700227850
:1011100063781B021343154A11880B431380114B4C
:1011200032681A6072685A60114B3A0011492800FF
:1011300001F063FF002807D00F4B1B78002B03D171
:101140000D4B01221A70F8BD002FFCD00A4B1B7802
:10115000002BF8D0084B00221A70F4E75435002019
:1011600040420F00403B002000F8FFFF083F0020F6
:101170000C3B002000A3E1111F3F0020014B187819
:101180007047C0461F3F002010B5002803D1074B11
:1011900000221A7010BD0120FFF700F90120FFF7AF
:1011A0001EF9024B01221A70F4E7C046103F0020DE
:1011B00010B50020FFF713F90020FFF7EFF8002229
:1011C000002100200BF07EFF10BD000010B5084983
:1011D000084812F0A5FF002802D1074B186810BD7F
:1011E000064B9A6A044B1A60024812F069FFF4E752
:1011F0007C2E0020B8170020D43E0020004005407F
:1012000010B5FFF7E3FF074C206000F04BFC2068AF
:1012100006F04CFE206804F0EBFF2068FFF73AFF71
:10122000EFE7C046E834002010B504000A4B1B78F5
:10123000002B00D010BD084B01221A700020FFF7D0
:10124000ADF80020FFF7CBF864200BF069F821001F
:10125000002001F0AFFBEDE7523F002010B5054B39
:101260001B78002B00D010BD024B01221A7001F038
:10127000D1FDF8E73C3F002010B52B4B1B78002B2D
:1012800034D0FFF7A3FF294B18602948FFF708F96E
:10129000284B1B78002B32D105F0BEFA234C244991
:1012A000206806F0A9FE206801F01CFC08F0C6FCCE
:1012B000002831D01D4C2049206805F06BFD2068C6
:1012C0001E4A1F4908F0E6FC1E4B00221A70174CFC
:1012D00022681B491948FFF7F1FE206801F09AFCCB
:1012E0002068FFF79BFA0BF09BFE10BDFA2000214F
:1012F00080010BF0DBFE0C4B01221A70C1E70C4899
:10130000FFF71AF80BF08CFE084C206801F0EAFB9E
:10131000206801F07FFCE8E7044B1868084A074999
:1013200000F04AFDD3E7C046453F0020E4340020EA
:1013300090240020103F0020582400209C240020EE
:10134000782400201F3F002070B584B0041E00D117
:10135000F3E001F03AFE0500FFF74EF878497948CE
:1013600010F066FA03211C2009F060FE03211D2005
:1013700009F05CFE03AB02AA01A9734809F004FE60
:10138000002803D1704971480BF076FF039A029947
:10139000019809F0BDFD6E48FFF782F800F018FCD7
:1013A000002829D06A4B6B4A6B496C4806F092FBC7
:1013B00006F0ECFDEBB2012B23D0022B26D0012549
:1013C00065576B1C29D00022A256654B1A70604BE2
:1013D0001B789A0625D45A0641D4DA0641D45AB26B
:1013E000002A40DB5A0740D40A221A40022A3ED083
:1013F0001B0717D5032515E032215A4801F0C8FA1A
:10140000D0E7574B02221A700025E0E72B041B0F90
:10141000534A13702D052D0FD9E7534B02255D5705
:10142000D1E706254A4B9B78DB0602D580235B4239
:101430001D4302F0C5FE4C4AE2235B00D65C484BDC
:101440001B785BB2013314D06424002001F05AFDF4
:10145000EBB2062B45D8AB00444AD3589F46012532
:10146000E0E70025DEE70225DCE70525DAE70425CD
:10147000D8E701F06BFD002804D1394B02221A7025
:101480004624E2E7364B01221A706424DDE7FA2095
:1014900001F0F8FC3648322101F07AFA21003000E0
:1014A00001F09EFAFFF7D2FA2D4B00215956280081
:1014B00000F092FC264B9B789B0739D42D4A244997
:1014C000280005F051F80FF0E3FA2B480FF0CEFAA0
:1014D000FFF7D2FEFCE7FA2001F0D4FCFF20000663
:1014E000D9E7FA2001F0CEFC2448D4E7FA2001F035
:1014F000C9FCFF200002CEE7322001F0C3FC184BEC
:1015000000221A70FF2000041924C4E7322001F0E1
:10151000B9FC134B00221A7019480F24BBE70020B6
:1015200001F0B0FC0E4B00221A7016481924B2E7E5
:101530000D4B9D7000F046FBC0E704B070BDC04687
:10154000801A060078170020400D03000C4201109D
:1015500090240020582400207824002068240020B3
:10156000E81400200000FF4D28190020404201101F
:1015700000F115FF9C2400200112001000A1A1A180
:1015800000FF61000000FFE610B5040009F080FDD7
:1015900000220121200009F061FD0123A340D02297
:1015A00012065362536110BD10B5040009F070FDBE
:1015B00000220121200009F051FD0123A340D02287
:1015C0001206936210BD10B5040009F061FD0022FF
:1015D0000121200009F042FD0123A340D022120680
:1015E000936210BD094ABD235B00D35C1A1C312BEA
:1015F00000D83222054BBD2149005A54DA787A3995
:10160000FF398A43DA709B221A727047281900202A
:1016100070B505001400724B1380012900D070BD15
:101620000223C3569370D01CE91C06220EF0A4FDC1
:10163000EB68E3602B6923616B696361AB69A3614C
:1016400020001C3029001C3120220EF095FD2000C6
:101650003C3029003C3120220EF08EFD20005C3011
:1016600029005C3120220EF087FD20007C3029000B
:101670007C3120220EF080FD20009C3029009C311E
:1016800006220EF079FD2000A2302900A2310622A8
:101690000EF072FD2000A8302900A83130220EF093
:1016A0006BFD20002930FF302900D83110220EF0C8
:1016B00063FD20003930FF302900E83110220EF0A0
:1016C0005BFD20004930FF302900F83110220EF078
:1016D00053FD20005930FF3029000931FF3110221D
:1016E0000EF04AFD20006930FF3029001931FF312A
:1016F00010220EF041FD94235B00EA5C5033E2546B
:101700002A23FF33EA5C7A23FF33E2544F3BEA5C3F
:101710005033E2542C23FF33EA5C7C23FF33E25442
:1017200020007D30FF3029002D31FF3106220EF0E0
:1017300023FD20008530FF3029003531FF31202284
:101740000EF01AFD2000A530FF3029005531FF3181
:1017500020220EF011FDBA235B00EA5C5033E25404
:101760002000C930FF3029007931FF3118220EF0F6
:1017700003FDC8235B00EA5C5033E2544E3BEA5A57
:101780005033E2524E3BEA5A5033E2524E3BEA5A51
:101790005033E2524E3BEA5A5033E2524E3BEA5A41
:1017A0005204F6204000110C225A9A3BFF3B1A408B
:1017B0000A432252CE225200A95A22185180CF2227
:1017C0005200AA5A5204F8214900120C605A0340F0
:1017D00013436352D0235B00EB5A641863801EE707
:1017E00002A0FFFF064B984204D0064B984203D15B
:1017F000022070470120FCE701204042F9E7C04683
:1018000001A0000002A0000010B512480EF01AFE60
:10181000002407E0104B5B18D97810480EF012FE38
:101820000134E4B2052C0DD80FF006FC2100C0B243
:10183000094A1219D070002CECD1130001229043F8
:10184000D870E7E7044B9B221A720A200EF096FD2F
:1018500010BDC0465C420110281900206C420110E6
:10186000F0B5DE4657464E464546E0B56F4CA544BA
:10187000FC256D002A00002102A80EF077FC6C4BBD
:1018800002AA1380059B0193DB0FDB078022120164
:1018900013430593069B0193DB0FDB07134306936A
:1018A000079B0193DB0FDB0713430793089B01930F
:1018B000DB0FDB071A4308925E4F0A975E4E0B96CA
:1018C0005E4C0C945E480D905E490E915E4A0F92FC
:1018D0005E4B1093129713961494159016911792CD
:1018E00018935B4B19931A931B931C931D931E9390
:1018F0001F9320932193802202A98B5004328B5096
:1019000004328B5004328B5004328B5004328B5093
:1019100004328B50FF231B049A46A8230A00514629
:10192000D1504C4B9B46AC235946D1504A4B99461B
:10193000B0234946D150FF231B069846B4234146A5
:10194000D150FF2636020433D6500433434A02A94D
:10195000CA50434F04330A00CF5004335146D1508C
:1019600004334146D1500433D65004334946D15054
:101970000433D6503B4BD82202A98B5004328B50F3
:1019800004328B5004328B50E823CF50B63B7A227E
:10199000FF328B5401328B54173AFF3AF121490040
:1019A00002A8425202314352023142528532FF3282
:1019B000010083522C4C2A0020000EF0DDFB002099
:1019C00004F098FD012004F095FD032004F092FD41
:1019D000042004F08FFD052004F08CFD20009C30D5
:1019E000062200210EF0C2FB2000A23006220021B8
:1019F0000EF0BCFBFFF708FFE4235B005246E25009
:101A000004335A46E25004334A46E2500433424615
:101A1000E2500433E6500433E75081239B009D4499
:101A2000F0BCBB46B246A946A046F0BDFCFDFFFF98
:101A300002A0FFFF000034420000B4420000074350
:101A400000003443000061430000874300809D4351
:101A5000000016440000FF4D0000FFE600F115FFF6
:101A600000FF610000A1A1A128190020014B1878F6
:101A70007047C046563F0020014B58807047C04613
:101A8000EC14002010B5064B01221A7003E001206F
:101A900000210AF019FC024B1B78002BF7D110BD76
:101AA000393F0020F0B5354CA544354B1B78002B51
:101AB00006D1344B1B78002B39D1334B9D44F0BDFC
:101AC0000EF0FEFFEFF3108672B6304B1B78002B42
:101AD00024D12F4C002300932E4A002101A80EF0A0
:101AE00045FBFC2252002C4968460EF045FB802540
:101AF0006D012900200012F01BFB2A00694620001E
:101B000012F0F6FA86F310880EF0E4FF234B1B78F0
:101B1000002B06D11A4B00221A70CAE796246403E0
:101B2000D8E708F095F91D4B00221A70F2E70EF085
:101B3000C7FFEFF3108772B600240094154A002106
:101B400001A80EF013FB164B1A6800929B886A4698
:101B500093808026760197256D033100280012F0CE
:101B6000E7FA32006946280012F0C2FA87F31088BB
:101B70000EF0B0FF034B1C709FE7C046FCEFFFFF69
:101B80003A3F0020393F002004100000563F00205B
:101B900000D01200FC0F000028190020463F002052
:101BA000EC14002010B5034B01221A70FFF77AFFE6
:101BB00010BDC046393F0020014B01221A7070470A
:101BC000463F0020014B01221A7070473A3F002027
:101BD00070B5434B1888434B1D88FFF703FE040084
:101BE0002800FFF7FFFD05003F4B404A11681960D0
:101BF00092889A801A883E4B9A420AD03A4B3D4AC4
:101C00001A80FA2292005A8000229A803A4B0132BE
:101C10001A70631C0BD0022C0FD0022D0DD0012C9A
:101C20002CDD012D2ADD0023002200262CE06B1C78
:101C3000F1D100230022012626E0022C05D0022D3E
:101C40000FD00023002200261EE0FC22520024496F
:101C50002A480EF091FA2A4B00221A70002300261F
:101C600012E0FC2252001F4924480EF085FA244B52
:101C700001221A7000230022002605E00123012C16
:101C800015DDDBB201220026002E12D1002A23D05E
:101C9000002B18D11A4B01221A70184A2100104843
:101CA000FFF7B6FC0020FFF78DFF300070BD00236A
:101CB000E7E7134B00221A70FFF7D2FD0020FFF771
:101CC00081FF0026F1E70E4B00221A700B4A290013
:101CD0000448FFF79DFCE5E7FFF784FC0126E4E7F5
:101CE00000D0121000C01210EC14002000E01210FE
:101CF00002A0000002A0FFFF393F002028190020A9
:101D0000563F002010B5031C642800D96423034902
:101D10007A22FF328B54FEF799FE10BD281900205D
:101D200010B5022817D008D800280DD001280FD1EF
:101D30000B4AF2235B00D1520AE0032808D1084A7B
:101D4000F4235B00D15203E0054AF1235B00D1523A
:101D500005F050FB10BD024AF3235B00D152F7E7B8
:101D60002819002030B50F4C40004508E068C00F2E
:101D7000C0072843E060490048082169C90FC90726
:101D800001432161520051086269D20FD2070A4310
:101D900062615B005A08A369DB0FDB071343A36191
:101DA00030BDC04628190020062800DD0020014B68
:101DB000987070472819002010B5034B1B68002B42
:101DC00000D0984710BDC04644270020014B00209A
:101DD00018567047203F002010B588B00400284BEB
:101DE0001870022910D00C22002105A80EF0BEF9AF
:101DF0001022002101A80EF0B9F9E3B2062B0BD88E
:101E0000A400204B1B599F461F4B204A1A6008F024
:101E1000C1FD0028E7D005E01B4B1D4A1A600020D9
:101E200001F078FB08B010BD174B194A1A60062064
:101E300001F070FBF6E7144B154A1A60012001F01F
:101E400069FBEFE7104B124A1A60022001F062FBB7
:101E5000E8E70D4B0F4A1A6001AA05A90020FFF719
:101E6000ABFFDFE7084B0C4A1A6001AA05A9002066
:101E7000FFF7A2FFD6E7044B084A1A60D2E7C04634
:101E8000203F00209442011044270020C1AB0010E5
:101E9000C5350010C1890010BD9300104199001094
:101EA000F0B5C64600B590B004000D0016001F0046
:101EB00016AB1B789846494B984200D188E0072121
:101EC000380009F0B3F8012300933A0029002000FC
:101ED0000FF09EF91022002108A80EF047F9802388
:101EE0005B020893F8235B0209938023DB020A93C9
:101EF000C0231B030A93102208A904A80EF03CF982
:101F0000F31C059A039236491140F20111431B0359
:101F100019430591079B0393DB00DB0880229205A0
:101F2000134307932F4B19400591102204A90CA8C5
:101F30000EF022F90F9B03932B4A1A40BF0217435E
:101F40000F974346002B45D020220E9B0393274931
:101F5000194080239B020B435206F82189050A4051
:101F600013430E939B009B088022D20513430E93CC
:101F700005200AF0B7FF1E490CF092FA0DF037FF6A
:101F800080460DF08DFF87B2002F25D038000DF070
:101F90002EFF011C40460DF0B6FE8721C9050DF04D
:101FA000D2FE0DF07DFFC0B200023F0407430C9744
:101FB0000CAB3200290020000FF07CF922680123CD
:101FC000AB409A431343236010B080BCB846F0BDC9
:101FD000062175E71822B8E70020E5E70000205049
:101FE0007F00FEFFFFFFFF9FFF83FFFFFFFFF5C1A5
:101FF0000050C300014B01221A7070472F3F002090
:1020000070B5254B1B78002B17D1244B00221A707A
:10201000214B01321A7000241F2C09D80FF00CF844
:1020200006210CF03DFA1E4B19550134E4B2F3E7DA
:102030001C4B00221A70002428E01A4B1B78002B3E
:10204000F9D1194B1B789A009B18FA2B00D9FA2367
:10205000FF221A40FF239B1A9BB2144A1380144A92
:102060001380104B01221A70E5E70D4D2B5D723382
:102070009B00104A9958A2000F4BD1500EF0DCFF84
:1020800006210CF00DFA29550134E4B21F2CECD9CD
:10209000FFF7B0FF70BDC0462E3F0020183F002064
:1020A0005C2700201515002013150020003F00209C
:1020B000FC3E002028190020B42C0020034B19807E
:1020C000034B1860034B00221A707047FE3E00203D
:1020D000A82B00202C3F002070B505000C000088C4
:1020E0000DF085FE1B490DF018FE1B490DF02BFE6F
:1020F0000DF0D6FEC2B22B79A978C943C9B25943B3
:10210000090A5B1ADBB23F2528402D1AEDB258436D
:1021100080096B439B11DBB20818C0B2CB18DBB24D
:102120003F2A10D9403AD2B23F2A06D81A060B06E7
:102130001B0A0002134318430AE0090600041B02AD
:102140000843184304E000061B040902184308432F
:10215000206070BD00007F4300003F43F8B5CE46CD
:10216000474680B50400234B1D78002D05D1002380
:102170000360C0BCB946B046F8BD642DF9D087787D
:10218000E678B81963789846C0180DF035FE1A49FC
:102190000DF0C3FD814628000DF029FE17490DF012
:1021A000BCFD051C011C48460DF00CFE0028E0D1CA
:1021B0004946281C0DF0B1FD051C38000DF017FE36
:1021C000291C0DF0C0FD0DF06BFEA07030000DF06D
:1021D0000EFE291C0DF0B7FD0DF062FEE0704046CA
:1021E0000DF005FE291C0DF0AEFD0DF059FE6070DE
:1021F000BFE7C0461215002000007F430000C84220
:10220000F0B5D6464F464646C0B504000368002BDD
:1022100035D083789846C778D819667880190DF03C
:10222000EBFD051C40460DF0E2FD8046291C0DF03B
:1022300074FD824638000DF0DAFD071C291C0DF0F4
:102240006CFD814630000DF0D2FD061C291C0DF0FE
:1022500064FD051C514640460DF075FD0DF020FE55
:10226000A0704946381C0DF06EFD0DF019FEE070AF
:10227000291C301C0DF067FD0DF012FE6070E0BCF3
:10228000BA46B146A846F0BD30B585B01D4B1B78A7
:10229000002B0FD100241F2C09D80EF0CDFEFF21FA
:1022A0000CF0FEF8184B19550134E4B2F3E7154B66
:1022B00001221A7000241FE0134D2B5D134A107881
:1022C000C018FF210CF0C4F8C9B2295502A801803A
:1022D000FF23438083800023019301A9FFF7FCFEC5
:1022E00001A8FFF73BFF0A4BA000019AC250C0189B
:1022F000FFF786FF0134E4B21F2CDDD9FFF77AFE29
:1023000005B030BD2E3F0020642B002013150020A7
:10231000B42C002000220AE0930006495958064BCD
:102320005B68DB03FBD4044B19610132D2B21F2A74
:10233000F2D97047AC2B002000002050F8B5DE46E3
:1023400057464E464546E0B506000D00141C807801
:102350000DF04DFD8046F0780DF049FD071C7078BA
:102360000DF045FD061CA8780DF041FD8346E87888
:102370000DF03DFD824668780DF039FD81464146FD
:1023800058460DF0C0FC211C0DF0DDFC41460DF05F
:10239000BFFC051C391C50460DF0B5FC211C0DF08E
:1023A000D2FC391C0DF0B4FC071C311C48460DF062
:1023B000AAFC211C0DF0C7FC311C0DF0A9FC061C69
:1023C000281C0DF06DFDC5B2381C0DF069FDC4B2BE
:1023D000301C0DF065FDC0B22D0400022406284318
:1023E0002043F0BCBB46B246A946A046F8BD00005B
:1023F00000B583B000230093082806D88000174B4F
:102400001B589F46FF231B04009300230193144A8B
:1024100001A96846FFF792FF0023002B18D003B0F4
:1024200000BDFF231B020093EFE70E4B0093ECE788
:10243000FF231B060093E8E70B4B0093E5E70B4BEC
:102440000093E2E70A4B0093DFE70A4B0093DCE7D7
:10245000094A043A10600133DFE7C046B042011078
:102460006666663F0000FFE60000FF4D00F115FFC5
:1024700000D0FF2B00FF6100B42C002010B5054BED
:102480001870FFF7B5FF044B00221A70FFF7B2FD7A
:1024900010BDC046313F00202E3F0020F8B52A4B2A
:1024A00018880DF0A9FC011CFE2080050DF035FCFC
:1024B000041C264B1B78002B0AD1254B1E78224B7F
:1024C0001B889E4215D9234B187800282FD0F8BDC1
:1024D000214B1878FFF78CFF8022204920480DF00F
:1024E0004BFE00231A4A1370184A1370194A1370CE
:1024F000E3E730000DF07BFC211C0DF024FC051CF3
:1025000000240BE0A70017497918154838182A1C31
:10251000FFF714FF114BD8510134E4B21F2CF1D94D
:1025200001360B4B1E70FFF7F5FE0020CFE780222F
:102530000C490A480DF020FEFFF7ECFE054B012286
:102540001A700120C3E7C046FC3E00202F3F002048
:102550001715002014150020313F0020AC2B00205F
:10256000342C0020B42C0020F0B5C64600B506007F
:102570000F001500984600240AE0335D9B00424698
:10258000EA50305D80002818FFF73AFE0134E4B2CB
:10259000BC42F2D380BCB846F0BD0000031C6428E6
:1025A00000D96423014A13707047C04612150020F9
:1025B00030B583B0050000240CE0019501A8FFF7B9
:1025C000CDFD064BA000019AC250C018FFF718FEBF
:1025D0000134E4B21F2CF0D903B030BDB42C00207C
:1025E00010B509480388094A12789B18FF22134046
:1025F0000380074C2100FFF76FFD2068FFF7D8FF2D
:10260000FFF7F8FC10BDC0460C1500201315002084
:10261000602B002010B51A4B1B78002B17D1194ADC
:102620001370174A01211170174A1370154C237843
:1026300072339B00154A9858FFF7BAFF2078013093
:1026400006210BF005FF2170FFF7D4FC10BD0E4BE7
:102650001B78002BEAD10E4B1B789A009B18FA2BA3
:1026600000D9FA23FF221A40FF239B1A9BB2094A82
:102670001380094A1380044B01221A70D6E7C04622
:102680002E3F0020183F002016150020281900209A
:1026900013150020003F0020FC3E002010B50F4B1A
:1026A0001B78002B10D10E4B1B68002B02D10C4B5A
:1026B0000C4A1A600A4B1868FFF77AFFFFF79AFC7A
:1026C000064B01221A7010BD0020FFF771FFFFF7C3
:1026D00091FC024B00221A70F5E7C046533F0020E0
:1026E0002C2C00200000FFE610B5164B1C78002CA7
:1026F00005D0154B1B78002B17D0200010BD802271
:10270000124913480DF038FD124B1868FFF750FFBF
:10271000114B1A88114B1A80FFF76CFC094B0122F0
:102720001A70094B00221A70E7E7802208490C480A
:102730000DF022FDFFF75EFC034A1378013313709E
:10274000DBE7C0462C3F00205B3F0020AC2B002085
:10275000143C0020302C0020FE3E0020FC3E0020D7
:10276000B42C002010B50D4B1C78002C06D00C4B5F
:102770001B68002B00D09847200010BD0020FFF7F9
:1027800017FF0020FFF734FEFFF734FC054B1A88D3
:10279000054B1A80014B01221A70EDE72C3F0020F7
:1027A000782D0020FE3E0020FC3E002070B50C007D
:1027B0000F2803D88000294B1B589F460126284D1F
:1027C0002EE00426274D2BE00426274D28E0012685
:1027D000264D25E00126264D22E00126254D1FE04D
:1027E0000126254D1CE00126244D19E00126244D2B
:1027F00016E00126234D13E00126234D10E00126AB
:10280000224D0DE00126224D0AE00126214D07E070
:102810000126214D04E00126204D01E00426104D43
:10282000002A12D023001E4A31002800FFF79CFE28
:1028300023001C4A31002800FFF796FE23001A4AA5
:1028400031002800FFF790FE70BD2300154A3100CB
:102850002800FFF789FEFFF7CDFBF5E7D442011012
:1028600058430110444301103843011048430110FC
:10287000344301103C4301105043011060430110E8
:102880005C4301102C430110304301104043011000
:102890006443011054430110684301104C4301107C
:1028A000342C0020B42C0020AC2B002070B50C4B35
:1028B000196840220B480DF05FFC00240CE0A300D7
:1028C000084DED182800FFF749FC29680022200078
:1028D000FFF76CFF0134E4B20F2CF0D970BDC04695
:1028E000342D0020382D002010B5024B1860FFF762
:1028F000DDFF10BD342D002010B5074B1B78002BD9
:1029000000D010BD0548FFF7EFFFFFF773FB024B48
:1029100001221A70F5E7C0462E3F0020D019002092
:10292000144AF0235B00D35C834209D0002B03D10F
:10293000E133FF330521D1540E4AF0235B00D0541C
:102940000C4AF0235B00D25C0B4B1A700B4B1B78CC
:10295000052B0AD00A4B15221A80094B1A88094BFD
:102960001A80094B00221A707047084B1A88044BD2
:102970001A80F2E728190020131500202D3F0020AF
:10298000003F0020FC3E00202E3F0020023F0020A0
:1029900010B5054B18604908044C2000FFF78EFB6A
:1029A000034B1C6010BDC046302C0020E9260010EF
:1029B000A82B002010B5064B1870064B00221A6099
:1029C000054B196019210548FFF778FB10BDC0467B
:1029D000323F0020A42B0020782D00206527001016
:1029E00070B582B004000D00244B1B78002B0CD076
:1029F000234B1C700023234A1370234A1370052CA9
:102A000016D8A400214B1B599F46214E2149300066
:102A10000EF0E2FB02000023009317330021300088
:102A2000FFF73EFA154B01221A70FFF773FCDFE740
:102A3000194B1A4A1A601A4AF0235B00D05CFFF760
:102A40006FFF2800642D00DD6420C0B2FFF7A6FDF3
:102A500002B070BD104B134A1A60ECE70E4B124ADD
:102A60001A60E8E70C4B114A1A60E4E70A4B104A77
:102A70001A60E0E7084B0F4A1A60DCE7303F00209D
:102A80002D3F00202E3F0020333F00201443011033
:102A9000000020506C430110A42B0020F9280010E6
:102AA00028190020E1250010892200109D26001021
:102AB000152600100120001010B5FF2903DC0029A5
:102AC00002DA152100E0FF21044B1980044B186045
:102AD0001E210520FFF784FF10BDC046023F0020E5
:102AE0002C2C002010B5144A144900F073FA002869
:102AF00000D110BDFFF7D2FC002803D1104B1B788A
:102B0000002BF6D00F4B1B68002B0ED098470028E7
:102B1000EFD000240B4B1C600B4AF0235B00D05C11
:102B2000FFF7FEFE094B1C70E3E7094B1B68002B07
:102B3000DFD09847DDE7C046BC3A00201A410000CC
:102B4000333F0020A82B0020281900202E3F002012
:102B5000A42B0020014B58887047C046EC1400207D
:102B600000B587B005AA254B1978117004AB197010
:102B700023490291012101910093012369312148E8
:102B800000F0FAFA831C17D204AA137800215156D8
:102B900001220A401C490A705B06990F022913D9C9
:102BA000032914D1194B1B78002B22D0002A1CD1E9
:102BB000174BFF321A7005E0134BFF221A70144BAB
:102BC000013A1A7007B000BD49B2002909D1002AA4
:102BD00003D10F4BFF321A70F4E70D4B00221A702D
:102BE000F0E70B4B01221A70ECE7094B00221A7038
:102BF000E8E7074B02221A70E4E7C046A04E011036
:102C000010270000781700201C1500204D3F0020E1
:102C10004E3F002070B50400594B1B78002B24D088
:102C2000584A5949200000F0D5F9002815D0FFF77F
:102C300097FF564B00229A56554B1B785BB29A422F
:102C400003D0002B28D0514A1370524B1B78002B15
:102C50002AD0504B1B78002B42D14F4A4F492000BD
:102C600000F0B8F900284BD170BD454B01221A7015
:102C70004B4B58880DF0BBF84A4B18604A4B4B4AF7
:102C80001A60FFF76DFFFFF76BFFFFF769FF404B1F
:102C90001A783E4B1A70C3E7FEF70AFA0028E3D011
:102CA0004348FEF7C1FADFE7FEF768FA0028D0D004
:102CB000404B1B785BB2012B0AD0022BCDD1354B98
:102CC00001221A70FF2064210002FFF7F5FEC4E71D
:102CD000304B01221A7064213748FFF7EDFEBCE744
:102CE000FEF74CFA0028B8D12A4B00221A70334A5A
:102CF000E2235B00D05C02214942FFF771FEACE7A2
:102D0000FFF72EFF2B4B1B785BB2012B1BD0022B46
:102D100030D00133A8D1234D234B196828680CF01B
:102D2000F2FF041C286000210DF046F8002808D1AD
:102D30001C4B1C60201C0DF0B3F880B2FEF79CFE0B
:102D400092E70024F4E7174D174B196828680CF038
:102D5000DFFF041C28601A490DF044F8002800D059
:102D6000174C104B1C60201C0DF09AF880B2FEF737
:102D700083FE79E7FA208000FEF77EFE74E7C04606
:102D80004A3F0020B033002040420F00583F00204F
:102D90001C150020513F0020A8330020008793031A
:102DA000EC14002018150020201500201CC731400D
:102DB0005D1200104E3F00200000FFE628190020A1
:102DC00000007A4400B587B00E4B1B785BB201332C
:102DD00014D005AA0C4B1978117004AB19700B496B
:102DE000029101210191009301236931084800F00B
:102DF000C3F9002804DD012007B000BD0020FBE777
:102E00000020F9E71C150020A04E0110102700003B
:102E10007817002030B585B0164B1B785BB20133B4
:102E200025D0D0231B061B68002B04D1FEF72AFEF9
:102E30001E25002415E0FEF7B5FEF9E703AA0E4BA8
:102E400013800E4B01930023009302336A210C4838
:102E500000F006F90400322009F062FA0AF0E0F806
:102E6000013D002C01D1002DE8D1FEF7A1F905B0FC
:102E700030BDC0461C15002009C1FFFFA08601001F
:102E80007817002000B585B0194B1B785BB2013371
:102E900004D0002804D1174B01221A7005B000BDE0
:102EA000144B00221A70144B1880232813D8C0B278
:102EB0000538C0B27F2318407B3B6A4613735073BA
:102EC0000E4B019300230093023303AA6A210C489E
:102ED00000F0C6F8E2E7AF235B00984200D9180083
:102EE00028380A210BF0B4FAC0B21F30C0B2E1E7B3
:102EF0001C1500204D3F00200A3F00201027000035
:102F00007817002000B585B00D4B1B785BB20133FC
:102F100012D0022812D0E02103AB0A221A70597095
:102F2000084B019300230093023303AA6A21064849
:102F300000F096F80228F3D105B000BDE421EBE7DC
:102F40001C150020102700007817002010B5FFF78F
:102F500007FE024B0020185610BDC0461C1500206D
:102F600010B5FFF7FDFD024B0020185610BDC046FE
:102F70004E3F002010B50022002100200AF0A2F8E8
:102F8000FEE70000072804D88000024B9C466044FE
:102F9000016070470C80054010B5072802D9002455
:102FA000200010BD8000044B9C4660440468002152
:102FB0000520FFF7E7FFF3E70C80054010B501009F
:102FC0000520FFF7DFFFFFF7D5FF10B50520FFF75E
:102FD000E3FF10BD10605368834205D9C31A013B5B
:102FE0008B4205D200207047834204D2C31AF7E710
:102FF00050600120F7E70020F5E730B51860002A9F
:103000000BD15C6884420BD9041B013C0025002DC8
:103010000BD1A14209D9100030BD58600020FBE758
:10302000844205D2041B0025F1E758600120F3E734
:103030001000F1E710B502E0012009F071F90A2152
:10304000024811F025F80028F6D010BDC017002066
:1030500010B5024811F034F810BDC046C01700206A
:10306000F0B5D6464F464646C0B584B081460F00FF
:10307000924698460CAB1E78FFF7DCFF0D9C0025AE
:1030800009F01EFA02000B1E18DB12196B41002B0F
:103090001ADB002B1CDB0292039300964346524638
:1030A000390048460EF0F0FB0400FFF7D1FF200086
:1030B00004B0E0BCBA46B146A846F0BD074B084A8A
:1030C0003F2108480AF03EF801225242064BE0E751
:1030D000024B034A3F2103480AF034F87C430110B5
:1030E000FC43011098430110FFFFFF7FF0B5D64667
:1030F0004F464646C0B584B081460F00924698467A
:103100000CAB1E78FFF796FF0D9C002509F0D8F94F
:1031100002000B1E18DB12196B41002B1ADB002B6F
:103120001CDB029203930096434652463900484600
:103130000EF0C9FB0400FFF78BFF200004B0E0BCD9
:10314000BA46B146A846F0BD074B084A3F21084899
:1031500009F0F8FF01225242064BE0E7024B034A16
:103160003F21034809F0EEFF7C430110FC430110AE
:1031700098430110FFFFFF7FF0B5DE4657464E46ED
:103180004546E0B585B08046894692469B46FFF7A6
:1031900051FF109C002509F093F906000F1E31DB4A
:1031A000A4197D41002D33DB002D35DB02940395FE
:1031B000012300935B465246494640460EF064FBAD
:1031C000109C002509F07CF902000B1E2ADB121965
:1031D0006B41002B2CDB002B2EDB02920393002390
:1031E00000930F9B0E9A494640460EF06CFB04007C
:1031F000FFF72EFF200005B0F0BCBB46B246A94643
:10320000A046F0BD0F4B104A3F21104809F09AFF2D
:10321000012464420E4DC7E70A4B0B4A3F210B487D
:1032200009F090FF074B084A3F21084809F08AFF40
:1032300001225242064BCEE7024B034A3F2103488C
:1032400009F080FF7C430110FC43011098430110FA
:10325000FFFFFF7FF0B583B005000F00140001935E
:1032600019491A4810F05CFF002829D0184B002695
:103270009E57002E0CDD002D02D10126764209E07A
:10328000FF221A703201134938000CF075FF01E07B
:1032900001267642104B00255D57002D01DD002CE4
:1032A00005D10A4810F00CFF300003B0F0BDFF223A
:1032B0001A702A01094901980CF05EFF2E00F0E710
:1032C00001267642F0E7C04654360020C817002099
:1032D00024150020EC340020251500201C3500208A
:1032E000F8B506000F0015001C000E4810F078FF1E
:1032F000002F06DC002C0CDC0A4810F0E1FE002058
:10330000F8BD094B1F703A01310008480CF034FF3A
:10331000F0E7074B1C702201290006480CF02CFF37
:10332000EAE7C046C817002024150020EC3400202E
:10333000251500201C350020F0B585B0051C0F1C9C
:10334000141C1E1CFE218905381C0CF04BFD0028A6
:103350000FD0FE27BF052249281C0CF043FD002892
:103360000FD12049281C0CF027FD00280AD01D4D44
:1033700008E00021381C0CF01FFD0028EBD00027CE
:10338000E9E7174DFE218905301C0CF02BFD0028C4
:103390000FD0FE26B6051249201C0CF023FD002894
:1033A0000FD11049201C0CF007FD00280AD00D4C4D
:1033B00008E00021301C0CF0FFFC0028EBD00026B8
:1033C000E9E7074C009701960295039401236A46AA
:1033D00001216846FFF784FF012005B0F0BDC0461B
:1033E0000080A2440000204210B5FEF7EFFC022846
:1033F00001D0024810BD0248FCE7C0461444011049
:103400000445011010B500200FF0E0FD10BD0000D4
:1034100010B51021064810F093FE002800D110BD11
:10342000044B01221A70024810F04AFEF7E7C0462A
:10343000D0170020433F002010B51021064810F09F
:103440007FFE002800D110BD044B00221A700248F4
:1034500010F036FEF7E7C046D0170020433F0020AB
:1034600070B5050064210D4810F012FE041E09D14C
:103470000B4B22000B492800FFF7BFFD051E08D1AA
:10348000200070BD084B1C78E4B2044810F018FE10
:10349000EEE7FFF7BDFF2C00F2E7C046D017002093
:1034A000943C0020A0860100433F002003780133B4
:1034B0000370044B1B785BB2022B01D002487047AB
:1034C0000248FCE7E415002048460110804701103F
:1034D0000C4B18600C4B98420BD00C4B98420CD004
:1034E000FA235B00984200D07047094B01221A6012
:1034F000FAE7074B04221A60F6E7054B08221A6028
:10350000F2E7C046AC2E0020461000008D200000DF
:10351000A42E002010B50400002002F063FE022C4F
:103520002CD0062C1DD0012C10D0012002F05AFE08
:103530001848FFF7CDFF184B184A1A60184B194A64
:103540001A60194B1C7010F04DF910BDFA204000A4
:10355000FFF7BEFF104B154A1A60114B144A1A6050
:10356000EFE7012002F03EFE1248FFF7B1FF0A4BE1
:10357000114A1A600A4B0B4A1A60E2E7FA2040002F
:10358000FFF7A6FF044B0D4A1A60054B0C4A1A6060
:10359000D7E7C0468D200000A82E0020D19A001049
:1035A000B02E002005340010E415002001A7001003
:1035B0006D3C0010461000003DAD0010558100101C
:1035C000F9400010F8B506000C001500012000219C
:1035D00040420FF06FF8234B9F6C234B1B68BB429C
:1035E0001CD2FB1A214A12689A4202D8204B0122AF
:1035F0001A70204B1968204A3000FFF7EBFC0028B6
:1036000002D01E4B01221A701D4B1B78002B0AD1D1
:103610001C4B1B6898471A4B1870F8BDFB1A1A4AC6
:1036200094466344DEE73000FFF71AFF0028F4D029
:103630000F4B1B78002BF0D0104B1B78002BECD0DD
:10364000094B1F6000230A4A13700C4A13700C4A7E
:103650001370FFF7F1FE0D4B1B68290020009847FF
:10366000DBE7C0460000115050360020A42E002099
:10367000553F0020AC2E0020F43E00205E3F00208D
:10368000443F0020B02E0020FF070000A82E00209D
:10369000084B1B785BB2022B07D0062B07D0012BFF
:1036A00001D0054870470548FCE70548FAE705489A
:1036B000F8E7C046E4150020A8500110904601101C
:1036C0006C470110C4590110084B1B785BB2022BE8
:1036D00007D0062B07D0012B01D0054870470548BD
:1036E000FCE70548FAE70548F8E7C046E41500207E
:1036F00068500110604601104047011098590110B0
:103700000020704710B5134B1B785BB2022B13D00F
:10371000062B18D0002B05D00B78002B0FD1FFF70C
:1037200077FE0CE00B78302B03D0212B01D0812BBE
:1037300005D1FFF76DFE02E00B78212B00D010BD04
:10374000FFF766FEFBE70B78012BF8D1FFF760FE71
:10375000F5E7C046E415002070B51D0004AB1E88D7
:10376000314B00241C57012C2DD0022C12D0002CE0
:1037700000D070BD0029FCD1002AFAD12878102889
:1037800004D03200290000F0E7FFF2E7A81C01F0A6
:10379000C1FFEEE70029ECD1002AEAD12B78112BEA
:1037A00005D0132BE5D121480CF04CFEE1E76B78F6
:1037B000DB0706D51E4B00201E4A011CFFF7BCFD8F
:1037C000D7E70023F7E70029D3D1002AD1D12B78FE
:1037D000002BCED16B78082BCBD1EC78002C1ED0EF
:1037E000A8780CF004FB14490CF097FA061C2B790E
:1037F000002B16D020000CF0FAFA0F490CF08DFACD
:10380000041C211C301C0CF0EDFA002800D0341CE4
:103810000020231C074A011CFFF78EFDA9E70026A4
:10382000E5E70024EDE7C046E4150020C845011097
:10383000CDCC0C3F0000024300007F43064B1B78B9
:103840005BB2022B03D0062B03D104487047044817
:10385000FCE70448FAE7C046E4150020D8590110F7
:10386000D4460110BC50011070B5EE2824D00028B9
:1038700025D080001E4BC558280010F0D9FBC0B2DF
:103880001F2800D91F20002327E05A1C194CA15CD7
:103890000902E25C0A4344001749625202330130D4
:1038A000112BF2D9154A144B13CB13C211001A680D
:1038B0000A609B888B8019E000200023F0E70C4B06
:1038C000196802220E480CF057FC012007E05A1C30
:1038D000EC5C5100094BCC52D3B29842F7D801307E
:1038E0004000C0239B001843044B1880034870BD60
:1038F000F81400200C4601104420002084270020EA
:103900008627002000B591B04022694600200FF0C4
:10391000EBFD00200FF0FEFD064B1B785BB2002B89
:1039200001D011B000BD04480CF05CFD684606F003
:10393000B3FAF6E7E4150020E0450110F0B583B0D6
:1039400005001400012966D113785B069B0F012B3B
:1039500058D0022B03D0002B01D000205CE063780C
:10396000022B24D0072B03D0012B19D0002053E0C9
:10397000227963791B021343042B03D0052B08D053
:10398000002049E02433264A210028000EF0B6FF2B
:1039900042E08D33234A210028000EF0AFFF3BE0C8
:1039A0002723214A210028000EF0A8FF34E02279C5
:1039B00063791B021343072B30D11C4B1B785BB27E
:1039C000022B0FD06B469F1D194E0222310038008A
:1039D0000CF0D2FB3B883200083A210028000EF0A0
:1039E0008DFF19E06B469F1D124E022231003800F8
:1039F0000CF0C2FB3B883200083A210028000EF090
:103A00007DFF09E051780C480CF01CFD21002800D6
:103A10000EF058FF00E0012003B0F0BD0020FBE7EE
:103A2000BC1500202815002020460110E4150020B8
:103A30005844011030450110F8450110012815D0F7
:103A4000022907D000290BD1022A29D0002A29D027
:103A500006207047022A1FD0002A1FD00800F8E76E
:103A6000022A21D0002A21D00820F2E7022907D01B
:103A700000290BD1022A1FD0002A1FD00720E8E717
:103A8000022A15D0002A15D00320E2E7022AE0D04E
:103A9000002A15D00020DCE70120DAE70320D8E770
:103AA0000720D6E70520D4E70020D2E70420D0E79E
:103AB0001000CEE70420CCE70820CAE70620C8E7BC
:103AC0000520C6E70120704710B584220021024876
:103AD0000CF04CFB10BDC046D032002010B50020C9
:103AE000FFF7F2FF10BD0000F0B5C64600B58046F6
:103AF0000D008B795D2B24D10B79DF00FF1ABFB24B
:103B00001937BFB2974221D80C780C19002605E06E
:103B1000104A53700136F6B22378E4182B79B34279
:103B200010D96378052BF7D1210040460EF0F0FA4A
:103B300000280DD0A378DA09012AE9D0054A93704C
:103B4000E8E70027380080BCB846F0BD0027F9E759
:103B50000027F7E7D032002030B583B004001448C6
:103B60004078884206D0124A92788A420CD00120CE
:103B700003B030BD0F4A002A18D09AB20E49002077
:103B8000FFF7C0FD0120F3E70C4D9BB200932B0023
:103B9000002200210020FFF7DFFD2B00443B997835
:103BA00040232A0020000EF027FBE1E70120DFE799
:103BB000D032002005370010D4320020143300200A
:103BC00010B50EF009FA002803D10023002B08D10C
:103BD00010BD0EF009FA002801D10123F6E70023F9
:103BE000F4E70B4B997800200EF042FB0028EFD150
:103BF000074CA1780EF0D8FA22004432A178402375
:103C000000200EF0F9FAA17800200EF0E1FADFE7CB
:103C1000D032002070B505000C000EF0E5F9002848
:103C200006D1812100200EF0BFFA002803D170BD1B
:103C30000EF0E2F9F5E7231C402C00D940239CB29A
:103C4000094E2200290030000CF096FA351F6978E1
:103C50002300320000200EF0CFFA697800200EF029
:103C6000B7FAFFF7ADFFE2E7D432002010B5104BF2
:103C70005C780EF0B1F9002806D10023002B13D098
:103C8000002C09D1002010E00EF0AEF9002801D17F
:103C90000123F3E70023F1E7210000200EF0E8FA0A
:103CA000002803D1013000E0002010BD0020FCE717
:103CB000D032002010B53C22002102480CF056FA08
:103CC00010BDC0462028002010B50020FFF7F2FFED
:103CD00010BD0000F0B583B006000F001500FEF720
:103CE00075F802284CD13B79DC00E41AA4B21234F6
:103CF000A4B2AC4248D80023002B09D00025002DE7
:103D000044D0397879184B78212B11D0002438E031
:103D10001A01D21A92001F4882185278002A02D043
:103D20000133DBB2E8E71A01D11A89004518E6E74A
:103D3000A9630B78C9183A796B1C0193AB1C0093EB
:103D4000032330000EF0FEF9002821D0BB79012BAF
:103D500013D001232B71BB782B70AA6BD179137A06
:103D60001B020B43EB80A97800290AD02A003032CD
:103D7000062330000EF040FA03E0FB79EB70E8E731
:103D80000024200003B0F0BD0024FAE70024F8E787
:103D90000024F6E72028002070B582B005001D4CF5
:103DA000002000280AD0002830D162788A4213D03F
:103DB000A2788A421AD0012002B070BD0401241AF0
:103DC000A400144A1419A2788A42ECD062788A427C
:103DD000E9D00130C0B2E4E70F4A002A18D0210030
:103DE00008319AB2FFF78EFC0120E5E72600303655
:103DF0009BB20093330000220021FFF7ADFCA178B5
:103E00000623320028000EF0F7F9D5E70020D3E7AB
:103E10000120D1E72028002005370010F0B5C64664
:103E200000B582B00600150012781F231340012B45
:103E300000D01FE128790024002C0DD0FF24002C95
:103E400000D01CE12700602318001040134239D134
:103E500001290BD001200EE123011B1B9B008E4F7B
:103E6000DB5D9842EBD00134E4B2E5E7EA786B78A9
:103E7000062B06D0062B00D005E1222A12D0002006
:103E8000F9E0212AF6D123011F1BBF00824BDF1965
:103E9000BA6B002A00D1F4E01378290030000EF04C
:103EA0002DFDE8E02000FFF7C9FC02003B01DF1B0D
:103EB000BF00794BDF19FB88290030000EF01EFD92
:103EC0000120D8E0202800D0DFE06B780B2B00D950
:103ED000DDE09B00714AD3589F46012901D00120A3
:103EE000C9E0EA78A97823011B1B9B0008336A4FBD
:103EF000FF18A879EB791B020343181C252B00D966
:103F0000252080B2002909D0012B16D97B1C9C46A4
:103F10003970013880B20123984602E0BC46002384
:103F20009846009063462000FFF7EAFB03004344F5
:103F30009BB2002B05D100209DE0BC460023984693
:103F4000EFE73A00290030000EF0D8FC012092E0A3
:103F5000012903D0032915D001208CE0AA79EB793F
:103F60001B021343062B01D9002084E02201121BFF
:103F70009200303248498A18290030000EF0BEFC09
:103F8000012078E0EA78A97823011B1B9B003033DD
:103F90004148C318AE79E87900023043051C062871
:103FA00000D90625ADB2002904D0012802D918781D
:103FB000884205D000952000FFF7CEFB01205AE093
:103FC0000133013DADB2F5E7012901D0012052E0F6
:103FD000E97823011F1BBF002F4BDF197971304B8C
:103FE000002B04D0200000E000BF002843D02900AF
:103FF00030000EF067FC01203DE0012901D00120D6
:1040000039E02201171BBF00234AD21905320123D0
:10401000290030000EF072FC01202CE0012901D0B3
:10402000012028E02201171BBF001B4AD2190432CD
:104030000123290030000EF061FC01201BE0012962
:1040400003D0032907D0012015E0290030000EF02D
:1040500039FC01200FE0A97823011F1BBF000E4B84
:10406000DF1939710F4B002B13D0200000E000BF87
:10407000012000E0002002B080BCB846F0BD002066
:10408000F9E70020F7E70020F5E70020F3E700203C
:10409000F1E70120EFE7C04620280020A4460110E8
:1040A000000000000000000010B50301181A800095
:1040B000104B181844780DF08FFF002806D100230C
:1040C000002B13D0002C09D1002010E00DF08CFF44
:1040D000002801D10123F3E70023F1E721000020AC
:1040E0000EF0C6F8002803D1013000E0002010BD1A
:1040F0000020FCE72028002010B50020FFF7D4FFA7
:1041000010BD0000F8B504000F0016001D000301EB
:104110001B1A9B001F4AD318597800200EF044F850
:10412000002825D0002F24D02B1C242D00D9242397
:104130009DB2184A2301191B890051180F721B1BCD
:104140009B000833D01801302A0031000CF014F81D
:104150000135ADB20F4B2001021B920008329A18B4
:10416000001B8000181841782B0000200EF044F846
:10417000F8BD2B1C252D00D925239DB22001001B45
:1041800080000830034B18182A0031000BF0F4FFB0
:10419000E0E7C0462028002010B513000A00010007
:1041A0000020FFF7AFFF10BD107003120F20184062
:1041B00050700B0118435070091191707047000046
:1041C00070B5124D802424012A0021002000FFF741
:1041D000EBFFEA1C21002000FFF7E6FFAA1D2100EB
:1041E0002000FFF7E1FF2A00093221002000FFF73D
:1041F000DBFF2A000C3221002000FFF7D5FF2A0048
:104200000F3221002000FFF7CFFF70BDC03E00201D
:1042100010B54022002102480BF0A8FF10BDC04697
:10422000EC2D0020014B18707047C0463E3F002027
:10423000014B18737047C046EC2D0020014B58739A
:104240007047C046EC2D002070B5FCF7BFFF04009E
:104250000E4D2B68C01AC317C01858400AF008FC4E
:104260002C6000220A4B0AF074FB0AF03DFC094B5B
:1042700000215A5E1C7808490C70801882B200B286
:104280001880FF2801DDFF3A1A8070BD503B0020E6
:1042900000408F40063F0020EC2D0020024B1A7892
:1042A000024B5A707047C046F0480110EC2D0020B8
:1042B000064B04229A732F32DA73303A1A74013A99
:1042C0005A74012119765A767047C046EC2D0020A9
:1042D00010B5C4B2000A002307E019000E31044AE9
:1042E0005454013150540233DBB20D2BF5D910BDBB
:1042F000EC2D00200A4B01221A7000225A70033262
:104300009A70084A117AD970D179197191795971D5
:10431000517999711179D971D2781A727047C04662
:10432000EC2D00202819002010B50400FFF770FFC5
:104330008120FFF777FF012C09D0064B1C70064B3C
:1043400019784023034A00200EF068FE10BDFFF7E5
:10435000D1FFF4E7EC2D00203E3F002070B586B081
:104360006C462A4B0433220070CB70C270CB70C2F3
:10437000022837D0032841D00023002500E0013374
:10438000052B10D8224AD2187D32FF32147805222C
:10439000D21A885C8442F2D01D4AD2187D32FF3294
:1043A00010700125EBE7002D19D18120FFF740FFA8
:1043B000184801238373164B1A7AC273DA79027490
:1043C0009A7942745A7982741A79C274DB780375C7
:1043D0001530182269460BF0CFFE06B070BDFDF710
:1043E000F1FBE2E78120FFF723FF0A4802238373F2
:1043F0000F30102208490BF0BFFEEEE78120FFF7D7
:1044000017FF044B03229A73E7E7C046F0480110F8
:1044100028190020EC2D00206C2E002070B504001F
:104420000E001500FFF7F4FE2120FFF7FBFEFFF75B
:104430000BFFFFF733FF2000FFF700FF482C68D881
:10444000A4003E4B1B599F468020FFF7F1FE00233E
:104450006BE0F07A431E9841C0B201F0C3FEF27ADD
:10446000374B1A708020FFF7E3FEF0E731000C3184
:10447000F07AFFF773FFEAE78020FFF7D9FEF27AC0
:10448000304B1A70E3E78220FFF7D2FEFFF710FFF0
:10449000DDE78020FFF7CCFED9E79020FFF7C8FECC
:1044A000F27BF17A307B00F039FAD0E72648FCF74E
:1044B000BBFECCE78020FFF7BBFEC8E78320FFF7F9
:1044C000B7FE6420FFF704FFC1E78020FFF7B0FECE
:1044D000BDE78020FFF7ACFEF27A0F231340033BC9
:1044E000DAB20C2A03D89300184AD3589F46012009
:1044F000FDF7C4FFABE70320FAE70420F8E7052047
:10450000F6E70620F4E70720F2E70820F0E70220AC
:10451000EEE70023AB4202D201339BB2FAE78020E0
:10452000FFF786FE93E70133DBB21F2BFBD9402355
:10453000074A212100200EF071FD70BD984701103F
:104540003F3F0020E81500205D120010BC4801101C
:10455000EC2D002070B50C00150010280DD080281F
:104560000FD0012800D070BD881C01F0D3F8A07ACC
:104570002A002100FFF752FFF5E7881C01F0CAF876
:10458000F1E74878FFF7D0FEEDE70000094B1B7814
:104590000A2B07D00B2B09D0064B0A221A70054BA9
:1045A00018787047034B0B221A70F8E7014B0C2266
:1045B0001A70F4E7E915002070B504005D4B1B7814
:1045C000002B04D15C4B1B78302B0BD070BD5B4BA8
:1045D0001A885B4B18785B49FFF7BCFF554B0022EC
:1045E0001A70F3E7FFF714FE3020FFF71BFEFFF70A
:1045F0002BFEFFF753FE544B1B78012B2DD0022BC3
:1046000000D18AE02378514DAB706378EB70A378CA
:104610002B71E3786B7123790F210B40AB716079BB
:10462000A3791B0203431B11EB71E3792B72237AED
:1046300019406972617AA37A1B020B431B11AB729A
:10464000FFF7A4FFE872424B197840232A000020AC
:104650000EF0E4FC03F006FAB8E701F067FC83789B
:104660003A4D2B73C3786B730378AB734378EB735A
:1046700003792B7443796B74037AAB74437AEB74CC
:1046800083792B75C3796B75837AAB75C37AEB75B8
:1046900001F04CFC83782B76C3786B760378AB768D
:1046A0004378EB7603792B7743796B77037AAB7793
:1046B000437AEB7782792023EA54C2790133EA54B2
:1046C000827A0133EA54C27A0133EA5401F02EFCB3
:1046D00082782423EA54C2780133EA540278013301
:1046E000EA5442780133EA5402790133EA544279B8
:1046F0000133EA54027A0133EA54427A0133EA542C
:1047000082790133EA54C2790133EA54827A01335F
:10471000EA54C27A0133EA5474E70E4D280001F0DE
:1047200057F80A4B0C3307CD07C307CD07C307CD96
:1047300007C367E7403F0020E8150020E61500208A
:10474000413F00202C2E00203F3F0020EC2D002078
:104750003E3F0020703B002010B5054B01241C702B
:10476000044B1870044B1A8004480BF005FD10BD73
:10477000403F0020413F0020E61500202C2E002065
:1047800010B5024B18180BF0F7FC10BDEC2D0020F3
:10479000502800D1B0E003D960282FD0FF2010E0CE
:1047A000402800D9AAE0202805D34B2924D88B0023
:1047B000564AD3589F46002803D0102800D09FE0C7
:1047C000002070479520FCE70020FAE72A39504B7B
:1047D00059187D31FF310878F3E704394C4B5918EB
:1047E0007D31FF310878ECE70020EAE70020E8E7B8
:1047F0006820E6E70020E4E70020E2E7A92979D86D
:104800008B00444AD3589F46FF20DAE70220D8E7BE
:104810000120D6E72320D4E70020D2E7B920D0E753
:104820001A20CEE70120CCE70020CAE74020C8E7E5
:104830000020C6E74020C4E70020C2E74020C0E7D0
:104840000120BEE70020BCE70120BAE70020B8E75E
:104850000120B6E70020B4E73B20B2E73420B0E700
:104860003B20AEE73420ACE73B20AAE73420A8E7A2
:104870003D39294B585CA4E73D39274B585CA0E7EC
:104880001A209EE71A209CE71A209AE75E2098E7F4
:10489000012096E7502094E7FD2092E7002090E762
:1048A00000208EE7C6208CE70F208AE70F2088E7DC
:1048B000302086E7612084E7AE2082E7902080E701
:1048C000D9207EE7D4207CE714207AE7542078E7CB
:1048D000412076E7152074E7542072E7C72070E77F
:1048E00079206EE79C206CE733206AE7362068E782
:1048F000632066E7002064E7002062E7FF2060E7AE
:10490000FF205EE722205CE703205AE70C490110F4
:10491000281900203C4A0110C03E0020F0B58BB0A1
:1049200006000F00150008A90F70487000248C7055
:10493000CC700A7105220E20FFF722FF00941A2284
:10494000002101A80BF012FC07E03919C9B23000B0
:10495000FFF71EFF6B4618550134A542F5DC2A000F
:1049600069461320FFF70CFF0BB0F0BD70B50024B3
:1049700006E0281C0BF060FBA3000F4AD050013466
:10498000A0235B009C4215D220000BF030FAF421EA
:1049900089050BF0D8F98221C9050BF0B4F9051C83
:1049A00006490BF017FA0028E3D1A300024A0021C0
:1049B0009950E4E770BDC046441B00200000FEC0D3
:1049C00010B5002405E0A3001B4AC1210906995037
:1049D00001347F2C2FD8002CF5D00F2C0FD91F2C91
:1049E0001BD920000BF003FAF42189050BF0ABF979
:1049F00012490BF088F9A3000F4AD050E8E72000D5
:104A00000BF0F5F9FA2189050BF09DF90C490BF033
:104A10007AF9A300084AD050DAE720000BF0E7F952
:104A2000F62189050BF08FF906490BF06CF9A3000C
:104A3000014AD050CCE710BD5820002000007E4035
:104A40000000F84000009E4010B500240EE0200059
:104A50000BF0CDF9F42189050BF075F98021C9051A
:104A60000BF051F9A300034AD05001347F2CEED94A
:104A700010BDC0465822002010B5041C0BF0DEF912
:104A80000BF0BAF98221C9050BF042F90BF0D6F907
:104A900000280BD08221C905201C0BF039F9842194
:104AA000C9050BF050F90BF0FBF910BD0020FCE735
:104AB00010B51C1C022818D0032805D0002801D0EE
:104AC000201C10BD141CFBE7101C0BF021F9041C6A
:104AD00002990BF071F9002809D10399201C0BF001
:104AE00081F90028ECD0039CEAE70C1CE8E7029C63
:104AF000E6E710B5FFF73AFFFFF762FFFFF7A4FF05
:104B000010BD000070B505000C0000786B781B022A
:104B10000343AA7812041343E87800061843FFF70A
:104B2000ABFF284E8000805927490BF00CF920700C
:104B3000030A6370030CA370000EE070287A6B7A8E
:104B40001B020343AA7A12041343E87A00061843AF
:104B5000FFF792FF800080591C490BF0F4F8207297
:104B6000030A6372030CA372000EE07228796B795A
:104B70001B020343AA7912041343E8790006184381
:104B8000FFF77AFF8000335823711A0A62711A0CFA
:104B9000A2711B0EE371287B6B7B1B020343AA7B74
:104BA00012041343E87B00061843FFF765FF8000FB
:104BB000335823731A0A62731A0CA2731B0EE37321
:104BC00070BDC046441B00200000A04300002043ED
:104BD000F0B5DE4657464E464546E0B589B005007D
:104BE0000C00C678B3091E000B700C22002105A82A
:104BF0000BF0BCFA0C22002102A80BF0B7FA002E31
:104C00000CD1012E00D99FE0022E00D932E109B06B
:104C1000F0BCBB46B246A946A046F0BDAA78120930
:104C2000EB780121194009010A43DD4B98465300F6
:104C30009B189B00434405AA83CB83C200239B4659
:104C4000A278E3781B021343217909040B436279AC
:104C500012061A436B46587D8023DB050193C02161
:104C6000090600915B460799FFF722FFA21CA0707E
:104C7000030A9146E370030C2371000E6071C12298
:104C800012069246A279E3791B021343217A0904A2
:104C90000B43627A12061A4306996B46187D5F46EB
:104CA0000197574600975346FFF702FFA071020A8B
:104CB000E271020C2272000E6072EA789206D20E45
:104CC00053009B189B00434402AA83CB83C2A27A61
:104CD000E37A1B021343217B09040B43627B120618
:104CE0001A436B46587A8023DB050193C0210906DD
:104CF00000915B460499FFF7DBFEA072020AE272A4
:104D0000020C2273000E6073A27BE37B1B02134331
:104D1000217C09040B43627C12061A4303996B46FB
:104D2000187A5B46019353460093FFF7C1FEA073C8
:104D3000020AE273020C2274000E60742100123128
:104D40004846FFF7DFFE5CE76B785B06DA0E944BB4
:104D5000984653009B189B00434405AA83CB83C20B
:104D600000239B46A278E3781B02134321790904B0
:104D70000B43627912061A436B46587D8023DB058C
:104D80000193C021090600915B460799FFF790FE49
:104D9000A21CA070030A9146E370030C2371000E5D
:104DA0006071C12212069246A279E3791B02134375
:104DB000217A09040B43627A12061A4306996B465C
:104DC000187D5F460197574600975346FFF770FEE0
:104DD000A071020AE271020C2272000E60726A78FF
:104DE000D209A9780F230B405B0013435A00D31854
:104DF0009B00434402AA83CB83C2A27AE37A1B02BC
:104E00001343217B09040B43627B12061A436B4652
:104E1000587A8023DB050193C021090600915B4687
:104E20000499FFF745FEA072020AE272020C227397
:104E3000000E6073A27BE37B1B021343217C0904F9
:104E40000B43627C12061A4303996B46187A5B4641
:104E5000019353460093FFF72BFEA073020AE273FF
:104E6000020C2274000E6074210022314846FFF7C4
:104E700049FEC9E62A78D206D10E05AF930E5B181B
:104E80009B00474A944663443A0043CB43C2002305
:104E90009A46A278E3781B021343217909040B4355
:104EA000627912061A4378788023DB059B460193CA
:104EB000C0231B06009353460799FFF7F9FDA21C78
:104EC0009046A070030AE370030C2371000E60711A
:104ED000C12212069146A279E3791B021343217A7B
:104EE00009040B43627A12061A430699387857462A
:104EF00001974F4600974B46FFF7DAFDA071020A73
:104F0000E271020C2272000E60722A7852096978EE
:104F100003230B40DB00134302AD5A00D3189B0060
:104F20001F4AD6182A0083CE83C2A27AE37A1B02D4
:104F30001343217B09040B43627B12061A436878F2
:104F400059460191C0231B06009353460499FFF76D
:104F5000AFFDA072020AE272020C2273000E6073AF
:104F6000A27BE37B1B021343217C09040B43627C7D
:104F700012061A4303992878534601934B4600932F
:104F8000FFF796FDA073020AE273020C2274000E72
:104F90006074210032314046FFF7B4FD37E6C04669
:104FA000E44C011070B50200C3789B090B700478C3
:104FB000A4084078012303409B0123431A4D9B0022
:104FC000881CEB588B701C0A44701C0C84701B0EE0
:104FD000C37093785B06DB0DEB588B721D0ACD72A4
:104FE0001D0C0D731B0E4B7353785B080F4C9B000D
:104FF000E3588B711E0ACE711E0C0E721B0E4B7283
:105000009578ED09D2783F2313405B002B439B003A
:10501000E3588B731C0ACC731C0C0C741B0E4B7462
:105020001231FFF76FFD70BD58220020582000207C
:10503000F0B5DE4657464E464546E0B589B0050018
:105040000C000C22002105A80BF090F80C22002186
:1050500002A80BF08BF8EE78B3091E1E23706ED0F9
:105060002B78DB0700D473E02B785B089B00B649F4
:10507000CB58A370190AE170190C21711B0E6371D2
:10508000A978C909EA783F2313405B000B439B00D2
:10509000AE49CB58A371190AE171190C21721B0E8C
:1050A0006372AA785206D20E02AB994653009A1840
:1050B0009200A74B9B184A4683CB83C20023984695
:1050C000A27AE37A1B021343217B09040B43627B20
:1050D00012061A434B4658788023DB050193C02300
:1050E0001B060093434649468968FFF7E1FCA0721E
:1050F000020AE272020C2273000E6073C1231B06C7
:10510000A27BE17B09021143207C00040143627C05
:1051100012060A43494649684846007847460197BF
:105120000093FFF7C5FCA073020AE273020C22741D
:10513000000E6074A01C21001231FFF7E3FC012E69
:105140006DD809B0F0BCBB46B246A946A046F0BD3A
:105150002B785B089B007C4AD358A372190AE17232
:10516000190C21731B0E6373A978C909EA783F23D0
:1051700013405B000B439B00744AD358A373190A76
:10518000E173190C21741B0E6374AA785206D20EB7
:1051900005AB994653009A1892006D4B9B184A46EE
:1051A00083CB83C200239846A278E3781B02134383
:1051B000217909040B43627912061A434B46587849
:1051C0008023DB050193C0231B0600934346494619
:1051D0008968FFF76DFCA070020AE270020C227170
:1051E000000E6071C1231B06A279E1790902114307
:1051F000207A00040143627A12060A43494649684C
:1052000048460078474601970093FFF751FCA0718C
:10521000020AE271020C2272000E60728AE76A785A
:10522000D206D10E05AF930E5B189B00484A9446F8
:1052300063443A0043CB43C200239A46A278E37802
:105240001B021343217909040B43627912061A43A6
:1052500078788023DB059B460193C0231B060093CF
:1052600053460799FFF724FCA21C9046A070030A3E
:10527000E370030C2371000E6071C1221206914687
:10528000A279E3791B021343217A09040B43627A62
:1052900012061A4306993878574601974F460097E9
:1052A0004B46FFF705FCA071020AE271020C227264
:1052B000000E60726A785209A97803230B40DB0064
:1052C000134302AD5A00D3189B00214AD6182A0076
:1052D00083CE83C2A27AE37A1B021343217B0904A3
:1052E0000B43627B12061A43687859460191C0232A
:1052F0001B06009353460499FFF7DAFBA072020ADB
:10530000E272020C2273000E6073A27BE37B1B022D
:105310001343217C09040B43627C12061A43039950
:105320002878534601934B460093FFF7C1FBA073C7
:10533000020AE273020C2274000E60742100223112
:105340004046FFF7DFFBFCE65822002058200020F3
:10535000E44C0110F0B5DE4657464E464546E0B5F2
:1053600089B005000C000C22002105A80AF0FEFE01
:105370000C22002102A80AF0F9FEEE78B3091E1EE5
:1053800023701AD02B78DA0735D55B0721D5A97899
:10539000C909EA783F2313405B000B439B00BC49DB
:1053A000CB58A370190AE170190C21711B0E63719F
:1053B000A01C21001231FFF7A5FB012E41D8022EBF
:1053C00000D9D4E009B0F0BCBB46B246A946A0461D
:1053D000F0BDA978C909EA783F2313405B000B436D
:1053E0009B00AC49CB58A371190AE171190C2172C9
:1053F0001B0E6372DCE75B0711D5A978C909EA784F
:105400003F2313405B000B439B00A14AD358A37278
:10541000190AE172190C21731B0E6373C8E7A9788E
:10542000C909EA783F2313405B000B439B00994A6C
:10543000D358A373190AE173190C21741B0E6374FA
:10544000B6E76A785209AB7803211940C9000A43CC
:10545000914B984653009B189B00434405AA83CB6D
:1054600083C200239B46A278E3781B021343217971
:1054700009040B43627912061A436B46587D802358
:10548000DB050193C021090600915B460799FFF7F0
:105490000FFBA21CA070030A9146E370030C23715A
:1054A000000E6071C12212069246A279E3791B02B6
:1054B0001343217A09040B43627A12061A430699B0
:1054C0006B46187D5F460197574600975346FFF796
:1054D000EFFAA071020AE271020C2272000E6072F1
:1054E000AA785206D20E53009B189B00434402AA8E
:1054F00083CB83C2A27AE37A1B021343217B090484
:105500000B43627B12061A436B46587A8023DB05F5
:105510000193C021090600915B460499FFF7C8FA80
:10552000A072020AE272020C2273000E6073A27B68
:10553000E37B1B021343217C09040B43627C1206AC
:105540001A4303996B46187A5B46019353460093BE
:10555000FFF7AEFAA073020AE273020C2274000E87
:105560006074210022314846FFF7CCFA27E72A78F9
:10557000D20805AF53009B189B00474A94466344EA
:105580003A0043CB43C200239A46A278E3781B0239
:105590001343217909040B43627912061A43787880
:1055A0008023DB059B460193C0231B0600935346D3
:1055B0000799FFF77DFAA21C9046A070030AE370DA
:1055C000030C2371000E6071C12212069146A2796C
:1055D000E3791B021343217A09040B43627A120612
:1055E0001A4306993878574601974F4600974B461D
:1055F000FFF75EFAA071020AE271020C2272000E3D
:1056000060726B78DB06DA0E02AD9B0E9B189B0076
:10561000214A944663442A0043CB43C2A27AE37AE8
:105620001B021343217B09040B43627B12061A43BE
:10563000687859460191C0231B060093534604998C
:10564000FFF736FAA072020AE272020C2273000E11
:105650006073A27BE37B1B021343217C09040B4391
:10566000627C12061A4303992878534601934B46ED
:105670000097FFF71DFAA073020AE273020C22746E
:10568000000E6074210032314046FFF73BFA99E684
:105690005822002058200020E44C011010B5C37897
:1056A0009B09022B26D0032B30D0012B07D00022E0
:1056B00000208871C871087248720A7010BD0478A1
:1056C00042781202144383781B042343C4783F2298
:1056D000224012061A431B0306D0930707D09307F4
:1056E000ECD5FFF737FEE9E7FFF772FAE6E7FFF7D9
:1056F00059FCE3E7047843781B0223439B0502D15E
:10570000FFF766FADAE7FFF793FCD7E7FFF760FAEF
:10571000D4E7000070B58CB00400082201002948CD
:105720000AF02AFD284B1B78002B0ED0274D2900AC
:105730002000FFF7B3FF2C78002C40D0302200214E
:1057400068460AF013FD002331E0204B0022DA8086
:10575000C12212021A810021D9811A8259809980AE
:105760001A00598100239381FFF7C3F9164B0122D8
:105770001A70DBE7154A5D1C28011018C6880189DC
:10578000090431431B016E469951D218D68B118CF6
:10579000090431436B4459604688818809043143C8
:1057A0009960518B928B12040A43DA60EBB29C42EF
:1057B000E0D861B2002300226846FDF791FD0CB0ED
:1057C00070BDC046B83E00201E3F0020783A002041
:1057D000F0B5DE4657464E464546E0B585B0040076
:1057E0008379032293430222134383710125002608
:1057F00001E00135EDB2032D0CD8844BAA00D0583E
:10580000B200D158490049080AF0ECFA0028F0D05B
:105810002E00EEE7032333409A00A3790C218B433B
:105820001343A371002509E0794940460AF08BFA39
:10583000AF000AF003FB01ABD8510135022D15DC96
:105840007219013203231340704F9B00D8599D21D8
:10585000C9050AF078FA8046B300D85900210AF049
:10586000ABFA0028E0D1FE218905DEE7019B9B12FF
:10587000DB02D90A0F2211400901A07902400A4334
:10588000A271D90BE171D90D2172DB0F0126012123
:105890000B40607AB04303436372029B9D127F20EA
:1058A000824605406F00657A0D403D4365725B148A
:1058B0009B049B0CA3721B0A3F273B40E57A4038B0
:1058C00085432B43E372039B9A12944603250322DC
:1058D0006046104080018446E07A074060460743F6
:1058E000E7721B135B035F0BA774580DE0745B0F2B
:1058F0000720804603409B46207D84460720814642
:1059000060464B4698430300584618432075C3B27F
:1059100040460340237500236375A375E37D18306B
:105920008343E375E77D1F233B40E3750023A377A3
:105930002700E37FAB43E377DBB21340E3771E3707
:10594000BB78B343BB701F36A35D0B40A355013634
:10595000A35D60308343A3552E4B1B681940C901DA
:105960008846A05D51460140080041460143A155CB
:105970005B089B059B0D3B711B0A13407979A9437A
:105980000B437B712323E15C0A400C210A43E25460
:105990001E4A138AA3701B0AE370538A23701B0AE2
:1059A0006370938A23711B0A6371FBF70FFC1A4B18
:1059B0001C68844227D9041B013C174B1860174B05
:1059C0001A68944664441C60FA239B009C4213D9D5
:1059D0001900200008F064FD104B1960601AFA21CC
:1059E000890008F05DFD0B4C23689C4660442060F4
:1059F0000B4908F055FD216005B0F0BCBB46B2462E
:105A0000A946A046F0BD041BD7E7C046EC15002010
:105A1000000080BFEC3B0020543B002054330020AA
:105A2000FF070000F0B5DE4657464E464546E0B556
:105A300085B004000D00C3689A46CE68311C181C5E
:105A40000AF081F9071C236898462B689B46191CAD
:105A500040460AF078F9011C381C0AF054F9071C7A
:105A600063686A689146111C0093181C0AF06BF970
:105A7000011C381C0AF047F90190A768AD68291C81
:105A8000381C0AF060F9011C01980AF03CF90190F9
:105A9000594650460AF057F902904146301C0AF028
:105AA00052F9011C02980AF033F90290291C00985F
:105AB0000AF049F9011C02980AF02AF90290391CEF
:105AC00048460AF040F9011C02980AF01CF90290BD
:105AD000494650460AF037F90390291C40460AF01F
