:020000041000EA
:1000000000B5324B212058609868022188439860DF
:10001000D860186158612E4B002199600221596106
:100020000121F02299502B49196001219960352056
:1000300000F044F80222904214D00621196600F024
:1000400034F8196E01211966002018661A6600F04E
:100050002CF8196E196E196E052000F02FF8012189
:100060000842F9D1002199601B49196000215960AB
:100070001A491B48016001219960EB211966A021F2
:10008000196600F012F800219960164914480160C1
:100090000121996001BC002800D000471248134993
:1000A000086003C880F30888084703B5996A0420EC
:1000B0000142FBD001200142F8D103BD02B5186610
:1000C0001866FFF7F2FF186E186E02BD00000240BE
:1000D000000000180000070000035F00212200005C
:1000E000F4000018222000A00001001008ED00E03C
:1000F00000000000000000000000000074B24E7A12
:1001000000200420F7010010C3010010C5010010F9
:10011000C1010010C1010010C1010010C101001097
:10012000C1010010C1010010C1010010C701001081
:10013000C1010010C1010010C9010010CB01001065
:10014000CD010010CD010010CD010010CD01001037
:10015000CD010010CD010010CD010010CD01001027
:10016000CD010010CD010010CD010010CD01001017
:10017000CD010010CD010010CD010010CD01001007
:10018000CD010010CD010010CD010010CD010010F7
:10019000CD010010CD010010CD010010CD010010E7
:1001A000CD010010CD010010CD010010CD010010D7
:1001B000CD010010CD010010CD010010CD010010C7
:1001C00000BE00BE00BE00BE00BE00BEEFF3058054
:1001D000103800BEF2EB8871307C0110507C0110A9
:1001E0003402001090A31AE700201F49086006C8D7
:1001F00081F3088810471D48006800282FD10DA4FE
:100200000ECC002902D000F012F8F9E71849194A7B
:10021000002000E001C19142FCD1174988471749ED
:1002200088471749884700BEFDE701C901C29A42C5
:10023000FBD37047507C0110C000002050180020F4
:10024000E09301100000042000000420E09301105E
:10025000001004200010042000000000704709482E
:100260000EF0CCFB0047000008ED00E0000000D0DD
:10027000701800200C62002085D70010E9080010DB
:1002800041D700105756000006005250ABB36053E0
:100290004872011006005250861C03025872011069
:1002A000060052505422A29D6C720110050052505B
:1002B000DE65F468E0930110F8B5C04610B5064C51
:1002C0002378002B07D1054B002B02D0044800E017
:1002D00000BF0123237010BD701B00200000000030
:1002E000F8470110044B10B5002B03D00349044814
:1002F00000E000BF10BDC04600000000741B0020DD
:10030000F847011070B500290AD001248440D02597
:100310002D06AC62002200210BF074FA6C6170BDF6
:1003200001248440D0252D066C62002200210BF0B0
:1003300069FAAC61F3E7000010B504004378DB070D
:1003400013D463781022110019401A4203D0124BC3
:100350001B78002B0FD0002903D10F4B1B78002BEB
:1003600011D10A200CF0B0FB10BD002200210020AA
:100370000DF0AAF9E5E7084B0F3A1A7000210E209C
:10038000FFF7C0FFEDE701310E20FFF7BBFF024B87
:1003900000221A70E5E7C046FD61002070B5002814
:1003A0000ED0D024240680252D05656164200CF034
:1003B0008BFB0223636164200CF086FBA56170BD9A
:1003C000D024240680252D05656164200CF07CFB7B
:1003D0000223A36164200CF077FBA561EFE710B561
:1003E000002804D001210E20FFF78CFF10BD002152
:1003F0000E20FFF787FFF9E710B5002001F0E3FCBE
:100400000F2001F0E0FC062001F0CEFC082001F0F6
:10041000CBFC0B2001F0C8FC0C2001F0C5FC0D202A
:1004200001F0B2FC0A2001F0AFFC072001F0ACFCA7
:10043000092001F0A9FC1849184811F021FB0121FD
:1004400012200BF0C7F9012113200BF0C3F9012191
:1004500014200BF0BFF910200BF0EEF9D024240685
:1004600080235B026362636116200BF0E5F9802351
:10047000DB036362636111200BF0DEF980239B02D2
:100480006362636119200BF0D7F980239B046362D8
:10049000636100F0FBFF10BD80841E0000C00340BC
:1004A000F8B5DE4657464E464546E0B50400D02630
:1004B000360680239B019846B361052000210CF08D
:1004C000D7FA7368DB0A01252B405A4253410127B2
:1004D0003B401B01227810218A4313432370736829
:1004E0001B0B2B405A4253413B405B01227820209A
:1004F00082431343237073689B092B405A42534134
:100500003B409B01227830318A4313432370736848
:100510001B0A2B405A425341DB0122783F310A40EB
:1005200013432370434673618023DB009B46B36112
:10053000052000210CF09CFA73681B0B2B405A42DB
:1005400053413B409B002278042189468A43134350
:1005500023707368DB0A2B405A4253413B40DB0057
:100560002278043188468A431343237073681B0A38
:100570002B405A4253413B405B00227806398A4661
:100580008A431343237073689B092B405A4253419B
:100590003B402278AA43134323705B467361802358
:1005A0009B46B361052000210CF062FA73689B0939
:1005B0002B405A4253413B401B01627810218A4331
:1005C0001343637073681B0A2B405A4253413B40EC
:1005D0005B00A278504682431343A37073681B0BE1
:1005E0002B405A4253413B40A278AA431343A37085
:1005F0007368DB0A2B405A4253413B405B016278EF
:100600001E308243134363705B4673618133FF3353
:100610009B46B361052000210CF02AFA73681B0A7F
:100620002B405A4253413B409B00627848468243EC
:100630001343637073681B0B2B405A4253413B407A
:100640006278AA431343637073689B092B405A4234
:1006500053413B405B0062785046824313436370D2
:100660007368DB0A2B405A4253413B40DB006278FF
:1006700040468243134363705B46736173682B404B
:100680005A425341DB016278773002401343637072
:100690007368DB0B2B405A4253413B409B0162780D
:1006A0003F3882431343637073689B081D406B425D
:1006B0005D413D40AD00A3784A4693431D43A5707C
:1006C00062783F23100098430300C03B59424B41DE
:1006D0001F40FF00EBB2404683431F43A770D20682
:1006E000D20F1201FBB210218B431A43A270F0BC4F
:1006F000BB46B246A946A046F8BDF8B504000E1C9C
:100700000569AF00395840690FF0FFFD60613E5147
:10071000311C0FF0FFFD60610135EA17920FAD1833
:1007200003231D40AD1A2561F8BD10B54069FA21BB
:1007300089050FF00AFE10BDF0B5DE4657464E465D
:100740004546E0B585B004005C4B9946180014F0AE
:100750003BF803AF5A4B1A883A800023BB7002AEB5
:100760003280B37001AD2A80AB7069460A808B700D
:10077000D0231B06984680235B029A464346524686
:100780009A61504B9B4603233A00D021584613F000
:100790008BFF434652465A619A6103233200F0218F
:1007A000584613F081FF434652465A618023DB03CB
:1007B0009A46434652469A6103236A46F0215846B8
:1007C00013F072FF434652465A619A6103232A008E
:1007D000D021584613F068FF434652465A61387894
:1007E00040027B785B00E0221201904610401843E3
:1007F000BB78DB0918430FF0FCFD011C324F3800B9
:10080000FFF77BFF3078400273785B004246104070
:100810001843B378DB0918430FF0EBFD011C2B4E96
:100820003000FFF76AFF287840026B785B00424691
:1008300010401843AB78DB0918430FF0DAFD011CB8
:10084000234D2800FFF759FF6B46187840025B786C
:100850005B004246104018436B469B78DB09184307
:100860000FF0C7FD011C1B4B98461800FFF745FF12
:100870003800FFF75AFF0FF015FE80B220603000FD
:10088000FFF753FF0FF00EFE80B260602800FFF705
:100890004CFF0FF007FE80B2A0604046FFF745FF17
:1008A0000FF000FE80B2E060484613F005FF05B08F
:1008B000F0BCBB46B246A946A046F0BDF0170020EA
:1008C000F847011000C00340503E0020683E002061
:1008D000803E0020983E002010B5024B186000F0CA
:1008E00063FC10BD9461002010B584B010F0A2F933
:1008F00064200CF0E9F8FFF77FFD0E200AF09CFF62
:100900000020FFF76CFD1B200AF096FFD024240680
:1009100080231B056362A36101200AF08DFF02237F
:100920006362A36102200AF087FF0423A36200220E
:10093000012102200AF066FF0C22002101A810F01C
:1009400017F801A8FFF7ACFD124B9B886A4613808D
:1009500063685B0703D401AB5B78DB0713D401AB9F
:100960005B785B0709D5D0231B065B685B0704D463
:1009700002236A46137005335370684601F0E4F8A9
:10098000002004B010BD04480EF038F80300002128
:1009900008009847F84701105542000070B5041C44
:1009A00000210FF003FD002829D1174B1D680021FD
:1009B000281C0FF0FBFC002824D1211C201C0FF068
:1009C000A9FC041CFE2189050FF00EFD002801D0B2
:1009D000FE24A4050D49281C0FF0B7FC011C201CA7
:1009E0000FF0B3FC0A490FF095FC041CFE218905A9
:1009F0000FF0FAFC002803D0FE24A40500E0002438
:100A0000201C70BD0024FBE7C42D00203333733F4E
:100A1000CDCC4C3D70B5041C00210FF0C7FC002864
:100A200029D1174B1D680021281C0FF0BFFC00289E
:100A300024D1211C201C0FF06DFC041CFE21890513
:100A40000FF0D2FC002801D0FE24A4050D49281C7B
:100A50000FF07BFC011C201C0FF077FC0A490FF003
:100A600059FC041CFE2189050FF0BEFC002803D0B0
:100A7000FE24A40500E00024201C70BD0024FBE738
:100A8000C42D0020CDCC4C3FCDCC4C3E70B50025C4
:100A9000002413E0201C0FF031FD0B490FF055FC32
:100AA0000FF0CEFC6B00094AD0520949201C0FF010
:100AB00031FC08490FF02EFE041C013580235B0138
:100AC0009D42E7DB70BDC04600007F435C410020D3
:100AD000DB0FC93ADB0FC940F0B5DE4657464E463C
:100AE0004546E0B591B083460C003022002104A8B1
:100AF0000FF03EFF0023002204A9012002F086FF30
:100B000082460027002303939946B2E000236363E3
:100B100023642361E361A36263609E4B9D6A0021AD
:100B2000281C0FF061FC002805D09A4E291C706A21
:100B30000FF0F0FB7062974B5D680021281C0FF0EE
:100B400053FC002805D0934E291C30680FF0E2FBBF
:100B50003060904DE86A0FF0A5FC80B28E4E4000E8
:100B6000805F0FF04BFC0190A8680FF09BFC80B2F7
:100B70004000805F0FF042FC0290E86BFFF74AFFF5
:100B8000061CA869FFF70AFF051C011C301C0FF0AA
:100B9000C1FB8046FE2189050FF026FC00280FD0FE
:100BA0004146FE2080050FF0BAFB8046011C301C38
:100BB0000FF0CBFB061C4146281C0FF0C6FB051CA2
:100BC0000199301C0FF0C1FB061C0299281C0FF084
:100BD000BCFB011C301C0FF09DFB061C6F490FF085
:100BE00003FC002807D10021301C0FF0E7FB002890
:100BF00002D0002600E0694E5B46DD19301C0FF084
:100C000051FC2870634DE96A686A0FF083FB061C8B
:100C1000E8622968A8680FF07DFBA8608B23DB05DC
:100C20009846191C301C0FF075FDE8624146A86813
:100C30000FF070FDA8604B461D2B00D994E0616B4E
:100C4000206B0FF067FB2063216CE06B0FF062FB01
:100C5000E0632169E0680FF05DFBE060E169A06995
:100C60000FF058FBA0614B4601339BB29946013708
:100C7000BFB2FE2F00D985E04B46002B00D04CE7D9
:100C80005346002B00DC41E7039B534500DB3DE767
:100C90001B011E0004AA94466644B2689046624650
:100CA0009A5801924146A163256B291C40460FF0DA
:100CB0002CFB3B490FF033FB60638B21C905281CDB
:100CC0000FF043FB37490FF02AFB051C60628B21B4
:100CD000C90540460FF039FB32490FF020FB291CB3
:100CE0000FF013FB2E490FF01AFBA062019A626409
:100CF000E16B101C0FF009FB29490FF010FB206479
:100D0000F268904676686261E568291C101C0FF055
:100D1000FCFA23490FF003FB20618B21C905281C35
:100D20000FF013FB1F490FF0FAFA051C20608B210E
:100D3000C90540460FF009FB1A490FF0F0FA291CCB
:100D40000FF0E3FA16490FF0EAFA60602662A16933
:100D5000301C0FF0DAFA12490FF0E1FAE061039B60
:100D60000133DBB20393D8E6A36B2363636CE363C5
:100D70006369E360236AA3610023A36263600023C5
:100D8000994674E711B0F0BCBB46B246A946A046EE
:100D9000F0BDC0465C3800205C41002000007F436D
:100DA0000000F04100803B46F0B5CE46474680B596
:100DB00087B005000F00FFF769FE042128000AF044
:100DC00009FD6B0807241C40012398461D40A946D5
:100DD00009200CF06FFB0FF00CFB9D490FF0B5FAEA
:100DE0009C490FF09CFA061C38000FF007FB011C11
:100DF000301C0FF094FAFA2189050FF0A6FA844608
:100E00006B46002700975F609F6010225A60924AED
:100E10009A6003AE320023CB23C28321C90560460A
:100E20000FF093FA0FF03EFB0490FE2305938B49DD
:100E3000A20013199B005F5013199B008C4663445A
:100E40009F60DF60059818610498586043460398D6
:100E50000343121992005350012010F09BFD804E65
:100E60003060012010F096FD7E4B1860012010F0DC
:100E700091FD7D4B186032687C4B0C2A00D9C8E08C
:100E80007B490B40D20213430C218B4308221343AE
:100E900078480340784803407848034001200343E2
:100EA00077480340022083438B4313430832934324
:100EB000103293436C4A12680C2A00D9AFE06C4997
:100EC0001940D3020B43220018326E490B40D10364
:100ED0000B4363490968A0000419A4006A488446CA
:100EE00064448901A020C0058446614467480860C5
:100EF0004C60042088600B615A4B19685B4B0C29CD
:100F000000D992E05A480340C9020B430C208343A6
:100F100008210B43574C2340574C2340574C234048
:100F200001242343564C23400224A34383430B4311
:100F300008318B4310318B433F2A00D97BE0514964
:100F40001940D3030B43474A1068454A1168890189
:100F50004F4A944661448201A024E405A4466244B9
:100F60004C4C14605160FF21890091601361012392
:100F70008340494A136049490C200AF07DFD012154
:100F80000C200AF069FD384B1A68384B0C2A58D8E7
:100F900037490B40D20213430C22934308210B43E1
:100FA00034490B4034490B4034490B40012423435E
:100FB00033490B4002218B439343043213431032D5
:100FC0009343294A126849464D0030484519920119
:100FD000A021C9058C466244314E1660556094606C
:100FE0001361FF22002130000FF0C2FC3000FF30FF
:100FF000FF2200210FF0BCFC1A4B1B689C40A02272
:10100000D2058623DB00D45007B0C0BCB946B04639
:10101000F0BD244B244AC32124480CF095FB214BFE
:10102000214AB73121480CF08FFB1E4B1E4AC321C9
:101030001E480CF089FB1E4B1E4A95311B480CF0D4
:1010400083FB184B184AC32118480CF07DFBC0469F
:1010500000007A4400007E43FFFF000000000540CE
:101060002C3E002098610020403F002010801F008F
:10107000FF87FFFF3FF8FFFFFFFFBFFFFFFFDFFF1F
:10108000FFFF7FFFFF7FE0FF0C0005405C61002059
:101090003C0000504815002014240050C1000020DE
:1010A000B833002000480110B84801102048011052
:1010B0008C480110A048011030B589B0304B1B7826
:1010C000002B14D000236A46D3771E2169441F33B6
:1010D0006B44180000F0CAFB6B46D87F0FF089F90B
:1010E00028490FF01CF9284B186009B030BD642066
:1010F0000BF0EAFC224B01221A7003AA234B138047
:10110000234C0025009502235A21200002F0F4FB15
:1011100005200BF0D9FC04AA1E4B13800095022376
:101120005A21200002F0E8FB05200BF0CDFC05AAB7
:10113000194B1380009502235A21200002F0DCFB9A
:1011400005200BF0C1FC06AA144B13800095022366
:101150005A21200002F0D0FB05200BF0B5FC07AAB5
:101160000F4B1380009502235A21200002F0C4FB8C
:1011700005200BF0A9FC0B491520FFF715FEA1E790
:10118000036200200000C842C42D00201AF6FFFFB1
:10119000C01700201B3400001D03000017140000BE
:1011A00001030000E02E000010B50B4B1B78002B54
:1011B00000D110BD084B00221A70084B1B68DBB22F
:1011C0000120C01AC0B20302181A054BC018054905
:1011D000FFF782FCEDE7C04606620020B433002032
:1011E000B83300205C38002070B5FE26B605154DDA
:1011F0000024331C2A1C211C201C02F079FC331C07
:101200002A1C211C201C02F073FC002408E0002092
:10121000FFF7CAFF0CF006FA08200BF055FC01346A
:101220003D2CF4DD0024074D231C2A1C211C201C0E
:1012300002F05EFC231C2A1C211C201C02F058FC1E
:1012400070BDC0460000024310B5FFF7CDFF01207E
:1012500010BD0902084300B27047000070B582B0AB
:10126000D02424068025AD02A5616B461871597102
:101270000B4E022201A9300013F066FA65610220CC
:101280000BF022FC8025AD04A561022201A93000EB
:1012900013F05AFA656102200BF016FC02B070BD23
:1012A00000C00340F0B5DE4657464E464546E0B521
:1012B00085B006000D00724B9B46180013F084FAAF
:1012C00001AC002301930822002102A80FF050FB7B
:1012D00003236B449A46A22352461370D0231B0665
:1012E00098468027BF029F61664B9946012251466E
:1012F000180013F029FA0C2322000021484613F0AD
:10130000D3F943465F6161782078FFF7A2FF40423E
:101310000FF074F85C490FF018F80FF091F883B2F1
:10132000FF273840B0711B0AF371E178A078FFF70E
:1013300090FF0FF063F854490FF007F80FF080F8B2
:1013400083B2384030721B0A737261792079FFF7DB
:1013500080FF0FF053F84C490EF0F7FF0FF070F8D4
:1013600083B23840B0721B0AF372E179A079FFF7BB
:1013700070FF80B2404283B2384030701B0A7370F5
:10138000617A207AFFF765FF83B23840B0701B0A9C
:10139000F370E17AA07AFFF75CFF83B238403071D6
:1013A0001B0A7371424680239B04936101225146BC
:1013B000484613F0C9F90C2322000021484613F0D7
:1013C00073F9424680239B04536161782078FFF7CC
:1013D00040FF0FF013F82C490EF0B7FF0FF030F874
:1013E00083B23840A8711B0AEB71E178A078FFF74F
:1013F00030FF40420FF002F823490EF0A6FF0FF035
:101400001FF883B2384028721B0A6B726179207909
:10141000FFF71FFF0EF0F2FF1B490EF096FF0FF0D3
:101420000FF883B23840A8721B0AEB72E179A079F9
:10143000FFF70FFF83B2384028701B0A6B70617A88
:10144000207AFFF706FF80B2404283B23840A8708E
:101450001B0AEB70E17AA07AFFF7FBFE83B23840FB
:1014600028711B0A6B71012333732B73584613F0D9
:1014700023F905B0F0BCBB46B246A946A046F0BD74
:10148000F817002000C003403333B33F10B58C2160
:101490001020FFF7E3FE8C211120FFF7DFFE04216F
:1014A0001220FFF7DBFE06211320FFF7D7FE0621EF
:1014B0001520FFF7D3FEE0211720FFF7CFFE10BD68
:1014C000F0B5C64600B5040004282DD005282FD05D
:1014D000032803D0002080BCB846F0BD05270423B4
:1014E000984620000AF0A8F901263300A340D02531
:1014F0002D06AB620022012120000AF083F940464C
:101500000AF09AF93300424693406B62AB613800AF
:101510000AF092F93300BB406B62AB616B68E34049
:101520001E4209D00120D6E7052703239846D8E7B5
:10153000032704239846D4E70020CCE710B5032006
:10154000FFF7BEFF10BD10B50520FFF7B9FF10BDB6
:1015500010B50420FFF7B4FF10BD000010B5012145
:101560000E20FEF7CFFE962080000BF0ADFA09F0BA
:1015700059FD054B984202D0002802D110BD002031
:10158000FCE70120FAE7C046FFFF000010B501F0BC
:10159000FDFF10BDF0B5C64600B584B0142339E098
:1015A00001330B2B05D801AAD25C002AF8D0012503
:1015B000F6E718200BF088FA304BDB685B07FBD5A9
:1015C000D02636068027BF04B7612C4B98460122EF
:1015D0006B46D91C404613F0B7F80C2301AA002132
:1015E000404613F061F877610C283ED100230021BA
:1015F00000E001330B2B05D801AAD25C002AF8D0F9
:101600000121F6E7002901D0002D31D118200BF07F
:101610005BFA23005C1E002B29D0002301930822D3
:10162000002102A80FF0A4F96B46A222DA70134B36
:10163000DB685B07FBD5D0252D068026B602AE61A0
:101640000E4F01226B46D91C380013F07DF80C2395
:1016500001AA0021380013F027F86E610C2802D18E
:10166000002300259DE7002502E0002500E000257D
:10167000280004B080BCB846F0BDC04600C003409E
:1016800070B584B003A9494B1A880A8000238B7077
:1016900002A90A808B7001A90A808B7069460A80B2
:1016A0008B700A242300013C002B74D0D0231B062E
:1016B000802252029A613E4BDB685B07FBD5032315
:1016C00003AAD0213A4812F0EFFF032866D1D023B5
:1016D0001B06802252025A619A61354BDB685B0718
:1016E000FBD5032302AAF021314812F0DDFF0328C5
:1016F00056D1D0231B06802252025A618022D20387
:101700009A612B4BDB685B07FBD503236A46F0210C
:10171000274812F0C9FF032844D1D0231B0680229A
:10172000D2035A619A61224BDB685B07FBD5032326
:1017300001AAD0211E4812F0B7FF032834D1D023CC
:101740001B068022D2035A610023002000260025B8
:10175000002100E00133022B14D803AAD25C002A36
:1017600000D0012101AAD25C002A00D0012602AAE1
:10177000D25C002A00D001256A46D25C002AE9D05A
:101780000120E7E700298DD0002D8BD0002E89D0D5
:10179000002887D000E0002004B070BD0020FBE7E7
:1017A0000020F9E70020F7E70020F5E7D448011012
:1017B00000C0034010B5FFF747FD10BD0120704782
:1017C00070B582B0FFF75CFF01AC0126012528400F
:1017D000030120781022904318432070FFF7D6FEB3
:1017E000C30122787F20104018432070FFF7B6FE17
:1017F0002840830120784022904318432070FFF74F
:10180000A7FE2840830020780422904318432070CC
:10181000FFF794FE03002B402078B043184320705C
:10182000FFF791FE2840430020780222904318439E
:101830002070FFF7C3FF2840C300207808229043A0
:1018400018432070FFF7A6FE28404301207820228D
:10185000904318432070FFF7ADFF05406078B04318
:1018600005436570208802B070BD7047044B7A2232
:10187000FF329A5C02707C22FF329B5C0B707047D7
:1018800070190020014B0020185670474C1500209D
:10189000F8B504000E001500254A2649280001F07D
:1018A00059FF071E1DD0244B1A6824498C466244F8
:1018B000D11752184A405B686344D9175B184B40F4
:1018C000642A0BDC0022642B00DD02001C4B1B8809
:1018D000002B05D01A4B00221A8002E00200F2E72A
:1018E0001700227863781B021343154A11880B43B3
:1018F0001380114B32681A6072685A60114B3A00BB
:101900001149280001F039FF002807D00F4B1B7840
:10191000002B03D10D4B01221A70F8BD002FFCD013
:101920000A4B1B78002BF8D0084B00221A70F4E702
:101930005837002040420F00843D002000F8FFFF90
:10194000B2610020503D002000A3E111C9610020D8
:10195000014B18787047C046C961002010B50028B7
:1019600003D1074B00221A7010BD0120FEF716FDAF
:101970000120FEF734FD024B01221A70F4E7C04645
:10198000BA61002010B50020FEF729FD0020FEF707
:1019900005FD0022002100200BF096FE10BD000086
:1019A00010B50849084812F0B7FE002802D1074BCD
:1019B000186810BD064B9A6A044B1A60024812F070
:1019C0007BFEF4E7B82E0020001800208061002084
:1019D0000040054030B583B00500FFF7E1FF0090FF
:1019E0000190FFF7DDFF0400FFF73FFF6A46290083
:1019F000200001F0AFFE0028F3D003B030BD00009E
:101A000010B5FFF7CDFF074C206000F04BFC2068BD
:101A100006F028FE206804F0C7FF6420FFF7DAFF15
:101A2000EFE7C046F436002010B504000A4B1B78DF
:101A3000002B00D010BD084B01221A700020FEF7C9
:101A4000ADFC0020FEF7CBFC64200BF03DF821003C
:101A5000002001F097FBEDE7FB61002010B5054B7E
:101A60001B78002B00D010BD024B01221A7001F030
:101A7000B5FDF8E7E561002010B52B4B1B78002B76
:101A800034D0FFF78DFF294B18602948FEF708FD79
:101A9000284B1B78002B32D105F09AFA234C2449AD
:101AA000206806F085FE206801F004FC08F0A2FC26
:101AB000002831D01D4C2049206805F047FD2068E2
:101AC0001E4A1F4908F0C2FC1E4B00221A70174C18
:101AD00022681B491948FFF7DBFE206801F082FCF1
:101AE0002068FEF7F9FE0BF09DFD10BDFA200021E5
:101AF00080010BF0DDFD0C4B01221A70C1E70C4890
:101B0000FEF71AFC0BF08EFD084C206801F0D2FBAA
:101B1000206801F067FCE8E7044B1868084A0749A9
:101B200000F04AFDD3E7C046EE610020F036002009
:101B3000D8240020BA610020A0240020E424002042
:101B4000C0240020C961002070B584B0041E00D1FB
:101B5000F3E001F0FAFD0500FEF74EFC7849794804
:101B600010F054F903211C2009F034FE03211D203C
:101B700009F030FE03AB02AA01A9734809F0D8FDB1
:101B8000002803D1704971480BF078FE039A02993E
:101B9000019809F091FD6E48FEF782FC00F018FCF8
:101BA00000283FD06A4E33006A4A6B496B4806F002
:101BB0006DFB06F0C7FDB378DB0611D5684B00223C
:101BC000BE2149005A547E21FF315A5401315A54E2
:101BD0008021FF315A5401315A548221FF315A5425
:101BE000EBB2012B23D0022B26D0012565576B1CAD
:101BF00029D00022A2565B4B1A70554B1B789A06CF
:101C000025D45A0637D4DA0637D45AB2002A36DB3E
:101C10005A0736D40A221A40022A34D01B0717D595
:101C2000032515E03221504801F09AFABAE74D4BEE
:101C300002221A700025E0E72B041B0F494A13709B
:101C40002D052D0FD9E7464B02255D57D1E7062517
:101C500002F092FE424AE2235B00D65C414B1B78C5
:101C60005BB2013311D06424EBB2062B3FD8AB003A
:101C70003E4AD3589F460125EAE70025E8E70225BA
:101C8000E6E70525E4E70425E2E701F01FFD00286B
:101C900004D1344B02221A704624E5E7314B01226D
:101CA0001A706424E0E73248322101F059FA210029
:101CB000300001F07DFAFFF7FFF92A4B0021595659
:101CC000280000F089FC224B9B789B0730D4294ADE
:101CD0001F49280005F024F80FF0B8F926480FF046
:101CE000A3F9FFF7C9FEFCE7FF200006DCE7234865
:101CF000DAE7FF200002D7E7002001F0A7FC194B2C
:101D000000221A70FF2000041924CDE7002001F002
:101D10009DFC144B00221A7019480F24C4E70020C0
:101D200001F094FC0F4B00221A7016481924BBE7EF
:101D30000B4B9D7000F046FBC9E704B070BDC04678
:101D4000801A0600C0170020400D0300D84801107B
:101D5000D8240020A0240020C0240020B02400208B
:101D6000701900204C1500200000FF4D0C49011097
:101D700000F115FFE4240020011A001000A1A1A128
:101D800000FF61000000FFE610B5040009F054FDFB
:101D900000220121200009F035FD0123A340D022BB
:101DA00012065362536110BD10B5040009F044FDE2
:101DB00000220121200009F025FD0123A340D022AB
:101DC0001206936210BD10B5040009F035FD002223
:101DD0000121200009F016FD0123A340D0221206A4
:101DE000936210BD094ABD235B00D35C1A1C312BE2
:101DF00000D83222054BBD2149005A54DA787A398D
:101E0000FF398A43DA709B221A72704770190020DA
:101E100070B505001400724B1380012900D070BD0D
:101E20000223C3569370D01CE91C06220EF0A6FDB7
:101E3000EB68E3602B6923616B696361AB69A36144
:101E400020001C3029001C3120220EF097FD2000BC
:101E50003C3029003C3120220EF090FD20005C3007
:101E600029005C3120220EF089FD20007C30290001
:101E70007C3120220EF082FD20009C3029009C3114
:101E800006220EF07BFD2000A2302900A23106229E
:101E90000EF074FD2000A8302900A83130220EF089
:101EA0006DFD20002930FF302900D83110220EF0BE
:101EB00065FD20003930FF302900E83110220EF096
:101EC0005DFD20004930FF302900F83110220EF06E
:101ED00055FD20005930FF3029000931FF31102213
:101EE0000EF04CFD20006930FF3029001931FF3120
:101EF00010220EF043FD94235B00EA5C5033E25461
:101F00002A23FF33EA5C7A23FF33E2544F3BEA5C37
:101F10005033E2542C23FF33EA5C7C23FF33E2543A
:101F200020007D30FF3029002D31FF3106220EF0D8
:101F300025FD20008530FF3029003531FF3120227A
:101F40000EF01CFD2000A530FF3029005531FF3177
:101F500020220EF013FDBA235B00EA5C5033E254FA
:101F60002000C930FF3029007931FF3118220EF0EE
:101F700005FDC8235B00EA5C5033E2544E3BEA5A4D
:101F80005033E2524E3BEA5A5033E2524E3BEA5A49
:101F90005033E2524E3BEA5A5033E2524E3BEA5A39
:101FA0005204F6204000110C225A9A3BFF3B1A4083
:101FB0000A432252CE225200A95A22185180CF221F
:101FC0005200AA5A5204F8214900120C605A0340E8
:101FD00013436352D0235B00EB5A641863801EE7FF
:101FE00002A0FFFF064B984204D0064B984203D153
:101FF000022070470120FCE701204042F9E7C0467B
:1020000001A0000002A0000010B512480EF006FE6C
:10201000002407E0104B5B18D97810480EF0FEFD45
:102020000134E4B2052C0DD80FF0E4FA2100C0B25F
:10203000094A1219D070002CECD1130001229043F0
:10204000D870E7E7044B9B221A720A200EF098FD25
:1020500010BDC046284901107019002038490110F0
:10206000F0B5DE4657464E464546E0B56F4CA544B2
:10207000FC256D002A00002102A80EF079FC6C4BB3
:1020800002AA1380059B0193DB0FDB07802212015C
:1020900013430593069B0193DB0FDB071343069362
:1020A000079B0193DB0FDB0713430793089B019307
:1020B000DB0FDB071A4308925E4F0A975E4E0B96C2
:1020C0005E4C0C945E480D905E490E915E4A0F92F4
:1020D0005E4B1093129713961494159016911792C5
:1020E00018935B4B19931A931B931C931D931E9388
:1020F0001F9320932193802202A98B5004328B508E
:1021000004328B5004328B5004328B5004328B508B
:1021100004328B50FF231B049A46A8230A00514621
:10212000D1504C4B9B46AC235946D1504A4B994613
:10213000B0234946D150FF231B069846B42341469D
:10214000D150FF2636020433D6500433434A02A945
:10215000CA50434F04330A00CF5004335146D15084
:1021600004334146D1500433D65004334946D1504C
:102170000433D6503B4BD82202A98B5004328B50EB
:1021800004328B5004328B50E823CF50B63B7A2276
:10219000FF328B5401328B54173AFF3AF121490038
:1021A00002A8425202314352023142528532FF327A
:1021B000010083522C4C2A0020000EF0DFFB00208F
:1021C00004F074FD012004F071FD032004F06EFDA5
:1021D000042004F06BFD052004F068FD20009C3015
:1021E000062200210EF0C4FB2000A23006220021AE
:1021F0000EF0BEFBFFF708FFE4235B005246E250FF
:1022000004335A46E25004334A46E250043342460D
:10221000E2500433E6500433E75081239B009D4491
:10222000F0BCBB46B246A946A046F0BDFCFDFFFF90
:1022300002A0FFFF000034420000B4420000074348
:1022400000003443000061430000874300809D4349
:10225000000016440000FF4D0000FFE600F115FFEE
:1022600000FF610000A1A1A170190020014B1878A6
:102270007047C046FF610020014B58807047C04640
:102280005015002010B5064B01221A7003E0012002
:1022900000210AF0EDFB024B1B78002BF7D110BD9B
:1022A000E2610020F0B5354CA544354B1B78002B7E
:1022B00006D1344B1B78002B39D1334B9D44F0BDF4
:1022C0000EF0DCFEEFF3108672B6304B1B78002B5D
:1022D00024D12F4C002300932E4A002101A80EF098
:1022E00047FBFC2252002C4968460EF047FB802534
:1022F0006D012900200012F017FA2A00694620001B
:1023000012F0F2F986F310880EF0C2FE234B1B7810
:10231000002B06D11A4B00221A70CAE796246403D8
:10232000D8E708F027F91D4B00221A70F2E70EF0EB
:10233000A5FEEFF3108772B600240094154A002121
:1023400001A80EF015FB164B1A6800929B886A468E
:1023500093808026760197256D033100280012F0C6
:10236000E3F932006946280012F0BEF987F31088BD
:102370000EF08EFE034B1C709FE7C046FCEFFFFF84
:10238000E3610020E261002004100000FF610020F2
:1023900000D01200FC0F000070190020EF61002037
:1023A0005015002010B5034B01221A70FFF77AFF79
:1023B00010BDC046E2610020014B01221A70704737
:1023C000EF610020014B01221A707047E361002089
:1023D00070B5434B1888434B1D88FFF703FE04007C
:1023E0002800FFF7FFFD05003F4B404A11681960C8
:1023F00092889A801A883E4B9A420AD03A4B3D4ABC
:102400001A80FA2292005A8000229A803A4B0132B6
:102410001A70631C0BD0022C0FD0022D0DD0012C92
:102420002CDD012D2ADD0023002200262CE06B1C70
:10243000F1D100230022012626E0022C05D0022D36
:102440000FD00023002200261EE0FC225200244967
:102450002A480EF093FA2A4B00221A700023002615
:1024600012E0FC2252001F4924480EF087FA244B48
:1024700001221A7000230022002605E00123012C0E
:1024800015DDDBB201220026002E12D1002A23D056
:10249000002B18D11A4B01221A70184A210010483B
:1024A000FFF7B6FC0020FFF78DFF300070BD002362
:1024B000E7E7134B00221A70FFF7D2FD0020FFF769
:1024C00081FF0026F1E70E4B00221A700B4A29000B
:1024D0000448FFF79DFCE5E7FFF784FC0126E4E7ED
:1024E00000D0121000C012105015002000E0121091
:1024F00004A0000004A0FFFFE2610020701900208A
:10250000FF61002010B5031C642800D9642303492F
:102510007A22FF328B54FEF7CFFD10BD70190020D8
:1025200010B5022817D008D800280DD001280FD1E7
:102530000B4AF2235B00D1520AE0032808D1084A73
:10254000F4235B00D15203E0054AF1235B00D15232
:1025500005F02CFB10BD024AF3235B00D152F7E7D4
:102560007019002030B50F4C40004508E068C00FDE
:10257000C0072843E060490048082169C90FC9071E
:1025800001432161520051086269D20FD2070A4308
:1025900062615B005A08A369DB0FDB071343A36189
:1025A00030BDC04670190020062800DD0020014B18
:1025B000987070477019002010B5034B1B68002BF2
:1025C00000D0984710BDC0468C270020014B00204A
:1025D00018567047CA61002010B588B00400284B17
:1025E0001870022910D00C22002105A80EF0C0F9A5
:1025F0001022002101A80EF0BBF9E3B2062B0BD884
:10260000A400204B1B599F461F4B204A1A6008F01C
:102610005FFD0028E7D005E01B4B1D4A1A60002033
:1026200001F054FB08B010BD174B194A1A60062080
:1026300001F04CFBF6E7144B154A1A60012001F03B
:1026400045FBEFE7104B124A1A60022001F03EFBF7
:10265000E8E70D4B0F4A1A6001AA05A90020FFF711
:10266000ABFFDFE7084B0C4A1A6001AA05A900205E
:10267000FFF7A2FFD6E7044B084A1A60D2E7C0462C
:10268000CA610020604901108C27002069B3001046
:102690007D3D001079910010759B0010F9A000108D
:1026A000F0B5C64600B590B004000D0016001F003E
:1026B00016AB1B789846494B984200D188E0072119
:1026C000380009F087F8012300933A002900200020
:1026D0000FF07CF81022002108A80EF049F98023A1
:1026E0005B020893F8235B0209938023DB020A93C1
:1026F000C0231B030A93102208A904A80EF03EF978
:10270000F31C059A039236491140F20111431B0351
:1027100019430591079B0393DB00DB088022920598
:10272000134307932F4B19400591102204A90CA8BD
:102730000EF024F90F9B03932B4A1A40BF02174354
:102740000F974346002B45D020220E9B0393274929
:10275000194080239B020B435206F82189050A4049
:1027600013430E939B009B088022D20513430E93C4
:1027700005200AF099FE1E490CF094F90DF039FE7F
:1027800080460DF08FFE87B2002F25D038000DF067
:1027900030FE011C40460DF0B8FD8721C9050DF043
:1027A000D4FD0DF07FFEC0B200023F0407430C973A
:1027B0000CAB3200290020000FF05AF822680123E8
:1027C000AB409A431343236010B080BCB846F0BDC1
:1027D000062175E71822B8E70020E5E70000205041
:1027E0007F00FEFFFFFFFF9FFF83FFFFFFFFF5C19D
:1027F0000050C300014B01221A707047D9610020BC
:1028000070B5254B1B78002B17D1244B00221A7072
:10281000214B01321A7000241F2C09D80EF0EAFE59
:1028200006210CF03FF91E4B19550134E4B2F3E7D1
:102830001C4B00221A70002428E01A4B1B78002B36
:10284000F9D1194B1B789A009B18FA2B00D9FA235F
:10285000FF221A40FF239B1A9BB2144A1380144A8A
:102860001380104B01221A70E5E70D4D2B5D72337A
:102870009B00104A9958A2000F4BD1500EF0BAFE9F
:1028800006210CF00FF929550134E4B21F2CECD9C4
:10289000FFF7B0FF70BDC046D8610020C2610020C4
:1028A000A42700207915002077150020AA610020B8
:1028B000A661002070190020FC2C0020034B198019
:1028C000034B1860034B00221A707047A861002068
:1028D000F02B0020D661002070B505000C000088A8
:1028E0000DF087FD1B490DF01AFD1B490DF02DFD64
:1028F0000DF0D8FDC2B22B79A978C943C9B25943AA
:10290000090A5B1ADBB23F2528402D1AEDB2584365
:1029100080096B439B11DBB20818C0B2CB18DBB245
:102920003F2A10D9403AD2B23F2A06D81A060B06DF
:102930001B0A0002134318430AE0090600041B02A5
:102940000843184304E000061B0409021843084327
:10295000206070BD00007F4300003F43F8B5CE46C5
:10296000474680B50400234B1D78002D05D1002378
:102970000360C0BCB946B046F8BD642DF9D0877875
:10298000E678B81963789846C0180DF037FD1A49F3
:102990000DF0C5FC814628000DF02BFD17490DF008
:1029A000BEFC051C011C48460DF00EFD0028E0D1C0
:1029B0004946281C0DF0B3FC051C38000DF019FD2C
:1029C000291C0DF0C2FC0DF06DFDA07030000DF063
:1029D00010FD291C0DF0B9FC0DF064FDE0704046BF
:1029E0000DF007FD291C0DF0B0FC0DF05BFD6070D3
:1029F000BFE7C0467615002000007F430000C842B4
:102A0000F0B5D6464F464646C0B504000368002BD5
:102A100035D083789846C778D819667880190DF034
:102A2000EDFC051C40460DF0E4FC8046291C0DF031
:102A300076FC824638000DF0DCFC071C291C0DF0EA
:102A40006EFC814630000DF0D4FC061C291C0DF0F4
:102A500066FC051C514640460DF077FC0DF022FD4A
:102A6000A0704946381C0DF070FC0DF01BFDE070A5
:102A7000291C301C0DF069FC0DF014FD6070E0BCE9
:102A8000BA46B146A846F0BD30B585B01D4B1B789F
:102A9000002B0FD100241F2C09D80EF0ABFDFF2115
:102AA0000CF000F8184B19550134E4B2F3E7154B5C
:102AB00001221A7000241FE0134D2B5D134A107879
:102AC000C018FF210BF0C6FFC9B2295502A801802A
:102AD000FF23438083800023019301A9FFF7FCFEBD
:102AE00001A8FFF73BFF0A4BA000019AC250C01893
:102AF000FFF786FF0134E4B21F2CDDD9FFF77AFE21
:102B000005B030BDD8610020AC2B00207715002027
:102B1000FC2C002000220AE0930006495958064B7D
:102B20005B68DB03FBD4044B19610132D2B21F2A6C
:102B3000F2D97047F42B002000002050F8B5DE4693
:102B400057464E464546E0B506000D00141C8078F9
:102B50000DF04FFC8046F0780DF04BFC071C7078B0
:102B60000DF047FC061CA8780DF043FC8346E8787E
:102B70000DF03FFC824668780DF03BFC81464146F3
:102B800058460DF0C2FB211C0DF0DFFB41460DF055
:102B9000C1FB051C391C50460DF0B7FB211C0DF084
:102BA000D4FB391C0DF0B6FB071C311C48460DF058
:102BB000ACFB211C0DF0C9FB311C0DF0ABFB061C5E
:102BC000281C0DF06FFCC5B2381C0DF06BFCC4B2B4
:102BD000301C0DF067FCC0B22D040002240628430F
:102BE0002043F0BCBB46B246A946A046F8BD000053
:102BF000082803D88300134AD3589F46002000E0DA
:102C00000320C30702D4104B0022DA61830702D4E9
:102C10000D4B00229A61430702D40B4B00225A61EC
:102C2000030702D4084B00221A6170470720E8E727
:102C30000F20E6E70920E4E70A20E2E70B20E0E7BF
:102C40000620DEE77C490110FC2C002010B5054B66
:102C50001870FFF7CDFF044B00221A70FFF7CAFD72
:102C600010BDC046DB610020D8610020F8B52A4BBA
:102C700018880DF0C3FB011CFE2080050DF04FFBF2
:102C8000041C264B1B78002B0AD1254B1E78224BA7
:102C90001B889E4215D9234B187800282FD0F8BDE9
:102CA000214B1878FFF7A4FF8022204920480DF01F
:102CB00065FE00231A4A1370184A1370194A1370DC
:102CC000E3E730000DF095FB211C0DF03EFB051CE9
:102CD00000240BE0A70017497918154838182A1C5A
:102CE000FFF72CFF114BD8510134E4B21F2CF1D95E
:102CF00001360B4B1E70FFF70DFF0020CFE780223F
:102D00000C490A480DF03AFEFFF704FF054B01227B
:102D10001A700120C3E7C046A6610020D9610020D7
:102D20007B15002078150020DB610020F42B0020AB
:102D30007C2C0020FC2C0020F0B5C64600B5060017
:102D40000F001500984600240AE0335D9B004246C0
:102D5000EA50305D80002818FFF752FE0134E4B2DB
:102D6000BC42F2D380BCB846F0BD0000031C64280E
:102D700000D96423014A13707047C04676150020BD
:102D800030B583B0050000240CE0019501A8FFF7E1
:102D9000E5FD064BA000019AC250C018FFF730FEB7
:102DA0000134E4B21F2CF0D903B030BDFC2C00205C
:102DB00010B509480388094A12789B18FF2213406E
:102DC0000380074C2100FFF787FD2068FFF7D8FF3D
:102DD000FFF710FD10BDC0467015002077150020CC
:102DE000A82B002010B51A4B1B78002B17D1194ABD
:102DF0001370174A01211170174A1370154C23786C
:102E000072339B00154A9858FFF7BAFF20780130BB
:102E100006210BF01FFE2170FFF7ECFC10BD0E4BDE
:102E20001B78002BEAD10E4B1B789A009B18FA2BCB
:102E300000D9FA23FF221A40FF239B1A9BB2094AAA
:102E40001380094A1380044B01221A70D6E7C0464A
:102E5000D8610020C26100207A150020701900207E
:102E600077150020AA610020A661002010B50F4B45
:102E70001B78002B10D10E4B1B68002B02D10C4B82
:102E80000C4A1A600A4B1868FFF77AFFFFF7B2FC8A
:102E9000064B01221A7010BD0020FFF771FFFFF7EB
:102EA000A9FC024B00221A70F5E7C046FC61002025
:102EB000742C00200000FFE610B5164B1C78002C87
:102EC00005D0154B1B78002B17D0200010BD802299
:102ED000124913480DF052FD124B1868FFF750FFCE
:102EE000114B1A88114B1A80FFF784FC094B012201
:102EF0001A70094B00221A70E7E7802208490C4833
:102F00000DF03CFDFFF776FC034A13780133137094
:102F1000DBE7C046D661002007620020F42B0020CA
:102F2000B83E0020782C0020A8610020A661002077
:102F3000FC2C002010B50D4B1C78002C06D00C4B3F
:102F40001B68002B00D09847200010BD0020FFF721
:102F500017FF0020FFF74CFEFFF74CFC054B1A88CB
:102F6000054B1A80014B01221A70EDE7D661002053
:102F7000C02D0020A8610020A661002070B50C00C3
:102F80000F2803D88000294B1B589F460126284D47
:102F90002EE00426274D2BE00426274D28E00126AD
:102FA000264D25E00126264D22E00126254D1FE075
:102FB0000126254D1CE00126244D19E00126244D53
:102FC00016E00126234D13E00126234D10E00126D3
:102FD000224D0DE00126224D0AE00126214D07E099
:102FE0000126214D04E00426204D01E00426104D69
:102FF000002A12D023001E4A31002800FFF79CFE51
:1030000023001C4A31002800FFF796FE23001A4ACD
:1030100031002800FFF790FE70BD2300154A3100F3
:103020002800FFF789FEFFF7E5FBF5E7A04901104F
:10303000244A0110104A0110044A0110144A0110D8
:10304000004A0110084A01101C4A01102C4A0110C4
:10305000284A0110F8490110FC4901100C4A0110DE
:10306000304A0110204A0110344A0110184A011058
:103070007C2C0020FC2C0020F42B002070B50C4B85
:10308000196840220B480DF079FC00240CE0A300E5
:10309000084DED182800FFF761FC29680022200088
:1030A000FFF76CFF0134E4B20F2CF0D970BDC046BD
:1030B0007C2D0020802D002010B5024B1860FFF7FA
:1030C000DDFF10BD7C2D002010B5074B1B78002BB9
:1030D00000D010BD0548FFF7EFFFFFF78BFB024B59
:1030E00001221A70F5E7C046D8610020181A0020A6
:1030F000144AF0235B00D35C834209D0002B03D138
:10310000E133FF330521D1540E4AF0235B00D05444
:103110000C4AF0235B00D25C0B4B1A700B4B1B78F4
:10312000052B0AD00A4B15221A80094B1A88094B25
:103130001A80094B00221A707047084B1A88044BFA
:103140001A80F2E77019002077150020D76100205F
:10315000AA610020A6610020D8610020AC61002097
:1031600010B5054B18604908044C2000FFF7A6FB7A
:10317000034B1C6010BDC046782C0020B92E0010F7
:10318000F02B002010B5064B1870064B00221A6079
:10319000054B196019210548FFF790FB10BDC0468B
:1031A000DC610020EC2B0020C02D0020352F00100A
:1031B00070B582B004000D00244B1B78002B0CD09E
:1031C000234B1C700023234A1370234A1370052CD1
:1031D00016D8A400214B1B599F46214E214930008F
:1031E0000EF0D8FA020000230093173300213000BC
:1031F000FFF756FA154B01221A70FFF78BFCDFE739
:10320000194B1A4A1A601A4AF0235B00D05CFFF788
:103210006FFF2800642D00DD6420C0B2FFF7A6FD1B
:1032200002B070BD104B134A1A60ECE70E4B124A05
:103230001A60E8E70C4B114A1A60E4E70A4B104A9F
:103240001A60E0E7084B0F4A1A60DCE7DA610020F9
:10325000D7610020D8610020DD610020E049011025
:1032600000002050384A0110EC2B0020C93000101B
:1032700070190020B12D0010892A00106D2E001049
:10328000E52D00100128001010B5FF2903DC0029EE
:1032900002DA152100E0FF21044B1980044B18606D
:1032A0001E210520FFF784FF10BDC046AC61002041
:1032B000742C002010B5144A144900F04BFA002871
:1032C00000D110BDFFF7D2FC002803D1104B1B78B2
:1032D000002BF6D00F4B1B68002B0ED09847002810
:1032E000EFD000240B4B1C600B4AF0235B00D05C3A
:1032F000FFF7FEFE094B1C70E3E7094B1B68002B30
:10330000DFD09847DDE7C046083D00201A410000A5
:10331000DD610020F02B002070190020D861002012
:10332000EC2B0020014B58887047C04650150020F8
:1033300010B586B0002405AA244B1978117004AB8F
:1033400019702349029101210191009301236931F0
:10335000204800F0EDFA0230012807D904AB1B78B1
:103360001C1C5BB2012213401B4A137063069A0FA8
:10337000022A0ED9032A0FD1184B1B78002B21D01B
:10338000154B1B785BB2002B18D1154BFF221A701E
:1033900012E052B2002A0CD10F4B1B785BB2002B0B
:1033A00003D10F4BFF221A7006E00D4B00221A705A
:1033B00002E00B4B01221A7006B010BD084B002230
:1033C0001A70F9E7064B02221A70F5E76C550110E6
:1033D00010270000C017002005620020F6610020C1
:1033E000F761002070B50400574B1B78002B24D0E8
:1033F000564A5749200000F0ADF9002815D0FFF7D4
:1034000097FF544B00229A56534B1B785BB29A425B
:1034100003D0002B28D04F4A1370504B1B78002B41
:1034200026D04E4B1B78002B3ED14D4A4D492000F3
:1034300000F090F9002847D170BD434B01221A706B
:10344000494B58880CF0D5FF484B1860484B494A07
:103450001A60FFF76DFFFFF76BFFFFF769FF3E4B49
:103460001A783C4B1A70C3E74348FEF7DDFAE3E7EE
:10347000FEF76EFA0028D4D0404B1B785BB2012BCC
:103480000AD0022BD1D1354B01221A70FF206421C2
:103490000002FFF7F9FEC8E7304B01221A706421E1
:1034A0003748FFF7F1FEC0E7FEF752FA0028BCD11B
:1034B0002A4B00221A70334AE2235B00D05C0221BF
:1034C0004942FFF775FEB0E7FFF732FF2B4B1B7841
:1034D0005BB2012B1BD0022B30D00133ACD1234D7A
:1034E000234B196828680CF010FF041C2860002189
:1034F0000CF064FF002808D11C4B1C60201C0CF051
:10350000D1FF80B2FEF7B8FE96E70024F4E7174D2E
:10351000174B196828680CF0FDFE041C28601A4936
:103520000CF062FF002800D0174C104B1C60201CD0
:103530000CF0B8FF80B2FEF79FFE7DE7FA20800016
:10354000FEF79AFE78E7C046F3610020C035002000
:1035500040420F000162002005620020FA61002055
:10356000B835002000879303501500207C150020FB
:10357000801500201CC731405D1A0010F761002043
:103580000000FFE67019002000007A4400B587B003
:103590000E4B1B785BB2013314D005AA0C4B197883
:1035A000117004AB19700B49029101210191009334
:1035B00001236931084800F0BBF9002804DD01202F
:1035C00007B000BD0020FBE70020F9E705620020FE
:1035D0006C55011010270000C017002030B585B0D1
:1035E000164B1B785BB2013325D0D0231B061B681A
:1035F000002B04D1FEF746FE1E25002415E0FEF741
:10360000D1FEF9E703AA0E4B13800E4B0193002362
:10361000009302336A210C4800F0E2F804003220E3
:1036200009F052FA09F0FEFF013D002C01D1002DF6
:10363000E8D1FEF7A7F905B030BDC046056200200D
:1036400009C1FFFFA0860100C017002000B585B0AA
:10365000194B1B785BB2013304D0002804D1174BFF
:1036600001221A7005B000BD144B00221A70144BD1
:103670001880232813D8C0B20538C0B27F23184061
:103680007B3B6A46137350730E4B019300230093E8
:10369000023303AA6A210C4800F0A2F8E2E7AF2344
:1036A0005B00984200D9180028380A210BF0D2F9A3
:1036B000C0B21F30C0B2E1E705620020F661002011
:1036C000B461002010270000C017002010B5FFF7DC
:1036D0002FFE024B0020185610BDC0460562002088
:1036E00010B5FFF725FE024B0020185610BDC0464E
:1036F000F761002010B500220021002009F0E4FF4E
:10370000FEE70000072804D88000024B9C46604476
:10371000016070470C80054010B5072802D90024CD
:10372000200010BD8000044B9C46604404680021CA
:103730000520FFF7E7FFF3E70C80054010B5010017
:103740000520FFF7DFFFFFF7D5FF10B50520FFF7D6
:10375000E3FF10BD10605368834205D9C31A013BD3
:103760008B4205D200207047834204D2C31AF7E788
:1037700050600120F7E70020F5E730B51860002A17
:103780000BD15C6884420BD9041B013C0025002D41
:103790000BD1A14209D9100030BD58600020FBE7D1
:1037A000844205D2041B0025F1E758600120F3E7AD
:1037B0001000F1E710B501E009F034FF0A210348D9
:1037C00010F062FF0028F7D010BDC0460818002096
:1037D00010B5024810F070FF10BDC0460818002058
:1037E000F0B5D6464F464646C0B584B081460F0078
:1037F000924698460CAB1E78FFF7DCFF0D9C002527
:1038000009F032FA02000B1E18DB12196B41002B73
:103810001ADB002B1CDB02920393009643465246B0
:10382000390048460EF02AFB0400FFF7D1FF2000C4
:1038300004B0E0BCBA46B146A846F0BD074B084A02
:103840003F21084809F080FF01225242064BE0E781
:10385000024B034A3F21034809F076FF484A011012
:10386000C84A0110644A0110FFFFFF7FF0B5D64639
:103870004F464646C0B584B081460F0092469846F2
:103880000CAB1E78FFF796FF0D9C002509F0ECF9B4
:1038900002000B1E18DB12196B41002B1ADB002BE8
:1038A0001CDB029203930096434652463900484679
:1038B0000EF003FB0400FFF78BFF200004B0E0BC18
:1038C000BA46B146A846F0BD074B084A3F21084812
:1038D00009F03AFF01225242064BE0E7024B034A4D
:1038E0003F21034809F030FF484A0110C84A01103F
:1038F000644A0110FFFFFF7FF0B5C64600B582B0F5
:1039000080460D0016001F0008AB1C78FFF752FF21
:1039100000943B003200290040460EF0A3FA040058
:10392000FFF756FF200002B080BCB846F0BD000093
:10393000F0B5DE4657464E464546E0B585B0804672
:10394000894692469B46FFF735FF109C002509F0FB
:103950008BF906000F1E31DBA4197D41002D33DBEE
:10396000002D35DB02940395012300935B465246FC
:10397000494640460EF082FA109C002509F074F981
:1039800002000B1E2ADB12196B41002B2CDB002BD3
:103990002EDB02920393002300930F9B0E9A49465D
:1039A00040460EF08AFA0400FFF712FF200005B02F
:1039B000F0BCBB46B246A946A046F0BD0F4B104A2C
:1039C0003F21104809F0C0FE012464420E4DC7E7B4
:1039D0000A4B0B4A3F210B4809F0B6FE074B084A39
:1039E0003F21084809F0B0FE01225242064BCEE7C3
:1039F000024B034A3F21034809F0A6FE484A011042
:103A0000C84A0110644A0110FFFFFF7FF0B583B080
:103A100005000F001400019319491A4810F07CFEAC
:103A2000002829D0184B00269E57002E0CDD002DB3
:103A300002D10126764209E0FF221A7032011349B1
:103A400038000CF09BFF01E001267642104B002568
:103A50005D57002D01DD002C05D10A4810F02CFE29
:103A6000300003B0F0BDFF221A702A010949019805
:103A70000CF084FF2E00F0E701267642F0E7C04606
:103A8000583800201018002084150020F836002037
:103A90008515002028370020F8B506000F00150016
:103AA0001C000E4810F090FE002F06DC002C0CDCF1
:103AB0000A4810F001FE0020F8BD094B1F703A01C2
:103AC000310008480CF05AFFF0E7074B1C70220148
:103AD000290006480CF052FFEAE7C0461018002003
:103AE00084150020F8360020851500202837002096
:103AF000F0B585B0051C0F1C141C1E1CFE21890589
:103B0000381C0CF071FC00280FD0FE27BF0522499D
:103B1000281C0CF069FC00280FD12049281C0CF04F
:103B20004DFC00280AD01D4D08E00021381C0CF087
:103B300045FC0028EBD00027E9E7174DFE21890559
:103B4000301C0CF051FC00280FD0FE26B60512499F
:103B5000201C0CF049FC00280FD11049201C0CF04F
:103B60002DFC00280AD00D4C08E00021301C0CF080
:103B700025FC0028EBD00026E9E7074C00970196CA
:103B80000295039401236A4601216846FFF784FFEA
:103B9000012005B0F0BDC0460080A24400002042D4
:103BA00010B5FEF713FD022801D0024810BD0248EF
:103BB000FCE7C046E04A0110D04B011010B50020D0
:103BC0000FF0FEFC10BD000010B51021064810F0EB
:103BD000B3FD002800D110BD044B01221A70024829
:103BE00010F06AFDF7E7C04618180020EC610020CD
:103BF00010B51021064810F09FFD002800D110BD1F
:103C0000044B00221A70024810F056FDF7E7C04638
:103C100018180020EC61002070B5050064210D48E3
:103C200010F032FD041E09D10B4B22000B49280075
:103C3000FFF7A3FD051E08D1200070BD084B1C78BE
:103C4000E4B2044810F038FDEEE7FFF7BDFF2C00AA
:103C5000F2E7C04618180020383F0020A086010077
:103C6000EC610020037801330370044B1B785BB2D6
:103C7000022B01D0024870470248FCE7441600209E
:103C8000144D01104C4E01100C4B18600C4B984217
:103C90000BD00C4B98420CD0FA235B00984200D01A
:103CA0007047094B01221A60FAE7074B04221A6099
:103CB000F6E7054B08221A60F2E7C046E82E00201E
:103CC000461000008D200000E02E002010B50400FA
:103CD000002002F063FE022C2CD0062C1DD0012CFB
:103CE00010D0012002F05AFE1848FFF7CDFF184B04
:103CF000184A1A60184B194A1A60194B1C7010F0B8
:103D00006BF810BDFA204000FFF7BEFF104B154ABC
:103D10001A60114B144A1A60EFE7012002F03EFED0
:103D20001248FFF7B1FF0A4B114A1A600A4B0B4ABF
:103D30001A60E2E7FA204000FFF7A6FF044B0D4AA5
:103D40001A60054B0C4A1A60D7E7C0468D20000068
:103D5000E42E002089A20010EC2E0020BD3B0010B4
:103D60004416002021AE001025440010461000002B
:103D7000E5B400100D890010B1480010F8B5060038
:103D80000C0015000120002140420EF08DFF234B56
:103D90009F6C234B1B68BB421CD2FB1A214A126842
:103DA0009A4202D8204B01221A70204B1968204AEF
:103DB0003000FFF7CFFC002802D01E4B01221A7002
:103DC0001D4B1B78002B0AD11C4B1B6898471A4BC4
:103DD0001870F8BDFB1A1A4A94466344DEE73000B7
:103DE000FFF71AFF0028F4D00F4B1B78002BF0D000
:103DF000104B1B78002BECD0094B1F6000230A4AA4
:103E000013700C4A13700C4A1370FFF7F1FE0D4B40
:103E10001B68290020009847DBE7C04600001150CE
:103E200054380020E02E0020FE610020E82E002003
:103E30009C6100200A620020ED610020EC2E002031
:103E4000FF070000E42E0020084B1B785BB2022B1A
:103E500007D0062B07D0012B01D005487047054835
:103E6000FCE70548FAE70548F8E7C0464416002095
:103E7000705701105C4D0110384E01108C6001101C
:103E8000084B1B785BB2022B07D0062B07D0012B07
:103E900001D0054870470548FCE70548FAE70548A2
:103EA000F8E7C04644160020305701102C4D011091
:103EB0000C4E0110606001100020704710B5134BCC
:103EC0001B785BB2022B13D0062B18D0002B05D029
:103ED0000B78002B0FD1FFF777FE0CE00B78302B1F
:103EE00003D0212B01D0812B05D1FFF76DFE02E01D
:103EF0000B78212B00D010BDFFF766FEFBE70B7897
:103F0000012BF8D1FFF760FEF5E7C046441600200C
:103F100070B51D0004AB1E88314B00241C57012CCA
:103F20002DD0022C12D0002C00D070BD0029FCD165
:103F3000002AFAD12878102804D03200290000F095
:103F4000E7FFF2E7A81C01F0C1FFEEE70029ECD182
:103F5000002AEAD12B78112B05D0132BE5D121486B
:103F60000CF05CFEE1E76B78DB0706D51E4B00200A
:103F70001E4A011CFFF7BCFDD7E70023F7E7002925
:103F8000D3D1002AD1D12B78002BCED16B78082B3E
:103F9000CBD1EC78002C1ED0A8780CF02AFA14496A
:103FA0000CF0BDF9061C2B79002B16D020000CF06C
:103FB00020FA0F490CF0B3F9041C211C301C0CF042
:103FC00013FA002800D0341C0020231C074A011CCF
:103FD000FFF78EFDA9E70026E5E70024EDE7C046E0
:103FE00044160020944C0110CDCC0C3F000002433D
:103FF00000007F43064B1B785BB2022B03D0062BDD
:1040000003D1044870470448FCE70448FAE7C04677
:1040100044160020A0600110A04D0110845701102B
:1040200070B5EE2824D0002825D080001E4BC5583E
:10403000280010F0F7FAC0B21F2800D91F20002373
:1040400027E05A1C194CA15C0902E25C0A434400B7
:104050001749625202330130112BF2D9154A144B21
:1040600013CB13C211001A680A609B888B8019E079
:1040700000200023F0E70C4B196802220E480CF0D8
:104080007DFC012007E05A1CEC5C5100094BCC522E
:10409000D3B29842F7D801304000C0239B001843A8
:1040A000044B1880034870BD5C150020D84C0110EB
:1040B0008C200020CC270020CE27002000B591B016
:1040C0004022694600200FF009FD00200FF01CFD82
:1040D000064B1B785BB2002B01D011B000BD044829
:1040E0000CF06CFD684606F069FAF6E7441600200D
:1040F000AC4C0110F0B583B005001400012966D165
:1041000013785B069B0F012B58D0022B03D0002B9A
:1041100001D000205CE06378022B24D0072B03D071
:10412000012B19D0002053E0227963791B0213433D
:10413000042B03D0052B08D0002049E02433264A65
:10414000210028000EF0D4FE42E08D33234A2100E6
:1041500028000EF0CDFE3BE02723214A2100280055
:104160000EF0C6FE34E0227963791B021343072B5D
:1041700030D11C4B1B785BB2022B0FD06B469F1DBE
:10418000194E0222310038000CF0F8FB3B88320057
:10419000083A210028000EF0ABFE19E06B469F1D87
:1041A000124E0222310038000CF0E8FB3B8832004E
:1041B000083A210028000EF09BFE09E051780C48D7
:1041C0000CF02CFD210028000EF076FE00E001200E
:1041D00003B0F0BD0020FBE71C160020881500206E
:1041E000EC4C011044160020244B0110FC4B011034
:1041F000C44C0110012815D0022907D000290BD189
:10420000022A29D0002A29D006207047022A1FD06E
:10421000002A1FD00800F8E7022A21D0002A21D066
:104220000820F2E7022907D000290BD1022A1FD06B
:10423000002A1FD00720E8E7022A15D0002A15D04F
:104240000320E2E7022AE0D0002A15D00020DCE7B4
:104250000120DAE70320D8E70720D6E70520D4E7D6
:104260000020D2E70420D0E71000CEE70420CCE7FE
:104270000820CAE70620C8E70520C6E701207047E6
:1042800010B58422002102480CF072FB10BDC0461C
:104290000C33002010B50020FFF7F2FF10BD000026
:1042A000F0B5C64600B580460D008B795D2B24D154
:1042B0000B79DF00FF1ABFB21937BFB2974221D87E
:1042C0000C780C19002605E0104A53700136F6B23E
:1042D0002378E4182B79B34210D96378052BF7D1F2
:1042E000210040460EF00EFA00280DD0A378DA091E
:1042F000012AE9D0054A9370E8E70027380080BC1E
:10430000B846F0BD0027F9E70027F7E70C33002097
:1043100030B583B0040014484078884206D0124A71
:1043200092788A420CD0012003B030BD0F4A002A97
:1043300018D09AB20E490020FFF7C0FD0120F3E724
:104340000C4D9BB200932B00002200210020FFF7B0
:10435000DFFD2B00443B997840232A0020000EF01B
:1043600045FAE1E70120DFE70C330020BD3E0010F5
:10437000103300205033002010B50EF027F900282C
:1043800003D10023002B08D110BD0EF027F900281F
:1043900001D10123F6E70023F4E70B4B99780020C5
:1043A0000EF060FA0028EFD1074CA1780EF0F6F974
:1043B00022004432A178402300200EF017FAA178A1
:1043C00000200EF0FFF9DFE70C33002070B5050088
:1043D0000C000EF003F9002806D1812100200EF018
:1043E000DDF9002803D170BD0EF000F9F5E7231CBC
:1043F000402C00D940239CB2094E220029003000F5
:104400000CF0BCFA351F69782300320000200EF052
:10441000EDF9697800200EF0D5F9FFF7ADFFE2E77E
:104420001033002010B5104B5C780EF0CFF8002848
:1044300006D10023002B13D0002C09D1002010E05E
:104440000EF0CCF8002801D10123F3E70023F1E7B7
:10445000210000200EF006FA002803D1013000E010
:10446000002010BD0020FCE70C33002010B53C22DA
:10447000002102480CF07CFA10BDC04668280020DC
:1044800010B50020FFF7F2FF10BD0000F0B583B0BB
:1044900006000F001500FEF799F802284CD13B7971
:1044A000DC00E41AA4B21234A4B2AC4248D800230F
:1044B000002B09D00025002D44D0397879184B788D
:1044C000212B11D0002438E01A01D21A92001F4883
:1044D00082185278002A02D00133DBB2E8E71A01D1
:1044E000D11A89004518E6E7A9630B78C9183A790B
:1044F0006B1C0193AB1C0093032330000EF01CF9DE
:10450000002821D0BB79012B13D001232B71BB785C
:104510002B70AA6BD179137A1B020B43EB80A9781D
:1045200000290AD02A003032062330000EF05EF94E
:1045300003E0FB79EB70E8E70024200003B0F0BD56
:104540000024FAE70024F8E70024F6E768280020B2
:1045500070B582B005001D4C002000280AD000284C
:1045600030D162788A4213D0A2788A421AD00120D0
:1045700002B070BD0401241AA400144A1419A278D0
:104580008A42ECD062788A42E9D00130C0B2E4E7D6
:104590000F4A002A18D0210008319AB2FFF78EFC8A
:1045A0000120E5E7260030369BB20093330000225D
:1045B0000021FFF7ADFCA1780623320028000EF0A1
:1045C00015F9D5E70020D3E70120D1E768280020BE
:1045D000BD3E0010F0B5C64600B582B0060015001D
:1045E00012781F231340012B00D01FE128790024EB
:1045F000002C0DD0FF24002C00D01CE127006023EC
:1046000018001040134239D101290BD001200EE1CE
:1046100023011B1B9B008E4FDB5D9842EBD00134C6
:10462000E4B2E5E7EA786B78062B06D0062B00D0DB
:1046300005E1222A12D00020F9E0212AF6D1230137
:104640001F1BBF00824BDF19BA6B002A00D1F4E0B8
:104650001378290030000EF04BFCE8E02000FFF753
:10466000C9FC02003B01DF1BBF00794BDF19FB884F
:10467000290030000EF03CFC0120D8E0202800D0BA
:10468000DFE06B780B2B00D9DDE09B00714AD3583B
:104690009F46012901D00120C9E0EA78A9782301C9
:1046A0001B1B9B0008336A4FFF18A879EB791B028C
:1046B0000343181C252B00D9252080B2002909D0DE
:1046C000012B16D97B1C9C463970013880B201231E
:1046D000984602E0BC4600239846009063462000BE
:1046E000FFF7EAFB030043449BB2002B05D10020F7
:1046F0009DE0BC4600239846EFE73A0029003000D1
:104700000EF0F6FB012092E0012903D0032915D019
:1047100001208CE0AA79EB791B021343062B01D907
:10472000002084E02201121B9200303248498A188E
:10473000290030000EF0DCFB012078E0EA78A9784F
:1047400023011B1B9B0030334148C318AE79E87925
:1047500000023043051C062800D90625ADB2002909
:1047600004D0012802D91878884205D0009520008D
:10477000FFF7CEFB01205AE00133013DADB2F5E772
:10478000012901D0012052E0E97823011F1BBF005D
:104790002F4BDF197971304B002B04D0200000E043
:1047A00000BF002843D0290030000EF085FB012017
:1047B0003DE0012901D0012039E02201171BBF0093
:1047C000234AD21905320123290030000EF090FB54
:1047D00001202CE0012901D0012028E02201171B33
:1047E000BF001B4AD21904320123290030000EF009
:1047F0007FFB01201BE0012903D0032907D0012002
:1048000015E0290030000EF057FB01200FE0A978D9
:1048100023011F1BBF000E4BDF1939710F4B002BFB
:1048200013D0200000E000BF012000E0002002B013
:1048300080BCB846F0BD0020F9E70020F7E7002073
:10484000F5E70020F3E70020F1E70120EFE7C0469D
:1048500068280020704D01100000000000000000DA
:1048600010B50301181A8000104B181844780DF089
:10487000ADFE002806D10023002B13D0002C09D157
:10488000002010E00DF0AAFE002801D10123F3E77B
:104890000023F1E7210000200DF0E4FF002803D100
:1048A000013000E0002010BD0020FCE76828002057
:1048B00010B50020FFF7D4FF10BD0000F8B50400CC
:1048C0000F0016001D0003011B1A9B001F4AD3187E
:1048D000597800200DF062FF002825D0002F24D049
:1048E0002B1C242D00D924239DB2184A2301191B07
:1048F000890051180F721B1B9B000833D018013020
:104900002A0031000CF03AF80135ADB20F4B20010E
:10491000021B920008329A18001B80001818417878
:104920002B0000200DF062FFF8BD2B1C252D00D9B7
:1049300025239DB22001001B80000830034B18186E
:104940002A0031000CF01AF8E0E7C0466828002081
:1049500010B513000A0001000020FFF7AFFF10BDE3
:10496000107003120F20184050700B011843507044
:10497000091191707047000070B5124D8024240118
:104980002A0021002000FFF7EBFFEA1C2100200095
:10499000FFF7E6FFAA1D21002000FFF7E1FF2A0034
:1049A000093221002000FFF7DBFF2A000C32210032
:1049B0002000FFF7D5FF2A000F3221002000FFF76B
:1049C000CFFF70BD6C61002010B54022002102486D
:1049D0000BF0CEFF10BDC046282E0020014B1870F2
:1049E0007047C046E7610020014B18737047C0460E
:1049F000282E0020014B58737047C046282E0020F7
:104A000070B5FCF7CDFF04000E4D2B68C01AC3171C
:104A1000C01858400AF02EFB2C6000220A4B0AF006
:104A20009AFA0AF063FB094B00215A5E1C78084988
:104A30000C70801882B200B21880FF2801DDFF3AA6
:104A40001A8070BD943D002000408F40B06100206E
:104A5000282E0020024B1A78024B5A707047C0462D
:104A6000BC4F0110282E0020064B04229A732F32CF
:104A7000DA73303A1A74013A5A74012119765A7667
:104A80007047C046282E002010B5C4B2000A00238B
:104A900007E019000E31044A5454013150540233D6
:104AA000DBB20D2BF5D910BD282E00200A4B0122B8
:104AB0001A7000225A7003329A70084A117AD9701B
:104AC000D179197191795971517999711179D97196
:104AD000D2781A727047C046282E00207019002024
:104AE00010B50400FFF770FF8120FFF777FF012C5E
:104AF00009D0064B1C70064B19784023034A00204E
:104B00000EF086FD10BDFFF7D1FFF4E7282E002040
:104B1000E761002070B586B06C462A4B0433220052
:104B200070CB70C270CB70C2022837D0032841D03E
:104B30000023002500E00133052B10D8224AD218AB
:104B40007D32FF3214780522D21A885C8442F2D07A
:104B50001D4AD2187D32FF3210700125EBE7002D7F
:104B600019D18120FFF740FF184801238373164BAA
:104B70001A7AC273DA7902749A7942745A79827411
:104B80001A79C274DB7803751530182269460BF068
:104B9000F5FE06B070BDFDF715FCE2E78120FFF7DA
:104BA00023FF0A48022383730F30102208490BF0B9
:104BB000E5FEEEE78120FFF717FF044B03229A730F
:104BC000E7E7C046BC4F011070190020282E0020D6
:104BD000A82E002070B504000E001500FFF7F4FEAB
:104BE0002120FFF7FBFEFFF70BFFFFF733FF20004D
:104BF000FFF700FF482C68D8A4003E4B1B599F4686
:104C00008020FFF7F1FE00236BE0F07A431E98410D
:104C1000C0B201F0C3FEF27A374B1A708020FFF762
:104C2000E3FEF0E731000C31F07AFFF773FFEAE7BB
:104C30008020FFF7D9FEF27A304B1A70E3E782202A
:104C4000FFF7D2FEFFF710FFDDE78020FFF7CCFE75
:104C5000D9E79020FFF7C8FEF27BF17A307B00F0B5
:104C600039FAD0E72648FCF7DFFECCE78020FFF7D3
:104C7000BBFEC8E78320FFF7B7FE6420FFF704FF01
:104C8000C1E78020FFF7B0FEBDE78020FFF7ACFE54
:104C9000F27A0F231340033BDAB20C2A03D89300B5
:104CA000184AD3589F460120FDF7D0FFABE70320F9
:104CB000FAE70420F8E70520F6E70620F4E70720E6
:104CC000F2E70820F0E70220EEE70023AB4202D231
:104CD00001339BB2FAE78020FFF786FE93E70133AA
:104CE000DBB21F2BFBD94023074A212100200EF005
:104CF0008FFC70BD644E0110E86100204816002052
:104D00005D1A0010884F0110282E002070B50C008D
:104D1000150010280DD080280FD0012800D070BDBC
:104D2000881C01F0D3F8A07A2A002100FFF752FF77
:104D3000F5E7881C01F0CAF8F1E74878FFF7D0FEE4
:104D4000EDE70000094B1B780A2B07D00B2B09D08D
:104D5000064B0A221A70054B18787047034B0B223A
:104D60001A70F8E7014B0C221A70F4E7491600207C
:104D700070B504005D4B1B78002B04D15C4B1B7895
:104D8000302B0BD070BD5B4B1A885B4B18785B499E
:104D9000FFF7BCFF554B00221A70F3E7FFF714FE34
:104DA0003020FFF71BFEFFF72BFEFFF753FE544B9F
:104DB0001B78012B2DD0022B00D18AE02378514D96
:104DC000AB706378EB70A3782B71E3786B71237908
:104DD0000F210B40AB716079A3791B0203431B11B8
:104DE000EB71E3792B72237A19406972617AA37AA5
:104DF0001B020B431B11AB72FFF7A4FFE872424B7F
:104E0000197840232A0000200EF002FC03F006FA75
:104E1000B8E701F067FC83783A4D2B73C3786B7366
:104E20000378AB734378EB7303792B7443796B741A
:104E3000037AAB74437AEB7483792B75C3796B7502
:104E4000837AAB75C37AEB7501F04CFC83782B76D3
:104E5000C3786B760378AB764378EB7603792B7760
:104E600043796B77037AAB77437AEB7782792023A8
:104E7000EA54C2790133EA54827A0133EA54C27A9D
:104E80000133EA5401F02EFC82782423EA54C278DC
:104E90000133EA5402780133EA5442780133EA5488
:104EA00002790133EA5442790133EA54027A013338
:104EB000EA54427A0133EA5482790133EA54C279DE
:104EC0000133EA54827A0133EA54C27A0133EA5454
:104ED00074E70E4D280001F057F80A4B0C3307CD4C
:104EE00007C307CD07C307CD07C367E7E961002004
:104EF0004816002046160020EA610020682E002097
:104F0000E8610020282E0020E7610020B03D00204D
:104F100010B5054B01241C70044B1870044B1A800B
:104F200004480BF02BFD10BDE9610020EA61002070
:104F300046160020682E002010B5024B18180BF002
:104F40001DFD10BD282E0020502800D1B0E003D94F
:104F500060282FD0FF2010E0402800D9AAE02028A8
:104F600005D34B2924D88B00564AD3589F46002896
:104F700003D0102800D09FE0002070479520FCE768
:104F80000020FAE72A39504B59187D31FF31087853
:104F9000F3E704394C4B59187D31FF310878ECE7C1
:104FA0000020EAE70020E8E76820E6E70020E4E7E1
:104FB0000020E2E7A92979D88B00444AD3589F46BC
:104FC000FF20DAE70220D8E70120D6E72320D4E744
:104FD0000020D2E7B920D0E71A20CEE70120CCE7A5
:104FE0000020CAE74020C8E70020C6E74020C4E709
:104FF0000020C2E74020C0E70120BEE70020BCE758
:105000000120BAE70020B8E70120B6E70020B4E7A6
:105010003B20B2E73420B0E73B20AEE73420ACE7DA
:105020003B20AAE73420A8E73D39294B585CA4E788
:105030003D39274B585CA0E71A209EE71A209CE7D1
:105040001A209AE75E2098E7012096E7502094E71F
:10505000FD2092E7002090E700208EE7C6208CE735
:105060000F208AE70F2088E7302086E7612084E759
:10507000AE2082E7902080E7D9207EE7D4207CE72D
:1050800014207AE7542078E7412076E7152074E76A
:10509000542072E7C72070E779206EE79C206CE708
:1050A00033206AE7362068E7632066E7002064E77C
:1050B000002062E7FF2060E7FF205EE722205CE738
:1050C00003205AE7D84F0110701900200851011031
:1050D0006C610020F0B58BB006000F00150008A928
:1050E0000F70487000248C70CC700A7105220E205D
:1050F000FFF722FF00941A22002101A80BF038FCD0
:1051000007E03919C9B23000FFF71EFF6B4618558A
:105110000134A542F5DC2A0069461320FFF70CFF95
:105120000BB0F0BD70B5002406E0281C0BF0E2FACD
:10513000A3000F4AD0500134A0235B009C4215D23B
:1051400020000BF056F9F42189050BF0FEF88221BE
:10515000C9050BF0DAF8051C06490BF03DF90028EB
:10516000E3D1A300024A00219950E4E770BDC04694
:105170008C1B00200000FEC010B5002405E0A30039
:105180001B4AC1210906995001347F2C2FD8002CCD
:10519000F5D00F2C0FD91F2C1BD920000BF029F9AB
:1051A000F42189050BF0D1F812490BF0AEF8A300F9
:1051B0000F4AD050E8E720000BF01BF9FA218905CF
:1051C0000BF0C3F80C490BF0A0F8A300084AD0502C
:1051D000DAE720000BF00DF9F62189050BF0B5F8A0
:1051E00006490BF092F8A300014AD050CCE710BD5D
:1051F000A020002000007E400000F84000009E40FB
:1052000010B500240EE020000BF0F3F8F42189051E
:105210000BF09BF88021C9050BF077F8A300034A37
:10522000D05001347F2CEED910BDC046A022002002
:1052300010B5041C0BF004F90BF0E0F88221C9054D
:105240000BF068F80BF0FCF800280BD08221C905A0
:10525000201C0BF05FF88421C9050BF076F80BF0E9
:1052600021F910BD0020FCE710B51C1C022818D045
:10527000032805D0002801D0201C10BD141CFBE71A
:10528000101C0BF047F8041C02990BF097F800284B
:1052900009D10399201C0BF0A7F80028ECD0039C3F
:1052A000EAE70C1CE8E7029CE6E710B5FFF73AFFD7
:1052B000FFF762FFFFF7A4FF10BD000070B5050007
:1052C0000C0000786B781B020343AA781204134386
:1052D000E87800061843FFF7ABFF284E800080599E
:1052E00027490BF032F82070030A6370030CA37097
:1052F000000EE070287A6B7A1B020343AA7A12042C
:105300001343E87A00061843FFF792FF80008059A4
:105310001C490BF01AF82072030A6372030CA37283
:10532000000EE07228796B791B020343AA791204FC
:105330001343E87900061843FFF77AFF80003358DB
:1053400023711A0A62711A0CA2711B0EE371287B79
:105350006B7B1B020343AA7B12041343E87B00060A
:105360001843FFF765FF8000335823731A0A6273EE
:105370001A0CA2731B0EE37370BDC0468C1B002079
:105380000000A04300002043F0B5DE4657464E46DD
:105390004546E0B589B005000C00C678B3091E008B
:1053A0000B700C22002105A80BF0E2FA0C22002160
:1053B00002A80BF0DDFA002E0CD1012E00D99FE0DF
:1053C000022E00D932E109B0F0BCBB46B246A94674
:1053D000A046F0BDAA781209EB7801211940090115
:1053E0000A43DD4B984653009B189B00434405AA93
:1053F00083CB83C200239B46A278E3781B0213432E
:10540000217909040B43627912061A436B46587DD1
:105410008023DB050193C021090600915B460799B3
:10542000FFF722FFA21CA070030A9146E370030C51
:105430002371000E6071C12212069246A279E379AF
:105440001B021343217A09040B43627A12061A43A2
:1054500006996B46187D5F4601975746009753465D
:10546000FFF702FFA071020AE271020C2272000E25
:105470006072EA789206D20E53009B189B00434458
:1054800002AA83CB83C2A27AE37A1B021343217B55
:1054900009040B43627B12061A436B46587A802339
:1054A000DB050193C021090600915B460499FFF7D3
:1054B000DBFEA072020AE272020C2273000E60731D
:1054C000A27BE37B1B021343217C09040B43627C18
:1054D00012061A4303996B46187A5B4601935346AA
:1054E0000093FFF7C1FEA073020AE273020C22745C
:1054F000000E6074210012314846FFF7DFFE5CE7C2
:105500006B785B06DA0E944B984653009B189B0011
:10551000434405AA83CB83C200239B46A278E37849
:105520001B021343217909040B43627912061A43C3
:105530006B46587D8023DB050193C021090600914D
:105540005B460799FFF790FEA21CA070030A9146E4
:10555000E370030C2371000E6071C12212069246A3
:10556000A279E3791B021343217A09040B43627A7F
:1055700012061A4306996B46187D5F4601975746F7
:1055800000975346FFF770FEA071020AE271020C09
:105590002272000E60726A78D209A9780F230B403C
:1055A0005B0013435A00D3189B00434402AA83CBE9
:1055B00083C2A27AE37A1B021343217B09040B43C3
:1055C000627B12061A436B46587A8023DB050193EF
:1055D000C021090600915B460499FFF745FEA072C1
:1055E000020AE272020C2273000E6073A27BE37B5C
:1055F0001B021343217C09040B43627C12061A43ED
:1056000003996B46187A5B46019353460093FFF764
:105610002BFEA073020AE273020C2274000E607467
:10562000210022314846FFF749FEC9E62A78D20612
:10563000D10E05AF930E5B189B00474A9446634416
:105640003A0043CB43C200239A46A278E3781B0278
:105650001343217909040B43627912061A437878BF
:105660008023DB059B460193C0231B060093534612
:105670000799FFF7F9FDA21C9046A070030AE3709A
:10568000030C2371000E6071C12212069146A279AB
:10569000E3791B021343217A09040B43627A120651
:1056A0001A4306993878574601974F4600974B465C
:1056B000FFF7DAFDA071020AE271020C2272000EFD
:1056C00060722A785209697803230B40DB00134388
:1056D00002AD5A00D3189B001F4AD6182A0083CE69
:1056E00083C2A27AE37A1B021343217B09040B4392
:1056F000627B12061A43687859460191C0231B0643
:10570000009353460499FFF7AFFDA072020AE272BC
:10571000020C2273000E6073A27BE37B1B02134317
:10572000217C09040B43627C12061A4303992878F2
:10573000534601934B460093FFF796FDA073020A70
:10574000E273020C2274000E607421003231404674
:10575000FFF7B4FD37E6C046B053011070B5020044
:10576000C3789B090B700478A40840780123034098
:105770009B0123431A4D9B00881CEB588B701C0A1D
:1057800044701C0C84701B0EC37093785B06DB0D99
:10579000EB588B721D0ACD721D0C0D731B0E4B73D3
:1057A00053785B080F4C9B00E3588B711E0ACE7137
:1057B0001E0C0E721B0E4B729578ED09D2783F23AA
:1057C00013405B002B439B00E3588B731C0ACC7384
:1057D0001C0C0C741B0E4B741231FFF76FFD70BD67
:1057E000A0220020A0200020F0B5DE4657464E46FD
:1057F0004546E0B589B005000C000C22002105A843
:105800000BF0B6F80C22002102A80BF0B1F8EE78EC
:10581000B3091E1E23706ED02B78DB0700D473E013
:105820002B785B089B00B649CB58A370190AE1702E
:10583000190C21711B0E6371A978C909EA783F23FD
:1058400013405B000B439B00AE49CB58A371190A70
:10585000E171190C21721B0E6372AA785206D20EE6
:1058600002AB994653009A189200A74B9B184A46E0
:1058700083CB83C200239846A27AE37A1B021343A8
:10588000217B09040B43627B12061A434B4658786E
:105890008023DB050193C0231B0600934346494642
:1058A0008968FFF7E1FCA072020AE272020C22731F
:1058B000000E6073C1231B06A27BE17B090211432A
:1058C000207C00040143627C12060A434946496871
:1058D00048460078474601970093FFF7C5FCA07340
:1058E000020AE273020C2274000E6074A01C2100F4
:1058F0001231FFF7E3FC012E6DD809B0F0BCBB46B6
:10590000B246A946A046F0BD2B785B089B007C4AB6
:10591000D358A372190AE172190C21731B0E637319
:10592000A978C909EA783F2313405B000B439B0029
:10593000744AD358A373190AE173190C21741B0E0E
:105940006374AA785206D20E05AB994653009A1892
:1059500092006D4B9B184A4683CB83C20023984626
:10596000A278E3781B021343217909040B4362797F
:1059700012061A434B4658788023DB050193C02357
:105980001B060093434649468968FFF76DFCA070EB
:10599000020AE270020C2271000E6071C1231B0624
:1059A000A279E17909021143207A00040143627A65
:1059B00012060A4349464968484600784746019717
:1059C0000093FFF751FCA071020AE271020C2272EF
:1059D000000E60728AE76A78D206D10E05AF930E88
:1059E0005B189B00484A944663443A0043CB43C249
:1059F00000239A46A278E3781B0213432179090415
:105A00000B43627912061A4378788023DB059B46A4
:105A10000193C0231B06009353460799FFF724FC0C
:105A2000A21C9046A070030AE370030C2371000EC1
:105A30006071C12212069146A279E3791B021343D9
:105A4000217A09040B43627A12061A4306993878C0
:105A5000574601974F4600974B46FFF705FCA0714C
:105A6000020AE271020C2272000E60726A78520918
:105A7000A97803230B40DB00134302AD5A00D3186F
:105A80009B00214AD6182A0083CE83C2A27AE37AE9
:105A90001B021343217B09040B43627B12061A434A
:105AA000687859460191C0231B0600935346049918
:105AB000FFF7DAFBA072020AE272020C2273000EF8
:105AC0006073A27BE37B1B021343217C09040B431D
:105AD000627C12061A4303992878534601934B4679
